Component: ARM Compiler 5.06 update 6 (build 750) Tool: armlink [4d35ed]

==============================================================================

Section Cross References

    main.o(.text) refers to _printf_percent.o(.ARM.Collect$$_printf_percent$$00000000) for _printf_percent
    main.o(.text) refers to _printf_d.o(.ARM.Collect$$_printf_percent$$00000009) for _printf_d
    main.o(.text) refers to _printf_dec.o(.text) for _printf_int_dec
    main.o(.text) refers to cpu_a.o(.text) for CPU_SR_Save
    main.o(.text) refers to tftlcd.o(.text) for LCD_DrawRectangle
    main.o(.text) refers to os_core.o(.text) for OS_Sched0
    main.o(.text) refers to noretval__2printf.o(.text) for __2printf
    main.o(.text) refers to os_time.o(.text) for OSTimeDly
    main.o(.text) refers to os_task.o(.text) for OSTaskSuspend
    main.o(.text) refers to cpu_core.o(.text) for CPU_Init
    main.o(.text) refers to os_stat.o(.text) for OSStatTaskCPUUsageInit
    main.o(.text) refers to delay.o(.text) for delay_init
    main.o(.text) refers to misc.o(.text) for NVIC_PriorityGroupConfig
    main.o(.text) refers to usart.o(.text) for uart_init
    main.o(.text) refers to led.o(.text) for LED_Init
    main.o(.text) refers to tftlcd.o(.data) for FRONT_COLOR
    main.o(.text) refers to os_var.o(.data) for OSSchedLockNestingCtr
    main.o(.text) refers to main.o(.data) for lcd_discolor
==============================================================================

Removing Unused input sections from the image.

    Removing sys.o(.emb_text), (6 bytes).
    Removing sys.o(.text), (12 bytes).
    Removing core_cm3.o(.emb_text), (32 bytes).
    Removing cpu_c.o(.text), (1916 bytes).
    Removing lib_math.o(.text), (128 bytes).
    Removing lib_math.o(.data), (4 bytes).
    Removing os_app_hooks.o(.text), (200 bytes).

7 unused section(s) (total 2298 bytes) removed from the image.

==============================================================================

Image Symbol Table

    Local Symbols

    Symbol Name                              Value     Ov Type        Size  Object(Section)

    ../clib/angel/boardlib.s                 0x00000000   Number         0  boardinit3.o ABSOLUTE
    ../clib/angel/boardlib.s                 0x00000000   Number         0  boardshut.o ABSOLUTE
    ../clib/angel/boardlib.s                 0x00000000   Number         0  boardinit2.o ABSOLUTE
    ../clib/angel/boardlib.s                 0x00000000   Number         0  boardinit1.o ABSOLUTE
    ../clib/angel/dczerorl2.s                0x00000000   Number         0  __dczerorl2.o ABSOLUTE
    ../clib/angel/handlers.s                 0x00000000   Number         0  __scatter_zi.o ABSOLUTE
    ../clib/angel/kernel.s                   0x00000000   Number         0  __rtentry4.o ABSOLUTE
    ../clib/angel/kernel.s                   0x00000000   Number         0  rtexit2.o ABSOLUTE
    ../clib/angel/kernel.s                   0x00000000   Number         0  __rtentry2.o ABSOLUTE
    ../clib/angel/kernel.s                   0x00000000   Number         0  __rtentry.o ABSOLUTE
    ../clib/angel/kernel.s                   0x00000000   Number         0  rtexit.o ABSOLUTE
    ../clib/angel/rt.s                       0x00000000   Number         0  aeabi_ldiv0_sigfpe.o ABSOLUTE
    ../clib/angel/rt.s                       0x00000000   Number         0  aeabi_ldiv0.o ABSOLUTE
    ../clib/angel/rt.s                       0x00000000   Number         0  rt_raise.o ABSOLUTE
    ../clib/angel/rt.s                       0x00000000   Number         0  rt_div0.o ABSOLUTE
    ../clib/angel/scatter.s                  0x00000000   Number         0  __scatter.o ABSOLUTE
    ../clib/angel/startup.s                  0x00000000   Number         0  __main.o ABSOLUTE
    ../clib/angel/sys.s                      0x00000000   Number         0  use_no_semi_2.o ABSOLUTE
    ../clib/angel/sys.s                      0x00000000   Number         0  libspace.o ABSOLUTE
    ../clib/angel/sys.s                      0x00000000   Number         0  use_no_semi.o ABSOLUTE
    ../clib/angel/sys.s                      0x00000000   Number         0  sys_stackheap_outer.o ABSOLUTE
    ../clib/angel/sys.s                      0x00000000   Number         0  indicate_semi.o ABSOLUTE
    ../clib/angel/sysapp.c                   0x00000000   Number         0  sys_wrch.o ABSOLUTE
    ../clib/angel/sysapp.c                   0x00000000   Number         0  sys_command.o ABSOLUTE
    ../clib/armsys.c                         0x00000000   Number         0  no_argv.o ABSOLUTE
    ../clib/armsys.c                         0x00000000   Number         0  _get_argv_nomalloc.o ABSOLUTE
    ../clib/armsys.c                         0x00000000   Number         0  argv_veneer.o ABSOLUTE
    ../clib/armsys.c                         0x00000000   Number         0  argv_veneer.o ABSOLUTE
    ../clib/heapalloc.c                      0x00000000   Number         0  hrguard.o ABSOLUTE
    ../clib/heapaux.c                        0x00000000   Number         0  heapauxi.o ABSOLUTE
    ../clib/libinit.s                        0x00000000   Number         0  libshutdown.o ABSOLUTE
    ../clib/libinit.s                        0x00000000   Number         0  libinit.o ABSOLUTE
    ../clib/libinit.s                        0x00000000   Number         0  libinit2.o ABSOLUTE
    ../clib/libinit.s                        0x00000000   Number         0  libshutdown2.o ABSOLUTE
    ../clib/longlong.s                       0x00000000   Number         0  lludivv7m.o ABSOLUTE
    ../clib/printf.c                         0x00000000   Number         0  __printf_flags_ss_wp.o ABSOLUTE
    ../clib/printf.c                         0x00000000   Number         0  _printf_hex_int.o ABSOLUTE
    ../clib/printf.c                         0x00000000   Number         0  _printf_intcommon.o ABSOLUTE
    ../clib/printf.c                         0x00000000   Number         0  __printf_flags_wp.o ABSOLUTE
    ../clib/printf.c                         0x00000000   Number         0  _printf_hex_ll.o ABSOLUTE
    ../clib/printf.c                         0x00000000   Number         0  _printf_char_file.o ABSOLUTE
    ../clib/printf.c                         0x00000000   Number         0  _printf_hex_ptr.o ABSOLUTE
    ../clib/printf.c                         0x00000000   Number         0  __printf.o ABSOLUTE
    ../clib/printf.c                         0x00000000   Number         0  _printf_hex_int_ll.o ABSOLUTE
    ../clib/printf.c                         0x00000000   Number         0  __printf_ss.o ABSOLUTE
    ../clib/printf.c                         0x00000000   Number         0  _printf_char_common.o ABSOLUTE
    ../clib/printf.c                         0x00000000   Number         0  _printf_dec.o ABSOLUTE
    ../clib/printf.c                         0x00000000   Number         0  noretval__2printf.o ABSOLUTE
    ../clib/printf.c                         0x00000000   Number         0  __printf_flags_ss.o ABSOLUTE
    ../clib/printf.c                         0x00000000   Number         0  __printf_wp.o ABSOLUTE
    ../clib/printf.c                         0x00000000   Number         0  __printf_flags.o ABSOLUTE
    ../clib/printf.c                         0x00000000   Number         0  _printf_hex_int_ll_ptr.o ABSOLUTE
    ../clib/printf.c                         0x00000000   Number         0  __printf_nopercent.o ABSOLUTE
    ../clib/printf.c                         0x00000000   Number         0  _printf_hex_ll_ptr.o ABSOLUTE
    ../clib/printf.c                         0x00000000   Number         0  __printf_ss_wp.o ABSOLUTE
    ../clib/printf.c                         0x00000000   Number         0  _printf_hex_int_ptr.o ABSOLUTE
    ../clib/printf.c                         0x00000000   Number         0  __2printf.o ABSOLUTE
    ../clib/printf_percent.s                 0x00000000   Number         0  _printf_percent_end.o ABSOLUTE
    ../clib/printf_percent.s                 0x00000000   Number         0  _printf_d.o ABSOLUTE
    ../clib/printf_percent.s                 0x00000000   Number         0  _printf_percent.o ABSOLUTE
    ../clib/printf_percent.s                 0x00000000   Number         0  _printf_x.o ABSOLUTE
    ../clib/signal.c                         0x00000000   Number         0  defsig_rtmem_inner.o ABSOLUTE
    ../clib/signal.c                         0x00000000   Number         0  defsig_rtred_inner.o ABSOLUTE
    ../clib/signal.c                         0x00000000   Number         0  defsig_general.o ABSOLUTE
    ../clib/signal.c                         0x00000000   Number         0  __raise.o ABSOLUTE
    ../clib/signal.c                         0x00000000   Number         0  defsig_fpe_inner.o ABSOLUTE
    ../clib/signal.c                         0x00000000   Number         0  defsig_exit.o ABSOLUTE
    ../clib/signal.c                         0x00000000   Number         0  defsig_abrt_inner.o ABSOLUTE
    ../clib/signal.c                         0x00000000   Number         0  defsig_fpe_formal.o ABSOLUTE
    ../clib/signal.c                         0x00000000   Number         0  defsig_fpe_outer.o ABSOLUTE
    ../clib/signal.c                         0x00000000   Number         0  defsig_other.o ABSOLUTE
    ../clib/signal.c                         0x00000000   Number         0  defsig_segv_inner.o ABSOLUTE
    ../clib/signal.c                         0x00000000   Number         0  defsig_cppl_inner.o ABSOLUTE
    ../clib/signal.c                         0x00000000   Number         0  defsig_pvfn_inner.o ABSOLUTE
    ../clib/signal.c                         0x00000000   Number         0  defsig_stak_inner.o ABSOLUTE
    ../clib/signal.c                         0x00000000   Number         0  defsig_rtmem_formal.o ABSOLUTE
    ../clib/signal.c                         0x00000000   Number         0  defsig_rtmem_outer.o ABSOLUTE
    ../clib/signal.s                         0x00000000   Number         0  defsig.o ABSOLUTE
    ../clib/stdio.c                          0x00000000   Number         0  ferror_locked.o ABSOLUTE
    ../clib/stdio.c                          0x00000000   Number         0  ferror.o ABSOLUTE
    ../clib/stdlib.c                         0x00000000   Number         0  exit.o ABSOLUTE
    ../fplib/fpinit.s                        0x00000000   Number         0  fpinit.o ABSOLUTE
    ..\CORE\core_cm3.c                       0x00000000   Number         0  core_cm3.o ABSOLUTE
    ..\CORE\startup_stm32f10x_hd.s           0x00000000   Number         0  startup_stm32f10x_hd.o ABSOLUTE
    ..\FWLIB\STM32F10x_FWLib\src\misc.c      0x00000000   Number         0  misc.o ABSOLUTE
    ..\FWLIB\STM32F10x_FWLib\src\stm32f10x_fsmc.c 0x00000000   Number         0  stm32f10x_fsmc.o ABSOLUTE
    ..\FWLIB\STM32F10x_FWLib\src\stm32f10x_gpio.c 0x00000000   Number         0  stm32f10x_gpio.o ABSOLUTE
    ..\FWLIB\STM32F10x_FWLib\src\stm32f10x_rcc.c 0x00000000   Number         0  stm32f10x_rcc.o ABSOLUTE
    ..\FWLIB\STM32F10x_FWLib\src\stm32f10x_usart.c 0x00000000   Number         0  stm32f10x_usart.o ABSOLUTE
    ..\HARDWARE\LED\led.c                    0x00000000   Number         0  led.o ABSOLUTE
    ..\HARDWARE\tftlcd\tftlcd.c              0x00000000   Number         0  tftlcd.o ABSOLUTE
    ..\SYSTEM\delay\delay.c                  0x00000000   Number         0  delay.o ABSOLUTE
    ..\SYSTEM\sys\sys.c                      0x00000000   Number         0  sys.o ABSOLUTE
    ..\SYSTEM\usart\usart.c                  0x00000000   Number         0  usart.o ABSOLUTE
    ..\UCOSIII\UCOS_BSP\bsp.c                0x00000000   Number         0  bsp.o ABSOLUTE
    ..\UCOSIII\uC-CPU\ARM-Cortex-M3\RealView\cpu_a.asm 0x00000000   Number         0  cpu_a.o ABSOLUTE
    ..\UCOSIII\uC-CPU\ARM-Cortex-M3\RealView\cpu_c.c 0x00000000   Number         0  cpu_c.o ABSOLUTE
    ..\UCOSIII\uC-CPU\cpu_core.c             0x00000000   Number         0  cpu_core.o ABSOLUTE
    ..\UCOSIII\uC-LIB\Ports\ARM-Cortex-M3\RealView\lib_mem_a.asm 0x00000000   Number         0  lib_mem_a.o ABSOLUTE
    ..\UCOSIII\uC-LIB\lib_ascii.c            0x00000000   Number         0  lib_ascii.o ABSOLUTE
    ..\UCOSIII\uC-LIB\lib_math.c             0x00000000   Number         0  lib_math.o ABSOLUTE
    ..\UCOSIII\uC-LIB\lib_mem.c              0x00000000   Number         0  lib_mem.o ABSOLUTE
    ..\UCOSIII\uC-LIB\lib_str.c              0x00000000   Number         0  lib_str.o ABSOLUTE
    ..\UCOSIII\uCOS-III\Ports\ARM-Cortex-M3\Generic\RealView\os_cpu_a.s 0x00000000   Number         0  os_cpu_a.o ABSOLUTE
    ..\UCOSIII\uCOS-III\Ports\ARM-Cortex-M3\Generic\RealView\os_cpu_c.c 0x00000000   Number         0  os_cpu_c.o ABSOLUTE
    ..\UCOSIII\uCOS-III\Source\os_cfg_app.c  0x00000000   Number         0  os_cfg_app.o ABSOLUTE
    ..\UCOSIII\uCOS-III\Source\os_core.c     0x00000000   Number         0  os_core.o ABSOLUTE
    ..\UCOSIII\uCOS-III\Source\os_dbg.c      0x00000000   Number         0  os_dbg.o ABSOLUTE
    ..\UCOSIII\uCOS-III\Source\os_flag.c     0x00000000   Number         0  os_flag.o ABSOLUTE
    ..\UCOSIII\uCOS-III\Source\os_int.c      0x00000000   Number         0  os_int.o ABSOLUTE
    ..\UCOSIII\uCOS-III\Source\os_mem.c      0x00000000   Number         0  os_mem.o ABSOLUTE
    ..\UCOSIII\uCOS-III\Source\os_msg.c      0x00000000   Number         0  os_msg.o ABSOLUTE
    ..\UCOSIII\uCOS-III\Source\os_mutex.c    0x00000000   Number         0  os_mutex.o ABSOLUTE
    ..\UCOSIII\uCOS-III\Source\os_pend_multi.c 0x00000000   Number         0  os_pend_multi.o ABSOLUTE
    ..\UCOSIII\uCOS-III\Source\os_prio.c     0x00000000   Number         0  os_prio.o ABSOLUTE
    ..\UCOSIII\uCOS-III\Source\os_q.c        0x00000000   Number         0  os_q.o ABSOLUTE
    ..\UCOSIII\uCOS-III\Source\os_sem.c      0x00000000   Number         0  os_sem.o ABSOLUTE
    ..\UCOSIII\uCOS-III\Source\os_stat.c     0x00000000   Number         0  os_stat.o ABSOLUTE
    ..\UCOSIII\uCOS-III\Source\os_task.c     0x00000000   Number         0  os_task.o ABSOLUTE
    ..\UCOSIII\uCOS-III\Source\os_tick.c     0x00000000   Number         0  os_tick.o ABSOLUTE
    ..\UCOSIII\uCOS-III\Source\os_time.c     0x00000000   Number         0  os_time.o ABSOLUTE
    ..\UCOSIII\uCOS-III\Source\os_tmr.c      0x00000000   Number         0  os_tmr.o ABSOLUTE
    ..\UCOSIII\uCOS-III\Source\os_var.c      0x00000000   Number         0  os_var.o ABSOLUTE
    ..\UCOSIII\uCOS_CONFIG\os_app_hooks.c    0x00000000   Number         0  os_app_hooks.o ABSOLUTE
    ..\\CORE\\core_cm3.c                     0x00000000   Number         0  core_cm3.o ABSOLUTE
    ..\\SYSTEM\\sys\\sys.c                   0x00000000   Number         0  sys.o ABSOLUTE
    dc.s                                     0x00000000   Number         0  dc.o ABSOLUTE
    main.c                                   0x00000000   Number         0  main.o ABSOLUTE
    stm32f10x_it.c                           0x00000000   Number         0  stm32f10x_it.o ABSOLUTE
    system_stm32f10x.c                       0x00000000   Number         0  system_stm32f10x.o ABSOLUTE
    RESET                                    0x08000000   Section      304  startup_stm32f10x_hd.o(RESET)
    !!!main                                  0x08000130   Section        8  __main.o(!!!main)
    !!!scatter                               0x08000138   Section       52  __scatter.o(!!!scatter)
    !!dczerorl2                              0x0800016c   Section       90  __dczerorl2.o(!!dczerorl2)
    !!handler_zi                             0x080001c8   Section       28  __scatter_zi.o(!!handler_zi)
    .ARM.Collect$$_printf_percent$$00000000  0x080001e4   Section        0  _printf_percent.o(.ARM.Collect$$_printf_percent$$00000000)
    .ARM.Collect$$_printf_percent$$00000009  0x080001e4   Section        6  _printf_d.o(.ARM.Collect$$_printf_percent$$00000009)
    .ARM.Collect$$_printf_percent$$0000000C  0x080001ea   Section        6  _printf_x.o(.ARM.Collect$$_printf_percent$$0000000C)
    .ARM.Collect$$_printf_percent$$00000017  0x080001f0   Section        4  _printf_percent_end.o(.ARM.Collect$$_printf_percent$$00000017)
    .ARM.Collect$$libinit$$00000000          0x080001f4   Section        2  libinit.o(.ARM.Collect$$libinit$$00000000)
    .ARM.Collect$$libinit$$00000002          0x080001f6   Section        0  libinit2.o(.ARM.Collect$$libinit$$00000002)
    .ARM.Collect$$libinit$$00000004          0x080001f6   Section        0  libinit2.o(.ARM.Collect$$libinit$$00000004)
    .ARM.Collect$$libinit$$0000000A          0x080001f6   Section        0  libinit2.o(.ARM.Collect$$libinit$$0000000A)
    .ARM.Collect$$libinit$$0000000C          0x080001f6   Section        0  libinit2.o(.ARM.Collect$$libinit$$0000000C)
    .ARM.Collect$$libinit$$0000000E          0x080001f6   Section        0  libinit2.o(.ARM.Collect$$libinit$$0000000E)
    .ARM.Collect$$libinit$$00000011          0x080001f6   Section        0  libinit2.o(.ARM.Collect$$libinit$$00000011)
    .ARM.Collect$$libinit$$00000013          0x080001f6   Section        0  libinit2.o(.ARM.Collect$$libinit$$00000013)
    .ARM.Collect$$libinit$$00000015          0x080001f6   Section        0  libinit2.o(.ARM.Collect$$libinit$$00000015)
    .ARM.Collect$$libinit$$00000017          0x080001f6   Section        0  libinit2.o(.ARM.Collect$$libinit$$00000017)
    .ARM.Collect$$libinit$$00000019          0x080001f6   Section        0  libinit2.o(.ARM.Collect$$libinit$$00000019)
    .ARM.Collect$$libinit$$0000001B          0x080001f6   Section        0  libinit2.o(.ARM.Collect$$libinit$$0000001B)
    .ARM.Collect$$libinit$$0000001D          0x080001f6   Section        0  libinit2.o(.ARM.Collect$$libinit$$0000001D)
    .ARM.Collect$$libinit$$0000001F          0x080001f6   Section        0  libinit2.o(.ARM.Collect$$libinit$$0000001F)
    .ARM.Collect$$libinit$$00000021          0x080001f6   Section        0  libinit2.o(.ARM.Collect$$libinit$$00000021)
    .ARM.Collect$$libinit$$00000023          0x080001f6   Section        0  libinit2.o(.ARM.Collect$$libinit$$00000023)
    .ARM.Collect$$libinit$$00000025          0x080001f6   Section        0  libinit2.o(.ARM.Collect$$libinit$$00000025)
    .ARM.Collect$$libinit$$0000002C          0x080001f6   Section        0  libinit2.o(.ARM.Collect$$libinit$$0000002C)
    .ARM.Collect$$libinit$$0000002E          0x080001f6   Section        0  libinit2.o(.ARM.Collect$$libinit$$0000002E)
    .ARM.Collect$$libinit$$00000030          0x080001f6   Section        0  libinit2.o(.ARM.Collect$$libinit$$00000030)
    .ARM.Collect$$libinit$$00000032          0x080001f6   Section        0  libinit2.o(.ARM.Collect$$libinit$$00000032)
    .ARM.Collect$$libinit$$00000033          0x080001f6   Section        2  libinit2.o(.ARM.Collect$$libinit$$00000033)
    .ARM.Collect$$libshutdown$$00000000      0x080001f8   Section        2  libshutdown.o(.ARM.Collect$$libshutdown$$00000000)
    .ARM.Collect$$libshutdown$$00000002      0x080001fa   Section        0  libshutdown2.o(.ARM.Collect$$libshutdown$$00000002)
    .ARM.Collect$$libshutdown$$00000004      0x080001fa   Section        0  libshutdown2.o(.ARM.Collect$$libshutdown$$00000004)
    .ARM.Collect$$libshutdown$$00000007      0x080001fa   Section        0  libshutdown2.o(.ARM.Collect$$libshutdown$$00000007)
    .ARM.Collect$$libshutdown$$0000000A      0x080001fa   Section        0  libshutdown2.o(.ARM.Collect$$libshutdown$$0000000A)
    .ARM.Collect$$libshutdown$$0000000C      0x080001fa   Section        0  libshutdown2.o(.ARM.Collect$$libshutdown$$0000000C)
    .ARM.Collect$$libshutdown$$0000000F      0x080001fa   Section        0  libshutdown2.o(.ARM.Collect$$libshutdown$$0000000F)
    .ARM.Collect$$libshutdown$$00000010      0x080001fa   Section        2  libshutdown2.o(.ARM.Collect$$libshutdown$$00000010)
    .ARM.Collect$$rtentry$$00000000          0x080001fc   Section        0  __rtentry.o(.ARM.Collect$$rtentry$$00000000)
    .ARM.Collect$$rtentry$$00000002          0x080001fc   Section        0  __rtentry2.o(.ARM.Collect$$rtentry$$00000002)
    .ARM.Collect$$rtentry$$00000004          0x080001fc   Section        6  __rtentry4.o(.ARM.Collect$$rtentry$$00000004)
    .ARM.Collect$$rtentry$$00000009          0x08000202   Section        0  __rtentry2.o(.ARM.Collect$$rtentry$$00000009)
    .ARM.Collect$$rtentry$$0000000A          0x08000202   Section        4  __rtentry2.o(.ARM.Collect$$rtentry$$0000000A)
    .ARM.Collect$$rtentry$$0000000C          0x08000206   Section        0  __rtentry2.o(.ARM.Collect$$rtentry$$0000000C)
    .ARM.Collect$$rtentry$$0000000D          0x08000206   Section        8  __rtentry2.o(.ARM.Collect$$rtentry$$0000000D)
    .ARM.Collect$$rtexit$$00000000           0x0800020e   Section        2  rtexit.o(.ARM.Collect$$rtexit$$00000000)
    .ARM.Collect$$rtexit$$00000002           0x08000210   Section        0  rtexit2.o(.ARM.Collect$$rtexit$$00000002)
    .ARM.Collect$$rtexit$$00000003           0x08000210   Section        4  rtexit2.o(.ARM.Collect$$rtexit$$00000003)
    .ARM.Collect$$rtexit$$00000004           0x08000214   Section        6  rtexit2.o(.ARM.Collect$$rtexit$$00000004)
    .text                                    0x0800021c   Section        0  main.o(.text)
    .text                                    0x08000768   Section        0  stm32f10x_it.o(.text)
    .text                                    0x08000780   Section        0  system_stm32f10x.o(.text)
    SetSysClockTo72                          0x08000781   Thumb Code   214  system_stm32f10x.o(.text)
    SetSysClock                              0x08000857   Thumb Code     8  system_stm32f10x.o(.text)
    .text                                    0x08000960   Section        0  led.o(.text)
    .text                                    0x080009ac   Section        0  tftlcd.o(.text)
    .text                                    0x08001718   Section        0  delay.o(.text)
    .text                                    0x08001864   Section        0  usart.o(.text)
    .text                                    0x080019b4   Section       64  startup_stm32f10x_hd.o(.text)
    .text                                    0x080019f4   Section        0  misc.o(.text)
    .text                                    0x08001ad0   Section        0  stm32f10x_gpio.o(.text)
    .text                                    0x08001e2c   Section        0  stm32f10x_usart.o(.text)
    .text                                    0x08002234   Section        0  stm32f10x_rcc.o(.text)
    .text                                    0x080025d8   Section        0  stm32f10x_fsmc.o(.text)
    .text                                    0x08002be4   Section        0  bsp.o(.text)
    .text                                    0x08002c68   Section        0  cpu_core.o(.text)
    CPU_NameInit                             0x08002c93   Thumb Code     8  cpu_core.o(.text)
    CPU_TS_Init                              0x08002c9b   Thumb Code    14  cpu_core.o(.text)
    .text                                    0x08002f10   Section       52  cpu_a.o(.text)
    .text                                    0x08002f44   Section        0  lib_ascii.o(.text)
    .text                                    0x0800319c   Section        0  lib_mem.o(.text)
    Mem_SegAlloc                             0x080033b3   Thumb Code    60  lib_mem.o(.text)
    Mem_SegCalcTotSize                       0x080033ef   Thumb Code    60  lib_mem.o(.text)
    .text                                    0x08003b64   Section        0  lib_str.o(.text)
    Str_FmtNbr_Int32                         0x0800401d   Thumb Code   476  lib_str.o(.text)
    Str_ParseNbr_Int32                       0x08004265   Thumb Code   446  lib_str.o(.text)
    .text                                    0x08004490   Section      544  lib_mem_a.o(.text)
    .text                                    0x080046b0   Section        0  os_cfg_app.o(.text)
    .text                                    0x080047ac   Section        0  os_core.o(.text)
    .text                                    0x080055b0   Section        0  os_dbg.o(.text)
    .text                                    0x08005760   Section        0  os_flag.o(.text)
    .text                                    0x08006588   Section        0  os_int.o(.text)
    .text                                    0x080069cc   Section        0  os_mem.o(.text)
    .text                                    0x08006c04   Section        0  os_msg.o(.text)
    .text                                    0x08006e30   Section        0  os_mutex.o(.text)
    .text                                    0x08007904   Section        0  os_prio.o(.text)
    .text                                    0x08007980   Section        0  os_q.o(.text)
    .text                                    0x08008258   Section        0  os_sem.o(.text)
    .text                                    0x08008a88   Section        0  os_stat.o(.text)
    .text                                    0x080090c0   Section        0  os_task.o(.text)
    .text                                    0x0800ac74   Section        0  os_tick.o(.text)
    .text                                    0x0800b170   Section        0  os_time.o(.text)
    .text                                    0x0800b6d4   Section        0  os_tmr.o(.text)
    .text                                    0x0800beec   Section        0  os_cpu_c.o(.text)
    .text                                    0x0800c158   Section        2  use_no_semi_2.o(.text)
    .text                                    0x0800c15a   Section      238  lludivv7m.o(.text)
    .text                                    0x0800c248   Section        0  noretval__2printf.o(.text)
    .text                                    0x0800c260   Section        0  __printf.o(.text)
    .text                                    0x0800c2c8   Section        0  _printf_dec.o(.text)
    .text                                    0x0800c340   Section        0  _printf_hex_int.o(.text)
    .text                                    0x0800c398   Section        0  heapauxi.o(.text)
    .text                                    0x0800c39e   Section        2  use_no_semi.o(.text)
    .text                                    0x0800c3a0   Section        0  _printf_intcommon.o(.text)
    .text                                    0x0800c454   Section        0  _printf_char_file.o(.text)
    .text                                    0x0800c478   Section        0  _printf_char_common.o(.text)
    _printf_input_char                       0x0800c479   Thumb Code    10  _printf_char_common.o(.text)
    .text                                    0x0800c4a8   Section        0  ferror.o(.text)
    .text                                    0x0800c4b0   Section       74  sys_stackheap_outer.o(.text)
    .text                                    0x0800c4fa   Section        0  exit.o(.text)
    .text                                    0x0800c50c   Section        8  libspace.o(.text)
    CODE                                     0x0800c514   Section      152  os_cpu_a.o(CODE)
    .constdata                               0x0800c5ac   Section     7142  tftlcd.o(.constdata)
    .constdata                               0x0800e194   Section      260  cpu_core.o(.constdata)
    CPU_CntLeadZerosTbl                      0x0800e194   Data         256  cpu_core.o(.constdata)
    .constdata                               0x0800e298   Section      148  lib_str.o(.constdata)
    Str_MultOvfThTbl_Int32U                  0x0800e298   Data         148  lib_str.o(.constdata)
    .constdata                               0x0800e32c   Section      164  os_cfg_app.o(.constdata)
    .constdata                               0x0800e3d0   Section      364  os_dbg.o(.constdata)
    .constdata                               0x0800e53c   Section       40  _printf_hex_int.o(.constdata)
    uc_hextab                                0x0800e53c   Data          20  _printf_hex_int.o(.constdata)
    lc_hextab                                0x0800e550   Data          20  _printf_hex_int.o(.constdata)
    .data                                    0x20000000   Section       56  main.o(.data)
    .data                                    0x20000038   Section       20  system_stm32f10x.o(.data)
    .data                                    0x2000004c   Section       12  tftlcd.o(.data)
    .data                                    0x20000058   Section        4  delay.o(.data)
    fac_us                                   0x20000058   Data           1  delay.o(.data)
    fac_ms                                   0x2000005a   Data           2  delay.o(.data)
    .data                                    0x2000005c   Section        6  usart.o(.data)
    .data                                    0x20000062   Section       20  stm32f10x_rcc.o(.data)
    APBAHBPrescTable                         0x20000062   Data          16  stm32f10x_rcc.o(.data)
    ADCPrescTable                            0x20000072   Data           4  stm32f10x_rcc.o(.data)
    .data                                    0x20000078   Section        4  cpu_core.o(.data)
    .data                                    0x2000007c   Section        4  lib_mem.o(.data)
    .data                                    0x20000080   Section        8  os_prio.o(.data)
    .data                                    0x20000088   Section      200  os_var.o(.data)
    .data                                    0x20000150   Section        4  os_cpu_c.o(.data)
    .bss                                     0x20000154   Section     2124  main.o(.bss)
    .bss                                     0x200009a0   Section      200  usart.o(.bss)
    .bss                                     0x20000a68   Section       16  cpu_core.o(.bss)
    .bss                                     0x20000a78   Section     1096  lib_mem.o(.bss)
    .bss                                     0x20000ec0   Section     5264  os_cfg_app.o(.bss)
    .bss                                     0x20002350   Section     1760  os_var.o(.bss)
    .bss                                     0x20002a30   Section       96  libspace.o(.bss)
    HEAP                                     0x20002a90   Section      512  startup_stm32f10x_hd.o(HEAP)
    Heap_Mem                                 0x20002a90   Data         512  startup_stm32f10x_hd.o(HEAP)
    STACK                                    0x20002c90   Section     2048  startup_stm32f10x_hd.o(STACK)
    Stack_Mem                                0x20002c90   Data        2048  startup_stm32f10x_hd.o(STACK)
    __initial_sp                             0x20003490   Data           0  startup_stm32f10x_hd.o(STACK)

    Global Symbols

    Symbol Name                              Value     Ov Type        Size  Object(Section)

    BuildAttributes$$THM_ISAv4$P$D$K$B$S$PE$A:L22UL41UL21$X:L11$S22US41US21$IEEE1$IW$USESV6$~STKCKD$USESV7$~SHL$OSPACE$ROPI$EBA8$UX$STANDARDLIB$REQ8$PRES8$EABIv2 0x00000000   Number         0  anon$$obj.o ABSOLUTE
    __ARM_use_no_argv                        0x00000000   Number         0  main.o ABSOLUTE
    __ARM_exceptions_init                     - Undefined Weak Reference
    __alloca_initialize                       - Undefined Weak Reference
    __arm_preinit_                            - Undefined Weak Reference
    __cpp_initialize__aeabi_                  - Undefined Weak Reference
    __cxa_finalize                            - Undefined Weak Reference
    __rt_locale                               - Undefined Weak Reference
    __sigvec_lookup                           - Undefined Weak Reference
    _atexit_init                              - Undefined Weak Reference
    _call_atexit_fns                          - Undefined Weak Reference
    _clock_init                               - Undefined Weak Reference
    _fp_trap_init                             - Undefined Weak Reference
    _fp_trap_shutdown                         - Undefined Weak Reference
    _get_lc_collate                           - Undefined Weak Reference
    _get_lc_ctype                             - Undefined Weak Reference
    _get_lc_monetary                          - Undefined Weak Reference
    _get_lc_numeric                           - Undefined Weak Reference
    _get_lc_time                              - Undefined Weak Reference
    _getenv_init                              - Undefined Weak Reference
    _handle_redirection                       - Undefined Weak Reference
    _init_alloc                               - Undefined Weak Reference
    _init_user_alloc                          - Undefined Weak Reference
    _initio                                   - Undefined Weak Reference
    _mutex_acquire                            - Undefined Weak Reference
    _mutex_release                            - Undefined Weak Reference
    _printf_post_padding                      - Undefined Weak Reference
    _printf_pre_padding                       - Undefined Weak Reference
    _printf_truncate_signed                   - Undefined Weak Reference
    _printf_truncate_unsigned                 - Undefined Weak Reference
    _rand_init                                - Undefined Weak Reference
    _signal_finish                            - Undefined Weak Reference
    _signal_init                              - Undefined Weak Reference
    _terminate_alloc                          - Undefined Weak Reference
    _terminate_user_alloc                     - Undefined Weak Reference
    _terminateio                              - Undefined Weak Reference
    __Vectors_Size                           0x00000130   Number         0  startup_stm32f10x_hd.o ABSOLUTE
    __Vectors                                0x08000000   Data           4  startup_stm32f10x_hd.o(RESET)
    __Vectors_End                            0x08000130   Data           0  startup_stm32f10x_hd.o(RESET)
    __main                                   0x08000131   Thumb Code     8  __main.o(!!!main)
    __scatterload                            0x08000139   Thumb Code     0  __scatter.o(!!!scatter)
    __scatterload_rt2                        0x08000139   Thumb Code    44  __scatter.o(!!!scatter)
    __scatterload_rt2_thumb_only             0x08000139   Thumb Code     0  __scatter.o(!!!scatter)
    __scatterload_null                       0x08000147   Thumb Code     0  __scatter.o(!!!scatter)
    __decompress                             0x0800016d   Thumb Code    90  __dczerorl2.o(!!dczerorl2)
    __decompress1                            0x0800016d   Thumb Code     0  __dczerorl2.o(!!dczerorl2)
    __scatterload_zeroinit                   0x080001c9   Thumb Code    28  __scatter_zi.o(!!handler_zi)
    _printf_d                                0x080001e5   Thumb Code     0  _printf_d.o(.ARM.Collect$$_printf_percent$$00000009)
    _printf_percent                          0x080001e5   Thumb Code     0  _printf_percent.o(.ARM.Collect$$_printf_percent$$00000000)
    _printf_x                                0x080001eb   Thumb Code     0  _printf_x.o(.ARM.Collect$$_printf_percent$$0000000C)
    _printf_percent_end                      0x080001f1   Thumb Code     0  _printf_percent_end.o(.ARM.Collect$$_printf_percent$$00000017)
    __rt_lib_init                            0x080001f5   Thumb Code     0  libinit.o(.ARM.Collect$$libinit$$00000000)
    __rt_lib_init_alloca_1                   0x080001f7   Thumb Code     0  libinit2.o(.ARM.Collect$$libinit$$0000002E)
    __rt_lib_init_argv_1                     0x080001f7   Thumb Code     0  libinit2.o(.ARM.Collect$$libinit$$0000002C)
    __rt_lib_init_atexit_1                   0x080001f7   Thumb Code     0  libinit2.o(.ARM.Collect$$libinit$$0000001B)
    __rt_lib_init_clock_1                    0x080001f7   Thumb Code     0  libinit2.o(.ARM.Collect$$libinit$$00000021)
    __rt_lib_init_cpp_1                      0x080001f7   Thumb Code     0  libinit2.o(.ARM.Collect$$libinit$$00000032)
    __rt_lib_init_exceptions_1               0x080001f7   Thumb Code     0  libinit2.o(.ARM.Collect$$libinit$$00000030)
    __rt_lib_init_fp_1                       0x080001f7   Thumb Code     0  libinit2.o(.ARM.Collect$$libinit$$00000002)
    __rt_lib_init_fp_trap_1                  0x080001f7   Thumb Code     0  libinit2.o(.ARM.Collect$$libinit$$0000001F)
    __rt_lib_init_getenv_1                   0x080001f7   Thumb Code     0  libinit2.o(.ARM.Collect$$libinit$$00000023)
    __rt_lib_init_heap_1                     0x080001f7   Thumb Code     0  libinit2.o(.ARM.Collect$$libinit$$0000000A)
    __rt_lib_init_lc_collate_1               0x080001f7   Thumb Code     0  libinit2.o(.ARM.Collect$$libinit$$00000011)
    __rt_lib_init_lc_ctype_1                 0x080001f7   Thumb Code     0  libinit2.o(.ARM.Collect$$libinit$$00000013)
    __rt_lib_init_lc_monetary_1              0x080001f7   Thumb Code     0  libinit2.o(.ARM.Collect$$libinit$$00000015)
    __rt_lib_init_lc_numeric_1               0x080001f7   Thumb Code     0  libinit2.o(.ARM.Collect$$libinit$$00000017)
    __rt_lib_init_lc_time_1                  0x080001f7   Thumb Code     0  libinit2.o(.ARM.Collect$$libinit$$00000019)
    __rt_lib_init_preinit_1                  0x080001f7   Thumb Code     0  libinit2.o(.ARM.Collect$$libinit$$00000004)
    __rt_lib_init_rand_1                     0x080001f7   Thumb Code     0  libinit2.o(.ARM.Collect$$libinit$$0000000E)
    __rt_lib_init_return                     0x080001f7   Thumb Code     0  libinit2.o(.ARM.Collect$$libinit$$00000033)
    __rt_lib_init_signal_1                   0x080001f7   Thumb Code     0  libinit2.o(.ARM.Collect$$libinit$$0000001D)
    __rt_lib_init_stdio_1                    0x080001f7   Thumb Code     0  libinit2.o(.ARM.Collect$$libinit$$00000025)
    __rt_lib_init_user_alloc_1               0x080001f7   Thumb Code     0  libinit2.o(.ARM.Collect$$libinit$$0000000C)
    __rt_lib_shutdown                        0x080001f9   Thumb Code     0  libshutdown.o(.ARM.Collect$$libshutdown$$00000000)
    __rt_lib_shutdown_cpp_1                  0x080001fb   Thumb Code     0  libshutdown2.o(.ARM.Collect$$libshutdown$$00000002)
    __rt_lib_shutdown_fp_trap_1              0x080001fb   Thumb Code     0  libshutdown2.o(.ARM.Collect$$libshutdown$$00000007)
    __rt_lib_shutdown_heap_1                 0x080001fb   Thumb Code     0  libshutdown2.o(.ARM.Collect$$libshutdown$$0000000F)
    __rt_lib_shutdown_return                 0x080001fb   Thumb Code     0  libshutdown2.o(.ARM.Collect$$libshutdown$$00000010)
    __rt_lib_shutdown_signal_1               0x080001fb   Thumb Code     0  libshutdown2.o(.ARM.Collect$$libshutdown$$0000000A)
    __rt_lib_shutdown_stdio_1                0x080001fb   Thumb Code     0  libshutdown2.o(.ARM.Collect$$libshutdown$$00000004)
    __rt_lib_shutdown_user_alloc_1           0x080001fb   Thumb Code     0  libshutdown2.o(.ARM.Collect$$libshutdown$$0000000C)
    __rt_entry                               0x080001fd   Thumb Code     0  __rtentry.o(.ARM.Collect$$rtentry$$00000000)
    __rt_entry_presh_1                       0x080001fd   Thumb Code     0  __rtentry2.o(.ARM.Collect$$rtentry$$00000002)
    __rt_entry_sh                            0x080001fd   Thumb Code     0  __rtentry4.o(.ARM.Collect$$rtentry$$00000004)
    __rt_entry_li                            0x08000203   Thumb Code     0  __rtentry2.o(.ARM.Collect$$rtentry$$0000000A)
    __rt_entry_postsh_1                      0x08000203   Thumb Code     0  __rtentry2.o(.ARM.Collect$$rtentry$$00000009)
    __rt_entry_main                          0x08000207   Thumb Code     0  __rtentry2.o(.ARM.Collect$$rtentry$$0000000D)
    __rt_entry_postli_1                      0x08000207   Thumb Code     0  __rtentry2.o(.ARM.Collect$$rtentry$$0000000C)
    __rt_exit                                0x0800020f   Thumb Code     0  rtexit.o(.ARM.Collect$$rtexit$$00000000)
    __rt_exit_ls                             0x08000211   Thumb Code     0  rtexit2.o(.ARM.Collect$$rtexit$$00000003)
    __rt_exit_prels_1                        0x08000211   Thumb Code     0  rtexit2.o(.ARM.Collect$$rtexit$$00000002)
    __rt_exit_exit                           0x08000215   Thumb Code     0  rtexit2.o(.ARM.Collect$$rtexit$$00000004)
    LCD2_task                                0x0800021d   Thumb Code   294  main.o(.text)
    LCD1_task                                0x08000343   Thumb Code   334  main.o(.text)
    start_task                               0x08000491   Thumb Code   270  main.o(.text)
    main                                     0x0800059f   Thumb Code   446  main.o(.text)
    NMI_Handler                              0x08000769   Thumb Code     2  stm32f10x_it.o(.text)
    HardFault_Handler                        0x0800076b   Thumb Code     4  stm32f10x_it.o(.text)
    MemManage_Handler                        0x0800076f   Thumb Code     4  stm32f10x_it.o(.text)
    BusFault_Handler                         0x08000773   Thumb Code     4  stm32f10x_it.o(.text)
    UsageFault_Handler                       0x08000777   Thumb Code     4  stm32f10x_it.o(.text)
    SVC_Handler                              0x0800077b   Thumb Code     2  stm32f10x_it.o(.text)
    DebugMon_Handler                         0x0800077d   Thumb Code     2  stm32f10x_it.o(.text)
    SystemInit                               0x0800085f   Thumb Code    78  system_stm32f10x.o(.text)
    SystemCoreClockUpdate                    0x080008ad   Thumb Code   142  system_stm32f10x.o(.text)
    LED_Init                                 0x08000961   Thumb Code    68  led.o(.text)
    TFTLCD_GPIO_Init                         0x080009ad   Thumb Code   114  tftlcd.o(.text)
    TFTLCD_FSMC_Init                         0x08000a1f   Thumb Code   160  tftlcd.o(.text)
    LCD_WriteCmd                             0x08000abf   Thumb Code     6  tftlcd.o(.text)
    LCD_WriteData                            0x08000ac5   Thumb Code     8  tftlcd.o(.text)
    LCD_WriteCmdData                         0x08000acd   Thumb Code    20  tftlcd.o(.text)
    LCD_WriteData_Color                      0x08000ae1   Thumb Code    16  tftlcd.o(.text)
    LCD_ReadData                             0x08000af1   Thumb Code     8  tftlcd.o(.text)
    LCD_Display_Dir                          0x08000af9   Thumb Code    66  tftlcd.o(.text)
    LCD_Set_Window                           0x08000b3b   Thumb Code   166  tftlcd.o(.text)
    LCD_Clear                                0x08000be1   Thumb Code    68  tftlcd.o(.text)
    TFTLCD_Init                              0x08000c25   Thumb Code   782  tftlcd.o(.text)
    LCD_Fill                                 0x08000f33   Thumb Code    92  tftlcd.o(.text)
    LCD_DrawPoint                            0x08000f8f   Thumb Code    28  tftlcd.o(.text)
    LCD_DrawFRONT_COLOR                      0x08000fab   Thumb Code    28  tftlcd.o(.text)
    LCD_ReadPoint                            0x08000fc7   Thumb Code    94  tftlcd.o(.text)
    LCD_DrawLine                             0x08001025   Thumb Code   176  tftlcd.o(.text)
    LCD_DrawLine_Color                       0x080010d5   Thumb Code   172  tftlcd.o(.text)
    LCD_DrowSign                             0x08001181   Thumb Code   132  tftlcd.o(.text)
    LCD_DrawRectangle                        0x08001205   Thumb Code    60  tftlcd.o(.text)
    LCD_Draw_Circle                          0x08001241   Thumb Code   152  tftlcd.o(.text)
    LCD_ShowChar                             0x080012d9   Thumb Code   286  tftlcd.o(.text)
    LCD_Pow                                  0x080013f7   Thumb Code    22  tftlcd.o(.text)
    LCD_ShowNum                              0x0800140d   Thumb Code   148  tftlcd.o(.text)
    LCD_ShowxNum                             0x080014a1   Thumb Code   190  tftlcd.o(.text)
    LCD_ShowString                           0x0800155f   Thumb Code   102  tftlcd.o(.text)
    LCD_ShowFontHZ                           0x080015c5   Thumb Code   220  tftlcd.o(.text)
    LCD_ShowPicture                          0x080016a1   Thumb Code    92  tftlcd.o(.text)
    delay_osschedlock                        0x08001719   Thumb Code    10  delay.o(.text)
    delay_osschedunlock                      0x08001723   Thumb Code    10  delay.o(.text)
    delay_ostimedly                          0x0800172d   Thumb Code    16  delay.o(.text)
    SysTick_Handler                          0x0800173d   Thumb Code    24  delay.o(.text)
    delay_init                               0x08001755   Thumb Code    92  delay.o(.text)
    delay_us                                 0x080017b1   Thumb Code    86  delay.o(.text)
    delay_ms                                 0x08001807   Thumb Code    66  delay.o(.text)
    _sys_exit                                0x08001865   Thumb Code     6  usart.o(.text)
    fputc                                    0x0800186b   Thumb Code    24  usart.o(.text)
    uart_init                                0x08001883   Thumb Code   158  usart.o(.text)
    USART1_IRQHandler                        0x08001921   Thumb Code   130  usart.o(.text)
    Reset_Handler                            0x080019b5   Thumb Code     8  startup_stm32f10x_hd.o(.text)
    ADC1_2_IRQHandler                        0x080019cf   Thumb Code     0  startup_stm32f10x_hd.o(.text)
    ADC3_IRQHandler                          0x080019cf   Thumb Code     0  startup_stm32f10x_hd.o(.text)
    CAN1_RX1_IRQHandler                      0x080019cf   Thumb Code     0  startup_stm32f10x_hd.o(.text)
    CAN1_SCE_IRQHandler                      0x080019cf   Thumb Code     0  startup_stm32f10x_hd.o(.text)
    DMA1_Channel1_IRQHandler                 0x080019cf   Thumb Code     0  startup_stm32f10x_hd.o(.text)
    DMA1_Channel2_IRQHandler                 0x080019cf   Thumb Code     0  startup_stm32f10x_hd.o(.text)
    DMA1_Channel3_IRQHandler                 0x080019cf   Thumb Code     0  startup_stm32f10x_hd.o(.text)
    DMA1_Channel4_IRQHandler                 0x080019cf   Thumb Code     0  startup_stm32f10x_hd.o(.text)
    DMA1_Channel5_IRQHandler                 0x080019cf   Thumb Code     0  startup_stm32f10x_hd.o(.text)
    DMA1_Channel6_IRQHandler                 0x080019cf   Thumb Code     0  startup_stm32f10x_hd.o(.text)
    DMA1_Channel7_IRQHandler                 0x080019cf   Thumb Code     0  startup_stm32f10x_hd.o(.text)
    DMA2_Channel1_IRQHandler                 0x080019cf   Thumb Code     0  startup_stm32f10x_hd.o(.text)
    DMA2_Channel2_IRQHandler                 0x080019cf   Thumb Code     0  startup_stm32f10x_hd.o(.text)
    DMA2_Channel3_IRQHandler                 0x080019cf   Thumb Code     0  startup_stm32f10x_hd.o(.text)
    DMA2_Channel4_5_IRQHandler               0x080019cf   Thumb Code     0  startup_stm32f10x_hd.o(.text)
    EXTI0_IRQHandler                         0x080019cf   Thumb Code     0  startup_stm32f10x_hd.o(.text)
    EXTI15_10_IRQHandler                     0x080019cf   Thumb Code     0  startup_stm32f10x_hd.o(.text)
    EXTI1_IRQHandler                         0x080019cf   Thumb Code     0  startup_stm32f10x_hd.o(.text)
    EXTI2_IRQHandler                         0x080019cf   Thumb Code     0  startup_stm32f10x_hd.o(.text)
    EXTI3_IRQHandler                         0x080019cf   Thumb Code     0  startup_stm32f10x_hd.o(.text)
    EXTI4_IRQHandler                         0x080019cf   Thumb Code     0  startup_stm32f10x_hd.o(.text)
    EXTI9_5_IRQHandler                       0x080019cf   Thumb Code     0  startup_stm32f10x_hd.o(.text)
    FLASH_IRQHandler                         0x080019cf   Thumb Code     0  startup_stm32f10x_hd.o(.text)
    FSMC_IRQHandler                          0x080019cf   Thumb Code     0  startup_stm32f10x_hd.o(.text)
    I2C1_ER_IRQHandler                       0x080019cf   Thumb Code     0  startup_stm32f10x_hd.o(.text)
    I2C1_EV_IRQHandler                       0x080019cf   Thumb Code     0  startup_stm32f10x_hd.o(.text)
    I2C2_ER_IRQHandler                       0x080019cf   Thumb Code     0  startup_stm32f10x_hd.o(.text)
    I2C2_EV_IRQHandler                       0x080019cf   Thumb Code     0  startup_stm32f10x_hd.o(.text)
    PVD_IRQHandler                           0x080019cf   Thumb Code     0  startup_stm32f10x_hd.o(.text)
    RCC_IRQHandler                           0x080019cf   Thumb Code     0  startup_stm32f10x_hd.o(.text)
    RTCAlarm_IRQHandler                      0x080019cf   Thumb Code     0  startup_stm32f10x_hd.o(.text)
    RTC_IRQHandler                           0x080019cf   Thumb Code     0  startup_stm32f10x_hd.o(.text)
    SDIO_IRQHandler                          0x080019cf   Thumb Code     0  startup_stm32f10x_hd.o(.text)
    SPI1_IRQHandler                          0x080019cf   Thumb Code     0  startup_stm32f10x_hd.o(.text)
    SPI2_IRQHandler                          0x080019cf   Thumb Code     0  startup_stm32f10x_hd.o(.text)
    SPI3_IRQHandler                          0x080019cf   Thumb Code     0  startup_stm32f10x_hd.o(.text)
    TAMPER_IRQHandler                        0x080019cf   Thumb Code     0  startup_stm32f10x_hd.o(.text)
    TIM1_BRK_IRQHandler                      0x080019cf   Thumb Code     0  startup_stm32f10x_hd.o(.text)
    TIM1_CC_IRQHandler                       0x080019cf   Thumb Code     0  startup_stm32f10x_hd.o(.text)
    TIM1_TRG_COM_IRQHandler                  0x080019cf   Thumb Code     0  startup_stm32f10x_hd.o(.text)
    TIM1_UP_IRQHandler                       0x080019cf   Thumb Code     0  startup_stm32f10x_hd.o(.text)
    TIM2_IRQHandler                          0x080019cf   Thumb Code     0  startup_stm32f10x_hd.o(.text)
    TIM3_IRQHandler                          0x080019cf   Thumb Code     0  startup_stm32f10x_hd.o(.text)
    TIM4_IRQHandler                          0x080019cf   Thumb Code     0  startup_stm32f10x_hd.o(.text)
    TIM5_IRQHandler                          0x080019cf   Thumb Code     0  startup_stm32f10x_hd.o(.text)
    TIM6_IRQHandler                          0x080019cf   Thumb Code     0  startup_stm32f10x_hd.o(.text)
    TIM7_IRQHandler                          0x080019cf   Thumb Code     0  startup_stm32f10x_hd.o(.text)
    TIM8_BRK_IRQHandler                      0x080019cf   Thumb Code     0  startup_stm32f10x_hd.o(.text)
    TIM8_CC_IRQHandler                       0x080019cf   Thumb Code     0  startup_stm32f10x_hd.o(.text)
    TIM8_TRG_COM_IRQHandler                  0x080019cf   Thumb Code     0  startup_stm32f10x_hd.o(.text)
    TIM8_UP_IRQHandler                       0x080019cf   Thumb Code     0  startup_stm32f10x_hd.o(.text)
    UART4_IRQHandler                         0x080019cf   Thumb Code     0  startup_stm32f10x_hd.o(.text)
    UART5_IRQHandler                         0x080019cf   Thumb Code     0  startup_stm32f10x_hd.o(.text)
    USART2_IRQHandler                        0x080019cf   Thumb Code     0  startup_stm32f10x_hd.o(.text)
    USART3_IRQHandler                        0x080019cf   Thumb Code     0  startup_stm32f10x_hd.o(.text)
    USBWakeUp_IRQHandler                     0x080019cf   Thumb Code     0  startup_stm32f10x_hd.o(.text)
    USB_HP_CAN1_TX_IRQHandler                0x080019cf   Thumb Code     0  startup_stm32f10x_hd.o(.text)
    USB_LP_CAN1_RX0_IRQHandler               0x080019cf   Thumb Code     0  startup_stm32f10x_hd.o(.text)
    WWDG_IRQHandler                          0x080019cf   Thumb Code     0  startup_stm32f10x_hd.o(.text)
    __user_initial_stackheap                 0x080019d1   Thumb Code     0  startup_stm32f10x_hd.o(.text)
    NVIC_PriorityGroupConfig                 0x080019f5   Thumb Code    10  misc.o(.text)
    NVIC_Init                                0x080019ff   Thumb Code   100  misc.o(.text)
    NVIC_SetVectorTable                      0x08001a63   Thumb Code    14  misc.o(.text)
    NVIC_SystemLPConfig                      0x08001a71   Thumb Code    34  misc.o(.text)
    SysTick_CLKSourceConfig                  0x08001a93   Thumb Code    40  misc.o(.text)
    GPIO_DeInit                              0x08001ad1   Thumb Code   172  stm32f10x_gpio.o(.text)
    GPIO_AFIODeInit                          0x08001b7d   Thumb Code    20  stm32f10x_gpio.o(.text)
    GPIO_Init                                0x08001b91   Thumb Code   278  stm32f10x_gpio.o(.text)
    GPIO_StructInit                          0x08001ca7   Thumb Code    16  stm32f10x_gpio.o(.text)
    GPIO_ReadInputDataBit                    0x08001cb7   Thumb Code    18  stm32f10x_gpio.o(.text)
    GPIO_ReadInputData                       0x08001cc9   Thumb Code     8  stm32f10x_gpio.o(.text)
    GPIO_ReadOutputDataBit                   0x08001cd1   Thumb Code    18  stm32f10x_gpio.o(.text)
    GPIO_ReadOutputData                      0x08001ce3   Thumb Code     8  stm32f10x_gpio.o(.text)
    GPIO_SetBits                             0x08001ceb   Thumb Code     4  stm32f10x_gpio.o(.text)
    GPIO_ResetBits                           0x08001cef   Thumb Code     4  stm32f10x_gpio.o(.text)
    GPIO_WriteBit                            0x08001cf3   Thumb Code    10  stm32f10x_gpio.o(.text)
    GPIO_Write                               0x08001cfd   Thumb Code     4  stm32f10x_gpio.o(.text)
    GPIO_PinLockConfig                       0x08001d01   Thumb Code    18  stm32f10x_gpio.o(.text)
    GPIO_EventOutputConfig                   0x08001d13   Thumb Code    26  stm32f10x_gpio.o(.text)
    GPIO_EventOutputCmd                      0x08001d2d   Thumb Code     6  stm32f10x_gpio.o(.text)
    GPIO_PinRemapConfig                      0x08001d33   Thumb Code   138  stm32f10x_gpio.o(.text)
    GPIO_EXTILineConfig                      0x08001dbd   Thumb Code    66  stm32f10x_gpio.o(.text)
    GPIO_ETH_MediaInterfaceConfig            0x08001dff   Thumb Code     8  stm32f10x_gpio.o(.text)
    USART_DeInit                             0x08001e2d   Thumb Code   134  stm32f10x_usart.o(.text)
    USART_Init                               0x08001eb3   Thumb Code   210  stm32f10x_usart.o(.text)
    USART_StructInit                         0x08001f85   Thumb Code    24  stm32f10x_usart.o(.text)
    USART_ClockInit                          0x08001f9d   Thumb Code    34  stm32f10x_usart.o(.text)
    USART_ClockStructInit                    0x08001fbf   Thumb Code    12  stm32f10x_usart.o(.text)
    USART_Cmd                                0x08001fcb   Thumb Code    24  stm32f10x_usart.o(.text)
    USART_ITConfig                           0x08001fe3   Thumb Code    74  stm32f10x_usart.o(.text)
    USART_DMACmd                             0x0800202d   Thumb Code    18  stm32f10x_usart.o(.text)
    USART_SetAddress                         0x0800203f   Thumb Code    18  stm32f10x_usart.o(.text)
    USART_WakeUpConfig                       0x08002051   Thumb Code    18  stm32f10x_usart.o(.text)
    USART_ReceiverWakeUpCmd                  0x08002063   Thumb Code    24  stm32f10x_usart.o(.text)
    USART_LINBreakDetectLengthConfig         0x0800207b   Thumb Code    18  stm32f10x_usart.o(.text)
    USART_LINCmd                             0x0800208d   Thumb Code    24  stm32f10x_usart.o(.text)
    USART_SendData                           0x080020a5   Thumb Code     8  stm32f10x_usart.o(.text)
    USART_ReceiveData                        0x080020ad   Thumb Code    10  stm32f10x_usart.o(.text)
    USART_SendBreak                          0x080020b7   Thumb Code    10  stm32f10x_usart.o(.text)
    USART_SetGuardTime                       0x080020c1   Thumb Code    16  stm32f10x_usart.o(.text)
    USART_SetPrescaler                       0x080020d1   Thumb Code    16  stm32f10x_usart.o(.text)
    USART_SmartCardCmd                       0x080020e1   Thumb Code    24  stm32f10x_usart.o(.text)
    USART_SmartCardNACKCmd                   0x080020f9   Thumb Code    24  stm32f10x_usart.o(.text)
    USART_HalfDuplexCmd                      0x08002111   Thumb Code    24  stm32f10x_usart.o(.text)
    USART_OverSampling8Cmd                   0x08002129   Thumb Code    22  stm32f10x_usart.o(.text)
    USART_OneBitMethodCmd                    0x0800213f   Thumb Code    24  stm32f10x_usart.o(.text)
    USART_IrDAConfig                         0x08002157   Thumb Code    18  stm32f10x_usart.o(.text)
    USART_IrDACmd                            0x08002169   Thumb Code    24  stm32f10x_usart.o(.text)
    USART_GetFlagStatus                      0x08002181   Thumb Code    26  stm32f10x_usart.o(.text)
    USART_ClearFlag                          0x0800219b   Thumb Code    18  stm32f10x_usart.o(.text)
    USART_GetITStatus                        0x080021ad   Thumb Code    84  stm32f10x_usart.o(.text)
    USART_ClearITPendingBit                  0x08002201   Thumb Code    52  stm32f10x_usart.o(.text)
    RCC_DeInit                               0x08002235   Thumb Code    64  stm32f10x_rcc.o(.text)
    RCC_HSEConfig                            0x08002275   Thumb Code    70  stm32f10x_rcc.o(.text)
    RCC_GetFlagStatus                        0x080022bb   Thumb Code    56  stm32f10x_rcc.o(.text)
    RCC_WaitForHSEStartUp                    0x080022f3   Thumb Code    56  stm32f10x_rcc.o(.text)
    RCC_AdjustHSICalibrationValue            0x0800232b   Thumb Code    20  stm32f10x_rcc.o(.text)
    RCC_HSICmd                               0x0800233f   Thumb Code     6  stm32f10x_rcc.o(.text)
    RCC_PLLConfig                            0x08002345   Thumb Code    24  stm32f10x_rcc.o(.text)
    RCC_PLLCmd                               0x0800235d   Thumb Code     6  stm32f10x_rcc.o(.text)
    RCC_SYSCLKConfig                         0x08002363   Thumb Code    18  stm32f10x_rcc.o(.text)
    RCC_GetSYSCLKSource                      0x08002375   Thumb Code    10  stm32f10x_rcc.o(.text)
    RCC_HCLKConfig                           0x0800237f   Thumb Code    18  stm32f10x_rcc.o(.text)
    RCC_PCLK1Config                          0x08002391   Thumb Code    18  stm32f10x_rcc.o(.text)
    RCC_PCLK2Config                          0x080023a3   Thumb Code    20  stm32f10x_rcc.o(.text)
    RCC_ITConfig                             0x080023b7   Thumb Code    26  stm32f10x_rcc.o(.text)
    RCC_USBCLKConfig                         0x080023d1   Thumb Code     8  stm32f10x_rcc.o(.text)
    RCC_ADCCLKConfig                         0x080023d9   Thumb Code    18  stm32f10x_rcc.o(.text)
    RCC_LSEConfig                            0x080023eb   Thumb Code    50  stm32f10x_rcc.o(.text)
    RCC_LSICmd                               0x0800241d   Thumb Code     6  stm32f10x_rcc.o(.text)
    RCC_RTCCLKConfig                         0x08002423   Thumb Code    12  stm32f10x_rcc.o(.text)
    RCC_RTCCLKCmd                            0x0800242f   Thumb Code     8  stm32f10x_rcc.o(.text)
    RCC_GetClocksFreq                        0x08002437   Thumb Code   192  stm32f10x_rcc.o(.text)
    RCC_AHBPeriphClockCmd                    0x080024f7   Thumb Code    26  stm32f10x_rcc.o(.text)
    RCC_APB2PeriphClockCmd                   0x08002511   Thumb Code    26  stm32f10x_rcc.o(.text)
    RCC_APB1PeriphClockCmd                   0x0800252b   Thumb Code    26  stm32f10x_rcc.o(.text)
    RCC_APB2PeriphResetCmd                   0x08002545   Thumb Code    26  stm32f10x_rcc.o(.text)
    RCC_APB1PeriphResetCmd                   0x0800255f   Thumb Code    26  stm32f10x_rcc.o(.text)
    RCC_BackupResetCmd                       0x08002579   Thumb Code     8  stm32f10x_rcc.o(.text)
    RCC_ClockSecuritySystemCmd               0x08002581   Thumb Code     6  stm32f10x_rcc.o(.text)
    RCC_MCOConfig                            0x08002587   Thumb Code     6  stm32f10x_rcc.o(.text)
    RCC_ClearFlag                            0x0800258d   Thumb Code    14  stm32f10x_rcc.o(.text)
    RCC_GetITStatus                          0x0800259b   Thumb Code    20  stm32f10x_rcc.o(.text)
    RCC_ClearITPendingBit                    0x080025af   Thumb Code     6  stm32f10x_rcc.o(.text)
    FSMC_NORSRAMDeInit                       0x080025d9   Thumb Code    54  stm32f10x_fsmc.o(.text)
    FSMC_NANDDeInit                          0x0800260f   Thumb Code    62  stm32f10x_fsmc.o(.text)
    FSMC_PCCARDDeInit                        0x0800264d   Thumb Code    36  stm32f10x_fsmc.o(.text)
    FSMC_NORSRAMInit                         0x08002671   Thumb Code   230  stm32f10x_fsmc.o(.text)
    FSMC_NANDInit                            0x08002757   Thumb Code   132  stm32f10x_fsmc.o(.text)
    FSMC_PCCARDInit                          0x080027db   Thumb Code   130  stm32f10x_fsmc.o(.text)
    FSMC_NORSRAMStructInit                   0x0800285d   Thumb Code   114  stm32f10x_fsmc.o(.text)
    FSMC_NANDStructInit                      0x080028cf   Thumb Code    54  stm32f10x_fsmc.o(.text)
    FSMC_PCCARDStructInit                    0x08002905   Thumb Code    60  stm32f10x_fsmc.o(.text)
    FSMC_NORSRAMCmd                          0x08002941   Thumb Code    46  stm32f10x_fsmc.o(.text)
    FSMC_NANDCmd                             0x0800296f   Thumb Code    86  stm32f10x_fsmc.o(.text)
    FSMC_PCCARDCmd                           0x080029c5   Thumb Code    44  stm32f10x_fsmc.o(.text)
    FSMC_NANDECCCmd                          0x080029f1   Thumb Code    90  stm32f10x_fsmc.o(.text)
    FSMC_GetECC                              0x08002a4b   Thumb Code    24  stm32f10x_fsmc.o(.text)
    FSMC_ITConfig                            0x08002a63   Thumb Code   128  stm32f10x_fsmc.o(.text)
    FSMC_GetFlagStatus                       0x08002ae3   Thumb Code    54  stm32f10x_fsmc.o(.text)
    FSMC_ClearFlag                           0x08002b19   Thumb Code    62  stm32f10x_fsmc.o(.text)
    FSMC_GetITStatus                         0x08002b57   Thumb Code    64  stm32f10x_fsmc.o(.text)
    FSMC_ClearITPendingBit                   0x08002b97   Thumb Code    68  stm32f10x_fsmc.o(.text)
    BSP_CPU_ClkFreq                          0x08002be5   Thumb Code    16  bsp.o(.text)
    CPU_TS_TmrInit                           0x08002bf5   Thumb Code    44  bsp.o(.text)
    CPU_TS_TmrRd                             0x08002c21   Thumb Code     6  bsp.o(.text)
    CPU_TS32_to_uSec                         0x08002c27   Thumb Code    54  bsp.o(.text)
    CPU_NameClr                              0x08002c69   Thumb Code    42  cpu_core.o(.text)
    CPU_Init                                 0x08002ca9   Thumb Code    12  cpu_core.o(.text)
    CPU_SW_Exception                         0x08002cb5   Thumb Code     4  cpu_core.o(.text)
    CPU_NameGet                              0x08002cb9   Thumb Code    70  cpu_core.o(.text)
    CPU_NameSet                              0x08002cff   Thumb Code    96  cpu_core.o(.text)
    CPU_TS_Get32                             0x08002d5f   Thumb Code    12  cpu_core.o(.text)
    CPU_TS_Update                            0x08002d6b   Thumb Code     2  cpu_core.o(.text)
    CPU_TS_TmrFreqGet                        0x08002d6d   Thumb Code    30  cpu_core.o(.text)
    CPU_TS_TmrFreqSet                        0x08002d8b   Thumb Code     6  cpu_core.o(.text)
    CPU_CntLeadZeros08                       0x08002d91   Thumb Code    18  cpu_core.o(.text)
    CPU_CntLeadZeros16                       0x08002da3   Thumb Code    18  cpu_core.o(.text)
    CPU_CntLeadZeros32                       0x08002db5   Thumb Code    18  cpu_core.o(.text)
    CPU_CntLeadZeros64                       0x08002dc7   Thumb Code   188  cpu_core.o(.text)
    CPU_CntTrailZeros08                      0x08002e83   Thumb Code    22  cpu_core.o(.text)
    CPU_CntTrailZeros16                      0x08002e99   Thumb Code    22  cpu_core.o(.text)
    CPU_CntTrailZeros32                      0x08002eaf   Thumb Code    22  cpu_core.o(.text)
    CPU_CntTrailZeros64                      0x08002ec5   Thumb Code    62  cpu_core.o(.text)
    CPU_IntDis                               0x08002f11   Thumb Code     0  cpu_a.o(.text)
    CPU_IntEn                                0x08002f15   Thumb Code     0  cpu_a.o(.text)
    CPU_SR_Save                              0x08002f19   Thumb Code     0  cpu_a.o(.text)
    CPU_SR_Restore                           0x08002f21   Thumb Code     0  cpu_a.o(.text)
    CPU_WaitForInt                           0x08002f27   Thumb Code     0  cpu_a.o(.text)
    CPU_WaitForExcept                        0x08002f2b   Thumb Code     0  cpu_a.o(.text)
    CPU_CntLeadZeros                         0x08002f2f   Thumb Code     0  cpu_a.o(.text)
    CPU_CntTrailZeros                        0x08002f35   Thumb Code     0  cpu_a.o(.text)
    CPU_RevBits                              0x08002f3f   Thumb Code     0  cpu_a.o(.text)
    ASCII_IsAlpha                            0x08002f45   Thumb Code    48  lib_ascii.o(.text)
    ASCII_IsAlphaNum                         0x08002f75   Thumb Code    76  lib_ascii.o(.text)
    ASCII_IsLower                            0x08002fc1   Thumb Code    20  lib_ascii.o(.text)
    ASCII_IsUpper                            0x08002fd5   Thumb Code    20  lib_ascii.o(.text)
    ASCII_IsDig                              0x08002fe9   Thumb Code    20  lib_ascii.o(.text)
    ASCII_IsDigOct                           0x08002ffd   Thumb Code    20  lib_ascii.o(.text)
    ASCII_IsDigHex                           0x08003011   Thumb Code    36  lib_ascii.o(.text)
    ASCII_IsBlank                            0x08003035   Thumb Code    20  lib_ascii.o(.text)
    ASCII_IsSpace                            0x08003049   Thumb Code    36  lib_ascii.o(.text)
    ASCII_IsPrint                            0x0800306d   Thumb Code    20  lib_ascii.o(.text)
    ASCII_IsGraph                            0x08003081   Thumb Code    20  lib_ascii.o(.text)
    ASCII_IsPunct                            0x08003095   Thumb Code   134  lib_ascii.o(.text)
    ASCII_IsCtrl                             0x0800311b   Thumb Code    26  lib_ascii.o(.text)
    ASCII_ToLower                            0x08003135   Thumb Code    32  lib_ascii.o(.text)
    ASCII_ToUpper                            0x08003155   Thumb Code    32  lib_ascii.o(.text)
    ASCII_Cmp                                0x08003175   Thumb Code    38  lib_ascii.o(.text)
    Mem_Init                                 0x0800319d   Thumb Code    54  lib_mem.o(.text)
    Mem_Set                                  0x080031d3   Thumb Code    84  lib_mem.o(.text)
    Mem_Clr                                  0x08003227   Thumb Code    18  lib_mem.o(.text)
    Mem_Move                                 0x08003239   Thumb Code   186  lib_mem.o(.text)
    Mem_Cmp                                  0x080032f3   Thumb Code   192  lib_mem.o(.text)
    Mem_HeapAlloc                            0x0800342b   Thumb Code   168  lib_mem.o(.text)
    Mem_SegGetSizeRem                        0x080034d3   Thumb Code   108  lib_mem.o(.text)
    Mem_HeapGetSizeRem                       0x0800353f   Thumb Code    22  lib_mem.o(.text)
    Mem_PoolClr                              0x08003555   Thumb Code    80  lib_mem.o(.text)
    Mem_PoolCreate                           0x080035a5   Thumb Code   838  lib_mem.o(.text)
    Mem_PoolBlkGetNbrAvail                   0x080038eb   Thumb Code    52  lib_mem.o(.text)
    Mem_PoolBlkGet                           0x0800391f   Thumb Code   126  lib_mem.o(.text)
    Mem_PoolBlkGetUsedAtIx                   0x0800399d   Thumb Code   140  lib_mem.o(.text)
    Mem_PoolBlkFree                          0x08003a29   Thumb Code   152  lib_mem.o(.text)
    Mem_PoolBlkIxGet                         0x08003ac1   Thumb Code   162  lib_mem.o(.text)
    Str_Len_N                                0x08003b65   Thumb Code    28  lib_str.o(.text)
    Str_Len                                  0x08003b81   Thumb Code    20  lib_str.o(.text)
    Str_Copy_N                               0x08003b95   Thumb Code    70  lib_str.o(.text)
    Str_Copy                                 0x08003bdb   Thumb Code    24  lib_str.o(.text)
    Str_Cat_N                                0x08003bf3   Thumb Code    90  lib_str.o(.text)
    Str_Cat                                  0x08003c4d   Thumb Code    24  lib_str.o(.text)
    Str_Cmp_N                                0x08003c65   Thumb Code   156  lib_str.o(.text)
    Str_Cmp                                  0x08003d01   Thumb Code    24  lib_str.o(.text)
    Str_CmpIgnoreCase_N                      0x08003d19   Thumb Code   264  lib_str.o(.text)
    Str_CmpIgnoreCase                        0x08003e21   Thumb Code    24  lib_str.o(.text)
    Str_Char_N                               0x08003e39   Thumb Code    74  lib_str.o(.text)
    Str_Char                                 0x08003e83   Thumb Code    24  lib_str.o(.text)
    Str_Char_Last_N                          0x08003e9b   Thumb Code    76  lib_str.o(.text)
    Str_Char_Last                            0x08003ee7   Thumb Code    24  lib_str.o(.text)
    Str_Char_Replace_N                       0x08003eff   Thumb Code    52  lib_str.o(.text)
    Str_Char_Replace                         0x08003f33   Thumb Code    28  lib_str.o(.text)
    Str_Str_N                                0x08003f4f   Thumb Code   182  lib_str.o(.text)
    Str_Str                                  0x08004005   Thumb Code    24  lib_str.o(.text)
    Str_FmtNbr_Int32U                        0x080041f9   Thumb Code    46  lib_str.o(.text)
    Str_FmtNbr_Int32S                        0x08004227   Thumb Code    62  lib_str.o(.text)
    Str_ParseNbr_Int32U                      0x08004423   Thumb Code    30  lib_str.o(.text)
    Str_ParseNbr_Int32S                      0x08004441   Thumb Code    74  lib_str.o(.text)
    Mem_Copy                                 0x08004491   Thumb Code     0  lib_mem_a.o(.text)
    OSCfg_Init                               0x080046b1   Thumb Code    86  os_cfg_app.o(.text)
    OS_IdleTask                              0x080047ad   Thumb Code    60  os_core.o(.text)
    OS_IdleTaskInit                          0x080047e9   Thumb Code    68  os_core.o(.text)
    OS_RdyListInit                           0x0800482d   Thumb Code    32  os_core.o(.text)
    OSInit                                   0x0800484d   Thumb Code   300  os_core.o(.text)
    OSIntEnter                               0x08004979   Thumb Code    34  os_core.o(.text)
    OSIntExit                                0x0800499b   Thumb Code   192  os_core.o(.text)
    OSSched                                  0x08004a5b   Thumb Code   134  os_core.o(.text)
    OS_SchedLockTimeMeasStart                0x08004ae1   Thumb Code    20  os_core.o(.text)
    OSSchedLock                              0x08004af5   Thumb Code   104  os_core.o(.text)
    OS_SchedLockTimeMeasStop                 0x08004b5d   Thumb Code    44  os_core.o(.text)
    OSSchedUnlock                            0x08004b89   Thumb Code   290  os_core.o(.text)
    OSSchedRoundRobinCfg                     0x08004cab   Thumb Code    88  os_core.o(.text)
    OS_RdyListMoveHeadToTail                 0x08004d03   Thumb Code    68  os_core.o(.text)
    OSSchedRoundRobinYield                   0x08004d47   Thumb Code   164  os_core.o(.text)
    OSStart                                  0x08004deb   Thumb Code    78  os_core.o(.text)
    OSVersion                                0x08004e39   Thumb Code    12  os_core.o(.text)
    OS_PendDbgNameAdd                        0x08004e45   Thumb Code    66  os_core.o(.text)
    OS_PendListInsertPrio                    0x08004e87   Thumb Code   102  os_core.o(.text)
    OS_PendDataInit                          0x08004eed   Thumb Code    38  os_core.o(.text)
    OS_RdyListRemove                         0x08004f13   Thumb Code    86  os_core.o(.text)
    OS_TaskBlock                             0x08004f69   Thumb Code    56  os_core.o(.text)
    OS_Pend                                  0x08004fa1   Thumb Code    98  os_core.o(.text)
    OS_PendListRemove1                       0x08005003   Thumb Code   134  os_core.o(.text)
    OS_PendListRemove                        0x08005089   Thumb Code    48  os_core.o(.text)
    OS_PendAbort1                            0x080050b9   Thumb Code    36  os_core.o(.text)
    OS_RdyListInsertHead                     0x080050dd   Thumb Code    58  os_core.o(.text)
    OS_RdyListInsertTail                     0x08005117   Thumb Code    56  os_core.o(.text)
    OS_RdyListInsert                         0x0800514f   Thumb Code    40  os_core.o(.text)
    OS_TaskRdy                               0x08005177   Thumb Code    28  os_core.o(.text)
    OS_PendAbort                             0x08005193   Thumb Code   166  os_core.o(.text)
    OS_PendDbgNameRemove                     0x08005239   Thumb Code    34  os_core.o(.text)
    OS_PendListChangePrio                    0x0800525b   Thumb Code    70  os_core.o(.text)
    OS_PendListInit                          0x080052a1   Thumb Code    10  os_core.o(.text)
    OS_PendListInsertHead                    0x080052ab   Thumb Code    32  os_core.o(.text)
    OS_PendObjDel1                           0x080052cb   Thumb Code    36  os_core.o(.text)
    OS_PendObjDel                            0x080052ef   Thumb Code   162  os_core.o(.text)
    OS_Post1                                 0x08005391   Thumb Code    42  os_core.o(.text)
    OS_Post                                  0x080053bb   Thumb Code   192  os_core.o(.text)
    OS_Sched0                                0x0800547b   Thumb Code   102  os_core.o(.text)
    OS_SchedRoundRobin                       0x080054e1   Thumb Code   190  os_core.o(.text)
    OS_Dbg_Init                              0x080055b1   Thumb Code   146  os_dbg.o(.text)
    OS_FlagDbgListAdd                        0x08005761   Thumb Code    38  os_flag.o(.text)
    OSFlagCreate                             0x08005787   Thumb Code   172  os_flag.o(.text)
    OS_FlagClr                               0x08005833   Thumb Code    28  os_flag.o(.text)
    OS_FlagDbgListRemove                     0x0800584f   Thumb Code    44  os_flag.o(.text)
    OSFlagDel                                0x0800587b   Thumb Code   594  os_flag.o(.text)
    OS_FlagBlock                             0x08005acd   Thumb Code    58  os_flag.o(.text)
    OSFlagPend                               0x08005b07   Thumb Code  1488  os_flag.o(.text)
    OSFlagPendAbort                          0x080060d7   Thumb Code   292  os_flag.o(.text)
    OSFlagPendGetFlagsRdy                    0x080061fb   Thumb Code    68  os_flag.o(.text)
    OS_FlagTaskRdy                           0x0800623f   Thumb Code    86  os_flag.o(.text)
    OS_FlagPost                              0x08006295   Thumb Code   570  os_flag.o(.text)
    OSFlagPost                               0x080064cf   Thumb Code   146  os_flag.o(.text)
    OS_FlagInit                              0x08006561   Thumb Code    14  os_flag.o(.text)
    OS_IntQPost                              0x08006589   Thumb Code   216  os_int.o(.text)
    OS_IntQRePost                            0x08006661   Thumb Code   360  os_int.o(.text)
    OS_IntQTask                              0x080067c9   Thumb Code   162  os_int.o(.text)
    OS_IntQTaskInit                          0x0800686b   Thumb Code   208  os_int.o(.text)
    OS_MemDbgListAdd                         0x080069cd   Thumb Code    34  os_mem.o(.text)
    OSMemCreate                              0x080069ef   Thumb Code   288  os_mem.o(.text)
    OSMemGet                                 0x08006b0f   Thumb Code   100  os_mem.o(.text)
    OSMemPut                                 0x08006b73   Thumb Code   112  os_mem.o(.text)
    OS_MemInit                               0x08006be3   Thumb Code    14  os_mem.o(.text)
    OS_MsgPoolCreate                         0x08006c05   Thumb Code    54  os_msg.o(.text)
    OS_MsgPoolInit                           0x08006c3b   Thumb Code    70  os_msg.o(.text)
    OS_MsgQFreeAll                           0x08006c81   Thumb Code    62  os_msg.o(.text)
    OS_MsgQInit                              0x08006cbf   Thumb Code    14  os_msg.o(.text)
    OS_MsgQGet                               0x08006ccd   Thumb Code    98  os_msg.o(.text)
    OS_MsgQPut                               0x08006d2f   Thumb Code   246  os_msg.o(.text)
    OS_MutexDbgListAdd                       0x08006e31   Thumb Code    38  os_mutex.o(.text)
    OSMutexCreate                            0x08006e57   Thumb Code   178  os_mutex.o(.text)
    OS_MutexClr                              0x08006f09   Thumb Code    38  os_mutex.o(.text)
    OS_MutexDbgListRemove                    0x08006f2f   Thumb Code    44  os_mutex.o(.text)
    OSMutexDel                               0x08006f5b   Thumb Code   842  os_mutex.o(.text)
    OSMutexPend                              0x080072a5   Thumb Code   706  os_mutex.o(.text)
    OSMutexPendAbort                         0x08007567   Thumb Code   314  os_mutex.o(.text)
    OSMutexPost                              0x080076a1   Thumb Code   564  os_mutex.o(.text)
    OS_MutexInit                             0x080078d5   Thumb Code    14  os_mutex.o(.text)
    OS_PrioInit                              0x08007905   Thumb Code    20  os_prio.o(.text)
    OS_PrioGetHighest                        0x08007919   Thumb Code    36  os_prio.o(.text)
    OS_PrioInsert                            0x0800793d   Thumb Code    32  os_prio.o(.text)
    OS_PrioRemove                            0x0800795d   Thumb Code    32  os_prio.o(.text)
    OS_QDbgListAdd                           0x08007981   Thumb Code    38  os_q.o(.text)
    OSQCreate                                0x080079a7   Thumb Code   186  os_q.o(.text)
    OS_QClr                                  0x08007a61   Thumb Code    40  os_q.o(.text)
    OS_QDbgListRemove                        0x08007a89   Thumb Code    44  os_q.o(.text)
    OSQDel                                   0x08007ab5   Thumb Code   362  os_q.o(.text)
    OSQFlush                                 0x08007c1f   Thumb Code   210  os_q.o(.text)
    OSQPend                                  0x08007cf1   Thumb Code   538  os_q.o(.text)
    OSQPendAbort                             0x08007f0b   Thumb Code   292  os_q.o(.text)
    OS_QPost                                 0x0800802f   Thumb Code   324  os_q.o(.text)
    OSQPost                                  0x08008173   Thumb Code   198  os_q.o(.text)
    OS_QInit                                 0x08008239   Thumb Code    14  os_q.o(.text)
    OS_SemDbgListAdd                         0x08008259   Thumb Code    38  os_sem.o(.text)
    OSSemCreate                              0x0800827f   Thumb Code   172  os_sem.o(.text)
    OS_SemClr                                0x0800832b   Thumb Code    28  os_sem.o(.text)
    OS_SemDbgListRemove                      0x08008347   Thumb Code    44  os_sem.o(.text)
    OSSemDel                                 0x08008373   Thumb Code   362  os_sem.o(.text)
    OSSemPend                                0x080084dd   Thumb Code   504  os_sem.o(.text)
    OSSemPendAbort                           0x080086d5   Thumb Code   292  os_sem.o(.text)
    OS_SemPost                               0x080087f9   Thumb Code   350  os_sem.o(.text)
    OSSemPost                                0x08008957   Thumb Code   144  os_sem.o(.text)
    OSSemSet                                 0x080089e7   Thumb Code   138  os_sem.o(.text)
    OS_SemInit                               0x08008a71   Thumb Code    14  os_sem.o(.text)
    OSStatReset                              0x08008a89   Thumb Code   270  os_stat.o(.text)
    OSStatTaskCPUUsageInit                   0x08008b97   Thumb Code   212  os_stat.o(.text)
    OS_StatTask                              0x08008c6b   Thumb Code   888  os_stat.o(.text)
    OS_StatTaskInit                          0x08008fe3   Thumb Code   138  os_stat.o(.text)
    OSTaskChangePrio                         0x080090c1   Thumb Code   416  os_task.o(.text)
    OS_TaskDbgListAdd                        0x08009261   Thumb Code    42  os_task.o(.text)
    OS_TaskInitTCB                           0x0800928b   Thumb Code   186  os_task.o(.text)
    OSTaskCreate                             0x08009345   Thumb Code   616  os_task.o(.text)
    OS_TaskDbgListRemove                     0x080095ad   Thumb Code    64  os_task.o(.text)
    OSTaskDel                                0x080095ed   Thumb Code   424  os_task.o(.text)
    OSTaskQFlush                             0x08009795   Thumb Code   214  os_task.o(.text)
    OSTaskQPend                              0x0800986b   Thumb Code   554  os_task.o(.text)
    OSTaskQPendAbort                         0x08009a95   Thumb Code   242  os_task.o(.text)
    OS_TaskQPost                             0x08009b87   Thumb Code   526  os_task.o(.text)
    OSTaskQPost                              0x08009d95   Thumb Code   114  os_task.o(.text)
    OSTaskRegGet                             0x08009e07   Thumb Code    78  os_task.o(.text)
    OSTaskRegGetID                           0x08009e55   Thumb Code    84  os_task.o(.text)
    OSTaskRegSet                             0x08009ea9   Thumb Code    78  os_task.o(.text)
    OS_TaskResume                            0x08009ef7   Thumb Code   314  os_task.o(.text)
    OSTaskResume                             0x0800a031   Thumb Code   112  os_task.o(.text)
    OSTaskSemPend                            0x0800a0a1   Thumb Code   550  os_task.o(.text)
    OSTaskSemPendAbort                       0x0800a2c7   Thumb Code   270  os_task.o(.text)
    OS_TaskSemPost                           0x0800a3d5   Thumb Code  1224  os_task.o(.text)
    OSTaskSemPost                            0x0800a89d   Thumb Code    98  os_task.o(.text)
    OSTaskSemSet                             0x0800a8ff   Thumb Code    80  os_task.o(.text)
    OSTaskStkChk                             0x0800a94f   Thumb Code   224  os_task.o(.text)
    OS_TaskSuspend                           0x0800aa2f   Thumb Code   328  os_task.o(.text)
    OSTaskSuspend                            0x0800ab77   Thumb Code    78  os_task.o(.text)
    OSTaskTimeQuantaSet                      0x0800abc5   Thumb Code    96  os_task.o(.text)
    OS_TaskInit                              0x0800ac25   Thumb Code    18  os_task.o(.text)
    OS_TaskReturn                            0x0800ac37   Thumb Code    20  os_task.o(.text)
    OS_TickListRemove                        0x0800ac75   Thumb Code    56  os_tick.o(.text)
    OS_TickListUpdate                        0x0800acad   Thumb Code   480  os_tick.o(.text)
    OS_TickTask                              0x0800ae8d   Thumb Code    38  os_tick.o(.text)
    OS_TickListInit                          0x0800aeb3   Thumb Code    32  os_tick.o(.text)
    OS_TickTaskInit                          0x0800aed3   Thumb Code   130  os_tick.o(.text)
    OS_TickListInsert                        0x0800af55   Thumb Code   502  os_tick.o(.text)
    OS_TickListResetPeak                     0x0800b14b   Thumb Code    28  os_tick.o(.text)
    OSTimeDly                                0x0800b171   Thumb Code   266  os_time.o(.text)
    OSTimeDlyHMSM                            0x0800b27b   Thumb Code   480  os_time.o(.text)
    OSTimeDlyResume                          0x0800b45b   Thumb Code   466  os_time.o(.text)
    OSTimeGet                                0x0800b62d   Thumb Code    46  os_time.o(.text)
    OSTimeSet                                0x0800b65b   Thumb Code    46  os_time.o(.text)
    OSTimeTick                               0x0800b689   Thumb Code    54  os_time.o(.text)
    OS_TmrDbgListAdd                         0x0800b6d5   Thumb Code    34  os_tmr.o(.text)
    OSTmrCreate                              0x0800b6f7   Thumb Code   248  os_tmr.o(.text)
    OS_TmrClr                                0x0800b7ef   Thumb Code    36  os_tmr.o(.text)
    OS_TmrUnlink                             0x0800b813   Thumb Code    72  os_tmr.o(.text)
    OS_TmrDbgListRemove                      0x0800b85b   Thumb Code    44  os_tmr.o(.text)
    OSTmrDel                                 0x0800b887   Thumb Code   176  os_tmr.o(.text)
    OSTmrRemainGet                           0x0800b937   Thumb Code   184  os_tmr.o(.text)
    OS_TmrLink                               0x0800b9ef   Thumb Code   196  os_tmr.o(.text)
    OSTmrStart                               0x0800bab3   Thumb Code   210  os_tmr.o(.text)
    OSTmrStateGet                            0x0800bb85   Thumb Code   134  os_tmr.o(.text)
    OSTmrStop                                0x0800bc0b   Thumb Code   232  os_tmr.o(.text)
    OS_TmrTask                               0x0800bcf3   Thumb Code   176  os_tmr.o(.text)
    OS_TmrInit                               0x0800bda3   Thumb Code   208  os_tmr.o(.text)
    OS_TmrResetPeak                          0x0800be73   Thumb Code    28  os_tmr.o(.text)
    OSIdleTaskHook                           0x0800beed   Thumb Code    16  os_cpu_c.o(.text)
    OSInitHook                               0x0800befd   Thumb Code    42  os_cpu_c.o(.text)
    OSStatTaskHook                           0x0800bf27   Thumb Code    16  os_cpu_c.o(.text)
    OSTaskCreateHook                         0x0800bf37   Thumb Code    20  os_cpu_c.o(.text)
    OSTaskDelHook                            0x0800bf4b   Thumb Code    20  os_cpu_c.o(.text)
    OSTaskReturnHook                         0x0800bf5f   Thumb Code    20  os_cpu_c.o(.text)
    OSTaskStkInit                            0x0800bf73   Thumb Code   188  os_cpu_c.o(.text)
    OSTaskSwHook                             0x0800c02f   Thumb Code   120  os_cpu_c.o(.text)
    OSTimeTickHook                           0x0800c0a7   Thumb Code    16  os_cpu_c.o(.text)
    OS_CPU_SysTickHandler                    0x0800c0b7   Thumb Code    52  os_cpu_c.o(.text)
    OS_CPU_SysTickInit                       0x0800c0eb   Thumb Code    44  os_cpu_c.o(.text)
    __use_no_semihosting                     0x0800c159   Thumb Code     2  use_no_semi_2.o(.text)
    __aeabi_uldivmod                         0x0800c15b   Thumb Code     0  lludivv7m.o(.text)
    _ll_udiv                                 0x0800c15b   Thumb Code   238  lludivv7m.o(.text)
    __2printf                                0x0800c249   Thumb Code    20  noretval__2printf.o(.text)
    __printf                                 0x0800c261   Thumb Code   104  __printf.o(.text)
    _printf_int_dec                          0x0800c2c9   Thumb Code   104  _printf_dec.o(.text)
    _printf_int_hex                          0x0800c341   Thumb Code    84  _printf_hex_int.o(.text)
    _printf_longlong_hex                     0x0800c341   Thumb Code     0  _printf_hex_int.o(.text)
    __use_two_region_memory                  0x0800c399   Thumb Code     2  heapauxi.o(.text)
    __rt_heap_escrow$2region                 0x0800c39b   Thumb Code     2  heapauxi.o(.text)
    __rt_heap_expand$2region                 0x0800c39d   Thumb Code     2  heapauxi.o(.text)
    __I$use$semihosting                      0x0800c39f   Thumb Code     0  use_no_semi.o(.text)
    __use_no_semihosting_swi                 0x0800c39f   Thumb Code     2  use_no_semi.o(.text)
    _printf_int_common                       0x0800c3a1   Thumb Code   178  _printf_intcommon.o(.text)
    _printf_char_file                        0x0800c455   Thumb Code    32  _printf_char_file.o(.text)
    _printf_char_common                      0x0800c483   Thumb Code    32  _printf_char_common.o(.text)
    ferror                                   0x0800c4a9   Thumb Code     8  ferror.o(.text)
    __user_setup_stackheap                   0x0800c4b1   Thumb Code    74  sys_stackheap_outer.o(.text)
    exit                                     0x0800c4fb   Thumb Code    18  exit.o(.text)
    __user_libspace                          0x0800c50d   Thumb Code     8  libspace.o(.text)
    __user_perproc_libspace                  0x0800c50d   Thumb Code     0  libspace.o(.text)
    __user_perthread_libspace                0x0800c50d   Thumb Code     0  libspace.o(.text)
    OSStartHighRdy                           0x0800c515   Thumb Code     0  os_cpu_a.o(CODE)
    PendSV_Handler                           0x0800c54b   Thumb Code     0  os_cpu_a.o(CODE)
    ascii_1206                               0x0800c5ac   Data        1140  tftlcd.o(.constdata)
    ascii_1608                               0x0800ca20   Data        1520  tftlcd.o(.constdata)
    ascii_2412                               0x0800d010   Data        3420  tftlcd.o(.constdata)
    CnChar32x29                              0x0800dd6c   Data        1062  tftlcd.o(.constdata)
    CPU_EndiannessTest                       0x0800e294   Data           4  cpu_core.o(.constdata)
    OSCfg_IdleTaskStkBasePtr                 0x0800e32c   Data           4  os_cfg_app.o(.constdata)
    OSCfg_IdleTaskStkLimit                   0x0800e330   Data           4  os_cfg_app.o(.constdata)
    OSCfg_IdleTaskStkSize                    0x0800e334   Data           4  os_cfg_app.o(.constdata)
    OSCfg_IdleTaskStkSizeRAM                 0x0800e338   Data           4  os_cfg_app.o(.constdata)
    OSCfg_IntQBasePtr                        0x0800e33c   Data           4  os_cfg_app.o(.constdata)
    OSCfg_IntQSize                           0x0800e340   Data           2  os_cfg_app.o(.constdata)
    OSCfg_IntQSizeRAM                        0x0800e344   Data           4  os_cfg_app.o(.constdata)
    OSCfg_IntQTaskStkBasePtr                 0x0800e348   Data           4  os_cfg_app.o(.constdata)
    OSCfg_IntQTaskStkLimit                   0x0800e34c   Data           4  os_cfg_app.o(.constdata)
    OSCfg_IntQTaskStkSize                    0x0800e350   Data           4  os_cfg_app.o(.constdata)
    OSCfg_IntQTaskStkSizeRAM                 0x0800e354   Data           4  os_cfg_app.o(.constdata)
    OSCfg_ISRStkBasePtr                      0x0800e358   Data           4  os_cfg_app.o(.constdata)
    OSCfg_ISRStkSize                         0x0800e35c   Data           4  os_cfg_app.o(.constdata)
    OSCfg_ISRStkSizeRAM                      0x0800e360   Data           4  os_cfg_app.o(.constdata)
    OSCfg_MsgPoolSize                        0x0800e364   Data           2  os_cfg_app.o(.constdata)
    OSCfg_MsgPoolSizeRAM                     0x0800e368   Data           4  os_cfg_app.o(.constdata)
    OSCfg_MsgPoolBasePtr                     0x0800e36c   Data           4  os_cfg_app.o(.constdata)
    OSCfg_StatTaskPrio                       0x0800e370   Data           1  os_cfg_app.o(.constdata)
    OSCfg_StatTaskRate_Hz                    0x0800e374   Data           4  os_cfg_app.o(.constdata)
    OSCfg_StatTaskStkBasePtr                 0x0800e378   Data           4  os_cfg_app.o(.constdata)
    OSCfg_StatTaskStkLimit                   0x0800e37c   Data           4  os_cfg_app.o(.constdata)
    OSCfg_StatTaskStkSize                    0x0800e380   Data           4  os_cfg_app.o(.constdata)
    OSCfg_StatTaskStkSizeRAM                 0x0800e384   Data           4  os_cfg_app.o(.constdata)
    OSCfg_StkSizeMin                         0x0800e388   Data           4  os_cfg_app.o(.constdata)
    OSCfg_TickRate_Hz                        0x0800e38c   Data           4  os_cfg_app.o(.constdata)
    OSCfg_TickTaskPrio                       0x0800e390   Data           1  os_cfg_app.o(.constdata)
    OSCfg_TickTaskStkBasePtr                 0x0800e394   Data           4  os_cfg_app.o(.constdata)
    OSCfg_TickTaskStkLimit                   0x0800e398   Data           4  os_cfg_app.o(.constdata)
    OSCfg_TickTaskStkSize                    0x0800e39c   Data           4  os_cfg_app.o(.constdata)
    OSCfg_TickTaskStkSizeRAM                 0x0800e3a0   Data           4  os_cfg_app.o(.constdata)
    OSCfg_TickWheelSize                      0x0800e3a4   Data           2  os_cfg_app.o(.constdata)
    OSCfg_TickWheelSizeRAM                   0x0800e3a8   Data           4  os_cfg_app.o(.constdata)
    OSCfg_TmrTaskPrio                        0x0800e3ac   Data           1  os_cfg_app.o(.constdata)
    OSCfg_TmrTaskRate_Hz                     0x0800e3b0   Data           4  os_cfg_app.o(.constdata)
    OSCfg_TmrTaskStkBasePtr                  0x0800e3b4   Data           4  os_cfg_app.o(.constdata)
    OSCfg_TmrTaskStkLimit                    0x0800e3b8   Data           4  os_cfg_app.o(.constdata)
    OSCfg_TmrTaskStkSize                     0x0800e3bc   Data           4  os_cfg_app.o(.constdata)
    OSCfg_TmrTaskStkSizeRAM                  0x0800e3c0   Data           4  os_cfg_app.o(.constdata)
    OSCfg_TmrWheelSize                       0x0800e3c4   Data           2  os_cfg_app.o(.constdata)
    OSCfg_TmrWheelSizeRAM                    0x0800e3c8   Data           4  os_cfg_app.o(.constdata)
    OSCfg_DataSizeRAM                        0x0800e3cc   Data           4  os_cfg_app.o(.constdata)
    OSDbg_DbgEn                              0x0800e3d0   Data           2  os_dbg.o(.constdata)
    OSDbg_ArgChkEn                           0x0800e3d2   Data           1  os_dbg.o(.constdata)
    OSDbg_AppHooksEn                         0x0800e3d3   Data           1  os_dbg.o(.constdata)
    OSDbg_EndiannessTest                     0x0800e3d4   Data           4  os_dbg.o(.constdata)
    OSDbg_CalledFromISRChkEn                 0x0800e3d8   Data           1  os_dbg.o(.constdata)
    OSDbg_FlagEn                             0x0800e3d9   Data           1  os_dbg.o(.constdata)
    OSDbg_FlagGrp                            0x0800e3dc   Data          40  os_dbg.o(.constdata)
    OSDbg_FlagDelEn                          0x0800e404   Data           1  os_dbg.o(.constdata)
    OSDbg_FlagModeClrEn                      0x0800e405   Data           1  os_dbg.o(.constdata)
    OSDbg_FlagPendAbortEn                    0x0800e406   Data           1  os_dbg.o(.constdata)
    OSDbg_FlagGrpSize                        0x0800e408   Data           2  os_dbg.o(.constdata)
    OSDbg_FlagWidth                          0x0800e40a   Data           2  os_dbg.o(.constdata)
    OSDbg_IntQ                               0x0800e40c   Data           2  os_dbg.o(.constdata)
    OSDbg_ISRPostDeferredEn                  0x0800e40e   Data           1  os_dbg.o(.constdata)
    OSDbg_Mem                                0x0800e410   Data          32  os_dbg.o(.constdata)
    OSDbg_MemEn                              0x0800e430   Data           1  os_dbg.o(.constdata)
    OSDbg_MemSize                            0x0800e432   Data           2  os_dbg.o(.constdata)
    OSDbg_MsgEn                              0x0800e434   Data           1  os_dbg.o(.constdata)
    OSDbg_MsgSize                            0x0800e436   Data           2  os_dbg.o(.constdata)
    OSDbg_MsgPoolSize                        0x0800e438   Data           2  os_dbg.o(.constdata)
    OSDbg_MsgQSize                           0x0800e43a   Data           2  os_dbg.o(.constdata)
    OSDbg_Mutex                              0x0800e43c   Data          44  os_dbg.o(.constdata)
    OSDbg_MutexEn                            0x0800e468   Data           1  os_dbg.o(.constdata)
    OSDbg_MutexDelEn                         0x0800e469   Data           1  os_dbg.o(.constdata)
    OSDbg_MutexPendAbortEn                   0x0800e46a   Data           1  os_dbg.o(.constdata)
    OSDbg_MutexSize                          0x0800e46c   Data           2  os_dbg.o(.constdata)
    OSDbg_ObjTypeChkEn                       0x0800e46e   Data           1  os_dbg.o(.constdata)
    OSDbg_PendMultiEn                        0x0800e46f   Data           1  os_dbg.o(.constdata)
    OSDbg_PendDataSize                       0x0800e470   Data           2  os_dbg.o(.constdata)
    OSDbg_PendListSize                       0x0800e472   Data           2  os_dbg.o(.constdata)
    OSDbg_PendObjSize                        0x0800e474   Data           2  os_dbg.o(.constdata)
    OSDbg_PrioMax                            0x0800e476   Data           2  os_dbg.o(.constdata)
    OSDbg_PrioTblSize                        0x0800e478   Data           2  os_dbg.o(.constdata)
    OSDbg_PtrSize                            0x0800e47a   Data           2  os_dbg.o(.constdata)
    OSDbg_Q                                  0x0800e47c   Data          48  os_dbg.o(.constdata)
    OSDbg_QEn                                0x0800e4ac   Data           1  os_dbg.o(.constdata)
    OSDbg_QDelEn                             0x0800e4ad   Data           1  os_dbg.o(.constdata)
    OSDbg_QFlushEn                           0x0800e4ae   Data           1  os_dbg.o(.constdata)
    OSDbg_QPendAbortEn                       0x0800e4af   Data           1  os_dbg.o(.constdata)
    OSDbg_QSize                              0x0800e4b0   Data           2  os_dbg.o(.constdata)
    OSDbg_SchedRoundRobinEn                  0x0800e4b2   Data           1  os_dbg.o(.constdata)
    OSDbg_Sem                                0x0800e4b4   Data          40  os_dbg.o(.constdata)
    OSDbg_SemEn                              0x0800e4dc   Data           1  os_dbg.o(.constdata)
    OSDbg_SemDelEn                           0x0800e4dd   Data           1  os_dbg.o(.constdata)
    OSDbg_SemPendAbortEn                     0x0800e4de   Data           1  os_dbg.o(.constdata)
    OSDbg_SemSetEn                           0x0800e4df   Data           1  os_dbg.o(.constdata)
    OSDbg_SemSize                            0x0800e4e0   Data           2  os_dbg.o(.constdata)
    OSDbg_RdyList                            0x0800e4e2   Data           2  os_dbg.o(.constdata)
    OSDbg_RdyListSize                        0x0800e4e4   Data           4  os_dbg.o(.constdata)
    OSDbg_StkWidth                           0x0800e4e8   Data           1  os_dbg.o(.constdata)
    OSDbg_StatTaskEn                         0x0800e4e9   Data           1  os_dbg.o(.constdata)
    OSDbg_StatTaskStkChkEn                   0x0800e4ea   Data           1  os_dbg.o(.constdata)
    OSDbg_TaskChangePrioEn                   0x0800e4eb   Data           1  os_dbg.o(.constdata)
    OSDbg_TaskDelEn                          0x0800e4ec   Data           1  os_dbg.o(.constdata)
    OSDbg_TaskQEn                            0x0800e4ed   Data           1  os_dbg.o(.constdata)
    OSDbg_TaskQPendAbortEn                   0x0800e4ee   Data           1  os_dbg.o(.constdata)
    OSDbg_TaskProfileEn                      0x0800e4ef   Data           1  os_dbg.o(.constdata)
    OSDbg_TaskRegTblSize                     0x0800e4f0   Data           2  os_dbg.o(.constdata)
    OSDbg_TaskSemPendAbortEn                 0x0800e4f2   Data           1  os_dbg.o(.constdata)
    OSDbg_TaskSuspendEn                      0x0800e4f3   Data           1  os_dbg.o(.constdata)
    OSDbg_TCBSize                            0x0800e4f4   Data           2  os_dbg.o(.constdata)
    OSDbg_TickSpokeSize                      0x0800e4f6   Data           2  os_dbg.o(.constdata)
    OSDbg_TimeDlyHMSMEn                      0x0800e4f8   Data           1  os_dbg.o(.constdata)
    OSDbg_TimeDlyResumeEn                    0x0800e4f9   Data           1  os_dbg.o(.constdata)
    OSDbg_TLS_TblSize                        0x0800e4fa   Data           2  os_dbg.o(.constdata)
    OSDbg_Tmr                                0x0800e4fc   Data          52  os_dbg.o(.constdata)
    OSDbg_TmrEn                              0x0800e530   Data           1  os_dbg.o(.constdata)
    OSDbg_TmrDelEn                           0x0800e531   Data           1  os_dbg.o(.constdata)
    OSDbg_TmrSize                            0x0800e532   Data           2  os_dbg.o(.constdata)
    OSDbg_TmrSpokeSize                       0x0800e534   Data           2  os_dbg.o(.constdata)
    OSDbg_VersionNbr                         0x0800e536   Data           2  os_dbg.o(.constdata)
    OSDbg_DataSize                           0x0800e538   Data           4  os_dbg.o(.constdata)
    Region$$Table$$Base                      0x0800e564   Number         0  anon$$obj.o(Region$$Table)
    Region$$Table$$Limit                     0x0800e584   Number         0  anon$$obj.o(Region$$Table)
    lcd_discolor                             0x20000000   Data          56  main.o(.data)
    SystemCoreClock                          0x20000038   Data           4  system_stm32f10x.o(.data)
    AHBPrescTable                            0x2000003c   Data          16  system_stm32f10x.o(.data)
    FRONT_COLOR                              0x2000004c   Data           2  tftlcd.o(.data)
    BACK_COLOR                               0x2000004e   Data           2  tftlcd.o(.data)
    tftlcd_data                              0x20000050   Data           8  tftlcd.o(.data)
    __stdout                                 0x2000005c   Data           4  usart.o(.data)
    USART_RX_STA                             0x20000060   Data           2  usart.o(.data)
    CPU_TS_TmrFreq_Hz                        0x20000078   Data           4  cpu_core.o(.data)
    Mem_PoolTbl                              0x2000007c   Data           4  lib_mem.o(.data)
    OSPrioTbl                                0x20000080   Data           8  os_prio.o(.data)
    OS_AppTaskCreateHookPtr                  0x20000088   Data           4  os_var.o(.data)
    OS_AppTaskDelHookPtr                     0x2000008c   Data           4  os_var.o(.data)
    OS_AppTaskReturnHookPtr                  0x20000090   Data           4  os_var.o(.data)
    OS_AppIdleTaskHookPtr                    0x20000094   Data           4  os_var.o(.data)
    OS_AppStatTaskHookPtr                    0x20000098   Data           4  os_var.o(.data)
    OS_AppTaskSwHookPtr                      0x2000009c   Data           4  os_var.o(.data)
    OS_AppTimeTickHookPtr                    0x200000a0   Data           4  os_var.o(.data)
    OSIdleTaskCtr                            0x200000a4   Data           4  os_var.o(.data)
    OSIntNestingCtr                          0x200000a8   Data           1  os_var.o(.data)
    OSRunning                                0x200000a9   Data           1  os_var.o(.data)
    OSIntQInPtr                              0x200000ac   Data           4  os_var.o(.data)
    OSIntQOutPtr                             0x200000b0   Data           4  os_var.o(.data)
    OSIntQNbrEntries                         0x200000b4   Data           2  os_var.o(.data)
    OSIntQNbrEntriesMax                      0x200000b6   Data           2  os_var.o(.data)
    OSIntQOvfCtr                             0x200000b8   Data           2  os_var.o(.data)
    OSIntQTaskTimeMax                        0x200000bc   Data           4  os_var.o(.data)
    OSFlagDbgListPtr                         0x200000c0   Data           4  os_var.o(.data)
    OSFlagQty                                0x200000c4   Data           2  os_var.o(.data)
    OSMemDbgListPtr                          0x200000c8   Data           4  os_var.o(.data)
    OSMemQty                                 0x200000cc   Data           2  os_var.o(.data)
    OSMutexDbgListPtr                        0x200000d0   Data           4  os_var.o(.data)
    OSMutexQty                               0x200000d4   Data           2  os_var.o(.data)
    OSPrioCur                                0x200000d6   Data           1  os_var.o(.data)
    OSPrioHighRdy                            0x200000d7   Data           1  os_var.o(.data)
    OSPrioSaved                              0x200000d8   Data           1  os_var.o(.data)
    OSQDbgListPtr                            0x200000dc   Data           4  os_var.o(.data)
    OSQQty                                   0x200000e0   Data           2  os_var.o(.data)
    OSSchedLockTimeBegin                     0x200000e4   Data           4  os_var.o(.data)
    OSSchedLockTimeMax                       0x200000e8   Data           4  os_var.o(.data)
    OSSchedLockTimeMaxCur                    0x200000ec   Data           4  os_var.o(.data)
    OSSchedLockNestingCtr                    0x200000f0   Data           1  os_var.o(.data)
    OSSchedRoundRobinDfltTimeQuanta          0x200000f4   Data           4  os_var.o(.data)
    OSSchedRoundRobinEn                      0x200000f8   Data           1  os_var.o(.data)
    OSSemDbgListPtr                          0x200000fc   Data           4  os_var.o(.data)
    OSSemQty                                 0x20000100   Data           2  os_var.o(.data)
    OSStatResetFlag                          0x20000102   Data           1  os_var.o(.data)
    OSStatTaskCPUUsage                       0x20000104   Data           2  os_var.o(.data)
    OSStatTaskCPUUsageMax                    0x20000106   Data           2  os_var.o(.data)
    OSStatTaskCtr                            0x20000108   Data           4  os_var.o(.data)
    OSStatTaskCtrMax                         0x2000010c   Data           4  os_var.o(.data)
    OSStatTaskCtrRun                         0x20000110   Data           4  os_var.o(.data)
    OSStatTaskRdy                            0x20000114   Data           1  os_var.o(.data)
    OSStatTaskTimeMax                        0x20000118   Data           4  os_var.o(.data)
    OSTaskCtxSwCtr                           0x2000011c   Data           4  os_var.o(.data)
    OSTaskDbgListPtr                         0x20000120   Data           4  os_var.o(.data)
    OSTaskQty                                0x20000124   Data           2  os_var.o(.data)
    OSTaskRegNextAvailID                     0x20000126   Data           1  os_var.o(.data)
    OSTickCtr                                0x20000128   Data           4  os_var.o(.data)
    OSTickTaskTimeMax                        0x2000012c   Data           4  os_var.o(.data)
    OSTmrDbgListPtr                          0x20000130   Data           4  os_var.o(.data)
    OSTmrQty                                 0x20000134   Data           2  os_var.o(.data)
    OSTmrTaskTimeMax                         0x20000138   Data           4  os_var.o(.data)
    OSTmrTickCtr                             0x2000013c   Data           4  os_var.o(.data)
    OSTmrUpdateCnt                           0x20000140   Data           4  os_var.o(.data)
    OSTmrUpdateCtr                           0x20000144   Data           4  os_var.o(.data)
    OSTCBCurPtr                              0x20000148   Data           4  os_var.o(.data)
    OSTCBHighRdyPtr                          0x2000014c   Data           4  os_var.o(.data)
    OS_CPU_ExceptStkBase                     0x20000150   Data           4  os_cpu_c.o(.data)
    StartTaskTCB                             0x20000154   Data         196  main.o(.bss)
    START_TASK_STK                           0x20000218   Data         512  main.o(.bss)
    LCD1TaskTCB                              0x20000418   Data         196  main.o(.bss)
    LCD1_TASK_STK                            0x200004dc   Data         512  main.o(.bss)
    LCD2TaskTCB                              0x200006dc   Data         196  main.o(.bss)
    LCD2_TASK_STK                            0x200007a0   Data         512  main.o(.bss)
    USART_RX_BUF                             0x200009a0   Data         200  usart.o(.bss)
    CPU_Name                                 0x20000a68   Data          16  cpu_core.o(.bss)
    Mem_PoolHeap                             0x20000a78   Data          72  lib_mem.o(.bss)
    Mem_Heap                                 0x20000ac0   Data        1024  lib_mem.o(.bss)
    OSCfg_IdleTaskStk                        0x20000ec0   Data         512  os_cfg_app.o(.bss)
    OSCfg_IntQ                               0x200010c0   Data         320  os_cfg_app.o(.bss)
    OSCfg_IntQTaskStk                        0x20001200   Data         512  os_cfg_app.o(.bss)
    OSCfg_ISRStk                             0x20001400   Data         512  os_cfg_app.o(.bss)
    OSCfg_MsgPool                            0x20001600   Data        1600  os_cfg_app.o(.bss)
    OSCfg_StatTaskStk                        0x20001c40   Data         512  os_cfg_app.o(.bss)
    OSCfg_TickTaskStk                        0x20001e40   Data         512  os_cfg_app.o(.bss)
    OSCfg_TickWheel                          0x20002040   Data         136  os_cfg_app.o(.bss)
    OSCfg_TmrTaskStk                         0x200020c8   Data         512  os_cfg_app.o(.bss)
    OSCfg_TmrWheel                           0x200022c8   Data         136  os_cfg_app.o(.bss)
    OSIdleTaskTCB                            0x20002350   Data         196  os_var.o(.bss)
    OSIntQTaskTCB                            0x20002414   Data         196  os_var.o(.bss)
    OSMsgPool                                0x200024d8   Data          12  os_var.o(.bss)
    OSRdyList                                0x200024e4   Data         768  os_var.o(.bss)
    OSStatTaskTCB                            0x200027e4   Data         196  os_var.o(.bss)
    OSTickTaskTCB                            0x200028a8   Data         196  os_var.o(.bss)
    OSTmrTaskTCB                             0x2000296c   Data         196  os_var.o(.bss)
    __libspace_start                         0x20002a30   Data          96  libspace.o(.bss)
    __temporary_stack_top$libspace           0x20002a90   Data           0  libspace.o(.bss)



==============================================================================

Memory Map of the image

  Image Entry point : 0x08000131

  Load Region LR_IROM1 (Base: 0x08000000, Size: 0x0000e6d8, Max: 0x00080000, ABSOLUTE, COMPRESSED[0x0000e5c4])

    Execution Region ER_IROM1 (Exec base: 0x08000000, Load base: 0x08000000, Size: 0x0000e584, Max: 0x00080000, ABSOLUTE)

    Exec Addr    Load Addr    Size         Type   Attr      Idx    E Section Name        Object

    0x08000000   0x08000000   0x00000130   Data   RO          408    RESET               startup_stm32f10x_hd.o
    0x08000130   0x08000130   0x00000008   Code   RO          932  * !!!main             c_w.l(__main.o)
    0x08000138   0x08000138   0x00000034   Code   RO         1112    !!!scatter          c_w.l(__scatter.o)
    0x0800016c   0x0800016c   0x0000005a   Code   RO         1110    !!dczerorl2         c_w.l(__dczerorl2.o)
    0x080001c6   0x080001c6   0x00000002   PAD
    0x080001c8   0x080001c8   0x0000001c   Code   RO         1114    !!handler_zi        c_w.l(__scatter_zi.o)
    0x080001e4   0x080001e4   0x00000000   Code   RO          929    .ARM.Collect$$_printf_percent$$00000000  c_w.l(_printf_percent.o)
    0x080001e4   0x080001e4   0x00000006   Code   RO          928    .ARM.Collect$$_printf_percent$$00000009  c_w.l(_printf_d.o)
    0x080001ea   0x080001ea   0x00000006   Code   RO          927    .ARM.Collect$$_printf_percent$$0000000C  c_w.l(_printf_x.o)
    0x080001f0   0x080001f0   0x00000004   Code   RO          945    .ARM.Collect$$_printf_percent$$00000017  c_w.l(_printf_percent_end.o)
    0x080001f4   0x080001f4   0x00000002   Code   RO          984    .ARM.Collect$$libinit$$00000000  c_w.l(libinit.o)
    0x080001f6   0x080001f6   0x00000000   Code   RO          997    .ARM.Collect$$libinit$$00000002  c_w.l(libinit2.o)
    0x080001f6   0x080001f6   0x00000000   Code   RO          999    .ARM.Collect$$libinit$$00000004  c_w.l(libinit2.o)
    0x080001f6   0x080001f6   0x00000000   Code   RO         1002    .ARM.Collect$$libinit$$0000000A  c_w.l(libinit2.o)
    0x080001f6   0x080001f6   0x00000000   Code   RO         1004    .ARM.Collect$$libinit$$0000000C  c_w.l(libinit2.o)
    0x080001f6   0x080001f6   0x00000000   Code   RO         1006    .ARM.Collect$$libinit$$0000000E  c_w.l(libinit2.o)
    0x080001f6   0x080001f6   0x00000000   Code   RO         1009    .ARM.Collect$$libinit$$00000011  c_w.l(libinit2.o)
    0x080001f6   0x080001f6   0x00000000   Code   RO         1011    .ARM.Collect$$libinit$$00000013  c_w.l(libinit2.o)
    0x080001f6   0x080001f6   0x00000000   Code   RO         1013    .ARM.Collect$$libinit$$00000015  c_w.l(libinit2.o)
    0x080001f6   0x080001f6   0x00000000   Code   RO         1015    .ARM.Collect$$libinit$$00000017  c_w.l(libinit2.o)
    0x080001f6   0x080001f6   0x00000000   Code   RO         1017    .ARM.Collect$$libinit$$00000019  c_w.l(libinit2.o)
    0x080001f6   0x080001f6   0x00000000   Code   RO         1019    .ARM.Collect$$libinit$$0000001B  c_w.l(libinit2.o)
    0x080001f6   0x080001f6   0x00000000   Code   RO         1021    .ARM.Collect$$libinit$$0000001D  c_w.l(libinit2.o)
    0x080001f6   0x080001f6   0x00000000   Code   RO         1023    .ARM.Collect$$libinit$$0000001F  c_w.l(libinit2.o)
    0x080001f6   0x080001f6   0x00000000   Code   RO         1025    .ARM.Collect$$libinit$$00000021  c_w.l(libinit2.o)
    0x080001f6   0x080001f6   0x00000000   Code   RO         1027    .ARM.Collect$$libinit$$00000023  c_w.l(libinit2.o)
    0x080001f6   0x080001f6   0x00000000   Code   RO         1029    .ARM.Collect$$libinit$$00000025  c_w.l(libinit2.o)
    0x080001f6   0x080001f6   0x00000000   Code   RO         1033    .ARM.Collect$$libinit$$0000002C  c_w.l(libinit2.o)
    0x080001f6   0x080001f6   0x00000000   Code   RO         1035    .ARM.Collect$$libinit$$0000002E  c_w.l(libinit2.o)
    0x080001f6   0x080001f6   0x00000000   Code   RO         1037    .ARM.Collect$$libinit$$00000030  c_w.l(libinit2.o)
    0x080001f6   0x080001f6   0x00000000   Code   RO         1039    .ARM.Collect$$libinit$$00000032  c_w.l(libinit2.o)
    0x080001f6   0x080001f6   0x00000002   Code   RO         1040    .ARM.Collect$$libinit$$00000033  c_w.l(libinit2.o)
    0x080001f8   0x080001f8   0x00000002   Code   RO         1066    .ARM.Collect$$libshutdown$$00000000  c_w.l(libshutdown.o)
    0x080001fa   0x080001fa   0x00000000   Code   RO         1093    .ARM.Collect$$libshutdown$$00000002  c_w.l(libshutdown2.o)
    0x080001fa   0x080001fa   0x00000000   Code   RO         1095    .ARM.Collect$$libshutdown$$00000004  c_w.l(libshutdown2.o)
    0x080001fa   0x080001fa   0x00000000   Code   RO         1098    .ARM.Collect$$libshutdown$$00000007  c_w.l(libshutdown2.o)
    0x080001fa   0x080001fa   0x00000000   Code   RO         1101    .ARM.Collect$$libshutdown$$0000000A  c_w.l(libshutdown2.o)
    0x080001fa   0x080001fa   0x00000000   Code   RO         1103    .ARM.Collect$$libshutdown$$0000000C  c_w.l(libshutdown2.o)
    0x080001fa   0x080001fa   0x00000000   Code   RO         1106    .ARM.Collect$$libshutdown$$0000000F  c_w.l(libshutdown2.o)
    0x080001fa   0x080001fa   0x00000002   Code   RO         1107    .ARM.Collect$$libshutdown$$00000010  c_w.l(libshutdown2.o)
    0x080001fc   0x080001fc   0x00000000   Code   RO          936    .ARM.Collect$$rtentry$$00000000  c_w.l(__rtentry.o)
    0x080001fc   0x080001fc   0x00000000   Code   RO          947    .ARM.Collect$$rtentry$$00000002  c_w.l(__rtentry2.o)
    0x080001fc   0x080001fc   0x00000006   Code   RO          959    .ARM.Collect$$rtentry$$00000004  c_w.l(__rtentry4.o)
    0x08000202   0x08000202   0x00000000   Code   RO          949    .ARM.Collect$$rtentry$$00000009  c_w.l(__rtentry2.o)
    0x08000202   0x08000202   0x00000004   Code   RO          950    .ARM.Collect$$rtentry$$0000000A  c_w.l(__rtentry2.o)
    0x08000206   0x08000206   0x00000000   Code   RO          952    .ARM.Collect$$rtentry$$0000000C  c_w.l(__rtentry2.o)
    0x08000206   0x08000206   0x00000008   Code   RO          953    .ARM.Collect$$rtentry$$0000000D  c_w.l(__rtentry2.o)
    0x0800020e   0x0800020e   0x00000002   Code   RO          988    .ARM.Collect$$rtexit$$00000000  c_w.l(rtexit.o)
    0x08000210   0x08000210   0x00000000   Code   RO         1042    .ARM.Collect$$rtexit$$00000002  c_w.l(rtexit2.o)
    0x08000210   0x08000210   0x00000004   Code   RO         1043    .ARM.Collect$$rtexit$$00000003  c_w.l(rtexit2.o)
    0x08000214   0x08000214   0x00000006   Code   RO         1044    .ARM.Collect$$rtexit$$00000004  c_w.l(rtexit2.o)
    0x0800021a   0x0800021a   0x00000002   PAD
    0x0800021c   0x0800021c   0x0000054c   Code   RO            1    .text               main.o
    0x08000768   0x08000768   0x00000016   Code   RO          149    .text               stm32f10x_it.o
    0x0800077e   0x0800077e   0x00000002   PAD
    0x08000780   0x08000780   0x000001e0   Code   RO          199    .text               system_stm32f10x.o
    0x08000960   0x08000960   0x0000004c   Code   RO          217    .text               led.o
    0x080009ac   0x080009ac   0x00000d6c   Code   RO          252    .text               tftlcd.o
    0x08001718   0x08001718   0x0000014c   Code   RO          288    .text               delay.o
    0x08001864   0x08001864   0x00000150   Code   RO          373    .text               usart.o
    0x080019b4   0x080019b4   0x00000040   Code   RO          409    .text               startup_stm32f10x_hd.o
    0x080019f4   0x080019f4   0x000000dc   Code   RO          413    .text               misc.o
    0x08001ad0   0x08001ad0   0x0000035c   Code   RO          425    .text               stm32f10x_gpio.o
    0x08001e2c   0x08001e2c   0x00000408   Code   RO          437    .text               stm32f10x_usart.o
    0x08002234   0x08002234   0x000003a4   Code   RO          449    .text               stm32f10x_rcc.o
    0x080025d8   0x080025d8   0x0000060c   Code   RO          463    .text               stm32f10x_fsmc.o
    0x08002be4   0x08002be4   0x00000084   Code   RO          475    .text               bsp.o
    0x08002c68   0x08002c68   0x000002a8   Code   RO          490    .text               cpu_core.o
    0x08002f10   0x08002f10   0x00000034   Code   RO          528    .text               cpu_a.o
    0x08002f44   0x08002f44   0x00000256   Code   RO          531    .text               lib_ascii.o
    0x0800319a   0x0800319a   0x00000002   PAD
    0x0800319c   0x0800319c   0x000009c6   Code   RO          564    .text               lib_mem.o
    0x08003b62   0x08003b62   0x00000002   PAD
    0x08003b64   0x08003b64   0x0000092c   Code   RO          583    .text               lib_str.o
    0x08004490   0x08004490   0x00000220   Code   RO          600    .text               lib_mem_a.o
    0x080046b0   0x080046b0   0x000000fc   Code   RO          603    .text               os_cfg_app.o
    0x080047ac   0x080047ac   0x00000e04   Code   RO          626    .text               os_core.o
    0x080055b0   0x080055b0   0x000001b0   Code   RO          638    .text               os_dbg.o
    0x08005760   0x08005760   0x00000e28   Code   RO          653    .text               os_flag.o
    0x08006588   0x08006588   0x00000444   Code   RO          665    .text               os_int.o
    0x080069cc   0x080069cc   0x00000238   Code   RO          677    .text               os_mem.o
    0x08006c04   0x08006c04   0x0000022c   Code   RO          689    .text               os_msg.o
    0x08006e30   0x08006e30   0x00000ad4   Code   RO          701    .text               os_mutex.o
    0x08007904   0x08007904   0x0000007c   Code   RO          719    .text               os_prio.o
    0x08007980   0x08007980   0x000008d8   Code   RO          738    .text               os_q.o
    0x08008258   0x08008258   0x00000830   Code   RO          750    .text               os_sem.o
    0x08008a88   0x08008a88   0x00000638   Code   RO          762    .text               os_stat.o
    0x080090c0   0x080090c0   0x00001bb4   Code   RO          774    .text               os_task.o
    0x0800ac74   0x0800ac74   0x000004fc   Code   RO          786    .text               os_tick.o
    0x0800b170   0x0800b170   0x00000564   Code   RO          798    .text               os_time.o
    0x0800b6d4   0x0800b6d4   0x00000818   Code   RO          810    .text               os_tmr.o
    0x0800beec   0x0800beec   0x0000026c   Code   RO          839    .text               os_cpu_c.o
    0x0800c158   0x0800c158   0x00000002   Code   RO          874    .text               c_w.l(use_no_semi_2.o)
    0x0800c15a   0x0800c15a   0x000000ee   Code   RO          876    .text               c_w.l(lludivv7m.o)
    0x0800c248   0x0800c248   0x00000018   Code   RO          880    .text               c_w.l(noretval__2printf.o)
    0x0800c260   0x0800c260   0x00000068   Code   RO          882    .text               c_w.l(__printf.o)
    0x0800c2c8   0x0800c2c8   0x00000078   Code   RO          884    .text               c_w.l(_printf_dec.o)
    0x0800c340   0x0800c340   0x00000058   Code   RO          889    .text               c_w.l(_printf_hex_int.o)
    0x0800c398   0x0800c398   0x00000006   Code   RO          930    .text               c_w.l(heapauxi.o)
    0x0800c39e   0x0800c39e   0x00000002   Code   RO          934    .text               c_w.l(use_no_semi.o)
    0x0800c3a0   0x0800c3a0   0x000000b2   Code   RO          941    .text               c_w.l(_printf_intcommon.o)
    0x0800c452   0x0800c452   0x00000002   PAD
    0x0800c454   0x0800c454   0x00000024   Code   RO          943    .text               c_w.l(_printf_char_file.o)
    0x0800c478   0x0800c478   0x00000030   Code   RO          963    .text               c_w.l(_printf_char_common.o)
    0x0800c4a8   0x0800c4a8   0x00000008   Code   RO          965    .text               c_w.l(ferror.o)
    0x0800c4b0   0x0800c4b0   0x0000004a   Code   RO          969    .text               c_w.l(sys_stackheap_outer.o)
    0x0800c4fa   0x0800c4fa   0x00000012   Code   RO          973    .text               c_w.l(exit.o)
    0x0800c50c   0x0800c50c   0x00000008   Code   RO          985    .text               c_w.l(libspace.o)
    0x0800c514   0x0800c514   0x00000098   Code   RO          836    CODE                os_cpu_a.o
    0x0800c5ac   0x0800c5ac   0x00001be6   Data   RO          253    .constdata          tftlcd.o
    0x0800e192   0x0800e192   0x00000002   PAD
    0x0800e194   0x0800e194   0x00000104   Data   RO          492    .constdata          cpu_core.o
    0x0800e298   0x0800e298   0x00000094   Data   RO          584    .constdata          lib_str.o
    0x0800e32c   0x0800e32c   0x000000a4   Data   RO          605    .constdata          os_cfg_app.o
    0x0800e3d0   0x0800e3d0   0x0000016c   Data   RO          639    .constdata          os_dbg.o
    0x0800e53c   0x0800e53c   0x00000028   Data   RO          890    .constdata          c_w.l(_printf_hex_int.o)
    0x0800e564   0x0800e564   0x00000020   Data   RO         1108    Region$$Table       anon$$obj.o


    Execution Region RW_IRAM1 (Exec base: 0x20000000, Load base: 0x0800e584, Size: 0x00003490, Max: 0x00010000, ABSOLUTE, COMPRESSED[0x00000040])

    Exec Addr    Load Addr    Size         Type   Attr      Idx    E Section Name        Object

    0x20000000   COMPRESSED   0x00000038   Data   RW            3    .data               main.o
    0x20000038   COMPRESSED   0x00000014   Data   RW          200    .data               system_stm32f10x.o
    0x2000004c   COMPRESSED   0x0000000c   Data   RW          254    .data               tftlcd.o
    0x20000058   COMPRESSED   0x00000004   Data   RW          289    .data               delay.o
    0x2000005c   COMPRESSED   0x00000006   Data   RW          375    .data               usart.o
    0x20000062   COMPRESSED   0x00000014   Data   RW          450    .data               stm32f10x_rcc.o
    0x20000076   COMPRESSED   0x00000002   PAD
    0x20000078   COMPRESSED   0x00000004   Data   RW          493    .data               cpu_core.o
    0x2000007c   COMPRESSED   0x00000004   Data   RW          566    .data               lib_mem.o
    0x20000080   COMPRESSED   0x00000008   Data   RW          720    .data               os_prio.o
    0x20000088   COMPRESSED   0x000000c8   Data   RW          823    .data               os_var.o
    0x20000150   COMPRESSED   0x00000004   Data   RW          840    .data               os_cpu_c.o
    0x20000154        -       0x0000084c   Zero   RW            2    .bss                main.o
    0x200009a0        -       0x000000c8   Zero   RW          374    .bss                usart.o
    0x20000a68        -       0x00000010   Zero   RW          491    .bss                cpu_core.o
    0x20000a78        -       0x00000448   Zero   RW          565    .bss                lib_mem.o
    0x20000ec0        -       0x00001490   Zero   RW          604    .bss                os_cfg_app.o
    0x20002350        -       0x000006e0   Zero   RW          822    .bss                os_var.o
    0x20002a30        -       0x00000060   Zero   RW          986    .bss                c_w.l(libspace.o)
    0x20002a90        -       0x00000200   Zero   RW          407    HEAP                startup_stm32f10x_hd.o
    0x20002c90        -       0x00000800   Zero   RW          406    STACK               startup_stm32f10x_hd.o


==============================================================================

Image component sizes


      Code (inc. data)   RO Data    RW Data    ZI Data      Debug   Object Name

       132         12          0          0          0       1147   bsp.o
        52          0          0          0          0        336   cpu_a.o
       680         14        260          4         16      14383   cpu_core.o
       332         28          0          4          0      41045   delay.o
        76          8          0          0          0     205267   led.o
       598          0          0          0          0       3880   lib_ascii.o
      2502         32          0          4       1096      22212   lib_mem.o
       544          0          0          0          0        480   lib_mem_a.o
      2348          6        148          0          0      13778   lib_str.o
      1356        220          0         56       2124     239545   main.o
       220         22          0          0          0       1817   misc.o
       252        166        164          0       5264      20890   os_cfg_app.o
      3588        294          0          0          0      12453   os_core.o
       152         32          0          0          0        392   os_cpu_a.o
       620         66          0          4          0       3793   os_cpu_c.o
       432        286        364          0          0       4745   os_dbg.o
      3624        110          0          0          0       8035   os_flag.o
      1092        146          0          0          0       2336   os_int.o
       568         20          0          0          0       2760   os_mem.o
       556         12          0          0          0       2799   os_msg.o
      2772        114          0          0          0       5570   os_mutex.o
       124          4          0          8          0       1740   os_prio.o
      2264         76          0          0          0       6336   os_q.o
      2096         70          0          0          0       6352   os_sem.o
      1592        180          0          0          0       2817   os_stat.o
      7092        270          0          0          0      14178   os_task.o
      1276         90          0          0          0       3289   os_tick.o
      1380         46          0          0          0       3289   os_time.o
      2072        140          0          0          0       6474   os_tmr.o
         0          0          0        200       1760      19353   os_var.o
        64         26        304          0       2560        792   startup_stm32f10x_hd.o
      1548         18          0          0          0       5399   stm32f10x_fsmc.o
       860         38          0          0          0       5753   stm32f10x_gpio.o
        22          0          0          0          0      32103   stm32f10x_it.o
       932         36          0         20          0       8932   stm32f10x_rcc.o
      1032         22          0          0          0       8476   stm32f10x_usart.o
         0          0          0          0          0         32   sys.o
       480         38          0         20          0       1719   system_stm32f10x.o
      3436        128       7142         12          0      12464   tftlcd.o
       336         18          0          6        200       3194   usart.o

    ----------------------------------------------------------------------
     49108       2788       8416        340      13020     750355   Object Totals
         0          0         32          0          0          0   (incl. Generated)
         6          0          2          2          0          0   (incl. Padding)

    ----------------------------------------------------------------------

      Code (inc. data)   RO Data    RW Data    ZI Data      Debug   Library Member Name

        90          0          0          0          0          0   __dczerorl2.o
         8          0          0          0          0         68   __main.o
       104          0          0          0          0         84   __printf.o
         0          0          0          0          0          0   __rtentry.o
        12          0          0          0          0          0   __rtentry2.o
         6          0          0          0          0          0   __rtentry4.o
        52          8          0          0          0          0   __scatter.o
        28          0          0          0          0          0   __scatter_zi.o
        48          6          0          0          0         96   _printf_char_common.o
        36          4          0          0          0         80   _printf_char_file.o
         6          0          0          0          0          0   _printf_d.o
       120         16          0          0          0         92   _printf_dec.o
        88          4         40          0          0         88   _printf_hex_int.o
       178          0          0          0          0         88   _printf_intcommon.o
         0          0          0          0          0          0   _printf_percent.o
         4          0          0          0          0          0   _printf_percent_end.o
         6          0          0          0          0          0   _printf_x.o
        18          0          0          0          0         80   exit.o
         8          0          0          0          0         68   ferror.o
         6          0          0          0          0        152   heapauxi.o
         2          0          0          0          0          0   libinit.o
         2          0          0          0          0          0   libinit2.o
         2          0          0          0          0          0   libshutdown.o
         2          0          0          0          0          0   libshutdown2.o
         8          4          0          0         96         68   libspace.o
       238          0          0          0          0        100   lludivv7m.o
        24          4          0          0          0         84   noretval__2printf.o
         2          0          0          0          0          0   rtexit.o
        10          0          0          0          0          0   rtexit2.o
        74          0          0          0          0         80   sys_stackheap_outer.o
         2          0          0          0          0         68   use_no_semi.o
         2          0          0          0          0         68   use_no_semi_2.o

    ----------------------------------------------------------------------
      1192         46         40          0         96       1364   Library Totals
         6          0          0          0          0          0   (incl. Padding)

    ----------------------------------------------------------------------

      Code (inc. data)   RO Data    RW Data    ZI Data      Debug   Library Name

      1186         46         40          0         96       1364   c_w.l

    ----------------------------------------------------------------------
      1192         46         40          0         96       1364   Library Totals

    ----------------------------------------------------------------------

==============================================================================


      Code (inc. data)   RO Data    RW Data    ZI Data      Debug   

     50300       2834       8456        340      13116     747607   Grand Totals
     50300       2834       8456         64      13116     747607   ELF Image Totals (compressed)
     50300       2834       8456         64          0          0   ROM Totals

==============================================================================

    Total RO  Size (Code + RO Data)                58756 (  57.38kB)
    Total RW  Size (RW Data + ZI Data)             13456 (  13.14kB)
    Total ROM Size (Code + RO Data + RW Data)      58820 (  57.44kB)

==============================================================================

