:020000040800F2
:1000000068060020CD010008F9030008A7030008D6
:10001000F50300088702000815080008000000002A
:10002000000000000000000000000000C5040008FF
:100030008B0200080000000081040008D9050008B8
:10004000E7010008E7010008E7010008E7010008F0
:10005000E7010008E7010008E7010008E7010008E0
:10006000E7010008E7010008E7010008E7010008D0
:10007000E7010008E7010008E7010008E7010008C0
:10008000E7010008E7010008E7010008E7010008B0
:10009000E7010008E7010008E7010008E7010008A0
:1000A000E7010008E7010008E7010008E701000890
:1000B000E7010008E701000879060008E7010008E9
:1000C000E7010008E7010008E7010008E701000870
:1000D000E7010008E7010008E7010008E701000860
:1000E000E7010008E7010008E7010008E701000850
:1000F000E7010008E7010008E7010008E701000840
:10010000E7010008E7010008E7010008E70100082F
:10011000E7010008E7010008E7010008E70100081F
:10012000E7010008E7010008E7010008E70100080F
:1001300000F002F800F03AF80AA090E8000C8244BF
:100140008344AAF10107DA4501D100F02FF8AFF29C
:10015000090EBAE80F0013F0010F18BFFB1A43F0A5
:10016000010318473807000058070000103A24BF61
:1001700078C878C1FAD8520724BF30C830C144BF0C
:1001800004680C607047000000230024002500264E
:10019000103A28BF78C1FBD8520728BF30C148BFEA
:1001A0000B6070471FB51FBD10B510BD00F031F8D2
:1001B0001146FFF7F7FF00F055FB00F04FF803B4CE
:1001C000FFF7F2FF03BC00F057F800000948804732
:1001D00009480047FEE7FEE7FEE7FEE7FEE7FEE729
:1001E000FEE7FEE7FEE7FEE704480549054A064B41
:1001F000704700001906000831010008680000205F
:1002000068060020680200206802002070477047DE
:100210007047754600F02CF8AE4605006946534617
:1002200020F00700854618B020B5FFF7DDFFBDE8D8
:1002300020404FF000064FF000074FF000084FF04D
:10024000000B21F00701AC46ACE8C009ACE8C009DE
:10025000ACE8C009ACE8C0098D46704710B504464B
:10026000AFF300802046BDE81040FFF7A8BF0000B4
:10027000004870470800002001491820ABBEFEE787
:1002800026000200704700BFFEE770472DE9F041ED
:10029000024600250026002000230024002791F8B4
:1002A00003C00CF00F0591F803C00CF0100CBCF16A
:1002B000000F03D091F802C04CEA050591F800C088
:1002C000BCF1000F31D0146800202BE04FF0010C7E
:1002D0000CFA00F3B1F800C00CEA03069E4220D1EC
:1002E00083004FF00F0C0CFA03F7BC4305FA03FC34
:1002F0004CEA040491F803C0BCF1280F06D14FF07A
:10030000010C0CFA00FCC2F814C00AE091F803C01A
:10031000BCF1480F05D14FF0010C0CFA00FCC2F8FB
:1003200010C0401C0828D1D31460B1F800C0BCF143
:10033000FF0F34DD546800202EE000F1080C4FF070
:10034000010808FA0CF3B1F800C00CEA03069E425B
:1003500021D183004FF00F0C0CFA03F7BC4305FAD0
:1003600003FC4CEA040491F803C0BCF1280F05D14A
:1003700000F1080C08FA0CF8C2F8148091F803C0D8
:10038000BCF1480F07D100F1080C4FF0010808FA42
:100390000CF8C2F81080401C0828CED35460BDE889
:1003A000F0810161704700BFFEE7000008B5202022
:1003B000ADF8000010208DF8030003208DF8020036
:1003C0000121482000F06EF869460848FFF75EFFFB
:1003D00069460748FFF75AFF20210548FFF7E1FF6C
:1003E00020210248FFF7DDFF08BD0000000C01409E
:1003F0000018014000BFFEE77047000070B5002103
:1004000000230F22C47804B3154C246804F4E0647C
:10041000C4F5E064210AC1F10403CA40447804FA37
:1004200003F184781440214309010E4C0678A1554C
:10043000047804F01F050124AC4005786D11AD006F
:1004400005F1E025C5F8004109E0047804F01F0536
:100450000124AC40044D0678761145F8264070BD65
:100460000CED00E000E400E080E100E0024901431F
:10047000024A1160704700000000FA050CED00E030
:100480007047000029B1064AD2690243044BDA6181
:1004900004E0034AD2698243014BDA6170470000ED
:1004A0000010024029B1064A92690243044B9A6146
:1004B00004E0034A92698243014B9A61704700004D
:1004C00000100240704710B500F002F810BD0000A7
:1004D0000CB50020019000903348006840F4803053
:1004E0003149086000BF3048006800F400300090D7
:1004F0000198401C0190009818B90198B0F5A06FC0
:10050000F1D12948006800F4003010B101200090BA
:1005100001E0002000900098012843D123480068A2
:1005200040F01000214908600846006820F00300F0
:1005300008600846006840F0020008601A484068F9
:10054000194948600846406848600846406840F4D9
:10055000806048600846406820F47C104860084687
:10056000406840F4E81048600846006840F0807039
:10057000086000BF0C48006800F000700028F9D047
:100580000948406820F00300074948600846406871
:1005900040F00200486000BF0348406800F00C00D3
:1005A0000828F9D10CBD00000010024000200240D4
:1005B000042808D14FF0E021096941F004014FF00F
:1005C000E022116107E04FF0E021096921F0040108
:1005D0004FF0E022116170477047000010B50446EB
:1005E0006FF00400FFF7E4FFE11704EB5171C9104D
:1005F000074A11601046006800EB4001C1EBC010D3
:100600004FF6FF7101EAC0000249088010BD0000EA
:10061000000000200400002010B51348006840F0DE
:1006200001001149086008464068104908400E4919
:100630004860084600680E4908400B4908600846B3
:10064000006820F4802008600846406820F4FE001E
:1006500048604FF41F008860FFF735FF4FF00060DF
:100660000449086010BD0000001002400000FFF8BF
:10067000FFFFF6FE08ED00E010B50121074800F08D
:1006800022F8012805D106480068C0430549C1F891
:1006900094010121014800F007F810BD0008004056
:1006A0009401234200002342CA430282704721B1D1
:1006B000028842F00102028004E002884FF6FE73D5
:1006C0001A400280704730B5024600200023002403
:1006D000158A05EA0103958905EA010413B10CB1F5
:1006E000012000E0002030BD1AB183890B438381D3
:1006F00002E083898B4383817047000000220288D7
:100700001D4B98420ED01D4B98420BD0B0F1804F3C
:1007100008D01B4B984205D01A4B984202D01A4B76
:10072000984204D14FF68F731A404B881A43174BE7
:10073000984207D0164B984204D04FF6FF431A4018
:10074000CB881A4302808B8883850B8803850A4BEC
:1007500098420BD0094B984208D00E4B984205D0D6
:100760000D4B984202D00D4B984201D10B7A038673
:100770000123838270470000002C014000340140B7
:100780000004004000080040000C00400010004041
:100790000014004000400140004401400048014076
:1007A0001FB5044601210420FFF76CFE0020ADF8C0
:1007B0000A00ADF8060004EB44004FF6FF7101EAB1
:1007C0008000ADF8080041F26F70ADF8040001A997
:1007D0000F48FFF793FF01210D48FFF765FF012246
:1007E00011460B48FFF780FF1E208DF80000012006
:1007F0008DF8030002208DF8010001208DF8020021
:100800006846FFF7FBFD01210148FFF750FF1FBDC0
:100810000008004000BFFEE70146114A12884A4323
:100820004FF0E0235A6100229A611A46126942F0A1
:1008300001021A6100BF4FF0E022106900F00102CE
:100840001AB100F48032002AF5D04FF0E02212698C
:1008500022F001024FF0E0231A6100229A617047F2
:10086000040000204FF4A060FFF700FEFFF79EFD9C
:100870004820FFF7B3FE4FF4FA70FFF791FF08E04E
:1008800004480068C0430449C1F89401C820FFF738
:10089000C3FFF5E79481214200802142BC08000893
:1008A00000000020080000006C010008C4080008D7
:1008B0000800002060060000880100080000000019
:0408C0000000000034
:0400000508000131BD
:00000001FF
