:020000040800F2
:100000003004002045010008090B000869040008BD
:10001000050B00082F0200088714000800000000EC
:10002000000000000000000000000000A90C000813
:100030003302000800000000910B0008BD0D00080D
:100040005F0100085F0100085F0100085F01000810
:100050005F0100085F0100085F0100085F01000800
:100060005F0100085F0100085F0100085F010008F0
:100070005F0100085F0100085F0100085F010008E0
:100080005F0100085F0100085F0100085F010008D0
:100090005F0100085F0100085F0100085F010008C0
:1000A0005F0100085F0100085F0100085F010008B0
:1000B0005F0100085F0100085F0100085F010008A0
:1000C0005F0100085F0100085F0100085F01000890
:1000D0005F0100087D1200085F0100085F01000851
:1000E0005F0100085F0100085F0100085F01000870
:1000F0005F0100085F0100085F0100085F01000860
:100100005F0100085F0100085F0100085F0100084F
:100110005F0100085F0100085F0100085F0100083F
:100120005F0100085F0100085F0100085F0100082F
:10013000DFF80CD000F04AF800480047B518000876
:10014000300400200648804706480047FEE7FEE7E7
:10015000FEE7FEE7FEE7FEE7FEE7FEE7FEE7FEE777
:10016000FD0D0008310100082DE9F05F0546002073
:1001700092469B4688460646814640241BE0284618
:1001800041464746224600F042F853465A46C01AB6
:10019000914110D311461846224600F029F82D1A35
:1001A00067EB01084F4622460120002100F020F8AD
:1001B00017EB00094E41201EA4F10104DFDC484684
:1001C00031462A464346BDE8F09F0000064C074DE5
:1001D00006E0E06840F0010394E807009847103417
:1001E000AC42F6D3FFF7A8FF583500087835000871
:1001F000202A04DB203A00FA02F1002070479140E7
:10020000C2F1200320FA03F3194390407047202ADB
:1002100004DB203A21FA02F00021704721FA02F3B0
:10022000D040C2F12002914008431946704700BFF8
:10023000FEE7704751B18200A2F1C042126842F05D
:1002400001038200A2F1C042136009E08200A2F122
:10025000C0421268034B1A408300A3F1C0431A60E6
:1002600070470000FEFF0F00D0E901121143C26881
:100270001143026911434269114382691143C26902
:100280001143026A1143426A1143826A1143C26AEE
:100290001143026B114302689200A2F1C042116047
:1002A000816808290BD101688900A1F1C041096862
:1002B00041F0400201688900A1F1C0410A60416B30
:1002C0000968426B526841EA0211426B926841EA46
:1002D0000221426B928941EA0241426B128A41EA51
:1002E0000251426B127D41EA0261426B92691143F5
:1002F0000268521C9200A2F1C0421160C16AB1F5BD
:10030000804F1BD1816B0968826B526841EA0211F0
:10031000826B926841EA0221826B128A41EA0251A1
:10032000826B127D41EA0261826B9269114302681D
:100330009200A2F1C042C2F8041107E06FF07042CF
:1003400001688900A1F1C041C1F8042170472DE97D
:10035000F04102460025002600200023002400274B
:1003600091F803C00CF00F0591F803C00CF0100CCD
:10037000BCF1000F03D091F802C04CEA050591F8DA
:1003800000C0BCF1000F31D0146800202BE04FF00A
:10039000010C0CFA00F3B1F800C00CEA03069E420F
:1003A00020D183004FF00F0C0CFA03F7BC4305FA81
:1003B00003FC4CEA040491F803C0BCF1280F06D1F9
:1003C0004FF0010C0CFA00FCC2F814C00AE091F8DE
:1003D00003C0BCF1480F05D14FF0010C0CFA00FC32
:1003E000C2F810C0401C0828D1D31460B1F800C076
:1003F000BCF1FF0F34DD546800202EE000F1080C42
:100400004FF0010808FA0CF3B1F800C00CEA03063B
:100410009E4221D183004FF00F0C0CFA03F7BC432E
:1004200005FA03FC4CEA040491F803C0BCF1280F60
:1004300005D100F1080C08FA0CF8C2F8148091F804
:1004400003C0BCF1480F07D100F1080C4FF00108C0
:1004500008FA0CF8C2F81080401C0828CED354606B
:10046000BDE8F0810161704700BFFEE770B5064648
:100470000F484088401E83B20D480088401E82B25B
:100480000021084600F0BDF900240CE0002504E03E
:10049000304600F009FB681C85B205484088A84238
:1004A000F6DC601C84B202480088A042EEDC70BD1D
:1004B0001800002000B5024672B9362000F0E8FAB4
:1004C000082000F0EBFA4FF4A0700B494880F020B0
:1004D0000880002088710DE0362000F0D9FA6820ED
:1004E00000F0DCFAF020044948804FF4A070088046
:1004F0000120887100BD00001800002070B504467E
:100500000D4616462B4622462946204600F079F92C
:10051000304600F0C9FA70BD2DE9FF4F84B0814626
:100520008A460020039002900698A0EB09050798E0
:10053000A0EB0A06CDF80490CDF800A0002D01DD57
:10054000012705E00DB9002702E04FF0FF376D42AB
:10055000002E02DD4FF0010806E016B94FF000084A
:1005600002E04FF0FF387642B54201DD2C4600E054
:1005700034464FF0000B21E0009A91B2019A90B2FC
:1005800000F078F8039828440390029830440290D1
:100590000398A04205DD0398001B0390019838449E
:1005A00001900298A04205DD0298001B029000987D
:1005B000404400900BF101001FFA80FB601C834552
:1005C000DADD08B0BDE8F08F2DE9FF4F84B0814639
:1005D0008A460020029083460698A0EB09050798FA
:1005E000A0EB0A06CDF80490CDF800A0002D01DDA7
:1005F000012705E00DB9002702E04FF0FF376D42FB
:10060000002E02DD4FF0010806E016B94FF0000899
:1006100002E04FF0FF387642B54201DD2C4600E0A3
:100620003446002003901EE0009A91B2019A90B2E5
:10063000119AFFF763FF029828440290B34402988E
:10064000A04205DD0298001B0290019838440190F9
:10065000A34504DDABEB040B0098404400900398E5
:10066000401C80B20390611C03988842DCDD08B016
:10067000BDE8F08F30B504460D462B46224629468C
:10068000204600F0BEF80248008800F00DFA30BDA8
:1006900014000020F0B504460D4616461F462B46B2
:1006A000324629462046FFF737FF3B462246294679
:1006B0002046FFF731FF3B46324639462046FFF7DA
:1006C0002BFF3B46324629463046FFF725FFF0BD5B
:1006D0002DE9F04306460F46904600244546032088
:1006E000A0EB48093CE07A1B91B2321990B2FFF7B7
:1006F000C1FF3A1B91B2721990B2FFF7BBFF3A19D2
:1007000091B2721990B2FFF7B5FF7A1991B232190E
:1007100090B2FFF7AFFF7A1991B2321B90B2FFF798
:10072000A9FF3A1991B2721B90B2FFF7A3FF7A1B8F
:1007300091B2321B90B2FFF79DFF3A1B91B2721B30
:1007400090B2FFF797FF641CB9F1000F03DAA00025
:10075000801D814404E0601B80000A3081446D1ECE
:10076000AC42C0DDBDE8F083F0B504460D46174647
:1007700005F1010C1FFA8CF304F1010C1FFA8CF245
:10078000A5F1010C1FFA8CF1A4F1010C1FFA8CF0F9
:1007900000F037F8002604E0384600F085F9701CB8
:1007A000C6B2092EF8DB211D8AB2211F88B22B4662
:1007B000294600F026F8002604E0384600F074F9D7
:1007C000701CC6B2092EF8DB281D83B2281F81B227
:1007D0002246204600F015F8002604E0384600F0D6
:1007E00063F9701CC6B2092EF8DBF0BD10B50246E5
:1007F000012000E050430B1EA1F10104E1B2F9D148
:1008000010BD70B504460D462A2000F041F9264679
:10081000E11704EB1161C1F30F2000F03FF9E1177C
:1008200004EB11610912A4EB012188B200F036F942
:100830001646D11702EB1161C1F30F2000F02EF91B
:100840001646D11702EB11610912A2EB012188B201
:1008500000F024F92B2000F01BF92E46E91705EBD8
:100860001161C1F30F2000F019F9E91705EB1161CF
:100870000912A5EB012188B200F010F91E46D91724
:1008800003EB1161C1F30F2000F008F91E46D917E0
:1008900003EB11610912A3EB012188B200F0FEF80D
:1008A0002C2000F0F5F870BD2DE9F84F80460E467B
:1008B00017461C46B3462046E31704EB5373DB1080
:1008C00021464FEAE47C04EB5C7C4FEAEC0CA4EBA1
:1008D000CC0CBCF1000F02D04FF0010C01E04FF046
:1008E000000C6344224604EBD27C4FEA6C0C03FB01
:1008F0000CF3DBB20093A7F12000C7B2002556E04D
:100900000C2C07D107EB47002B4901EB800010F8B6
:10091000059013E0102C05D1284800EB071010F8C3
:1009200005900BE0182C07D107EBC700244901EB19
:10093000800010F8059001E0BDE8F88F4FF0000A44
:100940002FE009F0800030B11E4802883146404651
:10095000FFF7D4FD07E00A9828B91B480288314602
:100960004046FFF7CBFD4FEA49604FEA1069701C23
:1009700086B216484088B04200DCDDE7A6EB0B00EB
:10098000A0420AD15E4608F101001FFA80F80F4824
:100990000088404500DCCFE706E00AF1010000F0E6
:1009A000FF0ABAF1080FCCDB00BF681CC5B2009883
:1009B0008542A5DB00BFBFE770190008E41D0008F1
:1009C000D423000814000020160000201800002086
:1009D0002DE9FF4F82B0064692461F46DDE90F48DB
:1009E0000020019000254DE0781B401EC1B20A2076
:1009F000FFF7FCFEBAFBF0F00A21B0FBF1F201FBBD
:100A00001209019850BB781EA84227DDB9F1000FEA
:100A100022D108F0800078B108F00100A34604EB71
:100A2000DB71491001FB0561009088B2234630223A
:100A30000399FFF739FF0EE008F00100A34604EB2D
:100A4000DB71491001FB0561009088B2234620222A
:100A50000399FFF729FF13E00120019008F001003E
:100A6000A34604EBDB71491001FB0561009088B2DD
:100A700009F13001CAB223460399FFF715FF00BF01
:100A8000681CC5B2BD42AFDB06B0BDE8F08F000008
:100A90000149088070470000FE07006C014908808A
:100AA000704700000008006C00F47F41024A11808A
:100AB00011460880704700000008006C08B520202F
:100AC000ADF8000010208DF8030003208DF802001F
:100AD0000121482000F06EF869460848FFF737FC0E
:100AE00069460748FFF733FC20210548FFF7BAFCA9
:100AF00020210248FFF7B6FC08BD0000000C0140B1
:100B00000018014000BFFEE77047000070B50021EB
:100B100000230F22C47804B3154C246804F4E06465
:100B2000C4F5E064210AC1F10403CA40447804FA20
:100B300003F184781440214309010E4C0678A15535
:100B4000047804F01F050124AC4005786D11AD0058
:100B500005F1E025C5F8004109E0047804F01F051F
:100B60000124AC40044D0678761145F8264070BD4E
:100B70000CED00E000E400E080E100E00249014308
:100B8000024A1160704700000000FA050CED00E019
:100B90007047000029B1064A52690243044B5A616A
:100BA00004E0034A52698243014B5A6170470000D6
:100BB0000010024029B1064A92690243044B9A612F
:100BC00004E0034A92698243014B9A617047000036
:100BD0000010024030B500210022002400232D4DDA
:100BE0006D6805F00C0121B1042905D0082923D135
:100BF00005E0294D056022E0274D05601FE0254DE9
:100C00006D6805F47012234D6D6805F4803402257B
:100C100005EB92421CB9214D554305600BE01D4D7B
:100C20006D6805F400351DB11C4D5543056002E0AB
:100C3000194D5543056002E0174D056000BF00BF28
:100C4000144D6D6805F0F0010909154D6B5C0568E0
:100C5000DD4045600F4D6D6805F4E061090A104DF7
:100C60006B5C4568DD4085600A4D6D6805F4605138
:100C7000C90A0B4D6B5C4568DD40C560054D6D686C
:100C800005F44041890B074D6B5CC568B5FBF3F576
:100C9000056130BD0010024000127A0000093D00DD
:100CA0000000002010000020704710B500F002F88E
:100CB00010BD00000CB50020019000903348006882
:100CC00040F480303149086000BF3048006800F4CB
:100CD000003000900198401C0190009818B90198CC
:100CE000B0F5A06FF1D12948006800F4003010B1D0
:100CF0000120009001E0002000900098012843D1DD
:100D00002348006840F01000214908600846006848
:100D100020F0030008600846006840F00200086008
:100D20001A484068194948600846406848600846C3
:100D3000406840F4806048600846406820F47C10B9
:100D400048600846406840F4E8104860084600687B
:100D500040F08070086000BF0C48006800F0007030
:100D60000028F9D00948406820F00300074948608E
:100D70000846406840F00200486000BF03484068F1
:100D800000F00C000828F9D10CBD00000010024052
:100D900000200240042808D14FF0E021096941F009
:100DA00004014FF0E022116107E04FF0E0210969F2
:100DB00021F004014FF0E0221161704770470000FC
:100DC00010B504466FF00400FFF7E4FFE11704EBF1
:100DD0005171C910074A11601046006800EB4001CC
:100DE000C1EBC0104FF6FF7101EAC0000249088054
:100DF00010BD0000200000202400002010B5134882
:100E0000006840F001001149086008464068104938
:100E100008400E494860084600680E4908400B49E2
:100E200008600846006820F4802008600846406892
:100E300020F4FE0048604FF41F008860FFF735FF84
:100E40004FF000600449086010BD0000001002402F
:100E50000000FFF8FFFFF6FE08ED00E000B59DB0D2
:100E600001210802FFF796FE01200790002008905C
:100E70000F20099000200A900B900C904FF08050AA
:100E80000D9000200090019003200290002003901C
:100E9000049005904FF08050069006200E900020A0
:100EA0000F90109010201190002012901490139029
:100EB000159016904FF480501790002018904FF422
:100EC0008040199000201A9007A81B90CDF870D090
:100ED0000EA8FFF7C9F901210620FFF7ABF9074972
:100EE00007A000F02FFB0549891C08A000F02AFB91
:100EF00002490AA000F026FB1DB000BDFE07006CF1
:100F0000434D44B5D8D6B725780D0A004441544125
:100F1000B5D8D6B725780D0A00000000CAD7B5D8D5
:100F2000D6B7B5D8D6B725780D0A000008B5012088
:100F3000ADF8000010208DF8030003208DF80200AA
:100F400069461748FFF703FA4CF23370ADF800001A
:100F500018208DF8030003208DF80200694611481F
:100F6000FFF7F5F94FF68070ADF8000018208DF806
:100F7000030003208DF8020069460B48FFF7E7F9EC
:100F800041F20100ADF8000018208DF803000320A5
:100F90008DF8020069460548FFF7D9F908BD000041
:100FA000000C0140001401400018014000200140E5
:100FB00010B501210802FFF7EDFD01214FF4B470D7
:100FC000FFF7F8FDFFF7B2FFFFF748FF322000F010
:100FD00039FCD320FFF75CFDA1480088A149888037
:100FE0009F48008888809E480088888008468088BE
:100FF0004FF6FF7101EA00209A49888008468088F0
:10100000974909880843974988800846818896A0AF
:1010100000F098FACB20FFF73BFD3920FFF73EFDAB
:101020002C20FFF73BFD0020FFF738FD3420FFF7B1
:1010300035FD0220FFF732FDCF20FFF729FD00200C
:10104000FFF72CFDA220FFF729FDF020FFF726FD7A
:10105000E820FFF71DFD8420FFF720FD1120FFF79A
:101060001DFD7A20FFF71AFDEA20FFF711FD66202B
:10107000FFF714FD0020FFF711FDED20FFF708FD3D
:101080005520FFF70BFD0120FFF708FD2320FFF798
:1010900005FD0120FFF702FDF720FFF7F9FC2020F6
:1010A000FFF7FCFCC020FFF7F3FC1C20FFF7F6FC69
:1010B000C120FFF7EDFC1320FFF7F0FCC520FFF780
:1010C000E7FC2320FFF7EAFC3F20FFF7E7FCC720FF
:1010D000FFF7DEFCA520FFF7E1FCB120FFF7D8FC0D
:1010E0000020FFF7DBFC1720FFF7D8FC3A20FFF7C2
:1010F000CFFC5520FFF7D2FCB620FFF7C9FC0A2031
:10110000FFF7CCFCA220FFF7C9FC2720FFF7C6FCA5
:101110000020FFF7C3FC3620FFF7BAFC0820FFF7DA
:10112000BDFCF220FFF7B4FC0220FFF7B7FC26203D
:10113000FFF7AEFC0120FFF7B1FCE020FFF7A8FCB1
:101140000F20FFF7ABFC1420FFF7A8FC1320FFF7DC
:10115000A5FC0C20FFF7A2FC0E20FFF79FFC05204A
:10116000FFF79CFC4520FFF799FC8520FFF796FCD4
:101170003620FFF793FC0920FFF790FC1420FFF7BF
:101180008DFC0520FFF78AFC0920FFF787FC032070
:10119000FFF784FC0020FFF781FCE120FFF778FCDB
:1011A0000020FFF77BFC2420FFF778FC2620FFF7C8
:1011B00075FC0320FFF772FC0F20FFF76FFC042083
:1011C000FFF76CFC3F20FFF769FC1420FFF766FC7B
:1011D0005220FFF763FC0420FFF760FC1020FFF7AC
:1011E0005DFC0E20FFF75AFC3820FFF757FC392032
:1011F000FFF754FC0F20FFF751FC2A20FFF748FCB3
:101200000020FFF74BFC0020FFF748FC0020FFF711
:1012100045FCEF20FFF742FC2B20FFF739FC0020B4
:10122000FFF73CFC0020FFF739FC0120FFF736FCFC
:101230003F20FFF733FC1120FFF72AFC782000F055
:1012400001FB2920FFF724FC0020FFF733F94FF6BC
:10125000FF70FFF70BF901200749086010BD00007F
:101260000008006C18000020204C43442049443AF8
:1012700025780D0A000000008081214210B540F25F
:1012800025510C4800F03AF8012812D1094800F025
:10129000F1F8C4B22146074800F0F1F800BF402140
:1012A000044800F01EF80128F9D14021014800F05F
:1012B00003F810BD0038014001F40072B2F5007F60
:1012C00000D100BFCA430280704721B1828942F435
:1012D0000052828104E082894DF6FF731A408281B8
:1012E000704702460020B1F5007F00D100BF13888F
:1012F0000B400BB1012000E00020704770B50246A2
:10130000002400230025002040F66A16B14200D1D7
:1013100000BFC1F3421501F01F03012606FA03F3D3
:10132000012D02D19689334006E0022D02D1168AA2
:10133000334001E0968A33400C12012606FA04F489
:101340001688344013B10CB1012000E0002070BDBC
:10135000F0B50346002400260025002040F66A1759
:10136000B94200D100BF1846C1F3421401F01F0674
:10137000012707FA06F5012C01D10C3004E0022CFC
:1013800001D1103000E014301AB107682F43076014
:1013900002E00768AF430760F0BD00002DE9F047A9
:1013A00086B005460E460024A24600BFA14600278F
:1013B000B08900B100BF2F462C8A4CF6FF70044064
:1013C000F08804432C82AC894EF6F3100440B088B8
:1013D00031890843718908430443AC81AC8A4FF6D4
:1013E000FF400440B0890443AC8201A8FFF7F2FB40
:1013F0001F48874202D1DDF810A001E0DDF80CA003
:10140000A88900F4004040B10AEBCA0000EB0A10C2
:1014100031684900B0FBF1F807E00AEBCA0000EBC5
:101420000A1031688900B0FBF1F86420B8FBF0F0D5
:1014300004012009642101FB1089A88900F40040FF
:1014400040B1322000EBC900B0FBF1F000F0070022
:10145000044308E0322000EB09106421B0FBF1F0F6
:1014600000F00F0004432C8106B0BDE8F0870000B7
:101470000038014001468888C0F308007047C1F376
:1014800008028280704700BFFEE7000010B586B0FA
:10149000044601218803FFF78DFB01210420FFF79B
:1014A00089FB4FF40070ADF8140003208DF816008E
:1014B00018208DF8170005A92048FEF748FF4FF4C3
:1014C0008060ADF8140003208DF8160004208DF81C
:1014D000170005A91948FEF73AFF01940020ADF85E
:1014E00010000C20ADF80E000020ADF80C00ADF897
:1014F0000A00ADF8080001A91148FFF74FFF2520A9
:101500008DF8000001208DF8030003208DF8010004
:101510008DF802006846FFF7F9FA01210848FFF745
:10152000D4FE40210648FFF7C7FE012240F22551B4
:101530000348FFF70DFF06B010BD00000008014092
:10154000003801400FB4054B10B503A9044A0298B6
:1015500000F018F810BC5DF814FB000091180008AA
:101560002800002002E008C8121F08C1002AFAD192
:1015700070477047002001E001C1121F002AFBD113
:10158000704700002DE9FF4F8DB09B460F46044683
:10159000002606E025280BD05A460F999047641C78
:1015A000761C20780028F5D111B03046BDE8F08FC8
:1015B0000025A8460122984900E0054314F8013FA0
:1015C000203B02FA03F00842F7D120782E2817D1E9
:1015D00014F8010F45F004052A280ED06FF02F02F1
:1015E0002078A0F1300109290AD808EB880102EB24
:1015F000410100EB0108641CF2E757F8048B641CFE
:1016000020786C280DD004DC4C2812D06A2811D127
:1016100004E074280DD07A280CD10AE045F40015B6
:1016200007E0617845F48015814202D1641C05F51C
:101630008015641C2278692A45D008DC002AB3D0C2
:10164000582A69D0632A10D0642A08D13BE0702A56
:1016500067D0732A13D0752A5CD0782A5CD01046E4
:101660005A460F999047761CD3E017F8040B8DF873
:10167000000000208DF80100E946012003E057F842
:10168000049B4FF0FF3069074FF0000501D40AE0DA
:101690006D1C45450DDA8542FADB19F80510002965
:1016A000F6D106E06D1C8542FCDB19F80510002917
:1016B000F8D12E4404E019F8010B5A460F999047CF
:1016C0006D1EF8D2A5E00A200021CDE90801C5F37E
:1016D000025002280DD001CFC117031E71F1000383
:1016E0000DDA4FF0000CD0EB0C006CEB01012D2358
:1016F00008E0FF1D27F00707F7E80201EDE72B05DB
:1017000004D52B238DF8283001233BE0EB0739D09B
:101710002023F7E70A2000E010200021CDE908018E
:1017200007E01020002145F00405CDE908014FF045
:101730000808C5F3025002280FD001CF00214FF056
:10174000000A2B071FD5702A0DD0DDE908C38CF0E5
:10175000100C5CEA030C0CD015E0FF1D27F0070706
:10176000F7E80201EBE740228DF828204FF0010A4C
:101770000BE050EA010306D030238DF828308DF8B5
:10178000292002239A46582A04D024A20DF12009C8
:101790000B9209E026A2F9E7DDE90823FEF7E4FC55
:1017A0000B9B9B5C09F8013D50EA0102F4D1ADEBC3
:1017B000090020300890680701D44FF0010808990B
:1017C000884502DDA8EB010000E0002080460025EE
:1017D00006E00AA85A46405D0F9990476D1C761C9A
:1017E0005545F6DB04E030205A460F999047761CA9
:1017F000B8F10001A8F10108F5DC05E019F8010BCA
:101800005A460F999047761C0899481E089000295F
:10181000F4DC641CC5E600000928010030313233D5
:10182000343536373839616263646566000000001C
:101830003031323334353637383941424344454606
:10184000000000000146114A12884A434FF0E0238D
:101850005A6100229A611A46126942F001021A6125
:1018600000BF4FF0E022106900F001021AB100F44D
:101870008032002AF5D04FF0E022126922F00102F6
:101880004FF0E0231A6100229A6170472400002083
:1018900070B504460D46E1B20548FFF7F0FD00BF04
:1018A00080210348FFF71DFD0028F9D0204670BDB8
:1018B000003801401CB500244FF4A060FFF75EF92A
:1018C000FFF7FCF84FF41650FFF7E0FD4820FFF754
:1018D00077FAFFF76DFB20A0FFF734FE4FF61F00ED
:1018E000204908804FF6E0709623F02219460090B8
:1018F0006420FEF769FE1F224FF496717820FEF7F0
:1019000033FF96237822C8213C20FEF7C3FE3C22F9
:10191000A0217820FEF7DCFE812018210723124A3F
:10192000CDE9001014211E20FFF752F812E0601CD0
:10193000C4B2142094FBF0F100FB114038B90B48FD
:10194000006808B9012000E00020084908600A206A
:10195000FFF778FFEBE70000CFB5CDB3C6F4B6AF25
:101960000D0A00001400002053F826009481214243
:101970000000000000000000000000000000000067
:101980003F40000000000000000030004000300038
:101990004000000009000BC03D000BC03D000900E5
:1019A00018C024407FE0224031800000180024C08D
:1019B0001B000D803240018003801C4027401C80AA
:1019C0000740004010006000000000000000000020
:1019D0000000000000001F80204040200000402048
:1019E00020401F8000000000090006001F80060044
:1019F00009000000040004003F800400040000000F
:101A0000001000600000000000000000040004005E
:101A1000040004000400000000000040000000007A
:101A200000000000002001C0060038004000000057
:101A30001F802040204020401F80000000001040F8
:101A40003FC000400000000018C021402240244058
:101A50001840000010802040244024401B800000DB
:101A600002000D0011003FC0014000003C802440F6
:101A700024402440238000001F8024402440344020
:101A8000038000003000200027C038002000000044
:101A90001B802440244024401B8000001C0022C0E6
:101AA000224022401F80000000000000084000008B
:101AB00000000000000000000460000000000000C2
:101AC000000004000A0011002080404009000900C5
:101AD00009000900090000000000404020801100BA
:101AE0000A00040018002000234024001800000011
:101AF0001F802040274029401F400000004007C0B1
:101B000039000F0001C0004020403FC02440244065
:101B10001B8000001F8020402040204030800000BB
:101B200020403FC0204020401F80000020403FC098
:101B300024402E4030C0000020403FC024402E00F2
:101B4000300000000F00108020402240338002004F
:101B500020403FC0040004003FC0204020402040FF
:101B60003FC02040204000000060202020203FC0D7
:101B70002000200020403FC024400B0030C0204007
:101B800020403FC020400040004000C03FC03C001B
:101B900003C03C003FC0000020403FC00C40230079
:101BA0003FC020001F802040204020401F800000B8
:101BB00020403FC024402400180000001F80214026
:101BC000214020E01FA0000020403FC0244026000C
:101BD00019C0004018C02440244022403180000039
:101BE000300020403FC020403000000020003F80F7
:101BF000004000403F80200020003E0001C0070060
:101C000038002000380007C03C0007C03800000042
:101C1000204039C0060039C0204000002000384074
:101C200007C0384020000000304021C02640384026
:101C300020C00000000000007FE0402040200000A5
:101C4000000070000C0003800040000000004020F5
:101C500040207FE000000000000020004000200045
:101C60000000000000100010001000100010001014
:101C700000000000400000000000000000000280A2
:101C80000540054003C0004020003FC00440044020
:101C90000380000000000380044004400640000070
:101CA00000000380044024403FC000400000038047
:101CB0000540054003400000000004401FC02440D0
:101CC00024402000000002E005500550065004208A
:101CD00020403FC00440040003C000400000044016
:101CE00027C000400000000000100010041027E092
:101CF0000000000020403FC00140070004C0044035
:101D0000204020403FC000400040000007C00400C9
:101D100007C0040003C00000044007C004400400E2
:101D200003C0004000000380044004400380000022
:101D3000041007F0045004400380000000000380FA
:101D40000440045007F00010044007C002400400A3
:101D500004000000000006400540054004C00000EB
:101D6000000004001F8004400040000004000780C1
:101D70000040044007C000400400070004C0018088
:101D800006000400060001C0070001C006000000B4
:101D9000044006C0010006C0044000000410071003
:101DA00004E00180060004000000044005C0064075
:101DB000044000000000000004007BE04020000020
:101DC000000000000000FFF00000000000004020C4
:101DD0007BE0040000000000400080004000200084
:101DE0002000400000000000000000000000000093
:101DF000000000000000000000001FCC000C0000EC
:101E00000000000000000800300060000800300002
:101E100060000000022003FC1E20022003FC1E20A4
:101E20000220000000000E1811043FFF10840C78FF
:101E3000000000000F0010840F3800C007781884DD
:101E40000078000000780F8410C411240E9800E47C
:101E50000084000808006800700000000000000016
:101E60000000000000000000000007E01818200437
:101E700040020000000040022004181807E00000A3
:101E8000000000000240024001800FF0018002408B
:101E9000024000000080008000800FF80080008079
:101EA000008000000001000D000E00000000000096
:101EB00000000000000000800080008000800080A2
:101EC000008000800000000C000C000000000000FA
:101ED00000000000000000060018006001800600FD
:101EE00018002000000007F008081004100408087B
:101EF00007F000000000080408041FFC00040004B0
:101F00000000000000000E0C101410241044118476
:101F10000E0C000000000C181004110411041288AB
:101F20000C700000000000E00320042408241FFCC3
:101F30000024000000001F98108411041104108870
:101F400010700000000007F00888110411041888C0
:101F50000070000000001C00100010FC13001C00AA
:101F60001000000000000E38114410841084114449
:101F70000E38000000000700088C10441044088848
:101F800007F00000000000000000030C030C00003C
:101F90000000000000000000000101060000000039
:101FA000000000000000008001400220041008082A
:101FB0001004000002200220022002200220022041
:101FC0000220000000001004080804100220014054
:101FD0000080000000000E001200100C106C108039
:101FE0000F00000003E00C1813E4142417C40828A1
:101FF00007D000000004003C03C41C40074000E47C
:10200000001C000410041FFC1104110411040E88AC
:102010000070000003E00C181004100410041008F5
:102020001C10000010041FFC100410041004080809
:1020300007F0000010041FFC1104110417C4100461
:102040000818000010041FFC1104110017C0100034
:102050000800000003E00C181004100410441C7861
:102060000040000010041FFC1084008000801084D9
:102070001FFC10040000100410041FFC10041004C6
:102080000000000000030001100110011FFE1000FD
:102090001000000010041FFC110403801464181CBD
:1020A0001004000010041FFC1004000400040004CD
:1020B000000C000010041FFC1F0000FC1F001FFC90
:1020C0001004000010041FFC0C04030000E01018B2
:1020D0001FFC100007F00808100410041004080882
:1020E00007F0000010041FFC108410801080108086
:1020F0000F00000007F0081810241024101C080A14
:1021000007F2000010041FFC1104110011C011306F
:102110000E0C000400000E1C1104108410841044E6
:102120001C3800001800100010041FFC10041000E0
:102130001800000010001FF8100400040004100430
:102140001FF8100010001E0011E0001C007013802A
:102150001C0010001FC0103C00E01F0000E0103CFD
:102160001FC000001004180C163401C001C0163442
:10217000180C100410001C00130400FC13041C00B5
:10218000100000000804101C1064108413041C04C8
:10219000101800000000000000007FFE4002400216
:1021A00040020000000030000C0003800060001CB2
:1021B0000003000000004002400240027FFE0000D9
:1021C000000000000000000020004000400040002F
:1021D00020000000000100010001000100010001D9
:1021E000000100010000400040002000000000004D
:1021F0000000000000000098012401440144014453
:1022000000FC000410001FFC008801040104008889
:102210000070000000000070008801040104010447
:10222000008800000000007000880104010411080B
:102230001FFC0004000000F8014401440144014473
:1022400000C800000000010401040FFC1104110487
:1022500011001800000000D601290129012901C937
:102260000106000010041FFC0084010001000104AD
:1022700000FC000400000104190419FC000400041F
:10228000000000000000000300010101190119FE17
:102290000000000010041FFC0024004001B4010CE9
:1022A000010400000000100410041FFC00040004DE
:1022B00000000000010401FC0104010001FC010414
:1022C000010000FC010401FC008401000100010484
:1022D00000FC0004000000F80104010401040104F2
:1022E00000F80000010101FF0085010401040088DD
:1022F0000070000000000070008801040104010566
:1023000001FF00010104010401FC0084010401003B
:1023100001800000000000CC0124012401240124DC
:102320000198000000000100010007F80104010409
:1023300000000000010001F800040004000401088E
:1023400001FC0004010001800170000C001001601C
:102350000180010001F0010C003001C00030010CCF
:1023600001F0010000000104018C00740170018C77
:1023700001040000010101810171000E00180160DB
:102380000180010000000184010C0134014401843A
:10239000010C0000000000000000000001003EFCF5
:1023A000400240020000000000000000FFFF0000AB
:1023B000000000000000400240023EFC010000005E
:1023C000000000000000600080008000400040002D
:1023D00020002000000000000000000000000000BD
:1023E00000000000000000000000000000000000ED
:1023F00000000000000000000000000000000000DD
:10240000000000000000000F80380FFE380F8038F9
:1024100000000000000000000000000000000000BC
:1024200000000100000600000C0000380000310030
:10243000000600000C000038000030000000000022
:102440000000000061800067F807F98000618000EB
:1024500061800061800061800067F807F980006199
:102460008000000000000000000001C0E003E0F078
:102470000630080418081FFFFE040E080787F00343
:1024800081E000000000000001F000060C000404E0
:1024900008060C7001F9C0000E00003BE000EC18CB
:1024A000070808040C180003E00000000001E00029
:1024B00007F003F818041C0804170807E1D003C04C
:1024C000E00023B0003C08002008000010000000DD
:1024D0000000000100003100003200001C0000007C
:1024E00000000000000000000000000000000000EC
:1024F00000000000000000000000000000000000DC
:10250000000000007F0001FFC00780F00C001810E1
:102510000004200002000000000000200002100063
:10252000040C00180780F001FFC0007F00000000CD
:10253000000000000000000000000000000000009B
:102540004200006600006600003C0000180003FF27
:10255000C0001800003C0000660000660000420059
:10256000000000000800000800000800000800004B
:10257000080001FFC0000800000800000800000873
:1025800000000800000000000001000031000032DF
:1025900000001C000000000000000000000000001F
:1025A000000000000000000000000000080000081B
:1025B00000000800000800000800000800000800F3
:1025C00000080000080000080000000000000000F3
:1025D0000000000038000038000038000000000053
:1025E00000000000000000000000000000000000EB
:1025F00000000000000600001C00007000018000C8
:102600000E0000380000C0000700001C0000300071
:1026100000000000000000007F8001FFE0038070E8
:102620000600180400080400080600180380700162
:10263000FFE0007F800000000000000000000100BB
:102640000801000801000803FFF807FFF800000870
:102650000000080000080000000000000000000169
:10266000C03802C058040098040118040218040479
:1026700018061C1803F81801E0F80000000000001C
:1026800000000001C0E003C0F004000804080804D2
:10269000080806180803F41801E7F00001E000003C
:1026A00000000000000000000300000D0000110009
:1026B00000610000810803010807FFF80FFFF80020
:1026C00001080001080000000000000000E007FC15
:1026D000D006080806100806100806100806183864
:1026E000060FF00607C00000000000000000000018
:1026F0003F8001FFE0038430020818041008041032
:1027000008041008071810030FF00007C0000000AD
:1027100000000000000003C00007000006000006E3
:1027200000F80607F806180006E00007000006009B
:102730000000000000000001E1E003F7F0063410A3
:10274000041808041808040C08040C0806161803DA
:10275000F3F001C1E000000000000000F80003FCFD
:1027600030030638040208040208040208040410B6
:102770000308F001FFC0007F00000000000000001F
:102780000000000000000000000000007038007031
:102790003800703800000000000000000000000059
:1027A0000000000000000000000000000000000029
:1027B000301A00301C000000000000000000000083
:1027C00000000000000000000000000800001400ED
:1027D000002200004100008080010040020020042F
:1027E0000010080008000000000000002100002187
:1027F0000000210000210000210000210000210034
:102800000021000021000021000000000000000065
:1028100000000800080400100200200100400080B1
:1028200080004100002200001400000800000000A9
:1028300000000003C00004C00004000008003808C5
:102840000F380808380810000C300007E00003C0FB
:1028500000000000000000003F8000FFE0038070E7
:10286000020F1006708804C088048308047F880261
:10287000C09003012000FE40000008000018000185
:10288000F8003E0801C20007020007E20000FE0057
:10289000001FC80001F80000380000080400080705
:1028A000FFF807FFF80408080408080408080408EB
:1028B0000806180803F41801E7F00001E000000022
:1028C000000000003F8001FFE00380700200180458
:1028D0000008040008040008040010060020078017
:1028E000C000000004000807FFF807FFF804000814
:1028F000040008040008040018020010038070019E
:10290000FFE0007F8000000004000807FFF807FFD9
:10291000F8040808040808040808040808043E0825
:102920000400080600180100600000000400080709
:10293000FFF807FFF804080804080004080004086A
:1029400000043E00060000060000018000000000B8
:10295000000000003F8001FFE003807006001804C3
:1029600000080402080402080203F00783F00002D2
:102970000000020004000807FFF807FFF804080839
:10298000000800000800000800000800040808070C
:10299000FFF807FFF8040008000000000000040032
:1029A0000804000804000807FFF807FFF8040008FF
:1029B00004000804000800000000000000000000FF
:1029C00000060000070000010400010400010400EB
:1029D0000307FFFE07FFFC040000040000040000E2
:1029E00004000807FFF807FFF8040C0800180000AF
:1029F0003E0004C7800503C80600F8040038040040
:102A00001800000804000807FFF807FFF804000892
:102A1000000008000008000008000008000008008E
:102A2000001800006000000004000807FFF807809D
:102A30000807FC00007FC00003F80007C000780012
:102A400007800807FFF807FFF804000804000807DC
:102A5000FFF807000803C00000E000003800001E77
:102A6000000007000001C00400F007FFF8040000A8
:102A7000000000007F8001FFE00380700600180462
:102A8000000804000806001803003001FFE0007F82
:102A90008000000004000807FFF807FFF80404089E
:102AA000040400040400040400040400060C0003F1
:102AB000F80001F000000000000000007F8001FF2E
:102AC000E00380700600880400880400C806003C0B
:102AD00003003E01FFE6007F8400000004000807B9
:102AE000FFF807FFF8040808040800040C00040FAE
:102AF00000040BC00610F003F03801E008000008E5
:102B000000000001E0F803F030063010041808045B
:102B10001808040C08040C080206180207F00781C4
:102B2000E000000001800006000004000004000036
:102B300004000807FFF807FFF80400080400000479
:102B4000000006000001800004000007FFE007FF0E
:102B5000F004001800000800000800000800000849
:102B600000000804001007FFE00400000400000655
:102B7000000007E00007FE00041FE00001F800006D
:102B8000380001E0043E0007C00006000004000019
:102B900004000007E00007FFC0041FF80007C0079B
:102BA000F80007FF80043FF80007C004F8000700A2
:102BB0000004000000000004000806001807C078A8
:102BC00005F1C8003E00001F800463E80780F80696
:102BD0000018040008000000040000060000078040
:102BE0000007E008047C08001FF80007F800180838
:102BF00004E00807000006000004000000000001D7
:102C000000080600380400F80403E8040F08047CF8
:102C10000805F00807C0080700180400600000005D
:102C20000000000000000000000000000000003F65
:102C3000FFFE2000022000022000022000022000EF
:102C40000200000000000000000008000007000073
:102C500000C0000038000006000001C00000300085
:102C6000000E000001000000000000000000200035
:102C7000022000022000022000022000023FFFFE8E
:102C80000000000000000000000000000000000044
:102C900000000000000800001000003000002000CC
:102CA00000300000100000080000000000000000DC
:102CB000000001000001000001000001000001000F
:102CC00000010000010000010000010000010000FF
:102CD00001000001000000000000000000200000D2
:102CE00020000010000010000000000000000000A4
:102CF00000000000000000000000000000F00019CB
:102D0000F8001B18002208002608002408002410E0
:102D1000003FF8001FF80000080000180000000441
:102D2000000007FFF80FFFF000181800100800203F
:102D300008002008003018001FF0000FC00000003D
:102D40000000000007C0001FF0001830002008003D
:102D50002008002008003C08001C10000060000053
:102D6000000000000000000007C0001FF00038183D
:102D700000200800200800200804101007FFF80FAA
:102D8000FFF000001000000000000000000000073D
:102D9000C0001FF000123000221800220800220894
:102DA000003208001E10000E20000000000000008D
:102DB000200000200800200801FFF803FFF806208B
:102DC0000804200804200807200003000000000079
:102DD00000000000000E000E6E001FF30031B10075
:102DE00020B10020B1003191001F13002E1E0020E1
:102DF0000E00300000000004000807FFF80FFFF885
:102E0000001008002000002000002008003FF8000B
:102E10001FF8000008000000000000000000002073
:102E200008002008002008063FF8063FF8000008C8
:102E30000000080000080000000000000000000082
:102E4000000000000300000300200100200100201A
:102E500003063FFE063FFC000000000000000000EB
:102E600000000004000807FFF80FFFF800018800C9
:102E70000300002FC00038F80020380020080000B0
:102E80000800000000000000000004000804000822
:102E900004000807FFF80FFFF80000080000080012
:102EA0000008000000000000002008003FF8003F7C
:102EB000F8001008002000003FF8003FF80010085C
:102EC000002000003FF8003FF8000008000000006C
:102ED0002008003FF8003FF8001008001000002014
:102EE00000002008003FF8001FF800000800000064
:102EF0000000000007C0000FF0001830003008008C
:102F00002008002008003008001830000FF00007EB
:102F1000C0000000000000002001003FFF003FFF54
:102F2000001011002009002008002008003038009F
:102F30001FF0000FC00000000000000007C0001FCD
:102F4000F0003818002008002008002009001011A7
:102F5000001FFF003FFF00000100000000200800EC
:102F60002008002008003FF8003FF8000808001083
:102F700008002008002000003000003000000000A1
:102F8000000000000000000C78001E18003308004C
:102F900023080021080021880021980030F0003823
:102FA0006000000000000000200000200000200061
:102FB00000FFF003FFF800200800200800200800B0
:102FC0000030000000000000000000002000003F72
:102FD000F0007FF800001800000800000800201032
:102FE000003FF8007FF0000010000000000000002B
:102FF0002000003000003C00003F800023F0000073
:1030000078000070002380003C00003000002000A9
:10301000002000003C00003FE00023F80000E0003A
:103020002700003E00003FE00021F80001E0003EE4
:1030300000002000000000002008002008003838B0
:10304000003E680027800003C8002CF800383800D4
:1030500020180020080000000000000020000030C0
:1030600003003C01003F830023EC0000700023803C
:10307000003C0000200000200000000000000000D4
:1030800000000038080020380020F80023E8002F56
:1030900088003E080038080020180000700000007A
:1030A0000000000000000000000000000000000020
:1030B00008000014001FF7FC30000620000200008A
:1030C0000000000000000000000000000000000000
:1030D000000000000000FFFFFF00000000000000F3
:1030E00000000000000000000000000000002000C0
:1030F000023000061FF7FC0014000008000000006A
:1031000000000000000000000000000000000018A7
:10311000000060000040000040000020000010009F
:10312000000800000400000400000C000010000073
:10313000C6D50000000000E0380000783C00003CEC
:103140007800003C70C0001CE1E01FFFFFF0001C95
:10315000E3000E1CE7C0079CE78003DCEF0003DC04
:10316000EE0001DCFC60009CF9F07FFFFFF800003E
:10317000000001C00E0001FFFF0001C00E0001C0F1
:103180000E0001C00E0001FFFE0001C00E0001C0D4
:103190000E0001C00E0001FFFE0001C00E0001C0C4
:1031A0000E0000000000D6D0000000000007000064
:1031B0000007800000070000000700000007000073
:1031C000000701801FFFFFE01FFFFFE01E0701C097
:1031D0001E0701C01E0701C01E0701C01E0701C057
:1031E0001E0701C01FFFFFC01FFFFFC01E0701C059
:1031F0001C07018000070000000700000007000016
:1032000000070000000700000007000000070000A2
:10321000000700000007000000000000BFC600001B
:10322000000000000780003C07C001FC07803FE071
:10323000078039C1C78001C0E78001C0F78001C0A5
:10324000778001DE77807FFE078001C0078003C39F
:10325000C78003E1E78003F8F78007FCE7F00FDEA3
:1032600067F80FDC07F81FC0FF801DDFE78039CC4F
:10327000078071C0078061C0078001C0078001C05E
:10328000078001E0078001E0078001C0070000001F
:103290000000BCBC000000000380300003C03C0004
:1032A00003C03C0003C0380003C0380003C03860CE
:1032B00003F838F07FFFFFF003C0380003C0380088
:1032C00003C0380003DC39C003FFFFE007E383C01D
:1032D0003FC183C07FC1C3803BC1C78003C0EF0033
:1032E00003C0EF0003C07E0003C07C0003C07C006D
:1032F00003C0FE003BC3EF803F8787F80FBF03F892
:10330000077800E000000000C4EA0000000000C0F0
:10331000000001F0000001E0000003C000C003C095
:1033200001E007FFFFF00703C0000E03C0001E030B
:10333000C0003C03C3007303C78063FFFFC0038367
:10334000C0000383C0000383C0000383C000038365
:10335000C0600383C0F07FFFFFF80003C0000003DC
:10336000C0000003C0000003C0000003C000000351
:10337000C0000003C0000003C00000000000D4C271
:10338000000000000000000000E0070000FFFF80D8
:1033900000F0078000F0070000F0070000F00700D1
:1033A00000F0070000FFFF0000FFFF0000F0070033
:1033B00000F0070000F0070000F0070000E0070041
:1033C00000FFFF0000E0070000E0070000E007004A
:1033D00001E0070001C0070001C0070003800700EB
:1033E0000780F7000F007F001E001F0038001C0040
:1033F00000000000C8D5000000000000000003002D
:10340000030003FFFF8003FFFF80038007000380AA
:103410000700038007000380070003800700038084
:103420000700038007000380070003FFFF000380FD
:103430000700038007000380070003800700038064
:103440000700038007000380070003800700038054
:10345000070003FFFF0003800700038007000380CD
:1034600007000300000000000000D0C700000000BB
:10347000000000000380070003FFFF8003800700B7
:10348000038007000380070003FFFF00038007009D
:103490000380070003FFFF0003FFFF00038707000F
:1034A0000387C00003C7810003C7838007FFFFC0F5
:1034B000070780000F0780001E0786001C078F008B
:1034C0003BFFFF807007800000078000000780E05E
:1034D000000781F07FFFFFF80000000000000000FF
:1034E000C6DA0000000006000000079E0000079EEC
:1034F0007FF0079E7FF0079FF8F03FFFF8F01F9ED8
:1035000078F0079E78F0079E78F007FE7FF0079E20
:1035100078F0079E78F0079E70F007FE70F0079E27
:1035200070F0079E7FF0079FFFF03FFFF0F01190D3
:1035300070F003DCF0F003DEE0F0078FE0F00F0F37
:10354000E0F00E07C0F01C038FF0380F03E0201CE2
:1035500001C00000000000007835000800000020D5
:103560002C00000064150008A43500082C00002081
:1035700004040000741500080000000001020304A8
:103580000102030406070809020406080000FFFF01
:10359000000000000000000000000000000000002B
:0435A0000000000027
:0400000508000131BD
:00000001FF
