Component: ARM Compiler 5.06 update 6 (build 750) Tool: armlink [4d35ed]

==============================================================================

Section Cross References

    main.o(.text) refers to _printf_percent.o(.ARM.Collect$$_printf_percent$$00000000) for _printf_percent
    main.o(.text) refers to _printf_d.o(.ARM.Collect$$_printf_percent$$00000009) for _printf_d
    main.o(.text) refers to _printf_dec.o(.text) for _printf_int_dec
    main.o(.text) refers to tftlcd.o(.text) for LCD_ShowString
    main.o(.text) refers to os_flag.o(.text) for OSFlagPend
    main.o(.text) refers to noretval__2printf.o(.text) for __2printf
    main.o(.text) refers to key.o(.text) for KEY_Scan
    main.o(.text) refers to os_time.o(.text) for OSTimeDlyHMSM
    main.o(.text) refers to cpu_core.o(.text) for CPU_Init
    main.o(.text) refers to os_stat.o(.text) for OSStatTaskCPUUsageInit
    main.o(.text) refers to os_core.o(.text) for OSSchedRoundRobinCfg
    main.o(.text) refers to cpu_a.o(.text) for CPU_SR_Save
    main.o(.text) refers to os_task.o(.text) for OSTaskCreate
    main.o(.text) refers to delay.o(.text) for delay_init
    main.o(.text) refers to misc.o(.text) for NVIC_PriorityGroupConfig
    main.o(.text) refers to usart.o(.text) for uart_init
    main.o(.text) refers to led.o(.text) for LED_Init
    main.o(.text) refers to tftlcd.o(.data) for FRONT_COLOR
==============================================================================

Removing Unused input sections from the image.

    Removing sys.o(.emb_text), (6 bytes).
    Removing sys.o(.text), (12 bytes).
    Removing core_cm3.o(.emb_text), (32 bytes).
    Removing cpu_c.o(.text), (1916 bytes).
    Removing lib_math.o(.text), (128 bytes).
    Removing lib_math.o(.data), (4 bytes).
    Removing os_app_hooks.o(.text), (200 bytes).

7 unused section(s) (total 2298 bytes) removed from the image.

==============================================================================

Image Symbol Table

    Local Symbols

    Symbol Name                              Value     Ov Type        Size  Object(Section)

    ../clib/angel/boardlib.s                 0x00000000   Number         0  boardinit1.o ABSOLUTE
    ../clib/angel/boardlib.s                 0x00000000   Number         0  boardshut.o ABSOLUTE
    ../clib/angel/boardlib.s                 0x00000000   Number         0  boardinit3.o ABSOLUTE
    ../clib/angel/boardlib.s                 0x00000000   Number         0  boardinit2.o ABSOLUTE
    ../clib/angel/dczerorl2.s                0x00000000   Number         0  __dczerorl2.o ABSOLUTE
    ../clib/angel/handlers.s                 0x00000000   Number         0  __scatter_zi.o ABSOLUTE
    ../clib/angel/kernel.s                   0x00000000   Number         0  __rtentry4.o ABSOLUTE
    ../clib/angel/kernel.s                   0x00000000   Number         0  __rtentry2.o ABSOLUTE
    ../clib/angel/kernel.s                   0x00000000   Number         0  rtexit2.o ABSOLUTE
    ../clib/angel/kernel.s                   0x00000000   Number         0  __rtentry.o ABSOLUTE
    ../clib/angel/kernel.s                   0x00000000   Number         0  rtexit.o ABSOLUTE
    ../clib/angel/rt.s                       0x00000000   Number         0  aeabi_ldiv0.o ABSOLUTE
    ../clib/angel/rt.s                       0x00000000   Number         0  rt_raise.o ABSOLUTE
    ../clib/angel/rt.s                       0x00000000   Number         0  aeabi_ldiv0_sigfpe.o ABSOLUTE
    ../clib/angel/rt.s                       0x00000000   Number         0  rt_div0.o ABSOLUTE
    ../clib/angel/scatter.s                  0x00000000   Number         0  __scatter.o ABSOLUTE
    ../clib/angel/startup.s                  0x00000000   Number         0  __main.o ABSOLUTE
    ../clib/angel/sys.s                      0x00000000   Number         0  use_no_semi_2.o ABSOLUTE
    ../clib/angel/sys.s                      0x00000000   Number         0  indicate_semi.o ABSOLUTE
    ../clib/angel/sys.s                      0x00000000   Number         0  sys_stackheap_outer.o ABSOLUTE
    ../clib/angel/sys.s                      0x00000000   Number         0  use_no_semi.o ABSOLUTE
    ../clib/angel/sys.s                      0x00000000   Number         0  libspace.o ABSOLUTE
    ../clib/angel/sysapp.c                   0x00000000   Number         0  sys_command.o ABSOLUTE
    ../clib/angel/sysapp.c                   0x00000000   Number         0  sys_wrch.o ABSOLUTE
    ../clib/armsys.c                         0x00000000   Number         0  no_argv.o ABSOLUTE
    ../clib/armsys.c                         0x00000000   Number         0  argv_veneer.o ABSOLUTE
    ../clib/armsys.c                         0x00000000   Number         0  _get_argv_nomalloc.o ABSOLUTE
    ../clib/armsys.c                         0x00000000   Number         0  argv_veneer.o ABSOLUTE
    ../clib/heapalloc.c                      0x00000000   Number         0  hrguard.o ABSOLUTE
    ../clib/heapaux.c                        0x00000000   Number         0  heapauxi.o ABSOLUTE
    ../clib/libinit.s                        0x00000000   Number         0  libinit.o ABSOLUTE
    ../clib/libinit.s                        0x00000000   Number         0  libshutdown.o ABSOLUTE
    ../clib/libinit.s                        0x00000000   Number         0  libinit2.o ABSOLUTE
    ../clib/libinit.s                        0x00000000   Number         0  libshutdown2.o ABSOLUTE
    ../clib/longlong.s                       0x00000000   Number         0  lludivv7m.o ABSOLUTE
    ../clib/printf.c                         0x00000000   Number         0  _printf_dec.o ABSOLUTE
    ../clib/printf.c                         0x00000000   Number         0  _printf_hex_int_ll_ptr.o ABSOLUTE
    ../clib/printf.c                         0x00000000   Number         0  _printf_hex_ll.o ABSOLUTE
    ../clib/printf.c                         0x00000000   Number         0  _printf_intcommon.o ABSOLUTE
    ../clib/printf.c                         0x00000000   Number         0  __printf.o ABSOLUTE
    ../clib/printf.c                         0x00000000   Number         0  _printf_hex_int.o ABSOLUTE
    ../clib/printf.c                         0x00000000   Number         0  noretval__2printf.o ABSOLUTE
    ../clib/printf.c                         0x00000000   Number         0  __2printf.o ABSOLUTE
    ../clib/printf.c                         0x00000000   Number         0  _printf_hex_int_ll.o ABSOLUTE
    ../clib/printf.c                         0x00000000   Number         0  _printf_hex_ptr.o ABSOLUTE
    ../clib/printf.c                         0x00000000   Number         0  _printf_hex_int_ptr.o ABSOLUTE
    ../clib/printf.c                         0x00000000   Number         0  _printf_hex_ll_ptr.o ABSOLUTE
    ../clib/printf.c                         0x00000000   Number         0  __printf_ss_wp.o ABSOLUTE
    ../clib/printf.c                         0x00000000   Number         0  __printf_flags_ss_wp.o ABSOLUTE
    ../clib/printf.c                         0x00000000   Number         0  __printf_flags_wp.o ABSOLUTE
    ../clib/printf.c                         0x00000000   Number         0  __printf_wp.o ABSOLUTE
    ../clib/printf.c                         0x00000000   Number         0  __printf_flags_ss.o ABSOLUTE
    ../clib/printf.c                         0x00000000   Number         0  _printf_char_common.o ABSOLUTE
    ../clib/printf.c                         0x00000000   Number         0  __printf_nopercent.o ABSOLUTE
    ../clib/printf.c                         0x00000000   Number         0  __printf_ss.o ABSOLUTE
    ../clib/printf.c                         0x00000000   Number         0  __printf_flags.o ABSOLUTE
    ../clib/printf.c                         0x00000000   Number         0  _printf_char_file.o ABSOLUTE
    ../clib/printf_percent.s                 0x00000000   Number         0  _printf_percent_end.o ABSOLUTE
    ../clib/printf_percent.s                 0x00000000   Number         0  _printf_percent.o ABSOLUTE
    ../clib/printf_percent.s                 0x00000000   Number         0  _printf_d.o ABSOLUTE
    ../clib/printf_percent.s                 0x00000000   Number         0  _printf_x.o ABSOLUTE
    ../clib/signal.c                         0x00000000   Number         0  defsig_fpe_inner.o ABSOLUTE
    ../clib/signal.c                         0x00000000   Number         0  defsig_rtmem_outer.o ABSOLUTE
    ../clib/signal.c                         0x00000000   Number         0  defsig_cppl_inner.o ABSOLUTE
    ../clib/signal.c                         0x00000000   Number         0  defsig_pvfn_inner.o ABSOLUTE
    ../clib/signal.c                         0x00000000   Number         0  defsig_stak_inner.o ABSOLUTE
    ../clib/signal.c                         0x00000000   Number         0  defsig_segv_inner.o ABSOLUTE
    ../clib/signal.c                         0x00000000   Number         0  defsig_other.o ABSOLUTE
    ../clib/signal.c                         0x00000000   Number         0  defsig_exit.o ABSOLUTE
    ../clib/signal.c                         0x00000000   Number         0  defsig_abrt_inner.o ABSOLUTE
    ../clib/signal.c                         0x00000000   Number         0  __raise.o ABSOLUTE
    ../clib/signal.c                         0x00000000   Number         0  defsig_rtmem_formal.o ABSOLUTE
    ../clib/signal.c                         0x00000000   Number         0  defsig_rtred_inner.o ABSOLUTE
    ../clib/signal.c                         0x00000000   Number         0  defsig_general.o ABSOLUTE
    ../clib/signal.c                         0x00000000   Number         0  defsig_rtmem_inner.o ABSOLUTE
    ../clib/signal.c                         0x00000000   Number         0  defsig_fpe_formal.o ABSOLUTE
    ../clib/signal.c                         0x00000000   Number         0  defsig_fpe_outer.o ABSOLUTE
    ../clib/signal.s                         0x00000000   Number         0  defsig.o ABSOLUTE
    ../clib/stdio.c                          0x00000000   Number         0  ferror.o ABSOLUTE
    ../clib/stdio.c                          0x00000000   Number         0  ferror_locked.o ABSOLUTE
    ../clib/stdlib.c                         0x00000000   Number         0  exit.o ABSOLUTE
    ../fplib/fpinit.s                        0x00000000   Number         0  fpinit.o ABSOLUTE
    ..\CORE\core_cm3.c                       0x00000000   Number         0  core_cm3.o ABSOLUTE
    ..\CORE\startup_stm32f10x_hd.s           0x00000000   Number         0  startup_stm32f10x_hd.o ABSOLUTE
    ..\FWLIB\STM32F10x_FWLib\src\misc.c      0x00000000   Number         0  misc.o ABSOLUTE
    ..\FWLIB\STM32F10x_FWLib\src\stm32f10x_fsmc.c 0x00000000   Number         0  stm32f10x_fsmc.o ABSOLUTE
    ..\FWLIB\STM32F10x_FWLib\src\stm32f10x_gpio.c 0x00000000   Number         0  stm32f10x_gpio.o ABSOLUTE
    ..\FWLIB\STM32F10x_FWLib\src\stm32f10x_rcc.c 0x00000000   Number         0  stm32f10x_rcc.o ABSOLUTE
    ..\FWLIB\STM32F10x_FWLib\src\stm32f10x_usart.c 0x00000000   Number         0  stm32f10x_usart.o ABSOLUTE
    ..\HARDWARE\KEY\key.c                    0x00000000   Number         0  key.o ABSOLUTE
    ..\HARDWARE\LED\led.c                    0x00000000   Number         0  led.o ABSOLUTE
    ..\HARDWARE\tftlcd\tftlcd.c              0x00000000   Number         0  tftlcd.o ABSOLUTE
    ..\SYSTEM\delay\delay.c                  0x00000000   Number         0  delay.o ABSOLUTE
    ..\SYSTEM\sys\sys.c                      0x00000000   Number         0  sys.o ABSOLUTE
    ..\SYSTEM\usart\usart.c                  0x00000000   Number         0  usart.o ABSOLUTE
    ..\UCOSIII\UCOS_BSP\bsp.c                0x00000000   Number         0  bsp.o ABSOLUTE
    ..\UCOSIII\uC-CPU\ARM-Cortex-M3\RealView\cpu_a.asm 0x00000000   Number         0  cpu_a.o ABSOLUTE
    ..\UCOSIII\uC-CPU\ARM-Cortex-M3\RealView\cpu_c.c 0x00000000   Number         0  cpu_c.o ABSOLUTE
    ..\UCOSIII\uC-CPU\cpu_core.c             0x00000000   Number         0  cpu_core.o ABSOLUTE
    ..\UCOSIII\uC-LIB\Ports\ARM-Cortex-M3\RealView\lib_mem_a.asm 0x00000000   Number         0  lib_mem_a.o ABSOLUTE
    ..\UCOSIII\uC-LIB\lib_ascii.c            0x00000000   Number         0  lib_ascii.o ABSOLUTE
    ..\UCOSIII\uC-LIB\lib_math.c             0x00000000   Number         0  lib_math.o ABSOLUTE
    ..\UCOSIII\uC-LIB\lib_mem.c              0x00000000   Number         0  lib_mem.o ABSOLUTE
    ..\UCOSIII\uC-LIB\lib_str.c              0x00000000   Number         0  lib_str.o ABSOLUTE
    ..\UCOSIII\uCOS-III\Ports\ARM-Cortex-M3\Generic\RealView\os_cpu_a.s 0x00000000   Number         0  os_cpu_a.o ABSOLUTE
    ..\UCOSIII\uCOS-III\Ports\ARM-Cortex-M3\Generic\RealView\os_cpu_c.c 0x00000000   Number         0  os_cpu_c.o ABSOLUTE
    ..\UCOSIII\uCOS-III\Source\os_cfg_app.c  0x00000000   Number         0  os_cfg_app.o ABSOLUTE
    ..\UCOSIII\uCOS-III\Source\os_core.c     0x00000000   Number         0  os_core.o ABSOLUTE
    ..\UCOSIII\uCOS-III\Source\os_dbg.c      0x00000000   Number         0  os_dbg.o ABSOLUTE
    ..\UCOSIII\uCOS-III\Source\os_flag.c     0x00000000   Number         0  os_flag.o ABSOLUTE
    ..\UCOSIII\uCOS-III\Source\os_int.c      0x00000000   Number         0  os_int.o ABSOLUTE
    ..\UCOSIII\uCOS-III\Source\os_mem.c      0x00000000   Number         0  os_mem.o ABSOLUTE
    ..\UCOSIII\uCOS-III\Source\os_msg.c      0x00000000   Number         0  os_msg.o ABSOLUTE
    ..\UCOSIII\uCOS-III\Source\os_mutex.c    0x00000000   Number         0  os_mutex.o ABSOLUTE
    ..\UCOSIII\uCOS-III\Source\os_pend_multi.c 0x00000000   Number         0  os_pend_multi.o ABSOLUTE
    ..\UCOSIII\uCOS-III\Source\os_prio.c     0x00000000   Number         0  os_prio.o ABSOLUTE
    ..\UCOSIII\uCOS-III\Source\os_q.c        0x00000000   Number         0  os_q.o ABSOLUTE
    ..\UCOSIII\uCOS-III\Source\os_sem.c      0x00000000   Number         0  os_sem.o ABSOLUTE
    ..\UCOSIII\uCOS-III\Source\os_stat.c     0x00000000   Number         0  os_stat.o ABSOLUTE
    ..\UCOSIII\uCOS-III\Source\os_task.c     0x00000000   Number         0  os_task.o ABSOLUTE
    ..\UCOSIII\uCOS-III\Source\os_tick.c     0x00000000   Number         0  os_tick.o ABSOLUTE
    ..\UCOSIII\uCOS-III\Source\os_time.c     0x00000000   Number         0  os_time.o ABSOLUTE
    ..\UCOSIII\uCOS-III\Source\os_tmr.c      0x00000000   Number         0  os_tmr.o ABSOLUTE
    ..\UCOSIII\uCOS-III\Source\os_var.c      0x00000000   Number         0  os_var.o ABSOLUTE
    ..\UCOSIII\uCOS_CONFIG\os_app_hooks.c    0x00000000   Number         0  os_app_hooks.o ABSOLUTE
    ..\\CORE\\core_cm3.c                     0x00000000   Number         0  core_cm3.o ABSOLUTE
    ..\\SYSTEM\\sys\\sys.c                   0x00000000   Number         0  sys.o ABSOLUTE
    dc.s                                     0x00000000   Number         0  dc.o ABSOLUTE
    main.c                                   0x00000000   Number         0  main.o ABSOLUTE
    stm32f10x_it.c                           0x00000000   Number         0  stm32f10x_it.o ABSOLUTE
    system_stm32f10x.c                       0x00000000   Number         0  system_stm32f10x.o ABSOLUTE
    RESET                                    0x08000000   Section      304  startup_stm32f10x_hd.o(RESET)
    !!!main                                  0x08000130   Section        8  __main.o(!!!main)
    !!!scatter                               0x08000138   Section       52  __scatter.o(!!!scatter)
    !!dczerorl2                              0x0800016c   Section       90  __dczerorl2.o(!!dczerorl2)
    !!handler_zi                             0x080001c8   Section       28  __scatter_zi.o(!!handler_zi)
    .ARM.Collect$$_printf_percent$$00000000  0x080001e4   Section        0  _printf_percent.o(.ARM.Collect$$_printf_percent$$00000000)
    .ARM.Collect$$_printf_percent$$00000009  0x080001e4   Section        6  _printf_d.o(.ARM.Collect$$_printf_percent$$00000009)
    .ARM.Collect$$_printf_percent$$0000000C  0x080001ea   Section        6  _printf_x.o(.ARM.Collect$$_printf_percent$$0000000C)
    .ARM.Collect$$_printf_percent$$00000017  0x080001f0   Section        4  _printf_percent_end.o(.ARM.Collect$$_printf_percent$$00000017)
    .ARM.Collect$$libinit$$00000000          0x080001f4   Section        2  libinit.o(.ARM.Collect$$libinit$$00000000)
    .ARM.Collect$$libinit$$00000002          0x080001f6   Section        0  libinit2.o(.ARM.Collect$$libinit$$00000002)
    .ARM.Collect$$libinit$$00000004          0x080001f6   Section        0  libinit2.o(.ARM.Collect$$libinit$$00000004)
    .ARM.Collect$$libinit$$0000000A          0x080001f6   Section        0  libinit2.o(.ARM.Collect$$libinit$$0000000A)
    .ARM.Collect$$libinit$$0000000C          0x080001f6   Section        0  libinit2.o(.ARM.Collect$$libinit$$0000000C)
    .ARM.Collect$$libinit$$0000000E          0x080001f6   Section        0  libinit2.o(.ARM.Collect$$libinit$$0000000E)
    .ARM.Collect$$libinit$$00000011          0x080001f6   Section        0  libinit2.o(.ARM.Collect$$libinit$$00000011)
    .ARM.Collect$$libinit$$00000013          0x080001f6   Section        0  libinit2.o(.ARM.Collect$$libinit$$00000013)
    .ARM.Collect$$libinit$$00000015          0x080001f6   Section        0  libinit2.o(.ARM.Collect$$libinit$$00000015)
    .ARM.Collect$$libinit$$00000017          0x080001f6   Section        0  libinit2.o(.ARM.Collect$$libinit$$00000017)
    .ARM.Collect$$libinit$$00000019          0x080001f6   Section        0  libinit2.o(.ARM.Collect$$libinit$$00000019)
    .ARM.Collect$$libinit$$0000001B          0x080001f6   Section        0  libinit2.o(.ARM.Collect$$libinit$$0000001B)
    .ARM.Collect$$libinit$$0000001D          0x080001f6   Section        0  libinit2.o(.ARM.Collect$$libinit$$0000001D)
    .ARM.Collect$$libinit$$0000001F          0x080001f6   Section        0  libinit2.o(.ARM.Collect$$libinit$$0000001F)
    .ARM.Collect$$libinit$$00000021          0x080001f6   Section        0  libinit2.o(.ARM.Collect$$libinit$$00000021)
    .ARM.Collect$$libinit$$00000023          0x080001f6   Section        0  libinit2.o(.ARM.Collect$$libinit$$00000023)
    .ARM.Collect$$libinit$$00000025          0x080001f6   Section        0  libinit2.o(.ARM.Collect$$libinit$$00000025)
    .ARM.Collect$$libinit$$0000002C          0x080001f6   Section        0  libinit2.o(.ARM.Collect$$libinit$$0000002C)
    .ARM.Collect$$libinit$$0000002E          0x080001f6   Section        0  libinit2.o(.ARM.Collect$$libinit$$0000002E)
    .ARM.Collect$$libinit$$00000030          0x080001f6   Section        0  libinit2.o(.ARM.Collect$$libinit$$00000030)
    .ARM.Collect$$libinit$$00000032          0x080001f6   Section        0  libinit2.o(.ARM.Collect$$libinit$$00000032)
    .ARM.Collect$$libinit$$00000033          0x080001f6   Section        2  libinit2.o(.ARM.Collect$$libinit$$00000033)
    .ARM.Collect$$libshutdown$$00000000      0x080001f8   Section        2  libshutdown.o(.ARM.Collect$$libshutdown$$00000000)
    .ARM.Collect$$libshutdown$$00000002      0x080001fa   Section        0  libshutdown2.o(.ARM.Collect$$libshutdown$$00000002)
    .ARM.Collect$$libshutdown$$00000004      0x080001fa   Section        0  libshutdown2.o(.ARM.Collect$$libshutdown$$00000004)
    .ARM.Collect$$libshutdown$$00000007      0x080001fa   Section        0  libshutdown2.o(.ARM.Collect$$libshutdown$$00000007)
    .ARM.Collect$$libshutdown$$0000000A      0x080001fa   Section        0  libshutdown2.o(.ARM.Collect$$libshutdown$$0000000A)
    .ARM.Collect$$libshutdown$$0000000C      0x080001fa   Section        0  libshutdown2.o(.ARM.Collect$$libshutdown$$0000000C)
    .ARM.Collect$$libshutdown$$0000000F      0x080001fa   Section        0  libshutdown2.o(.ARM.Collect$$libshutdown$$0000000F)
    .ARM.Collect$$libshutdown$$00000010      0x080001fa   Section        2  libshutdown2.o(.ARM.Collect$$libshutdown$$00000010)
    .ARM.Collect$$rtentry$$00000000          0x080001fc   Section        0  __rtentry.o(.ARM.Collect$$rtentry$$00000000)
    .ARM.Collect$$rtentry$$00000002          0x080001fc   Section        0  __rtentry2.o(.ARM.Collect$$rtentry$$00000002)
    .ARM.Collect$$rtentry$$00000004          0x080001fc   Section        6  __rtentry4.o(.ARM.Collect$$rtentry$$00000004)
    .ARM.Collect$$rtentry$$00000009          0x08000202   Section        0  __rtentry2.o(.ARM.Collect$$rtentry$$00000009)
    .ARM.Collect$$rtentry$$0000000A          0x08000202   Section        4  __rtentry2.o(.ARM.Collect$$rtentry$$0000000A)
    .ARM.Collect$$rtentry$$0000000C          0x08000206   Section        0  __rtentry2.o(.ARM.Collect$$rtentry$$0000000C)
    .ARM.Collect$$rtentry$$0000000D          0x08000206   Section        8  __rtentry2.o(.ARM.Collect$$rtentry$$0000000D)
    .ARM.Collect$$rtexit$$00000000           0x0800020e   Section        2  rtexit.o(.ARM.Collect$$rtexit$$00000000)
    .ARM.Collect$$rtexit$$00000002           0x08000210   Section        0  rtexit2.o(.ARM.Collect$$rtexit$$00000002)
    .ARM.Collect$$rtexit$$00000003           0x08000210   Section        4  rtexit2.o(.ARM.Collect$$rtexit$$00000003)
    .ARM.Collect$$rtexit$$00000004           0x08000214   Section        6  rtexit2.o(.ARM.Collect$$rtexit$$00000004)
    .text                                    0x0800021c   Section        0  main.o(.text)
    .text                                    0x080006cc   Section        0  stm32f10x_it.o(.text)
    .text                                    0x080006e4   Section        0  system_stm32f10x.o(.text)
    SetSysClockTo72                          0x080006e5   Thumb Code   214  system_stm32f10x.o(.text)
    SetSysClock                              0x080007bb   Thumb Code     8  system_stm32f10x.o(.text)
    .text                                    0x080008c4   Section        0  led.o(.text)
    .text                                    0x08000910   Section        0  tftlcd.o(.text)
    .text                                    0x0800167c   Section        0  key.o(.text)
    .text                                    0x08001778   Section        0  delay.o(.text)
    .text                                    0x080018c4   Section        0  usart.o(.text)
    .text                                    0x08001a14   Section       64  startup_stm32f10x_hd.o(.text)
    .text                                    0x08001a54   Section        0  misc.o(.text)
    .text                                    0x08001b30   Section        0  stm32f10x_gpio.o(.text)
    .text                                    0x08001e8c   Section        0  stm32f10x_usart.o(.text)
    .text                                    0x08002294   Section        0  stm32f10x_rcc.o(.text)
    .text                                    0x08002638   Section        0  stm32f10x_fsmc.o(.text)
    .text                                    0x08002c44   Section        0  bsp.o(.text)
    .text                                    0x08002cc8   Section        0  cpu_core.o(.text)
    CPU_NameInit                             0x08002cf3   Thumb Code     8  cpu_core.o(.text)
    CPU_TS_Init                              0x08002cfb   Thumb Code    14  cpu_core.o(.text)
    .text                                    0x08002f70   Section       52  cpu_a.o(.text)
    .text                                    0x08002fa4   Section        0  lib_ascii.o(.text)
    .text                                    0x080031fc   Section        0  lib_mem.o(.text)
    Mem_SegAlloc                             0x08003413   Thumb Code    60  lib_mem.o(.text)
    Mem_SegCalcTotSize                       0x0800344f   Thumb Code    60  lib_mem.o(.text)
    .text                                    0x08003bc4   Section        0  lib_str.o(.text)
    Str_FmtNbr_Int32                         0x0800407d   Thumb Code   476  lib_str.o(.text)
    Str_ParseNbr_Int32                       0x080042c5   Thumb Code   446  lib_str.o(.text)
    .text                                    0x080044f0   Section      544  lib_mem_a.o(.text)
    .text                                    0x08004710   Section        0  os_cfg_app.o(.text)
    .text                                    0x0800480c   Section        0  os_core.o(.text)
    .text                                    0x08005610   Section        0  os_dbg.o(.text)
    .text                                    0x080057c0   Section        0  os_flag.o(.text)
    .text                                    0x080065e8   Section        0  os_int.o(.text)
    .text                                    0x08006a2c   Section        0  os_mem.o(.text)
    .text                                    0x08006c64   Section        0  os_msg.o(.text)
    .text                                    0x08006e90   Section        0  os_mutex.o(.text)
    .text                                    0x08007964   Section        0  os_prio.o(.text)
    .text                                    0x080079e0   Section        0  os_q.o(.text)
    .text                                    0x080082b8   Section        0  os_sem.o(.text)
    .text                                    0x08008ae8   Section        0  os_stat.o(.text)
    .text                                    0x08009120   Section        0  os_task.o(.text)
    .text                                    0x0800acd4   Section        0  os_tick.o(.text)
    .text                                    0x0800b1d0   Section        0  os_time.o(.text)
    .text                                    0x0800b734   Section        0  os_tmr.o(.text)
    .text                                    0x0800bf4c   Section        0  os_cpu_c.o(.text)
    .text                                    0x0800c1b8   Section        2  use_no_semi_2.o(.text)
    .text                                    0x0800c1ba   Section      238  lludivv7m.o(.text)
    .text                                    0x0800c2a8   Section        0  noretval__2printf.o(.text)
    .text                                    0x0800c2c0   Section        0  __printf.o(.text)
    .text                                    0x0800c328   Section        0  _printf_dec.o(.text)
    .text                                    0x0800c3a0   Section        0  _printf_hex_int.o(.text)
    .text                                    0x0800c3f8   Section        0  heapauxi.o(.text)
    .text                                    0x0800c3fe   Section        2  use_no_semi.o(.text)
    .text                                    0x0800c400   Section        0  _printf_intcommon.o(.text)
    .text                                    0x0800c4b4   Section        0  _printf_char_file.o(.text)
    .text                                    0x0800c4d8   Section        0  _printf_char_common.o(.text)
    _printf_input_char                       0x0800c4d9   Thumb Code    10  _printf_char_common.o(.text)
    .text                                    0x0800c508   Section        0  ferror.o(.text)
    .text                                    0x0800c510   Section       74  sys_stackheap_outer.o(.text)
    .text                                    0x0800c55a   Section        0  exit.o(.text)
    .text                                    0x0800c56c   Section        8  libspace.o(.text)
    CODE                                     0x0800c574   Section      152  os_cpu_a.o(CODE)
    .constdata                               0x0800c60c   Section     7142  tftlcd.o(.constdata)
    .constdata                               0x0800e1f4   Section      260  cpu_core.o(.constdata)
    CPU_CntLeadZerosTbl                      0x0800e1f4   Data         256  cpu_core.o(.constdata)
    .constdata                               0x0800e2f8   Section      148  lib_str.o(.constdata)
    Str_MultOvfThTbl_Int32U                  0x0800e2f8   Data         148  lib_str.o(.constdata)
    .constdata                               0x0800e38c   Section      164  os_cfg_app.o(.constdata)
    .constdata                               0x0800e430   Section      364  os_dbg.o(.constdata)
    .constdata                               0x0800e59c   Section       40  _printf_hex_int.o(.constdata)
    uc_hextab                                0x0800e59c   Data          20  _printf_hex_int.o(.constdata)
    lc_hextab                                0x0800e5b0   Data          20  _printf_hex_int.o(.constdata)
    .data                                    0x20000000   Section       56  main.o(.data)
    .data                                    0x20000038   Section       20  system_stm32f10x.o(.data)
    .data                                    0x2000004c   Section       12  tftlcd.o(.data)
    .data                                    0x20000058   Section        1  key.o(.data)
    key_up                                   0x20000058   Data           1  key.o(.data)
    .data                                    0x2000005a   Section        4  delay.o(.data)
    fac_us                                   0x2000005a   Data           1  delay.o(.data)
    fac_ms                                   0x2000005c   Data           2  delay.o(.data)
    .data                                    0x20000060   Section        6  usart.o(.data)
    .data                                    0x20000066   Section       20  stm32f10x_rcc.o(.data)
    APBAHBPrescTable                         0x20000066   Data          16  stm32f10x_rcc.o(.data)
    ADCPrescTable                            0x20000076   Data           4  stm32f10x_rcc.o(.data)
    .data                                    0x2000007c   Section        4  cpu_core.o(.data)
    .data                                    0x20000080   Section        4  lib_mem.o(.data)
    .data                                    0x20000084   Section        8  os_prio.o(.data)
    .data                                    0x2000008c   Section      200  os_var.o(.data)
    .data                                    0x20000154   Section        4  os_cpu_c.o(.data)
    .bss                                     0x20000158   Section     1756  main.o(.bss)
    .bss                                     0x20000834   Section      200  usart.o(.bss)
    .bss                                     0x200008fc   Section       16  cpu_core.o(.bss)
    .bss                                     0x2000090c   Section     1096  lib_mem.o(.bss)
    .bss                                     0x20000d54   Section     5264  os_cfg_app.o(.bss)
    .bss                                     0x200021e4   Section     1760  os_var.o(.bss)
    .bss                                     0x200028c4   Section       96  libspace.o(.bss)
    HEAP                                     0x20002928   Section      512  startup_stm32f10x_hd.o(HEAP)
    Heap_Mem                                 0x20002928   Data         512  startup_stm32f10x_hd.o(HEAP)
    STACK                                    0x20002b28   Section     2048  startup_stm32f10x_hd.o(STACK)
    Stack_Mem                                0x20002b28   Data        2048  startup_stm32f10x_hd.o(STACK)
    __initial_sp                             0x20003328   Data           0  startup_stm32f10x_hd.o(STACK)

    Global Symbols

    Symbol Name                              Value     Ov Type        Size  Object(Section)

    BuildAttributes$$THM_ISAv4$P$D$K$B$S$PE$A:L22UL41UL21$X:L11$S22US41US21$IEEE1$IW$USESV6$~STKCKD$USESV7$~SHL$OSPACE$ROPI$EBA8$UX$STANDARDLIB$REQ8$PRES8$EABIv2 0x00000000   Number         0  anon$$obj.o ABSOLUTE
    __ARM_use_no_argv                        0x00000000   Number         0  main.o ABSOLUTE
    __ARM_exceptions_init                     - Undefined Weak Reference
    __alloca_initialize                       - Undefined Weak Reference
    __arm_preinit_                            - Undefined Weak Reference
    __cpp_initialize__aeabi_                  - Undefined Weak Reference
    __cxa_finalize                            - Undefined Weak Reference
    __rt_locale                               - Undefined Weak Reference
    __sigvec_lookup                           - Undefined Weak Reference
    _atexit_init                              - Undefined Weak Reference
    _call_atexit_fns                          - Undefined Weak Reference
    _clock_init                               - Undefined Weak Reference
    _fp_trap_init                             - Undefined Weak Reference
    _fp_trap_shutdown                         - Undefined Weak Reference
    _get_lc_collate                           - Undefined Weak Reference
    _get_lc_ctype                             - Undefined Weak Reference
    _get_lc_monetary                          - Undefined Weak Reference
    _get_lc_numeric                           - Undefined Weak Reference
    _get_lc_time                              - Undefined Weak Reference
    _getenv_init                              - Undefined Weak Reference
    _handle_redirection                       - Undefined Weak Reference
    _init_alloc                               - Undefined Weak Reference
    _init_user_alloc                          - Undefined Weak Reference
    _initio                                   - Undefined Weak Reference
    _mutex_acquire                            - Undefined Weak Reference
    _mutex_release                            - Undefined Weak Reference
    _printf_post_padding                      - Undefined Weak Reference
    _printf_pre_padding                       - Undefined Weak Reference
    _printf_truncate_signed                   - Undefined Weak Reference
    _printf_truncate_unsigned                 - Undefined Weak Reference
    _rand_init                                - Undefined Weak Reference
    _signal_finish                            - Undefined Weak Reference
    _signal_init                              - Undefined Weak Reference
    _terminate_alloc                          - Undefined Weak Reference
    _terminate_user_alloc                     - Undefined Weak Reference
    _terminateio                              - Undefined Weak Reference
    __Vectors_Size                           0x00000130   Number         0  startup_stm32f10x_hd.o ABSOLUTE
    __Vectors                                0x08000000   Data           4  startup_stm32f10x_hd.o(RESET)
    __Vectors_End                            0x08000130   Data           0  startup_stm32f10x_hd.o(RESET)
    __main                                   0x08000131   Thumb Code     8  __main.o(!!!main)
    __scatterload                            0x08000139   Thumb Code     0  __scatter.o(!!!scatter)
    __scatterload_rt2                        0x08000139   Thumb Code    44  __scatter.o(!!!scatter)
    __scatterload_rt2_thumb_only             0x08000139   Thumb Code     0  __scatter.o(!!!scatter)
    __scatterload_null                       0x08000147   Thumb Code     0  __scatter.o(!!!scatter)
    __decompress                             0x0800016d   Thumb Code    90  __dczerorl2.o(!!dczerorl2)
    __decompress1                            0x0800016d   Thumb Code     0  __dczerorl2.o(!!dczerorl2)
    __scatterload_zeroinit                   0x080001c9   Thumb Code    28  __scatter_zi.o(!!handler_zi)
    _printf_d                                0x080001e5   Thumb Code     0  _printf_d.o(.ARM.Collect$$_printf_percent$$00000009)
    _printf_percent                          0x080001e5   Thumb Code     0  _printf_percent.o(.ARM.Collect$$_printf_percent$$00000000)
    _printf_x                                0x080001eb   Thumb Code     0  _printf_x.o(.ARM.Collect$$_printf_percent$$0000000C)
    _printf_percent_end                      0x080001f1   Thumb Code     0  _printf_percent_end.o(.ARM.Collect$$_printf_percent$$00000017)
    __rt_lib_init                            0x080001f5   Thumb Code     0  libinit.o(.ARM.Collect$$libinit$$00000000)
    __rt_lib_init_alloca_1                   0x080001f7   Thumb Code     0  libinit2.o(.ARM.Collect$$libinit$$0000002E)
    __rt_lib_init_argv_1                     0x080001f7   Thumb Code     0  libinit2.o(.ARM.Collect$$libinit$$0000002C)
    __rt_lib_init_atexit_1                   0x080001f7   Thumb Code     0  libinit2.o(.ARM.Collect$$libinit$$0000001B)
    __rt_lib_init_clock_1                    0x080001f7   Thumb Code     0  libinit2.o(.ARM.Collect$$libinit$$00000021)
    __rt_lib_init_cpp_1                      0x080001f7   Thumb Code     0  libinit2.o(.ARM.Collect$$libinit$$00000032)
    __rt_lib_init_exceptions_1               0x080001f7   Thumb Code     0  libinit2.o(.ARM.Collect$$libinit$$00000030)
    __rt_lib_init_fp_1                       0x080001f7   Thumb Code     0  libinit2.o(.ARM.Collect$$libinit$$00000002)
    __rt_lib_init_fp_trap_1                  0x080001f7   Thumb Code     0  libinit2.o(.ARM.Collect$$libinit$$0000001F)
    __rt_lib_init_getenv_1                   0x080001f7   Thumb Code     0  libinit2.o(.ARM.Collect$$libinit$$00000023)
    __rt_lib_init_heap_1                     0x080001f7   Thumb Code     0  libinit2.o(.ARM.Collect$$libinit$$0000000A)
    __rt_lib_init_lc_collate_1               0x080001f7   Thumb Code     0  libinit2.o(.ARM.Collect$$libinit$$00000011)
    __rt_lib_init_lc_ctype_1                 0x080001f7   Thumb Code     0  libinit2.o(.ARM.Collect$$libinit$$00000013)
    __rt_lib_init_lc_monetary_1              0x080001f7   Thumb Code     0  libinit2.o(.ARM.Collect$$libinit$$00000015)
    __rt_lib_init_lc_numeric_1               0x080001f7   Thumb Code     0  libinit2.o(.ARM.Collect$$libinit$$00000017)
    __rt_lib_init_lc_time_1                  0x080001f7   Thumb Code     0  libinit2.o(.ARM.Collect$$libinit$$00000019)
    __rt_lib_init_preinit_1                  0x080001f7   Thumb Code     0  libinit2.o(.ARM.Collect$$libinit$$00000004)
    __rt_lib_init_rand_1                     0x080001f7   Thumb Code     0  libinit2.o(.ARM.Collect$$libinit$$0000000E)
    __rt_lib_init_return                     0x080001f7   Thumb Code     0  libinit2.o(.ARM.Collect$$libinit$$00000033)
    __rt_lib_init_signal_1                   0x080001f7   Thumb Code     0  libinit2.o(.ARM.Collect$$libinit$$0000001D)
    __rt_lib_init_stdio_1                    0x080001f7   Thumb Code     0  libinit2.o(.ARM.Collect$$libinit$$00000025)
    __rt_lib_init_user_alloc_1               0x080001f7   Thumb Code     0  libinit2.o(.ARM.Collect$$libinit$$0000000C)
    __rt_lib_shutdown                        0x080001f9   Thumb Code     0  libshutdown.o(.ARM.Collect$$libshutdown$$00000000)
    __rt_lib_shutdown_cpp_1                  0x080001fb   Thumb Code     0  libshutdown2.o(.ARM.Collect$$libshutdown$$00000002)
    __rt_lib_shutdown_fp_trap_1              0x080001fb   Thumb Code     0  libshutdown2.o(.ARM.Collect$$libshutdown$$00000007)
    __rt_lib_shutdown_heap_1                 0x080001fb   Thumb Code     0  libshutdown2.o(.ARM.Collect$$libshutdown$$0000000F)
    __rt_lib_shutdown_return                 0x080001fb   Thumb Code     0  libshutdown2.o(.ARM.Collect$$libshutdown$$00000010)
    __rt_lib_shutdown_signal_1               0x080001fb   Thumb Code     0  libshutdown2.o(.ARM.Collect$$libshutdown$$0000000A)
    __rt_lib_shutdown_stdio_1                0x080001fb   Thumb Code     0  libshutdown2.o(.ARM.Collect$$libshutdown$$00000004)
    __rt_lib_shutdown_user_alloc_1           0x080001fb   Thumb Code     0  libshutdown2.o(.ARM.Collect$$libshutdown$$0000000C)
    __rt_entry                               0x080001fd   Thumb Code     0  __rtentry.o(.ARM.Collect$$rtentry$$00000000)
    __rt_entry_presh_1                       0x080001fd   Thumb Code     0  __rtentry2.o(.ARM.Collect$$rtentry$$00000002)
    __rt_entry_sh                            0x080001fd   Thumb Code     0  __rtentry4.o(.ARM.Collect$$rtentry$$00000004)
    __rt_entry_li                            0x08000203   Thumb Code     0  __rtentry2.o(.ARM.Collect$$rtentry$$0000000A)
    __rt_entry_postsh_1                      0x08000203   Thumb Code     0  __rtentry2.o(.ARM.Collect$$rtentry$$00000009)
    __rt_entry_main                          0x08000207   Thumb Code     0  __rtentry2.o(.ARM.Collect$$rtentry$$0000000D)
    __rt_entry_postli_1                      0x08000207   Thumb Code     0  __rtentry2.o(.ARM.Collect$$rtentry$$0000000C)
    __rt_exit                                0x0800020f   Thumb Code     0  rtexit.o(.ARM.Collect$$rtexit$$00000000)
    __rt_exit_ls                             0x08000211   Thumb Code     0  rtexit2.o(.ARM.Collect$$rtexit$$00000003)
    __rt_exit_prels_1                        0x08000211   Thumb Code     0  rtexit2.o(.ARM.Collect$$rtexit$$00000002)
    __rt_exit_exit                           0x08000215   Thumb Code     0  rtexit2.o(.ARM.Collect$$rtexit$$00000004)
    ucos_load_main_ui                        0x0800021d   Thumb Code   158  main.o(.text)
    FlagsProcess_task                        0x080002bb   Thumb Code   110  main.o(.text)
    main_task                                0x08000329   Thumb Code   150  main.o(.text)
    start_task                               0x080003bf   Thumb Code   292  main.o(.text)
    main                                     0x080004e3   Thumb Code   240  main.o(.text)
    NMI_Handler                              0x080006cd   Thumb Code     2  stm32f10x_it.o(.text)
    HardFault_Handler                        0x080006cf   Thumb Code     4  stm32f10x_it.o(.text)
    MemManage_Handler                        0x080006d3   Thumb Code     4  stm32f10x_it.o(.text)
    BusFault_Handler                         0x080006d7   Thumb Code     4  stm32f10x_it.o(.text)
    UsageFault_Handler                       0x080006db   Thumb Code     4  stm32f10x_it.o(.text)
    SVC_Handler                              0x080006df   Thumb Code     2  stm32f10x_it.o(.text)
    DebugMon_Handler                         0x080006e1   Thumb Code     2  stm32f10x_it.o(.text)
    SystemInit                               0x080007c3   Thumb Code    78  system_stm32f10x.o(.text)
    SystemCoreClockUpdate                    0x08000811   Thumb Code   142  system_stm32f10x.o(.text)
    LED_Init                                 0x080008c5   Thumb Code    68  led.o(.text)
    TFTLCD_GPIO_Init                         0x08000911   Thumb Code   114  tftlcd.o(.text)
    TFTLCD_FSMC_Init                         0x08000983   Thumb Code   160  tftlcd.o(.text)
    LCD_WriteCmd                             0x08000a23   Thumb Code     6  tftlcd.o(.text)
    LCD_WriteData                            0x08000a29   Thumb Code     8  tftlcd.o(.text)
    LCD_WriteCmdData                         0x08000a31   Thumb Code    20  tftlcd.o(.text)
    LCD_WriteData_Color                      0x08000a45   Thumb Code    16  tftlcd.o(.text)
    LCD_ReadData                             0x08000a55   Thumb Code     8  tftlcd.o(.text)
    LCD_Display_Dir                          0x08000a5d   Thumb Code    66  tftlcd.o(.text)
    LCD_Set_Window                           0x08000a9f   Thumb Code   166  tftlcd.o(.text)
    LCD_Clear                                0x08000b45   Thumb Code    68  tftlcd.o(.text)
    TFTLCD_Init                              0x08000b89   Thumb Code   782  tftlcd.o(.text)
    LCD_Fill                                 0x08000e97   Thumb Code    92  tftlcd.o(.text)
    LCD_DrawPoint                            0x08000ef3   Thumb Code    28  tftlcd.o(.text)
    LCD_DrawFRONT_COLOR                      0x08000f0f   Thumb Code    28  tftlcd.o(.text)
    LCD_ReadPoint                            0x08000f2b   Thumb Code    94  tftlcd.o(.text)
    LCD_DrawLine                             0x08000f89   Thumb Code   176  tftlcd.o(.text)
    LCD_DrawLine_Color                       0x08001039   Thumb Code   172  tftlcd.o(.text)
    LCD_DrowSign                             0x080010e5   Thumb Code   132  tftlcd.o(.text)
    LCD_DrawRectangle                        0x08001169   Thumb Code    60  tftlcd.o(.text)
    LCD_Draw_Circle                          0x080011a5   Thumb Code   152  tftlcd.o(.text)
    LCD_ShowChar                             0x0800123d   Thumb Code   286  tftlcd.o(.text)
    LCD_Pow                                  0x0800135b   Thumb Code    22  tftlcd.o(.text)
    LCD_ShowNum                              0x08001371   Thumb Code   148  tftlcd.o(.text)
    LCD_ShowxNum                             0x08001405   Thumb Code   190  tftlcd.o(.text)
    LCD_ShowString                           0x080014c3   Thumb Code   102  tftlcd.o(.text)
    LCD_ShowFontHZ                           0x08001529   Thumb Code   220  tftlcd.o(.text)
    LCD_ShowPicture                          0x08001605   Thumb Code    92  tftlcd.o(.text)
    KEY_Init                                 0x0800167d   Thumb Code    52  key.o(.text)
    KEY_Scan                                 0x080016b1   Thumb Code   188  key.o(.text)
    delay_osschedlock                        0x08001779   Thumb Code    10  delay.o(.text)
    delay_osschedunlock                      0x08001783   Thumb Code    10  delay.o(.text)
    delay_ostimedly                          0x0800178d   Thumb Code    16  delay.o(.text)
    SysTick_Handler                          0x0800179d   Thumb Code    24  delay.o(.text)
    delay_init                               0x080017b5   Thumb Code    92  delay.o(.text)
    delay_us                                 0x08001811   Thumb Code    86  delay.o(.text)
    delay_ms                                 0x08001867   Thumb Code    66  delay.o(.text)
    _sys_exit                                0x080018c5   Thumb Code     6  usart.o(.text)
    fputc                                    0x080018cb   Thumb Code    24  usart.o(.text)
    uart_init                                0x080018e3   Thumb Code   158  usart.o(.text)
    USART1_IRQHandler                        0x08001981   Thumb Code   130  usart.o(.text)
    Reset_Handler                            0x08001a15   Thumb Code     8  startup_stm32f10x_hd.o(.text)
    ADC1_2_IRQHandler                        0x08001a2f   Thumb Code     0  startup_stm32f10x_hd.o(.text)
    ADC3_IRQHandler                          0x08001a2f   Thumb Code     0  startup_stm32f10x_hd.o(.text)
    CAN1_RX1_IRQHandler                      0x08001a2f   Thumb Code     0  startup_stm32f10x_hd.o(.text)
    CAN1_SCE_IRQHandler                      0x08001a2f   Thumb Code     0  startup_stm32f10x_hd.o(.text)
    DMA1_Channel1_IRQHandler                 0x08001a2f   Thumb Code     0  startup_stm32f10x_hd.o(.text)
    DMA1_Channel2_IRQHandler                 0x08001a2f   Thumb Code     0  startup_stm32f10x_hd.o(.text)
    DMA1_Channel3_IRQHandler                 0x08001a2f   Thumb Code     0  startup_stm32f10x_hd.o(.text)
    DMA1_Channel4_IRQHandler                 0x08001a2f   Thumb Code     0  startup_stm32f10x_hd.o(.text)
    DMA1_Channel5_IRQHandler                 0x08001a2f   Thumb Code     0  startup_stm32f10x_hd.o(.text)
    DMA1_Channel6_IRQHandler                 0x08001a2f   Thumb Code     0  startup_stm32f10x_hd.o(.text)
    DMA1_Channel7_IRQHandler                 0x08001a2f   Thumb Code     0  startup_stm32f10x_hd.o(.text)
    DMA2_Channel1_IRQHandler                 0x08001a2f   Thumb Code     0  startup_stm32f10x_hd.o(.text)
    DMA2_Channel2_IRQHandler                 0x08001a2f   Thumb Code     0  startup_stm32f10x_hd.o(.text)
    DMA2_Channel3_IRQHandler                 0x08001a2f   Thumb Code     0  startup_stm32f10x_hd.o(.text)
    DMA2_Channel4_5_IRQHandler               0x08001a2f   Thumb Code     0  startup_stm32f10x_hd.o(.text)
    EXTI0_IRQHandler                         0x08001a2f   Thumb Code     0  startup_stm32f10x_hd.o(.text)
    EXTI15_10_IRQHandler                     0x08001a2f   Thumb Code     0  startup_stm32f10x_hd.o(.text)
    EXTI1_IRQHandler                         0x08001a2f   Thumb Code     0  startup_stm32f10x_hd.o(.text)
    EXTI2_IRQHandler                         0x08001a2f   Thumb Code     0  startup_stm32f10x_hd.o(.text)
    EXTI3_IRQHandler                         0x08001a2f   Thumb Code     0  startup_stm32f10x_hd.o(.text)
    EXTI4_IRQHandler                         0x08001a2f   Thumb Code     0  startup_stm32f10x_hd.o(.text)
    EXTI9_5_IRQHandler                       0x08001a2f   Thumb Code     0  startup_stm32f10x_hd.o(.text)
    FLASH_IRQHandler                         0x08001a2f   Thumb Code     0  startup_stm32f10x_hd.o(.text)
    FSMC_IRQHandler                          0x08001a2f   Thumb Code     0  startup_stm32f10x_hd.o(.text)
    I2C1_ER_IRQHandler                       0x08001a2f   Thumb Code     0  startup_stm32f10x_hd.o(.text)
    I2C1_EV_IRQHandler                       0x08001a2f   Thumb Code     0  startup_stm32f10x_hd.o(.text)
    I2C2_ER_IRQHandler                       0x08001a2f   Thumb Code     0  startup_stm32f10x_hd.o(.text)
    I2C2_EV_IRQHandler                       0x08001a2f   Thumb Code     0  startup_stm32f10x_hd.o(.text)
    PVD_IRQHandler                           0x08001a2f   Thumb Code     0  startup_stm32f10x_hd.o(.text)
    RCC_IRQHandler                           0x08001a2f   Thumb Code     0  startup_stm32f10x_hd.o(.text)
    RTCAlarm_IRQHandler                      0x08001a2f   Thumb Code     0  startup_stm32f10x_hd.o(.text)
    RTC_IRQHandler                           0x08001a2f   Thumb Code     0  startup_stm32f10x_hd.o(.text)
    SDIO_IRQHandler                          0x08001a2f   Thumb Code     0  startup_stm32f10x_hd.o(.text)
    SPI1_IRQHandler                          0x08001a2f   Thumb Code     0  startup_stm32f10x_hd.o(.text)
    SPI2_IRQHandler                          0x08001a2f   Thumb Code     0  startup_stm32f10x_hd.o(.text)
    SPI3_IRQHandler                          0x08001a2f   Thumb Code     0  startup_stm32f10x_hd.o(.text)
    TAMPER_IRQHandler                        0x08001a2f   Thumb Code     0  startup_stm32f10x_hd.o(.text)
    TIM1_BRK_IRQHandler                      0x08001a2f   Thumb Code     0  startup_stm32f10x_hd.o(.text)
    TIM1_CC_IRQHandler                       0x08001a2f   Thumb Code     0  startup_stm32f10x_hd.o(.text)
    TIM1_TRG_COM_IRQHandler                  0x08001a2f   Thumb Code     0  startup_stm32f10x_hd.o(.text)
    TIM1_UP_IRQHandler                       0x08001a2f   Thumb Code     0  startup_stm32f10x_hd.o(.text)
    TIM2_IRQHandler                          0x08001a2f   Thumb Code     0  startup_stm32f10x_hd.o(.text)
    TIM3_IRQHandler                          0x08001a2f   Thumb Code     0  startup_stm32f10x_hd.o(.text)
    TIM4_IRQHandler                          0x08001a2f   Thumb Code     0  startup_stm32f10x_hd.o(.text)
    TIM5_IRQHandler                          0x08001a2f   Thumb Code     0  startup_stm32f10x_hd.o(.text)
    TIM6_IRQHandler                          0x08001a2f   Thumb Code     0  startup_stm32f10x_hd.o(.text)
    TIM7_IRQHandler                          0x08001a2f   Thumb Code     0  startup_stm32f10x_hd.o(.text)
    TIM8_BRK_IRQHandler                      0x08001a2f   Thumb Code     0  startup_stm32f10x_hd.o(.text)
    TIM8_CC_IRQHandler                       0x08001a2f   Thumb Code     0  startup_stm32f10x_hd.o(.text)
    TIM8_TRG_COM_IRQHandler                  0x08001a2f   Thumb Code     0  startup_stm32f10x_hd.o(.text)
    TIM8_UP_IRQHandler                       0x08001a2f   Thumb Code     0  startup_stm32f10x_hd.o(.text)
    UART4_IRQHandler                         0x08001a2f   Thumb Code     0  startup_stm32f10x_hd.o(.text)
    UART5_IRQHandler                         0x08001a2f   Thumb Code     0  startup_stm32f10x_hd.o(.text)
    USART2_IRQHandler                        0x08001a2f   Thumb Code     0  startup_stm32f10x_hd.o(.text)
    USART3_IRQHandler                        0x08001a2f   Thumb Code     0  startup_stm32f10x_hd.o(.text)
    USBWakeUp_IRQHandler                     0x08001a2f   Thumb Code     0  startup_stm32f10x_hd.o(.text)
    USB_HP_CAN1_TX_IRQHandler                0x08001a2f   Thumb Code     0  startup_stm32f10x_hd.o(.text)
    USB_LP_CAN1_RX0_IRQHandler               0x08001a2f   Thumb Code     0  startup_stm32f10x_hd.o(.text)
    WWDG_IRQHandler                          0x08001a2f   Thumb Code     0  startup_stm32f10x_hd.o(.text)
    __user_initial_stackheap                 0x08001a31   Thumb Code     0  startup_stm32f10x_hd.o(.text)
    NVIC_PriorityGroupConfig                 0x08001a55   Thumb Code    10  misc.o(.text)
    NVIC_Init                                0x08001a5f   Thumb Code   100  misc.o(.text)
    NVIC_SetVectorTable                      0x08001ac3   Thumb Code    14  misc.o(.text)
    NVIC_SystemLPConfig                      0x08001ad1   Thumb Code    34  misc.o(.text)
    SysTick_CLKSourceConfig                  0x08001af3   Thumb Code    40  misc.o(.text)
    GPIO_DeInit                              0x08001b31   Thumb Code   172  stm32f10x_gpio.o(.text)
    GPIO_AFIODeInit                          0x08001bdd   Thumb Code    20  stm32f10x_gpio.o(.text)
    GPIO_Init                                0x08001bf1   Thumb Code   278  stm32f10x_gpio.o(.text)
    GPIO_StructInit                          0x08001d07   Thumb Code    16  stm32f10x_gpio.o(.text)
    GPIO_ReadInputDataBit                    0x08001d17   Thumb Code    18  stm32f10x_gpio.o(.text)
    GPIO_ReadInputData                       0x08001d29   Thumb Code     8  stm32f10x_gpio.o(.text)
    GPIO_ReadOutputDataBit                   0x08001d31   Thumb Code    18  stm32f10x_gpio.o(.text)
    GPIO_ReadOutputData                      0x08001d43   Thumb Code     8  stm32f10x_gpio.o(.text)
    GPIO_SetBits                             0x08001d4b   Thumb Code     4  stm32f10x_gpio.o(.text)
    GPIO_ResetBits                           0x08001d4f   Thumb Code     4  stm32f10x_gpio.o(.text)
    GPIO_WriteBit                            0x08001d53   Thumb Code    10  stm32f10x_gpio.o(.text)
    GPIO_Write                               0x08001d5d   Thumb Code     4  stm32f10x_gpio.o(.text)
    GPIO_PinLockConfig                       0x08001d61   Thumb Code    18  stm32f10x_gpio.o(.text)
    GPIO_EventOutputConfig                   0x08001d73   Thumb Code    26  stm32f10x_gpio.o(.text)
    GPIO_EventOutputCmd                      0x08001d8d   Thumb Code     6  stm32f10x_gpio.o(.text)
    GPIO_PinRemapConfig                      0x08001d93   Thumb Code   138  stm32f10x_gpio.o(.text)
    GPIO_EXTILineConfig                      0x08001e1d   Thumb Code    66  stm32f10x_gpio.o(.text)
    GPIO_ETH_MediaInterfaceConfig            0x08001e5f   Thumb Code     8  stm32f10x_gpio.o(.text)
    USART_DeInit                             0x08001e8d   Thumb Code   134  stm32f10x_usart.o(.text)
    USART_Init                               0x08001f13   Thumb Code   210  stm32f10x_usart.o(.text)
    USART_StructInit                         0x08001fe5   Thumb Code    24  stm32f10x_usart.o(.text)
    USART_ClockInit                          0x08001ffd   Thumb Code    34  stm32f10x_usart.o(.text)
    USART_ClockStructInit                    0x0800201f   Thumb Code    12  stm32f10x_usart.o(.text)
    USART_Cmd                                0x0800202b   Thumb Code    24  stm32f10x_usart.o(.text)
    USART_ITConfig                           0x08002043   Thumb Code    74  stm32f10x_usart.o(.text)
    USART_DMACmd                             0x0800208d   Thumb Code    18  stm32f10x_usart.o(.text)
    USART_SetAddress                         0x0800209f   Thumb Code    18  stm32f10x_usart.o(.text)
    USART_WakeUpConfig                       0x080020b1   Thumb Code    18  stm32f10x_usart.o(.text)
    USART_ReceiverWakeUpCmd                  0x080020c3   Thumb Code    24  stm32f10x_usart.o(.text)
    USART_LINBreakDetectLengthConfig         0x080020db   Thumb Code    18  stm32f10x_usart.o(.text)
    USART_LINCmd                             0x080020ed   Thumb Code    24  stm32f10x_usart.o(.text)
    USART_SendData                           0x08002105   Thumb Code     8  stm32f10x_usart.o(.text)
    USART_ReceiveData                        0x0800210d   Thumb Code    10  stm32f10x_usart.o(.text)
    USART_SendBreak                          0x08002117   Thumb Code    10  stm32f10x_usart.o(.text)
    USART_SetGuardTime                       0x08002121   Thumb Code    16  stm32f10x_usart.o(.text)
    USART_SetPrescaler                       0x08002131   Thumb Code    16  stm32f10x_usart.o(.text)
    USART_SmartCardCmd                       0x08002141   Thumb Code    24  stm32f10x_usart.o(.text)
    USART_SmartCardNACKCmd                   0x08002159   Thumb Code    24  stm32f10x_usart.o(.text)
    USART_HalfDuplexCmd                      0x08002171   Thumb Code    24  stm32f10x_usart.o(.text)
    USART_OverSampling8Cmd                   0x08002189   Thumb Code    22  stm32f10x_usart.o(.text)
    USART_OneBitMethodCmd                    0x0800219f   Thumb Code    24  stm32f10x_usart.o(.text)
    USART_IrDAConfig                         0x080021b7   Thumb Code    18  stm32f10x_usart.o(.text)
    USART_IrDACmd                            0x080021c9   Thumb Code    24  stm32f10x_usart.o(.text)
    USART_GetFlagStatus                      0x080021e1   Thumb Code    26  stm32f10x_usart.o(.text)
    USART_ClearFlag                          0x080021fb   Thumb Code    18  stm32f10x_usart.o(.text)
    USART_GetITStatus                        0x0800220d   Thumb Code    84  stm32f10x_usart.o(.text)
    USART_ClearITPendingBit                  0x08002261   Thumb Code    52  stm32f10x_usart.o(.text)
    RCC_DeInit                               0x08002295   Thumb Code    64  stm32f10x_rcc.o(.text)
    RCC_HSEConfig                            0x080022d5   Thumb Code    70  stm32f10x_rcc.o(.text)
    RCC_GetFlagStatus                        0x0800231b   Thumb Code    56  stm32f10x_rcc.o(.text)
    RCC_WaitForHSEStartUp                    0x08002353   Thumb Code    56  stm32f10x_rcc.o(.text)
    RCC_AdjustHSICalibrationValue            0x0800238b   Thumb Code    20  stm32f10x_rcc.o(.text)
    RCC_HSICmd                               0x0800239f   Thumb Code     6  stm32f10x_rcc.o(.text)
    RCC_PLLConfig                            0x080023a5   Thumb Code    24  stm32f10x_rcc.o(.text)
    RCC_PLLCmd                               0x080023bd   Thumb Code     6  stm32f10x_rcc.o(.text)
    RCC_SYSCLKConfig                         0x080023c3   Thumb Code    18  stm32f10x_rcc.o(.text)
    RCC_GetSYSCLKSource                      0x080023d5   Thumb Code    10  stm32f10x_rcc.o(.text)
    RCC_HCLKConfig                           0x080023df   Thumb Code    18  stm32f10x_rcc.o(.text)
    RCC_PCLK1Config                          0x080023f1   Thumb Code    18  stm32f10x_rcc.o(.text)
    RCC_PCLK2Config                          0x08002403   Thumb Code    20  stm32f10x_rcc.o(.text)
    RCC_ITConfig                             0x08002417   Thumb Code    26  stm32f10x_rcc.o(.text)
    RCC_USBCLKConfig                         0x08002431   Thumb Code     8  stm32f10x_rcc.o(.text)
    RCC_ADCCLKConfig                         0x08002439   Thumb Code    18  stm32f10x_rcc.o(.text)
    RCC_LSEConfig                            0x0800244b   Thumb Code    50  stm32f10x_rcc.o(.text)
    RCC_LSICmd                               0x0800247d   Thumb Code     6  stm32f10x_rcc.o(.text)
    RCC_RTCCLKConfig                         0x08002483   Thumb Code    12  stm32f10x_rcc.o(.text)
    RCC_RTCCLKCmd                            0x0800248f   Thumb Code     8  stm32f10x_rcc.o(.text)
    RCC_GetClocksFreq                        0x08002497   Thumb Code   192  stm32f10x_rcc.o(.text)
    RCC_AHBPeriphClockCmd                    0x08002557   Thumb Code    26  stm32f10x_rcc.o(.text)
    RCC_APB2PeriphClockCmd                   0x08002571   Thumb Code    26  stm32f10x_rcc.o(.text)
    RCC_APB1PeriphClockCmd                   0x0800258b   Thumb Code    26  stm32f10x_rcc.o(.text)
    RCC_APB2PeriphResetCmd                   0x080025a5   Thumb Code    26  stm32f10x_rcc.o(.text)
    RCC_APB1PeriphResetCmd                   0x080025bf   Thumb Code    26  stm32f10x_rcc.o(.text)
    RCC_BackupResetCmd                       0x080025d9   Thumb Code     8  stm32f10x_rcc.o(.text)
    RCC_ClockSecuritySystemCmd               0x080025e1   Thumb Code     6  stm32f10x_rcc.o(.text)
    RCC_MCOConfig                            0x080025e7   Thumb Code     6  stm32f10x_rcc.o(.text)
    RCC_ClearFlag                            0x080025ed   Thumb Code    14  stm32f10x_rcc.o(.text)
    RCC_GetITStatus                          0x080025fb   Thumb Code    20  stm32f10x_rcc.o(.text)
    RCC_ClearITPendingBit                    0x0800260f   Thumb Code     6  stm32f10x_rcc.o(.text)
    FSMC_NORSRAMDeInit                       0x08002639   Thumb Code    54  stm32f10x_fsmc.o(.text)
    FSMC_NANDDeInit                          0x0800266f   Thumb Code    62  stm32f10x_fsmc.o(.text)
    FSMC_PCCARDDeInit                        0x080026ad   Thumb Code    36  stm32f10x_fsmc.o(.text)
    FSMC_NORSRAMInit                         0x080026d1   Thumb Code   230  stm32f10x_fsmc.o(.text)
    FSMC_NANDInit                            0x080027b7   Thumb Code   132  stm32f10x_fsmc.o(.text)
    FSMC_PCCARDInit                          0x0800283b   Thumb Code   130  stm32f10x_fsmc.o(.text)
    FSMC_NORSRAMStructInit                   0x080028bd   Thumb Code   114  stm32f10x_fsmc.o(.text)
    FSMC_NANDStructInit                      0x0800292f   Thumb Code    54  stm32f10x_fsmc.o(.text)
    FSMC_PCCARDStructInit                    0x08002965   Thumb Code    60  stm32f10x_fsmc.o(.text)
    FSMC_NORSRAMCmd                          0x080029a1   Thumb Code    46  stm32f10x_fsmc.o(.text)
    FSMC_NANDCmd                             0x080029cf   Thumb Code    86  stm32f10x_fsmc.o(.text)
    FSMC_PCCARDCmd                           0x08002a25   Thumb Code    44  stm32f10x_fsmc.o(.text)
    FSMC_NANDECCCmd                          0x08002a51   Thumb Code    90  stm32f10x_fsmc.o(.text)
    FSMC_GetECC                              0x08002aab   Thumb Code    24  stm32f10x_fsmc.o(.text)
    FSMC_ITConfig                            0x08002ac3   Thumb Code   128  stm32f10x_fsmc.o(.text)
    FSMC_GetFlagStatus                       0x08002b43   Thumb Code    54  stm32f10x_fsmc.o(.text)
    FSMC_ClearFlag                           0x08002b79   Thumb Code    62  stm32f10x_fsmc.o(.text)
    FSMC_GetITStatus                         0x08002bb7   Thumb Code    64  stm32f10x_fsmc.o(.text)
    FSMC_ClearITPendingBit                   0x08002bf7   Thumb Code    68  stm32f10x_fsmc.o(.text)
    BSP_CPU_ClkFreq                          0x08002c45   Thumb Code    16  bsp.o(.text)
    CPU_TS_TmrInit                           0x08002c55   Thumb Code    44  bsp.o(.text)
    CPU_TS_TmrRd                             0x08002c81   Thumb Code     6  bsp.o(.text)
    CPU_TS32_to_uSec                         0x08002c87   Thumb Code    54  bsp.o(.text)
    CPU_NameClr                              0x08002cc9   Thumb Code    42  cpu_core.o(.text)
    CPU_Init                                 0x08002d09   Thumb Code    12  cpu_core.o(.text)
    CPU_SW_Exception                         0x08002d15   Thumb Code     4  cpu_core.o(.text)
    CPU_NameGet                              0x08002d19   Thumb Code    70  cpu_core.o(.text)
    CPU_NameSet                              0x08002d5f   Thumb Code    96  cpu_core.o(.text)
    CPU_TS_Get32                             0x08002dbf   Thumb Code    12  cpu_core.o(.text)
    CPU_TS_Update                            0x08002dcb   Thumb Code     2  cpu_core.o(.text)
    CPU_TS_TmrFreqGet                        0x08002dcd   Thumb Code    30  cpu_core.o(.text)
    CPU_TS_TmrFreqSet                        0x08002deb   Thumb Code     6  cpu_core.o(.text)
    CPU_CntLeadZeros08                       0x08002df1   Thumb Code    18  cpu_core.o(.text)
    CPU_CntLeadZeros16                       0x08002e03   Thumb Code    18  cpu_core.o(.text)
    CPU_CntLeadZeros32                       0x08002e15   Thumb Code    18  cpu_core.o(.text)
    CPU_CntLeadZeros64                       0x08002e27   Thumb Code   188  cpu_core.o(.text)
    CPU_CntTrailZeros08                      0x08002ee3   Thumb Code    22  cpu_core.o(.text)
    CPU_CntTrailZeros16                      0x08002ef9   Thumb Code    22  cpu_core.o(.text)
    CPU_CntTrailZeros32                      0x08002f0f   Thumb Code    22  cpu_core.o(.text)
    CPU_CntTrailZeros64                      0x08002f25   Thumb Code    62  cpu_core.o(.text)
    CPU_IntDis                               0x08002f71   Thumb Code     0  cpu_a.o(.text)
    CPU_IntEn                                0x08002f75   Thumb Code     0  cpu_a.o(.text)
    CPU_SR_Save                              0x08002f79   Thumb Code     0  cpu_a.o(.text)
    CPU_SR_Restore                           0x08002f81   Thumb Code     0  cpu_a.o(.text)
    CPU_WaitForInt                           0x08002f87   Thumb Code     0  cpu_a.o(.text)
    CPU_WaitForExcept                        0x08002f8b   Thumb Code     0  cpu_a.o(.text)
    CPU_CntLeadZeros                         0x08002f8f   Thumb Code     0  cpu_a.o(.text)
    CPU_CntTrailZeros                        0x08002f95   Thumb Code     0  cpu_a.o(.text)
    CPU_RevBits                              0x08002f9f   Thumb Code     0  cpu_a.o(.text)
    ASCII_IsAlpha                            0x08002fa5   Thumb Code    48  lib_ascii.o(.text)
    ASCII_IsAlphaNum                         0x08002fd5   Thumb Code    76  lib_ascii.o(.text)
    ASCII_IsLower                            0x08003021   Thumb Code    20  lib_ascii.o(.text)
    ASCII_IsUpper                            0x08003035   Thumb Code    20  lib_ascii.o(.text)
    ASCII_IsDig                              0x08003049   Thumb Code    20  lib_ascii.o(.text)
    ASCII_IsDigOct                           0x0800305d   Thumb Code    20  lib_ascii.o(.text)
    ASCII_IsDigHex                           0x08003071   Thumb Code    36  lib_ascii.o(.text)
    ASCII_IsBlank                            0x08003095   Thumb Code    20  lib_ascii.o(.text)
    ASCII_IsSpace                            0x080030a9   Thumb Code    36  lib_ascii.o(.text)
    ASCII_IsPrint                            0x080030cd   Thumb Code    20  lib_ascii.o(.text)
    ASCII_IsGraph                            0x080030e1   Thumb Code    20  lib_ascii.o(.text)
    ASCII_IsPunct                            0x080030f5   Thumb Code   134  lib_ascii.o(.text)
    ASCII_IsCtrl                             0x0800317b   Thumb Code    26  lib_ascii.o(.text)
    ASCII_ToLower                            0x08003195   Thumb Code    32  lib_ascii.o(.text)
    ASCII_ToUpper                            0x080031b5   Thumb Code    32  lib_ascii.o(.text)
    ASCII_Cmp                                0x080031d5   Thumb Code    38  lib_ascii.o(.text)
    Mem_Init                                 0x080031fd   Thumb Code    54  lib_mem.o(.text)
    Mem_Set                                  0x08003233   Thumb Code    84  lib_mem.o(.text)
    Mem_Clr                                  0x08003287   Thumb Code    18  lib_mem.o(.text)
    Mem_Move                                 0x08003299   Thumb Code   186  lib_mem.o(.text)
    Mem_Cmp                                  0x08003353   Thumb Code   192  lib_mem.o(.text)
    Mem_HeapAlloc                            0x0800348b   Thumb Code   168  lib_mem.o(.text)
    Mem_SegGetSizeRem                        0x08003533   Thumb Code   108  lib_mem.o(.text)
    Mem_HeapGetSizeRem                       0x0800359f   Thumb Code    22  lib_mem.o(.text)
    Mem_PoolClr                              0x080035b5   Thumb Code    80  lib_mem.o(.text)
    Mem_PoolCreate                           0x08003605   Thumb Code   838  lib_mem.o(.text)
    Mem_PoolBlkGetNbrAvail                   0x0800394b   Thumb Code    52  lib_mem.o(.text)
    Mem_PoolBlkGet                           0x0800397f   Thumb Code   126  lib_mem.o(.text)
    Mem_PoolBlkGetUsedAtIx                   0x080039fd   Thumb Code   140  lib_mem.o(.text)
    Mem_PoolBlkFree                          0x08003a89   Thumb Code   152  lib_mem.o(.text)
    Mem_PoolBlkIxGet                         0x08003b21   Thumb Code   162  lib_mem.o(.text)
    Str_Len_N                                0x08003bc5   Thumb Code    28  lib_str.o(.text)
    Str_Len                                  0x08003be1   Thumb Code    20  lib_str.o(.text)
    Str_Copy_N                               0x08003bf5   Thumb Code    70  lib_str.o(.text)
    Str_Copy                                 0x08003c3b   Thumb Code    24  lib_str.o(.text)
    Str_Cat_N                                0x08003c53   Thumb Code    90  lib_str.o(.text)
    Str_Cat                                  0x08003cad   Thumb Code    24  lib_str.o(.text)
    Str_Cmp_N                                0x08003cc5   Thumb Code   156  lib_str.o(.text)
    Str_Cmp                                  0x08003d61   Thumb Code    24  lib_str.o(.text)
    Str_CmpIgnoreCase_N                      0x08003d79   Thumb Code   264  lib_str.o(.text)
    Str_CmpIgnoreCase                        0x08003e81   Thumb Code    24  lib_str.o(.text)
    Str_Char_N                               0x08003e99   Thumb Code    74  lib_str.o(.text)
    Str_Char                                 0x08003ee3   Thumb Code    24  lib_str.o(.text)
    Str_Char_Last_N                          0x08003efb   Thumb Code    76  lib_str.o(.text)
    Str_Char_Last                            0x08003f47   Thumb Code    24  lib_str.o(.text)
    Str_Char_Replace_N                       0x08003f5f   Thumb Code    52  lib_str.o(.text)
    Str_Char_Replace                         0x08003f93   Thumb Code    28  lib_str.o(.text)
    Str_Str_N                                0x08003faf   Thumb Code   182  lib_str.o(.text)
    Str_Str                                  0x08004065   Thumb Code    24  lib_str.o(.text)
    Str_FmtNbr_Int32U                        0x08004259   Thumb Code    46  lib_str.o(.text)
    Str_FmtNbr_Int32S                        0x08004287   Thumb Code    62  lib_str.o(.text)
    Str_ParseNbr_Int32U                      0x08004483   Thumb Code    30  lib_str.o(.text)
    Str_ParseNbr_Int32S                      0x080044a1   Thumb Code    74  lib_str.o(.text)
    Mem_Copy                                 0x080044f1   Thumb Code     0  lib_mem_a.o(.text)
    OSCfg_Init                               0x08004711   Thumb Code    86  os_cfg_app.o(.text)
    OS_IdleTask                              0x0800480d   Thumb Code    60  os_core.o(.text)
    OS_IdleTaskInit                          0x08004849   Thumb Code    68  os_core.o(.text)
    OS_RdyListInit                           0x0800488d   Thumb Code    32  os_core.o(.text)
    OSInit                                   0x080048ad   Thumb Code   300  os_core.o(.text)
    OSIntEnter                               0x080049d9   Thumb Code    34  os_core.o(.text)
    OSIntExit                                0x080049fb   Thumb Code   192  os_core.o(.text)
    OSSched                                  0x08004abb   Thumb Code   134  os_core.o(.text)
    OS_SchedLockTimeMeasStart                0x08004b41   Thumb Code    20  os_core.o(.text)
    OSSchedLock                              0x08004b55   Thumb Code   104  os_core.o(.text)
    OS_SchedLockTimeMeasStop                 0x08004bbd   Thumb Code    44  os_core.o(.text)
    OSSchedUnlock                            0x08004be9   Thumb Code   290  os_core.o(.text)
    OSSchedRoundRobinCfg                     0x08004d0b   Thumb Code    88  os_core.o(.text)
    OS_RdyListMoveHeadToTail                 0x08004d63   Thumb Code    68  os_core.o(.text)
    OSSchedRoundRobinYield                   0x08004da7   Thumb Code   164  os_core.o(.text)
    OSStart                                  0x08004e4b   Thumb Code    78  os_core.o(.text)
    OSVersion                                0x08004e99   Thumb Code    12  os_core.o(.text)
    OS_PendDbgNameAdd                        0x08004ea5   Thumb Code    66  os_core.o(.text)
    OS_PendListInsertPrio                    0x08004ee7   Thumb Code   102  os_core.o(.text)
    OS_PendDataInit                          0x08004f4d   Thumb Code    38  os_core.o(.text)
    OS_RdyListRemove                         0x08004f73   Thumb Code    86  os_core.o(.text)
    OS_TaskBlock                             0x08004fc9   Thumb Code    56  os_core.o(.text)
    OS_Pend                                  0x08005001   Thumb Code    98  os_core.o(.text)
    OS_PendListRemove1                       0x08005063   Thumb Code   134  os_core.o(.text)
    OS_PendListRemove                        0x080050e9   Thumb Code    48  os_core.o(.text)
    OS_PendAbort1                            0x08005119   Thumb Code    36  os_core.o(.text)
    OS_RdyListInsertHead                     0x0800513d   Thumb Code    58  os_core.o(.text)
    OS_RdyListInsertTail                     0x08005177   Thumb Code    56  os_core.o(.text)
    OS_RdyListInsert                         0x080051af   Thumb Code    40  os_core.o(.text)
    OS_TaskRdy                               0x080051d7   Thumb Code    28  os_core.o(.text)
    OS_PendAbort                             0x080051f3   Thumb Code   166  os_core.o(.text)
    OS_PendDbgNameRemove                     0x08005299   Thumb Code    34  os_core.o(.text)
    OS_PendListChangePrio                    0x080052bb   Thumb Code    70  os_core.o(.text)
    OS_PendListInit                          0x08005301   Thumb Code    10  os_core.o(.text)
    OS_PendListInsertHead                    0x0800530b   Thumb Code    32  os_core.o(.text)
    OS_PendObjDel1                           0x0800532b   Thumb Code    36  os_core.o(.text)
    OS_PendObjDel                            0x0800534f   Thumb Code   162  os_core.o(.text)
    OS_Post1                                 0x080053f1   Thumb Code    42  os_core.o(.text)
    OS_Post                                  0x0800541b   Thumb Code   192  os_core.o(.text)
    OS_Sched0                                0x080054db   Thumb Code   102  os_core.o(.text)
    OS_SchedRoundRobin                       0x08005541   Thumb Code   190  os_core.o(.text)
    OS_Dbg_Init                              0x08005611   Thumb Code   146  os_dbg.o(.text)
    OS_FlagDbgListAdd                        0x080057c1   Thumb Code    38  os_flag.o(.text)
    OSFlagCreate                             0x080057e7   Thumb Code   172  os_flag.o(.text)
    OS_FlagClr                               0x08005893   Thumb Code    28  os_flag.o(.text)
    OS_FlagDbgListRemove                     0x080058af   Thumb Code    44  os_flag.o(.text)
    OSFlagDel                                0x080058db   Thumb Code   594  os_flag.o(.text)
    OS_FlagBlock                             0x08005b2d   Thumb Code    58  os_flag.o(.text)
    OSFlagPend                               0x08005b67   Thumb Code  1488  os_flag.o(.text)
    OSFlagPendAbort                          0x08006137   Thumb Code   292  os_flag.o(.text)
    OSFlagPendGetFlagsRdy                    0x0800625b   Thumb Code    68  os_flag.o(.text)
    OS_FlagTaskRdy                           0x0800629f   Thumb Code    86  os_flag.o(.text)
    OS_FlagPost                              0x080062f5   Thumb Code   570  os_flag.o(.text)
    OSFlagPost                               0x0800652f   Thumb Code   146  os_flag.o(.text)
    OS_FlagInit                              0x080065c1   Thumb Code    14  os_flag.o(.text)
    OS_IntQPost                              0x080065e9   Thumb Code   216  os_int.o(.text)
    OS_IntQRePost                            0x080066c1   Thumb Code   360  os_int.o(.text)
    OS_IntQTask                              0x08006829   Thumb Code   162  os_int.o(.text)
    OS_IntQTaskInit                          0x080068cb   Thumb Code   208  os_int.o(.text)
    OS_MemDbgListAdd                         0x08006a2d   Thumb Code    34  os_mem.o(.text)
    OSMemCreate                              0x08006a4f   Thumb Code   288  os_mem.o(.text)
    OSMemGet                                 0x08006b6f   Thumb Code   100  os_mem.o(.text)
    OSMemPut                                 0x08006bd3   Thumb Code   112  os_mem.o(.text)
    OS_MemInit                               0x08006c43   Thumb Code    14  os_mem.o(.text)
    OS_MsgPoolCreate                         0x08006c65   Thumb Code    54  os_msg.o(.text)
    OS_MsgPoolInit                           0x08006c9b   Thumb Code    70  os_msg.o(.text)
    OS_MsgQFreeAll                           0x08006ce1   Thumb Code    62  os_msg.o(.text)
    OS_MsgQInit                              0x08006d1f   Thumb Code    14  os_msg.o(.text)
    OS_MsgQGet                               0x08006d2d   Thumb Code    98  os_msg.o(.text)
    OS_MsgQPut                               0x08006d8f   Thumb Code   246  os_msg.o(.text)
    OS_MutexDbgListAdd                       0x08006e91   Thumb Code    38  os_mutex.o(.text)
    OSMutexCreate                            0x08006eb7   Thumb Code   178  os_mutex.o(.text)
    OS_MutexClr                              0x08006f69   Thumb Code    38  os_mutex.o(.text)
    OS_MutexDbgListRemove                    0x08006f8f   Thumb Code    44  os_mutex.o(.text)
    OSMutexDel                               0x08006fbb   Thumb Code   842  os_mutex.o(.text)
    OSMutexPend                              0x08007305   Thumb Code   706  os_mutex.o(.text)
    OSMutexPendAbort                         0x080075c7   Thumb Code   314  os_mutex.o(.text)
    OSMutexPost                              0x08007701   Thumb Code   564  os_mutex.o(.text)
    OS_MutexInit                             0x08007935   Thumb Code    14  os_mutex.o(.text)
    OS_PrioInit                              0x08007965   Thumb Code    20  os_prio.o(.text)
    OS_PrioGetHighest                        0x08007979   Thumb Code    36  os_prio.o(.text)
    OS_PrioInsert                            0x0800799d   Thumb Code    32  os_prio.o(.text)
    OS_PrioRemove                            0x080079bd   Thumb Code    32  os_prio.o(.text)
    OS_QDbgListAdd                           0x080079e1   Thumb Code    38  os_q.o(.text)
    OSQCreate                                0x08007a07   Thumb Code   186  os_q.o(.text)
    OS_QClr                                  0x08007ac1   Thumb Code    40  os_q.o(.text)
    OS_QDbgListRemove                        0x08007ae9   Thumb Code    44  os_q.o(.text)
    OSQDel                                   0x08007b15   Thumb Code   362  os_q.o(.text)
    OSQFlush                                 0x08007c7f   Thumb Code   210  os_q.o(.text)
    OSQPend                                  0x08007d51   Thumb Code   538  os_q.o(.text)
    OSQPendAbort                             0x08007f6b   Thumb Code   292  os_q.o(.text)
    OS_QPost                                 0x0800808f   Thumb Code   324  os_q.o(.text)
    OSQPost                                  0x080081d3   Thumb Code   198  os_q.o(.text)
    OS_QInit                                 0x08008299   Thumb Code    14  os_q.o(.text)
    OS_SemDbgListAdd                         0x080082b9   Thumb Code    38  os_sem.o(.text)
    OSSemCreate                              0x080082df   Thumb Code   172  os_sem.o(.text)
    OS_SemClr                                0x0800838b   Thumb Code    28  os_sem.o(.text)
    OS_SemDbgListRemove                      0x080083a7   Thumb Code    44  os_sem.o(.text)
    OSSemDel                                 0x080083d3   Thumb Code   362  os_sem.o(.text)
    OSSemPend                                0x0800853d   Thumb Code   504  os_sem.o(.text)
    OSSemPendAbort                           0x08008735   Thumb Code   292  os_sem.o(.text)
    OS_SemPost                               0x08008859   Thumb Code   350  os_sem.o(.text)
    OSSemPost                                0x080089b7   Thumb Code   144  os_sem.o(.text)
    OSSemSet                                 0x08008a47   Thumb Code   138  os_sem.o(.text)
    OS_SemInit                               0x08008ad1   Thumb Code    14  os_sem.o(.text)
    OSStatReset                              0x08008ae9   Thumb Code   270  os_stat.o(.text)
    OSStatTaskCPUUsageInit                   0x08008bf7   Thumb Code   212  os_stat.o(.text)
    OS_StatTask                              0x08008ccb   Thumb Code   888  os_stat.o(.text)
    OS_StatTaskInit                          0x08009043   Thumb Code   138  os_stat.o(.text)
    OSTaskChangePrio                         0x08009121   Thumb Code   416  os_task.o(.text)
    OS_TaskDbgListAdd                        0x080092c1   Thumb Code    42  os_task.o(.text)
    OS_TaskInitTCB                           0x080092eb   Thumb Code   186  os_task.o(.text)
    OSTaskCreate                             0x080093a5   Thumb Code   616  os_task.o(.text)
    OS_TaskDbgListRemove                     0x0800960d   Thumb Code    64  os_task.o(.text)
    OSTaskDel                                0x0800964d   Thumb Code   424  os_task.o(.text)
    OSTaskQFlush                             0x080097f5   Thumb Code   214  os_task.o(.text)
    OSTaskQPend                              0x080098cb   Thumb Code   554  os_task.o(.text)
    OSTaskQPendAbort                         0x08009af5   Thumb Code   242  os_task.o(.text)
    OS_TaskQPost                             0x08009be7   Thumb Code   526  os_task.o(.text)
    OSTaskQPost                              0x08009df5   Thumb Code   114  os_task.o(.text)
    OSTaskRegGet                             0x08009e67   Thumb Code    78  os_task.o(.text)
    OSTaskRegGetID                           0x08009eb5   Thumb Code    84  os_task.o(.text)
    OSTaskRegSet                             0x08009f09   Thumb Code    78  os_task.o(.text)
    OS_TaskResume                            0x08009f57   Thumb Code   314  os_task.o(.text)
    OSTaskResume                             0x0800a091   Thumb Code   112  os_task.o(.text)
    OSTaskSemPend                            0x0800a101   Thumb Code   550  os_task.o(.text)
    OSTaskSemPendAbort                       0x0800a327   Thumb Code   270  os_task.o(.text)
    OS_TaskSemPost                           0x0800a435   Thumb Code  1224  os_task.o(.text)
    OSTaskSemPost                            0x0800a8fd   Thumb Code    98  os_task.o(.text)
    OSTaskSemSet                             0x0800a95f   Thumb Code    80  os_task.o(.text)
    OSTaskStkChk                             0x0800a9af   Thumb Code   224  os_task.o(.text)
    OS_TaskSuspend                           0x0800aa8f   Thumb Code   328  os_task.o(.text)
    OSTaskSuspend                            0x0800abd7   Thumb Code    78  os_task.o(.text)
    OSTaskTimeQuantaSet                      0x0800ac25   Thumb Code    96  os_task.o(.text)
    OS_TaskInit                              0x0800ac85   Thumb Code    18  os_task.o(.text)
    OS_TaskReturn                            0x0800ac97   Thumb Code    20  os_task.o(.text)
    OS_TickListRemove                        0x0800acd5   Thumb Code    56  os_tick.o(.text)
    OS_TickListUpdate                        0x0800ad0d   Thumb Code   480  os_tick.o(.text)
    OS_TickTask                              0x0800aeed   Thumb Code    38  os_tick.o(.text)
    OS_TickListInit                          0x0800af13   Thumb Code    32  os_tick.o(.text)
    OS_TickTaskInit                          0x0800af33   Thumb Code   130  os_tick.o(.text)
    OS_TickListInsert                        0x0800afb5   Thumb Code   502  os_tick.o(.text)
    OS_TickListResetPeak                     0x0800b1ab   Thumb Code    28  os_tick.o(.text)
    OSTimeDly                                0x0800b1d1   Thumb Code   266  os_time.o(.text)
    OSTimeDlyHMSM                            0x0800b2db   Thumb Code   480  os_time.o(.text)
    OSTimeDlyResume                          0x0800b4bb   Thumb Code   466  os_time.o(.text)
    OSTimeGet                                0x0800b68d   Thumb Code    46  os_time.o(.text)
    OSTimeSet                                0x0800b6bb   Thumb Code    46  os_time.o(.text)
    OSTimeTick                               0x0800b6e9   Thumb Code    54  os_time.o(.text)
    OS_TmrDbgListAdd                         0x0800b735   Thumb Code    34  os_tmr.o(.text)
    OSTmrCreate                              0x0800b757   Thumb Code   248  os_tmr.o(.text)
    OS_TmrClr                                0x0800b84f   Thumb Code    36  os_tmr.o(.text)
    OS_TmrUnlink                             0x0800b873   Thumb Code    72  os_tmr.o(.text)
    OS_TmrDbgListRemove                      0x0800b8bb   Thumb Code    44  os_tmr.o(.text)
    OSTmrDel                                 0x0800b8e7   Thumb Code   176  os_tmr.o(.text)
    OSTmrRemainGet                           0x0800b997   Thumb Code   184  os_tmr.o(.text)
    OS_TmrLink                               0x0800ba4f   Thumb Code   196  os_tmr.o(.text)
    OSTmrStart                               0x0800bb13   Thumb Code   210  os_tmr.o(.text)
    OSTmrStateGet                            0x0800bbe5   Thumb Code   134  os_tmr.o(.text)
    OSTmrStop                                0x0800bc6b   Thumb Code   232  os_tmr.o(.text)
    OS_TmrTask                               0x0800bd53   Thumb Code   176  os_tmr.o(.text)
    OS_TmrInit                               0x0800be03   Thumb Code   208  os_tmr.o(.text)
    OS_TmrResetPeak                          0x0800bed3   Thumb Code    28  os_tmr.o(.text)
    OSIdleTaskHook                           0x0800bf4d   Thumb Code    16  os_cpu_c.o(.text)
    OSInitHook                               0x0800bf5d   Thumb Code    42  os_cpu_c.o(.text)
    OSStatTaskHook                           0x0800bf87   Thumb Code    16  os_cpu_c.o(.text)
    OSTaskCreateHook                         0x0800bf97   Thumb Code    20  os_cpu_c.o(.text)
    OSTaskDelHook                            0x0800bfab   Thumb Code    20  os_cpu_c.o(.text)
    OSTaskReturnHook                         0x0800bfbf   Thumb Code    20  os_cpu_c.o(.text)
    OSTaskStkInit                            0x0800bfd3   Thumb Code   188  os_cpu_c.o(.text)
    OSTaskSwHook                             0x0800c08f   Thumb Code   120  os_cpu_c.o(.text)
    OSTimeTickHook                           0x0800c107   Thumb Code    16  os_cpu_c.o(.text)
    OS_CPU_SysTickHandler                    0x0800c117   Thumb Code    52  os_cpu_c.o(.text)
    OS_CPU_SysTickInit                       0x0800c14b   Thumb Code    44  os_cpu_c.o(.text)
    __use_no_semihosting                     0x0800c1b9   Thumb Code     2  use_no_semi_2.o(.text)
    __aeabi_uldivmod                         0x0800c1bb   Thumb Code     0  lludivv7m.o(.text)
    _ll_udiv                                 0x0800c1bb   Thumb Code   238  lludivv7m.o(.text)
    __2printf                                0x0800c2a9   Thumb Code    20  noretval__2printf.o(.text)
    __printf                                 0x0800c2c1   Thumb Code   104  __printf.o(.text)
    _printf_int_dec                          0x0800c329   Thumb Code   104  _printf_dec.o(.text)
    _printf_int_hex                          0x0800c3a1   Thumb Code    84  _printf_hex_int.o(.text)
    _printf_longlong_hex                     0x0800c3a1   Thumb Code     0  _printf_hex_int.o(.text)
    __use_two_region_memory                  0x0800c3f9   Thumb Code     2  heapauxi.o(.text)
    __rt_heap_escrow$2region                 0x0800c3fb   Thumb Code     2  heapauxi.o(.text)
    __rt_heap_expand$2region                 0x0800c3fd   Thumb Code     2  heapauxi.o(.text)
    __I$use$semihosting                      0x0800c3ff   Thumb Code     0  use_no_semi.o(.text)
    __use_no_semihosting_swi                 0x0800c3ff   Thumb Code     2  use_no_semi.o(.text)
    _printf_int_common                       0x0800c401   Thumb Code   178  _printf_intcommon.o(.text)
    _printf_char_file                        0x0800c4b5   Thumb Code    32  _printf_char_file.o(.text)
    _printf_char_common                      0x0800c4e3   Thumb Code    32  _printf_char_common.o(.text)
    ferror                                   0x0800c509   Thumb Code     8  ferror.o(.text)
    __user_setup_stackheap                   0x0800c511   Thumb Code    74  sys_stackheap_outer.o(.text)
    exit                                     0x0800c55b   Thumb Code    18  exit.o(.text)
    __user_libspace                          0x0800c56d   Thumb Code     8  libspace.o(.text)
    __user_perproc_libspace                  0x0800c56d   Thumb Code     0  libspace.o(.text)
    __user_perthread_libspace                0x0800c56d   Thumb Code     0  libspace.o(.text)
    OSStartHighRdy                           0x0800c575   Thumb Code     0  os_cpu_a.o(CODE)
    PendSV_Handler                           0x0800c5ab   Thumb Code     0  os_cpu_a.o(CODE)
    ascii_1206                               0x0800c60c   Data        1140  tftlcd.o(.constdata)
    ascii_1608                               0x0800ca80   Data        1520  tftlcd.o(.constdata)
    ascii_2412                               0x0800d070   Data        3420  tftlcd.o(.constdata)
    CnChar32x29                              0x0800ddcc   Data        1062  tftlcd.o(.constdata)
    CPU_EndiannessTest                       0x0800e2f4   Data           4  cpu_core.o(.constdata)
    OSCfg_IdleTaskStkBasePtr                 0x0800e38c   Data           4  os_cfg_app.o(.constdata)
    OSCfg_IdleTaskStkLimit                   0x0800e390   Data           4  os_cfg_app.o(.constdata)
    OSCfg_IdleTaskStkSize                    0x0800e394   Data           4  os_cfg_app.o(.constdata)
    OSCfg_IdleTaskStkSizeRAM                 0x0800e398   Data           4  os_cfg_app.o(.constdata)
    OSCfg_IntQBasePtr                        0x0800e39c   Data           4  os_cfg_app.o(.constdata)
    OSCfg_IntQSize                           0x0800e3a0   Data           2  os_cfg_app.o(.constdata)
    OSCfg_IntQSizeRAM                        0x0800e3a4   Data           4  os_cfg_app.o(.constdata)
    OSCfg_IntQTaskStkBasePtr                 0x0800e3a8   Data           4  os_cfg_app.o(.constdata)
    OSCfg_IntQTaskStkLimit                   0x0800e3ac   Data           4  os_cfg_app.o(.constdata)
    OSCfg_IntQTaskStkSize                    0x0800e3b0   Data           4  os_cfg_app.o(.constdata)
    OSCfg_IntQTaskStkSizeRAM                 0x0800e3b4   Data           4  os_cfg_app.o(.constdata)
    OSCfg_ISRStkBasePtr                      0x0800e3b8   Data           4  os_cfg_app.o(.constdata)
    OSCfg_ISRStkSize                         0x0800e3bc   Data           4  os_cfg_app.o(.constdata)
    OSCfg_ISRStkSizeRAM                      0x0800e3c0   Data           4  os_cfg_app.o(.constdata)
    OSCfg_MsgPoolSize                        0x0800e3c4   Data           2  os_cfg_app.o(.constdata)
    OSCfg_MsgPoolSizeRAM                     0x0800e3c8   Data           4  os_cfg_app.o(.constdata)
    OSCfg_MsgPoolBasePtr                     0x0800e3cc   Data           4  os_cfg_app.o(.constdata)
    OSCfg_StatTaskPrio                       0x0800e3d0   Data           1  os_cfg_app.o(.constdata)
    OSCfg_StatTaskRate_Hz                    0x0800e3d4   Data           4  os_cfg_app.o(.constdata)
    OSCfg_StatTaskStkBasePtr                 0x0800e3d8   Data           4  os_cfg_app.o(.constdata)
    OSCfg_StatTaskStkLimit                   0x0800e3dc   Data           4  os_cfg_app.o(.constdata)
    OSCfg_StatTaskStkSize                    0x0800e3e0   Data           4  os_cfg_app.o(.constdata)
    OSCfg_StatTaskStkSizeRAM                 0x0800e3e4   Data           4  os_cfg_app.o(.constdata)
    OSCfg_StkSizeMin                         0x0800e3e8   Data           4  os_cfg_app.o(.constdata)
    OSCfg_TickRate_Hz                        0x0800e3ec   Data           4  os_cfg_app.o(.constdata)
    OSCfg_TickTaskPrio                       0x0800e3f0   Data           1  os_cfg_app.o(.constdata)
    OSCfg_TickTaskStkBasePtr                 0x0800e3f4   Data           4  os_cfg_app.o(.constdata)
    OSCfg_TickTaskStkLimit                   0x0800e3f8   Data           4  os_cfg_app.o(.constdata)
    OSCfg_TickTaskStkSize                    0x0800e3fc   Data           4  os_cfg_app.o(.constdata)
    OSCfg_TickTaskStkSizeRAM                 0x0800e400   Data           4  os_cfg_app.o(.constdata)
    OSCfg_TickWheelSize                      0x0800e404   Data           2  os_cfg_app.o(.constdata)
    OSCfg_TickWheelSizeRAM                   0x0800e408   Data           4  os_cfg_app.o(.constdata)
    OSCfg_TmrTaskPrio                        0x0800e40c   Data           1  os_cfg_app.o(.constdata)
    OSCfg_TmrTaskRate_Hz                     0x0800e410   Data           4  os_cfg_app.o(.constdata)
    OSCfg_TmrTaskStkBasePtr                  0x0800e414   Data           4  os_cfg_app.o(.constdata)
    OSCfg_TmrTaskStkLimit                    0x0800e418   Data           4  os_cfg_app.o(.constdata)
    OSCfg_TmrTaskStkSize                     0x0800e41c   Data           4  os_cfg_app.o(.constdata)
    OSCfg_TmrTaskStkSizeRAM                  0x0800e420   Data           4  os_cfg_app.o(.constdata)
    OSCfg_TmrWheelSize                       0x0800e424   Data           2  os_cfg_app.o(.constdata)
    OSCfg_TmrWheelSizeRAM                    0x0800e428   Data           4  os_cfg_app.o(.constdata)
    OSCfg_DataSizeRAM                        0x0800e42c   Data           4  os_cfg_app.o(.constdata)
    OSDbg_DbgEn                              0x0800e430   Data           2  os_dbg.o(.constdata)
    OSDbg_ArgChkEn                           0x0800e432   Data           1  os_dbg.o(.constdata)
    OSDbg_AppHooksEn                         0x0800e433   Data           1  os_dbg.o(.constdata)
    OSDbg_EndiannessTest                     0x0800e434   Data           4  os_dbg.o(.constdata)
    OSDbg_CalledFromISRChkEn                 0x0800e438   Data           1  os_dbg.o(.constdata)
    OSDbg_FlagEn                             0x0800e439   Data           1  os_dbg.o(.constdata)
    OSDbg_FlagGrp                            0x0800e43c   Data          40  os_dbg.o(.constdata)
    OSDbg_FlagDelEn                          0x0800e464   Data           1  os_dbg.o(.constdata)
    OSDbg_FlagModeClrEn                      0x0800e465   Data           1  os_dbg.o(.constdata)
    OSDbg_FlagPendAbortEn                    0x0800e466   Data           1  os_dbg.o(.constdata)
    OSDbg_FlagGrpSize                        0x0800e468   Data           2  os_dbg.o(.constdata)
    OSDbg_FlagWidth                          0x0800e46a   Data           2  os_dbg.o(.constdata)
    OSDbg_IntQ                               0x0800e46c   Data           2  os_dbg.o(.constdata)
    OSDbg_ISRPostDeferredEn                  0x0800e46e   Data           1  os_dbg.o(.constdata)
    OSDbg_Mem                                0x0800e470   Data          32  os_dbg.o(.constdata)
    OSDbg_MemEn                              0x0800e490   Data           1  os_dbg.o(.constdata)
    OSDbg_MemSize                            0x0800e492   Data           2  os_dbg.o(.constdata)
    OSDbg_MsgEn                              0x0800e494   Data           1  os_dbg.o(.constdata)
    OSDbg_MsgSize                            0x0800e496   Data           2  os_dbg.o(.constdata)
    OSDbg_MsgPoolSize                        0x0800e498   Data           2  os_dbg.o(.constdata)
    OSDbg_MsgQSize                           0x0800e49a   Data           2  os_dbg.o(.constdata)
    OSDbg_Mutex                              0x0800e49c   Data          44  os_dbg.o(.constdata)
    OSDbg_MutexEn                            0x0800e4c8   Data           1  os_dbg.o(.constdata)
    OSDbg_MutexDelEn                         0x0800e4c9   Data           1  os_dbg.o(.constdata)
    OSDbg_MutexPendAbortEn                   0x0800e4ca   Data           1  os_dbg.o(.constdata)
    OSDbg_MutexSize                          0x0800e4cc   Data           2  os_dbg.o(.constdata)
    OSDbg_ObjTypeChkEn                       0x0800e4ce   Data           1  os_dbg.o(.constdata)
    OSDbg_PendMultiEn                        0x0800e4cf   Data           1  os_dbg.o(.constdata)
    OSDbg_PendDataSize                       0x0800e4d0   Data           2  os_dbg.o(.constdata)
    OSDbg_PendListSize                       0x0800e4d2   Data           2  os_dbg.o(.constdata)
    OSDbg_PendObjSize                        0x0800e4d4   Data           2  os_dbg.o(.constdata)
    OSDbg_PrioMax                            0x0800e4d6   Data           2  os_dbg.o(.constdata)
    OSDbg_PrioTblSize                        0x0800e4d8   Data           2  os_dbg.o(.constdata)
    OSDbg_PtrSize                            0x0800e4da   Data           2  os_dbg.o(.constdata)
    OSDbg_Q                                  0x0800e4dc   Data          48  os_dbg.o(.constdata)
    OSDbg_QEn                                0x0800e50c   Data           1  os_dbg.o(.constdata)
    OSDbg_QDelEn                             0x0800e50d   Data           1  os_dbg.o(.constdata)
    OSDbg_QFlushEn                           0x0800e50e   Data           1  os_dbg.o(.constdata)
    OSDbg_QPendAbortEn                       0x0800e50f   Data           1  os_dbg.o(.constdata)
    OSDbg_QSize                              0x0800e510   Data           2  os_dbg.o(.constdata)
    OSDbg_SchedRoundRobinEn                  0x0800e512   Data           1  os_dbg.o(.constdata)
    OSDbg_Sem                                0x0800e514   Data          40  os_dbg.o(.constdata)
    OSDbg_SemEn                              0x0800e53c   Data           1  os_dbg.o(.constdata)
    OSDbg_SemDelEn                           0x0800e53d   Data           1  os_dbg.o(.constdata)
    OSDbg_SemPendAbortEn                     0x0800e53e   Data           1  os_dbg.o(.constdata)
    OSDbg_SemSetEn                           0x0800e53f   Data           1  os_dbg.o(.constdata)
    OSDbg_SemSize                            0x0800e540   Data           2  os_dbg.o(.constdata)
    OSDbg_RdyList                            0x0800e542   Data           2  os_dbg.o(.constdata)
    OSDbg_RdyListSize                        0x0800e544   Data           4  os_dbg.o(.constdata)
    OSDbg_StkWidth                           0x0800e548   Data           1  os_dbg.o(.constdata)
    OSDbg_StatTaskEn                         0x0800e549   Data           1  os_dbg.o(.constdata)
    OSDbg_StatTaskStkChkEn                   0x0800e54a   Data           1  os_dbg.o(.constdata)
    OSDbg_TaskChangePrioEn                   0x0800e54b   Data           1  os_dbg.o(.constdata)
    OSDbg_TaskDelEn                          0x0800e54c   Data           1  os_dbg.o(.constdata)
    OSDbg_TaskQEn                            0x0800e54d   Data           1  os_dbg.o(.constdata)
    OSDbg_TaskQPendAbortEn                   0x0800e54e   Data           1  os_dbg.o(.constdata)
    OSDbg_TaskProfileEn                      0x0800e54f   Data           1  os_dbg.o(.constdata)
    OSDbg_TaskRegTblSize                     0x0800e550   Data           2  os_dbg.o(.constdata)
    OSDbg_TaskSemPendAbortEn                 0x0800e552   Data           1  os_dbg.o(.constdata)
    OSDbg_TaskSuspendEn                      0x0800e553   Data           1  os_dbg.o(.constdata)
    OSDbg_TCBSize                            0x0800e554   Data           2  os_dbg.o(.constdata)
    OSDbg_TickSpokeSize                      0x0800e556   Data           2  os_dbg.o(.constdata)
    OSDbg_TimeDlyHMSMEn                      0x0800e558   Data           1  os_dbg.o(.constdata)
    OSDbg_TimeDlyResumeEn                    0x0800e559   Data           1  os_dbg.o(.constdata)
    OSDbg_TLS_TblSize                        0x0800e55a   Data           2  os_dbg.o(.constdata)
    OSDbg_Tmr                                0x0800e55c   Data          52  os_dbg.o(.constdata)
    OSDbg_TmrEn                              0x0800e590   Data           1  os_dbg.o(.constdata)
    OSDbg_TmrDelEn                           0x0800e591   Data           1  os_dbg.o(.constdata)
    OSDbg_TmrSize                            0x0800e592   Data           2  os_dbg.o(.constdata)
    OSDbg_TmrSpokeSize                       0x0800e594   Data           2  os_dbg.o(.constdata)
    OSDbg_VersionNbr                         0x0800e596   Data           2  os_dbg.o(.constdata)
    OSDbg_DataSize                           0x0800e598   Data           4  os_dbg.o(.constdata)
    Region$$Table$$Base                      0x0800e5c4   Number         0  anon$$obj.o(Region$$Table)
    Region$$Table$$Limit                     0x0800e5e4   Number         0  anon$$obj.o(Region$$Table)
    lcd_discolor                             0x20000000   Data          56  main.o(.data)
    SystemCoreClock                          0x20000038   Data           4  system_stm32f10x.o(.data)
    AHBPrescTable                            0x2000003c   Data          16  system_stm32f10x.o(.data)
    FRONT_COLOR                              0x2000004c   Data           2  tftlcd.o(.data)
    BACK_COLOR                               0x2000004e   Data           2  tftlcd.o(.data)
    tftlcd_data                              0x20000050   Data           8  tftlcd.o(.data)
    __stdout                                 0x20000060   Data           4  usart.o(.data)
    USART_RX_STA                             0x20000064   Data           2  usart.o(.data)
    CPU_TS_TmrFreq_Hz                        0x2000007c   Data           4  cpu_core.o(.data)
    Mem_PoolTbl                              0x20000080   Data           4  lib_mem.o(.data)
    OSPrioTbl                                0x20000084   Data           8  os_prio.o(.data)
    OS_AppTaskCreateHookPtr                  0x2000008c   Data           4  os_var.o(.data)
    OS_AppTaskDelHookPtr                     0x20000090   Data           4  os_var.o(.data)
    OS_AppTaskReturnHookPtr                  0x20000094   Data           4  os_var.o(.data)
    OS_AppIdleTaskHookPtr                    0x20000098   Data           4  os_var.o(.data)
    OS_AppStatTaskHookPtr                    0x2000009c   Data           4  os_var.o(.data)
    OS_AppTaskSwHookPtr                      0x200000a0   Data           4  os_var.o(.data)
    OS_AppTimeTickHookPtr                    0x200000a4   Data           4  os_var.o(.data)
    OSIdleTaskCtr                            0x200000a8   Data           4  os_var.o(.data)
    OSIntNestingCtr                          0x200000ac   Data           1  os_var.o(.data)
    OSRunning                                0x200000ad   Data           1  os_var.o(.data)
    OSIntQInPtr                              0x200000b0   Data           4  os_var.o(.data)
    OSIntQOutPtr                             0x200000b4   Data           4  os_var.o(.data)
    OSIntQNbrEntries                         0x200000b8   Data           2  os_var.o(.data)
    OSIntQNbrEntriesMax                      0x200000ba   Data           2  os_var.o(.data)
    OSIntQOvfCtr                             0x200000bc   Data           2  os_var.o(.data)
    OSIntQTaskTimeMax                        0x200000c0   Data           4  os_var.o(.data)
    OSFlagDbgListPtr                         0x200000c4   Data           4  os_var.o(.data)
    OSFlagQty                                0x200000c8   Data           2  os_var.o(.data)
    OSMemDbgListPtr                          0x200000cc   Data           4  os_var.o(.data)
    OSMemQty                                 0x200000d0   Data           2  os_var.o(.data)
    OSMutexDbgListPtr                        0x200000d4   Data           4  os_var.o(.data)
    OSMutexQty                               0x200000d8   Data           2  os_var.o(.data)
    OSPrioCur                                0x200000da   Data           1  os_var.o(.data)
    OSPrioHighRdy                            0x200000db   Data           1  os_var.o(.data)
    OSPrioSaved                              0x200000dc   Data           1  os_var.o(.data)
    OSQDbgListPtr                            0x200000e0   Data           4  os_var.o(.data)
    OSQQty                                   0x200000e4   Data           2  os_var.o(.data)
    OSSchedLockTimeBegin                     0x200000e8   Data           4  os_var.o(.data)
    OSSchedLockTimeMax                       0x200000ec   Data           4  os_var.o(.data)
    OSSchedLockTimeMaxCur                    0x200000f0   Data           4  os_var.o(.data)
    OSSchedLockNestingCtr                    0x200000f4   Data           1  os_var.o(.data)
    OSSchedRoundRobinDfltTimeQuanta          0x200000f8   Data           4  os_var.o(.data)
    OSSchedRoundRobinEn                      0x200000fc   Data           1  os_var.o(.data)
    OSSemDbgListPtr                          0x20000100   Data           4  os_var.o(.data)
    OSSemQty                                 0x20000104   Data           2  os_var.o(.data)
    OSStatResetFlag                          0x20000106   Data           1  os_var.o(.data)
    OSStatTaskCPUUsage                       0x20000108   Data           2  os_var.o(.data)
    OSStatTaskCPUUsageMax                    0x2000010a   Data           2  os_var.o(.data)
    OSStatTaskCtr                            0x2000010c   Data           4  os_var.o(.data)
    OSStatTaskCtrMax                         0x20000110   Data           4  os_var.o(.data)
    OSStatTaskCtrRun                         0x20000114   Data           4  os_var.o(.data)
    OSStatTaskRdy                            0x20000118   Data           1  os_var.o(.data)
    OSStatTaskTimeMax                        0x2000011c   Data           4  os_var.o(.data)
    OSTaskCtxSwCtr                           0x20000120   Data           4  os_var.o(.data)
    OSTaskDbgListPtr                         0x20000124   Data           4  os_var.o(.data)
    OSTaskQty                                0x20000128   Data           2  os_var.o(.data)
    OSTaskRegNextAvailID                     0x2000012a   Data           1  os_var.o(.data)
    OSTickCtr                                0x2000012c   Data           4  os_var.o(.data)
    OSTickTaskTimeMax                        0x20000130   Data           4  os_var.o(.data)
    OSTmrDbgListPtr                          0x20000134   Data           4  os_var.o(.data)
    OSTmrQty                                 0x20000138   Data           2  os_var.o(.data)
    OSTmrTaskTimeMax                         0x2000013c   Data           4  os_var.o(.data)
    OSTmrTickCtr                             0x20000140   Data           4  os_var.o(.data)
    OSTmrUpdateCnt                           0x20000144   Data           4  os_var.o(.data)
    OSTmrUpdateCtr                           0x20000148   Data           4  os_var.o(.data)
    OSTCBCurPtr                              0x2000014c   Data           4  os_var.o(.data)
    OSTCBHighRdyPtr                          0x20000150   Data           4  os_var.o(.data)
    OS_CPU_ExceptStkBase                     0x20000154   Data           4  os_cpu_c.o(.data)
    StartTaskTCB                             0x20000158   Data         196  main.o(.bss)
    START_TASK_STK                           0x2000021c   Data         512  main.o(.bss)
    Main_TaskTCB                             0x2000041c   Data         196  main.o(.bss)
    MAIN_TASK_STK                            0x200004e0   Data         256  main.o(.bss)
    FlagsProcessTaskTCB                      0x200005e0   Data         196  main.o(.bss)
    FlagsProcess_TASK_STK                    0x200006a4   Data         256  main.o(.bss)
    tmr1                                     0x200007a4   Data          52  main.o(.bss)
    tmr2                                     0x200007d8   Data          52  main.o(.bss)
    EventFlags                               0x2000080c   Data          40  main.o(.bss)
    USART_RX_BUF                             0x20000834   Data         200  usart.o(.bss)
    CPU_Name                                 0x200008fc   Data          16  cpu_core.o(.bss)
    Mem_PoolHeap                             0x2000090c   Data          72  lib_mem.o(.bss)
    Mem_Heap                                 0x20000954   Data        1024  lib_mem.o(.bss)
    OSCfg_IdleTaskStk                        0x20000d54   Data         512  os_cfg_app.o(.bss)
    OSCfg_IntQ                               0x20000f54   Data         320  os_cfg_app.o(.bss)
    OSCfg_IntQTaskStk                        0x20001094   Data         512  os_cfg_app.o(.bss)
    OSCfg_ISRStk                             0x20001294   Data         512  os_cfg_app.o(.bss)
    OSCfg_MsgPool                            0x20001494   Data        1600  os_cfg_app.o(.bss)
    OSCfg_StatTaskStk                        0x20001ad4   Data         512  os_cfg_app.o(.bss)
    OSCfg_TickTaskStk                        0x20001cd4   Data         512  os_cfg_app.o(.bss)
    OSCfg_TickWheel                          0x20001ed4   Data         136  os_cfg_app.o(.bss)
    OSCfg_TmrTaskStk                         0x20001f5c   Data         512  os_cfg_app.o(.bss)
    OSCfg_TmrWheel                           0x2000215c   Data         136  os_cfg_app.o(.bss)
    OSIdleTaskTCB                            0x200021e4   Data         196  os_var.o(.bss)
    OSIntQTaskTCB                            0x200022a8   Data         196  os_var.o(.bss)
    OSMsgPool                                0x2000236c   Data          12  os_var.o(.bss)
    OSRdyList                                0x20002378   Data         768  os_var.o(.bss)
    OSStatTaskTCB                            0x20002678   Data         196  os_var.o(.bss)
    OSTickTaskTCB                            0x2000273c   Data         196  os_var.o(.bss)
    OSTmrTaskTCB                             0x20002800   Data         196  os_var.o(.bss)
    __libspace_start                         0x200028c4   Data          96  libspace.o(.bss)
    __temporary_stack_top$libspace           0x20002924   Data           0  libspace.o(.bss)



==============================================================================

Memory Map of the image

  Image Entry point : 0x08000131

  Load Region LR_IROM1 (Base: 0x08000000, Size: 0x0000e73c, Max: 0x00080000, ABSOLUTE, COMPRESSED[0x0000e624])

    Execution Region ER_IROM1 (Exec base: 0x08000000, Load base: 0x08000000, Size: 0x0000e5e4, Max: 0x00080000, ABSOLUTE)

    Exec Addr    Load Addr    Size         Type   Attr      Idx    E Section Name        Object

    0x08000000   0x08000000   0x00000130   Data   RO          322    RESET               startup_stm32f10x_hd.o
    0x08000130   0x08000130   0x00000008   Code   RO          846  * !!!main             c_w.l(__main.o)
    0x08000138   0x08000138   0x00000034   Code   RO         1026    !!!scatter          c_w.l(__scatter.o)
    0x0800016c   0x0800016c   0x0000005a   Code   RO         1024    !!dczerorl2         c_w.l(__dczerorl2.o)
    0x080001c6   0x080001c6   0x00000002   PAD
    0x080001c8   0x080001c8   0x0000001c   Code   RO         1028    !!handler_zi        c_w.l(__scatter_zi.o)
    0x080001e4   0x080001e4   0x00000000   Code   RO          843    .ARM.Collect$$_printf_percent$$00000000  c_w.l(_printf_percent.o)
    0x080001e4   0x080001e4   0x00000006   Code   RO          842    .ARM.Collect$$_printf_percent$$00000009  c_w.l(_printf_d.o)
    0x080001ea   0x080001ea   0x00000006   Code   RO          841    .ARM.Collect$$_printf_percent$$0000000C  c_w.l(_printf_x.o)
    0x080001f0   0x080001f0   0x00000004   Code   RO          859    .ARM.Collect$$_printf_percent$$00000017  c_w.l(_printf_percent_end.o)
    0x080001f4   0x080001f4   0x00000002   Code   RO          898    .ARM.Collect$$libinit$$00000000  c_w.l(libinit.o)
    0x080001f6   0x080001f6   0x00000000   Code   RO          911    .ARM.Collect$$libinit$$00000002  c_w.l(libinit2.o)
    0x080001f6   0x080001f6   0x00000000   Code   RO          913    .ARM.Collect$$libinit$$00000004  c_w.l(libinit2.o)
    0x080001f6   0x080001f6   0x00000000   Code   RO          916    .ARM.Collect$$libinit$$0000000A  c_w.l(libinit2.o)
    0x080001f6   0x080001f6   0x00000000   Code   RO          918    .ARM.Collect$$libinit$$0000000C  c_w.l(libinit2.o)
    0x080001f6   0x080001f6   0x00000000   Code   RO          920    .ARM.Collect$$libinit$$0000000E  c_w.l(libinit2.o)
    0x080001f6   0x080001f6   0x00000000   Code   RO          923    .ARM.Collect$$libinit$$00000011  c_w.l(libinit2.o)
    0x080001f6   0x080001f6   0x00000000   Code   RO          925    .ARM.Collect$$libinit$$00000013  c_w.l(libinit2.o)
    0x080001f6   0x080001f6   0x00000000   Code   RO          927    .ARM.Collect$$libinit$$00000015  c_w.l(libinit2.o)
    0x080001f6   0x080001f6   0x00000000   Code   RO          929    .ARM.Collect$$libinit$$00000017  c_w.l(libinit2.o)
    0x080001f6   0x080001f6   0x00000000   Code   RO          931    .ARM.Collect$$libinit$$00000019  c_w.l(libinit2.o)
    0x080001f6   0x080001f6   0x00000000   Code   RO          933    .ARM.Collect$$libinit$$0000001B  c_w.l(libinit2.o)
    0x080001f6   0x080001f6   0x00000000   Code   RO          935    .ARM.Collect$$libinit$$0000001D  c_w.l(libinit2.o)
    0x080001f6   0x080001f6   0x00000000   Code   RO          937    .ARM.Collect$$libinit$$0000001F  c_w.l(libinit2.o)
    0x080001f6   0x080001f6   0x00000000   Code   RO          939    .ARM.Collect$$libinit$$00000021  c_w.l(libinit2.o)
    0x080001f6   0x080001f6   0x00000000   Code   RO          941    .ARM.Collect$$libinit$$00000023  c_w.l(libinit2.o)
    0x080001f6   0x080001f6   0x00000000   Code   RO          943    .ARM.Collect$$libinit$$00000025  c_w.l(libinit2.o)
    0x080001f6   0x080001f6   0x00000000   Code   RO          947    .ARM.Collect$$libinit$$0000002C  c_w.l(libinit2.o)
    0x080001f6   0x080001f6   0x00000000   Code   RO          949    .ARM.Collect$$libinit$$0000002E  c_w.l(libinit2.o)
    0x080001f6   0x080001f6   0x00000000   Code   RO          951    .ARM.Collect$$libinit$$00000030  c_w.l(libinit2.o)
    0x080001f6   0x080001f6   0x00000000   Code   RO          953    .ARM.Collect$$libinit$$00000032  c_w.l(libinit2.o)
    0x080001f6   0x080001f6   0x00000002   Code   RO          954    .ARM.Collect$$libinit$$00000033  c_w.l(libinit2.o)
    0x080001f8   0x080001f8   0x00000002   Code   RO          980    .ARM.Collect$$libshutdown$$00000000  c_w.l(libshutdown.o)
    0x080001fa   0x080001fa   0x00000000   Code   RO         1007    .ARM.Collect$$libshutdown$$00000002  c_w.l(libshutdown2.o)
    0x080001fa   0x080001fa   0x00000000   Code   RO         1009    .ARM.Collect$$libshutdown$$00000004  c_w.l(libshutdown2.o)
    0x080001fa   0x080001fa   0x00000000   Code   RO         1012    .ARM.Collect$$libshutdown$$00000007  c_w.l(libshutdown2.o)
    0x080001fa   0x080001fa   0x00000000   Code   RO         1015    .ARM.Collect$$libshutdown$$0000000A  c_w.l(libshutdown2.o)
    0x080001fa   0x080001fa   0x00000000   Code   RO         1017    .ARM.Collect$$libshutdown$$0000000C  c_w.l(libshutdown2.o)
    0x080001fa   0x080001fa   0x00000000   Code   RO         1020    .ARM.Collect$$libshutdown$$0000000F  c_w.l(libshutdown2.o)
    0x080001fa   0x080001fa   0x00000002   Code   RO         1021    .ARM.Collect$$libshutdown$$00000010  c_w.l(libshutdown2.o)
    0x080001fc   0x080001fc   0x00000000   Code   RO          850    .ARM.Collect$$rtentry$$00000000  c_w.l(__rtentry.o)
    0x080001fc   0x080001fc   0x00000000   Code   RO          861    .ARM.Collect$$rtentry$$00000002  c_w.l(__rtentry2.o)
    0x080001fc   0x080001fc   0x00000006   Code   RO          873    .ARM.Collect$$rtentry$$00000004  c_w.l(__rtentry4.o)
    0x08000202   0x08000202   0x00000000   Code   RO          863    .ARM.Collect$$rtentry$$00000009  c_w.l(__rtentry2.o)
    0x08000202   0x08000202   0x00000004   Code   RO          864    .ARM.Collect$$rtentry$$0000000A  c_w.l(__rtentry2.o)
    0x08000206   0x08000206   0x00000000   Code   RO          866    .ARM.Collect$$rtentry$$0000000C  c_w.l(__rtentry2.o)
    0x08000206   0x08000206   0x00000008   Code   RO          867    .ARM.Collect$$rtentry$$0000000D  c_w.l(__rtentry2.o)
    0x0800020e   0x0800020e   0x00000002   Code   RO          902    .ARM.Collect$$rtexit$$00000000  c_w.l(rtexit.o)
    0x08000210   0x08000210   0x00000000   Code   RO          956    .ARM.Collect$$rtexit$$00000002  c_w.l(rtexit2.o)
    0x08000210   0x08000210   0x00000004   Code   RO          957    .ARM.Collect$$rtexit$$00000003  c_w.l(rtexit2.o)
    0x08000214   0x08000214   0x00000006   Code   RO          958    .ARM.Collect$$rtexit$$00000004  c_w.l(rtexit2.o)
    0x0800021a   0x0800021a   0x00000002   PAD
    0x0800021c   0x0800021c   0x000004b0   Code   RO            1    .text               main.o
    0x080006cc   0x080006cc   0x00000016   Code   RO          152    .text               stm32f10x_it.o
    0x080006e2   0x080006e2   0x00000002   PAD
    0x080006e4   0x080006e4   0x000001e0   Code   RO          184    .text               system_stm32f10x.o
    0x080008c4   0x080008c4   0x0000004c   Code   RO          202    .text               led.o
    0x08000910   0x08000910   0x00000d6c   Code   RO          214    .text               tftlcd.o
    0x0800167c   0x0800167c   0x000000fc   Code   RO          243    .text               key.o
    0x08001778   0x08001778   0x0000014c   Code   RO          256    .text               delay.o
    0x080018c4   0x080018c4   0x00000150   Code   RO          287    .text               usart.o
    0x08001a14   0x08001a14   0x00000040   Code   RO          323    .text               startup_stm32f10x_hd.o
    0x08001a54   0x08001a54   0x000000dc   Code   RO          327    .text               misc.o
    0x08001b30   0x08001b30   0x0000035c   Code   RO          339    .text               stm32f10x_gpio.o
    0x08001e8c   0x08001e8c   0x00000408   Code   RO          351    .text               stm32f10x_usart.o
    0x08002294   0x08002294   0x000003a4   Code   RO          363    .text               stm32f10x_rcc.o
    0x08002638   0x08002638   0x0000060c   Code   RO          377    .text               stm32f10x_fsmc.o
    0x08002c44   0x08002c44   0x00000084   Code   RO          389    .text               bsp.o
    0x08002cc8   0x08002cc8   0x000002a8   Code   RO          404    .text               cpu_core.o
    0x08002f70   0x08002f70   0x00000034   Code   RO          442    .text               cpu_a.o
    0x08002fa4   0x08002fa4   0x00000256   Code   RO          445    .text               lib_ascii.o
    0x080031fa   0x080031fa   0x00000002   PAD
    0x080031fc   0x080031fc   0x000009c6   Code   RO          478    .text               lib_mem.o
    0x08003bc2   0x08003bc2   0x00000002   PAD
    0x08003bc4   0x08003bc4   0x0000092c   Code   RO          497    .text               lib_str.o
    0x080044f0   0x080044f0   0x00000220   Code   RO          514    .text               lib_mem_a.o
    0x08004710   0x08004710   0x000000fc   Code   RO          517    .text               os_cfg_app.o
    0x0800480c   0x0800480c   0x00000e04   Code   RO          540    .text               os_core.o
    0x08005610   0x08005610   0x000001b0   Code   RO          552    .text               os_dbg.o
    0x080057c0   0x080057c0   0x00000e28   Code   RO          567    .text               os_flag.o
    0x080065e8   0x080065e8   0x00000444   Code   RO          579    .text               os_int.o
    0x08006a2c   0x08006a2c   0x00000238   Code   RO          591    .text               os_mem.o
    0x08006c64   0x08006c64   0x0000022c   Code   RO          603    .text               os_msg.o
    0x08006e90   0x08006e90   0x00000ad4   Code   RO          615    .text               os_mutex.o
    0x08007964   0x08007964   0x0000007c   Code   RO          633    .text               os_prio.o
    0x080079e0   0x080079e0   0x000008d8   Code   RO          652    .text               os_q.o
    0x080082b8   0x080082b8   0x00000830   Code   RO          664    .text               os_sem.o
    0x08008ae8   0x08008ae8   0x00000638   Code   RO          676    .text               os_stat.o
    0x08009120   0x08009120   0x00001bb4   Code   RO          688    .text               os_task.o
    0x0800acd4   0x0800acd4   0x000004fc   Code   RO          700    .text               os_tick.o
    0x0800b1d0   0x0800b1d0   0x00000564   Code   RO          712    .text               os_time.o
    0x0800b734   0x0800b734   0x00000818   Code   RO          724    .text               os_tmr.o
    0x0800bf4c   0x0800bf4c   0x0000026c   Code   RO          753    .text               os_cpu_c.o
    0x0800c1b8   0x0800c1b8   0x00000002   Code   RO          788    .text               c_w.l(use_no_semi_2.o)
    0x0800c1ba   0x0800c1ba   0x000000ee   Code   RO          790    .text               c_w.l(lludivv7m.o)
    0x0800c2a8   0x0800c2a8   0x00000018   Code   RO          794    .text               c_w.l(noretval__2printf.o)
    0x0800c2c0   0x0800c2c0   0x00000068   Code   RO          796    .text               c_w.l(__printf.o)
    0x0800c328   0x0800c328   0x00000078   Code   RO          798    .text               c_w.l(_printf_dec.o)
    0x0800c3a0   0x0800c3a0   0x00000058   Code   RO          803    .text               c_w.l(_printf_hex_int.o)
    0x0800c3f8   0x0800c3f8   0x00000006   Code   RO          844    .text               c_w.l(heapauxi.o)
    0x0800c3fe   0x0800c3fe   0x00000002   Code   RO          848    .text               c_w.l(use_no_semi.o)
    0x0800c400   0x0800c400   0x000000b2   Code   RO          855    .text               c_w.l(_printf_intcommon.o)
    0x0800c4b2   0x0800c4b2   0x00000002   PAD
    0x0800c4b4   0x0800c4b4   0x00000024   Code   RO          857    .text               c_w.l(_printf_char_file.o)
    0x0800c4d8   0x0800c4d8   0x00000030   Code   RO          877    .text               c_w.l(_printf_char_common.o)
    0x0800c508   0x0800c508   0x00000008   Code   RO          879    .text               c_w.l(ferror.o)
    0x0800c510   0x0800c510   0x0000004a   Code   RO          883    .text               c_w.l(sys_stackheap_outer.o)
    0x0800c55a   0x0800c55a   0x00000012   Code   RO          887    .text               c_w.l(exit.o)
    0x0800c56c   0x0800c56c   0x00000008   Code   RO          899    .text               c_w.l(libspace.o)
    0x0800c574   0x0800c574   0x00000098   Code   RO          750    CODE                os_cpu_a.o
    0x0800c60c   0x0800c60c   0x00001be6   Data   RO          215    .constdata          tftlcd.o
    0x0800e1f2   0x0800e1f2   0x00000002   PAD
    0x0800e1f4   0x0800e1f4   0x00000104   Data   RO          406    .constdata          cpu_core.o
    0x0800e2f8   0x0800e2f8   0x00000094   Data   RO          498    .constdata          lib_str.o
    0x0800e38c   0x0800e38c   0x000000a4   Data   RO          519    .constdata          os_cfg_app.o
    0x0800e430   0x0800e430   0x0000016c   Data   RO          553    .constdata          os_dbg.o
    0x0800e59c   0x0800e59c   0x00000028   Data   RO          804    .constdata          c_w.l(_printf_hex_int.o)
    0x0800e5c4   0x0800e5c4   0x00000020   Data   RO         1022    Region$$Table       anon$$obj.o


    Execution Region RW_IRAM1 (Exec base: 0x20000000, Load base: 0x0800e5e4, Size: 0x00003328, Max: 0x00010000, ABSOLUTE, COMPRESSED[0x00000040])

    Exec Addr    Load Addr    Size         Type   Attr      Idx    E Section Name        Object

    0x20000000   COMPRESSED   0x00000038   Data   RW            3    .data               main.o
    0x20000038   COMPRESSED   0x00000014   Data   RW          185    .data               system_stm32f10x.o
    0x2000004c   COMPRESSED   0x0000000c   Data   RW          216    .data               tftlcd.o
    0x20000058   COMPRESSED   0x00000001   Data   RW          244    .data               key.o
    0x20000059   COMPRESSED   0x00000001   PAD
    0x2000005a   COMPRESSED   0x00000004   Data   RW          257    .data               delay.o
    0x2000005e   COMPRESSED   0x00000002   PAD
    0x20000060   COMPRESSED   0x00000006   Data   RW          289    .data               usart.o
    0x20000066   COMPRESSED   0x00000014   Data   RW          364    .data               stm32f10x_rcc.o
    0x2000007a   COMPRESSED   0x00000002   PAD
    0x2000007c   COMPRESSED   0x00000004   Data   RW          407    .data               cpu_core.o
    0x20000080   COMPRESSED   0x00000004   Data   RW          480    .data               lib_mem.o
    0x20000084   COMPRESSED   0x00000008   Data   RW          634    .data               os_prio.o
    0x2000008c   COMPRESSED   0x000000c8   Data   RW          737    .data               os_var.o
    0x20000154   COMPRESSED   0x00000004   Data   RW          754    .data               os_cpu_c.o
    0x20000158        -       0x000006dc   Zero   RW            2    .bss                main.o
    0x20000834        -       0x000000c8   Zero   RW          288    .bss                usart.o
    0x200008fc        -       0x00000010   Zero   RW          405    .bss                cpu_core.o
    0x2000090c        -       0x00000448   Zero   RW          479    .bss                lib_mem.o
    0x20000d54        -       0x00001490   Zero   RW          518    .bss                os_cfg_app.o
    0x200021e4        -       0x000006e0   Zero   RW          736    .bss                os_var.o
    0x200028c4        -       0x00000060   Zero   RW          900    .bss                c_w.l(libspace.o)
    0x20002924   COMPRESSED   0x00000004   PAD
    0x20002928        -       0x00000200   Zero   RW          321    HEAP                startup_stm32f10x_hd.o
    0x20002b28        -       0x00000800   Zero   RW          320    STACK               startup_stm32f10x_hd.o


==============================================================================

Image component sizes


      Code (inc. data)   RO Data    RW Data    ZI Data      Debug   Object Name

       132         12          0          0          0       1151   bsp.o
        52          0          0          0          0        336   cpu_a.o
       680         14        260          4         16      14399   cpu_core.o
       332         28          0          4          0       1817   delay.o
       252         12          0          1          0        840   key.o
        76          8          0          0          0        495   led.o
       598          0          0          0          0       3884   lib_ascii.o
      2502         32          0          4       1096      22220   lib_mem.o
       544          0          0          0          0        484   lib_mem_a.o
      2348          6        148          0          0      13782   lib_str.o
      1200        250          0         56       1756     283085   main.o
       220         22          0          0          0       1825   misc.o
       252        166        164          0       5264      20906   os_cfg_app.o
      3588        294          0          0          0      12461   os_core.o
       152         32          0          0          0        396   os_cpu_a.o
       620         66          0          4          0       3809   os_cpu_c.o
       432        286        364          0          0       4749   os_dbg.o
      3624        110          0          0          0       8039   os_flag.o
      1092        146          0          0          0       2344   os_int.o
       568         20          0          0          0       2768   os_mem.o
       556         12          0          0          0       2807   os_msg.o
      2772        114          0          0          0       5578   os_mutex.o
       124          4          0          8          0       1752   os_prio.o
      2264         76          0          0          0       6340   os_q.o
      2096         70          0          0          0       6356   os_sem.o
      1592        180          0          0          0       2825   os_stat.o
      7092        270          0          0          0      14182   os_task.o
      1276         90          0          0          0       3293   os_tick.o
      1380         46          0          0          0       3297   os_time.o
      2072        140          0          0          0       6482   os_tmr.o
         0          0          0        200       1760      19357   os_var.o
        64         26        304          0       2560        796   startup_stm32f10x_hd.o
      1548         18          0          0          0       5403   stm32f10x_fsmc.o
       860         38          0          0          0       5761   stm32f10x_gpio.o
        22          0          0          0          0        995   stm32f10x_it.o
       932         36          0         20          0       8940   stm32f10x_rcc.o
      1032         22          0          0          0       8480   stm32f10x_usart.o
         0          0          0          0          0         32   sys.o
       480         38          0         20          0       1731   system_stm32f10x.o
      3436        128       7142         12          0      12476   tftlcd.o
       336         18          0          6        200       3202   usart.o

    ----------------------------------------------------------------------
     49204       2830       8416        344      12652     519875   Object Totals
         0          0         32          0          0          0   (incl. Generated)
         6          0          2          5          0          0   (incl. Padding)

    ----------------------------------------------------------------------

      Code (inc. data)   RO Data    RW Data    ZI Data      Debug   Library Member Name

        90          0          0          0          0          0   __dczerorl2.o
         8          0          0          0          0         68   __main.o
       104          0          0          0          0         84   __printf.o
         0          0          0          0          0          0   __rtentry.o
        12          0          0          0          0          0   __rtentry2.o
         6          0          0          0          0          0   __rtentry4.o
        52          8          0          0          0          0   __scatter.o
        28          0          0          0          0          0   __scatter_zi.o
        48          6          0          0          0         96   _printf_char_common.o
        36          4          0          0          0         80   _printf_char_file.o
         6          0          0          0          0          0   _printf_d.o
       120         16          0          0          0         92   _printf_dec.o
        88          4         40          0          0         88   _printf_hex_int.o
       178          0          0          0          0         88   _printf_intcommon.o
         0          0          0          0          0          0   _printf_percent.o
         4          0          0          0          0          0   _printf_percent_end.o
         6          0          0          0          0          0   _printf_x.o
        18          0          0          0          0         80   exit.o
         8          0          0          0          0         68   ferror.o
         6          0          0          0          0        152   heapauxi.o
         2          0          0          0          0          0   libinit.o
         2          0          0          0          0          0   libinit2.o
         2          0          0          0          0          0   libshutdown.o
         2          0          0          0          0          0   libshutdown2.o
         8          4          0          0         96         68   libspace.o
       238          0          0          0          0        100   lludivv7m.o
        24          4          0          0          0         84   noretval__2printf.o
         2          0          0          0          0          0   rtexit.o
        10          0          0          0          0          0   rtexit2.o
        74          0          0          0          0         80   sys_stackheap_outer.o
         2          0          0          0          0         68   use_no_semi.o
         2          0          0          0          0         68   use_no_semi_2.o

    ----------------------------------------------------------------------
      1192         46         40          0        100       1364   Library Totals
         6          0          0          0          4          0   (incl. Padding)

    ----------------------------------------------------------------------

      Code (inc. data)   RO Data    RW Data    ZI Data      Debug   Library Name

      1186         46         40          0         96       1364   c_w.l

    ----------------------------------------------------------------------
      1192         46         40          0        100       1364   Library Totals

    ----------------------------------------------------------------------

==============================================================================


      Code (inc. data)   RO Data    RW Data    ZI Data      Debug   

     50396       2876       8456        344      12752     517075   Grand Totals
     50396       2876       8456         64      12752     517075   ELF Image Totals (compressed)
     50396       2876       8456         64          0          0   ROM Totals

==============================================================================

    Total RO  Size (Code + RO Data)                58852 (  57.47kB)
    Total RW  Size (RW Data + ZI Data)             13096 (  12.79kB)
    Total ROM Size (Code + RO Data + RW Data)      58916 (  57.54kB)

==============================================================================

