Component: ARM Compiler 5.06 update 6 (build 750) Tool: armlink [4d35ed]

==============================================================================

Section Cross References

    main.o(.text) refers to _printf_percent.o(.ARM.Collect$$_printf_percent$$00000000) for _printf_percent
    main.o(.text) refers to _printf_d.o(.ARM.Collect$$_printf_percent$$00000009) for _printf_d
    main.o(.text) refers to _printf_dec.o(.text) for _printf_int_dec
    main.o(.text) refers to tftlcd.o(.text) for LCD_ShowString
    main.o(.text) refers to cpu_a.o(.text) for CPU_SR_Save
    main.o(.text) refers to malloc.o(.text) for mymalloc
    main.o(.text) refers to noretval__2sprintf.o(.text) for __2sprintf
    main.o(.text) refers to os_core.o(.text) for OS_Sched0
    main.o(.text) refers to os_q.o(.text) for OSQPost
    main.o(.text) refers to noretval__2printf.o(.text) for __2printf
    main.o(.text) refers to os_tmr.o(.text) for OSTmrStop
    main.o(.text) refers to os_time.o(.text) for OSTimeDlyHMSM
    main.o(.text) refers to key.o(.text) for KEY_Scan
    main.o(.text) refers to tftlcd.o(.data) for FRONT_COLOR
    main.o(.text) refers to os_var.o(.data) for OSSchedLockNestingCtr
    main.o(.text) refers to main.o(.bss) for DATA_Msg
    main.o(.text) refers to main.o(.data) for msg_num
    main.o(.text) refers to cpu_core.o(.text) for CPU_Init
==============================================================================

Removing Unused input sections from the image.

    Removing sys.o(.emb_text), (6 bytes).
    Removing sys.o(.text), (12 bytes).
    Removing core_cm3.o(.emb_text), (32 bytes).
    Removing cpu_c.o(.text), (1916 bytes).
    Removing lib_math.o(.text), (128 bytes).
    Removing lib_math.o(.data), (4 bytes).
    Removing os_app_hooks.o(.text), (200 bytes).

7 unused section(s) (total 2298 bytes) removed from the image.

==============================================================================

Image Symbol Table

    Local Symbols

    Symbol Name                              Value     Ov Type        Size  Object(Section)

    ../clib/angel/boardlib.s                 0x00000000   Number         0  boardinit1.o ABSOLUTE
    ../clib/angel/boardlib.s                 0x00000000   Number         0  boardinit3.o ABSOLUTE
    ../clib/angel/boardlib.s                 0x00000000   Number         0  boardinit2.o ABSOLUTE
    ../clib/angel/boardlib.s                 0x00000000   Number         0  boardshut.o ABSOLUTE
    ../clib/angel/dczerorl2.s                0x00000000   Number         0  __dczerorl2.o ABSOLUTE
    ../clib/angel/handlers.s                 0x00000000   Number         0  __scatter_zi.o ABSOLUTE
    ../clib/angel/kernel.s                   0x00000000   Number         0  rtexit2.o ABSOLUTE
    ../clib/angel/kernel.s                   0x00000000   Number         0  __rtentry.o ABSOLUTE
    ../clib/angel/kernel.s                   0x00000000   Number         0  rtexit.o ABSOLUTE
    ../clib/angel/kernel.s                   0x00000000   Number         0  __rtentry2.o ABSOLUTE
    ../clib/angel/kernel.s                   0x00000000   Number         0  __rtentry4.o ABSOLUTE
    ../clib/angel/rt.s                       0x00000000   Number         0  aeabi_ldiv0.o ABSOLUTE
    ../clib/angel/rt.s                       0x00000000   Number         0  aeabi_ldiv0_sigfpe.o ABSOLUTE
    ../clib/angel/rt.s                       0x00000000   Number         0  rt_raise.o ABSOLUTE
    ../clib/angel/rt.s                       0x00000000   Number         0  rt_div0.o ABSOLUTE
    ../clib/angel/scatter.s                  0x00000000   Number         0  __scatter.o ABSOLUTE
    ../clib/angel/startup.s                  0x00000000   Number         0  __main.o ABSOLUTE
    ../clib/angel/sys.s                      0x00000000   Number         0  sys_stackheap_outer.o ABSOLUTE
    ../clib/angel/sys.s                      0x00000000   Number         0  use_no_semi.o ABSOLUTE
    ../clib/angel/sys.s                      0x00000000   Number         0  use_no_semi_2.o ABSOLUTE
    ../clib/angel/sys.s                      0x00000000   Number         0  libspace.o ABSOLUTE
    ../clib/angel/sys.s                      0x00000000   Number         0  indicate_semi.o ABSOLUTE
    ../clib/angel/sysapp.c                   0x00000000   Number         0  sys_command.o ABSOLUTE
    ../clib/angel/sysapp.c                   0x00000000   Number         0  sys_wrch.o ABSOLUTE
    ../clib/armsys.c                         0x00000000   Number         0  no_argv.o ABSOLUTE
    ../clib/armsys.c                         0x00000000   Number         0  _get_argv_nomalloc.o ABSOLUTE
    ../clib/armsys.c                         0x00000000   Number         0  argv_veneer.o ABSOLUTE
    ../clib/armsys.c                         0x00000000   Number         0  argv_veneer.o ABSOLUTE
    ../clib/heapalloc.c                      0x00000000   Number         0  hrguard.o ABSOLUTE
    ../clib/heapaux.c                        0x00000000   Number         0  heapauxi.o ABSOLUTE
    ../clib/libinit.s                        0x00000000   Number         0  libinit2.o ABSOLUTE
    ../clib/libinit.s                        0x00000000   Number         0  libshutdown2.o ABSOLUTE
    ../clib/libinit.s                        0x00000000   Number         0  libinit.o ABSOLUTE
    ../clib/libinit.s                        0x00000000   Number         0  libshutdown.o ABSOLUTE
    ../clib/longlong.s                       0x00000000   Number         0  lludivv7m.o ABSOLUTE
    ../clib/printf.c                         0x00000000   Number         0  __printf_flags_ss.o ABSOLUTE
    ../clib/printf.c                         0x00000000   Number         0  __printf_flags.o ABSOLUTE
    ../clib/printf.c                         0x00000000   Number         0  _printf_hex_ll.o ABSOLUTE
    ../clib/printf.c                         0x00000000   Number         0  _printf_hex_int_ll_ptr.o ABSOLUTE
    ../clib/printf.c                         0x00000000   Number         0  __2printf.o ABSOLUTE
    ../clib/printf.c                         0x00000000   Number         0  _printf_hex_ptr.o ABSOLUTE
    ../clib/printf.c                         0x00000000   Number         0  __printf_nopercent.o ABSOLUTE
    ../clib/printf.c                         0x00000000   Number         0  __printf_wp.o ABSOLUTE
    ../clib/printf.c                         0x00000000   Number         0  __printf.o ABSOLUTE
    ../clib/printf.c                         0x00000000   Number         0  _printf_dec.o ABSOLUTE
    ../clib/printf.c                         0x00000000   Number         0  __printf_ss.o ABSOLUTE
    ../clib/printf.c                         0x00000000   Number         0  __printf_flags_wp.o ABSOLUTE
    ../clib/printf.c                         0x00000000   Number         0  _printf_char_file.o ABSOLUTE
    ../clib/printf.c                         0x00000000   Number         0  _sputc.o ABSOLUTE
    ../clib/printf.c                         0x00000000   Number         0  _printf_intcommon.o ABSOLUTE
    ../clib/printf.c                         0x00000000   Number         0  noretval__2sprintf.o ABSOLUTE
    ../clib/printf.c                         0x00000000   Number         0  _printf_hex_int.o ABSOLUTE
    ../clib/printf.c                         0x00000000   Number         0  __2sprintf.o ABSOLUTE
    ../clib/printf.c                         0x00000000   Number         0  _printf_hex_ll_ptr.o ABSOLUTE
    ../clib/printf.c                         0x00000000   Number         0  __printf_ss_wp.o ABSOLUTE
    ../clib/printf.c                         0x00000000   Number         0  _printf_hex_int_ll.o ABSOLUTE
    ../clib/printf.c                         0x00000000   Number         0  _printf_hex_int_ptr.o ABSOLUTE
    ../clib/printf.c                         0x00000000   Number         0  __printf_flags_ss_wp.o ABSOLUTE
    ../clib/printf.c                         0x00000000   Number         0  _printf_char_common.o ABSOLUTE
    ../clib/printf.c                         0x00000000   Number         0  noretval__2printf.o ABSOLUTE
    ../clib/printf_percent.s                 0x00000000   Number         0  _printf_d.o ABSOLUTE
    ../clib/printf_percent.s                 0x00000000   Number         0  _printf_percent_end.o ABSOLUTE
    ../clib/printf_percent.s                 0x00000000   Number         0  _printf_percent.o ABSOLUTE
    ../clib/printf_percent.s                 0x00000000   Number         0  _printf_x.o ABSOLUTE
    ../clib/signal.c                         0x00000000   Number         0  defsig_fpe_outer.o ABSOLUTE
    ../clib/signal.c                         0x00000000   Number         0  __raise.o ABSOLUTE
    ../clib/signal.c                         0x00000000   Number         0  defsig_fpe_inner.o ABSOLUTE
    ../clib/signal.c                         0x00000000   Number         0  defsig_abrt_inner.o ABSOLUTE
    ../clib/signal.c                         0x00000000   Number         0  defsig_rtred_inner.o ABSOLUTE
    ../clib/signal.c                         0x00000000   Number         0  defsig_general.o ABSOLUTE
    ../clib/signal.c                         0x00000000   Number         0  defsig_rtmem_outer.o ABSOLUTE
    ../clib/signal.c                         0x00000000   Number         0  defsig_rtmem_formal.o ABSOLUTE
    ../clib/signal.c                         0x00000000   Number         0  defsig_stak_inner.o ABSOLUTE
    ../clib/signal.c                         0x00000000   Number         0  defsig_pvfn_inner.o ABSOLUTE
    ../clib/signal.c                         0x00000000   Number         0  defsig_cppl_inner.o ABSOLUTE
    ../clib/signal.c                         0x00000000   Number         0  defsig_segv_inner.o ABSOLUTE
    ../clib/signal.c                         0x00000000   Number         0  defsig_other.o ABSOLUTE
    ../clib/signal.c                         0x00000000   Number         0  defsig_exit.o ABSOLUTE
    ../clib/signal.c                         0x00000000   Number         0  defsig_fpe_formal.o ABSOLUTE
    ../clib/signal.c                         0x00000000   Number         0  defsig_rtmem_inner.o ABSOLUTE
    ../clib/signal.s                         0x00000000   Number         0  defsig.o ABSOLUTE
    ../clib/stdio.c                          0x00000000   Number         0  ferror_locked.o ABSOLUTE
    ../clib/stdio.c                          0x00000000   Number         0  ferror.o ABSOLUTE
    ../clib/stdlib.c                         0x00000000   Number         0  exit.o ABSOLUTE
    ../fplib/fpinit.s                        0x00000000   Number         0  fpinit.o ABSOLUTE
    ..\CORE\core_cm3.c                       0x00000000   Number         0  core_cm3.o ABSOLUTE
    ..\CORE\startup_stm32f10x_hd.s           0x00000000   Number         0  startup_stm32f10x_hd.o ABSOLUTE
    ..\FWLIB\STM32F10x_FWLib\src\misc.c      0x00000000   Number         0  misc.o ABSOLUTE
    ..\FWLIB\STM32F10x_FWLib\src\stm32f10x_fsmc.c 0x00000000   Number         0  stm32f10x_fsmc.o ABSOLUTE
    ..\FWLIB\STM32F10x_FWLib\src\stm32f10x_gpio.c 0x00000000   Number         0  stm32f10x_gpio.o ABSOLUTE
    ..\FWLIB\STM32F10x_FWLib\src\stm32f10x_rcc.c 0x00000000   Number         0  stm32f10x_rcc.o ABSOLUTE
    ..\FWLIB\STM32F10x_FWLib\src\stm32f10x_usart.c 0x00000000   Number         0  stm32f10x_usart.o ABSOLUTE
    ..\HARDWARE\BEEP\beep.c                  0x00000000   Number         0  beep.o ABSOLUTE
    ..\HARDWARE\KEY\key.c                    0x00000000   Number         0  key.o ABSOLUTE
    ..\HARDWARE\LED\led.c                    0x00000000   Number         0  led.o ABSOLUTE
    ..\HARDWARE\SRAM\sram.c                  0x00000000   Number         0  sram.o ABSOLUTE
    ..\HARDWARE\tftlcd\tftlcd.c              0x00000000   Number         0  tftlcd.o ABSOLUTE
    ..\MALLOC\malloc.c                       0x00000000   Number         0  malloc.o ABSOLUTE
    ..\SYSTEM\delay\delay.c                  0x00000000   Number         0  delay.o ABSOLUTE
    ..\SYSTEM\sys\sys.c                      0x00000000   Number         0  sys.o ABSOLUTE
    ..\SYSTEM\usart\usart.c                  0x00000000   Number         0  usart.o ABSOLUTE
    ..\UCOSIII\UCOS_BSP\bsp.c                0x00000000   Number         0  bsp.o ABSOLUTE
    ..\UCOSIII\uC-CPU\ARM-Cortex-M3\RealView\cpu_a.asm 0x00000000   Number         0  cpu_a.o ABSOLUTE
    ..\UCOSIII\uC-CPU\ARM-Cortex-M3\RealView\cpu_c.c 0x00000000   Number         0  cpu_c.o ABSOLUTE
    ..\UCOSIII\uC-CPU\cpu_core.c             0x00000000   Number         0  cpu_core.o ABSOLUTE
    ..\UCOSIII\uC-LIB\Ports\ARM-Cortex-M3\RealView\lib_mem_a.asm 0x00000000   Number         0  lib_mem_a.o ABSOLUTE
    ..\UCOSIII\uC-LIB\lib_ascii.c            0x00000000   Number         0  lib_ascii.o ABSOLUTE
    ..\UCOSIII\uC-LIB\lib_math.c             0x00000000   Number         0  lib_math.o ABSOLUTE
    ..\UCOSIII\uC-LIB\lib_mem.c              0x00000000   Number         0  lib_mem.o ABSOLUTE
    ..\UCOSIII\uC-LIB\lib_str.c              0x00000000   Number         0  lib_str.o ABSOLUTE
    ..\UCOSIII\uCOS-III\Ports\ARM-Cortex-M3\Generic\RealView\os_cpu_a.s 0x00000000   Number         0  os_cpu_a.o ABSOLUTE
    ..\UCOSIII\uCOS-III\Ports\ARM-Cortex-M3\Generic\RealView\os_cpu_c.c 0x00000000   Number         0  os_cpu_c.o ABSOLUTE
    ..\UCOSIII\uCOS-III\Source\os_cfg_app.c  0x00000000   Number         0  os_cfg_app.o ABSOLUTE
    ..\UCOSIII\uCOS-III\Source\os_core.c     0x00000000   Number         0  os_core.o ABSOLUTE
    ..\UCOSIII\uCOS-III\Source\os_dbg.c      0x00000000   Number         0  os_dbg.o ABSOLUTE
    ..\UCOSIII\uCOS-III\Source\os_flag.c     0x00000000   Number         0  os_flag.o ABSOLUTE
    ..\UCOSIII\uCOS-III\Source\os_int.c      0x00000000   Number         0  os_int.o ABSOLUTE
    ..\UCOSIII\uCOS-III\Source\os_mem.c      0x00000000   Number         0  os_mem.o ABSOLUTE
    ..\UCOSIII\uCOS-III\Source\os_msg.c      0x00000000   Number         0  os_msg.o ABSOLUTE
    ..\UCOSIII\uCOS-III\Source\os_mutex.c    0x00000000   Number         0  os_mutex.o ABSOLUTE
    ..\UCOSIII\uCOS-III\Source\os_pend_multi.c 0x00000000   Number         0  os_pend_multi.o ABSOLUTE
    ..\UCOSIII\uCOS-III\Source\os_prio.c     0x00000000   Number         0  os_prio.o ABSOLUTE
    ..\UCOSIII\uCOS-III\Source\os_q.c        0x00000000   Number         0  os_q.o ABSOLUTE
    ..\UCOSIII\uCOS-III\Source\os_sem.c      0x00000000   Number         0  os_sem.o ABSOLUTE
    ..\UCOSIII\uCOS-III\Source\os_stat.c     0x00000000   Number         0  os_stat.o ABSOLUTE
    ..\UCOSIII\uCOS-III\Source\os_task.c     0x00000000   Number         0  os_task.o ABSOLUTE
    ..\UCOSIII\uCOS-III\Source\os_tick.c     0x00000000   Number         0  os_tick.o ABSOLUTE
    ..\UCOSIII\uCOS-III\Source\os_time.c     0x00000000   Number         0  os_time.o ABSOLUTE
    ..\UCOSIII\uCOS-III\Source\os_tmr.c      0x00000000   Number         0  os_tmr.o ABSOLUTE
    ..\UCOSIII\uCOS-III\Source\os_var.c      0x00000000   Number         0  os_var.o ABSOLUTE
    ..\UCOSIII\uCOS_CONFIG\os_app_hooks.c    0x00000000   Number         0  os_app_hooks.o ABSOLUTE
    ..\\CORE\\core_cm3.c                     0x00000000   Number         0  core_cm3.o ABSOLUTE
    ..\\SYSTEM\\sys\\sys.c                   0x00000000   Number         0  sys.o ABSOLUTE
    dc.s                                     0x00000000   Number         0  dc.o ABSOLUTE
    main.c                                   0x00000000   Number         0  main.o ABSOLUTE
    stm32f10x_it.c                           0x00000000   Number         0  stm32f10x_it.o ABSOLUTE
    system_stm32f10x.c                       0x00000000   Number         0  system_stm32f10x.o ABSOLUTE
    RESET                                    0x08000000   Section      304  startup_stm32f10x_hd.o(RESET)
    !!!main                                  0x08000130   Section        8  __main.o(!!!main)
    !!!scatter                               0x08000138   Section       52  __scatter.o(!!!scatter)
    !!dczerorl2                              0x0800016c   Section       90  __dczerorl2.o(!!dczerorl2)
    !!handler_zi                             0x080001c8   Section       28  __scatter_zi.o(!!handler_zi)
    .ARM.Collect$$_printf_percent$$00000000  0x080001e4   Section        0  _printf_percent.o(.ARM.Collect$$_printf_percent$$00000000)
    .ARM.Collect$$_printf_percent$$00000009  0x080001e4   Section        6  _printf_d.o(.ARM.Collect$$_printf_percent$$00000009)
    .ARM.Collect$$_printf_percent$$0000000C  0x080001ea   Section        6  _printf_x.o(.ARM.Collect$$_printf_percent$$0000000C)
    .ARM.Collect$$_printf_percent$$00000017  0x080001f0   Section        4  _printf_percent_end.o(.ARM.Collect$$_printf_percent$$00000017)
    .ARM.Collect$$libinit$$00000000          0x080001f4   Section        2  libinit.o(.ARM.Collect$$libinit$$00000000)
    .ARM.Collect$$libinit$$00000002          0x080001f6   Section        0  libinit2.o(.ARM.Collect$$libinit$$00000002)
    .ARM.Collect$$libinit$$00000004          0x080001f6   Section        0  libinit2.o(.ARM.Collect$$libinit$$00000004)
    .ARM.Collect$$libinit$$0000000A          0x080001f6   Section        0  libinit2.o(.ARM.Collect$$libinit$$0000000A)
    .ARM.Collect$$libinit$$0000000C          0x080001f6   Section        0  libinit2.o(.ARM.Collect$$libinit$$0000000C)
    .ARM.Collect$$libinit$$0000000E          0x080001f6   Section        0  libinit2.o(.ARM.Collect$$libinit$$0000000E)
    .ARM.Collect$$libinit$$00000011          0x080001f6   Section        0  libinit2.o(.ARM.Collect$$libinit$$00000011)
    .ARM.Collect$$libinit$$00000013          0x080001f6   Section        0  libinit2.o(.ARM.Collect$$libinit$$00000013)
    .ARM.Collect$$libinit$$00000015          0x080001f6   Section        0  libinit2.o(.ARM.Collect$$libinit$$00000015)
    .ARM.Collect$$libinit$$00000017          0x080001f6   Section        0  libinit2.o(.ARM.Collect$$libinit$$00000017)
    .ARM.Collect$$libinit$$00000019          0x080001f6   Section        0  libinit2.o(.ARM.Collect$$libinit$$00000019)
    .ARM.Collect$$libinit$$0000001B          0x080001f6   Section        0  libinit2.o(.ARM.Collect$$libinit$$0000001B)
    .ARM.Collect$$libinit$$0000001D          0x080001f6   Section        0  libinit2.o(.ARM.Collect$$libinit$$0000001D)
    .ARM.Collect$$libinit$$0000001F          0x080001f6   Section        0  libinit2.o(.ARM.Collect$$libinit$$0000001F)
    .ARM.Collect$$libinit$$00000021          0x080001f6   Section        0  libinit2.o(.ARM.Collect$$libinit$$00000021)
    .ARM.Collect$$libinit$$00000023          0x080001f6   Section        0  libinit2.o(.ARM.Collect$$libinit$$00000023)
    .ARM.Collect$$libinit$$00000025          0x080001f6   Section        0  libinit2.o(.ARM.Collect$$libinit$$00000025)
    .ARM.Collect$$libinit$$0000002C          0x080001f6   Section        0  libinit2.o(.ARM.Collect$$libinit$$0000002C)
    .ARM.Collect$$libinit$$0000002E          0x080001f6   Section        0  libinit2.o(.ARM.Collect$$libinit$$0000002E)
    .ARM.Collect$$libinit$$00000030          0x080001f6   Section        0  libinit2.o(.ARM.Collect$$libinit$$00000030)
    .ARM.Collect$$libinit$$00000032          0x080001f6   Section        0  libinit2.o(.ARM.Collect$$libinit$$00000032)
    .ARM.Collect$$libinit$$00000033          0x080001f6   Section        2  libinit2.o(.ARM.Collect$$libinit$$00000033)
    .ARM.Collect$$libshutdown$$00000000      0x080001f8   Section        2  libshutdown.o(.ARM.Collect$$libshutdown$$00000000)
    .ARM.Collect$$libshutdown$$00000002      0x080001fa   Section        0  libshutdown2.o(.ARM.Collect$$libshutdown$$00000002)
    .ARM.Collect$$libshutdown$$00000004      0x080001fa   Section        0  libshutdown2.o(.ARM.Collect$$libshutdown$$00000004)
    .ARM.Collect$$libshutdown$$00000007      0x080001fa   Section        0  libshutdown2.o(.ARM.Collect$$libshutdown$$00000007)
    .ARM.Collect$$libshutdown$$0000000A      0x080001fa   Section        0  libshutdown2.o(.ARM.Collect$$libshutdown$$0000000A)
    .ARM.Collect$$libshutdown$$0000000C      0x080001fa   Section        0  libshutdown2.o(.ARM.Collect$$libshutdown$$0000000C)
    .ARM.Collect$$libshutdown$$0000000F      0x080001fa   Section        0  libshutdown2.o(.ARM.Collect$$libshutdown$$0000000F)
    .ARM.Collect$$libshutdown$$00000010      0x080001fa   Section        2  libshutdown2.o(.ARM.Collect$$libshutdown$$00000010)
    .ARM.Collect$$rtentry$$00000000          0x080001fc   Section        0  __rtentry.o(.ARM.Collect$$rtentry$$00000000)
    .ARM.Collect$$rtentry$$00000002          0x080001fc   Section        0  __rtentry2.o(.ARM.Collect$$rtentry$$00000002)
    .ARM.Collect$$rtentry$$00000004          0x080001fc   Section        6  __rtentry4.o(.ARM.Collect$$rtentry$$00000004)
    .ARM.Collect$$rtentry$$00000009          0x08000202   Section        0  __rtentry2.o(.ARM.Collect$$rtentry$$00000009)
    .ARM.Collect$$rtentry$$0000000A          0x08000202   Section        4  __rtentry2.o(.ARM.Collect$$rtentry$$0000000A)
    .ARM.Collect$$rtentry$$0000000C          0x08000206   Section        0  __rtentry2.o(.ARM.Collect$$rtentry$$0000000C)
    .ARM.Collect$$rtentry$$0000000D          0x08000206   Section        8  __rtentry2.o(.ARM.Collect$$rtentry$$0000000D)
    .ARM.Collect$$rtexit$$00000000           0x0800020e   Section        2  rtexit.o(.ARM.Collect$$rtexit$$00000000)
    .ARM.Collect$$rtexit$$00000002           0x08000210   Section        0  rtexit2.o(.ARM.Collect$$rtexit$$00000002)
    .ARM.Collect$$rtexit$$00000003           0x08000210   Section        4  rtexit2.o(.ARM.Collect$$rtexit$$00000003)
    .ARM.Collect$$rtexit$$00000004           0x08000214   Section        6  rtexit2.o(.ARM.Collect$$rtexit$$00000004)
    .text                                    0x0800021c   Section        0  main.o(.text)
    .text                                    0x08000a2c   Section        0  stm32f10x_it.o(.text)
    .text                                    0x08000a44   Section        0  system_stm32f10x.o(.text)
    SetSysClockTo72                          0x08000a45   Thumb Code   214  system_stm32f10x.o(.text)
    SetSysClock                              0x08000b1b   Thumb Code     8  system_stm32f10x.o(.text)
    .text                                    0x08000c24   Section        0  led.o(.text)
    .text                                    0x08000c70   Section        0  tftlcd.o(.text)
    .text                                    0x080019dc   Section        0  key.o(.text)
    .text                                    0x08001ad8   Section        0  beep.o(.text)
    .text                                    0x08001b10   Section        0  sram.o(.text)
    .text                                    0x08001cc4   Section        0  malloc.o(.text)
    .text                                    0x08001ef0   Section        0  delay.o(.text)
    .text                                    0x0800203c   Section        0  usart.o(.text)
    .text                                    0x0800218c   Section       64  startup_stm32f10x_hd.o(.text)
    .text                                    0x080021cc   Section        0  misc.o(.text)
    .text                                    0x080022a8   Section        0  stm32f10x_gpio.o(.text)
    .text                                    0x08002604   Section        0  stm32f10x_usart.o(.text)
    .text                                    0x08002a0c   Section        0  stm32f10x_rcc.o(.text)
    .text                                    0x08002db0   Section        0  stm32f10x_fsmc.o(.text)
    .text                                    0x080033bc   Section        0  bsp.o(.text)
    .text                                    0x08003440   Section        0  cpu_core.o(.text)
    CPU_NameInit                             0x0800346b   Thumb Code     8  cpu_core.o(.text)
    CPU_TS_Init                              0x08003473   Thumb Code    14  cpu_core.o(.text)
    .text                                    0x080036e8   Section       52  cpu_a.o(.text)
    .text                                    0x0800371c   Section        0  lib_ascii.o(.text)
    .text                                    0x08003974   Section        0  lib_mem.o(.text)
    Mem_SegAlloc                             0x08003b8b   Thumb Code    60  lib_mem.o(.text)
    Mem_SegCalcTotSize                       0x08003bc7   Thumb Code    60  lib_mem.o(.text)
    .text                                    0x0800433c   Section        0  lib_str.o(.text)
    Str_FmtNbr_Int32                         0x080047f5   Thumb Code   476  lib_str.o(.text)
    Str_ParseNbr_Int32                       0x08004a3d   Thumb Code   446  lib_str.o(.text)
    .text                                    0x08004c68   Section      544  lib_mem_a.o(.text)
    .text                                    0x08004e88   Section        0  os_cfg_app.o(.text)
    .text                                    0x08004f84   Section        0  os_core.o(.text)
    .text                                    0x08005d88   Section        0  os_dbg.o(.text)
    .text                                    0x08005f38   Section        0  os_flag.o(.text)
    .text                                    0x08006d60   Section        0  os_int.o(.text)
    .text                                    0x080071a4   Section        0  os_mem.o(.text)
    .text                                    0x080073dc   Section        0  os_msg.o(.text)
    .text                                    0x08007608   Section        0  os_mutex.o(.text)
    .text                                    0x080080dc   Section        0  os_prio.o(.text)
    .text                                    0x08008158   Section        0  os_q.o(.text)
    .text                                    0x08008a30   Section        0  os_sem.o(.text)
    .text                                    0x08009260   Section        0  os_stat.o(.text)
    .text                                    0x08009898   Section        0  os_task.o(.text)
    .text                                    0x0800b44c   Section        0  os_tick.o(.text)
    .text                                    0x0800b948   Section        0  os_time.o(.text)
    .text                                    0x0800beac   Section        0  os_tmr.o(.text)
    .text                                    0x0800c6c4   Section        0  os_cpu_c.o(.text)
    .text                                    0x0800c930   Section        2  use_no_semi_2.o(.text)
    .text                                    0x0800c932   Section      238  lludivv7m.o(.text)
    .text                                    0x0800ca20   Section        0  noretval__2printf.o(.text)
    .text                                    0x0800ca38   Section        0  noretval__2sprintf.o(.text)
    .text                                    0x0800ca60   Section        0  __printf.o(.text)
    .text                                    0x0800cac8   Section        0  _printf_dec.o(.text)
    .text                                    0x0800cb40   Section        0  _printf_hex_int.o(.text)
    .text                                    0x0800cb98   Section        0  heapauxi.o(.text)
    .text                                    0x0800cb9e   Section        2  use_no_semi.o(.text)
    .text                                    0x0800cba0   Section        0  _printf_intcommon.o(.text)
    .text                                    0x0800cc54   Section        0  _printf_char_common.o(.text)
    _printf_input_char                       0x0800cc55   Thumb Code    10  _printf_char_common.o(.text)
    .text                                    0x0800cc84   Section        0  _sputc.o(.text)
    .text                                    0x0800cc90   Section        0  _printf_char_file.o(.text)
    .text                                    0x0800ccb4   Section        0  ferror.o(.text)
    .text                                    0x0800ccbc   Section       74  sys_stackheap_outer.o(.text)
    .text                                    0x0800cd06   Section        0  exit.o(.text)
    .text                                    0x0800cd18   Section        8  libspace.o(.text)
    CODE                                     0x0800cd20   Section      152  os_cpu_a.o(CODE)
    .constdata                               0x0800cdb8   Section     7142  tftlcd.o(.constdata)
    .constdata                               0x0800e9a0   Section       24  malloc.o(.constdata)
    .constdata                               0x0800e9b8   Section      260  cpu_core.o(.constdata)
    CPU_CntLeadZerosTbl                      0x0800e9b8   Data         256  cpu_core.o(.constdata)
    .constdata                               0x0800eabc   Section      148  lib_str.o(.constdata)
    Str_MultOvfThTbl_Int32U                  0x0800eabc   Data         148  lib_str.o(.constdata)
    .constdata                               0x0800eb50   Section      164  os_cfg_app.o(.constdata)
    .constdata                               0x0800ebf4   Section      364  os_dbg.o(.constdata)
    .constdata                               0x0800ed60   Section       40  _printf_hex_int.o(.constdata)
    uc_hextab                                0x0800ed60   Data          20  _printf_hex_int.o(.constdata)
    lc_hextab                                0x0800ed74   Data          20  _printf_hex_int.o(.constdata)
    .data                                    0x20000000   Section       61  main.o(.data)
    msg_num                                  0x2000003c   Data           1  main.o(.data)
    .data                                    0x20000040   Section       20  system_stm32f10x.o(.data)
    .data                                    0x20000054   Section       12  tftlcd.o(.data)
    .data                                    0x20000060   Section        1  key.o(.data)
    key_up                                   0x20000060   Data           1  key.o(.data)
    .data                                    0x20000064   Section       28  malloc.o(.data)
    .data                                    0x20000080   Section        4  delay.o(.data)
    fac_us                                   0x20000080   Data           1  delay.o(.data)
    fac_ms                                   0x20000082   Data           2  delay.o(.data)
    .data                                    0x20000084   Section        6  usart.o(.data)
    .data                                    0x2000008a   Section       20  stm32f10x_rcc.o(.data)
    APBAHBPrescTable                         0x2000008a   Data          16  stm32f10x_rcc.o(.data)
    ADCPrescTable                            0x2000009a   Data           4  stm32f10x_rcc.o(.data)
    .data                                    0x200000a0   Section        4  cpu_core.o(.data)
    .data                                    0x200000a4   Section        4  lib_mem.o(.data)
    .data                                    0x200000a8   Section        8  os_prio.o(.data)
    .data                                    0x200000b0   Section      200  os_var.o(.data)
    .data                                    0x20000178   Section        4  os_cpu_c.o(.data)
    .bss                                     0x2000017c   Section     2980  main.o(.bss)
    .bss                                     0x20000d20   Section    43520  malloc.o(.bss)
    .bss                                     0x2000b720   Section      200  usart.o(.bss)
    .bss                                     0x2000b7e8   Section       16  cpu_core.o(.bss)
    .bss                                     0x2000b7f8   Section     1096  lib_mem.o(.bss)
    .bss                                     0x2000bc40   Section     5264  os_cfg_app.o(.bss)
    .bss                                     0x2000d0d0   Section     1760  os_var.o(.bss)
    .bss                                     0x2000d7b0   Section       96  libspace.o(.bss)
    HEAP                                     0x2000d810   Section      512  startup_stm32f10x_hd.o(HEAP)
    Heap_Mem                                 0x2000d810   Data         512  startup_stm32f10x_hd.o(HEAP)
    STACK                                    0x2000da10   Section     2048  startup_stm32f10x_hd.o(STACK)
    Stack_Mem                                0x2000da10   Data        2048  startup_stm32f10x_hd.o(STACK)
    __initial_sp                             0x2000e210   Data           0  startup_stm32f10x_hd.o(STACK)
    .ARM.__AT_0x68000000                     0x68000000   Section    983040  malloc.o(.ARM.__AT_0x68000000)
    .ARM.__AT_0x680F0000                     0x680f0000   Section    61440  malloc.o(.ARM.__AT_0x680F0000)

    Global Symbols

    Symbol Name                              Value     Ov Type        Size  Object(Section)

    BuildAttributes$$THM_ISAv4$P$D$K$B$S$PE$A:L22UL41UL21$X:L11$S22US41US21$IEEE1$IW$USESV6$~STKCKD$USESV7$~SHL$OSPACE$ROPI$EBA8$UX$STANDARDLIB$REQ8$PRES8$EABIv2 0x00000000   Number         0  anon$$obj.o ABSOLUTE
    __ARM_use_no_argv                        0x00000000   Number         0  main.o ABSOLUTE
    __ARM_exceptions_init                     - Undefined Weak Reference
    __alloca_initialize                       - Undefined Weak Reference
    __arm_preinit_                            - Undefined Weak Reference
    __cpp_initialize__aeabi_                  - Undefined Weak Reference
    __cxa_finalize                            - Undefined Weak Reference
    __rt_locale                               - Undefined Weak Reference
    __sigvec_lookup                           - Undefined Weak Reference
    _atexit_init                              - Undefined Weak Reference
    _call_atexit_fns                          - Undefined Weak Reference
    _clock_init                               - Undefined Weak Reference
    _fp_trap_init                             - Undefined Weak Reference
    _fp_trap_shutdown                         - Undefined Weak Reference
    _get_lc_collate                           - Undefined Weak Reference
    _get_lc_ctype                             - Undefined Weak Reference
    _get_lc_monetary                          - Undefined Weak Reference
    _get_lc_numeric                           - Undefined Weak Reference
    _get_lc_time                              - Undefined Weak Reference
    _getenv_init                              - Undefined Weak Reference
    _handle_redirection                       - Undefined Weak Reference
    _init_alloc                               - Undefined Weak Reference
    _init_user_alloc                          - Undefined Weak Reference
    _initio                                   - Undefined Weak Reference
    _mutex_acquire                            - Undefined Weak Reference
    _mutex_release                            - Undefined Weak Reference
    _printf_post_padding                      - Undefined Weak Reference
    _printf_pre_padding                       - Undefined Weak Reference
    _printf_truncate_signed                   - Undefined Weak Reference
    _printf_truncate_unsigned                 - Undefined Weak Reference
    _rand_init                                - Undefined Weak Reference
    _signal_finish                            - Undefined Weak Reference
    _signal_init                              - Undefined Weak Reference
    _terminate_alloc                          - Undefined Weak Reference
    _terminate_user_alloc                     - Undefined Weak Reference
    _terminateio                              - Undefined Weak Reference
    __Vectors_Size                           0x00000130   Number         0  startup_stm32f10x_hd.o ABSOLUTE
    __Vectors                                0x08000000   Data           4  startup_stm32f10x_hd.o(RESET)
    __Vectors_End                            0x08000130   Data           0  startup_stm32f10x_hd.o(RESET)
    __main                                   0x08000131   Thumb Code     8  __main.o(!!!main)
    __scatterload                            0x08000139   Thumb Code     0  __scatter.o(!!!scatter)
    __scatterload_rt2                        0x08000139   Thumb Code    44  __scatter.o(!!!scatter)
    __scatterload_rt2_thumb_only             0x08000139   Thumb Code     0  __scatter.o(!!!scatter)
    __scatterload_null                       0x08000147   Thumb Code     0  __scatter.o(!!!scatter)
    __decompress                             0x0800016d   Thumb Code    90  __dczerorl2.o(!!dczerorl2)
    __decompress1                            0x0800016d   Thumb Code     0  __dczerorl2.o(!!dczerorl2)
    __scatterload_zeroinit                   0x080001c9   Thumb Code    28  __scatter_zi.o(!!handler_zi)
    _printf_d                                0x080001e5   Thumb Code     0  _printf_d.o(.ARM.Collect$$_printf_percent$$00000009)
    _printf_percent                          0x080001e5   Thumb Code     0  _printf_percent.o(.ARM.Collect$$_printf_percent$$00000000)
    _printf_x                                0x080001eb   Thumb Code     0  _printf_x.o(.ARM.Collect$$_printf_percent$$0000000C)
    _printf_percent_end                      0x080001f1   Thumb Code     0  _printf_percent_end.o(.ARM.Collect$$_printf_percent$$00000017)
    __rt_lib_init                            0x080001f5   Thumb Code     0  libinit.o(.ARM.Collect$$libinit$$00000000)
    __rt_lib_init_alloca_1                   0x080001f7   Thumb Code     0  libinit2.o(.ARM.Collect$$libinit$$0000002E)
    __rt_lib_init_argv_1                     0x080001f7   Thumb Code     0  libinit2.o(.ARM.Collect$$libinit$$0000002C)
    __rt_lib_init_atexit_1                   0x080001f7   Thumb Code     0  libinit2.o(.ARM.Collect$$libinit$$0000001B)
    __rt_lib_init_clock_1                    0x080001f7   Thumb Code     0  libinit2.o(.ARM.Collect$$libinit$$00000021)
    __rt_lib_init_cpp_1                      0x080001f7   Thumb Code     0  libinit2.o(.ARM.Collect$$libinit$$00000032)
    __rt_lib_init_exceptions_1               0x080001f7   Thumb Code     0  libinit2.o(.ARM.Collect$$libinit$$00000030)
    __rt_lib_init_fp_1                       0x080001f7   Thumb Code     0  libinit2.o(.ARM.Collect$$libinit$$00000002)
    __rt_lib_init_fp_trap_1                  0x080001f7   Thumb Code     0  libinit2.o(.ARM.Collect$$libinit$$0000001F)
    __rt_lib_init_getenv_1                   0x080001f7   Thumb Code     0  libinit2.o(.ARM.Collect$$libinit$$00000023)
    __rt_lib_init_heap_1                     0x080001f7   Thumb Code     0  libinit2.o(.ARM.Collect$$libinit$$0000000A)
    __rt_lib_init_lc_collate_1               0x080001f7   Thumb Code     0  libinit2.o(.ARM.Collect$$libinit$$00000011)
    __rt_lib_init_lc_ctype_1                 0x080001f7   Thumb Code     0  libinit2.o(.ARM.Collect$$libinit$$00000013)
    __rt_lib_init_lc_monetary_1              0x080001f7   Thumb Code     0  libinit2.o(.ARM.Collect$$libinit$$00000015)
    __rt_lib_init_lc_numeric_1               0x080001f7   Thumb Code     0  libinit2.o(.ARM.Collect$$libinit$$00000017)
    __rt_lib_init_lc_time_1                  0x080001f7   Thumb Code     0  libinit2.o(.ARM.Collect$$libinit$$00000019)
    __rt_lib_init_preinit_1                  0x080001f7   Thumb Code     0  libinit2.o(.ARM.Collect$$libinit$$00000004)
    __rt_lib_init_rand_1                     0x080001f7   Thumb Code     0  libinit2.o(.ARM.Collect$$libinit$$0000000E)
    __rt_lib_init_return                     0x080001f7   Thumb Code     0  libinit2.o(.ARM.Collect$$libinit$$00000033)
    __rt_lib_init_signal_1                   0x080001f7   Thumb Code     0  libinit2.o(.ARM.Collect$$libinit$$0000001D)
    __rt_lib_init_stdio_1                    0x080001f7   Thumb Code     0  libinit2.o(.ARM.Collect$$libinit$$00000025)
    __rt_lib_init_user_alloc_1               0x080001f7   Thumb Code     0  libinit2.o(.ARM.Collect$$libinit$$0000000C)
    __rt_lib_shutdown                        0x080001f9   Thumb Code     0  libshutdown.o(.ARM.Collect$$libshutdown$$00000000)
    __rt_lib_shutdown_cpp_1                  0x080001fb   Thumb Code     0  libshutdown2.o(.ARM.Collect$$libshutdown$$00000002)
    __rt_lib_shutdown_fp_trap_1              0x080001fb   Thumb Code     0  libshutdown2.o(.ARM.Collect$$libshutdown$$00000007)
    __rt_lib_shutdown_heap_1                 0x080001fb   Thumb Code     0  libshutdown2.o(.ARM.Collect$$libshutdown$$0000000F)
    __rt_lib_shutdown_return                 0x080001fb   Thumb Code     0  libshutdown2.o(.ARM.Collect$$libshutdown$$00000010)
    __rt_lib_shutdown_signal_1               0x080001fb   Thumb Code     0  libshutdown2.o(.ARM.Collect$$libshutdown$$0000000A)
    __rt_lib_shutdown_stdio_1                0x080001fb   Thumb Code     0  libshutdown2.o(.ARM.Collect$$libshutdown$$00000004)
    __rt_lib_shutdown_user_alloc_1           0x080001fb   Thumb Code     0  libshutdown2.o(.ARM.Collect$$libshutdown$$0000000C)
    __rt_entry                               0x080001fd   Thumb Code     0  __rtentry.o(.ARM.Collect$$rtentry$$00000000)
    __rt_entry_presh_1                       0x080001fd   Thumb Code     0  __rtentry2.o(.ARM.Collect$$rtentry$$00000002)
    __rt_entry_sh                            0x080001fd   Thumb Code     0  __rtentry4.o(.ARM.Collect$$rtentry$$00000004)
    __rt_entry_li                            0x08000203   Thumb Code     0  __rtentry2.o(.ARM.Collect$$rtentry$$0000000A)
    __rt_entry_postsh_1                      0x08000203   Thumb Code     0  __rtentry2.o(.ARM.Collect$$rtentry$$00000009)
    __rt_entry_main                          0x08000207   Thumb Code     0  __rtentry2.o(.ARM.Collect$$rtentry$$0000000D)
    __rt_entry_postli_1                      0x08000207   Thumb Code     0  __rtentry2.o(.ARM.Collect$$rtentry$$0000000C)
    __rt_exit                                0x0800020f   Thumb Code     0  rtexit.o(.ARM.Collect$$rtexit$$00000000)
    __rt_exit_ls                             0x08000211   Thumb Code     0  rtexit2.o(.ARM.Collect$$rtexit$$00000003)
    __rt_exit_prels_1                        0x08000211   Thumb Code     0  rtexit2.o(.ARM.Collect$$rtexit$$00000002)
    __rt_exit_exit                           0x08000215   Thumb Code     0  rtexit2.o(.ARM.Collect$$rtexit$$00000004)
    ucos_load_main_ui                        0x0800021d   Thumb Code   270  main.o(.text)
    check_msg_queue                          0x0800032b   Thumb Code   230  main.o(.text)
    tmr1_callback                            0x08000411   Thumb Code   132  main.o(.text)
    Msgdis_task                              0x08000495   Thumb Code    74  main.o(.text)
    KeyProcess_task                          0x080004df   Thumb Code   202  main.o(.text)
    Main_task                                0x080005a9   Thumb Code   396  main.o(.text)
    start_task                               0x08000735   Thumb Code   372  main.o(.text)
    main                                     0x080008a9   Thumb Code   254  main.o(.text)
    NMI_Handler                              0x08000a2d   Thumb Code     2  stm32f10x_it.o(.text)
    HardFault_Handler                        0x08000a2f   Thumb Code     4  stm32f10x_it.o(.text)
    MemManage_Handler                        0x08000a33   Thumb Code     4  stm32f10x_it.o(.text)
    BusFault_Handler                         0x08000a37   Thumb Code     4  stm32f10x_it.o(.text)
    UsageFault_Handler                       0x08000a3b   Thumb Code     4  stm32f10x_it.o(.text)
    SVC_Handler                              0x08000a3f   Thumb Code     2  stm32f10x_it.o(.text)
    DebugMon_Handler                         0x08000a41   Thumb Code     2  stm32f10x_it.o(.text)
    SystemInit                               0x08000b23   Thumb Code    78  system_stm32f10x.o(.text)
    SystemCoreClockUpdate                    0x08000b71   Thumb Code   142  system_stm32f10x.o(.text)
    LED_Init                                 0x08000c25   Thumb Code    68  led.o(.text)
    TFTLCD_GPIO_Init                         0x08000c71   Thumb Code   114  tftlcd.o(.text)
    TFTLCD_FSMC_Init                         0x08000ce3   Thumb Code   160  tftlcd.o(.text)
    LCD_WriteCmd                             0x08000d83   Thumb Code     6  tftlcd.o(.text)
    LCD_WriteData                            0x08000d89   Thumb Code     8  tftlcd.o(.text)
    LCD_WriteCmdData                         0x08000d91   Thumb Code    20  tftlcd.o(.text)
    LCD_WriteData_Color                      0x08000da5   Thumb Code    16  tftlcd.o(.text)
    LCD_ReadData                             0x08000db5   Thumb Code     8  tftlcd.o(.text)
    LCD_Display_Dir                          0x08000dbd   Thumb Code    66  tftlcd.o(.text)
    LCD_Set_Window                           0x08000dff   Thumb Code   166  tftlcd.o(.text)
    LCD_Clear                                0x08000ea5   Thumb Code    68  tftlcd.o(.text)
    TFTLCD_Init                              0x08000ee9   Thumb Code   782  tftlcd.o(.text)
    LCD_Fill                                 0x080011f7   Thumb Code    92  tftlcd.o(.text)
    LCD_DrawPoint                            0x08001253   Thumb Code    28  tftlcd.o(.text)
    LCD_DrawFRONT_COLOR                      0x0800126f   Thumb Code    28  tftlcd.o(.text)
    LCD_ReadPoint                            0x0800128b   Thumb Code    94  tftlcd.o(.text)
    LCD_DrawLine                             0x080012e9   Thumb Code   176  tftlcd.o(.text)
    LCD_DrawLine_Color                       0x08001399   Thumb Code   172  tftlcd.o(.text)
    LCD_DrowSign                             0x08001445   Thumb Code   132  tftlcd.o(.text)
    LCD_DrawRectangle                        0x080014c9   Thumb Code    60  tftlcd.o(.text)
    LCD_Draw_Circle                          0x08001505   Thumb Code   152  tftlcd.o(.text)
    LCD_ShowChar                             0x0800159d   Thumb Code   286  tftlcd.o(.text)
    LCD_Pow                                  0x080016bb   Thumb Code    22  tftlcd.o(.text)
    LCD_ShowNum                              0x080016d1   Thumb Code   148  tftlcd.o(.text)
    LCD_ShowxNum                             0x08001765   Thumb Code   190  tftlcd.o(.text)
    LCD_ShowString                           0x08001823   Thumb Code   102  tftlcd.o(.text)
    LCD_ShowFontHZ                           0x08001889   Thumb Code   220  tftlcd.o(.text)
    LCD_ShowPicture                          0x08001965   Thumb Code    92  tftlcd.o(.text)
    KEY_Init                                 0x080019dd   Thumb Code    52  key.o(.text)
    KEY_Scan                                 0x08001a11   Thumb Code   188  key.o(.text)
    BEEP_Init                                0x08001ad9   Thumb Code    50  beep.o(.text)
    FSMC_SRAM_Init                           0x08001b11   Thumb Code   312  sram.o(.text)
    FSMC_SRAM_WriteBuffer                    0x08001c49   Thumb Code    24  sram.o(.text)
    FSMC_SRAM_ReadBuffer                     0x08001c61   Thumb Code    22  sram.o(.text)
    fsmc_sram_test_write                     0x08001c77   Thumb Code    16  sram.o(.text)
    fsmc_sram_test_read                      0x08001c87   Thumb Code    20  sram.o(.text)
    mymemcpy                                 0x08001cc5   Thumb Code    26  malloc.o(.text)
    mymemset                                 0x08001cdf   Thumb Code    20  malloc.o(.text)
    my_mem_init                              0x08001cf3   Thumb Code    54  malloc.o(.text)
    my_mem_perused                           0x08001d29   Thumb Code    54  malloc.o(.text)
    my_mem_malloc                            0x08001d5f   Thumb Code   154  malloc.o(.text)
    my_mem_free                              0x08001df9   Thumb Code    94  malloc.o(.text)
    myfree                                   0x08001e57   Thumb Code    32  malloc.o(.text)
    mymalloc                                 0x08001e77   Thumb Code    36  malloc.o(.text)
    myrealloc                                0x08001e9b   Thumb Code    68  malloc.o(.text)
    delay_osschedlock                        0x08001ef1   Thumb Code    10  delay.o(.text)
    delay_osschedunlock                      0x08001efb   Thumb Code    10  delay.o(.text)
    delay_ostimedly                          0x08001f05   Thumb Code    16  delay.o(.text)
    SysTick_Handler                          0x08001f15   Thumb Code    24  delay.o(.text)
    delay_init                               0x08001f2d   Thumb Code    92  delay.o(.text)
    delay_us                                 0x08001f89   Thumb Code    86  delay.o(.text)
    delay_ms                                 0x08001fdf   Thumb Code    66  delay.o(.text)
    _sys_exit                                0x0800203d   Thumb Code     6  usart.o(.text)
    fputc                                    0x08002043   Thumb Code    24  usart.o(.text)
    uart_init                                0x0800205b   Thumb Code   158  usart.o(.text)
    USART1_IRQHandler                        0x080020f9   Thumb Code   130  usart.o(.text)
    Reset_Handler                            0x0800218d   Thumb Code     8  startup_stm32f10x_hd.o(.text)
    ADC1_2_IRQHandler                        0x080021a7   Thumb Code     0  startup_stm32f10x_hd.o(.text)
    ADC3_IRQHandler                          0x080021a7   Thumb Code     0  startup_stm32f10x_hd.o(.text)
    CAN1_RX1_IRQHandler                      0x080021a7   Thumb Code     0  startup_stm32f10x_hd.o(.text)
    CAN1_SCE_IRQHandler                      0x080021a7   Thumb Code     0  startup_stm32f10x_hd.o(.text)
    DMA1_Channel1_IRQHandler                 0x080021a7   Thumb Code     0  startup_stm32f10x_hd.o(.text)
    DMA1_Channel2_IRQHandler                 0x080021a7   Thumb Code     0  startup_stm32f10x_hd.o(.text)
    DMA1_Channel3_IRQHandler                 0x080021a7   Thumb Code     0  startup_stm32f10x_hd.o(.text)
    DMA1_Channel4_IRQHandler                 0x080021a7   Thumb Code     0  startup_stm32f10x_hd.o(.text)
    DMA1_Channel5_IRQHandler                 0x080021a7   Thumb Code     0  startup_stm32f10x_hd.o(.text)
    DMA1_Channel6_IRQHandler                 0x080021a7   Thumb Code     0  startup_stm32f10x_hd.o(.text)
    DMA1_Channel7_IRQHandler                 0x080021a7   Thumb Code     0  startup_stm32f10x_hd.o(.text)
    DMA2_Channel1_IRQHandler                 0x080021a7   Thumb Code     0  startup_stm32f10x_hd.o(.text)
    DMA2_Channel2_IRQHandler                 0x080021a7   Thumb Code     0  startup_stm32f10x_hd.o(.text)
    DMA2_Channel3_IRQHandler                 0x080021a7   Thumb Code     0  startup_stm32f10x_hd.o(.text)
    DMA2_Channel4_5_IRQHandler               0x080021a7   Thumb Code     0  startup_stm32f10x_hd.o(.text)
    EXTI0_IRQHandler                         0x080021a7   Thumb Code     0  startup_stm32f10x_hd.o(.text)
    EXTI15_10_IRQHandler                     0x080021a7   Thumb Code     0  startup_stm32f10x_hd.o(.text)
    EXTI1_IRQHandler                         0x080021a7   Thumb Code     0  startup_stm32f10x_hd.o(.text)
    EXTI2_IRQHandler                         0x080021a7   Thumb Code     0  startup_stm32f10x_hd.o(.text)
    EXTI3_IRQHandler                         0x080021a7   Thumb Code     0  startup_stm32f10x_hd.o(.text)
    EXTI4_IRQHandler                         0x080021a7   Thumb Code     0  startup_stm32f10x_hd.o(.text)
    EXTI9_5_IRQHandler                       0x080021a7   Thumb Code     0  startup_stm32f10x_hd.o(.text)
    FLASH_IRQHandler                         0x080021a7   Thumb Code     0  startup_stm32f10x_hd.o(.text)
    FSMC_IRQHandler                          0x080021a7   Thumb Code     0  startup_stm32f10x_hd.o(.text)
    I2C1_ER_IRQHandler                       0x080021a7   Thumb Code     0  startup_stm32f10x_hd.o(.text)
    I2C1_EV_IRQHandler                       0x080021a7   Thumb Code     0  startup_stm32f10x_hd.o(.text)
    I2C2_ER_IRQHandler                       0x080021a7   Thumb Code     0  startup_stm32f10x_hd.o(.text)
    I2C2_EV_IRQHandler                       0x080021a7   Thumb Code     0  startup_stm32f10x_hd.o(.text)
    PVD_IRQHandler                           0x080021a7   Thumb Code     0  startup_stm32f10x_hd.o(.text)
    RCC_IRQHandler                           0x080021a7   Thumb Code     0  startup_stm32f10x_hd.o(.text)
    RTCAlarm_IRQHandler                      0x080021a7   Thumb Code     0  startup_stm32f10x_hd.o(.text)
    RTC_IRQHandler                           0x080021a7   Thumb Code     0  startup_stm32f10x_hd.o(.text)
    SDIO_IRQHandler                          0x080021a7   Thumb Code     0  startup_stm32f10x_hd.o(.text)
    SPI1_IRQHandler                          0x080021a7   Thumb Code     0  startup_stm32f10x_hd.o(.text)
    SPI2_IRQHandler                          0x080021a7   Thumb Code     0  startup_stm32f10x_hd.o(.text)
    SPI3_IRQHandler                          0x080021a7   Thumb Code     0  startup_stm32f10x_hd.o(.text)
    TAMPER_IRQHandler                        0x080021a7   Thumb Code     0  startup_stm32f10x_hd.o(.text)
    TIM1_BRK_IRQHandler                      0x080021a7   Thumb Code     0  startup_stm32f10x_hd.o(.text)
    TIM1_CC_IRQHandler                       0x080021a7   Thumb Code     0  startup_stm32f10x_hd.o(.text)
    TIM1_TRG_COM_IRQHandler                  0x080021a7   Thumb Code     0  startup_stm32f10x_hd.o(.text)
    TIM1_UP_IRQHandler                       0x080021a7   Thumb Code     0  startup_stm32f10x_hd.o(.text)
    TIM2_IRQHandler                          0x080021a7   Thumb Code     0  startup_stm32f10x_hd.o(.text)
    TIM3_IRQHandler                          0x080021a7   Thumb Code     0  startup_stm32f10x_hd.o(.text)
    TIM4_IRQHandler                          0x080021a7   Thumb Code     0  startup_stm32f10x_hd.o(.text)
    TIM5_IRQHandler                          0x080021a7   Thumb Code     0  startup_stm32f10x_hd.o(.text)
    TIM6_IRQHandler                          0x080021a7   Thumb Code     0  startup_stm32f10x_hd.o(.text)
    TIM7_IRQHandler                          0x080021a7   Thumb Code     0  startup_stm32f10x_hd.o(.text)
    TIM8_BRK_IRQHandler                      0x080021a7   Thumb Code     0  startup_stm32f10x_hd.o(.text)
    TIM8_CC_IRQHandler                       0x080021a7   Thumb Code     0  startup_stm32f10x_hd.o(.text)
    TIM8_TRG_COM_IRQHandler                  0x080021a7   Thumb Code     0  startup_stm32f10x_hd.o(.text)
    TIM8_UP_IRQHandler                       0x080021a7   Thumb Code     0  startup_stm32f10x_hd.o(.text)
    UART4_IRQHandler                         0x080021a7   Thumb Code     0  startup_stm32f10x_hd.o(.text)
    UART5_IRQHandler                         0x080021a7   Thumb Code     0  startup_stm32f10x_hd.o(.text)
    USART2_IRQHandler                        0x080021a7   Thumb Code     0  startup_stm32f10x_hd.o(.text)
    USART3_IRQHandler                        0x080021a7   Thumb Code     0  startup_stm32f10x_hd.o(.text)
    USBWakeUp_IRQHandler                     0x080021a7   Thumb Code     0  startup_stm32f10x_hd.o(.text)
    USB_HP_CAN1_TX_IRQHandler                0x080021a7   Thumb Code     0  startup_stm32f10x_hd.o(.text)
    USB_LP_CAN1_RX0_IRQHandler               0x080021a7   Thumb Code     0  startup_stm32f10x_hd.o(.text)
    WWDG_IRQHandler                          0x080021a7   Thumb Code     0  startup_stm32f10x_hd.o(.text)
    __user_initial_stackheap                 0x080021a9   Thumb Code     0  startup_stm32f10x_hd.o(.text)
    NVIC_PriorityGroupConfig                 0x080021cd   Thumb Code    10  misc.o(.text)
    NVIC_Init                                0x080021d7   Thumb Code   100  misc.o(.text)
    NVIC_SetVectorTable                      0x0800223b   Thumb Code    14  misc.o(.text)
    NVIC_SystemLPConfig                      0x08002249   Thumb Code    34  misc.o(.text)
    SysTick_CLKSourceConfig                  0x0800226b   Thumb Code    40  misc.o(.text)
    GPIO_DeInit                              0x080022a9   Thumb Code   172  stm32f10x_gpio.o(.text)
    GPIO_AFIODeInit                          0x08002355   Thumb Code    20  stm32f10x_gpio.o(.text)
    GPIO_Init                                0x08002369   Thumb Code   278  stm32f10x_gpio.o(.text)
    GPIO_StructInit                          0x0800247f   Thumb Code    16  stm32f10x_gpio.o(.text)
    GPIO_ReadInputDataBit                    0x0800248f   Thumb Code    18  stm32f10x_gpio.o(.text)
    GPIO_ReadInputData                       0x080024a1   Thumb Code     8  stm32f10x_gpio.o(.text)
    GPIO_ReadOutputDataBit                   0x080024a9   Thumb Code    18  stm32f10x_gpio.o(.text)
    GPIO_ReadOutputData                      0x080024bb   Thumb Code     8  stm32f10x_gpio.o(.text)
    GPIO_SetBits                             0x080024c3   Thumb Code     4  stm32f10x_gpio.o(.text)
    GPIO_ResetBits                           0x080024c7   Thumb Code     4  stm32f10x_gpio.o(.text)
    GPIO_WriteBit                            0x080024cb   Thumb Code    10  stm32f10x_gpio.o(.text)
    GPIO_Write                               0x080024d5   Thumb Code     4  stm32f10x_gpio.o(.text)
    GPIO_PinLockConfig                       0x080024d9   Thumb Code    18  stm32f10x_gpio.o(.text)
    GPIO_EventOutputConfig                   0x080024eb   Thumb Code    26  stm32f10x_gpio.o(.text)
    GPIO_EventOutputCmd                      0x08002505   Thumb Code     6  stm32f10x_gpio.o(.text)
    GPIO_PinRemapConfig                      0x0800250b   Thumb Code   138  stm32f10x_gpio.o(.text)
    GPIO_EXTILineConfig                      0x08002595   Thumb Code    66  stm32f10x_gpio.o(.text)
    GPIO_ETH_MediaInterfaceConfig            0x080025d7   Thumb Code     8  stm32f10x_gpio.o(.text)
    USART_DeInit                             0x08002605   Thumb Code   134  stm32f10x_usart.o(.text)
    USART_Init                               0x0800268b   Thumb Code   210  stm32f10x_usart.o(.text)
    USART_StructInit                         0x0800275d   Thumb Code    24  stm32f10x_usart.o(.text)
    USART_ClockInit                          0x08002775   Thumb Code    34  stm32f10x_usart.o(.text)
    USART_ClockStructInit                    0x08002797   Thumb Code    12  stm32f10x_usart.o(.text)
    USART_Cmd                                0x080027a3   Thumb Code    24  stm32f10x_usart.o(.text)
    USART_ITConfig                           0x080027bb   Thumb Code    74  stm32f10x_usart.o(.text)
    USART_DMACmd                             0x08002805   Thumb Code    18  stm32f10x_usart.o(.text)
    USART_SetAddress                         0x08002817   Thumb Code    18  stm32f10x_usart.o(.text)
    USART_WakeUpConfig                       0x08002829   Thumb Code    18  stm32f10x_usart.o(.text)
    USART_ReceiverWakeUpCmd                  0x0800283b   Thumb Code    24  stm32f10x_usart.o(.text)
    USART_LINBreakDetectLengthConfig         0x08002853   Thumb Code    18  stm32f10x_usart.o(.text)
    USART_LINCmd                             0x08002865   Thumb Code    24  stm32f10x_usart.o(.text)
    USART_SendData                           0x0800287d   Thumb Code     8  stm32f10x_usart.o(.text)
    USART_ReceiveData                        0x08002885   Thumb Code    10  stm32f10x_usart.o(.text)
    USART_SendBreak                          0x0800288f   Thumb Code    10  stm32f10x_usart.o(.text)
    USART_SetGuardTime                       0x08002899   Thumb Code    16  stm32f10x_usart.o(.text)
    USART_SetPrescaler                       0x080028a9   Thumb Code    16  stm32f10x_usart.o(.text)
    USART_SmartCardCmd                       0x080028b9   Thumb Code    24  stm32f10x_usart.o(.text)
    USART_SmartCardNACKCmd                   0x080028d1   Thumb Code    24  stm32f10x_usart.o(.text)
    USART_HalfDuplexCmd                      0x080028e9   Thumb Code    24  stm32f10x_usart.o(.text)
    USART_OverSampling8Cmd                   0x08002901   Thumb Code    22  stm32f10x_usart.o(.text)
    USART_OneBitMethodCmd                    0x08002917   Thumb Code    24  stm32f10x_usart.o(.text)
    USART_IrDAConfig                         0x0800292f   Thumb Code    18  stm32f10x_usart.o(.text)
    USART_IrDACmd                            0x08002941   Thumb Code    24  stm32f10x_usart.o(.text)
    USART_GetFlagStatus                      0x08002959   Thumb Code    26  stm32f10x_usart.o(.text)
    USART_ClearFlag                          0x08002973   Thumb Code    18  stm32f10x_usart.o(.text)
    USART_GetITStatus                        0x08002985   Thumb Code    84  stm32f10x_usart.o(.text)
    USART_ClearITPendingBit                  0x080029d9   Thumb Code    52  stm32f10x_usart.o(.text)
    RCC_DeInit                               0x08002a0d   Thumb Code    64  stm32f10x_rcc.o(.text)
    RCC_HSEConfig                            0x08002a4d   Thumb Code    70  stm32f10x_rcc.o(.text)
    RCC_GetFlagStatus                        0x08002a93   Thumb Code    56  stm32f10x_rcc.o(.text)
    RCC_WaitForHSEStartUp                    0x08002acb   Thumb Code    56  stm32f10x_rcc.o(.text)
    RCC_AdjustHSICalibrationValue            0x08002b03   Thumb Code    20  stm32f10x_rcc.o(.text)
    RCC_HSICmd                               0x08002b17   Thumb Code     6  stm32f10x_rcc.o(.text)
    RCC_PLLConfig                            0x08002b1d   Thumb Code    24  stm32f10x_rcc.o(.text)
    RCC_PLLCmd                               0x08002b35   Thumb Code     6  stm32f10x_rcc.o(.text)
    RCC_SYSCLKConfig                         0x08002b3b   Thumb Code    18  stm32f10x_rcc.o(.text)
    RCC_GetSYSCLKSource                      0x08002b4d   Thumb Code    10  stm32f10x_rcc.o(.text)
    RCC_HCLKConfig                           0x08002b57   Thumb Code    18  stm32f10x_rcc.o(.text)
    RCC_PCLK1Config                          0x08002b69   Thumb Code    18  stm32f10x_rcc.o(.text)
    RCC_PCLK2Config                          0x08002b7b   Thumb Code    20  stm32f10x_rcc.o(.text)
    RCC_ITConfig                             0x08002b8f   Thumb Code    26  stm32f10x_rcc.o(.text)
    RCC_USBCLKConfig                         0x08002ba9   Thumb Code     8  stm32f10x_rcc.o(.text)
    RCC_ADCCLKConfig                         0x08002bb1   Thumb Code    18  stm32f10x_rcc.o(.text)
    RCC_LSEConfig                            0x08002bc3   Thumb Code    50  stm32f10x_rcc.o(.text)
    RCC_LSICmd                               0x08002bf5   Thumb Code     6  stm32f10x_rcc.o(.text)
    RCC_RTCCLKConfig                         0x08002bfb   Thumb Code    12  stm32f10x_rcc.o(.text)
    RCC_RTCCLKCmd                            0x08002c07   Thumb Code     8  stm32f10x_rcc.o(.text)
    RCC_GetClocksFreq                        0x08002c0f   Thumb Code   192  stm32f10x_rcc.o(.text)
    RCC_AHBPeriphClockCmd                    0x08002ccf   Thumb Code    26  stm32f10x_rcc.o(.text)
    RCC_APB2PeriphClockCmd                   0x08002ce9   Thumb Code    26  stm32f10x_rcc.o(.text)
    RCC_APB1PeriphClockCmd                   0x08002d03   Thumb Code    26  stm32f10x_rcc.o(.text)
    RCC_APB2PeriphResetCmd                   0x08002d1d   Thumb Code    26  stm32f10x_rcc.o(.text)
    RCC_APB1PeriphResetCmd                   0x08002d37   Thumb Code    26  stm32f10x_rcc.o(.text)
    RCC_BackupResetCmd                       0x08002d51   Thumb Code     8  stm32f10x_rcc.o(.text)
    RCC_ClockSecuritySystemCmd               0x08002d59   Thumb Code     6  stm32f10x_rcc.o(.text)
    RCC_MCOConfig                            0x08002d5f   Thumb Code     6  stm32f10x_rcc.o(.text)
    RCC_ClearFlag                            0x08002d65   Thumb Code    14  stm32f10x_rcc.o(.text)
    RCC_GetITStatus                          0x08002d73   Thumb Code    20  stm32f10x_rcc.o(.text)
    RCC_ClearITPendingBit                    0x08002d87   Thumb Code     6  stm32f10x_rcc.o(.text)
    FSMC_NORSRAMDeInit                       0x08002db1   Thumb Code    54  stm32f10x_fsmc.o(.text)
    FSMC_NANDDeInit                          0x08002de7   Thumb Code    62  stm32f10x_fsmc.o(.text)
    FSMC_PCCARDDeInit                        0x08002e25   Thumb Code    36  stm32f10x_fsmc.o(.text)
    FSMC_NORSRAMInit                         0x08002e49   Thumb Code   230  stm32f10x_fsmc.o(.text)
    FSMC_NANDInit                            0x08002f2f   Thumb Code   132  stm32f10x_fsmc.o(.text)
    FSMC_PCCARDInit                          0x08002fb3   Thumb Code   130  stm32f10x_fsmc.o(.text)
    FSMC_NORSRAMStructInit                   0x08003035   Thumb Code   114  stm32f10x_fsmc.o(.text)
    FSMC_NANDStructInit                      0x080030a7   Thumb Code    54  stm32f10x_fsmc.o(.text)
    FSMC_PCCARDStructInit                    0x080030dd   Thumb Code    60  stm32f10x_fsmc.o(.text)
    FSMC_NORSRAMCmd                          0x08003119   Thumb Code    46  stm32f10x_fsmc.o(.text)
    FSMC_NANDCmd                             0x08003147   Thumb Code    86  stm32f10x_fsmc.o(.text)
    FSMC_PCCARDCmd                           0x0800319d   Thumb Code    44  stm32f10x_fsmc.o(.text)
    FSMC_NANDECCCmd                          0x080031c9   Thumb Code    90  stm32f10x_fsmc.o(.text)
    FSMC_GetECC                              0x08003223   Thumb Code    24  stm32f10x_fsmc.o(.text)
    FSMC_ITConfig                            0x0800323b   Thumb Code   128  stm32f10x_fsmc.o(.text)
    FSMC_GetFlagStatus                       0x080032bb   Thumb Code    54  stm32f10x_fsmc.o(.text)
    FSMC_ClearFlag                           0x080032f1   Thumb Code    62  stm32f10x_fsmc.o(.text)
    FSMC_GetITStatus                         0x0800332f   Thumb Code    64  stm32f10x_fsmc.o(.text)
    FSMC_ClearITPendingBit                   0x0800336f   Thumb Code    68  stm32f10x_fsmc.o(.text)
    BSP_CPU_ClkFreq                          0x080033bd   Thumb Code    16  bsp.o(.text)
    CPU_TS_TmrInit                           0x080033cd   Thumb Code    44  bsp.o(.text)
    CPU_TS_TmrRd                             0x080033f9   Thumb Code     6  bsp.o(.text)
    CPU_TS32_to_uSec                         0x080033ff   Thumb Code    54  bsp.o(.text)
    CPU_NameClr                              0x08003441   Thumb Code    42  cpu_core.o(.text)
    CPU_Init                                 0x08003481   Thumb Code    12  cpu_core.o(.text)
    CPU_SW_Exception                         0x0800348d   Thumb Code     4  cpu_core.o(.text)
    CPU_NameGet                              0x08003491   Thumb Code    70  cpu_core.o(.text)
    CPU_NameSet                              0x080034d7   Thumb Code    96  cpu_core.o(.text)
    CPU_TS_Get32                             0x08003537   Thumb Code    12  cpu_core.o(.text)
    CPU_TS_Update                            0x08003543   Thumb Code     2  cpu_core.o(.text)
    CPU_TS_TmrFreqGet                        0x08003545   Thumb Code    30  cpu_core.o(.text)
    CPU_TS_TmrFreqSet                        0x08003563   Thumb Code     6  cpu_core.o(.text)
    CPU_CntLeadZeros08                       0x08003569   Thumb Code    18  cpu_core.o(.text)
    CPU_CntLeadZeros16                       0x0800357b   Thumb Code    18  cpu_core.o(.text)
    CPU_CntLeadZeros32                       0x0800358d   Thumb Code    18  cpu_core.o(.text)
    CPU_CntLeadZeros64                       0x0800359f   Thumb Code   188  cpu_core.o(.text)
    CPU_CntTrailZeros08                      0x0800365b   Thumb Code    22  cpu_core.o(.text)
    CPU_CntTrailZeros16                      0x08003671   Thumb Code    22  cpu_core.o(.text)
    CPU_CntTrailZeros32                      0x08003687   Thumb Code    22  cpu_core.o(.text)
    CPU_CntTrailZeros64                      0x0800369d   Thumb Code    62  cpu_core.o(.text)
    CPU_IntDis                               0x080036e9   Thumb Code     0  cpu_a.o(.text)
    CPU_IntEn                                0x080036ed   Thumb Code     0  cpu_a.o(.text)
    CPU_SR_Save                              0x080036f1   Thumb Code     0  cpu_a.o(.text)
    CPU_SR_Restore                           0x080036f9   Thumb Code     0  cpu_a.o(.text)
    CPU_WaitForInt                           0x080036ff   Thumb Code     0  cpu_a.o(.text)
    CPU_WaitForExcept                        0x08003703   Thumb Code     0  cpu_a.o(.text)
    CPU_CntLeadZeros                         0x08003707   Thumb Code     0  cpu_a.o(.text)
    CPU_CntTrailZeros                        0x0800370d   Thumb Code     0  cpu_a.o(.text)
    CPU_RevBits                              0x08003717   Thumb Code     0  cpu_a.o(.text)
    ASCII_IsAlpha                            0x0800371d   Thumb Code    48  lib_ascii.o(.text)
    ASCII_IsAlphaNum                         0x0800374d   Thumb Code    76  lib_ascii.o(.text)
    ASCII_IsLower                            0x08003799   Thumb Code    20  lib_ascii.o(.text)
    ASCII_IsUpper                            0x080037ad   Thumb Code    20  lib_ascii.o(.text)
    ASCII_IsDig                              0x080037c1   Thumb Code    20  lib_ascii.o(.text)
    ASCII_IsDigOct                           0x080037d5   Thumb Code    20  lib_ascii.o(.text)
    ASCII_IsDigHex                           0x080037e9   Thumb Code    36  lib_ascii.o(.text)
    ASCII_IsBlank                            0x0800380d   Thumb Code    20  lib_ascii.o(.text)
    ASCII_IsSpace                            0x08003821   Thumb Code    36  lib_ascii.o(.text)
    ASCII_IsPrint                            0x08003845   Thumb Code    20  lib_ascii.o(.text)
    ASCII_IsGraph                            0x08003859   Thumb Code    20  lib_ascii.o(.text)
    ASCII_IsPunct                            0x0800386d   Thumb Code   134  lib_ascii.o(.text)
    ASCII_IsCtrl                             0x080038f3   Thumb Code    26  lib_ascii.o(.text)
    ASCII_ToLower                            0x0800390d   Thumb Code    32  lib_ascii.o(.text)
    ASCII_ToUpper                            0x0800392d   Thumb Code    32  lib_ascii.o(.text)
    ASCII_Cmp                                0x0800394d   Thumb Code    38  lib_ascii.o(.text)
    Mem_Init                                 0x08003975   Thumb Code    54  lib_mem.o(.text)
    Mem_Set                                  0x080039ab   Thumb Code    84  lib_mem.o(.text)
    Mem_Clr                                  0x080039ff   Thumb Code    18  lib_mem.o(.text)
    Mem_Move                                 0x08003a11   Thumb Code   186  lib_mem.o(.text)
    Mem_Cmp                                  0x08003acb   Thumb Code   192  lib_mem.o(.text)
    Mem_HeapAlloc                            0x08003c03   Thumb Code   168  lib_mem.o(.text)
    Mem_SegGetSizeRem                        0x08003cab   Thumb Code   108  lib_mem.o(.text)
    Mem_HeapGetSizeRem                       0x08003d17   Thumb Code    22  lib_mem.o(.text)
    Mem_PoolClr                              0x08003d2d   Thumb Code    80  lib_mem.o(.text)
    Mem_PoolCreate                           0x08003d7d   Thumb Code   838  lib_mem.o(.text)
    Mem_PoolBlkGetNbrAvail                   0x080040c3   Thumb Code    52  lib_mem.o(.text)
    Mem_PoolBlkGet                           0x080040f7   Thumb Code   126  lib_mem.o(.text)
    Mem_PoolBlkGetUsedAtIx                   0x08004175   Thumb Code   140  lib_mem.o(.text)
    Mem_PoolBlkFree                          0x08004201   Thumb Code   152  lib_mem.o(.text)
    Mem_PoolBlkIxGet                         0x08004299   Thumb Code   162  lib_mem.o(.text)
    Str_Len_N                                0x0800433d   Thumb Code    28  lib_str.o(.text)
    Str_Len                                  0x08004359   Thumb Code    20  lib_str.o(.text)
    Str_Copy_N                               0x0800436d   Thumb Code    70  lib_str.o(.text)
    Str_Copy                                 0x080043b3   Thumb Code    24  lib_str.o(.text)
    Str_Cat_N                                0x080043cb   Thumb Code    90  lib_str.o(.text)
    Str_Cat                                  0x08004425   Thumb Code    24  lib_str.o(.text)
    Str_Cmp_N                                0x0800443d   Thumb Code   156  lib_str.o(.text)
    Str_Cmp                                  0x080044d9   Thumb Code    24  lib_str.o(.text)
    Str_CmpIgnoreCase_N                      0x080044f1   Thumb Code   264  lib_str.o(.text)
    Str_CmpIgnoreCase                        0x080045f9   Thumb Code    24  lib_str.o(.text)
    Str_Char_N                               0x08004611   Thumb Code    74  lib_str.o(.text)
    Str_Char                                 0x0800465b   Thumb Code    24  lib_str.o(.text)
    Str_Char_Last_N                          0x08004673   Thumb Code    76  lib_str.o(.text)
    Str_Char_Last                            0x080046bf   Thumb Code    24  lib_str.o(.text)
    Str_Char_Replace_N                       0x080046d7   Thumb Code    52  lib_str.o(.text)
    Str_Char_Replace                         0x0800470b   Thumb Code    28  lib_str.o(.text)
    Str_Str_N                                0x08004727   Thumb Code   182  lib_str.o(.text)
    Str_Str                                  0x080047dd   Thumb Code    24  lib_str.o(.text)
    Str_FmtNbr_Int32U                        0x080049d1   Thumb Code    46  lib_str.o(.text)
    Str_FmtNbr_Int32S                        0x080049ff   Thumb Code    62  lib_str.o(.text)
    Str_ParseNbr_Int32U                      0x08004bfb   Thumb Code    30  lib_str.o(.text)
    Str_ParseNbr_Int32S                      0x08004c19   Thumb Code    74  lib_str.o(.text)
    Mem_Copy                                 0x08004c69   Thumb Code     0  lib_mem_a.o(.text)
    OSCfg_Init                               0x08004e89   Thumb Code    86  os_cfg_app.o(.text)
    OS_IdleTask                              0x08004f85   Thumb Code    60  os_core.o(.text)
    OS_IdleTaskInit                          0x08004fc1   Thumb Code    68  os_core.o(.text)
    OS_RdyListInit                           0x08005005   Thumb Code    32  os_core.o(.text)
    OSInit                                   0x08005025   Thumb Code   300  os_core.o(.text)
    OSIntEnter                               0x08005151   Thumb Code    34  os_core.o(.text)
    OSIntExit                                0x08005173   Thumb Code   192  os_core.o(.text)
    OSSched                                  0x08005233   Thumb Code   134  os_core.o(.text)
    OS_SchedLockTimeMeasStart                0x080052b9   Thumb Code    20  os_core.o(.text)
    OSSchedLock                              0x080052cd   Thumb Code   104  os_core.o(.text)
    OS_SchedLockTimeMeasStop                 0x08005335   Thumb Code    44  os_core.o(.text)
    OSSchedUnlock                            0x08005361   Thumb Code   290  os_core.o(.text)
    OSSchedRoundRobinCfg                     0x08005483   Thumb Code    88  os_core.o(.text)
    OS_RdyListMoveHeadToTail                 0x080054db   Thumb Code    68  os_core.o(.text)
    OSSchedRoundRobinYield                   0x0800551f   Thumb Code   164  os_core.o(.text)
    OSStart                                  0x080055c3   Thumb Code    78  os_core.o(.text)
    OSVersion                                0x08005611   Thumb Code    12  os_core.o(.text)
    OS_PendDbgNameAdd                        0x0800561d   Thumb Code    66  os_core.o(.text)
    OS_PendListInsertPrio                    0x0800565f   Thumb Code   102  os_core.o(.text)
    OS_PendDataInit                          0x080056c5   Thumb Code    38  os_core.o(.text)
    OS_RdyListRemove                         0x080056eb   Thumb Code    86  os_core.o(.text)
    OS_TaskBlock                             0x08005741   Thumb Code    56  os_core.o(.text)
    OS_Pend                                  0x08005779   Thumb Code    98  os_core.o(.text)
    OS_PendListRemove1                       0x080057db   Thumb Code   134  os_core.o(.text)
    OS_PendListRemove                        0x08005861   Thumb Code    48  os_core.o(.text)
    OS_PendAbort1                            0x08005891   Thumb Code    36  os_core.o(.text)
    OS_RdyListInsertHead                     0x080058b5   Thumb Code    58  os_core.o(.text)
    OS_RdyListInsertTail                     0x080058ef   Thumb Code    56  os_core.o(.text)
    OS_RdyListInsert                         0x08005927   Thumb Code    40  os_core.o(.text)
    OS_TaskRdy                               0x0800594f   Thumb Code    28  os_core.o(.text)
    OS_PendAbort                             0x0800596b   Thumb Code   166  os_core.o(.text)
    OS_PendDbgNameRemove                     0x08005a11   Thumb Code    34  os_core.o(.text)
    OS_PendListChangePrio                    0x08005a33   Thumb Code    70  os_core.o(.text)
    OS_PendListInit                          0x08005a79   Thumb Code    10  os_core.o(.text)
    OS_PendListInsertHead                    0x08005a83   Thumb Code    32  os_core.o(.text)
    OS_PendObjDel1                           0x08005aa3   Thumb Code    36  os_core.o(.text)
    OS_PendObjDel                            0x08005ac7   Thumb Code   162  os_core.o(.text)
    OS_Post1                                 0x08005b69   Thumb Code    42  os_core.o(.text)
    OS_Post                                  0x08005b93   Thumb Code   192  os_core.o(.text)
    OS_Sched0                                0x08005c53   Thumb Code   102  os_core.o(.text)
    OS_SchedRoundRobin                       0x08005cb9   Thumb Code   190  os_core.o(.text)
    OS_Dbg_Init                              0x08005d89   Thumb Code   146  os_dbg.o(.text)
    OS_FlagDbgListAdd                        0x08005f39   Thumb Code    38  os_flag.o(.text)
    OSFlagCreate                             0x08005f5f   Thumb Code   172  os_flag.o(.text)
    OS_FlagClr                               0x0800600b   Thumb Code    28  os_flag.o(.text)
    OS_FlagDbgListRemove                     0x08006027   Thumb Code    44  os_flag.o(.text)
    OSFlagDel                                0x08006053   Thumb Code   594  os_flag.o(.text)
    OS_FlagBlock                             0x080062a5   Thumb Code    58  os_flag.o(.text)
    OSFlagPend                               0x080062df   Thumb Code  1488  os_flag.o(.text)
    OSFlagPendAbort                          0x080068af   Thumb Code   292  os_flag.o(.text)
    OSFlagPendGetFlagsRdy                    0x080069d3   Thumb Code    68  os_flag.o(.text)
    OS_FlagTaskRdy                           0x08006a17   Thumb Code    86  os_flag.o(.text)
    OS_FlagPost                              0x08006a6d   Thumb Code   570  os_flag.o(.text)
    OSFlagPost                               0x08006ca7   Thumb Code   146  os_flag.o(.text)
    OS_FlagInit                              0x08006d39   Thumb Code    14  os_flag.o(.text)
    OS_IntQPost                              0x08006d61   Thumb Code   216  os_int.o(.text)
    OS_IntQRePost                            0x08006e39   Thumb Code   360  os_int.o(.text)
    OS_IntQTask                              0x08006fa1   Thumb Code   162  os_int.o(.text)
    OS_IntQTaskInit                          0x08007043   Thumb Code   208  os_int.o(.text)
    OS_MemDbgListAdd                         0x080071a5   Thumb Code    34  os_mem.o(.text)
    OSMemCreate                              0x080071c7   Thumb Code   288  os_mem.o(.text)
    OSMemGet                                 0x080072e7   Thumb Code   100  os_mem.o(.text)
    OSMemPut                                 0x0800734b   Thumb Code   112  os_mem.o(.text)
    OS_MemInit                               0x080073bb   Thumb Code    14  os_mem.o(.text)
    OS_MsgPoolCreate                         0x080073dd   Thumb Code    54  os_msg.o(.text)
    OS_MsgPoolInit                           0x08007413   Thumb Code    70  os_msg.o(.text)
    OS_MsgQFreeAll                           0x08007459   Thumb Code    62  os_msg.o(.text)
    OS_MsgQInit                              0x08007497   Thumb Code    14  os_msg.o(.text)
    OS_MsgQGet                               0x080074a5   Thumb Code    98  os_msg.o(.text)
    OS_MsgQPut                               0x08007507   Thumb Code   246  os_msg.o(.text)
    OS_MutexDbgListAdd                       0x08007609   Thumb Code    38  os_mutex.o(.text)
    OSMutexCreate                            0x0800762f   Thumb Code   178  os_mutex.o(.text)
    OS_MutexClr                              0x080076e1   Thumb Code    38  os_mutex.o(.text)
    OS_MutexDbgListRemove                    0x08007707   Thumb Code    44  os_mutex.o(.text)
    OSMutexDel                               0x08007733   Thumb Code   842  os_mutex.o(.text)
    OSMutexPend                              0x08007a7d   Thumb Code   706  os_mutex.o(.text)
    OSMutexPendAbort                         0x08007d3f   Thumb Code   314  os_mutex.o(.text)
    OSMutexPost                              0x08007e79   Thumb Code   564  os_mutex.o(.text)
    OS_MutexInit                             0x080080ad   Thumb Code    14  os_mutex.o(.text)
    OS_PrioInit                              0x080080dd   Thumb Code    20  os_prio.o(.text)
    OS_PrioGetHighest                        0x080080f1   Thumb Code    36  os_prio.o(.text)
    OS_PrioInsert                            0x08008115   Thumb Code    32  os_prio.o(.text)
    OS_PrioRemove                            0x08008135   Thumb Code    32  os_prio.o(.text)
    OS_QDbgListAdd                           0x08008159   Thumb Code    38  os_q.o(.text)
    OSQCreate                                0x0800817f   Thumb Code   186  os_q.o(.text)
    OS_QClr                                  0x08008239   Thumb Code    40  os_q.o(.text)
    OS_QDbgListRemove                        0x08008261   Thumb Code    44  os_q.o(.text)
    OSQDel                                   0x0800828d   Thumb Code   362  os_q.o(.text)
    OSQFlush                                 0x080083f7   Thumb Code   210  os_q.o(.text)
    OSQPend                                  0x080084c9   Thumb Code   538  os_q.o(.text)
    OSQPendAbort                             0x080086e3   Thumb Code   292  os_q.o(.text)
    OS_QPost                                 0x08008807   Thumb Code   324  os_q.o(.text)
    OSQPost                                  0x0800894b   Thumb Code   198  os_q.o(.text)
    OS_QInit                                 0x08008a11   Thumb Code    14  os_q.o(.text)
    OS_SemDbgListAdd                         0x08008a31   Thumb Code    38  os_sem.o(.text)
    OSSemCreate                              0x08008a57   Thumb Code   172  os_sem.o(.text)
    OS_SemClr                                0x08008b03   Thumb Code    28  os_sem.o(.text)
    OS_SemDbgListRemove                      0x08008b1f   Thumb Code    44  os_sem.o(.text)
    OSSemDel                                 0x08008b4b   Thumb Code   362  os_sem.o(.text)
    OSSemPend                                0x08008cb5   Thumb Code   504  os_sem.o(.text)
    OSSemPendAbort                           0x08008ead   Thumb Code   292  os_sem.o(.text)
    OS_SemPost                               0x08008fd1   Thumb Code   350  os_sem.o(.text)
    OSSemPost                                0x0800912f   Thumb Code   144  os_sem.o(.text)
    OSSemSet                                 0x080091bf   Thumb Code   138  os_sem.o(.text)
    OS_SemInit                               0x08009249   Thumb Code    14  os_sem.o(.text)
    OSStatReset                              0x08009261   Thumb Code   270  os_stat.o(.text)
    OSStatTaskCPUUsageInit                   0x0800936f   Thumb Code   212  os_stat.o(.text)
    OS_StatTask                              0x08009443   Thumb Code   888  os_stat.o(.text)
    OS_StatTaskInit                          0x080097bb   Thumb Code   138  os_stat.o(.text)
    OSTaskChangePrio                         0x08009899   Thumb Code   416  os_task.o(.text)
    OS_TaskDbgListAdd                        0x08009a39   Thumb Code    42  os_task.o(.text)
    OS_TaskInitTCB                           0x08009a63   Thumb Code   186  os_task.o(.text)
    OSTaskCreate                             0x08009b1d   Thumb Code   616  os_task.o(.text)
    OS_TaskDbgListRemove                     0x08009d85   Thumb Code    64  os_task.o(.text)
    OSTaskDel                                0x08009dc5   Thumb Code   424  os_task.o(.text)
    OSTaskQFlush                             0x08009f6d   Thumb Code   214  os_task.o(.text)
    OSTaskQPend                              0x0800a043   Thumb Code   554  os_task.o(.text)
    OSTaskQPendAbort                         0x0800a26d   Thumb Code   242  os_task.o(.text)
    OS_TaskQPost                             0x0800a35f   Thumb Code   526  os_task.o(.text)
    OSTaskQPost                              0x0800a56d   Thumb Code   114  os_task.o(.text)
    OSTaskRegGet                             0x0800a5df   Thumb Code    78  os_task.o(.text)
    OSTaskRegGetID                           0x0800a62d   Thumb Code    84  os_task.o(.text)
    OSTaskRegSet                             0x0800a681   Thumb Code    78  os_task.o(.text)
    OS_TaskResume                            0x0800a6cf   Thumb Code   314  os_task.o(.text)
    OSTaskResume                             0x0800a809   Thumb Code   112  os_task.o(.text)
    OSTaskSemPend                            0x0800a879   Thumb Code   550  os_task.o(.text)
    OSTaskSemPendAbort                       0x0800aa9f   Thumb Code   270  os_task.o(.text)
    OS_TaskSemPost                           0x0800abad   Thumb Code  1224  os_task.o(.text)
    OSTaskSemPost                            0x0800b075   Thumb Code    98  os_task.o(.text)
    OSTaskSemSet                             0x0800b0d7   Thumb Code    80  os_task.o(.text)
    OSTaskStkChk                             0x0800b127   Thumb Code   224  os_task.o(.text)
    OS_TaskSuspend                           0x0800b207   Thumb Code   328  os_task.o(.text)
    OSTaskSuspend                            0x0800b34f   Thumb Code    78  os_task.o(.text)
    OSTaskTimeQuantaSet                      0x0800b39d   Thumb Code    96  os_task.o(.text)
    OS_TaskInit                              0x0800b3fd   Thumb Code    18  os_task.o(.text)
    OS_TaskReturn                            0x0800b40f   Thumb Code    20  os_task.o(.text)
    OS_TickListRemove                        0x0800b44d   Thumb Code    56  os_tick.o(.text)
    OS_TickListUpdate                        0x0800b485   Thumb Code   480  os_tick.o(.text)
    OS_TickTask                              0x0800b665   Thumb Code    38  os_tick.o(.text)
    OS_TickListInit                          0x0800b68b   Thumb Code    32  os_tick.o(.text)
    OS_TickTaskInit                          0x0800b6ab   Thumb Code   130  os_tick.o(.text)
    OS_TickListInsert                        0x0800b72d   Thumb Code   502  os_tick.o(.text)
    OS_TickListResetPeak                     0x0800b923   Thumb Code    28  os_tick.o(.text)
    OSTimeDly                                0x0800b949   Thumb Code   266  os_time.o(.text)
    OSTimeDlyHMSM                            0x0800ba53   Thumb Code   480  os_time.o(.text)
    OSTimeDlyResume                          0x0800bc33   Thumb Code   466  os_time.o(.text)
    OSTimeGet                                0x0800be05   Thumb Code    46  os_time.o(.text)
    OSTimeSet                                0x0800be33   Thumb Code    46  os_time.o(.text)
    OSTimeTick                               0x0800be61   Thumb Code    54  os_time.o(.text)
    OS_TmrDbgListAdd                         0x0800bead   Thumb Code    34  os_tmr.o(.text)
    OSTmrCreate                              0x0800becf   Thumb Code   248  os_tmr.o(.text)
    OS_TmrClr                                0x0800bfc7   Thumb Code    36  os_tmr.o(.text)
    OS_TmrUnlink                             0x0800bfeb   Thumb Code    72  os_tmr.o(.text)
    OS_TmrDbgListRemove                      0x0800c033   Thumb Code    44  os_tmr.o(.text)
    OSTmrDel                                 0x0800c05f   Thumb Code   176  os_tmr.o(.text)
    OSTmrRemainGet                           0x0800c10f   Thumb Code   184  os_tmr.o(.text)
    OS_TmrLink                               0x0800c1c7   Thumb Code   196  os_tmr.o(.text)
    OSTmrStart                               0x0800c28b   Thumb Code   210  os_tmr.o(.text)
    OSTmrStateGet                            0x0800c35d   Thumb Code   134  os_tmr.o(.text)
    OSTmrStop                                0x0800c3e3   Thumb Code   232  os_tmr.o(.text)
    OS_TmrTask                               0x0800c4cb   Thumb Code   176  os_tmr.o(.text)
    OS_TmrInit                               0x0800c57b   Thumb Code   208  os_tmr.o(.text)
    OS_TmrResetPeak                          0x0800c64b   Thumb Code    28  os_tmr.o(.text)
    OSIdleTaskHook                           0x0800c6c5   Thumb Code    16  os_cpu_c.o(.text)
    OSInitHook                               0x0800c6d5   Thumb Code    42  os_cpu_c.o(.text)
    OSStatTaskHook                           0x0800c6ff   Thumb Code    16  os_cpu_c.o(.text)
    OSTaskCreateHook                         0x0800c70f   Thumb Code    20  os_cpu_c.o(.text)
    OSTaskDelHook                            0x0800c723   Thumb Code    20  os_cpu_c.o(.text)
    OSTaskReturnHook                         0x0800c737   Thumb Code    20  os_cpu_c.o(.text)
    OSTaskStkInit                            0x0800c74b   Thumb Code   188  os_cpu_c.o(.text)
    OSTaskSwHook                             0x0800c807   Thumb Code   120  os_cpu_c.o(.text)
    OSTimeTickHook                           0x0800c87f   Thumb Code    16  os_cpu_c.o(.text)
    OS_CPU_SysTickHandler                    0x0800c88f   Thumb Code    52  os_cpu_c.o(.text)
    OS_CPU_SysTickInit                       0x0800c8c3   Thumb Code    44  os_cpu_c.o(.text)
    __use_no_semihosting                     0x0800c931   Thumb Code     2  use_no_semi_2.o(.text)
    __aeabi_uldivmod                         0x0800c933   Thumb Code     0  lludivv7m.o(.text)
    _ll_udiv                                 0x0800c933   Thumb Code   238  lludivv7m.o(.text)
    __2printf                                0x0800ca21   Thumb Code    20  noretval__2printf.o(.text)
    __2sprintf                               0x0800ca39   Thumb Code    34  noretval__2sprintf.o(.text)
    __printf                                 0x0800ca61   Thumb Code   104  __printf.o(.text)
    _printf_int_dec                          0x0800cac9   Thumb Code   104  _printf_dec.o(.text)
    _printf_int_hex                          0x0800cb41   Thumb Code    84  _printf_hex_int.o(.text)
    _printf_longlong_hex                     0x0800cb41   Thumb Code     0  _printf_hex_int.o(.text)
    __use_two_region_memory                  0x0800cb99   Thumb Code     2  heapauxi.o(.text)
    __rt_heap_escrow$2region                 0x0800cb9b   Thumb Code     2  heapauxi.o(.text)
    __rt_heap_expand$2region                 0x0800cb9d   Thumb Code     2  heapauxi.o(.text)
    __I$use$semihosting                      0x0800cb9f   Thumb Code     0  use_no_semi.o(.text)
    __use_no_semihosting_swi                 0x0800cb9f   Thumb Code     2  use_no_semi.o(.text)
    _printf_int_common                       0x0800cba1   Thumb Code   178  _printf_intcommon.o(.text)
    _printf_char_common                      0x0800cc5f   Thumb Code    32  _printf_char_common.o(.text)
    _sputc                                   0x0800cc85   Thumb Code    10  _sputc.o(.text)
    _printf_char_file                        0x0800cc91   Thumb Code    32  _printf_char_file.o(.text)
    ferror                                   0x0800ccb5   Thumb Code     8  ferror.o(.text)
    __user_setup_stackheap                   0x0800ccbd   Thumb Code    74  sys_stackheap_outer.o(.text)
    exit                                     0x0800cd07   Thumb Code    18  exit.o(.text)
    __user_libspace                          0x0800cd19   Thumb Code     8  libspace.o(.text)
    __user_perproc_libspace                  0x0800cd19   Thumb Code     0  libspace.o(.text)
    __user_perthread_libspace                0x0800cd19   Thumb Code     0  libspace.o(.text)
    OSStartHighRdy                           0x0800cd21   Thumb Code     0  os_cpu_a.o(CODE)
    PendSV_Handler                           0x0800cd57   Thumb Code     0  os_cpu_a.o(CODE)
    ascii_1206                               0x0800cdb8   Data        1140  tftlcd.o(.constdata)
    ascii_1608                               0x0800d22c   Data        1520  tftlcd.o(.constdata)
    ascii_2412                               0x0800d81c   Data        3420  tftlcd.o(.constdata)
    CnChar32x29                              0x0800e578   Data        1062  tftlcd.o(.constdata)
    memtblsize                               0x0800e9a0   Data           8  malloc.o(.constdata)
    memblksize                               0x0800e9a8   Data           8  malloc.o(.constdata)
    memsize                                  0x0800e9b0   Data           8  malloc.o(.constdata)
    CPU_EndiannessTest                       0x0800eab8   Data           4  cpu_core.o(.constdata)
    OSCfg_IdleTaskStkBasePtr                 0x0800eb50   Data           4  os_cfg_app.o(.constdata)
    OSCfg_IdleTaskStkLimit                   0x0800eb54   Data           4  os_cfg_app.o(.constdata)
    OSCfg_IdleTaskStkSize                    0x0800eb58   Data           4  os_cfg_app.o(.constdata)
    OSCfg_IdleTaskStkSizeRAM                 0x0800eb5c   Data           4  os_cfg_app.o(.constdata)
    OSCfg_IntQBasePtr                        0x0800eb60   Data           4  os_cfg_app.o(.constdata)
    OSCfg_IntQSize                           0x0800eb64   Data           2  os_cfg_app.o(.constdata)
    OSCfg_IntQSizeRAM                        0x0800eb68   Data           4  os_cfg_app.o(.constdata)
    OSCfg_IntQTaskStkBasePtr                 0x0800eb6c   Data           4  os_cfg_app.o(.constdata)
    OSCfg_IntQTaskStkLimit                   0x0800eb70   Data           4  os_cfg_app.o(.constdata)
    OSCfg_IntQTaskStkSize                    0x0800eb74   Data           4  os_cfg_app.o(.constdata)
    OSCfg_IntQTaskStkSizeRAM                 0x0800eb78   Data           4  os_cfg_app.o(.constdata)
    OSCfg_ISRStkBasePtr                      0x0800eb7c   Data           4  os_cfg_app.o(.constdata)
    OSCfg_ISRStkSize                         0x0800eb80   Data           4  os_cfg_app.o(.constdata)
    OSCfg_ISRStkSizeRAM                      0x0800eb84   Data           4  os_cfg_app.o(.constdata)
    OSCfg_MsgPoolSize                        0x0800eb88   Data           2  os_cfg_app.o(.constdata)
    OSCfg_MsgPoolSizeRAM                     0x0800eb8c   Data           4  os_cfg_app.o(.constdata)
    OSCfg_MsgPoolBasePtr                     0x0800eb90   Data           4  os_cfg_app.o(.constdata)
    OSCfg_StatTaskPrio                       0x0800eb94   Data           1  os_cfg_app.o(.constdata)
    OSCfg_StatTaskRate_Hz                    0x0800eb98   Data           4  os_cfg_app.o(.constdata)
    OSCfg_StatTaskStkBasePtr                 0x0800eb9c   Data           4  os_cfg_app.o(.constdata)
    OSCfg_StatTaskStkLimit                   0x0800eba0   Data           4  os_cfg_app.o(.constdata)
    OSCfg_StatTaskStkSize                    0x0800eba4   Data           4  os_cfg_app.o(.constdata)
    OSCfg_StatTaskStkSizeRAM                 0x0800eba8   Data           4  os_cfg_app.o(.constdata)
    OSCfg_StkSizeMin                         0x0800ebac   Data           4  os_cfg_app.o(.constdata)
    OSCfg_TickRate_Hz                        0x0800ebb0   Data           4  os_cfg_app.o(.constdata)
    OSCfg_TickTaskPrio                       0x0800ebb4   Data           1  os_cfg_app.o(.constdata)
    OSCfg_TickTaskStkBasePtr                 0x0800ebb8   Data           4  os_cfg_app.o(.constdata)
    OSCfg_TickTaskStkLimit                   0x0800ebbc   Data           4  os_cfg_app.o(.constdata)
    OSCfg_TickTaskStkSize                    0x0800ebc0   Data           4  os_cfg_app.o(.constdata)
    OSCfg_TickTaskStkSizeRAM                 0x0800ebc4   Data           4  os_cfg_app.o(.constdata)
    OSCfg_TickWheelSize                      0x0800ebc8   Data           2  os_cfg_app.o(.constdata)
    OSCfg_TickWheelSizeRAM                   0x0800ebcc   Data           4  os_cfg_app.o(.constdata)
    OSCfg_TmrTaskPrio                        0x0800ebd0   Data           1  os_cfg_app.o(.constdata)
    OSCfg_TmrTaskRate_Hz                     0x0800ebd4   Data           4  os_cfg_app.o(.constdata)
    OSCfg_TmrTaskStkBasePtr                  0x0800ebd8   Data           4  os_cfg_app.o(.constdata)
    OSCfg_TmrTaskStkLimit                    0x0800ebdc   Data           4  os_cfg_app.o(.constdata)
    OSCfg_TmrTaskStkSize                     0x0800ebe0   Data           4  os_cfg_app.o(.constdata)
    OSCfg_TmrTaskStkSizeRAM                  0x0800ebe4   Data           4  os_cfg_app.o(.constdata)
    OSCfg_TmrWheelSize                       0x0800ebe8   Data           2  os_cfg_app.o(.constdata)
    OSCfg_TmrWheelSizeRAM                    0x0800ebec   Data           4  os_cfg_app.o(.constdata)
    OSCfg_DataSizeRAM                        0x0800ebf0   Data           4  os_cfg_app.o(.constdata)
    OSDbg_DbgEn                              0x0800ebf4   Data           2  os_dbg.o(.constdata)
    OSDbg_ArgChkEn                           0x0800ebf6   Data           1  os_dbg.o(.constdata)
    OSDbg_AppHooksEn                         0x0800ebf7   Data           1  os_dbg.o(.constdata)
    OSDbg_EndiannessTest                     0x0800ebf8   Data           4  os_dbg.o(.constdata)
    OSDbg_CalledFromISRChkEn                 0x0800ebfc   Data           1  os_dbg.o(.constdata)
    OSDbg_FlagEn                             0x0800ebfd   Data           1  os_dbg.o(.constdata)
    OSDbg_FlagGrp                            0x0800ec00   Data          40  os_dbg.o(.constdata)
    OSDbg_FlagDelEn                          0x0800ec28   Data           1  os_dbg.o(.constdata)
    OSDbg_FlagModeClrEn                      0x0800ec29   Data           1  os_dbg.o(.constdata)
    OSDbg_FlagPendAbortEn                    0x0800ec2a   Data           1  os_dbg.o(.constdata)
    OSDbg_FlagGrpSize                        0x0800ec2c   Data           2  os_dbg.o(.constdata)
    OSDbg_FlagWidth                          0x0800ec2e   Data           2  os_dbg.o(.constdata)
    OSDbg_IntQ                               0x0800ec30   Data           2  os_dbg.o(.constdata)
    OSDbg_ISRPostDeferredEn                  0x0800ec32   Data           1  os_dbg.o(.constdata)
    OSDbg_Mem                                0x0800ec34   Data          32  os_dbg.o(.constdata)
    OSDbg_MemEn                              0x0800ec54   Data           1  os_dbg.o(.constdata)
    OSDbg_MemSize                            0x0800ec56   Data           2  os_dbg.o(.constdata)
    OSDbg_MsgEn                              0x0800ec58   Data           1  os_dbg.o(.constdata)
    OSDbg_MsgSize                            0x0800ec5a   Data           2  os_dbg.o(.constdata)
    OSDbg_MsgPoolSize                        0x0800ec5c   Data           2  os_dbg.o(.constdata)
    OSDbg_MsgQSize                           0x0800ec5e   Data           2  os_dbg.o(.constdata)
    OSDbg_Mutex                              0x0800ec60   Data          44  os_dbg.o(.constdata)
    OSDbg_MutexEn                            0x0800ec8c   Data           1  os_dbg.o(.constdata)
    OSDbg_MutexDelEn                         0x0800ec8d   Data           1  os_dbg.o(.constdata)
    OSDbg_MutexPendAbortEn                   0x0800ec8e   Data           1  os_dbg.o(.constdata)
    OSDbg_MutexSize                          0x0800ec90   Data           2  os_dbg.o(.constdata)
    OSDbg_ObjTypeChkEn                       0x0800ec92   Data           1  os_dbg.o(.constdata)
    OSDbg_PendMultiEn                        0x0800ec93   Data           1  os_dbg.o(.constdata)
    OSDbg_PendDataSize                       0x0800ec94   Data           2  os_dbg.o(.constdata)
    OSDbg_PendListSize                       0x0800ec96   Data           2  os_dbg.o(.constdata)
    OSDbg_PendObjSize                        0x0800ec98   Data           2  os_dbg.o(.constdata)
    OSDbg_PrioMax                            0x0800ec9a   Data           2  os_dbg.o(.constdata)
    OSDbg_PrioTblSize                        0x0800ec9c   Data           2  os_dbg.o(.constdata)
    OSDbg_PtrSize                            0x0800ec9e   Data           2  os_dbg.o(.constdata)
    OSDbg_Q                                  0x0800eca0   Data          48  os_dbg.o(.constdata)
    OSDbg_QEn                                0x0800ecd0   Data           1  os_dbg.o(.constdata)
    OSDbg_QDelEn                             0x0800ecd1   Data           1  os_dbg.o(.constdata)
    OSDbg_QFlushEn                           0x0800ecd2   Data           1  os_dbg.o(.constdata)
    OSDbg_QPendAbortEn                       0x0800ecd3   Data           1  os_dbg.o(.constdata)
    OSDbg_QSize                              0x0800ecd4   Data           2  os_dbg.o(.constdata)
    OSDbg_SchedRoundRobinEn                  0x0800ecd6   Data           1  os_dbg.o(.constdata)
    OSDbg_Sem                                0x0800ecd8   Data          40  os_dbg.o(.constdata)
    OSDbg_SemEn                              0x0800ed00   Data           1  os_dbg.o(.constdata)
    OSDbg_SemDelEn                           0x0800ed01   Data           1  os_dbg.o(.constdata)
    OSDbg_SemPendAbortEn                     0x0800ed02   Data           1  os_dbg.o(.constdata)
    OSDbg_SemSetEn                           0x0800ed03   Data           1  os_dbg.o(.constdata)
    OSDbg_SemSize                            0x0800ed04   Data           2  os_dbg.o(.constdata)
    OSDbg_RdyList                            0x0800ed06   Data           2  os_dbg.o(.constdata)
    OSDbg_RdyListSize                        0x0800ed08   Data           4  os_dbg.o(.constdata)
    OSDbg_StkWidth                           0x0800ed0c   Data           1  os_dbg.o(.constdata)
    OSDbg_StatTaskEn                         0x0800ed0d   Data           1  os_dbg.o(.constdata)
    OSDbg_StatTaskStkChkEn                   0x0800ed0e   Data           1  os_dbg.o(.constdata)
    OSDbg_TaskChangePrioEn                   0x0800ed0f   Data           1  os_dbg.o(.constdata)
    OSDbg_TaskDelEn                          0x0800ed10   Data           1  os_dbg.o(.constdata)
    OSDbg_TaskQEn                            0x0800ed11   Data           1  os_dbg.o(.constdata)
    OSDbg_TaskQPendAbortEn                   0x0800ed12   Data           1  os_dbg.o(.constdata)
    OSDbg_TaskProfileEn                      0x0800ed13   Data           1  os_dbg.o(.constdata)
    OSDbg_TaskRegTblSize                     0x0800ed14   Data           2  os_dbg.o(.constdata)
    OSDbg_TaskSemPendAbortEn                 0x0800ed16   Data           1  os_dbg.o(.constdata)
    OSDbg_TaskSuspendEn                      0x0800ed17   Data           1  os_dbg.o(.constdata)
    OSDbg_TCBSize                            0x0800ed18   Data           2  os_dbg.o(.constdata)
    OSDbg_TickSpokeSize                      0x0800ed1a   Data           2  os_dbg.o(.constdata)
    OSDbg_TimeDlyHMSMEn                      0x0800ed1c   Data           1  os_dbg.o(.constdata)
    OSDbg_TimeDlyResumeEn                    0x0800ed1d   Data           1  os_dbg.o(.constdata)
    OSDbg_TLS_TblSize                        0x0800ed1e   Data           2  os_dbg.o(.constdata)
    OSDbg_Tmr                                0x0800ed20   Data          52  os_dbg.o(.constdata)
    OSDbg_TmrEn                              0x0800ed54   Data           1  os_dbg.o(.constdata)
    OSDbg_TmrDelEn                           0x0800ed55   Data           1  os_dbg.o(.constdata)
    OSDbg_TmrSize                            0x0800ed56   Data           2  os_dbg.o(.constdata)
    OSDbg_TmrSpokeSize                       0x0800ed58   Data           2  os_dbg.o(.constdata)
    OSDbg_VersionNbr                         0x0800ed5a   Data           2  os_dbg.o(.constdata)
    OSDbg_DataSize                           0x0800ed5c   Data           4  os_dbg.o(.constdata)
    Region$$Table$$Base                      0x0800ed88   Number         0  anon$$obj.o(Region$$Table)
    Region$$Table$$Limit                     0x0800eda8   Number         0  anon$$obj.o(Region$$Table)
    tmr1sta                                  0x20000000   Data           1  main.o(.data)
    lcd_discolor                             0x20000004   Data          56  main.o(.data)
    SystemCoreClock                          0x20000040   Data           4  system_stm32f10x.o(.data)
    AHBPrescTable                            0x20000044   Data          16  system_stm32f10x.o(.data)
    FRONT_COLOR                              0x20000054   Data           2  tftlcd.o(.data)
    BACK_COLOR                               0x20000056   Data           2  tftlcd.o(.data)
    tftlcd_data                              0x20000058   Data           8  tftlcd.o(.data)
    mallco_dev                               0x20000064   Data          28  malloc.o(.data)
    __stdout                                 0x20000084   Data           4  usart.o(.data)
    USART_RX_STA                             0x20000088   Data           2  usart.o(.data)
    CPU_TS_TmrFreq_Hz                        0x200000a0   Data           4  cpu_core.o(.data)
    Mem_PoolTbl                              0x200000a4   Data           4  lib_mem.o(.data)
    OSPrioTbl                                0x200000a8   Data           8  os_prio.o(.data)
    OS_AppTaskCreateHookPtr                  0x200000b0   Data           4  os_var.o(.data)
    OS_AppTaskDelHookPtr                     0x200000b4   Data           4  os_var.o(.data)
    OS_AppTaskReturnHookPtr                  0x200000b8   Data           4  os_var.o(.data)
    OS_AppIdleTaskHookPtr                    0x200000bc   Data           4  os_var.o(.data)
    OS_AppStatTaskHookPtr                    0x200000c0   Data           4  os_var.o(.data)
    OS_AppTaskSwHookPtr                      0x200000c4   Data           4  os_var.o(.data)
    OS_AppTimeTickHookPtr                    0x200000c8   Data           4  os_var.o(.data)
    OSIdleTaskCtr                            0x200000cc   Data           4  os_var.o(.data)
    OSIntNestingCtr                          0x200000d0   Data           1  os_var.o(.data)
    OSRunning                                0x200000d1   Data           1  os_var.o(.data)
    OSIntQInPtr                              0x200000d4   Data           4  os_var.o(.data)
    OSIntQOutPtr                             0x200000d8   Data           4  os_var.o(.data)
    OSIntQNbrEntries                         0x200000dc   Data           2  os_var.o(.data)
    OSIntQNbrEntriesMax                      0x200000de   Data           2  os_var.o(.data)
    OSIntQOvfCtr                             0x200000e0   Data           2  os_var.o(.data)
    OSIntQTaskTimeMax                        0x200000e4   Data           4  os_var.o(.data)
    OSFlagDbgListPtr                         0x200000e8   Data           4  os_var.o(.data)
    OSFlagQty                                0x200000ec   Data           2  os_var.o(.data)
    OSMemDbgListPtr                          0x200000f0   Data           4  os_var.o(.data)
    OSMemQty                                 0x200000f4   Data           2  os_var.o(.data)
    OSMutexDbgListPtr                        0x200000f8   Data           4  os_var.o(.data)
    OSMutexQty                               0x200000fc   Data           2  os_var.o(.data)
    OSPrioCur                                0x200000fe   Data           1  os_var.o(.data)
    OSPrioHighRdy                            0x200000ff   Data           1  os_var.o(.data)
    OSPrioSaved                              0x20000100   Data           1  os_var.o(.data)
    OSQDbgListPtr                            0x20000104   Data           4  os_var.o(.data)
    OSQQty                                   0x20000108   Data           2  os_var.o(.data)
    OSSchedLockTimeBegin                     0x2000010c   Data           4  os_var.o(.data)
    OSSchedLockTimeMax                       0x20000110   Data           4  os_var.o(.data)
    OSSchedLockTimeMaxCur                    0x20000114   Data           4  os_var.o(.data)
    OSSchedLockNestingCtr                    0x20000118   Data           1  os_var.o(.data)
    OSSchedRoundRobinDfltTimeQuanta          0x2000011c   Data           4  os_var.o(.data)
    OSSchedRoundRobinEn                      0x20000120   Data           1  os_var.o(.data)
    OSSemDbgListPtr                          0x20000124   Data           4  os_var.o(.data)
    OSSemQty                                 0x20000128   Data           2  os_var.o(.data)
    OSStatResetFlag                          0x2000012a   Data           1  os_var.o(.data)
    OSStatTaskCPUUsage                       0x2000012c   Data           2  os_var.o(.data)
    OSStatTaskCPUUsageMax                    0x2000012e   Data           2  os_var.o(.data)
    OSStatTaskCtr                            0x20000130   Data           4  os_var.o(.data)
    OSStatTaskCtrMax                         0x20000134   Data           4  os_var.o(.data)
    OSStatTaskCtrRun                         0x20000138   Data           4  os_var.o(.data)
    OSStatTaskRdy                            0x2000013c   Data           1  os_var.o(.data)
    OSStatTaskTimeMax                        0x20000140   Data           4  os_var.o(.data)
    OSTaskCtxSwCtr                           0x20000144   Data           4  os_var.o(.data)
    OSTaskDbgListPtr                         0x20000148   Data           4  os_var.o(.data)
    OSTaskQty                                0x2000014c   Data           2  os_var.o(.data)
    OSTaskRegNextAvailID                     0x2000014e   Data           1  os_var.o(.data)
    OSTickCtr                                0x20000150   Data           4  os_var.o(.data)
    OSTickTaskTimeMax                        0x20000154   Data           4  os_var.o(.data)
    OSTmrDbgListPtr                          0x20000158   Data           4  os_var.o(.data)
    OSTmrQty                                 0x2000015c   Data           2  os_var.o(.data)
    OSTmrTaskTimeMax                         0x20000160   Data           4  os_var.o(.data)
    OSTmrTickCtr                             0x20000164   Data           4  os_var.o(.data)
    OSTmrUpdateCnt                           0x20000168   Data           4  os_var.o(.data)
    OSTmrUpdateCtr                           0x2000016c   Data           4  os_var.o(.data)
    OSTCBCurPtr                              0x20000170   Data           4  os_var.o(.data)
    OSTCBHighRdyPtr                          0x20000174   Data           4  os_var.o(.data)
    OS_CPU_ExceptStkBase                     0x20000178   Data           4  os_cpu_c.o(.data)
    StartTaskTCB                             0x2000017c   Data         196  main.o(.bss)
    START_TASK_STK                           0x20000240   Data         512  main.o(.bss)
    MainTaskTCB                              0x20000440   Data         196  main.o(.bss)
    Main_TASK_STK                            0x20000504   Data         512  main.o(.bss)
    KeyProcessTaskTCB                        0x20000704   Data         196  main.o(.bss)
    KEYPROCESS_TASK_STK                      0x200007c8   Data         512  main.o(.bss)
    MsgdisTaskTCB                            0x200009c8   Data         196  main.o(.bss)
    MSGDIS_TASK_STK                          0x20000a8c   Data         512  main.o(.bss)
    tmr1                                     0x20000c8c   Data          52  main.o(.bss)
    KEY_Msg                                  0x20000cc0   Data          48  main.o(.bss)
    DATA_Msg                                 0x20000cf0   Data          48  main.o(.bss)
    mem1base                                 0x20000d20   Data       40960  malloc.o(.bss)
    mem1mapbase                              0x2000ad20   Data        2560  malloc.o(.bss)
    USART_RX_BUF                             0x2000b720   Data         200  usart.o(.bss)
    CPU_Name                                 0x2000b7e8   Data          16  cpu_core.o(.bss)
    Mem_PoolHeap                             0x2000b7f8   Data          72  lib_mem.o(.bss)
    Mem_Heap                                 0x2000b840   Data        1024  lib_mem.o(.bss)
    OSCfg_IdleTaskStk                        0x2000bc40   Data         512  os_cfg_app.o(.bss)
    OSCfg_IntQ                               0x2000be40   Data         320  os_cfg_app.o(.bss)
    OSCfg_IntQTaskStk                        0x2000bf80   Data         512  os_cfg_app.o(.bss)
    OSCfg_ISRStk                             0x2000c180   Data         512  os_cfg_app.o(.bss)
    OSCfg_MsgPool                            0x2000c380   Data        1600  os_cfg_app.o(.bss)
    OSCfg_StatTaskStk                        0x2000c9c0   Data         512  os_cfg_app.o(.bss)
    OSCfg_TickTaskStk                        0x2000cbc0   Data         512  os_cfg_app.o(.bss)
    OSCfg_TickWheel                          0x2000cdc0   Data         136  os_cfg_app.o(.bss)
    OSCfg_TmrTaskStk                         0x2000ce48   Data         512  os_cfg_app.o(.bss)
    OSCfg_TmrWheel                           0x2000d048   Data         136  os_cfg_app.o(.bss)
    OSIdleTaskTCB                            0x2000d0d0   Data         196  os_var.o(.bss)
    OSIntQTaskTCB                            0x2000d194   Data         196  os_var.o(.bss)
    OSMsgPool                                0x2000d258   Data          12  os_var.o(.bss)
    OSRdyList                                0x2000d264   Data         768  os_var.o(.bss)
    OSStatTaskTCB                            0x2000d564   Data         196  os_var.o(.bss)
    OSTickTaskTCB                            0x2000d628   Data         196  os_var.o(.bss)
    OSTmrTaskTCB                             0x2000d6ec   Data         196  os_var.o(.bss)
    __libspace_start                         0x2000d7b0   Data          96  libspace.o(.bss)
    __temporary_stack_top$libspace           0x2000d810   Data           0  libspace.o(.bss)
    mem2base                                 0x68000000   Data       983040  malloc.o(.ARM.__AT_0x68000000)
    mem2mapbase                              0x680f0000   Data       61440  malloc.o(.ARM.__AT_0x680F0000)



==============================================================================

Memory Map of the image

  Image Entry point : 0x08000131

  Load Region LR_IROM1 (Base: 0x08000000, Size: 0x0000ef24, Max: 0x00080000, ABSOLUTE, COMPRESSED[0x0000edfc])

    Execution Region ER_IROM1 (Exec base: 0x08000000, Load base: 0x08000000, Size: 0x0000eda8, Max: 0x00080000, ABSOLUTE)

    Exec Addr    Load Addr    Size         Type   Attr      Idx    E Section Name        Object

    0x08000000   0x08000000   0x00000130   Data   RO          382    RESET               startup_stm32f10x_hd.o
    0x08000130   0x08000130   0x00000008   Code   RO          910  * !!!main             c_w.l(__main.o)
    0x08000138   0x08000138   0x00000034   Code   RO         1092    !!!scatter          c_w.l(__scatter.o)
    0x0800016c   0x0800016c   0x0000005a   Code   RO         1090    !!dczerorl2         c_w.l(__dczerorl2.o)
    0x080001c6   0x080001c6   0x00000002   PAD
    0x080001c8   0x080001c8   0x0000001c   Code   RO         1094    !!handler_zi        c_w.l(__scatter_zi.o)
    0x080001e4   0x080001e4   0x00000000   Code   RO          907    .ARM.Collect$$_printf_percent$$00000000  c_w.l(_printf_percent.o)
    0x080001e4   0x080001e4   0x00000006   Code   RO          906    .ARM.Collect$$_printf_percent$$00000009  c_w.l(_printf_d.o)
    0x080001ea   0x080001ea   0x00000006   Code   RO          905    .ARM.Collect$$_printf_percent$$0000000C  c_w.l(_printf_x.o)
    0x080001f0   0x080001f0   0x00000004   Code   RO          927    .ARM.Collect$$_printf_percent$$00000017  c_w.l(_printf_percent_end.o)
    0x080001f4   0x080001f4   0x00000002   Code   RO          964    .ARM.Collect$$libinit$$00000000  c_w.l(libinit.o)
    0x080001f6   0x080001f6   0x00000000   Code   RO          977    .ARM.Collect$$libinit$$00000002  c_w.l(libinit2.o)
    0x080001f6   0x080001f6   0x00000000   Code   RO          979    .ARM.Collect$$libinit$$00000004  c_w.l(libinit2.o)
    0x080001f6   0x080001f6   0x00000000   Code   RO          982    .ARM.Collect$$libinit$$0000000A  c_w.l(libinit2.o)
    0x080001f6   0x080001f6   0x00000000   Code   RO          984    .ARM.Collect$$libinit$$0000000C  c_w.l(libinit2.o)
    0x080001f6   0x080001f6   0x00000000   Code   RO          986    .ARM.Collect$$libinit$$0000000E  c_w.l(libinit2.o)
    0x080001f6   0x080001f6   0x00000000   Code   RO          989    .ARM.Collect$$libinit$$00000011  c_w.l(libinit2.o)
    0x080001f6   0x080001f6   0x00000000   Code   RO          991    .ARM.Collect$$libinit$$00000013  c_w.l(libinit2.o)
    0x080001f6   0x080001f6   0x00000000   Code   RO          993    .ARM.Collect$$libinit$$00000015  c_w.l(libinit2.o)
    0x080001f6   0x080001f6   0x00000000   Code   RO          995    .ARM.Collect$$libinit$$00000017  c_w.l(libinit2.o)
    0x080001f6   0x080001f6   0x00000000   Code   RO          997    .ARM.Collect$$libinit$$00000019  c_w.l(libinit2.o)
    0x080001f6   0x080001f6   0x00000000   Code   RO          999    .ARM.Collect$$libinit$$0000001B  c_w.l(libinit2.o)
    0x080001f6   0x080001f6   0x00000000   Code   RO         1001    .ARM.Collect$$libinit$$0000001D  c_w.l(libinit2.o)
    0x080001f6   0x080001f6   0x00000000   Code   RO         1003    .ARM.Collect$$libinit$$0000001F  c_w.l(libinit2.o)
    0x080001f6   0x080001f6   0x00000000   Code   RO         1005    .ARM.Collect$$libinit$$00000021  c_w.l(libinit2.o)
    0x080001f6   0x080001f6   0x00000000   Code   RO         1007    .ARM.Collect$$libinit$$00000023  c_w.l(libinit2.o)
    0x080001f6   0x080001f6   0x00000000   Code   RO         1009    .ARM.Collect$$libinit$$00000025  c_w.l(libinit2.o)
    0x080001f6   0x080001f6   0x00000000   Code   RO         1013    .ARM.Collect$$libinit$$0000002C  c_w.l(libinit2.o)
    0x080001f6   0x080001f6   0x00000000   Code   RO         1015    .ARM.Collect$$libinit$$0000002E  c_w.l(libinit2.o)
    0x080001f6   0x080001f6   0x00000000   Code   RO         1017    .ARM.Collect$$libinit$$00000030  c_w.l(libinit2.o)
    0x080001f6   0x080001f6   0x00000000   Code   RO         1019    .ARM.Collect$$libinit$$00000032  c_w.l(libinit2.o)
    0x080001f6   0x080001f6   0x00000002   Code   RO         1020    .ARM.Collect$$libinit$$00000033  c_w.l(libinit2.o)
    0x080001f8   0x080001f8   0x00000002   Code   RO         1046    .ARM.Collect$$libshutdown$$00000000  c_w.l(libshutdown.o)
    0x080001fa   0x080001fa   0x00000000   Code   RO         1073    .ARM.Collect$$libshutdown$$00000002  c_w.l(libshutdown2.o)
    0x080001fa   0x080001fa   0x00000000   Code   RO         1075    .ARM.Collect$$libshutdown$$00000004  c_w.l(libshutdown2.o)
    0x080001fa   0x080001fa   0x00000000   Code   RO         1078    .ARM.Collect$$libshutdown$$00000007  c_w.l(libshutdown2.o)
    0x080001fa   0x080001fa   0x00000000   Code   RO         1081    .ARM.Collect$$libshutdown$$0000000A  c_w.l(libshutdown2.o)
    0x080001fa   0x080001fa   0x00000000   Code   RO         1083    .ARM.Collect$$libshutdown$$0000000C  c_w.l(libshutdown2.o)
    0x080001fa   0x080001fa   0x00000000   Code   RO         1086    .ARM.Collect$$libshutdown$$0000000F  c_w.l(libshutdown2.o)
    0x080001fa   0x080001fa   0x00000002   Code   RO         1087    .ARM.Collect$$libshutdown$$00000010  c_w.l(libshutdown2.o)
    0x080001fc   0x080001fc   0x00000000   Code   RO          914    .ARM.Collect$$rtentry$$00000000  c_w.l(__rtentry.o)
    0x080001fc   0x080001fc   0x00000000   Code   RO          929    .ARM.Collect$$rtentry$$00000002  c_w.l(__rtentry2.o)
    0x080001fc   0x080001fc   0x00000006   Code   RO          941    .ARM.Collect$$rtentry$$00000004  c_w.l(__rtentry4.o)
    0x08000202   0x08000202   0x00000000   Code   RO          931    .ARM.Collect$$rtentry$$00000009  c_w.l(__rtentry2.o)
    0x08000202   0x08000202   0x00000004   Code   RO          932    .ARM.Collect$$rtentry$$0000000A  c_w.l(__rtentry2.o)
    0x08000206   0x08000206   0x00000000   Code   RO          934    .ARM.Collect$$rtentry$$0000000C  c_w.l(__rtentry2.o)
    0x08000206   0x08000206   0x00000008   Code   RO          935    .ARM.Collect$$rtentry$$0000000D  c_w.l(__rtentry2.o)
    0x0800020e   0x0800020e   0x00000002   Code   RO          968    .ARM.Collect$$rtexit$$00000000  c_w.l(rtexit.o)
    0x08000210   0x08000210   0x00000000   Code   RO         1022    .ARM.Collect$$rtexit$$00000002  c_w.l(rtexit2.o)
    0x08000210   0x08000210   0x00000004   Code   RO         1023    .ARM.Collect$$rtexit$$00000003  c_w.l(rtexit2.o)
    0x08000214   0x08000214   0x00000006   Code   RO         1024    .ARM.Collect$$rtexit$$00000004  c_w.l(rtexit2.o)
    0x0800021a   0x0800021a   0x00000002   PAD
    0x0800021c   0x0800021c   0x00000810   Code   RO            1    .text               main.o
    0x08000a2c   0x08000a2c   0x00000016   Code   RO          162    .text               stm32f10x_it.o
    0x08000a42   0x08000a42   0x00000002   PAD
    0x08000a44   0x08000a44   0x000001e0   Code   RO          194    .text               system_stm32f10x.o
    0x08000c24   0x08000c24   0x0000004c   Code   RO          212    .text               led.o
    0x08000c70   0x08000c70   0x00000d6c   Code   RO          224    .text               tftlcd.o
    0x080019dc   0x080019dc   0x000000fc   Code   RO          253    .text               key.o
    0x08001ad8   0x08001ad8   0x00000038   Code   RO          266    .text               beep.o
    0x08001b10   0x08001b10   0x000001b4   Code   RO          278    .text               sram.o
    0x08001cc4   0x08001cc4   0x0000022c   Code   RO          294    .text               malloc.o
    0x08001ef0   0x08001ef0   0x0000014c   Code   RO          316    .text               delay.o
    0x0800203c   0x0800203c   0x00000150   Code   RO          347    .text               usart.o
    0x0800218c   0x0800218c   0x00000040   Code   RO          383    .text               startup_stm32f10x_hd.o
    0x080021cc   0x080021cc   0x000000dc   Code   RO          387    .text               misc.o
    0x080022a8   0x080022a8   0x0000035c   Code   RO          399    .text               stm32f10x_gpio.o
    0x08002604   0x08002604   0x00000408   Code   RO          411    .text               stm32f10x_usart.o
    0x08002a0c   0x08002a0c   0x000003a4   Code   RO          423    .text               stm32f10x_rcc.o
    0x08002db0   0x08002db0   0x0000060c   Code   RO          437    .text               stm32f10x_fsmc.o
    0x080033bc   0x080033bc   0x00000084   Code   RO          449    .text               bsp.o
    0x08003440   0x08003440   0x000002a8   Code   RO          464    .text               cpu_core.o
    0x080036e8   0x080036e8   0x00000034   Code   RO          502    .text               cpu_a.o
    0x0800371c   0x0800371c   0x00000256   Code   RO          505    .text               lib_ascii.o
    0x08003972   0x08003972   0x00000002   PAD
    0x08003974   0x08003974   0x000009c6   Code   RO          538    .text               lib_mem.o
    0x0800433a   0x0800433a   0x00000002   PAD
    0x0800433c   0x0800433c   0x0000092c   Code   RO          557    .text               lib_str.o
    0x08004c68   0x08004c68   0x00000220   Code   RO          574    .text               lib_mem_a.o
    0x08004e88   0x08004e88   0x000000fc   Code   RO          577    .text               os_cfg_app.o
    0x08004f84   0x08004f84   0x00000e04   Code   RO          600    .text               os_core.o
    0x08005d88   0x08005d88   0x000001b0   Code   RO          612    .text               os_dbg.o
    0x08005f38   0x08005f38   0x00000e28   Code   RO          627    .text               os_flag.o
    0x08006d60   0x08006d60   0x00000444   Code   RO          639    .text               os_int.o
    0x080071a4   0x080071a4   0x00000238   Code   RO          651    .text               os_mem.o
    0x080073dc   0x080073dc   0x0000022c   Code   RO          663    .text               os_msg.o
    0x08007608   0x08007608   0x00000ad4   Code   RO          675    .text               os_mutex.o
    0x080080dc   0x080080dc   0x0000007c   Code   RO          693    .text               os_prio.o
    0x08008158   0x08008158   0x000008d8   Code   RO          712    .text               os_q.o
    0x08008a30   0x08008a30   0x00000830   Code   RO          724    .text               os_sem.o
    0x08009260   0x08009260   0x00000638   Code   RO          736    .text               os_stat.o
    0x08009898   0x08009898   0x00001bb4   Code   RO          748    .text               os_task.o
    0x0800b44c   0x0800b44c   0x000004fc   Code   RO          760    .text               os_tick.o
    0x0800b948   0x0800b948   0x00000564   Code   RO          772    .text               os_time.o
    0x0800beac   0x0800beac   0x00000818   Code   RO          784    .text               os_tmr.o
    0x0800c6c4   0x0800c6c4   0x0000026c   Code   RO          813    .text               os_cpu_c.o
    0x0800c930   0x0800c930   0x00000002   Code   RO          848    .text               c_w.l(use_no_semi_2.o)
    0x0800c932   0x0800c932   0x000000ee   Code   RO          850    .text               c_w.l(lludivv7m.o)
    0x0800ca20   0x0800ca20   0x00000018   Code   RO          856    .text               c_w.l(noretval__2printf.o)
    0x0800ca38   0x0800ca38   0x00000028   Code   RO          858    .text               c_w.l(noretval__2sprintf.o)
    0x0800ca60   0x0800ca60   0x00000068   Code   RO          860    .text               c_w.l(__printf.o)
    0x0800cac8   0x0800cac8   0x00000078   Code   RO          862    .text               c_w.l(_printf_dec.o)
    0x0800cb40   0x0800cb40   0x00000058   Code   RO          867    .text               c_w.l(_printf_hex_int.o)
    0x0800cb98   0x0800cb98   0x00000006   Code   RO          908    .text               c_w.l(heapauxi.o)
    0x0800cb9e   0x0800cb9e   0x00000002   Code   RO          912    .text               c_w.l(use_no_semi.o)
    0x0800cba0   0x0800cba0   0x000000b2   Code   RO          919    .text               c_w.l(_printf_intcommon.o)
    0x0800cc52   0x0800cc52   0x00000002   PAD
    0x0800cc54   0x0800cc54   0x00000030   Code   RO          921    .text               c_w.l(_printf_char_common.o)
    0x0800cc84   0x0800cc84   0x0000000a   Code   RO          923    .text               c_w.l(_sputc.o)
    0x0800cc8e   0x0800cc8e   0x00000002   PAD
    0x0800cc90   0x0800cc90   0x00000024   Code   RO          925    .text               c_w.l(_printf_char_file.o)
    0x0800ccb4   0x0800ccb4   0x00000008   Code   RO          947    .text               c_w.l(ferror.o)
    0x0800ccbc   0x0800ccbc   0x0000004a   Code   RO          951    .text               c_w.l(sys_stackheap_outer.o)
    0x0800cd06   0x0800cd06   0x00000012   Code   RO          953    .text               c_w.l(exit.o)
    0x0800cd18   0x0800cd18   0x00000008   Code   RO          965    .text               c_w.l(libspace.o)
    0x0800cd20   0x0800cd20   0x00000098   Code   RO          810    CODE                os_cpu_a.o
    0x0800cdb8   0x0800cdb8   0x00001be6   Data   RO          225    .constdata          tftlcd.o
    0x0800e99e   0x0800e99e   0x00000002   PAD
    0x0800e9a0   0x0800e9a0   0x00000018   Data   RO          298    .constdata          malloc.o
    0x0800e9b8   0x0800e9b8   0x00000104   Data   RO          466    .constdata          cpu_core.o
    0x0800eabc   0x0800eabc   0x00000094   Data   RO          558    .constdata          lib_str.o
    0x0800eb50   0x0800eb50   0x000000a4   Data   RO          579    .constdata          os_cfg_app.o
    0x0800ebf4   0x0800ebf4   0x0000016c   Data   RO          613    .constdata          os_dbg.o
    0x0800ed60   0x0800ed60   0x00000028   Data   RO          868    .constdata          c_w.l(_printf_hex_int.o)
    0x0800ed88   0x0800ed88   0x00000020   Data   RO         1088    Region$$Table       anon$$obj.o


    Execution Region RW_IRAM1 (Exec base: 0x20000000, Load base: 0x0800eda8, Size: 0x0000e210, Max: 0x00010000, ABSOLUTE, COMPRESSED[0x00000054])

    Exec Addr    Load Addr    Size         Type   Attr      Idx    E Section Name        Object

    0x20000000   COMPRESSED   0x0000003d   Data   RW            3    .data               main.o
    0x2000003d   COMPRESSED   0x00000003   PAD
    0x20000040   COMPRESSED   0x00000014   Data   RW          195    .data               system_stm32f10x.o
    0x20000054   COMPRESSED   0x0000000c   Data   RW          226    .data               tftlcd.o
    0x20000060   COMPRESSED   0x00000001   Data   RW          254    .data               key.o
    0x20000061   COMPRESSED   0x00000003   PAD
    0x20000064   COMPRESSED   0x0000001c   Data   RW          299    .data               malloc.o
    0x20000080   COMPRESSED   0x00000004   Data   RW          317    .data               delay.o
    0x20000084   COMPRESSED   0x00000006   Data   RW          349    .data               usart.o
    0x2000008a   COMPRESSED   0x00000014   Data   RW          424    .data               stm32f10x_rcc.o
    0x2000009e   COMPRESSED   0x00000002   PAD
    0x200000a0   COMPRESSED   0x00000004   Data   RW          467    .data               cpu_core.o
    0x200000a4   COMPRESSED   0x00000004   Data   RW          540    .data               lib_mem.o
    0x200000a8   COMPRESSED   0x00000008   Data   RW          694    .data               os_prio.o
    0x200000b0   COMPRESSED   0x000000c8   Data   RW          797    .data               os_var.o
    0x20000178   COMPRESSED   0x00000004   Data   RW          814    .data               os_cpu_c.o
    0x2000017c        -       0x00000ba4   Zero   RW            2    .bss                main.o
    0x20000d20        -       0x0000aa00   Zero   RW          297    .bss                malloc.o
    0x2000b720        -       0x000000c8   Zero   RW          348    .bss                usart.o
    0x2000b7e8        -       0x00000010   Zero   RW          465    .bss                cpu_core.o
    0x2000b7f8        -       0x00000448   Zero   RW          539    .bss                lib_mem.o
    0x2000bc40        -       0x00001490   Zero   RW          578    .bss                os_cfg_app.o
    0x2000d0d0        -       0x000006e0   Zero   RW          796    .bss                os_var.o
    0x2000d7b0        -       0x00000060   Zero   RW          966    .bss                c_w.l(libspace.o)
    0x2000d810        -       0x00000200   Zero   RW          381    HEAP                startup_stm32f10x_hd.o
    0x2000da10        -       0x00000800   Zero   RW          380    STACK               startup_stm32f10x_hd.o



  Load Region LR$$.ARM.__AT_0x68000000 (Base: 0x68000000, Size: 0x00000000, Max: 0x000f0000, ABSOLUTE)

    Execution Region ER$$.ARM.__AT_0x68000000 (Exec base: 0x68000000, Load base: 0x68000000, Size: 0x000f0000, Max: 0x000f0000, ABSOLUTE, UNINIT)

    Exec Addr    Load Addr    Size         Type   Attr      Idx    E Section Name        Object

    0x68000000        -       0x000f0000   Zero   RW          295    .ARM.__AT_0x68000000  malloc.o



  Load Region LR$$.ARM.__AT_0x680F0000 (Base: 0x680f0000, Size: 0x00000000, Max: 0x0000f000, ABSOLUTE)

    Execution Region ER$$.ARM.__AT_0x680F0000 (Exec base: 0x680f0000, Load base: 0x680f0000, Size: 0x0000f000, Max: 0x0000f000, ABSOLUTE, UNINIT)

    Exec Addr    Load Addr    Size         Type   Attr      Idx    E Section Name        Object

    0x680f0000        -       0x0000f000   Zero   RW          296    .ARM.__AT_0x680F0000  malloc.o


==============================================================================

Image component sizes


      Code (inc. data)   RO Data    RW Data    ZI Data      Debug   Object Name

        56          6          0          0          0        488   beep.o
       132         12          0          0          0       1151   bsp.o
        52          0          0          0          0        340   cpu_a.o
       680         14        260          4         16      14411   cpu_core.o
       332         28          0          4          0       1817   delay.o
       252         12          0          1          0        844   key.o
        76          8          0          0          0        499   led.o
       598          0          0          0          0       3888   lib_ascii.o
      2502         32          0          4       1096      22228   lib_mem.o
       544          0          0          0          0        484   lib_mem_a.o
      2348          6        148          0          0      13794   lib_str.o
      2064        432          0         61       2980     284299   main.o
       556         18         24         28    1088000       4688   malloc.o
       220         22          0          0          0       1829   misc.o
       252        166        164          0       5264      20914   os_cfg_app.o
      3588        294          0          0          0      12465   os_core.o
       152         32          0          0          0        396   os_cpu_a.o
       620         66          0          4          0       3821   os_cpu_c.o
       432        286        364          0          0       4761   os_dbg.o
      3624        110          0          0          0       8047   os_flag.o
      1092        146          0          0          0       2352   os_int.o
       568         20          0          0          0       2776   os_mem.o
       556         12          0          0          0       2811   os_msg.o
      2772        114          0          0          0       5582   os_mutex.o
       124          4          0          8          0       1756   os_prio.o
      2264         76          0          0          0       6344   os_q.o
      2096         70          0          0          0       6364   os_sem.o
      1592        180          0          0          0       2833   os_stat.o
      7092        270          0          0          0      14190   os_task.o
      1276         90          0          0          0       3301   os_tick.o
      1380         46          0          0          0       3305   os_time.o
      2072        140          0          0          0       6490   os_tmr.o
         0          0          0        200       1760      19365   os_var.o
       436         42          0          0          0       1877   sram.o
        64         26        304          0       2560        796   startup_stm32f10x_hd.o
      1548         18          0          0          0       5411   stm32f10x_fsmc.o
       860         38          0          0          0       5765   stm32f10x_gpio.o
        22          0          0          0          0        999   stm32f10x_it.o
       932         36          0         20          0       8952   stm32f10x_rcc.o
      1032         22          0          0          0       8488   stm32f10x_usart.o
         0          0          0          0          0         32   sys.o
       480         38          0         20          0       1743   system_stm32f10x.o
      3436        128       7142         12          0      12496   tftlcd.o
       336         18          0          6        200       3210   usart.o

    ----------------------------------------------------------------------
     51116       3078       8440        380    1101876     528402   Object Totals
         0          0         32          0          0          0   (incl. Generated)
         6          0          2          8          0          0   (incl. Padding)

    ----------------------------------------------------------------------

      Code (inc. data)   RO Data    RW Data    ZI Data      Debug   Library Member Name

        90          0          0          0          0          0   __dczerorl2.o
         8          0          0          0          0         68   __main.o
       104          0          0          0          0         84   __printf.o
         0          0          0          0          0          0   __rtentry.o
        12          0          0          0          0          0   __rtentry2.o
         6          0          0          0          0          0   __rtentry4.o
        52          8          0          0          0          0   __scatter.o
        28          0          0          0          0          0   __scatter_zi.o
        48          6          0          0          0         96   _printf_char_common.o
        36          4          0          0          0         80   _printf_char_file.o
         6          0          0          0          0          0   _printf_d.o
       120         16          0          0          0         92   _printf_dec.o
        88          4         40          0          0         88   _printf_hex_int.o
       178          0          0          0          0         88   _printf_intcommon.o
         0          0          0          0          0          0   _printf_percent.o
         4          0          0          0          0          0   _printf_percent_end.o
         6          0          0          0          0          0   _printf_x.o
        10          0          0          0          0         68   _sputc.o
        18          0          0          0          0         80   exit.o
         8          0          0          0          0         68   ferror.o
         6          0          0          0          0        152   heapauxi.o
         2          0          0          0          0          0   libinit.o
         2          0          0          0          0          0   libinit2.o
         2          0          0          0          0          0   libshutdown.o
         2          0          0          0          0          0   libshutdown2.o
         8          4          0          0         96         68   libspace.o
       238          0          0          0          0        100   lludivv7m.o
        24          4          0          0          0         84   noretval__2printf.o
        40          6          0          0          0         84   noretval__2sprintf.o
         2          0          0          0          0          0   rtexit.o
        10          0          0          0          0          0   rtexit2.o
        74          0          0          0          0         80   sys_stackheap_outer.o
         2          0          0          0          0         68   use_no_semi.o
         2          0          0          0          0         68   use_no_semi_2.o

    ----------------------------------------------------------------------
      1244         52         40          0         96       1516   Library Totals
         8          0          0          0          0          0   (incl. Padding)

    ----------------------------------------------------------------------

      Code (inc. data)   RO Data    RW Data    ZI Data      Debug   Library Name

      1236         52         40          0         96       1516   c_w.l

    ----------------------------------------------------------------------
      1244         52         40          0         96       1516   Library Totals

    ----------------------------------------------------------------------

==============================================================================


      Code (inc. data)   RO Data    RW Data    ZI Data      Debug   

     52360       3130       8480        380    1101972     525442   Grand Totals
     52360       3130       8480         84    1101972     525442   ELF Image Totals (compressed)
     52360       3130       8480         84          0          0   ROM Totals

==============================================================================

    Total RO  Size (Code + RO Data)                60840 (  59.41kB)
    Total RW  Size (RW Data + ZI Data)           1102352 (1076.52kB)
    Total ROM Size (Code + RO Data + RW Data)      60924 (  59.50kB)

==============================================================================

