:020000040800F2
:1000000060060020B1010008A30300089B0300085C
:100010009F0300086B02000819050008000000009B
:10002000000000000000000000000000C9030008FC
:100030006F02000800000000A5030008B5040008D6
:10004000CB010008CB010008CB010008CB01000860
:10005000CB010008CB010008CB010008CB01000850
:10006000CB010008CB010008CB010008CB01000840
:10007000CB010008CB010008CB010008CB01000830
:10008000CB010008CB010008CB010008CB01000820
:10009000CB010008CB010008CB010008CB01000810
:1000A000CB010008CB010008CB010008CB01000800
:1000B000CB010008CB010008CB010008CB010008F0
:1000C000CB010008CB010008CB010008CB010008E0
:1000D000CB010008CB010008CB010008CB010008D0
:1000E000CB010008CB010008CB010008CB010008C0
:1000F000CB010008CB010008CB010008CB010008B0
:10010000CB010008CB010008CB010008CB0100089F
:10011000CB010008CB010008CB010008CB0100088F
:10012000CB010008CB010008CB010008CB0100087F
:1001300000F002F800F02CF80AA090E8000C8244CD
:100140008344AAF10107DA4501D100F021F8AFF2AA
:10015000090EBAE80F0013F0010F18BFFB1A43F0A5
:10016000010318473804000048040000002300245D
:1001700000250026103A28BF78C1FBD8520728BFB7
:1001800030C148BF0B6070471FB51FBD10B510BD13
:1001900000F031F81146FFF7F7FF00F0BFF900F06B
:1001A0004FF803B4FFF7F2FF03BC00F057F800006C
:1001B0000948804709480047FEE7FEE7FEE7FEE7FB
:1001C000FEE7FEE7FEE7FEE7FEE7FEE70448054937
:1001D000054A064B70470000B904000831010008C9
:1001E0006000002060060020600200206002002005
:1001F000704770477047754600F02CF8AE46050012
:100200006946534620F00700854618B020B5FFF731
:10021000DDFFBDE820404FF000064FF000074FF033
:1002200000084FF0000B21F00701AC46ACE8C00914
:10023000ACE8C009ACE8C009ACE8C0098D4670471D
:1002400010B50446AFF300802046BDE81040FFF72C
:10025000A8BF000000487047000000200149182096
:10026000ABBEFEE726000200704700BFFEE7704706
:10027000002100E0491C8142FCD370472DE9F04188
:10028000024600250026002000230024002791F8C4
:1002900003C00CF00F0591F803C00CF0100CBCF17A
:1002A000000F03D091F802C04CEA050591F800C098
:1002B000BCF1000F31D0146800202BE04FF0010C8E
:1002C0000CFA00F3B1F800C00CEA03069E4220D1FC
:1002D00083004FF00F0C0CFA03F7BC4305FA03FC44
:1002E0004CEA040491F803C0BCF1280F06D14FF08A
:1002F000010C0CFA00FCC2F814C00AE091F803C02B
:10030000BCF1480F05D14FF0010C0CFA00FCC2F80B
:1003100010C0401C0828D1D31460B1F800C0BCF153
:10032000FF0F34DD546800202EE000F1080C4FF080
:10033000010808FA0CF3B1F800C00CEA03069E426B
:1003400021D183004FF00F0C0CFA03F7BC4305FAE0
:1003500003FC4CEA040491F803C0BCF1280F05D15A
:1003600000F1080C08FA0CF8C2F8148091F803C0E8
:10037000BCF1480F07D100F1080C4FF0010808FA52
:100380000CF8C2F81080401C0828CED35460BDE899
:10039000F081416170470161704700BFFEE700BF17
:1003A000FEE770477047000029B1064A9269024390
:1003B000044B9A6104E0034A92698243014B9A61BB
:1003C0007047000000100240704710B500F002F8BE
:1003D00010BD00000CB5002001900090334800686B
:1003E00040F480303149086000BF3048006800F4B4
:1003F000003000900198401C0190009818B90198B5
:10040000B0F5A06FF1D12948006800F4003010B1B8
:100410000120009001E0002000900098012843D1C5
:100420002348006840F01000214908600846006831
:1004300020F0030008600846006840F002000860F1
:100440001A484068194948600846406848600846AC
:10045000406840F4806048600846406820F47C10A2
:1004600048600846406840F4E81048600846006864
:1004700040F08070086000BF0C48006800F0007019
:100480000028F9D00948406820F003000749486077
:100490000846406840F00200486000BF03484068DA
:1004A00000F00C000828F9D10CBD0000001002403B
:1004B000002002407047000010B51348006840F06B
:1004C00001001149086008464068104908400E497B
:1004D0004860084600680E4908400B490860084615
:1004E000006820F4802008600846406820F4FE0080
:1004F00048604FF41F008860FFF767FF4FF000600F
:100500000449086010BD0000001002400000FFF820
:10051000FFFFF6FE08ED00E000BFFEE708B5012191
:100520004820FFF741FF2020ADF8000010208DF893
:10053000030003208DF8020069461548FFF79EFE70
:1005400020211348FFF727FF2020ADF8000069465F
:100550001048FFF793FE20210E48FFF71CFF15E01F
:1005600020210B48FFF715FF20210A48FFF713FF52
:100570000948FFF77DFE20210548FFF70CFF2021E9
:100580000448FFF706FF0448FFF772FEE8E70000A3
:10059000000C014000180140C0C62D00AC05000849
:0C05A00000000020600600006C01000854
:0400000508000131BD
:00000001FF
