Component: ARM Compiler 5.06 update 6 (build 750) Tool: armlink [4d35ed]

==============================================================================

Section Cross References

    main.o(.text) refers to _printf_percent.o(.ARM.Collect$$_printf_percent$$00000000) for _printf_percent
    main.o(.text) refers to _printf_f.o(.ARM.Collect$$_printf_percent$$00000003) for _printf_f
    main.o(.text) refers to printf1.o(x$fpl$printf1) for _printf_fp_dec
    main.o(.text) refers to faddsub_clz.o(x$fpl$fadd) for __aeabi_fadd
    main.o(.text) refers to cpu_a.o(.text) for CPU_SR_Save
    main.o(.text) refers to f2d.o(x$fpl$f2d) for __aeabi_f2d
    main.o(.text) refers to noretval__2printf.o(.text) for __2printf
    main.o(.text) refers to os_core.o(.text) for OS_Sched0
    main.o(.text) refers to delay.o(.text) for delay_ms
    main.o(.text) refers to os_time.o(.text) for OSTimeDlyHMSM
    main.o(.text) refers to cpu_core.o(.text) for CPU_Init
    main.o(.text) refers to os_stat.o(.text) for OSStatTaskCPUUsageInit
    main.o(.text) refers to os_task.o(.text) for OSTaskCreate
    main.o(.text) refers to misc.o(.text) for NVIC_PriorityGroupConfig
    main.o(.text) refers to usart.o(.text) for uart_init
    main.o(.text) refers to led.o(.text) for LED_Init
    main.o(.text) refers to main.o(.data) for float_num
    main.o(.text) refers to os_var.o(.data) for OSSchedLockNestingCtr
==============================================================================

Removing Unused input sections from the image.

    Removing sys.o(.emb_text), (6 bytes).
    Removing sys.o(.text), (12 bytes).
    Removing core_cm3.o(.emb_text), (32 bytes).
    Removing cpu_c.o(.text), (1916 bytes).
    Removing lib_math.o(.text), (128 bytes).
    Removing lib_math.o(.data), (4 bytes).
    Removing os_app_hooks.o(.text), (200 bytes).

7 unused section(s) (total 2298 bytes) removed from the image.

==============================================================================

Image Symbol Table

    Local Symbols

    Symbol Name                              Value     Ov Type        Size  Object(Section)

    ../clib/angel/boardlib.s                 0x00000000   Number         0  boardinit1.o ABSOLUTE
    ../clib/angel/boardlib.s                 0x00000000   Number         0  boardinit2.o ABSOLUTE
    ../clib/angel/boardlib.s                 0x00000000   Number         0  boardinit3.o ABSOLUTE
    ../clib/angel/boardlib.s                 0x00000000   Number         0  boardshut.o ABSOLUTE
    ../clib/angel/handlers.s                 0x00000000   Number         0  __scatter_copy.o ABSOLUTE
    ../clib/angel/handlers.s                 0x00000000   Number         0  __scatter_zi.o ABSOLUTE
    ../clib/angel/kernel.s                   0x00000000   Number         0  __rtentry.o ABSOLUTE
    ../clib/angel/kernel.s                   0x00000000   Number         0  __rtentry4.o ABSOLUTE
    ../clib/angel/kernel.s                   0x00000000   Number         0  __rtentry2.o ABSOLUTE
    ../clib/angel/kernel.s                   0x00000000   Number         0  rtexit2.o ABSOLUTE
    ../clib/angel/kernel.s                   0x00000000   Number         0  rtexit.o ABSOLUTE
    ../clib/angel/rt.s                       0x00000000   Number         0  rt_div0.o ABSOLUTE
    ../clib/angel/rt.s                       0x00000000   Number         0  rt_raise.o ABSOLUTE
    ../clib/angel/rt.s                       0x00000000   Number         0  rt_locale.o ABSOLUTE
    ../clib/angel/rt.s                       0x00000000   Number         0  aeabi_ldiv0.o ABSOLUTE
    ../clib/angel/rt.s                       0x00000000   Number         0  aeabi_ldiv0_sigfpe.o ABSOLUTE
    ../clib/angel/rt.s                       0x00000000   Number         0  rt_locale_intlibspace.o ABSOLUTE
    ../clib/angel/scatter.s                  0x00000000   Number         0  __scatter.o ABSOLUTE
    ../clib/angel/startup.s                  0x00000000   Number         0  __main.o ABSOLUTE
    ../clib/angel/sys.s                      0x00000000   Number         0  sys_stackheap_outer.o ABSOLUTE
    ../clib/angel/sys.s                      0x00000000   Number         0  indicate_semi.o ABSOLUTE
    ../clib/angel/sys.s                      0x00000000   Number         0  use_no_semi_2.o ABSOLUTE
    ../clib/angel/sys.s                      0x00000000   Number         0  use_no_semi.o ABSOLUTE
    ../clib/angel/sys.s                      0x00000000   Number         0  libspace.o ABSOLUTE
    ../clib/angel/sysapp.c                   0x00000000   Number         0  sys_command.o ABSOLUTE
    ../clib/angel/sysapp.c                   0x00000000   Number         0  sys_wrch.o ABSOLUTE
    ../clib/armsys.c                         0x00000000   Number         0  argv_veneer.o ABSOLUTE
    ../clib/armsys.c                         0x00000000   Number         0  no_argv.o ABSOLUTE
    ../clib/armsys.c                         0x00000000   Number         0  argv_veneer.o ABSOLUTE
    ../clib/armsys.c                         0x00000000   Number         0  _get_argv_nomalloc.o ABSOLUTE
    ../clib/bigflt.c                         0x00000000   Number         0  bigflt0.o ABSOLUTE
    ../clib/btod.s                           0x00000000   Number         0  btod.o ABSOLUTE
    ../clib/heapalloc.c                      0x00000000   Number         0  hrguard.o ABSOLUTE
    ../clib/heapaux.c                        0x00000000   Number         0  heapauxi.o ABSOLUTE
    ../clib/libinit.s                        0x00000000   Number         0  libinit2.o ABSOLUTE
    ../clib/libinit.s                        0x00000000   Number         0  libshutdown.o ABSOLUTE
    ../clib/libinit.s                        0x00000000   Number         0  libinit.o ABSOLUTE
    ../clib/libinit.s                        0x00000000   Number         0  libshutdown2.o ABSOLUTE
    ../clib/locale.s                         0x00000000   Number         0  lc_numeric_c.o ABSOLUTE
    ../clib/longlong.s                       0x00000000   Number         0  lludiv10.o ABSOLUTE
    ../clib/longlong.s                       0x00000000   Number         0  lludivv7m.o ABSOLUTE
    ../clib/memcpset.s                       0x00000000   Number         0  strcmpv7m.o ABSOLUTE
    ../clib/misc.s                           0x00000000   Number         0  printf_stubs.o ABSOLUTE
    ../clib/printf.c                         0x00000000   Number         0  __printf_wp.o ABSOLUTE
    ../clib/printf.c                         0x00000000   Number         0  __printf_flags_wp.o ABSOLUTE
    ../clib/printf.c                         0x00000000   Number         0  __printf_ss_wp.o ABSOLUTE
    ../clib/printf.c                         0x00000000   Number         0  __printf_flags_ss_wp.o ABSOLUTE
    ../clib/printf.c                         0x00000000   Number         0  _printf_char_common.o ABSOLUTE
    ../clib/printf.c                         0x00000000   Number         0  _printf_fp_infnan.o ABSOLUTE
    ../clib/printf.c                         0x00000000   Number         0  _printf_char_file.o ABSOLUTE
    ../clib/printf.c                         0x00000000   Number         0  __2printf.o ABSOLUTE
    ../clib/printf.c                         0x00000000   Number         0  noretval__2printf.o ABSOLUTE
    ../clib/printf.c                         0x00000000   Number         0  __printf.o ABSOLUTE
    ../clib/printf.c                         0x00000000   Number         0  _printf_fp_dec.o ABSOLUTE
    ../clib/printf.c                         0x00000000   Number         0  __printf_flags.o ABSOLUTE
    ../clib/printf.c                         0x00000000   Number         0  __printf_ss.o ABSOLUTE
    ../clib/printf.c                         0x00000000   Number         0  __printf_flags_ss.o ABSOLUTE
    ../clib/printf.c                         0x00000000   Number         0  __printf_nopercent.o ABSOLUTE
    ../clib/printf_percent.s                 0x00000000   Number         0  _printf_f.o ABSOLUTE
    ../clib/printf_percent.s                 0x00000000   Number         0  _printf_percent_end.o ABSOLUTE
    ../clib/printf_percent.s                 0x00000000   Number         0  _printf_percent.o ABSOLUTE
    ../clib/signal.c                         0x00000000   Number         0  defsig_pvfn_inner.o ABSOLUTE
    ../clib/signal.c                         0x00000000   Number         0  defsig_rtmem_outer.o ABSOLUTE
    ../clib/signal.c                         0x00000000   Number         0  defsig_stak_inner.o ABSOLUTE
    ../clib/signal.c                         0x00000000   Number         0  defsig_general.o ABSOLUTE
    ../clib/signal.c                         0x00000000   Number         0  defsig_rtmem_formal.o ABSOLUTE
    ../clib/signal.c                         0x00000000   Number         0  defsig_rtmem_inner.o ABSOLUTE
    ../clib/signal.c                         0x00000000   Number         0  defsig_abrt_inner.o ABSOLUTE
    ../clib/signal.c                         0x00000000   Number         0  defsig_fpe_formal.o ABSOLUTE
    ../clib/signal.c                         0x00000000   Number         0  defsig_other.o ABSOLUTE
    ../clib/signal.c                         0x00000000   Number         0  defsig_fpe_outer.o ABSOLUTE
    ../clib/signal.c                         0x00000000   Number         0  defsig_segv_inner.o ABSOLUTE
    ../clib/signal.c                         0x00000000   Number         0  __raise.o ABSOLUTE
    ../clib/signal.c                         0x00000000   Number         0  defsig_rtred_inner.o ABSOLUTE
    ../clib/signal.c                         0x00000000   Number         0  defsig_fpe_inner.o ABSOLUTE
    ../clib/signal.c                         0x00000000   Number         0  defsig_exit.o ABSOLUTE
    ../clib/signal.c                         0x00000000   Number         0  defsig_cppl_inner.o ABSOLUTE
    ../clib/signal.s                         0x00000000   Number         0  defsig.o ABSOLUTE
    ../clib/stdio.c                          0x00000000   Number         0  ferror_locked.o ABSOLUTE
    ../clib/stdio.c                          0x00000000   Number         0  ferror.o ABSOLUTE
    ../clib/stdlib.c                         0x00000000   Number         0  exit.o ABSOLUTE
    ../fplib/dretinf.s                       0x00000000   Number         0  dretinf.o ABSOLUTE
    ../fplib/f2d.s                           0x00000000   Number         0  f2d.o ABSOLUTE
    ../fplib/faddsub.s                       0x00000000   Number         0  faddsub_clz.o ABSOLUTE
    ../fplib/fnaninf.s                       0x00000000   Number         0  fnaninf.o ABSOLUTE
    ../fplib/fpinit.s                        0x00000000   Number         0  fpinit.o ABSOLUTE
    ../fplib/fretinf.s                       0x00000000   Number         0  fretinf.o ABSOLUTE
    ../fplib/istatus.s                       0x00000000   Number         0  istatus.o ABSOLUTE
    ../fplib/printf1.s                       0x00000000   Number         0  printf1.o ABSOLUTE
    ../fplib/usenofp.s                       0x00000000   Number         0  usenofp.o ABSOLUTE
    ../mathlib/fpclassify.c                  0x00000000   Number         0  fpclassify.o ABSOLUTE
    ..\CORE\core_cm3.c                       0x00000000   Number         0  core_cm3.o ABSOLUTE
    ..\CORE\startup_stm32f10x_hd.s           0x00000000   Number         0  startup_stm32f10x_hd.o ABSOLUTE
    ..\FWLIB\STM32F10x_FWLib\src\misc.c      0x00000000   Number         0  misc.o ABSOLUTE
    ..\FWLIB\STM32F10x_FWLib\src\stm32f10x_gpio.c 0x00000000   Number         0  stm32f10x_gpio.o ABSOLUTE
    ..\FWLIB\STM32F10x_FWLib\src\stm32f10x_rcc.c 0x00000000   Number         0  stm32f10x_rcc.o ABSOLUTE
    ..\FWLIB\STM32F10x_FWLib\src\stm32f10x_usart.c 0x00000000   Number         0  stm32f10x_usart.o ABSOLUTE
    ..\HARDWARE\LED\led.c                    0x00000000   Number         0  led.o ABSOLUTE
    ..\SYSTEM\delay\delay.c                  0x00000000   Number         0  delay.o ABSOLUTE
    ..\SYSTEM\sys\sys.c                      0x00000000   Number         0  sys.o ABSOLUTE
    ..\SYSTEM\usart\usart.c                  0x00000000   Number         0  usart.o ABSOLUTE
    ..\UCOSIII\UCOS_BSP\bsp.c                0x00000000   Number         0  bsp.o ABSOLUTE
    ..\UCOSIII\uC-CPU\ARM-Cortex-M3\RealView\cpu_a.asm 0x00000000   Number         0  cpu_a.o ABSOLUTE
    ..\UCOSIII\uC-CPU\ARM-Cortex-M3\RealView\cpu_c.c 0x00000000   Number         0  cpu_c.o ABSOLUTE
    ..\UCOSIII\uC-CPU\cpu_core.c             0x00000000   Number         0  cpu_core.o ABSOLUTE
    ..\UCOSIII\uC-LIB\Ports\ARM-Cortex-M3\RealView\lib_mem_a.asm 0x00000000   Number         0  lib_mem_a.o ABSOLUTE
    ..\UCOSIII\uC-LIB\lib_ascii.c            0x00000000   Number         0  lib_ascii.o ABSOLUTE
    ..\UCOSIII\uC-LIB\lib_math.c             0x00000000   Number         0  lib_math.o ABSOLUTE
    ..\UCOSIII\uC-LIB\lib_mem.c              0x00000000   Number         0  lib_mem.o ABSOLUTE
    ..\UCOSIII\uC-LIB\lib_str.c              0x00000000   Number         0  lib_str.o ABSOLUTE
    ..\UCOSIII\uCOS-III\Ports\ARM-Cortex-M3\Generic\RealView\os_cpu_a.s 0x00000000   Number         0  os_cpu_a.o ABSOLUTE
    ..\UCOSIII\uCOS-III\Ports\ARM-Cortex-M3\Generic\RealView\os_cpu_c.c 0x00000000   Number         0  os_cpu_c.o ABSOLUTE
    ..\UCOSIII\uCOS-III\Source\os_cfg_app.c  0x00000000   Number         0  os_cfg_app.o ABSOLUTE
    ..\UCOSIII\uCOS-III\Source\os_core.c     0x00000000   Number         0  os_core.o ABSOLUTE
    ..\UCOSIII\uCOS-III\Source\os_dbg.c      0x00000000   Number         0  os_dbg.o ABSOLUTE
    ..\UCOSIII\uCOS-III\Source\os_flag.c     0x00000000   Number         0  os_flag.o ABSOLUTE
    ..\UCOSIII\uCOS-III\Source\os_int.c      0x00000000   Number         0  os_int.o ABSOLUTE
    ..\UCOSIII\uCOS-III\Source\os_mem.c      0x00000000   Number         0  os_mem.o ABSOLUTE
    ..\UCOSIII\uCOS-III\Source\os_msg.c      0x00000000   Number         0  os_msg.o ABSOLUTE
    ..\UCOSIII\uCOS-III\Source\os_mutex.c    0x00000000   Number         0  os_mutex.o ABSOLUTE
    ..\UCOSIII\uCOS-III\Source\os_pend_multi.c 0x00000000   Number         0  os_pend_multi.o ABSOLUTE
    ..\UCOSIII\uCOS-III\Source\os_prio.c     0x00000000   Number         0  os_prio.o ABSOLUTE
    ..\UCOSIII\uCOS-III\Source\os_q.c        0x00000000   Number         0  os_q.o ABSOLUTE
    ..\UCOSIII\uCOS-III\Source\os_sem.c      0x00000000   Number         0  os_sem.o ABSOLUTE
    ..\UCOSIII\uCOS-III\Source\os_stat.c     0x00000000   Number         0  os_stat.o ABSOLUTE
    ..\UCOSIII\uCOS-III\Source\os_task.c     0x00000000   Number         0  os_task.o ABSOLUTE
    ..\UCOSIII\uCOS-III\Source\os_tick.c     0x00000000   Number         0  os_tick.o ABSOLUTE
    ..\UCOSIII\uCOS-III\Source\os_time.c     0x00000000   Number         0  os_time.o ABSOLUTE
    ..\UCOSIII\uCOS-III\Source\os_tmr.c      0x00000000   Number         0  os_tmr.o ABSOLUTE
    ..\UCOSIII\uCOS-III\Source\os_var.c      0x00000000   Number         0  os_var.o ABSOLUTE
    ..\UCOSIII\uCOS_CONFIG\os_app_hooks.c    0x00000000   Number         0  os_app_hooks.o ABSOLUTE
    ..\\CORE\\core_cm3.c                     0x00000000   Number         0  core_cm3.o ABSOLUTE
    ..\\SYSTEM\\sys\\sys.c                   0x00000000   Number         0  sys.o ABSOLUTE
    dc.s                                     0x00000000   Number         0  dc.o ABSOLUTE
    main.c                                   0x00000000   Number         0  main.o ABSOLUTE
    stm32f10x_it.c                           0x00000000   Number         0  stm32f10x_it.o ABSOLUTE
    system_stm32f10x.c                       0x00000000   Number         0  system_stm32f10x.o ABSOLUTE
    RESET                                    0x08000000   Section      304  startup_stm32f10x_hd.o(RESET)
    !!!main                                  0x08000130   Section        8  __main.o(!!!main)
    !!!scatter                               0x08000138   Section       52  __scatter.o(!!!scatter)
    !!handler_copy                           0x0800016c   Section       26  __scatter_copy.o(!!handler_copy)
    !!handler_zi                             0x08000188   Section       28  __scatter_zi.o(!!handler_zi)
    .ARM.Collect$$_printf_percent$$00000000  0x080001a4   Section        0  _printf_percent.o(.ARM.Collect$$_printf_percent$$00000000)
    .ARM.Collect$$_printf_percent$$00000003  0x080001a4   Section        6  _printf_f.o(.ARM.Collect$$_printf_percent$$00000003)
    .ARM.Collect$$_printf_percent$$00000017  0x080001aa   Section        4  _printf_percent_end.o(.ARM.Collect$$_printf_percent$$00000017)
    .ARM.Collect$$libinit$$00000000          0x080001ae   Section        2  libinit.o(.ARM.Collect$$libinit$$00000000)
    .ARM.Collect$$libinit$$00000002          0x080001b0   Section        0  libinit2.o(.ARM.Collect$$libinit$$00000002)
    .ARM.Collect$$libinit$$00000004          0x080001b0   Section        0  libinit2.o(.ARM.Collect$$libinit$$00000004)
    .ARM.Collect$$libinit$$0000000A          0x080001b0   Section        0  libinit2.o(.ARM.Collect$$libinit$$0000000A)
    .ARM.Collect$$libinit$$0000000C          0x080001b0   Section        0  libinit2.o(.ARM.Collect$$libinit$$0000000C)
    .ARM.Collect$$libinit$$0000000E          0x080001b0   Section        0  libinit2.o(.ARM.Collect$$libinit$$0000000E)
    .ARM.Collect$$libinit$$0000000F          0x080001b0   Section        6  libinit2.o(.ARM.Collect$$libinit$$0000000F)
    .ARM.Collect$$libinit$$00000011          0x080001b6   Section        0  libinit2.o(.ARM.Collect$$libinit$$00000011)
    .ARM.Collect$$libinit$$00000013          0x080001b6   Section        0  libinit2.o(.ARM.Collect$$libinit$$00000013)
    .ARM.Collect$$libinit$$00000015          0x080001b6   Section        0  libinit2.o(.ARM.Collect$$libinit$$00000015)
    .ARM.Collect$$libinit$$00000016          0x080001b6   Section       10  libinit2.o(.ARM.Collect$$libinit$$00000016)
    .ARM.Collect$$libinit$$00000017          0x080001c0   Section        0  libinit2.o(.ARM.Collect$$libinit$$00000017)
    .ARM.Collect$$libinit$$00000019          0x080001c0   Section        0  libinit2.o(.ARM.Collect$$libinit$$00000019)
    .ARM.Collect$$libinit$$0000001B          0x080001c0   Section        0  libinit2.o(.ARM.Collect$$libinit$$0000001B)
    .ARM.Collect$$libinit$$0000001D          0x080001c0   Section        0  libinit2.o(.ARM.Collect$$libinit$$0000001D)
    .ARM.Collect$$libinit$$0000001F          0x080001c0   Section        0  libinit2.o(.ARM.Collect$$libinit$$0000001F)
    .ARM.Collect$$libinit$$00000021          0x080001c0   Section        0  libinit2.o(.ARM.Collect$$libinit$$00000021)
    .ARM.Collect$$libinit$$00000023          0x080001c0   Section        0  libinit2.o(.ARM.Collect$$libinit$$00000023)
    .ARM.Collect$$libinit$$00000025          0x080001c0   Section        0  libinit2.o(.ARM.Collect$$libinit$$00000025)
    .ARM.Collect$$libinit$$0000002C          0x080001c0   Section        0  libinit2.o(.ARM.Collect$$libinit$$0000002C)
    .ARM.Collect$$libinit$$0000002E          0x080001c0   Section        0  libinit2.o(.ARM.Collect$$libinit$$0000002E)
    .ARM.Collect$$libinit$$00000030          0x080001c0   Section        0  libinit2.o(.ARM.Collect$$libinit$$00000030)
    .ARM.Collect$$libinit$$00000032          0x080001c0   Section        0  libinit2.o(.ARM.Collect$$libinit$$00000032)
    .ARM.Collect$$libinit$$00000033          0x080001c0   Section        2  libinit2.o(.ARM.Collect$$libinit$$00000033)
    .ARM.Collect$$libshutdown$$00000000      0x080001c2   Section        2  libshutdown.o(.ARM.Collect$$libshutdown$$00000000)
    .ARM.Collect$$libshutdown$$00000002      0x080001c4   Section        0  libshutdown2.o(.ARM.Collect$$libshutdown$$00000002)
    .ARM.Collect$$libshutdown$$00000004      0x080001c4   Section        0  libshutdown2.o(.ARM.Collect$$libshutdown$$00000004)
    .ARM.Collect$$libshutdown$$00000007      0x080001c4   Section        0  libshutdown2.o(.ARM.Collect$$libshutdown$$00000007)
    .ARM.Collect$$libshutdown$$0000000A      0x080001c4   Section        0  libshutdown2.o(.ARM.Collect$$libshutdown$$0000000A)
    .ARM.Collect$$libshutdown$$0000000C      0x080001c4   Section        0  libshutdown2.o(.ARM.Collect$$libshutdown$$0000000C)
    .ARM.Collect$$libshutdown$$0000000F      0x080001c4   Section        0  libshutdown2.o(.ARM.Collect$$libshutdown$$0000000F)
    .ARM.Collect$$libshutdown$$00000010      0x080001c4   Section        2  libshutdown2.o(.ARM.Collect$$libshutdown$$00000010)
    .ARM.Collect$$rtentry$$00000000          0x080001c6   Section        0  __rtentry.o(.ARM.Collect$$rtentry$$00000000)
    .ARM.Collect$$rtentry$$00000002          0x080001c6   Section        0  __rtentry2.o(.ARM.Collect$$rtentry$$00000002)
    .ARM.Collect$$rtentry$$00000004          0x080001c6   Section        6  __rtentry4.o(.ARM.Collect$$rtentry$$00000004)
    .ARM.Collect$$rtentry$$00000009          0x080001cc   Section        0  __rtentry2.o(.ARM.Collect$$rtentry$$00000009)
    .ARM.Collect$$rtentry$$0000000A          0x080001cc   Section        4  __rtentry2.o(.ARM.Collect$$rtentry$$0000000A)
    .ARM.Collect$$rtentry$$0000000C          0x080001d0   Section        0  __rtentry2.o(.ARM.Collect$$rtentry$$0000000C)
    .ARM.Collect$$rtentry$$0000000D          0x080001d0   Section        8  __rtentry2.o(.ARM.Collect$$rtentry$$0000000D)
    .ARM.Collect$$rtexit$$00000000           0x080001d8   Section        2  rtexit.o(.ARM.Collect$$rtexit$$00000000)
    .ARM.Collect$$rtexit$$00000002           0x080001da   Section        0  rtexit2.o(.ARM.Collect$$rtexit$$00000002)
    .ARM.Collect$$rtexit$$00000003           0x080001da   Section        4  rtexit2.o(.ARM.Collect$$rtexit$$00000003)
    .ARM.Collect$$rtexit$$00000004           0x080001de   Section        6  rtexit2.o(.ARM.Collect$$rtexit$$00000004)
    .text                                    0x080001e4   Section        0  main.o(.text)
    .text                                    0x080005a8   Section        0  stm32f10x_it.o(.text)
    .text                                    0x080005c0   Section        0  system_stm32f10x.o(.text)
    SetSysClockTo72                          0x080005c1   Thumb Code   214  system_stm32f10x.o(.text)
    SetSysClock                              0x08000697   Thumb Code     8  system_stm32f10x.o(.text)
    .text                                    0x080007a0   Section        0  led.o(.text)
    .text                                    0x080007ec   Section        0  delay.o(.text)
    .text                                    0x08000938   Section        0  usart.o(.text)
    .text                                    0x08000a88   Section       64  startup_stm32f10x_hd.o(.text)
    .text                                    0x08000ac8   Section        0  misc.o(.text)
    .text                                    0x08000ba4   Section        0  stm32f10x_gpio.o(.text)
    .text                                    0x08000f00   Section        0  stm32f10x_usart.o(.text)
    .text                                    0x08001308   Section        0  stm32f10x_rcc.o(.text)
    .text                                    0x080016ac   Section        0  bsp.o(.text)
    .text                                    0x08001730   Section        0  cpu_core.o(.text)
    CPU_NameInit                             0x0800175b   Thumb Code     8  cpu_core.o(.text)
    CPU_TS_Init                              0x08001763   Thumb Code    14  cpu_core.o(.text)
    .text                                    0x080019d8   Section       52  cpu_a.o(.text)
    .text                                    0x08001a0c   Section        0  lib_ascii.o(.text)
    .text                                    0x08001c64   Section        0  lib_mem.o(.text)
    Mem_SegAlloc                             0x08001e7b   Thumb Code    60  lib_mem.o(.text)
    Mem_SegCalcTotSize                       0x08001eb7   Thumb Code    60  lib_mem.o(.text)
    .text                                    0x0800262c   Section        0  lib_str.o(.text)
    Str_FmtNbr_Int32                         0x08002ae5   Thumb Code   476  lib_str.o(.text)
    Str_ParseNbr_Int32                       0x08002d2d   Thumb Code   446  lib_str.o(.text)
    .text                                    0x08002f58   Section      544  lib_mem_a.o(.text)
    .text                                    0x08003178   Section        0  os_cfg_app.o(.text)
    .text                                    0x08003274   Section        0  os_core.o(.text)
    .text                                    0x08004078   Section        0  os_dbg.o(.text)
    .text                                    0x08004228   Section        0  os_flag.o(.text)
    .text                                    0x08005050   Section        0  os_int.o(.text)
    .text                                    0x08005494   Section        0  os_mem.o(.text)
    .text                                    0x080056cc   Section        0  os_msg.o(.text)
    .text                                    0x080058f8   Section        0  os_mutex.o(.text)
    .text                                    0x080063cc   Section        0  os_prio.o(.text)
    .text                                    0x08006448   Section        0  os_q.o(.text)
    .text                                    0x08006d20   Section        0  os_sem.o(.text)
    .text                                    0x08007550   Section        0  os_stat.o(.text)
    .text                                    0x08007b88   Section        0  os_task.o(.text)
    .text                                    0x0800973c   Section        0  os_tick.o(.text)
    .text                                    0x08009c38   Section        0  os_time.o(.text)
    .text                                    0x0800a19c   Section        0  os_tmr.o(.text)
    .text                                    0x0800a9b4   Section        0  os_cpu_c.o(.text)
    .text                                    0x0800ac20   Section        2  use_no_semi_2.o(.text)
    .text                                    0x0800ac22   Section      238  lludivv7m.o(.text)
    .text                                    0x0800ad10   Section        0  noretval__2printf.o(.text)
    .text                                    0x0800ad28   Section        0  __printf_wp.o(.text)
    .text                                    0x0800ae36   Section        0  heapauxi.o(.text)
    .text                                    0x0800ae3c   Section        2  use_no_semi.o(.text)
    .text                                    0x0800ae3e   Section        0  _printf_fp_dec.o(.text)
    _fp_digits                               0x0800ae41   Thumb Code   432  _printf_fp_dec.o(.text)
    .text                                    0x0800b25c   Section        0  _printf_char_file.o(.text)
    .text                                    0x0800b280   Section        8  rt_locale_intlibspace.o(.text)
    .text                                    0x0800b288   Section      138  lludiv10.o(.text)
    .text                                    0x0800b314   Section        0  _printf_char_common.o(.text)
    _printf_input_char                       0x0800b315   Thumb Code    10  _printf_char_common.o(.text)
    .text                                    0x0800b344   Section        0  _printf_fp_infnan.o(.text)
    .text                                    0x0800b3c4   Section        0  bigflt0.o(.text)
    .text                                    0x0800b4a8   Section        0  ferror.o(.text)
    .text                                    0x0800b4b0   Section        8  libspace.o(.text)
    .text                                    0x0800b4b8   Section       74  sys_stackheap_outer.o(.text)
    .text                                    0x0800b502   Section        0  exit.o(.text)
    .text                                    0x0800b514   Section      128  strcmpv7m.o(.text)
    CL$$btod_d2e                             0x0800b594   Section       62  btod.o(CL$$btod_d2e)
    CL$$btod_d2e_denorm_low                  0x0800b5d2   Section       70  btod.o(CL$$btod_d2e_denorm_low)
    CL$$btod_d2e_norm_op1                    0x0800b618   Section       96  btod.o(CL$$btod_d2e_norm_op1)
    CL$$btod_div_common                      0x0800b678   Section      824  btod.o(CL$$btod_div_common)
    CL$$btod_e2e                             0x0800b9b0   Section      220  btod.o(CL$$btod_e2e)
    CL$$btod_ediv                            0x0800ba8c   Section       42  btod.o(CL$$btod_ediv)
    CL$$btod_emul                            0x0800bab6   Section       42  btod.o(CL$$btod_emul)
    CL$$btod_mult_common                     0x0800bae0   Section      580  btod.o(CL$$btod_mult_common)
    CODE                                     0x0800bd24   Section      152  os_cpu_a.o(CODE)
    i.__ARM_fpclassify                       0x0800bdbc   Section        0  fpclassify.o(i.__ARM_fpclassify)
    i._is_digit                              0x0800bde4   Section        0  __printf_wp.o(i._is_digit)
    locale$$code                             0x0800bdf4   Section       44  lc_numeric_c.o(locale$$code)
    x$fpl$dretinf                            0x0800be20   Section       12  dretinf.o(x$fpl$dretinf)
    x$fpl$f2d                                0x0800be2c   Section       86  f2d.o(x$fpl$f2d)
    x$fpl$fadd                               0x0800be84   Section      196  faddsub_clz.o(x$fpl$fadd)
    _fadd1                                   0x0800be93   Thumb Code     0  faddsub_clz.o(x$fpl$fadd)
    x$fpl$fnaninf                            0x0800bf48   Section      140  fnaninf.o(x$fpl$fnaninf)
    x$fpl$fretinf                            0x0800bfd4   Section       10  fretinf.o(x$fpl$fretinf)
    x$fpl$fsub                               0x0800bfe0   Section      234  faddsub_clz.o(x$fpl$fsub)
    _fsub1                                   0x0800bfef   Thumb Code     0  faddsub_clz.o(x$fpl$fsub)
    x$fpl$printf1                            0x0800c0ca   Section        4  printf1.o(x$fpl$printf1)
    x$fpl$usenofp                            0x0800c0ce   Section        0  usenofp.o(x$fpl$usenofp)
    .constdata                               0x0800c0d0   Section      260  cpu_core.o(.constdata)
    CPU_CntLeadZerosTbl                      0x0800c0d0   Data         256  cpu_core.o(.constdata)
    .constdata                               0x0800c1d4   Section      148  lib_str.o(.constdata)
    Str_MultOvfThTbl_Int32U                  0x0800c1d4   Data         148  lib_str.o(.constdata)
    .constdata                               0x0800c268   Section      164  os_cfg_app.o(.constdata)
    .constdata                               0x0800c30c   Section      364  os_dbg.o(.constdata)
    .constdata                               0x0800c478   Section      148  bigflt0.o(.constdata)
    tenpwrs_x                                0x0800c478   Data          60  bigflt0.o(.constdata)
    tenpwrs_i                                0x0800c4b4   Data          64  bigflt0.o(.constdata)
    locale$$data                             0x0800c52c   Section       28  lc_numeric_c.o(locale$$data)
    __lcnum_c_name                           0x0800c530   Data           2  lc_numeric_c.o(locale$$data)
    __lcnum_c_start                          0x0800c538   Data           0  lc_numeric_c.o(locale$$data)
    __lcnum_c_point                          0x0800c544   Data           0  lc_numeric_c.o(locale$$data)
    __lcnum_c_thousands                      0x0800c546   Data           0  lc_numeric_c.o(locale$$data)
    __lcnum_c_grouping                       0x0800c547   Data           0  lc_numeric_c.o(locale$$data)
    __lcnum_c_end                            0x0800c548   Data           0  lc_numeric_c.o(locale$$data)
    .data                                    0x20000000   Section        4  main.o(.data)
    float_num                                0x20000000   Data           4  main.o(.data)
    .data                                    0x20000004   Section       20  system_stm32f10x.o(.data)
    .data                                    0x20000018   Section        4  delay.o(.data)
    fac_us                                   0x20000018   Data           1  delay.o(.data)
    fac_ms                                   0x2000001a   Data           2  delay.o(.data)
    .data                                    0x2000001c   Section        6  usart.o(.data)
    .data                                    0x20000022   Section       20  stm32f10x_rcc.o(.data)
    APBAHBPrescTable                         0x20000022   Data          16  stm32f10x_rcc.o(.data)
    ADCPrescTable                            0x20000032   Data           4  stm32f10x_rcc.o(.data)
    .data                                    0x20000038   Section        4  cpu_core.o(.data)
    .data                                    0x2000003c   Section        4  lib_mem.o(.data)
    .data                                    0x20000040   Section        8  os_prio.o(.data)
    .data                                    0x20000048   Section      200  os_var.o(.data)
    .data                                    0x20000110   Section        4  os_cpu_c.o(.data)
    .bss                                     0x20000118   Section     4368  main.o(.bss)
    .bss                                     0x20001228   Section      200  usart.o(.bss)
    .bss                                     0x200012f0   Section       16  cpu_core.o(.bss)
    .bss                                     0x20001300   Section     1096  lib_mem.o(.bss)
    .bss                                     0x20001748   Section     5264  os_cfg_app.o(.bss)
    .bss                                     0x20002bd8   Section     1760  os_var.o(.bss)
    .bss                                     0x200032b8   Section       96  libspace.o(.bss)
    HEAP                                     0x20003318   Section      512  startup_stm32f10x_hd.o(HEAP)
    Heap_Mem                                 0x20003318   Data         512  startup_stm32f10x_hd.o(HEAP)
    STACK                                    0x20003518   Section     2048  startup_stm32f10x_hd.o(STACK)
    Stack_Mem                                0x20003518   Data        2048  startup_stm32f10x_hd.o(STACK)
    __initial_sp                             0x20003d18   Data           0  startup_stm32f10x_hd.o(STACK)

    Global Symbols

    Symbol Name                              Value     Ov Type        Size  Object(Section)

    BuildAttributes$$THM_ISAv4$P$D$K$B$S$PE$A:L22UL41UL21$X:L11$S22US41US21$IEEE1$IW$USESV6$~STKCKD$USESV7$~SHL$OTIME$ROPI$IEEEJ$EBA8$UX$STANDARDLIB$REQ8$PRES8$EABIv2 0x00000000   Number         0  anon$$obj.o ABSOLUTE
    __ARM_use_no_argv                        0x00000000   Number         0  main.o ABSOLUTE
    _printf_flags                            0x00000000   Number         0  printf_stubs.o ABSOLUTE
    _printf_return_value                     0x00000000   Number         0  printf_stubs.o ABSOLUTE
    _printf_sizespec                         0x00000000   Number         0  printf_stubs.o ABSOLUTE
    _printf_widthprec                        0x00000000   Number         0  printf_stubs.o ABSOLUTE
    __ARM_exceptions_init                     - Undefined Weak Reference
    __alloca_initialize                       - Undefined Weak Reference
    __arm_preinit_                            - Undefined Weak Reference
    __cpp_initialize__aeabi_                  - Undefined Weak Reference
    __cxa_finalize                            - Undefined Weak Reference
    __sigvec_lookup                           - Undefined Weak Reference
    _atexit_init                              - Undefined Weak Reference
    _call_atexit_fns                          - Undefined Weak Reference
    _clock_init                               - Undefined Weak Reference
    _fp_trap_init                             - Undefined Weak Reference
    _fp_trap_shutdown                         - Undefined Weak Reference
    _get_lc_collate                           - Undefined Weak Reference
    _get_lc_ctype                             - Undefined Weak Reference
    _get_lc_monetary                          - Undefined Weak Reference
    _get_lc_time                              - Undefined Weak Reference
    _getenv_init                              - Undefined Weak Reference
    _handle_redirection                       - Undefined Weak Reference
    _init_alloc                               - Undefined Weak Reference
    _init_user_alloc                          - Undefined Weak Reference
    _initio                                   - Undefined Weak Reference
    _mutex_acquire                            - Undefined Weak Reference
    _mutex_release                            - Undefined Weak Reference
    _printf_post_padding                      - Undefined Weak Reference
    _printf_pre_padding                       - Undefined Weak Reference
    _rand_init                                - Undefined Weak Reference
    _signal_finish                            - Undefined Weak Reference
    _signal_init                              - Undefined Weak Reference
    _terminate_alloc                          - Undefined Weak Reference
    _terminate_user_alloc                     - Undefined Weak Reference
    _terminateio                              - Undefined Weak Reference
    __Vectors_Size                           0x00000130   Number         0  startup_stm32f10x_hd.o ABSOLUTE
    __Vectors                                0x08000000   Data           4  startup_stm32f10x_hd.o(RESET)
    __Vectors_End                            0x08000130   Data           0  startup_stm32f10x_hd.o(RESET)
    __main                                   0x08000131   Thumb Code     8  __main.o(!!!main)
    __scatterload                            0x08000139   Thumb Code     0  __scatter.o(!!!scatter)
    __scatterload_rt2                        0x08000139   Thumb Code    44  __scatter.o(!!!scatter)
    __scatterload_rt2_thumb_only             0x08000139   Thumb Code     0  __scatter.o(!!!scatter)
    __scatterload_null                       0x08000147   Thumb Code     0  __scatter.o(!!!scatter)
    __scatterload_copy                       0x0800016d   Thumb Code    26  __scatter_copy.o(!!handler_copy)
    __scatterload_zeroinit                   0x08000189   Thumb Code    28  __scatter_zi.o(!!handler_zi)
    _printf_f                                0x080001a5   Thumb Code     0  _printf_f.o(.ARM.Collect$$_printf_percent$$00000003)
    _printf_percent                          0x080001a5   Thumb Code     0  _printf_percent.o(.ARM.Collect$$_printf_percent$$00000000)
    _printf_percent_end                      0x080001ab   Thumb Code     0  _printf_percent_end.o(.ARM.Collect$$_printf_percent$$00000017)
    __rt_lib_init                            0x080001af   Thumb Code     0  libinit.o(.ARM.Collect$$libinit$$00000000)
    __rt_lib_init_fp_1                       0x080001b1   Thumb Code     0  libinit2.o(.ARM.Collect$$libinit$$00000002)
    __rt_lib_init_heap_1                     0x080001b1   Thumb Code     0  libinit2.o(.ARM.Collect$$libinit$$0000000A)
    __rt_lib_init_lc_common                  0x080001b1   Thumb Code     0  libinit2.o(.ARM.Collect$$libinit$$0000000F)
    __rt_lib_init_preinit_1                  0x080001b1   Thumb Code     0  libinit2.o(.ARM.Collect$$libinit$$00000004)
    __rt_lib_init_rand_1                     0x080001b1   Thumb Code     0  libinit2.o(.ARM.Collect$$libinit$$0000000E)
    __rt_lib_init_user_alloc_1               0x080001b1   Thumb Code     0  libinit2.o(.ARM.Collect$$libinit$$0000000C)
    __rt_lib_init_lc_collate_1               0x080001b7   Thumb Code     0  libinit2.o(.ARM.Collect$$libinit$$00000011)
    __rt_lib_init_lc_ctype_1                 0x080001b7   Thumb Code     0  libinit2.o(.ARM.Collect$$libinit$$00000013)
    __rt_lib_init_lc_monetary_1              0x080001b7   Thumb Code     0  libinit2.o(.ARM.Collect$$libinit$$00000015)
    __rt_lib_init_lc_numeric_2               0x080001b7   Thumb Code     0  libinit2.o(.ARM.Collect$$libinit$$00000016)
    __rt_lib_init_alloca_1                   0x080001c1   Thumb Code     0  libinit2.o(.ARM.Collect$$libinit$$0000002E)
    __rt_lib_init_argv_1                     0x080001c1   Thumb Code     0  libinit2.o(.ARM.Collect$$libinit$$0000002C)
    __rt_lib_init_atexit_1                   0x080001c1   Thumb Code     0  libinit2.o(.ARM.Collect$$libinit$$0000001B)
    __rt_lib_init_clock_1                    0x080001c1   Thumb Code     0  libinit2.o(.ARM.Collect$$libinit$$00000021)
    __rt_lib_init_cpp_1                      0x080001c1   Thumb Code     0  libinit2.o(.ARM.Collect$$libinit$$00000032)
    __rt_lib_init_exceptions_1               0x080001c1   Thumb Code     0  libinit2.o(.ARM.Collect$$libinit$$00000030)
    __rt_lib_init_fp_trap_1                  0x080001c1   Thumb Code     0  libinit2.o(.ARM.Collect$$libinit$$0000001F)
    __rt_lib_init_getenv_1                   0x080001c1   Thumb Code     0  libinit2.o(.ARM.Collect$$libinit$$00000023)
    __rt_lib_init_lc_numeric_1               0x080001c1   Thumb Code     0  libinit2.o(.ARM.Collect$$libinit$$00000017)
    __rt_lib_init_lc_time_1                  0x080001c1   Thumb Code     0  libinit2.o(.ARM.Collect$$libinit$$00000019)
    __rt_lib_init_return                     0x080001c1   Thumb Code     0  libinit2.o(.ARM.Collect$$libinit$$00000033)
    __rt_lib_init_signal_1                   0x080001c1   Thumb Code     0  libinit2.o(.ARM.Collect$$libinit$$0000001D)
    __rt_lib_init_stdio_1                    0x080001c1   Thumb Code     0  libinit2.o(.ARM.Collect$$libinit$$00000025)
    __rt_lib_shutdown                        0x080001c3   Thumb Code     0  libshutdown.o(.ARM.Collect$$libshutdown$$00000000)
    __rt_lib_shutdown_cpp_1                  0x080001c5   Thumb Code     0  libshutdown2.o(.ARM.Collect$$libshutdown$$00000002)
    __rt_lib_shutdown_fp_trap_1              0x080001c5   Thumb Code     0  libshutdown2.o(.ARM.Collect$$libshutdown$$00000007)
    __rt_lib_shutdown_heap_1                 0x080001c5   Thumb Code     0  libshutdown2.o(.ARM.Collect$$libshutdown$$0000000F)
    __rt_lib_shutdown_return                 0x080001c5   Thumb Code     0  libshutdown2.o(.ARM.Collect$$libshutdown$$00000010)
    __rt_lib_shutdown_signal_1               0x080001c5   Thumb Code     0  libshutdown2.o(.ARM.Collect$$libshutdown$$0000000A)
    __rt_lib_shutdown_stdio_1                0x080001c5   Thumb Code     0  libshutdown2.o(.ARM.Collect$$libshutdown$$00000004)
    __rt_lib_shutdown_user_alloc_1           0x080001c5   Thumb Code     0  libshutdown2.o(.ARM.Collect$$libshutdown$$0000000C)
    __rt_entry                               0x080001c7   Thumb Code     0  __rtentry.o(.ARM.Collect$$rtentry$$00000000)
    __rt_entry_presh_1                       0x080001c7   Thumb Code     0  __rtentry2.o(.ARM.Collect$$rtentry$$00000002)
    __rt_entry_sh                            0x080001c7   Thumb Code     0  __rtentry4.o(.ARM.Collect$$rtentry$$00000004)
    __rt_entry_li                            0x080001cd   Thumb Code     0  __rtentry2.o(.ARM.Collect$$rtentry$$0000000A)
    __rt_entry_postsh_1                      0x080001cd   Thumb Code     0  __rtentry2.o(.ARM.Collect$$rtentry$$00000009)
    __rt_entry_main                          0x080001d1   Thumb Code     0  __rtentry2.o(.ARM.Collect$$rtentry$$0000000D)
    __rt_entry_postli_1                      0x080001d1   Thumb Code     0  __rtentry2.o(.ARM.Collect$$rtentry$$0000000C)
    __rt_exit                                0x080001d9   Thumb Code     0  rtexit.o(.ARM.Collect$$rtexit$$00000000)
    __rt_exit_ls                             0x080001db   Thumb Code     0  rtexit2.o(.ARM.Collect$$rtexit$$00000003)
    __rt_exit_prels_1                        0x080001db   Thumb Code     0  rtexit2.o(.ARM.Collect$$rtexit$$00000002)
    __rt_exit_exit                           0x080001df   Thumb Code     0  rtexit2.o(.ARM.Collect$$rtexit$$00000004)
    float_task                               0x080001e5   Thumb Code   180  main.o(.text)
    led1_task                                0x08000299   Thumb Code    40  main.o(.text)
    led0_task                                0x080002c1   Thumb Code    60  main.o(.text)
    start_task                               0x080002fd   Thumb Code   318  main.o(.text)
    main                                     0x0800043b   Thumb Code   226  main.o(.text)
    NMI_Handler                              0x080005a9   Thumb Code     2  stm32f10x_it.o(.text)
    HardFault_Handler                        0x080005ab   Thumb Code     4  stm32f10x_it.o(.text)
    MemManage_Handler                        0x080005af   Thumb Code     4  stm32f10x_it.o(.text)
    BusFault_Handler                         0x080005b3   Thumb Code     4  stm32f10x_it.o(.text)
    UsageFault_Handler                       0x080005b7   Thumb Code     4  stm32f10x_it.o(.text)
    SVC_Handler                              0x080005bb   Thumb Code     2  stm32f10x_it.o(.text)
    DebugMon_Handler                         0x080005bd   Thumb Code     2  stm32f10x_it.o(.text)
    SystemInit                               0x0800069f   Thumb Code    78  system_stm32f10x.o(.text)
    SystemCoreClockUpdate                    0x080006ed   Thumb Code   142  system_stm32f10x.o(.text)
    LED_Init                                 0x080007a1   Thumb Code    68  led.o(.text)
    delay_osschedlock                        0x080007ed   Thumb Code    10  delay.o(.text)
    delay_osschedunlock                      0x080007f7   Thumb Code    10  delay.o(.text)
    delay_ostimedly                          0x08000801   Thumb Code    16  delay.o(.text)
    SysTick_Handler                          0x08000811   Thumb Code    24  delay.o(.text)
    delay_init                               0x08000829   Thumb Code    92  delay.o(.text)
    delay_us                                 0x08000885   Thumb Code    86  delay.o(.text)
    delay_ms                                 0x080008db   Thumb Code    66  delay.o(.text)
    _sys_exit                                0x08000939   Thumb Code     6  usart.o(.text)
    fputc                                    0x0800093f   Thumb Code    24  usart.o(.text)
    uart_init                                0x08000957   Thumb Code   158  usart.o(.text)
    USART1_IRQHandler                        0x080009f5   Thumb Code   130  usart.o(.text)
    Reset_Handler                            0x08000a89   Thumb Code     8  startup_stm32f10x_hd.o(.text)
    ADC1_2_IRQHandler                        0x08000aa3   Thumb Code     0  startup_stm32f10x_hd.o(.text)
    ADC3_IRQHandler                          0x08000aa3   Thumb Code     0  startup_stm32f10x_hd.o(.text)
    CAN1_RX1_IRQHandler                      0x08000aa3   Thumb Code     0  startup_stm32f10x_hd.o(.text)
    CAN1_SCE_IRQHandler                      0x08000aa3   Thumb Code     0  startup_stm32f10x_hd.o(.text)
    DMA1_Channel1_IRQHandler                 0x08000aa3   Thumb Code     0  startup_stm32f10x_hd.o(.text)
    DMA1_Channel2_IRQHandler                 0x08000aa3   Thumb Code     0  startup_stm32f10x_hd.o(.text)
    DMA1_Channel3_IRQHandler                 0x08000aa3   Thumb Code     0  startup_stm32f10x_hd.o(.text)
    DMA1_Channel4_IRQHandler                 0x08000aa3   Thumb Code     0  startup_stm32f10x_hd.o(.text)
    DMA1_Channel5_IRQHandler                 0x08000aa3   Thumb Code     0  startup_stm32f10x_hd.o(.text)
    DMA1_Channel6_IRQHandler                 0x08000aa3   Thumb Code     0  startup_stm32f10x_hd.o(.text)
    DMA1_Channel7_IRQHandler                 0x08000aa3   Thumb Code     0  startup_stm32f10x_hd.o(.text)
    DMA2_Channel1_IRQHandler                 0x08000aa3   Thumb Code     0  startup_stm32f10x_hd.o(.text)
    DMA2_Channel2_IRQHandler                 0x08000aa3   Thumb Code     0  startup_stm32f10x_hd.o(.text)
    DMA2_Channel3_IRQHandler                 0x08000aa3   Thumb Code     0  startup_stm32f10x_hd.o(.text)
    DMA2_Channel4_5_IRQHandler               0x08000aa3   Thumb Code     0  startup_stm32f10x_hd.o(.text)
    EXTI0_IRQHandler                         0x08000aa3   Thumb Code     0  startup_stm32f10x_hd.o(.text)
    EXTI15_10_IRQHandler                     0x08000aa3   Thumb Code     0  startup_stm32f10x_hd.o(.text)
    EXTI1_IRQHandler                         0x08000aa3   Thumb Code     0  startup_stm32f10x_hd.o(.text)
    EXTI2_IRQHandler                         0x08000aa3   Thumb Code     0  startup_stm32f10x_hd.o(.text)
    EXTI3_IRQHandler                         0x08000aa3   Thumb Code     0  startup_stm32f10x_hd.o(.text)
    EXTI4_IRQHandler                         0x08000aa3   Thumb Code     0  startup_stm32f10x_hd.o(.text)
    EXTI9_5_IRQHandler                       0x08000aa3   Thumb Code     0  startup_stm32f10x_hd.o(.text)
    FLASH_IRQHandler                         0x08000aa3   Thumb Code     0  startup_stm32f10x_hd.o(.text)
    FSMC_IRQHandler                          0x08000aa3   Thumb Code     0  startup_stm32f10x_hd.o(.text)
    I2C1_ER_IRQHandler                       0x08000aa3   Thumb Code     0  startup_stm32f10x_hd.o(.text)
    I2C1_EV_IRQHandler                       0x08000aa3   Thumb Code     0  startup_stm32f10x_hd.o(.text)
    I2C2_ER_IRQHandler                       0x08000aa3   Thumb Code     0  startup_stm32f10x_hd.o(.text)
    I2C2_EV_IRQHandler                       0x08000aa3   Thumb Code     0  startup_stm32f10x_hd.o(.text)
    PVD_IRQHandler                           0x08000aa3   Thumb Code     0  startup_stm32f10x_hd.o(.text)
    RCC_IRQHandler                           0x08000aa3   Thumb Code     0  startup_stm32f10x_hd.o(.text)
    RTCAlarm_IRQHandler                      0x08000aa3   Thumb Code     0  startup_stm32f10x_hd.o(.text)
    RTC_IRQHandler                           0x08000aa3   Thumb Code     0  startup_stm32f10x_hd.o(.text)
    SDIO_IRQHandler                          0x08000aa3   Thumb Code     0  startup_stm32f10x_hd.o(.text)
    SPI1_IRQHandler                          0x08000aa3   Thumb Code     0  startup_stm32f10x_hd.o(.text)
    SPI2_IRQHandler                          0x08000aa3   Thumb Code     0  startup_stm32f10x_hd.o(.text)
    SPI3_IRQHandler                          0x08000aa3   Thumb Code     0  startup_stm32f10x_hd.o(.text)
    TAMPER_IRQHandler                        0x08000aa3   Thumb Code     0  startup_stm32f10x_hd.o(.text)
    TIM1_BRK_IRQHandler                      0x08000aa3   Thumb Code     0  startup_stm32f10x_hd.o(.text)
    TIM1_CC_IRQHandler                       0x08000aa3   Thumb Code     0  startup_stm32f10x_hd.o(.text)
    TIM1_TRG_COM_IRQHandler                  0x08000aa3   Thumb Code     0  startup_stm32f10x_hd.o(.text)
    TIM1_UP_IRQHandler                       0x08000aa3   Thumb Code     0  startup_stm32f10x_hd.o(.text)
    TIM2_IRQHandler                          0x08000aa3   Thumb Code     0  startup_stm32f10x_hd.o(.text)
    TIM3_IRQHandler                          0x08000aa3   Thumb Code     0  startup_stm32f10x_hd.o(.text)
    TIM4_IRQHandler                          0x08000aa3   Thumb Code     0  startup_stm32f10x_hd.o(.text)
    TIM5_IRQHandler                          0x08000aa3   Thumb Code     0  startup_stm32f10x_hd.o(.text)
    TIM6_IRQHandler                          0x08000aa3   Thumb Code     0  startup_stm32f10x_hd.o(.text)
    TIM7_IRQHandler                          0x08000aa3   Thumb Code     0  startup_stm32f10x_hd.o(.text)
    TIM8_BRK_IRQHandler                      0x08000aa3   Thumb Code     0  startup_stm32f10x_hd.o(.text)
    TIM8_CC_IRQHandler                       0x08000aa3   Thumb Code     0  startup_stm32f10x_hd.o(.text)
    TIM8_TRG_COM_IRQHandler                  0x08000aa3   Thumb Code     0  startup_stm32f10x_hd.o(.text)
    TIM8_UP_IRQHandler                       0x08000aa3   Thumb Code     0  startup_stm32f10x_hd.o(.text)
    UART4_IRQHandler                         0x08000aa3   Thumb Code     0  startup_stm32f10x_hd.o(.text)
    UART5_IRQHandler                         0x08000aa3   Thumb Code     0  startup_stm32f10x_hd.o(.text)
    USART2_IRQHandler                        0x08000aa3   Thumb Code     0  startup_stm32f10x_hd.o(.text)
    USART3_IRQHandler                        0x08000aa3   Thumb Code     0  startup_stm32f10x_hd.o(.text)
    USBWakeUp_IRQHandler                     0x08000aa3   Thumb Code     0  startup_stm32f10x_hd.o(.text)
    USB_HP_CAN1_TX_IRQHandler                0x08000aa3   Thumb Code     0  startup_stm32f10x_hd.o(.text)
    USB_LP_CAN1_RX0_IRQHandler               0x08000aa3   Thumb Code     0  startup_stm32f10x_hd.o(.text)
    WWDG_IRQHandler                          0x08000aa3   Thumb Code     0  startup_stm32f10x_hd.o(.text)
    __user_initial_stackheap                 0x08000aa5   Thumb Code     0  startup_stm32f10x_hd.o(.text)
    NVIC_PriorityGroupConfig                 0x08000ac9   Thumb Code    10  misc.o(.text)
    NVIC_Init                                0x08000ad3   Thumb Code   100  misc.o(.text)
    NVIC_SetVectorTable                      0x08000b37   Thumb Code    14  misc.o(.text)
    NVIC_SystemLPConfig                      0x08000b45   Thumb Code    34  misc.o(.text)
    SysTick_CLKSourceConfig                  0x08000b67   Thumb Code    40  misc.o(.text)
    GPIO_DeInit                              0x08000ba5   Thumb Code   172  stm32f10x_gpio.o(.text)
    GPIO_AFIODeInit                          0x08000c51   Thumb Code    20  stm32f10x_gpio.o(.text)
    GPIO_Init                                0x08000c65   Thumb Code   278  stm32f10x_gpio.o(.text)
    GPIO_StructInit                          0x08000d7b   Thumb Code    16  stm32f10x_gpio.o(.text)
    GPIO_ReadInputDataBit                    0x08000d8b   Thumb Code    18  stm32f10x_gpio.o(.text)
    GPIO_ReadInputData                       0x08000d9d   Thumb Code     8  stm32f10x_gpio.o(.text)
    GPIO_ReadOutputDataBit                   0x08000da5   Thumb Code    18  stm32f10x_gpio.o(.text)
    GPIO_ReadOutputData                      0x08000db7   Thumb Code     8  stm32f10x_gpio.o(.text)
    GPIO_SetBits                             0x08000dbf   Thumb Code     4  stm32f10x_gpio.o(.text)
    GPIO_ResetBits                           0x08000dc3   Thumb Code     4  stm32f10x_gpio.o(.text)
    GPIO_WriteBit                            0x08000dc7   Thumb Code    10  stm32f10x_gpio.o(.text)
    GPIO_Write                               0x08000dd1   Thumb Code     4  stm32f10x_gpio.o(.text)
    GPIO_PinLockConfig                       0x08000dd5   Thumb Code    18  stm32f10x_gpio.o(.text)
    GPIO_EventOutputConfig                   0x08000de7   Thumb Code    26  stm32f10x_gpio.o(.text)
    GPIO_EventOutputCmd                      0x08000e01   Thumb Code     6  stm32f10x_gpio.o(.text)
    GPIO_PinRemapConfig                      0x08000e07   Thumb Code   138  stm32f10x_gpio.o(.text)
    GPIO_EXTILineConfig                      0x08000e91   Thumb Code    66  stm32f10x_gpio.o(.text)
    GPIO_ETH_MediaInterfaceConfig            0x08000ed3   Thumb Code     8  stm32f10x_gpio.o(.text)
    USART_DeInit                             0x08000f01   Thumb Code   134  stm32f10x_usart.o(.text)
    USART_Init                               0x08000f87   Thumb Code   210  stm32f10x_usart.o(.text)
    USART_StructInit                         0x08001059   Thumb Code    24  stm32f10x_usart.o(.text)
    USART_ClockInit                          0x08001071   Thumb Code    34  stm32f10x_usart.o(.text)
    USART_ClockStructInit                    0x08001093   Thumb Code    12  stm32f10x_usart.o(.text)
    USART_Cmd                                0x0800109f   Thumb Code    24  stm32f10x_usart.o(.text)
    USART_ITConfig                           0x080010b7   Thumb Code    74  stm32f10x_usart.o(.text)
    USART_DMACmd                             0x08001101   Thumb Code    18  stm32f10x_usart.o(.text)
    USART_SetAddress                         0x08001113   Thumb Code    18  stm32f10x_usart.o(.text)
    USART_WakeUpConfig                       0x08001125   Thumb Code    18  stm32f10x_usart.o(.text)
    USART_ReceiverWakeUpCmd                  0x08001137   Thumb Code    24  stm32f10x_usart.o(.text)
    USART_LINBreakDetectLengthConfig         0x0800114f   Thumb Code    18  stm32f10x_usart.o(.text)
    USART_LINCmd                             0x08001161   Thumb Code    24  stm32f10x_usart.o(.text)
    USART_SendData                           0x08001179   Thumb Code     8  stm32f10x_usart.o(.text)
    USART_ReceiveData                        0x08001181   Thumb Code    10  stm32f10x_usart.o(.text)
    USART_SendBreak                          0x0800118b   Thumb Code    10  stm32f10x_usart.o(.text)
    USART_SetGuardTime                       0x08001195   Thumb Code    16  stm32f10x_usart.o(.text)
    USART_SetPrescaler                       0x080011a5   Thumb Code    16  stm32f10x_usart.o(.text)
    USART_SmartCardCmd                       0x080011b5   Thumb Code    24  stm32f10x_usart.o(.text)
    USART_SmartCardNACKCmd                   0x080011cd   Thumb Code    24  stm32f10x_usart.o(.text)
    USART_HalfDuplexCmd                      0x080011e5   Thumb Code    24  stm32f10x_usart.o(.text)
    USART_OverSampling8Cmd                   0x080011fd   Thumb Code    22  stm32f10x_usart.o(.text)
    USART_OneBitMethodCmd                    0x08001213   Thumb Code    24  stm32f10x_usart.o(.text)
    USART_IrDAConfig                         0x0800122b   Thumb Code    18  stm32f10x_usart.o(.text)
    USART_IrDACmd                            0x0800123d   Thumb Code    24  stm32f10x_usart.o(.text)
    USART_GetFlagStatus                      0x08001255   Thumb Code    26  stm32f10x_usart.o(.text)
    USART_ClearFlag                          0x0800126f   Thumb Code    18  stm32f10x_usart.o(.text)
    USART_GetITStatus                        0x08001281   Thumb Code    84  stm32f10x_usart.o(.text)
    USART_ClearITPendingBit                  0x080012d5   Thumb Code    52  stm32f10x_usart.o(.text)
    RCC_DeInit                               0x08001309   Thumb Code    64  stm32f10x_rcc.o(.text)
    RCC_HSEConfig                            0x08001349   Thumb Code    70  stm32f10x_rcc.o(.text)
    RCC_GetFlagStatus                        0x0800138f   Thumb Code    56  stm32f10x_rcc.o(.text)
    RCC_WaitForHSEStartUp                    0x080013c7   Thumb Code    56  stm32f10x_rcc.o(.text)
    RCC_AdjustHSICalibrationValue            0x080013ff   Thumb Code    20  stm32f10x_rcc.o(.text)
    RCC_HSICmd                               0x08001413   Thumb Code     6  stm32f10x_rcc.o(.text)
    RCC_PLLConfig                            0x08001419   Thumb Code    24  stm32f10x_rcc.o(.text)
    RCC_PLLCmd                               0x08001431   Thumb Code     6  stm32f10x_rcc.o(.text)
    RCC_SYSCLKConfig                         0x08001437   Thumb Code    18  stm32f10x_rcc.o(.text)
    RCC_GetSYSCLKSource                      0x08001449   Thumb Code    10  stm32f10x_rcc.o(.text)
    RCC_HCLKConfig                           0x08001453   Thumb Code    18  stm32f10x_rcc.o(.text)
    RCC_PCLK1Config                          0x08001465   Thumb Code    18  stm32f10x_rcc.o(.text)
    RCC_PCLK2Config                          0x08001477   Thumb Code    20  stm32f10x_rcc.o(.text)
    RCC_ITConfig                             0x0800148b   Thumb Code    26  stm32f10x_rcc.o(.text)
    RCC_USBCLKConfig                         0x080014a5   Thumb Code     8  stm32f10x_rcc.o(.text)
    RCC_ADCCLKConfig                         0x080014ad   Thumb Code    18  stm32f10x_rcc.o(.text)
    RCC_LSEConfig                            0x080014bf   Thumb Code    50  stm32f10x_rcc.o(.text)
    RCC_LSICmd                               0x080014f1   Thumb Code     6  stm32f10x_rcc.o(.text)
    RCC_RTCCLKConfig                         0x080014f7   Thumb Code    12  stm32f10x_rcc.o(.text)
    RCC_RTCCLKCmd                            0x08001503   Thumb Code     8  stm32f10x_rcc.o(.text)
    RCC_GetClocksFreq                        0x0800150b   Thumb Code   192  stm32f10x_rcc.o(.text)
    RCC_AHBPeriphClockCmd                    0x080015cb   Thumb Code    26  stm32f10x_rcc.o(.text)
    RCC_APB2PeriphClockCmd                   0x080015e5   Thumb Code    26  stm32f10x_rcc.o(.text)
    RCC_APB1PeriphClockCmd                   0x080015ff   Thumb Code    26  stm32f10x_rcc.o(.text)
    RCC_APB2PeriphResetCmd                   0x08001619   Thumb Code    26  stm32f10x_rcc.o(.text)
    RCC_APB1PeriphResetCmd                   0x08001633   Thumb Code    26  stm32f10x_rcc.o(.text)
    RCC_BackupResetCmd                       0x0800164d   Thumb Code     8  stm32f10x_rcc.o(.text)
    RCC_ClockSecuritySystemCmd               0x08001655   Thumb Code     6  stm32f10x_rcc.o(.text)
    RCC_MCOConfig                            0x0800165b   Thumb Code     6  stm32f10x_rcc.o(.text)
    RCC_ClearFlag                            0x08001661   Thumb Code    14  stm32f10x_rcc.o(.text)
    RCC_GetITStatus                          0x0800166f   Thumb Code    20  stm32f10x_rcc.o(.text)
    RCC_ClearITPendingBit                    0x08001683   Thumb Code     6  stm32f10x_rcc.o(.text)
    BSP_CPU_ClkFreq                          0x080016ad   Thumb Code    16  bsp.o(.text)
    CPU_TS_TmrInit                           0x080016bd   Thumb Code    44  bsp.o(.text)
    CPU_TS_TmrRd                             0x080016e9   Thumb Code     6  bsp.o(.text)
    CPU_TS32_to_uSec                         0x080016ef   Thumb Code    54  bsp.o(.text)
    CPU_NameClr                              0x08001731   Thumb Code    42  cpu_core.o(.text)
    CPU_Init                                 0x08001771   Thumb Code    12  cpu_core.o(.text)
    CPU_SW_Exception                         0x0800177d   Thumb Code     4  cpu_core.o(.text)
    CPU_NameGet                              0x08001781   Thumb Code    70  cpu_core.o(.text)
    CPU_NameSet                              0x080017c7   Thumb Code    96  cpu_core.o(.text)
    CPU_TS_Get32                             0x08001827   Thumb Code    12  cpu_core.o(.text)
    CPU_TS_Update                            0x08001833   Thumb Code     2  cpu_core.o(.text)
    CPU_TS_TmrFreqGet                        0x08001835   Thumb Code    30  cpu_core.o(.text)
    CPU_TS_TmrFreqSet                        0x08001853   Thumb Code     6  cpu_core.o(.text)
    CPU_CntLeadZeros08                       0x08001859   Thumb Code    18  cpu_core.o(.text)
    CPU_CntLeadZeros16                       0x0800186b   Thumb Code    18  cpu_core.o(.text)
    CPU_CntLeadZeros32                       0x0800187d   Thumb Code    18  cpu_core.o(.text)
    CPU_CntLeadZeros64                       0x0800188f   Thumb Code   188  cpu_core.o(.text)
    CPU_CntTrailZeros08                      0x0800194b   Thumb Code    22  cpu_core.o(.text)
    CPU_CntTrailZeros16                      0x08001961   Thumb Code    22  cpu_core.o(.text)
    CPU_CntTrailZeros32                      0x08001977   Thumb Code    22  cpu_core.o(.text)
    CPU_CntTrailZeros64                      0x0800198d   Thumb Code    62  cpu_core.o(.text)
    CPU_IntDis                               0x080019d9   Thumb Code     0  cpu_a.o(.text)
    CPU_IntEn                                0x080019dd   Thumb Code     0  cpu_a.o(.text)
    CPU_SR_Save                              0x080019e1   Thumb Code     0  cpu_a.o(.text)
    CPU_SR_Restore                           0x080019e9   Thumb Code     0  cpu_a.o(.text)
    CPU_WaitForInt                           0x080019ef   Thumb Code     0  cpu_a.o(.text)
    CPU_WaitForExcept                        0x080019f3   Thumb Code     0  cpu_a.o(.text)
    CPU_CntLeadZeros                         0x080019f7   Thumb Code     0  cpu_a.o(.text)
    CPU_CntTrailZeros                        0x080019fd   Thumb Code     0  cpu_a.o(.text)
    CPU_RevBits                              0x08001a07   Thumb Code     0  cpu_a.o(.text)
    ASCII_IsAlpha                            0x08001a0d   Thumb Code    48  lib_ascii.o(.text)
    ASCII_IsAlphaNum                         0x08001a3d   Thumb Code    76  lib_ascii.o(.text)
    ASCII_IsLower                            0x08001a89   Thumb Code    20  lib_ascii.o(.text)
    ASCII_IsUpper                            0x08001a9d   Thumb Code    20  lib_ascii.o(.text)
    ASCII_IsDig                              0x08001ab1   Thumb Code    20  lib_ascii.o(.text)
    ASCII_IsDigOct                           0x08001ac5   Thumb Code    20  lib_ascii.o(.text)
    ASCII_IsDigHex                           0x08001ad9   Thumb Code    36  lib_ascii.o(.text)
    ASCII_IsBlank                            0x08001afd   Thumb Code    20  lib_ascii.o(.text)
    ASCII_IsSpace                            0x08001b11   Thumb Code    36  lib_ascii.o(.text)
    ASCII_IsPrint                            0x08001b35   Thumb Code    20  lib_ascii.o(.text)
    ASCII_IsGraph                            0x08001b49   Thumb Code    20  lib_ascii.o(.text)
    ASCII_IsPunct                            0x08001b5d   Thumb Code   134  lib_ascii.o(.text)
    ASCII_IsCtrl                             0x08001be3   Thumb Code    26  lib_ascii.o(.text)
    ASCII_ToLower                            0x08001bfd   Thumb Code    32  lib_ascii.o(.text)
    ASCII_ToUpper                            0x08001c1d   Thumb Code    32  lib_ascii.o(.text)
    ASCII_Cmp                                0x08001c3d   Thumb Code    38  lib_ascii.o(.text)
    Mem_Init                                 0x08001c65   Thumb Code    54  lib_mem.o(.text)
    Mem_Set                                  0x08001c9b   Thumb Code    84  lib_mem.o(.text)
    Mem_Clr                                  0x08001cef   Thumb Code    18  lib_mem.o(.text)
    Mem_Move                                 0x08001d01   Thumb Code   186  lib_mem.o(.text)
    Mem_Cmp                                  0x08001dbb   Thumb Code   192  lib_mem.o(.text)
    Mem_HeapAlloc                            0x08001ef3   Thumb Code   168  lib_mem.o(.text)
    Mem_SegGetSizeRem                        0x08001f9b   Thumb Code   108  lib_mem.o(.text)
    Mem_HeapGetSizeRem                       0x08002007   Thumb Code    22  lib_mem.o(.text)
    Mem_PoolClr                              0x0800201d   Thumb Code    80  lib_mem.o(.text)
    Mem_PoolCreate                           0x0800206d   Thumb Code   838  lib_mem.o(.text)
    Mem_PoolBlkGetNbrAvail                   0x080023b3   Thumb Code    52  lib_mem.o(.text)
    Mem_PoolBlkGet                           0x080023e7   Thumb Code   126  lib_mem.o(.text)
    Mem_PoolBlkGetUsedAtIx                   0x08002465   Thumb Code   140  lib_mem.o(.text)
    Mem_PoolBlkFree                          0x080024f1   Thumb Code   152  lib_mem.o(.text)
    Mem_PoolBlkIxGet                         0x08002589   Thumb Code   162  lib_mem.o(.text)
    Str_Len_N                                0x0800262d   Thumb Code    28  lib_str.o(.text)
    Str_Len                                  0x08002649   Thumb Code    20  lib_str.o(.text)
    Str_Copy_N                               0x0800265d   Thumb Code    70  lib_str.o(.text)
    Str_Copy                                 0x080026a3   Thumb Code    24  lib_str.o(.text)
    Str_Cat_N                                0x080026bb   Thumb Code    90  lib_str.o(.text)
    Str_Cat                                  0x08002715   Thumb Code    24  lib_str.o(.text)
    Str_Cmp_N                                0x0800272d   Thumb Code   156  lib_str.o(.text)
    Str_Cmp                                  0x080027c9   Thumb Code    24  lib_str.o(.text)
    Str_CmpIgnoreCase_N                      0x080027e1   Thumb Code   264  lib_str.o(.text)
    Str_CmpIgnoreCase                        0x080028e9   Thumb Code    24  lib_str.o(.text)
    Str_Char_N                               0x08002901   Thumb Code    74  lib_str.o(.text)
    Str_Char                                 0x0800294b   Thumb Code    24  lib_str.o(.text)
    Str_Char_Last_N                          0x08002963   Thumb Code    76  lib_str.o(.text)
    Str_Char_Last                            0x080029af   Thumb Code    24  lib_str.o(.text)
    Str_Char_Replace_N                       0x080029c7   Thumb Code    52  lib_str.o(.text)
    Str_Char_Replace                         0x080029fb   Thumb Code    28  lib_str.o(.text)
    Str_Str_N                                0x08002a17   Thumb Code   182  lib_str.o(.text)
    Str_Str                                  0x08002acd   Thumb Code    24  lib_str.o(.text)
    Str_FmtNbr_Int32U                        0x08002cc1   Thumb Code    46  lib_str.o(.text)
    Str_FmtNbr_Int32S                        0x08002cef   Thumb Code    62  lib_str.o(.text)
    Str_ParseNbr_Int32U                      0x08002eeb   Thumb Code    30  lib_str.o(.text)
    Str_ParseNbr_Int32S                      0x08002f09   Thumb Code    74  lib_str.o(.text)
    Mem_Copy                                 0x08002f59   Thumb Code     0  lib_mem_a.o(.text)
    OSCfg_Init                               0x08003179   Thumb Code    86  os_cfg_app.o(.text)
    OS_IdleTask                              0x08003275   Thumb Code    60  os_core.o(.text)
    OS_IdleTaskInit                          0x080032b1   Thumb Code    68  os_core.o(.text)
    OS_RdyListInit                           0x080032f5   Thumb Code    32  os_core.o(.text)
    OSInit                                   0x08003315   Thumb Code   300  os_core.o(.text)
    OSIntEnter                               0x08003441   Thumb Code    34  os_core.o(.text)
    OSIntExit                                0x08003463   Thumb Code   192  os_core.o(.text)
    OSSched                                  0x08003523   Thumb Code   134  os_core.o(.text)
    OS_SchedLockTimeMeasStart                0x080035a9   Thumb Code    20  os_core.o(.text)
    OSSchedLock                              0x080035bd   Thumb Code   104  os_core.o(.text)
    OS_SchedLockTimeMeasStop                 0x08003625   Thumb Code    44  os_core.o(.text)
    OSSchedUnlock                            0x08003651   Thumb Code   290  os_core.o(.text)
    OSSchedRoundRobinCfg                     0x08003773   Thumb Code    88  os_core.o(.text)
    OS_RdyListMoveHeadToTail                 0x080037cb   Thumb Code    68  os_core.o(.text)
    OSSchedRoundRobinYield                   0x0800380f   Thumb Code   164  os_core.o(.text)
    OSStart                                  0x080038b3   Thumb Code    78  os_core.o(.text)
    OSVersion                                0x08003901   Thumb Code    12  os_core.o(.text)
    OS_PendDbgNameAdd                        0x0800390d   Thumb Code    66  os_core.o(.text)
    OS_PendListInsertPrio                    0x0800394f   Thumb Code   102  os_core.o(.text)
    OS_PendDataInit                          0x080039b5   Thumb Code    38  os_core.o(.text)
    OS_RdyListRemove                         0x080039db   Thumb Code    86  os_core.o(.text)
    OS_TaskBlock                             0x08003a31   Thumb Code    56  os_core.o(.text)
    OS_Pend                                  0x08003a69   Thumb Code    98  os_core.o(.text)
    OS_PendListRemove1                       0x08003acb   Thumb Code   134  os_core.o(.text)
    OS_PendListRemove                        0x08003b51   Thumb Code    48  os_core.o(.text)
    OS_PendAbort1                            0x08003b81   Thumb Code    36  os_core.o(.text)
    OS_RdyListInsertHead                     0x08003ba5   Thumb Code    58  os_core.o(.text)
    OS_RdyListInsertTail                     0x08003bdf   Thumb Code    56  os_core.o(.text)
    OS_RdyListInsert                         0x08003c17   Thumb Code    40  os_core.o(.text)
    OS_TaskRdy                               0x08003c3f   Thumb Code    28  os_core.o(.text)
    OS_PendAbort                             0x08003c5b   Thumb Code   166  os_core.o(.text)
    OS_PendDbgNameRemove                     0x08003d01   Thumb Code    34  os_core.o(.text)
    OS_PendListChangePrio                    0x08003d23   Thumb Code    70  os_core.o(.text)
    OS_PendListInit                          0x08003d69   Thumb Code    10  os_core.o(.text)
    OS_PendListInsertHead                    0x08003d73   Thumb Code    32  os_core.o(.text)
    OS_PendObjDel1                           0x08003d93   Thumb Code    36  os_core.o(.text)
    OS_PendObjDel                            0x08003db7   Thumb Code   162  os_core.o(.text)
    OS_Post1                                 0x08003e59   Thumb Code    42  os_core.o(.text)
    OS_Post                                  0x08003e83   Thumb Code   192  os_core.o(.text)
    OS_Sched0                                0x08003f43   Thumb Code   102  os_core.o(.text)
    OS_SchedRoundRobin                       0x08003fa9   Thumb Code   190  os_core.o(.text)
    OS_Dbg_Init                              0x08004079   Thumb Code   146  os_dbg.o(.text)
    OS_FlagDbgListAdd                        0x08004229   Thumb Code    38  os_flag.o(.text)
    OSFlagCreate                             0x0800424f   Thumb Code   172  os_flag.o(.text)
    OS_FlagClr                               0x080042fb   Thumb Code    28  os_flag.o(.text)
    OS_FlagDbgListRemove                     0x08004317   Thumb Code    44  os_flag.o(.text)
    OSFlagDel                                0x08004343   Thumb Code   594  os_flag.o(.text)
    OS_FlagBlock                             0x08004595   Thumb Code    58  os_flag.o(.text)
    OSFlagPend                               0x080045cf   Thumb Code  1488  os_flag.o(.text)
    OSFlagPendAbort                          0x08004b9f   Thumb Code   292  os_flag.o(.text)
    OSFlagPendGetFlagsRdy                    0x08004cc3   Thumb Code    68  os_flag.o(.text)
    OS_FlagTaskRdy                           0x08004d07   Thumb Code    86  os_flag.o(.text)
    OS_FlagPost                              0x08004d5d   Thumb Code   570  os_flag.o(.text)
    OSFlagPost                               0x08004f97   Thumb Code   146  os_flag.o(.text)
    OS_FlagInit                              0x08005029   Thumb Code    14  os_flag.o(.text)
    OS_IntQPost                              0x08005051   Thumb Code   216  os_int.o(.text)
    OS_IntQRePost                            0x08005129   Thumb Code   360  os_int.o(.text)
    OS_IntQTask                              0x08005291   Thumb Code   162  os_int.o(.text)
    OS_IntQTaskInit                          0x08005333   Thumb Code   208  os_int.o(.text)
    OS_MemDbgListAdd                         0x08005495   Thumb Code    34  os_mem.o(.text)
    OSMemCreate                              0x080054b7   Thumb Code   288  os_mem.o(.text)
    OSMemGet                                 0x080055d7   Thumb Code   100  os_mem.o(.text)
    OSMemPut                                 0x0800563b   Thumb Code   112  os_mem.o(.text)
    OS_MemInit                               0x080056ab   Thumb Code    14  os_mem.o(.text)
    OS_MsgPoolCreate                         0x080056cd   Thumb Code    54  os_msg.o(.text)
    OS_MsgPoolInit                           0x08005703   Thumb Code    70  os_msg.o(.text)
    OS_MsgQFreeAll                           0x08005749   Thumb Code    62  os_msg.o(.text)
    OS_MsgQInit                              0x08005787   Thumb Code    14  os_msg.o(.text)
    OS_MsgQGet                               0x08005795   Thumb Code    98  os_msg.o(.text)
    OS_MsgQPut                               0x080057f7   Thumb Code   246  os_msg.o(.text)
    OS_MutexDbgListAdd                       0x080058f9   Thumb Code    38  os_mutex.o(.text)
    OSMutexCreate                            0x0800591f   Thumb Code   178  os_mutex.o(.text)
    OS_MutexClr                              0x080059d1   Thumb Code    38  os_mutex.o(.text)
    OS_MutexDbgListRemove                    0x080059f7   Thumb Code    44  os_mutex.o(.text)
    OSMutexDel                               0x08005a23   Thumb Code   842  os_mutex.o(.text)
    OSMutexPend                              0x08005d6d   Thumb Code   706  os_mutex.o(.text)
    OSMutexPendAbort                         0x0800602f   Thumb Code   314  os_mutex.o(.text)
    OSMutexPost                              0x08006169   Thumb Code   564  os_mutex.o(.text)
    OS_MutexInit                             0x0800639d   Thumb Code    14  os_mutex.o(.text)
    OS_PrioInit                              0x080063cd   Thumb Code    20  os_prio.o(.text)
    OS_PrioGetHighest                        0x080063e1   Thumb Code    36  os_prio.o(.text)
    OS_PrioInsert                            0x08006405   Thumb Code    32  os_prio.o(.text)
    OS_PrioRemove                            0x08006425   Thumb Code    32  os_prio.o(.text)
    OS_QDbgListAdd                           0x08006449   Thumb Code    38  os_q.o(.text)
    OSQCreate                                0x0800646f   Thumb Code   186  os_q.o(.text)
    OS_QClr                                  0x08006529   Thumb Code    40  os_q.o(.text)
    OS_QDbgListRemove                        0x08006551   Thumb Code    44  os_q.o(.text)
    OSQDel                                   0x0800657d   Thumb Code   362  os_q.o(.text)
    OSQFlush                                 0x080066e7   Thumb Code   210  os_q.o(.text)
    OSQPend                                  0x080067b9   Thumb Code   538  os_q.o(.text)
    OSQPendAbort                             0x080069d3   Thumb Code   292  os_q.o(.text)
    OS_QPost                                 0x08006af7   Thumb Code   324  os_q.o(.text)
    OSQPost                                  0x08006c3b   Thumb Code   198  os_q.o(.text)
    OS_QInit                                 0x08006d01   Thumb Code    14  os_q.o(.text)
    OS_SemDbgListAdd                         0x08006d21   Thumb Code    38  os_sem.o(.text)
    OSSemCreate                              0x08006d47   Thumb Code   172  os_sem.o(.text)
    OS_SemClr                                0x08006df3   Thumb Code    28  os_sem.o(.text)
    OS_SemDbgListRemove                      0x08006e0f   Thumb Code    44  os_sem.o(.text)
    OSSemDel                                 0x08006e3b   Thumb Code   362  os_sem.o(.text)
    OSSemPend                                0x08006fa5   Thumb Code   504  os_sem.o(.text)
    OSSemPendAbort                           0x0800719d   Thumb Code   292  os_sem.o(.text)
    OS_SemPost                               0x080072c1   Thumb Code   350  os_sem.o(.text)
    OSSemPost                                0x0800741f   Thumb Code   144  os_sem.o(.text)
    OSSemSet                                 0x080074af   Thumb Code   138  os_sem.o(.text)
    OS_SemInit                               0x08007539   Thumb Code    14  os_sem.o(.text)
    OSStatReset                              0x08007551   Thumb Code   270  os_stat.o(.text)
    OSStatTaskCPUUsageInit                   0x0800765f   Thumb Code   212  os_stat.o(.text)
    OS_StatTask                              0x08007733   Thumb Code   888  os_stat.o(.text)
    OS_StatTaskInit                          0x08007aab   Thumb Code   138  os_stat.o(.text)
    OSTaskChangePrio                         0x08007b89   Thumb Code   416  os_task.o(.text)
    OS_TaskDbgListAdd                        0x08007d29   Thumb Code    42  os_task.o(.text)
    OS_TaskInitTCB                           0x08007d53   Thumb Code   186  os_task.o(.text)
    OSTaskCreate                             0x08007e0d   Thumb Code   616  os_task.o(.text)
    OS_TaskDbgListRemove                     0x08008075   Thumb Code    64  os_task.o(.text)
    OSTaskDel                                0x080080b5   Thumb Code   424  os_task.o(.text)
    OSTaskQFlush                             0x0800825d   Thumb Code   214  os_task.o(.text)
    OSTaskQPend                              0x08008333   Thumb Code   554  os_task.o(.text)
    OSTaskQPendAbort                         0x0800855d   Thumb Code   242  os_task.o(.text)
    OS_TaskQPost                             0x0800864f   Thumb Code   526  os_task.o(.text)
    OSTaskQPost                              0x0800885d   Thumb Code   114  os_task.o(.text)
    OSTaskRegGet                             0x080088cf   Thumb Code    78  os_task.o(.text)
    OSTaskRegGetID                           0x0800891d   Thumb Code    84  os_task.o(.text)
    OSTaskRegSet                             0x08008971   Thumb Code    78  os_task.o(.text)
    OS_TaskResume                            0x080089bf   Thumb Code   314  os_task.o(.text)
    OSTaskResume                             0x08008af9   Thumb Code   112  os_task.o(.text)
    OSTaskSemPend                            0x08008b69   Thumb Code   550  os_task.o(.text)
    OSTaskSemPendAbort                       0x08008d8f   Thumb Code   270  os_task.o(.text)
    OS_TaskSemPost                           0x08008e9d   Thumb Code  1224  os_task.o(.text)
    OSTaskSemPost                            0x08009365   Thumb Code    98  os_task.o(.text)
    OSTaskSemSet                             0x080093c7   Thumb Code    80  os_task.o(.text)
    OSTaskStkChk                             0x08009417   Thumb Code   224  os_task.o(.text)
    OS_TaskSuspend                           0x080094f7   Thumb Code   328  os_task.o(.text)
    OSTaskSuspend                            0x0800963f   Thumb Code    78  os_task.o(.text)
    OSTaskTimeQuantaSet                      0x0800968d   Thumb Code    96  os_task.o(.text)
    OS_TaskInit                              0x080096ed   Thumb Code    18  os_task.o(.text)
    OS_TaskReturn                            0x080096ff   Thumb Code    20  os_task.o(.text)
    OS_TickListRemove                        0x0800973d   Thumb Code    56  os_tick.o(.text)
    OS_TickListUpdate                        0x08009775   Thumb Code   480  os_tick.o(.text)
    OS_TickTask                              0x08009955   Thumb Code    38  os_tick.o(.text)
    OS_TickListInit                          0x0800997b   Thumb Code    32  os_tick.o(.text)
    OS_TickTaskInit                          0x0800999b   Thumb Code   130  os_tick.o(.text)
    OS_TickListInsert                        0x08009a1d   Thumb Code   502  os_tick.o(.text)
    OS_TickListResetPeak                     0x08009c13   Thumb Code    28  os_tick.o(.text)
    OSTimeDly                                0x08009c39   Thumb Code   266  os_time.o(.text)
    OSTimeDlyHMSM                            0x08009d43   Thumb Code   480  os_time.o(.text)
    OSTimeDlyResume                          0x08009f23   Thumb Code   466  os_time.o(.text)
    OSTimeGet                                0x0800a0f5   Thumb Code    46  os_time.o(.text)
    OSTimeSet                                0x0800a123   Thumb Code    46  os_time.o(.text)
    OSTimeTick                               0x0800a151   Thumb Code    54  os_time.o(.text)
    OS_TmrDbgListAdd                         0x0800a19d   Thumb Code    34  os_tmr.o(.text)
    OSTmrCreate                              0x0800a1bf   Thumb Code   248  os_tmr.o(.text)
    OS_TmrClr                                0x0800a2b7   Thumb Code    36  os_tmr.o(.text)
    OS_TmrUnlink                             0x0800a2db   Thumb Code    72  os_tmr.o(.text)
    OS_TmrDbgListRemove                      0x0800a323   Thumb Code    44  os_tmr.o(.text)
    OSTmrDel                                 0x0800a34f   Thumb Code   176  os_tmr.o(.text)
    OSTmrRemainGet                           0x0800a3ff   Thumb Code   184  os_tmr.o(.text)
    OS_TmrLink                               0x0800a4b7   Thumb Code   196  os_tmr.o(.text)
    OSTmrStart                               0x0800a57b   Thumb Code   210  os_tmr.o(.text)
    OSTmrStateGet                            0x0800a64d   Thumb Code   134  os_tmr.o(.text)
    OSTmrStop                                0x0800a6d3   Thumb Code   232  os_tmr.o(.text)
    OS_TmrTask                               0x0800a7bb   Thumb Code   176  os_tmr.o(.text)
    OS_TmrInit                               0x0800a86b   Thumb Code   208  os_tmr.o(.text)
    OS_TmrResetPeak                          0x0800a93b   Thumb Code    28  os_tmr.o(.text)
    OSIdleTaskHook                           0x0800a9b5   Thumb Code    16  os_cpu_c.o(.text)
    OSInitHook                               0x0800a9c5   Thumb Code    42  os_cpu_c.o(.text)
    OSStatTaskHook                           0x0800a9ef   Thumb Code    16  os_cpu_c.o(.text)
    OSTaskCreateHook                         0x0800a9ff   Thumb Code    20  os_cpu_c.o(.text)
    OSTaskDelHook                            0x0800aa13   Thumb Code    20  os_cpu_c.o(.text)
    OSTaskReturnHook                         0x0800aa27   Thumb Code    20  os_cpu_c.o(.text)
    OSTaskStkInit                            0x0800aa3b   Thumb Code   188  os_cpu_c.o(.text)
    OSTaskSwHook                             0x0800aaf7   Thumb Code   120  os_cpu_c.o(.text)
    OSTimeTickHook                           0x0800ab6f   Thumb Code    16  os_cpu_c.o(.text)
    OS_CPU_SysTickHandler                    0x0800ab7f   Thumb Code    52  os_cpu_c.o(.text)
    OS_CPU_SysTickInit                       0x0800abb3   Thumb Code    44  os_cpu_c.o(.text)
    __use_no_semihosting                     0x0800ac21   Thumb Code     2  use_no_semi_2.o(.text)
    __aeabi_uldivmod                         0x0800ac23   Thumb Code     0  lludivv7m.o(.text)
    _ll_udiv                                 0x0800ac23   Thumb Code   238  lludivv7m.o(.text)
    __2printf                                0x0800ad11   Thumb Code    20  noretval__2printf.o(.text)
    __printf                                 0x0800ad29   Thumb Code   270  __printf_wp.o(.text)
    __use_two_region_memory                  0x0800ae37   Thumb Code     2  heapauxi.o(.text)
    __rt_heap_escrow$2region                 0x0800ae39   Thumb Code     2  heapauxi.o(.text)
    __rt_heap_expand$2region                 0x0800ae3b   Thumb Code     2  heapauxi.o(.text)
    __I$use$semihosting                      0x0800ae3d   Thumb Code     0  use_no_semi.o(.text)
    __use_no_semihosting_swi                 0x0800ae3d   Thumb Code     2  use_no_semi.o(.text)
    __lib_sel_fp_printf                      0x0800ae3f   Thumb Code     2  _printf_fp_dec.o(.text)
    _printf_fp_dec_real                      0x0800aff1   Thumb Code   620  _printf_fp_dec.o(.text)
    _printf_char_file                        0x0800b25d   Thumb Code    32  _printf_char_file.o(.text)
    __rt_locale                              0x0800b281   Thumb Code     8  rt_locale_intlibspace.o(.text)
    _ll_udiv10                               0x0800b289   Thumb Code   138  lludiv10.o(.text)
    _printf_char_common                      0x0800b31f   Thumb Code    32  _printf_char_common.o(.text)
    _printf_fp_infnan                        0x0800b345   Thumb Code   112  _printf_fp_infnan.o(.text)
    _btod_etento                             0x0800b3c5   Thumb Code   224  bigflt0.o(.text)
    ferror                                   0x0800b4a9   Thumb Code     8  ferror.o(.text)
    __user_libspace                          0x0800b4b1   Thumb Code     8  libspace.o(.text)
    __user_perproc_libspace                  0x0800b4b1   Thumb Code     0  libspace.o(.text)
    __user_perthread_libspace                0x0800b4b1   Thumb Code     0  libspace.o(.text)
    __user_setup_stackheap                   0x0800b4b9   Thumb Code    74  sys_stackheap_outer.o(.text)
    exit                                     0x0800b503   Thumb Code    18  exit.o(.text)
    strcmp                                   0x0800b515   Thumb Code   128  strcmpv7m.o(.text)
    _btod_d2e                                0x0800b595   Thumb Code    62  btod.o(CL$$btod_d2e)
    _d2e_denorm_low                          0x0800b5d3   Thumb Code    70  btod.o(CL$$btod_d2e_denorm_low)
    _d2e_norm_op1                            0x0800b619   Thumb Code    96  btod.o(CL$$btod_d2e_norm_op1)
    __btod_div_common                        0x0800b679   Thumb Code   696  btod.o(CL$$btod_div_common)
    _e2e                                     0x0800b9b1   Thumb Code   220  btod.o(CL$$btod_e2e)
    _btod_ediv                               0x0800ba8d   Thumb Code    42  btod.o(CL$$btod_ediv)
    _btod_emul                               0x0800bab7   Thumb Code    42  btod.o(CL$$btod_emul)
    __btod_mult_common                       0x0800bae1   Thumb Code   580  btod.o(CL$$btod_mult_common)
    OSStartHighRdy                           0x0800bd25   Thumb Code     0  os_cpu_a.o(CODE)
    PendSV_Handler                           0x0800bd5b   Thumb Code     0  os_cpu_a.o(CODE)
    __ARM_fpclassify                         0x0800bdbd   Thumb Code    40  fpclassify.o(i.__ARM_fpclassify)
    _is_digit                                0x0800bde5   Thumb Code    14  __printf_wp.o(i._is_digit)
    _get_lc_numeric                          0x0800bdf5   Thumb Code    44  lc_numeric_c.o(locale$$code)
    __fpl_dretinf                            0x0800be21   Thumb Code    12  dretinf.o(x$fpl$dretinf)
    __aeabi_f2d                              0x0800be2d   Thumb Code     0  f2d.o(x$fpl$f2d)
    _f2d                                     0x0800be2d   Thumb Code    86  f2d.o(x$fpl$f2d)
    __aeabi_fadd                             0x0800be85   Thumb Code     0  faddsub_clz.o(x$fpl$fadd)
    _fadd                                    0x0800be85   Thumb Code   196  faddsub_clz.o(x$fpl$fadd)
    __fpl_fnaninf                            0x0800bf49   Thumb Code   140  fnaninf.o(x$fpl$fnaninf)
    __fpl_fretinf                            0x0800bfd5   Thumb Code    10  fretinf.o(x$fpl$fretinf)
    __aeabi_fsub                             0x0800bfe1   Thumb Code     0  faddsub_clz.o(x$fpl$fsub)
    _fsub                                    0x0800bfe1   Thumb Code   234  faddsub_clz.o(x$fpl$fsub)
    _printf_fp_dec                           0x0800c0cb   Thumb Code     4  printf1.o(x$fpl$printf1)
    __I$use$fp                               0x0800c0ce   Number         0  usenofp.o(x$fpl$usenofp)
    CPU_EndiannessTest                       0x0800c1d0   Data           4  cpu_core.o(.constdata)
    OSCfg_IdleTaskStkBasePtr                 0x0800c268   Data           4  os_cfg_app.o(.constdata)
    OSCfg_IdleTaskStkLimit                   0x0800c26c   Data           4  os_cfg_app.o(.constdata)
    OSCfg_IdleTaskStkSize                    0x0800c270   Data           4  os_cfg_app.o(.constdata)
    OSCfg_IdleTaskStkSizeRAM                 0x0800c274   Data           4  os_cfg_app.o(.constdata)
    OSCfg_IntQBasePtr                        0x0800c278   Data           4  os_cfg_app.o(.constdata)
    OSCfg_IntQSize                           0x0800c27c   Data           2  os_cfg_app.o(.constdata)
    OSCfg_IntQSizeRAM                        0x0800c280   Data           4  os_cfg_app.o(.constdata)
    OSCfg_IntQTaskStkBasePtr                 0x0800c284   Data           4  os_cfg_app.o(.constdata)
    OSCfg_IntQTaskStkLimit                   0x0800c288   Data           4  os_cfg_app.o(.constdata)
    OSCfg_IntQTaskStkSize                    0x0800c28c   Data           4  os_cfg_app.o(.constdata)
    OSCfg_IntQTaskStkSizeRAM                 0x0800c290   Data           4  os_cfg_app.o(.constdata)
    OSCfg_ISRStkBasePtr                      0x0800c294   Data           4  os_cfg_app.o(.constdata)
    OSCfg_ISRStkSize                         0x0800c298   Data           4  os_cfg_app.o(.constdata)
    OSCfg_ISRStkSizeRAM                      0x0800c29c   Data           4  os_cfg_app.o(.constdata)
    OSCfg_MsgPoolSize                        0x0800c2a0   Data           2  os_cfg_app.o(.constdata)
    OSCfg_MsgPoolSizeRAM                     0x0800c2a4   Data           4  os_cfg_app.o(.constdata)
    OSCfg_MsgPoolBasePtr                     0x0800c2a8   Data           4  os_cfg_app.o(.constdata)
    OSCfg_StatTaskPrio                       0x0800c2ac   Data           1  os_cfg_app.o(.constdata)
    OSCfg_StatTaskRate_Hz                    0x0800c2b0   Data           4  os_cfg_app.o(.constdata)
    OSCfg_StatTaskStkBasePtr                 0x0800c2b4   Data           4  os_cfg_app.o(.constdata)
    OSCfg_StatTaskStkLimit                   0x0800c2b8   Data           4  os_cfg_app.o(.constdata)
    OSCfg_StatTaskStkSize                    0x0800c2bc   Data           4  os_cfg_app.o(.constdata)
    OSCfg_StatTaskStkSizeRAM                 0x0800c2c0   Data           4  os_cfg_app.o(.constdata)
    OSCfg_StkSizeMin                         0x0800c2c4   Data           4  os_cfg_app.o(.constdata)
    OSCfg_TickRate_Hz                        0x0800c2c8   Data           4  os_cfg_app.o(.constdata)
    OSCfg_TickTaskPrio                       0x0800c2cc   Data           1  os_cfg_app.o(.constdata)
    OSCfg_TickTaskStkBasePtr                 0x0800c2d0   Data           4  os_cfg_app.o(.constdata)
    OSCfg_TickTaskStkLimit                   0x0800c2d4   Data           4  os_cfg_app.o(.constdata)
    OSCfg_TickTaskStkSize                    0x0800c2d8   Data           4  os_cfg_app.o(.constdata)
    OSCfg_TickTaskStkSizeRAM                 0x0800c2dc   Data           4  os_cfg_app.o(.constdata)
    OSCfg_TickWheelSize                      0x0800c2e0   Data           2  os_cfg_app.o(.constdata)
    OSCfg_TickWheelSizeRAM                   0x0800c2e4   Data           4  os_cfg_app.o(.constdata)
    OSCfg_TmrTaskPrio                        0x0800c2e8   Data           1  os_cfg_app.o(.constdata)
    OSCfg_TmrTaskRate_Hz                     0x0800c2ec   Data           4  os_cfg_app.o(.constdata)
    OSCfg_TmrTaskStkBasePtr                  0x0800c2f0   Data           4  os_cfg_app.o(.constdata)
    OSCfg_TmrTaskStkLimit                    0x0800c2f4   Data           4  os_cfg_app.o(.constdata)
    OSCfg_TmrTaskStkSize                     0x0800c2f8   Data           4  os_cfg_app.o(.constdata)
    OSCfg_TmrTaskStkSizeRAM                  0x0800c2fc   Data           4  os_cfg_app.o(.constdata)
    OSCfg_TmrWheelSize                       0x0800c300   Data           2  os_cfg_app.o(.constdata)
    OSCfg_TmrWheelSizeRAM                    0x0800c304   Data           4  os_cfg_app.o(.constdata)
    OSCfg_DataSizeRAM                        0x0800c308   Data           4  os_cfg_app.o(.constdata)
    OSDbg_DbgEn                              0x0800c30c   Data           2  os_dbg.o(.constdata)
    OSDbg_ArgChkEn                           0x0800c30e   Data           1  os_dbg.o(.constdata)
    OSDbg_AppHooksEn                         0x0800c30f   Data           1  os_dbg.o(.constdata)
    OSDbg_EndiannessTest                     0x0800c310   Data           4  os_dbg.o(.constdata)
    OSDbg_CalledFromISRChkEn                 0x0800c314   Data           1  os_dbg.o(.constdata)
    OSDbg_FlagEn                             0x0800c315   Data           1  os_dbg.o(.constdata)
    OSDbg_FlagGrp                            0x0800c318   Data          40  os_dbg.o(.constdata)
    OSDbg_FlagDelEn                          0x0800c340   Data           1  os_dbg.o(.constdata)
    OSDbg_FlagModeClrEn                      0x0800c341   Data           1  os_dbg.o(.constdata)
    OSDbg_FlagPendAbortEn                    0x0800c342   Data           1  os_dbg.o(.constdata)
    OSDbg_FlagGrpSize                        0x0800c344   Data           2  os_dbg.o(.constdata)
    OSDbg_FlagWidth                          0x0800c346   Data           2  os_dbg.o(.constdata)
    OSDbg_IntQ                               0x0800c348   Data           2  os_dbg.o(.constdata)
    OSDbg_ISRPostDeferredEn                  0x0800c34a   Data           1  os_dbg.o(.constdata)
    OSDbg_Mem                                0x0800c34c   Data          32  os_dbg.o(.constdata)
    OSDbg_MemEn                              0x0800c36c   Data           1  os_dbg.o(.constdata)
    OSDbg_MemSize                            0x0800c36e   Data           2  os_dbg.o(.constdata)
    OSDbg_MsgEn                              0x0800c370   Data           1  os_dbg.o(.constdata)
    OSDbg_MsgSize                            0x0800c372   Data           2  os_dbg.o(.constdata)
    OSDbg_MsgPoolSize                        0x0800c374   Data           2  os_dbg.o(.constdata)
    OSDbg_MsgQSize                           0x0800c376   Data           2  os_dbg.o(.constdata)
    OSDbg_Mutex                              0x0800c378   Data          44  os_dbg.o(.constdata)
    OSDbg_MutexEn                            0x0800c3a4   Data           1  os_dbg.o(.constdata)
    OSDbg_MutexDelEn                         0x0800c3a5   Data           1  os_dbg.o(.constdata)
    OSDbg_MutexPendAbortEn                   0x0800c3a6   Data           1  os_dbg.o(.constdata)
    OSDbg_MutexSize                          0x0800c3a8   Data           2  os_dbg.o(.constdata)
    OSDbg_ObjTypeChkEn                       0x0800c3aa   Data           1  os_dbg.o(.constdata)
    OSDbg_PendMultiEn                        0x0800c3ab   Data           1  os_dbg.o(.constdata)
    OSDbg_PendDataSize                       0x0800c3ac   Data           2  os_dbg.o(.constdata)
    OSDbg_PendListSize                       0x0800c3ae   Data           2  os_dbg.o(.constdata)
    OSDbg_PendObjSize                        0x0800c3b0   Data           2  os_dbg.o(.constdata)
    OSDbg_PrioMax                            0x0800c3b2   Data           2  os_dbg.o(.constdata)
    OSDbg_PrioTblSize                        0x0800c3b4   Data           2  os_dbg.o(.constdata)
    OSDbg_PtrSize                            0x0800c3b6   Data           2  os_dbg.o(.constdata)
    OSDbg_Q                                  0x0800c3b8   Data          48  os_dbg.o(.constdata)
    OSDbg_QEn                                0x0800c3e8   Data           1  os_dbg.o(.constdata)
    OSDbg_QDelEn                             0x0800c3e9   Data           1  os_dbg.o(.constdata)
    OSDbg_QFlushEn                           0x0800c3ea   Data           1  os_dbg.o(.constdata)
    OSDbg_QPendAbortEn                       0x0800c3eb   Data           1  os_dbg.o(.constdata)
    OSDbg_QSize                              0x0800c3ec   Data           2  os_dbg.o(.constdata)
    OSDbg_SchedRoundRobinEn                  0x0800c3ee   Data           1  os_dbg.o(.constdata)
    OSDbg_Sem                                0x0800c3f0   Data          40  os_dbg.o(.constdata)
    OSDbg_SemEn                              0x0800c418   Data           1  os_dbg.o(.constdata)
    OSDbg_SemDelEn                           0x0800c419   Data           1  os_dbg.o(.constdata)
    OSDbg_SemPendAbortEn                     0x0800c41a   Data           1  os_dbg.o(.constdata)
    OSDbg_SemSetEn                           0x0800c41b   Data           1  os_dbg.o(.constdata)
    OSDbg_SemSize                            0x0800c41c   Data           2  os_dbg.o(.constdata)
    OSDbg_RdyList                            0x0800c41e   Data           2  os_dbg.o(.constdata)
    OSDbg_RdyListSize                        0x0800c420   Data           4  os_dbg.o(.constdata)
    OSDbg_StkWidth                           0x0800c424   Data           1  os_dbg.o(.constdata)
    OSDbg_StatTaskEn                         0x0800c425   Data           1  os_dbg.o(.constdata)
    OSDbg_StatTaskStkChkEn                   0x0800c426   Data           1  os_dbg.o(.constdata)
    OSDbg_TaskChangePrioEn                   0x0800c427   Data           1  os_dbg.o(.constdata)
    OSDbg_TaskDelEn                          0x0800c428   Data           1  os_dbg.o(.constdata)
    OSDbg_TaskQEn                            0x0800c429   Data           1  os_dbg.o(.constdata)
    OSDbg_TaskQPendAbortEn                   0x0800c42a   Data           1  os_dbg.o(.constdata)
    OSDbg_TaskProfileEn                      0x0800c42b   Data           1  os_dbg.o(.constdata)
    OSDbg_TaskRegTblSize                     0x0800c42c   Data           2  os_dbg.o(.constdata)
    OSDbg_TaskSemPendAbortEn                 0x0800c42e   Data           1  os_dbg.o(.constdata)
    OSDbg_TaskSuspendEn                      0x0800c42f   Data           1  os_dbg.o(.constdata)
    OSDbg_TCBSize                            0x0800c430   Data           2  os_dbg.o(.constdata)
    OSDbg_TickSpokeSize                      0x0800c432   Data           2  os_dbg.o(.constdata)
    OSDbg_TimeDlyHMSMEn                      0x0800c434   Data           1  os_dbg.o(.constdata)
    OSDbg_TimeDlyResumeEn                    0x0800c435   Data           1  os_dbg.o(.constdata)
    OSDbg_TLS_TblSize                        0x0800c436   Data           2  os_dbg.o(.constdata)
    OSDbg_Tmr                                0x0800c438   Data          52  os_dbg.o(.constdata)
    OSDbg_TmrEn                              0x0800c46c   Data           1  os_dbg.o(.constdata)
    OSDbg_TmrDelEn                           0x0800c46d   Data           1  os_dbg.o(.constdata)
    OSDbg_TmrSize                            0x0800c46e   Data           2  os_dbg.o(.constdata)
    OSDbg_TmrSpokeSize                       0x0800c470   Data           2  os_dbg.o(.constdata)
    OSDbg_VersionNbr                         0x0800c472   Data           2  os_dbg.o(.constdata)
    OSDbg_DataSize                           0x0800c474   Data           4  os_dbg.o(.constdata)
    Region$$Table$$Base                      0x0800c50c   Number         0  anon$$obj.o(Region$$Table)
    Region$$Table$$Limit                     0x0800c52c   Number         0  anon$$obj.o(Region$$Table)
    SystemCoreClock                          0x20000004   Data           4  system_stm32f10x.o(.data)
    AHBPrescTable                            0x20000008   Data          16  system_stm32f10x.o(.data)
    __stdout                                 0x2000001c   Data           4  usart.o(.data)
    USART_RX_STA                             0x20000020   Data           2  usart.o(.data)
    CPU_TS_TmrFreq_Hz                        0x20000038   Data           4  cpu_core.o(.data)
    Mem_PoolTbl                              0x2000003c   Data           4  lib_mem.o(.data)
    OSPrioTbl                                0x20000040   Data           8  os_prio.o(.data)
    OS_AppTaskCreateHookPtr                  0x20000048   Data           4  os_var.o(.data)
    OS_AppTaskDelHookPtr                     0x2000004c   Data           4  os_var.o(.data)
    OS_AppTaskReturnHookPtr                  0x20000050   Data           4  os_var.o(.data)
    OS_AppIdleTaskHookPtr                    0x20000054   Data           4  os_var.o(.data)
    OS_AppStatTaskHookPtr                    0x20000058   Data           4  os_var.o(.data)
    OS_AppTaskSwHookPtr                      0x2000005c   Data           4  os_var.o(.data)
    OS_AppTimeTickHookPtr                    0x20000060   Data           4  os_var.o(.data)
    OSIdleTaskCtr                            0x20000064   Data           4  os_var.o(.data)
    OSIntNestingCtr                          0x20000068   Data           1  os_var.o(.data)
    OSRunning                                0x20000069   Data           1  os_var.o(.data)
    OSIntQInPtr                              0x2000006c   Data           4  os_var.o(.data)
    OSIntQOutPtr                             0x20000070   Data           4  os_var.o(.data)
    OSIntQNbrEntries                         0x20000074   Data           2  os_var.o(.data)
    OSIntQNbrEntriesMax                      0x20000076   Data           2  os_var.o(.data)
    OSIntQOvfCtr                             0x20000078   Data           2  os_var.o(.data)
    OSIntQTaskTimeMax                        0x2000007c   Data           4  os_var.o(.data)
    OSFlagDbgListPtr                         0x20000080   Data           4  os_var.o(.data)
    OSFlagQty                                0x20000084   Data           2  os_var.o(.data)
    OSMemDbgListPtr                          0x20000088   Data           4  os_var.o(.data)
    OSMemQty                                 0x2000008c   Data           2  os_var.o(.data)
    OSMutexDbgListPtr                        0x20000090   Data           4  os_var.o(.data)
    OSMutexQty                               0x20000094   Data           2  os_var.o(.data)
    OSPrioCur                                0x20000096   Data           1  os_var.o(.data)
    OSPrioHighRdy                            0x20000097   Data           1  os_var.o(.data)
    OSPrioSaved                              0x20000098   Data           1  os_var.o(.data)
    OSQDbgListPtr                            0x2000009c   Data           4  os_var.o(.data)
    OSQQty                                   0x200000a0   Data           2  os_var.o(.data)
    OSSchedLockTimeBegin                     0x200000a4   Data           4  os_var.o(.data)
    OSSchedLockTimeMax                       0x200000a8   Data           4  os_var.o(.data)
    OSSchedLockTimeMaxCur                    0x200000ac   Data           4  os_var.o(.data)
    OSSchedLockNestingCtr                    0x200000b0   Data           1  os_var.o(.data)
    OSSchedRoundRobinDfltTimeQuanta          0x200000b4   Data           4  os_var.o(.data)
    OSSchedRoundRobinEn                      0x200000b8   Data           1  os_var.o(.data)
    OSSemDbgListPtr                          0x200000bc   Data           4  os_var.o(.data)
    OSSemQty                                 0x200000c0   Data           2  os_var.o(.data)
    OSStatResetFlag                          0x200000c2   Data           1  os_var.o(.data)
    OSStatTaskCPUUsage                       0x200000c4   Data           2  os_var.o(.data)
    OSStatTaskCPUUsageMax                    0x200000c6   Data           2  os_var.o(.data)
    OSStatTaskCtr                            0x200000c8   Data           4  os_var.o(.data)
    OSStatTaskCtrMax                         0x200000cc   Data           4  os_var.o(.data)
    OSStatTaskCtrRun                         0x200000d0   Data           4  os_var.o(.data)
    OSStatTaskRdy                            0x200000d4   Data           1  os_var.o(.data)
    OSStatTaskTimeMax                        0x200000d8   Data           4  os_var.o(.data)
    OSTaskCtxSwCtr                           0x200000dc   Data           4  os_var.o(.data)
    OSTaskDbgListPtr                         0x200000e0   Data           4  os_var.o(.data)
    OSTaskQty                                0x200000e4   Data           2  os_var.o(.data)
    OSTaskRegNextAvailID                     0x200000e6   Data           1  os_var.o(.data)
    OSTickCtr                                0x200000e8   Data           4  os_var.o(.data)
    OSTickTaskTimeMax                        0x200000ec   Data           4  os_var.o(.data)
    OSTmrDbgListPtr                          0x200000f0   Data           4  os_var.o(.data)
    OSTmrQty                                 0x200000f4   Data           2  os_var.o(.data)
    OSTmrTaskTimeMax                         0x200000f8   Data           4  os_var.o(.data)
    OSTmrTickCtr                             0x200000fc   Data           4  os_var.o(.data)
    OSTmrUpdateCnt                           0x20000100   Data           4  os_var.o(.data)
    OSTmrUpdateCtr                           0x20000104   Data           4  os_var.o(.data)
    OSTCBCurPtr                              0x20000108   Data           4  os_var.o(.data)
    OSTCBHighRdyPtr                          0x2000010c   Data           4  os_var.o(.data)
    OS_CPU_ExceptStkBase                     0x20000110   Data           4  os_cpu_c.o(.data)
    StartTaskTCB                             0x20000118   Data         196  main.o(.bss)
    START_TASK_STK                           0x200001dc   Data        2048  main.o(.bss)
    Led0TaskTCB                              0x200009dc   Data         196  main.o(.bss)
    LED0_TASK_STK                            0x20000aa0   Data         512  main.o(.bss)
    Led1TaskTCB                              0x20000ca0   Data         196  main.o(.bss)
    LED1_TASK_STK                            0x20000d64   Data         512  main.o(.bss)
    FloatTaskTCB                             0x20000f64   Data         196  main.o(.bss)
    FLOAT_TASK_STK                           0x20001028   Data         512  main.o(.bss)
    USART_RX_BUF                             0x20001228   Data         200  usart.o(.bss)
    CPU_Name                                 0x200012f0   Data          16  cpu_core.o(.bss)
    Mem_PoolHeap                             0x20001300   Data          72  lib_mem.o(.bss)
    Mem_Heap                                 0x20001348   Data        1024  lib_mem.o(.bss)
    OSCfg_IdleTaskStk                        0x20001748   Data         512  os_cfg_app.o(.bss)
    OSCfg_IntQ                               0x20001948   Data         320  os_cfg_app.o(.bss)
    OSCfg_IntQTaskStk                        0x20001a88   Data         512  os_cfg_app.o(.bss)
    OSCfg_ISRStk                             0x20001c88   Data         512  os_cfg_app.o(.bss)
    OSCfg_MsgPool                            0x20001e88   Data        1600  os_cfg_app.o(.bss)
    OSCfg_StatTaskStk                        0x200024c8   Data         512  os_cfg_app.o(.bss)
    OSCfg_TickTaskStk                        0x200026c8   Data         512  os_cfg_app.o(.bss)
    OSCfg_TickWheel                          0x200028c8   Data         136  os_cfg_app.o(.bss)
    OSCfg_TmrTaskStk                         0x20002950   Data         512  os_cfg_app.o(.bss)
    OSCfg_TmrWheel                           0x20002b50   Data         136  os_cfg_app.o(.bss)
    OSIdleTaskTCB                            0x20002bd8   Data         196  os_var.o(.bss)
    OSIntQTaskTCB                            0x20002c9c   Data         196  os_var.o(.bss)
    OSMsgPool                                0x20002d60   Data          12  os_var.o(.bss)
    OSRdyList                                0x20002d6c   Data         768  os_var.o(.bss)
    OSStatTaskTCB                            0x2000306c   Data         196  os_var.o(.bss)
    OSTickTaskTCB                            0x20003130   Data         196  os_var.o(.bss)
    OSTmrTaskTCB                             0x200031f4   Data         196  os_var.o(.bss)
    __libspace_start                         0x200032b8   Data          96  libspace.o(.bss)
    __temporary_stack_top$libspace           0x20003318   Data           0  libspace.o(.bss)



==============================================================================

Memory Map of the image

  Image Entry point : 0x08000131

  Load Region LR_IROM1 (Base: 0x08000000, Size: 0x0000c65c, Max: 0x00080000, ABSOLUTE)

    Execution Region ER_IROM1 (Exec base: 0x08000000, Load base: 0x08000000, Size: 0x0000c548, Max: 0x00080000, ABSOLUTE)

    Exec Addr    Load Addr    Size         Type   Attr      Idx    E Section Name        Object

    0x08000000   0x08000000   0x00000130   Data   RO          273    RESET               startup_stm32f10x_hd.o
    0x08000130   0x08000130   0x00000008   Code   RO          761  * !!!main             c_w.l(__main.o)
    0x08000138   0x08000138   0x00000034   Code   RO          999    !!!scatter          c_w.l(__scatter.o)
    0x0800016c   0x0800016c   0x0000001a   Code   RO         1001    !!handler_copy      c_w.l(__scatter_copy.o)
    0x08000186   0x08000186   0x00000002   PAD
    0x08000188   0x08000188   0x0000001c   Code   RO         1003    !!handler_zi        c_w.l(__scatter_zi.o)
    0x080001a4   0x080001a4   0x00000000   Code   RO          758    .ARM.Collect$$_printf_percent$$00000000  c_w.l(_printf_percent.o)
    0x080001a4   0x080001a4   0x00000006   Code   RO          757    .ARM.Collect$$_printf_percent$$00000003  c_w.l(_printf_f.o)
    0x080001aa   0x080001aa   0x00000004   Code   RO          784    .ARM.Collect$$_printf_percent$$00000017  c_w.l(_printf_percent_end.o)
    0x080001ae   0x080001ae   0x00000002   Code   RO          876    .ARM.Collect$$libinit$$00000000  c_w.l(libinit.o)
    0x080001b0   0x080001b0   0x00000000   Code   RO          878    .ARM.Collect$$libinit$$00000002  c_w.l(libinit2.o)
    0x080001b0   0x080001b0   0x00000000   Code   RO          880    .ARM.Collect$$libinit$$00000004  c_w.l(libinit2.o)
    0x080001b0   0x080001b0   0x00000000   Code   RO          883    .ARM.Collect$$libinit$$0000000A  c_w.l(libinit2.o)
    0x080001b0   0x080001b0   0x00000000   Code   RO          885    .ARM.Collect$$libinit$$0000000C  c_w.l(libinit2.o)
    0x080001b0   0x080001b0   0x00000000   Code   RO          887    .ARM.Collect$$libinit$$0000000E  c_w.l(libinit2.o)
    0x080001b0   0x080001b0   0x00000006   Code   RO          888    .ARM.Collect$$libinit$$0000000F  c_w.l(libinit2.o)
    0x080001b6   0x080001b6   0x00000000   Code   RO          890    .ARM.Collect$$libinit$$00000011  c_w.l(libinit2.o)
    0x080001b6   0x080001b6   0x00000000   Code   RO          892    .ARM.Collect$$libinit$$00000013  c_w.l(libinit2.o)
    0x080001b6   0x080001b6   0x00000000   Code   RO          894    .ARM.Collect$$libinit$$00000015  c_w.l(libinit2.o)
    0x080001b6   0x080001b6   0x0000000a   Code   RO          895    .ARM.Collect$$libinit$$00000016  c_w.l(libinit2.o)
    0x080001c0   0x080001c0   0x00000000   Code   RO          896    .ARM.Collect$$libinit$$00000017  c_w.l(libinit2.o)
    0x080001c0   0x080001c0   0x00000000   Code   RO          898    .ARM.Collect$$libinit$$00000019  c_w.l(libinit2.o)
    0x080001c0   0x080001c0   0x00000000   Code   RO          900    .ARM.Collect$$libinit$$0000001B  c_w.l(libinit2.o)
    0x080001c0   0x080001c0   0x00000000   Code   RO          902    .ARM.Collect$$libinit$$0000001D  c_w.l(libinit2.o)
    0x080001c0   0x080001c0   0x00000000   Code   RO          904    .ARM.Collect$$libinit$$0000001F  c_w.l(libinit2.o)
    0x080001c0   0x080001c0   0x00000000   Code   RO          906    .ARM.Collect$$libinit$$00000021  c_w.l(libinit2.o)
    0x080001c0   0x080001c0   0x00000000   Code   RO          908    .ARM.Collect$$libinit$$00000023  c_w.l(libinit2.o)
    0x080001c0   0x080001c0   0x00000000   Code   RO          910    .ARM.Collect$$libinit$$00000025  c_w.l(libinit2.o)
    0x080001c0   0x080001c0   0x00000000   Code   RO          914    .ARM.Collect$$libinit$$0000002C  c_w.l(libinit2.o)
    0x080001c0   0x080001c0   0x00000000   Code   RO          916    .ARM.Collect$$libinit$$0000002E  c_w.l(libinit2.o)
    0x080001c0   0x080001c0   0x00000000   Code   RO          918    .ARM.Collect$$libinit$$00000030  c_w.l(libinit2.o)
    0x080001c0   0x080001c0   0x00000000   Code   RO          920    .ARM.Collect$$libinit$$00000032  c_w.l(libinit2.o)
    0x080001c0   0x080001c0   0x00000002   Code   RO          921    .ARM.Collect$$libinit$$00000033  c_w.l(libinit2.o)
    0x080001c2   0x080001c2   0x00000002   Code   RO          963    .ARM.Collect$$libshutdown$$00000000  c_w.l(libshutdown.o)
    0x080001c4   0x080001c4   0x00000000   Code   RO          982    .ARM.Collect$$libshutdown$$00000002  c_w.l(libshutdown2.o)
    0x080001c4   0x080001c4   0x00000000   Code   RO          984    .ARM.Collect$$libshutdown$$00000004  c_w.l(libshutdown2.o)
    0x080001c4   0x080001c4   0x00000000   Code   RO          987    .ARM.Collect$$libshutdown$$00000007  c_w.l(libshutdown2.o)
    0x080001c4   0x080001c4   0x00000000   Code   RO          990    .ARM.Collect$$libshutdown$$0000000A  c_w.l(libshutdown2.o)
    0x080001c4   0x080001c4   0x00000000   Code   RO          992    .ARM.Collect$$libshutdown$$0000000C  c_w.l(libshutdown2.o)
    0x080001c4   0x080001c4   0x00000000   Code   RO          995    .ARM.Collect$$libshutdown$$0000000F  c_w.l(libshutdown2.o)
    0x080001c4   0x080001c4   0x00000002   Code   RO          996    .ARM.Collect$$libshutdown$$00000010  c_w.l(libshutdown2.o)
    0x080001c6   0x080001c6   0x00000000   Code   RO          775    .ARM.Collect$$rtentry$$00000000  c_w.l(__rtentry.o)
    0x080001c6   0x080001c6   0x00000000   Code   RO          793    .ARM.Collect$$rtentry$$00000002  c_w.l(__rtentry2.o)
    0x080001c6   0x080001c6   0x00000006   Code   RO          805    .ARM.Collect$$rtentry$$00000004  c_w.l(__rtentry4.o)
    0x080001cc   0x080001cc   0x00000000   Code   RO          795    .ARM.Collect$$rtentry$$00000009  c_w.l(__rtentry2.o)
    0x080001cc   0x080001cc   0x00000004   Code   RO          796    .ARM.Collect$$rtentry$$0000000A  c_w.l(__rtentry2.o)
    0x080001d0   0x080001d0   0x00000000   Code   RO          798    .ARM.Collect$$rtentry$$0000000C  c_w.l(__rtentry2.o)
    0x080001d0   0x080001d0   0x00000008   Code   RO          799    .ARM.Collect$$rtentry$$0000000D  c_w.l(__rtentry2.o)
    0x080001d8   0x080001d8   0x00000002   Code   RO          922    .ARM.Collect$$rtexit$$00000000  c_w.l(rtexit.o)
    0x080001da   0x080001da   0x00000000   Code   RO          935    .ARM.Collect$$rtexit$$00000002  c_w.l(rtexit2.o)
    0x080001da   0x080001da   0x00000004   Code   RO          936    .ARM.Collect$$rtexit$$00000003  c_w.l(rtexit2.o)
    0x080001de   0x080001de   0x00000006   Code   RO          937    .ARM.Collect$$rtexit$$00000004  c_w.l(rtexit2.o)
    0x080001e4   0x080001e4   0x000003c4   Code   RO            1    .text               main.o
    0x080005a8   0x080005a8   0x00000016   Code   RO          145    .text               stm32f10x_it.o
    0x080005be   0x080005be   0x00000002   PAD
    0x080005c0   0x080005c0   0x000001e0   Code   RO          177    .text               system_stm32f10x.o
    0x080007a0   0x080007a0   0x0000004c   Code   RO          195    .text               led.o
    0x080007ec   0x080007ec   0x0000014c   Code   RO          207    .text               delay.o
    0x08000938   0x08000938   0x00000150   Code   RO          238    .text               usart.o
    0x08000a88   0x08000a88   0x00000040   Code   RO          274    .text               startup_stm32f10x_hd.o
    0x08000ac8   0x08000ac8   0x000000dc   Code   RO          278    .text               misc.o
    0x08000ba4   0x08000ba4   0x0000035c   Code   RO          290    .text               stm32f10x_gpio.o
    0x08000f00   0x08000f00   0x00000408   Code   RO          302    .text               stm32f10x_usart.o
    0x08001308   0x08001308   0x000003a4   Code   RO          314    .text               stm32f10x_rcc.o
    0x080016ac   0x080016ac   0x00000084   Code   RO          328    .text               bsp.o
    0x08001730   0x08001730   0x000002a8   Code   RO          343    .text               cpu_core.o
    0x080019d8   0x080019d8   0x00000034   Code   RO          381    .text               cpu_a.o
    0x08001a0c   0x08001a0c   0x00000256   Code   RO          384    .text               lib_ascii.o
    0x08001c62   0x08001c62   0x00000002   PAD
    0x08001c64   0x08001c64   0x000009c6   Code   RO          417    .text               lib_mem.o
    0x0800262a   0x0800262a   0x00000002   PAD
    0x0800262c   0x0800262c   0x0000092c   Code   RO          436    .text               lib_str.o
    0x08002f58   0x08002f58   0x00000220   Code   RO          453    .text               lib_mem_a.o
    0x08003178   0x08003178   0x000000fc   Code   RO          456    .text               os_cfg_app.o
    0x08003274   0x08003274   0x00000e04   Code   RO          479    .text               os_core.o
    0x08004078   0x08004078   0x000001b0   Code   RO          491    .text               os_dbg.o
    0x08004228   0x08004228   0x00000e28   Code   RO          506    .text               os_flag.o
    0x08005050   0x08005050   0x00000444   Code   RO          518    .text               os_int.o
    0x08005494   0x08005494   0x00000238   Code   RO          530    .text               os_mem.o
    0x080056cc   0x080056cc   0x0000022c   Code   RO          542    .text               os_msg.o
    0x080058f8   0x080058f8   0x00000ad4   Code   RO          554    .text               os_mutex.o
    0x080063cc   0x080063cc   0x0000007c   Code   RO          572    .text               os_prio.o
    0x08006448   0x08006448   0x000008d8   Code   RO          591    .text               os_q.o
    0x08006d20   0x08006d20   0x00000830   Code   RO          603    .text               os_sem.o
    0x08007550   0x08007550   0x00000638   Code   RO          615    .text               os_stat.o
    0x08007b88   0x08007b88   0x00001bb4   Code   RO          627    .text               os_task.o
    0x0800973c   0x0800973c   0x000004fc   Code   RO          639    .text               os_tick.o
    0x08009c38   0x08009c38   0x00000564   Code   RO          651    .text               os_time.o
    0x0800a19c   0x0800a19c   0x00000818   Code   RO          663    .text               os_tmr.o
    0x0800a9b4   0x0800a9b4   0x0000026c   Code   RO          692    .text               os_cpu_c.o
    0x0800ac20   0x0800ac20   0x00000002   Code   RO          727    .text               c_w.l(use_no_semi_2.o)
    0x0800ac22   0x0800ac22   0x000000ee   Code   RO          729    .text               c_w.l(lludivv7m.o)
    0x0800ad10   0x0800ad10   0x00000018   Code   RO          733    .text               c_w.l(noretval__2printf.o)
    0x0800ad28   0x0800ad28   0x0000010e   Code   RO          745    .text               c_w.l(__printf_wp.o)
    0x0800ae36   0x0800ae36   0x00000006   Code   RO          759    .text               c_w.l(heapauxi.o)
    0x0800ae3c   0x0800ae3c   0x00000002   Code   RO          773    .text               c_w.l(use_no_semi.o)
    0x0800ae3e   0x0800ae3e   0x0000041e   Code   RO          780    .text               c_w.l(_printf_fp_dec.o)
    0x0800b25c   0x0800b25c   0x00000024   Code   RO          782    .text               c_w.l(_printf_char_file.o)
    0x0800b280   0x0800b280   0x00000008   Code   RO          812    .text               c_w.l(rt_locale_intlibspace.o)
    0x0800b288   0x0800b288   0x0000008a   Code   RO          814    .text               c_w.l(lludiv10.o)
    0x0800b312   0x0800b312   0x00000002   PAD
    0x0800b314   0x0800b314   0x00000030   Code   RO          816    .text               c_w.l(_printf_char_common.o)
    0x0800b344   0x0800b344   0x00000080   Code   RO          818    .text               c_w.l(_printf_fp_infnan.o)
    0x0800b3c4   0x0800b3c4   0x000000e4   Code   RO          820    .text               c_w.l(bigflt0.o)
    0x0800b4a8   0x0800b4a8   0x00000008   Code   RO          845    .text               c_w.l(ferror.o)
    0x0800b4b0   0x0800b4b0   0x00000008   Code   RO          856    .text               c_w.l(libspace.o)
    0x0800b4b8   0x0800b4b8   0x0000004a   Code   RO          859    .text               c_w.l(sys_stackheap_outer.o)
    0x0800b502   0x0800b502   0x00000012   Code   RO          863    .text               c_w.l(exit.o)
    0x0800b514   0x0800b514   0x00000080   Code   RO          869    .text               c_w.l(strcmpv7m.o)
    0x0800b594   0x0800b594   0x0000003e   Code   RO          823    CL$$btod_d2e        c_w.l(btod.o)
    0x0800b5d2   0x0800b5d2   0x00000046   Code   RO          825    CL$$btod_d2e_denorm_low  c_w.l(btod.o)
    0x0800b618   0x0800b618   0x00000060   Code   RO          824    CL$$btod_d2e_norm_op1  c_w.l(btod.o)
    0x0800b678   0x0800b678   0x00000338   Code   RO          833    CL$$btod_div_common  c_w.l(btod.o)
    0x0800b9b0   0x0800b9b0   0x000000dc   Code   RO          830    CL$$btod_e2e        c_w.l(btod.o)
    0x0800ba8c   0x0800ba8c   0x0000002a   Code   RO          827    CL$$btod_ediv       c_w.l(btod.o)
    0x0800bab6   0x0800bab6   0x0000002a   Code   RO          826    CL$$btod_emul       c_w.l(btod.o)
    0x0800bae0   0x0800bae0   0x00000244   Code   RO          832    CL$$btod_mult_common  c_w.l(btod.o)
    0x0800bd24   0x0800bd24   0x00000098   Code   RO          689    CODE                os_cpu_a.o
    0x0800bdbc   0x0800bdbc   0x00000028   Code   RO          854    i.__ARM_fpclassify  m_ws.l(fpclassify.o)
    0x0800bde4   0x0800bde4   0x0000000e   Code   RO          747    i._is_digit         c_w.l(__printf_wp.o)
    0x0800bdf2   0x0800bdf2   0x00000002   PAD
    0x0800bdf4   0x0800bdf4   0x0000002c   Code   RO          850    locale$$code        c_w.l(lc_numeric_c.o)
    0x0800be20   0x0800be20   0x0000000c   Code   RO          785    x$fpl$dretinf       fz_ws.l(dretinf.o)
    0x0800be2c   0x0800be2c   0x00000056   Code   RO          763    x$fpl$f2d           fz_ws.l(f2d.o)
    0x0800be82   0x0800be82   0x00000002   PAD
    0x0800be84   0x0800be84   0x000000c4   Code   RO          765    x$fpl$fadd          fz_ws.l(faddsub_clz.o)
    0x0800bf48   0x0800bf48   0x0000008c   Code   RO          787    x$fpl$fnaninf       fz_ws.l(fnaninf.o)
    0x0800bfd4   0x0800bfd4   0x0000000a   Code   RO          789    x$fpl$fretinf       fz_ws.l(fretinf.o)
    0x0800bfde   0x0800bfde   0x00000002   PAD
    0x0800bfe0   0x0800bfe0   0x000000ea   Code   RO          767    x$fpl$fsub          fz_ws.l(faddsub_clz.o)
    0x0800c0ca   0x0800c0ca   0x00000004   Code   RO          771    x$fpl$printf1       fz_ws.l(printf1.o)
    0x0800c0ce   0x0800c0ce   0x00000000   Code   RO          791    x$fpl$usenofp       fz_ws.l(usenofp.o)
    0x0800c0ce   0x0800c0ce   0x00000002   PAD
    0x0800c0d0   0x0800c0d0   0x00000104   Data   RO          345    .constdata          cpu_core.o
    0x0800c1d4   0x0800c1d4   0x00000094   Data   RO          437    .constdata          lib_str.o
    0x0800c268   0x0800c268   0x000000a4   Data   RO          458    .constdata          os_cfg_app.o
    0x0800c30c   0x0800c30c   0x0000016c   Data   RO          492    .constdata          os_dbg.o
    0x0800c478   0x0800c478   0x00000094   Data   RO          821    .constdata          c_w.l(bigflt0.o)
    0x0800c50c   0x0800c50c   0x00000020   Data   RO          997    Region$$Table       anon$$obj.o
    0x0800c52c   0x0800c52c   0x0000001c   Data   RO          849    locale$$data        c_w.l(lc_numeric_c.o)


    Execution Region RW_IRAM1 (Exec base: 0x20000000, Load base: 0x0800c548, Size: 0x00003d18, Max: 0x00010000, ABSOLUTE)

    Exec Addr    Load Addr    Size         Type   Attr      Idx    E Section Name        Object

    0x20000000   0x0800c548   0x00000004   Data   RW            3    .data               main.o
    0x20000004   0x0800c54c   0x00000014   Data   RW          178    .data               system_stm32f10x.o
    0x20000018   0x0800c560   0x00000004   Data   RW          208    .data               delay.o
    0x2000001c   0x0800c564   0x00000006   Data   RW          240    .data               usart.o
    0x20000022   0x0800c56a   0x00000014   Data   RW          315    .data               stm32f10x_rcc.o
    0x20000036   0x0800c57e   0x00000002   PAD
    0x20000038   0x0800c580   0x00000004   Data   RW          346    .data               cpu_core.o
    0x2000003c   0x0800c584   0x00000004   Data   RW          419    .data               lib_mem.o
    0x20000040   0x0800c588   0x00000008   Data   RW          573    .data               os_prio.o
    0x20000048   0x0800c590   0x000000c8   Data   RW          676    .data               os_var.o
    0x20000110   0x0800c658   0x00000004   Data   RW          693    .data               os_cpu_c.o
    0x20000114   0x0800c65c   0x00000004   PAD
    0x20000118        -       0x00001110   Zero   RW            2    .bss                main.o
    0x20001228        -       0x000000c8   Zero   RW          239    .bss                usart.o
    0x200012f0        -       0x00000010   Zero   RW          344    .bss                cpu_core.o
    0x20001300        -       0x00000448   Zero   RW          418    .bss                lib_mem.o
    0x20001748        -       0x00001490   Zero   RW          457    .bss                os_cfg_app.o
    0x20002bd8        -       0x000006e0   Zero   RW          675    .bss                os_var.o
    0x200032b8        -       0x00000060   Zero   RW          857    .bss                c_w.l(libspace.o)
    0x20003318        -       0x00000200   Zero   RW          272    HEAP                startup_stm32f10x_hd.o
    0x20003518        -       0x00000800   Zero   RW          271    STACK               startup_stm32f10x_hd.o


==============================================================================

Image component sizes


      Code (inc. data)   RO Data    RW Data    ZI Data      Debug   Object Name

       132         12          0          0          0       1203   bsp.o
        52          0          0          0          0        372   cpu_a.o
       680         14        260          4         16      14663   cpu_core.o
       332         28          0          4          0       1921   delay.o
        76          8          0          0          0        547   led.o
       598          0          0          0          0       3936   lib_ascii.o
      2502         32          0          4       1096      22436   lib_mem.o
       544          0          0          0          0        520   lib_mem_a.o
      2348          6        148          0          0      13950   lib_str.o
       964        140          0          4       4368     275563   main.o
       220         22          0          0          0       1929   misc.o
       252        166        164          0       5264      21122   os_cfg_app.o
      3588        294          0          0          0      12565   os_core.o
       152         32          0          0          0        428   os_cpu_a.o
       620         66          0          4          0       4029   os_cpu_c.o
       432        286        364          0          0       4917   os_dbg.o
      3624        110          0          0          0       8147   os_flag.o
      1092        146          0          0          0       2452   os_int.o
       568         20          0          0          0       2876   os_mem.o
       556         12          0          0          0       2911   os_msg.o
      2772        114          0          0          0       5682   os_mutex.o
       124          4          0          8          0       1912   os_prio.o
      2264         76          0          0          0       6448   os_q.o
      2096         70          0          0          0       6468   os_sem.o
      1592        180          0          0          0       2929   os_stat.o
      7092        270          0          0          0      14294   os_task.o
      1276         90          0          0          0       3401   os_tick.o
      1380         46          0          0          0       3405   os_time.o
      2072        140          0          0          0       6594   os_tmr.o
         0          0          0        200       1760      19469   os_var.o
        64         26        304          0       2560        828   startup_stm32f10x_hd.o
       860         38          0          0          0       5869   stm32f10x_gpio.o
        22          0          0          0          0       1051   stm32f10x_it.o
       932         36          0         20          0       9108   stm32f10x_rcc.o
      1032         22          0          0          0       8588   stm32f10x_usart.o
         0          0          0          0          0         32   sys.o
       480         38          0         20          0       1895   system_stm32f10x.o
       336         18          0          6        200       3362   usart.o

    ----------------------------------------------------------------------
     43732       2562       1272        276      15268     497822   Object Totals
         0          0         32          0          0          0   (incl. Generated)
         6          0          0          2          4          0   (incl. Padding)

    ----------------------------------------------------------------------

      Code (inc. data)   RO Data    RW Data    ZI Data      Debug   Library Member Name

         8          0          0          0          0         68   __main.o
       284          0          0          0          0        156   __printf_wp.o
         0          0          0          0          0          0   __rtentry.o
        12          0          0          0          0          0   __rtentry2.o
         6          0          0          0          0          0   __rtentry4.o
        52          8          0          0          0          0   __scatter.o
        26          0          0          0          0          0   __scatter_copy.o
        28          0          0          0          0          0   __scatter_zi.o
        48          6          0          0          0         96   _printf_char_common.o
        36          4          0          0          0         80   _printf_char_file.o
         6          0          0          0          0          0   _printf_f.o
      1054          0          0          0          0        216   _printf_fp_dec.o
       128         16          0          0          0         84   _printf_fp_infnan.o
         0          0          0          0          0          0   _printf_percent.o
         4          0          0          0          0          0   _printf_percent_end.o
       228          4        148          0          0         96   bigflt0.o
      1936        128          0          0          0        672   btod.o
        18          0          0          0          0         80   exit.o
         8          0          0          0          0         68   ferror.o
         6          0          0          0          0        152   heapauxi.o
        44         10         28          0          0         76   lc_numeric_c.o
         2          0          0          0          0          0   libinit.o
        18          0          0          0          0          0   libinit2.o
         2          0          0          0          0          0   libshutdown.o
         2          0          0          0          0          0   libshutdown2.o
         8          4          0          0         96         68   libspace.o
       138          0          0          0          0         80   lludiv10.o
       238          0          0          0          0        100   lludivv7m.o
        24          4          0          0          0         84   noretval__2printf.o
         8          4          0          0          0         68   rt_locale_intlibspace.o
         2          0          0          0          0          0   rtexit.o
        10          0          0          0          0          0   rtexit2.o
       128          0          0          0          0         68   strcmpv7m.o
        74          0          0          0          0         80   sys_stackheap_outer.o
         2          0          0          0          0         68   use_no_semi.o
         2          0          0          0          0         68   use_no_semi_2.o
        12          0          0          0          0         68   dretinf.o
        86          4          0          0          0         84   f2d.o
       430          8          0          0          0        168   faddsub_clz.o
       140          4          0          0          0         84   fnaninf.o
        10          0          0          0          0         68   fretinf.o
         4          0          0          0          0         68   printf1.o
         0          0          0          0          0          0   usenofp.o
        40          0          0          0          0         68   fpclassify.o

    ----------------------------------------------------------------------
      5324        204        176          0         96       3136   Library Totals
        12          0          0          0          0          0   (incl. Padding)

    ----------------------------------------------------------------------

      Code (inc. data)   RO Data    RW Data    ZI Data      Debug   Library Name

      4590        188        176          0         96       2528   c_w.l
       682         16          0          0          0        540   fz_ws.l
        40          0          0          0          0         68   m_ws.l

    ----------------------------------------------------------------------
      5324        204        176          0         96       3136   Library Totals

    ----------------------------------------------------------------------

==============================================================================


      Code (inc. data)   RO Data    RW Data    ZI Data      Debug   

     49056       2766       1448        276      15364     496066   Grand Totals
     49056       2766       1448        276      15364     496066   ELF Image Totals
     49056       2766       1448        276          0          0   ROM Totals

==============================================================================

    Total RO  Size (Code + RO Data)                50504 (  49.32kB)
    Total RW  Size (RW Data + ZI Data)             15640 (  15.27kB)
    Total ROM Size (Code + RO Data + RW Data)      50780 (  49.59kB)

==============================================================================

