Component: ARM Compiler 5.06 update 6 (build 750) Tool: armlink [4d35ed]

==============================================================================

Section Cross References

    main.o(.text) refers to os_time.o(.text) for OSTimeDlyHMSM
    main.o(.text) refers to cpu_core.o(.text) for CPU_Init
    main.o(.text) refers to os_stat.o(.text) for OSStatTaskCPUUsageInit
    main.o(.text) refers to os_app_hooks.o(.text) for App_OS_SetAllHooks
    main.o(.text) refers to os_core.o(.text) for OSSchedRoundRobinCfg
    main.o(.text) refers to cpu_a.o(.text) for CPU_SR_Save
    main.o(.text) refers to os_task.o(.text) for OSTaskCreate
    main.o(.text) refers to delay.o(.text) for delay_init
    main.o(.text) refers to misc.o(.text) for NVIC_PriorityGroupConfig
    main.o(.text) refers to usart.o(.text) for uart_init
    main.o(.text) refers to led.o(.text) for LED_Init
    main.o(.text) refers to os_var.o(.data) for OSSchedLockNestingCtr
    main.o(.text) refers to main.o(.bss) for LED0_TASK_STK
    system_stm32f10x.o(.text) refers to system_stm32f10x.o(.data) for SystemCoreClock
    led.o(.text) refers to stm32f10x_rcc.o(.text) for RCC_APB2PeriphClockCmd
    led.o(.text) refers to stm32f10x_gpio.o(.text) for GPIO_Init
    delay.o(.text) refers to os_core.o(.text) for OSSchedLock
    delay.o(.text) refers to os_time.o(.text) for OSTimeDly
==============================================================================

Removing Unused input sections from the image.

    Removing sys.o(.emb_text), (6 bytes).
    Removing sys.o(.text), (12 bytes).
    Removing core_cm3.o(.emb_text), (32 bytes).
    Removing cpu_c.o(.text), (1916 bytes).
    Removing lib_math.o(.text), (128 bytes).
    Removing lib_math.o(.data), (4 bytes).

6 unused section(s) (total 2098 bytes) removed from the image.

==============================================================================

Image Symbol Table

    Local Symbols

    Symbol Name                              Value     Ov Type        Size  Object(Section)

    ../clib/angel/boardlib.s                 0x00000000   Number         0  boardshut.o ABSOLUTE
    ../clib/angel/boardlib.s                 0x00000000   Number         0  boardinit3.o ABSOLUTE
    ../clib/angel/boardlib.s                 0x00000000   Number         0  boardinit2.o ABSOLUTE
    ../clib/angel/boardlib.s                 0x00000000   Number         0  boardinit1.o ABSOLUTE
    ../clib/angel/handlers.s                 0x00000000   Number         0  __scatter_zi.o ABSOLUTE
    ../clib/angel/handlers.s                 0x00000000   Number         0  __scatter_copy.o ABSOLUTE
    ../clib/angel/kernel.s                   0x00000000   Number         0  __rtentry4.o ABSOLUTE
    ../clib/angel/kernel.s                   0x00000000   Number         0  __rtentry.o ABSOLUTE
    ../clib/angel/kernel.s                   0x00000000   Number         0  __rtentry2.o ABSOLUTE
    ../clib/angel/kernel.s                   0x00000000   Number         0  rtexit2.o ABSOLUTE
    ../clib/angel/kernel.s                   0x00000000   Number         0  rtexit.o ABSOLUTE
    ../clib/angel/rt.s                       0x00000000   Number         0  rt_raise.o ABSOLUTE
    ../clib/angel/rt.s                       0x00000000   Number         0  rt_div0.o ABSOLUTE
    ../clib/angel/rt.s                       0x00000000   Number         0  aeabi_ldiv0.o ABSOLUTE
    ../clib/angel/rt.s                       0x00000000   Number         0  aeabi_ldiv0_sigfpe.o ABSOLUTE
    ../clib/angel/scatter.s                  0x00000000   Number         0  __scatter.o ABSOLUTE
    ../clib/angel/startup.s                  0x00000000   Number         0  __main.o ABSOLUTE
    ../clib/angel/sys.s                      0x00000000   Number         0  use_no_semi_2.o ABSOLUTE
    ../clib/angel/sys.s                      0x00000000   Number         0  sys_stackheap_outer.o ABSOLUTE
    ../clib/angel/sys.s                      0x00000000   Number         0  use_no_semi.o ABSOLUTE
    ../clib/angel/sys.s                      0x00000000   Number         0  indicate_semi.o ABSOLUTE
    ../clib/angel/sys.s                      0x00000000   Number         0  libspace.o ABSOLUTE
    ../clib/angel/sysapp.c                   0x00000000   Number         0  sys_command.o ABSOLUTE
    ../clib/angel/sysapp.c                   0x00000000   Number         0  sys_wrch.o ABSOLUTE
    ../clib/armsys.c                         0x00000000   Number         0  no_argv.o ABSOLUTE
    ../clib/armsys.c                         0x00000000   Number         0  argv_veneer.o ABSOLUTE
    ../clib/armsys.c                         0x00000000   Number         0  _get_argv_nomalloc.o ABSOLUTE
    ../clib/armsys.c                         0x00000000   Number         0  argv_veneer.o ABSOLUTE
    ../clib/heapalloc.c                      0x00000000   Number         0  hrguard.o ABSOLUTE
    ../clib/heapaux.c                        0x00000000   Number         0  heapauxi.o ABSOLUTE
    ../clib/libinit.s                        0x00000000   Number         0  libshutdown.o ABSOLUTE
    ../clib/libinit.s                        0x00000000   Number         0  libshutdown2.o ABSOLUTE
    ../clib/libinit.s                        0x00000000   Number         0  libinit.o ABSOLUTE
    ../clib/libinit.s                        0x00000000   Number         0  libinit2.o ABSOLUTE
    ../clib/longlong.s                       0x00000000   Number         0  lludivv7m.o ABSOLUTE
    ../clib/printf.c                         0x00000000   Number         0  __printf_nopercent.o ABSOLUTE
    ../clib/printf.c                         0x00000000   Number         0  _printf_char_common.o ABSOLUTE
    ../clib/printf.c                         0x00000000   Number         0  noretval__2printf.o ABSOLUTE
    ../clib/printf.c                         0x00000000   Number         0  _printf_char_file.o ABSOLUTE
    ../clib/printf.c                         0x00000000   Number         0  __2printf.o ABSOLUTE
    ../clib/signal.c                         0x00000000   Number         0  defsig_other.o ABSOLUTE
    ../clib/signal.c                         0x00000000   Number         0  defsig_fpe_inner.o ABSOLUTE
    ../clib/signal.c                         0x00000000   Number         0  defsig_fpe_formal.o ABSOLUTE
    ../clib/signal.c                         0x00000000   Number         0  defsig_abrt_inner.o ABSOLUTE
    ../clib/signal.c                         0x00000000   Number         0  defsig_segv_inner.o ABSOLUTE
    ../clib/signal.c                         0x00000000   Number         0  defsig_rtmem_formal.o ABSOLUTE
    ../clib/signal.c                         0x00000000   Number         0  defsig_exit.o ABSOLUTE
    ../clib/signal.c                         0x00000000   Number         0  __raise.o ABSOLUTE
    ../clib/signal.c                         0x00000000   Number         0  defsig_rtred_inner.o ABSOLUTE
    ../clib/signal.c                         0x00000000   Number         0  defsig_stak_inner.o ABSOLUTE
    ../clib/signal.c                         0x00000000   Number         0  defsig_general.o ABSOLUTE
    ../clib/signal.c                         0x00000000   Number         0  defsig_pvfn_inner.o ABSOLUTE
    ../clib/signal.c                         0x00000000   Number         0  defsig_rtmem_inner.o ABSOLUTE
    ../clib/signal.c                         0x00000000   Number         0  defsig_rtmem_outer.o ABSOLUTE
    ../clib/signal.c                         0x00000000   Number         0  defsig_cppl_inner.o ABSOLUTE
    ../clib/signal.c                         0x00000000   Number         0  defsig_fpe_outer.o ABSOLUTE
    ../clib/signal.s                         0x00000000   Number         0  defsig.o ABSOLUTE
    ../clib/stdio.c                          0x00000000   Number         0  ferror.o ABSOLUTE
    ../clib/stdio.c                          0x00000000   Number         0  ferror_locked.o ABSOLUTE
    ../clib/stdlib.c                         0x00000000   Number         0  exit.o ABSOLUTE
    ../fplib/fpinit.s                        0x00000000   Number         0  fpinit.o ABSOLUTE
    ..\CORE\core_cm3.c                       0x00000000   Number         0  core_cm3.o ABSOLUTE
    ..\CORE\startup_stm32f10x_hd.s           0x00000000   Number         0  startup_stm32f10x_hd.o ABSOLUTE
    ..\FWLIB\STM32F10x_FWLib\src\misc.c      0x00000000   Number         0  misc.o ABSOLUTE
    ..\FWLIB\STM32F10x_FWLib\src\stm32f10x_gpio.c 0x00000000   Number         0  stm32f10x_gpio.o ABSOLUTE
    ..\FWLIB\STM32F10x_FWLib\src\stm32f10x_rcc.c 0x00000000   Number         0  stm32f10x_rcc.o ABSOLUTE
    ..\FWLIB\STM32F10x_FWLib\src\stm32f10x_usart.c 0x00000000   Number         0  stm32f10x_usart.o ABSOLUTE
    ..\HARDWARE\LED\led.c                    0x00000000   Number         0  led.o ABSOLUTE
    ..\SYSTEM\delay\delay.c                  0x00000000   Number         0  delay.o ABSOLUTE
    ..\SYSTEM\sys\sys.c                      0x00000000   Number         0  sys.o ABSOLUTE
    ..\SYSTEM\usart\usart.c                  0x00000000   Number         0  usart.o ABSOLUTE
    ..\UCOSIII\UCOS_BSP\bsp.c                0x00000000   Number         0  bsp.o ABSOLUTE
    ..\UCOSIII\uC-CPU\ARM-Cortex-M3\RealView\cpu_a.asm 0x00000000   Number         0  cpu_a.o ABSOLUTE
    ..\UCOSIII\uC-CPU\ARM-Cortex-M3\RealView\cpu_c.c 0x00000000   Number         0  cpu_c.o ABSOLUTE
    ..\UCOSIII\uC-CPU\cpu_core.c             0x00000000   Number         0  cpu_core.o ABSOLUTE
    ..\UCOSIII\uC-LIB\Ports\ARM-Cortex-M3\RealView\lib_mem_a.asm 0x00000000   Number         0  lib_mem_a.o ABSOLUTE
    ..\UCOSIII\uC-LIB\lib_ascii.c            0x00000000   Number         0  lib_ascii.o ABSOLUTE
    ..\UCOSIII\uC-LIB\lib_math.c             0x00000000   Number         0  lib_math.o ABSOLUTE
    ..\UCOSIII\uC-LIB\lib_mem.c              0x00000000   Number         0  lib_mem.o ABSOLUTE
    ..\UCOSIII\uC-LIB\lib_str.c              0x00000000   Number         0  lib_str.o ABSOLUTE
    ..\UCOSIII\uCOS-III\Ports\ARM-Cortex-M3\Generic\RealView\os_cpu_a.s 0x00000000   Number         0  os_cpu_a.o ABSOLUTE
    ..\UCOSIII\uCOS-III\Ports\ARM-Cortex-M3\Generic\RealView\os_cpu_c.c 0x00000000   Number         0  os_cpu_c.o ABSOLUTE
    ..\UCOSIII\uCOS-III\Source\os_cfg_app.c  0x00000000   Number         0  os_cfg_app.o ABSOLUTE
    ..\UCOSIII\uCOS-III\Source\os_core.c     0x00000000   Number         0  os_core.o ABSOLUTE
    ..\UCOSIII\uCOS-III\Source\os_dbg.c      0x00000000   Number         0  os_dbg.o ABSOLUTE
    ..\UCOSIII\uCOS-III\Source\os_flag.c     0x00000000   Number         0  os_flag.o ABSOLUTE
    ..\UCOSIII\uCOS-III\Source\os_int.c      0x00000000   Number         0  os_int.o ABSOLUTE
    ..\UCOSIII\uCOS-III\Source\os_mem.c      0x00000000   Number         0  os_mem.o ABSOLUTE
    ..\UCOSIII\uCOS-III\Source\os_msg.c      0x00000000   Number         0  os_msg.o ABSOLUTE
    ..\UCOSIII\uCOS-III\Source\os_mutex.c    0x00000000   Number         0  os_mutex.o ABSOLUTE
    ..\UCOSIII\uCOS-III\Source\os_pend_multi.c 0x00000000   Number         0  os_pend_multi.o ABSOLUTE
    ..\UCOSIII\uCOS-III\Source\os_prio.c     0x00000000   Number         0  os_prio.o ABSOLUTE
    ..\UCOSIII\uCOS-III\Source\os_q.c        0x00000000   Number         0  os_q.o ABSOLUTE
    ..\UCOSIII\uCOS-III\Source\os_sem.c      0x00000000   Number         0  os_sem.o ABSOLUTE
    ..\UCOSIII\uCOS-III\Source\os_stat.c     0x00000000   Number         0  os_stat.o ABSOLUTE
    ..\UCOSIII\uCOS-III\Source\os_task.c     0x00000000   Number         0  os_task.o ABSOLUTE
    ..\UCOSIII\uCOS-III\Source\os_tick.c     0x00000000   Number         0  os_tick.o ABSOLUTE
    ..\UCOSIII\uCOS-III\Source\os_time.c     0x00000000   Number         0  os_time.o ABSOLUTE
    ..\UCOSIII\uCOS-III\Source\os_tmr.c      0x00000000   Number         0  os_tmr.o ABSOLUTE
    ..\UCOSIII\uCOS-III\Source\os_var.c      0x00000000   Number         0  os_var.o ABSOLUTE
    ..\UCOSIII\uCOS_CONFIG\os_app_hooks.c    0x00000000   Number         0  os_app_hooks.o ABSOLUTE
    ..\\CORE\\core_cm3.c                     0x00000000   Number         0  core_cm3.o ABSOLUTE
    ..\\SYSTEM\\sys\\sys.c                   0x00000000   Number         0  sys.o ABSOLUTE
    dc.s                                     0x00000000   Number         0  dc.o ABSOLUTE
    main.c                                   0x00000000   Number         0  main.o ABSOLUTE
    stm32f10x_it.c                           0x00000000   Number         0  stm32f10x_it.o ABSOLUTE
    system_stm32f10x.c                       0x00000000   Number         0  system_stm32f10x.o ABSOLUTE
    RESET                                    0x08000000   Section      304  startup_stm32f10x_hd.o(RESET)
    !!!main                                  0x08000130   Section        8  __main.o(!!!main)
    !!!scatter                               0x08000138   Section       52  __scatter.o(!!!scatter)
    !!handler_copy                           0x0800016c   Section       26  __scatter_copy.o(!!handler_copy)
    !!handler_zi                             0x08000188   Section       28  __scatter_zi.o(!!handler_zi)
    .ARM.Collect$$libinit$$00000000          0x080001a4   Section        2  libinit.o(.ARM.Collect$$libinit$$00000000)
    .ARM.Collect$$libinit$$00000002          0x080001a6   Section        0  libinit2.o(.ARM.Collect$$libinit$$00000002)
    .ARM.Collect$$libinit$$00000004          0x080001a6   Section        0  libinit2.o(.ARM.Collect$$libinit$$00000004)
    .ARM.Collect$$libinit$$0000000A          0x080001a6   Section        0  libinit2.o(.ARM.Collect$$libinit$$0000000A)
    .ARM.Collect$$libinit$$0000000C          0x080001a6   Section        0  libinit2.o(.ARM.Collect$$libinit$$0000000C)
    .ARM.Collect$$libinit$$0000000E          0x080001a6   Section        0  libinit2.o(.ARM.Collect$$libinit$$0000000E)
    .ARM.Collect$$libinit$$00000011          0x080001a6   Section        0  libinit2.o(.ARM.Collect$$libinit$$00000011)
    .ARM.Collect$$libinit$$00000013          0x080001a6   Section        0  libinit2.o(.ARM.Collect$$libinit$$00000013)
    .ARM.Collect$$libinit$$00000015          0x080001a6   Section        0  libinit2.o(.ARM.Collect$$libinit$$00000015)
    .ARM.Collect$$libinit$$00000017          0x080001a6   Section        0  libinit2.o(.ARM.Collect$$libinit$$00000017)
    .ARM.Collect$$libinit$$00000019          0x080001a6   Section        0  libinit2.o(.ARM.Collect$$libinit$$00000019)
    .ARM.Collect$$libinit$$0000001B          0x080001a6   Section        0  libinit2.o(.ARM.Collect$$libinit$$0000001B)
    .ARM.Collect$$libinit$$0000001D          0x080001a6   Section        0  libinit2.o(.ARM.Collect$$libinit$$0000001D)
    .ARM.Collect$$libinit$$0000001F          0x080001a6   Section        0  libinit2.o(.ARM.Collect$$libinit$$0000001F)
    .ARM.Collect$$libinit$$00000021          0x080001a6   Section        0  libinit2.o(.ARM.Collect$$libinit$$00000021)
    .ARM.Collect$$libinit$$00000023          0x080001a6   Section        0  libinit2.o(.ARM.Collect$$libinit$$00000023)
    .ARM.Collect$$libinit$$00000025          0x080001a6   Section        0  libinit2.o(.ARM.Collect$$libinit$$00000025)
    .ARM.Collect$$libinit$$0000002C          0x080001a6   Section        0  libinit2.o(.ARM.Collect$$libinit$$0000002C)
    .ARM.Collect$$libinit$$0000002E          0x080001a6   Section        0  libinit2.o(.ARM.Collect$$libinit$$0000002E)
    .ARM.Collect$$libinit$$00000030          0x080001a6   Section        0  libinit2.o(.ARM.Collect$$libinit$$00000030)
    .ARM.Collect$$libinit$$00000032          0x080001a6   Section        0  libinit2.o(.ARM.Collect$$libinit$$00000032)
    .ARM.Collect$$libinit$$00000033          0x080001a6   Section        2  libinit2.o(.ARM.Collect$$libinit$$00000033)
    .ARM.Collect$$libshutdown$$00000000      0x080001a8   Section        2  libshutdown.o(.ARM.Collect$$libshutdown$$00000000)
    .ARM.Collect$$libshutdown$$00000002      0x080001aa   Section        0  libshutdown2.o(.ARM.Collect$$libshutdown$$00000002)
    .ARM.Collect$$libshutdown$$00000004      0x080001aa   Section        0  libshutdown2.o(.ARM.Collect$$libshutdown$$00000004)
    .ARM.Collect$$libshutdown$$00000007      0x080001aa   Section        0  libshutdown2.o(.ARM.Collect$$libshutdown$$00000007)
    .ARM.Collect$$libshutdown$$0000000A      0x080001aa   Section        0  libshutdown2.o(.ARM.Collect$$libshutdown$$0000000A)
    .ARM.Collect$$libshutdown$$0000000C      0x080001aa   Section        0  libshutdown2.o(.ARM.Collect$$libshutdown$$0000000C)
    .ARM.Collect$$libshutdown$$0000000F      0x080001aa   Section        0  libshutdown2.o(.ARM.Collect$$libshutdown$$0000000F)
    .ARM.Collect$$libshutdown$$00000010      0x080001aa   Section        2  libshutdown2.o(.ARM.Collect$$libshutdown$$00000010)
    .ARM.Collect$$rtentry$$00000000          0x080001ac   Section        0  __rtentry.o(.ARM.Collect$$rtentry$$00000000)
    .ARM.Collect$$rtentry$$00000002          0x080001ac   Section        0  __rtentry2.o(.ARM.Collect$$rtentry$$00000002)
    .ARM.Collect$$rtentry$$00000004          0x080001ac   Section        6  __rtentry4.o(.ARM.Collect$$rtentry$$00000004)
    .ARM.Collect$$rtentry$$00000009          0x080001b2   Section        0  __rtentry2.o(.ARM.Collect$$rtentry$$00000009)
    .ARM.Collect$$rtentry$$0000000A          0x080001b2   Section        4  __rtentry2.o(.ARM.Collect$$rtentry$$0000000A)
    .ARM.Collect$$rtentry$$0000000C          0x080001b6   Section        0  __rtentry2.o(.ARM.Collect$$rtentry$$0000000C)
    .ARM.Collect$$rtentry$$0000000D          0x080001b6   Section        8  __rtentry2.o(.ARM.Collect$$rtentry$$0000000D)
    .ARM.Collect$$rtexit$$00000000           0x080001be   Section        2  rtexit.o(.ARM.Collect$$rtexit$$00000000)
    .ARM.Collect$$rtexit$$00000002           0x080001c0   Section        0  rtexit2.o(.ARM.Collect$$rtexit$$00000002)
    .ARM.Collect$$rtexit$$00000003           0x080001c0   Section        4  rtexit2.o(.ARM.Collect$$rtexit$$00000003)
    .ARM.Collect$$rtexit$$00000004           0x080001c4   Section        6  rtexit2.o(.ARM.Collect$$rtexit$$00000004)
    .text                                    0x080001cc   Section        0  main.o(.text)
    .text                                    0x08000478   Section        0  stm32f10x_it.o(.text)
    .text                                    0x08000490   Section        0  system_stm32f10x.o(.text)
    SetSysClockTo72                          0x08000491   Thumb Code   214  system_stm32f10x.o(.text)
    SetSysClock                              0x08000567   Thumb Code     8  system_stm32f10x.o(.text)
    .text                                    0x08000670   Section        0  led.o(.text)
    .text                                    0x080006bc   Section        0  delay.o(.text)
    .text                                    0x08000808   Section        0  usart.o(.text)
    .text                                    0x08000958   Section       64  startup_stm32f10x_hd.o(.text)
    .text                                    0x08000998   Section        0  misc.o(.text)
    .text                                    0x08000a74   Section        0  stm32f10x_gpio.o(.text)
    .text                                    0x08000dd0   Section        0  stm32f10x_usart.o(.text)
    .text                                    0x080011d8   Section        0  stm32f10x_rcc.o(.text)
    .text                                    0x0800157c   Section        0  bsp.o(.text)
    .text                                    0x08001600   Section        0  cpu_core.o(.text)
    CPU_NameInit                             0x0800162b   Thumb Code     8  cpu_core.o(.text)
    CPU_TS_Init                              0x08001633   Thumb Code    14  cpu_core.o(.text)
    .text                                    0x080018a8   Section       52  cpu_a.o(.text)
    .text                                    0x080018dc   Section        0  lib_ascii.o(.text)
    .text                                    0x08001b34   Section        0  lib_mem.o(.text)
    Mem_SegAlloc                             0x08001d4b   Thumb Code    60  lib_mem.o(.text)
    Mem_SegCalcTotSize                       0x08001d87   Thumb Code    60  lib_mem.o(.text)
    .text                                    0x080024fc   Section        0  lib_str.o(.text)
    Str_FmtNbr_Int32                         0x080029b5   Thumb Code   476  lib_str.o(.text)
    Str_ParseNbr_Int32                       0x08002bfd   Thumb Code   446  lib_str.o(.text)
    .text                                    0x08002e28   Section      544  lib_mem_a.o(.text)
    .text                                    0x08003048   Section        0  os_cfg_app.o(.text)
    .text                                    0x08003144   Section        0  os_core.o(.text)
    .text                                    0x08003f48   Section        0  os_dbg.o(.text)
    .text                                    0x080040f8   Section        0  os_flag.o(.text)
    .text                                    0x08004f20   Section        0  os_int.o(.text)
    .text                                    0x08005364   Section        0  os_mem.o(.text)
    .text                                    0x0800559c   Section        0  os_msg.o(.text)
    .text                                    0x080057c8   Section        0  os_mutex.o(.text)
    .text                                    0x0800629c   Section        0  os_prio.o(.text)
    .text                                    0x08006318   Section        0  os_q.o(.text)
    .text                                    0x08006bf0   Section        0  os_sem.o(.text)
    .text                                    0x08007420   Section        0  os_stat.o(.text)
    .text                                    0x08007a58   Section        0  os_task.o(.text)
    .text                                    0x0800960c   Section        0  os_tick.o(.text)
    .text                                    0x08009b08   Section        0  os_time.o(.text)
    .text                                    0x0800a06c   Section        0  os_tmr.o(.text)
    .text                                    0x0800a884   Section        0  os_cpu_c.o(.text)
    .text                                    0x0800aaf0   Section        0  os_app_hooks.o(.text)
    .text                                    0x0800abfc   Section        2  use_no_semi_2.o(.text)
    .text                                    0x0800abfe   Section      238  lludivv7m.o(.text)
    .text                                    0x0800acec   Section        0  noretval__2printf.o(.text)
    .text                                    0x0800ad04   Section        0  heapauxi.o(.text)
    .text                                    0x0800ad0a   Section        2  use_no_semi.o(.text)
    .text                                    0x0800ad0c   Section        0  _printf_char_file.o(.text)
    .text                                    0x0800ad30   Section        0  _printf_char_common.o(.text)
    _printf_input_char                       0x0800ad31   Thumb Code    10  _printf_char_common.o(.text)
    .text                                    0x0800ad60   Section        0  ferror.o(.text)
    .text                                    0x0800ad68   Section       74  sys_stackheap_outer.o(.text)
    .text                                    0x0800adb2   Section        0  __printf_nopercent.o(.text)
    .text                                    0x0800adda   Section        0  exit.o(.text)
    .text                                    0x0800adec   Section        8  libspace.o(.text)
    CODE                                     0x0800adf4   Section      152  os_cpu_a.o(CODE)
    .constdata                               0x0800ae8c   Section      260  cpu_core.o(.constdata)
    CPU_CntLeadZerosTbl                      0x0800ae8c   Data         256  cpu_core.o(.constdata)
    .constdata                               0x0800af90   Section      148  lib_str.o(.constdata)
    Str_MultOvfThTbl_Int32U                  0x0800af90   Data         148  lib_str.o(.constdata)
    .constdata                               0x0800b024   Section      164  os_cfg_app.o(.constdata)
    .constdata                               0x0800b0c8   Section      364  os_dbg.o(.constdata)
    .data                                    0x20000000   Section       20  system_stm32f10x.o(.data)
    .data                                    0x20000014   Section        4  delay.o(.data)
    fac_us                                   0x20000014   Data           1  delay.o(.data)
    fac_ms                                   0x20000016   Data           2  delay.o(.data)
    .data                                    0x20000018   Section        6  usart.o(.data)
    .data                                    0x2000001e   Section       20  stm32f10x_rcc.o(.data)
    APBAHBPrescTable                         0x2000001e   Data          16  stm32f10x_rcc.o(.data)
    ADCPrescTable                            0x2000002e   Data           4  stm32f10x_rcc.o(.data)
    .data                                    0x20000034   Section        4  cpu_core.o(.data)
    .data                                    0x20000038   Section        4  lib_mem.o(.data)
    .data                                    0x2000003c   Section        8  os_prio.o(.data)
    .data                                    0x20000044   Section      200  os_var.o(.data)
    .data                                    0x2000010c   Section        4  os_cpu_c.o(.data)
    .data                                    0x20000110   Section        4  os_app_hooks.o(.data)
    num                                      0x20000110   Data           4  os_app_hooks.o(.data)
    .bss                                     0x20000114   Section     3660  main.o(.bss)
    .bss                                     0x20000f60   Section      200  usart.o(.bss)
    .bss                                     0x20001028   Section       16  cpu_core.o(.bss)
    .bss                                     0x20001038   Section     1096  lib_mem.o(.bss)
    .bss                                     0x20001480   Section     5264  os_cfg_app.o(.bss)
    .bss                                     0x20002910   Section     1760  os_var.o(.bss)
    .bss                                     0x20002ff0   Section       96  libspace.o(.bss)
    HEAP                                     0x20003050   Section      512  startup_stm32f10x_hd.o(HEAP)
    Heap_Mem                                 0x20003050   Data         512  startup_stm32f10x_hd.o(HEAP)
    STACK                                    0x20003250   Section     2048  startup_stm32f10x_hd.o(STACK)
    Stack_Mem                                0x20003250   Data        2048  startup_stm32f10x_hd.o(STACK)
    __initial_sp                             0x20003a50   Data           0  startup_stm32f10x_hd.o(STACK)

    Global Symbols

    Symbol Name                              Value     Ov Type        Size  Object(Section)

    BuildAttributes$$THM_ISAv4$P$D$K$B$S$PE$A:L22UL41UL21$X:L11$S22US41US21$IEEE1$IW$USESV6$~STKCKD$USESV7$~SHL$OSPACE$ROPI$EBA8$UX$STANDARDLIB$REQ8$PRES8$EABIv2 0x00000000   Number         0  anon$$obj.o ABSOLUTE
    __ARM_use_no_argv                        0x00000000   Number         0  main.o ABSOLUTE
    __ARM_exceptions_init                     - Undefined Weak Reference
    __alloca_initialize                       - Undefined Weak Reference
    __arm_preinit_                            - Undefined Weak Reference
    __cpp_initialize__aeabi_                  - Undefined Weak Reference
    __cxa_finalize                            - Undefined Weak Reference
    __rt_locale                               - Undefined Weak Reference
    __sigvec_lookup                           - Undefined Weak Reference
    _atexit_init                              - Undefined Weak Reference
    _call_atexit_fns                          - Undefined Weak Reference
    _clock_init                               - Undefined Weak Reference
    _fp_trap_init                             - Undefined Weak Reference
    _fp_trap_shutdown                         - Undefined Weak Reference
    _get_lc_collate                           - Undefined Weak Reference
    _get_lc_ctype                             - Undefined Weak Reference
    _get_lc_monetary                          - Undefined Weak Reference
    _get_lc_numeric                           - Undefined Weak Reference
    _get_lc_time                              - Undefined Weak Reference
    _getenv_init                              - Undefined Weak Reference
    _handle_redirection                       - Undefined Weak Reference
    _init_alloc                               - Undefined Weak Reference
    _init_user_alloc                          - Undefined Weak Reference
    _initio                                   - Undefined Weak Reference
    _mutex_acquire                            - Undefined Weak Reference
    _mutex_release                            - Undefined Weak Reference
    _rand_init                                - Undefined Weak Reference
    _signal_finish                            - Undefined Weak Reference
    _signal_init                              - Undefined Weak Reference
    _terminate_alloc                          - Undefined Weak Reference
    _terminate_user_alloc                     - Undefined Weak Reference
    _terminateio                              - Undefined Weak Reference
    __Vectors_Size                           0x00000130   Number         0  startup_stm32f10x_hd.o ABSOLUTE
    __Vectors                                0x08000000   Data           4  startup_stm32f10x_hd.o(RESET)
    __Vectors_End                            0x08000130   Data           0  startup_stm32f10x_hd.o(RESET)
    __main                                   0x08000131   Thumb Code     8  __main.o(!!!main)
    __scatterload                            0x08000139   Thumb Code     0  __scatter.o(!!!scatter)
    __scatterload_rt2                        0x08000139   Thumb Code    44  __scatter.o(!!!scatter)
    __scatterload_rt2_thumb_only             0x08000139   Thumb Code     0  __scatter.o(!!!scatter)
    __scatterload_null                       0x08000147   Thumb Code     0  __scatter.o(!!!scatter)
    __scatterload_copy                       0x0800016d   Thumb Code    26  __scatter_copy.o(!!handler_copy)
    __scatterload_zeroinit                   0x08000189   Thumb Code    28  __scatter_zi.o(!!handler_zi)
    __rt_lib_init                            0x080001a5   Thumb Code     0  libinit.o(.ARM.Collect$$libinit$$00000000)
    __rt_lib_init_alloca_1                   0x080001a7   Thumb Code     0  libinit2.o(.ARM.Collect$$libinit$$0000002E)
    __rt_lib_init_argv_1                     0x080001a7   Thumb Code     0  libinit2.o(.ARM.Collect$$libinit$$0000002C)
    __rt_lib_init_atexit_1                   0x080001a7   Thumb Code     0  libinit2.o(.ARM.Collect$$libinit$$0000001B)
    __rt_lib_init_clock_1                    0x080001a7   Thumb Code     0  libinit2.o(.ARM.Collect$$libinit$$00000021)
    __rt_lib_init_cpp_1                      0x080001a7   Thumb Code     0  libinit2.o(.ARM.Collect$$libinit$$00000032)
    __rt_lib_init_exceptions_1               0x080001a7   Thumb Code     0  libinit2.o(.ARM.Collect$$libinit$$00000030)
    __rt_lib_init_fp_1                       0x080001a7   Thumb Code     0  libinit2.o(.ARM.Collect$$libinit$$00000002)
    __rt_lib_init_fp_trap_1                  0x080001a7   Thumb Code     0  libinit2.o(.ARM.Collect$$libinit$$0000001F)
    __rt_lib_init_getenv_1                   0x080001a7   Thumb Code     0  libinit2.o(.ARM.Collect$$libinit$$00000023)
    __rt_lib_init_heap_1                     0x080001a7   Thumb Code     0  libinit2.o(.ARM.Collect$$libinit$$0000000A)
    __rt_lib_init_lc_collate_1               0x080001a7   Thumb Code     0  libinit2.o(.ARM.Collect$$libinit$$00000011)
    __rt_lib_init_lc_ctype_1                 0x080001a7   Thumb Code     0  libinit2.o(.ARM.Collect$$libinit$$00000013)
    __rt_lib_init_lc_monetary_1              0x080001a7   Thumb Code     0  libinit2.o(.ARM.Collect$$libinit$$00000015)
    __rt_lib_init_lc_numeric_1               0x080001a7   Thumb Code     0  libinit2.o(.ARM.Collect$$libinit$$00000017)
    __rt_lib_init_lc_time_1                  0x080001a7   Thumb Code     0  libinit2.o(.ARM.Collect$$libinit$$00000019)
    __rt_lib_init_preinit_1                  0x080001a7   Thumb Code     0  libinit2.o(.ARM.Collect$$libinit$$00000004)
    __rt_lib_init_rand_1                     0x080001a7   Thumb Code     0  libinit2.o(.ARM.Collect$$libinit$$0000000E)
    __rt_lib_init_return                     0x080001a7   Thumb Code     0  libinit2.o(.ARM.Collect$$libinit$$00000033)
    __rt_lib_init_signal_1                   0x080001a7   Thumb Code     0  libinit2.o(.ARM.Collect$$libinit$$0000001D)
    __rt_lib_init_stdio_1                    0x080001a7   Thumb Code     0  libinit2.o(.ARM.Collect$$libinit$$00000025)
    __rt_lib_init_user_alloc_1               0x080001a7   Thumb Code     0  libinit2.o(.ARM.Collect$$libinit$$0000000C)
    __rt_lib_shutdown                        0x080001a9   Thumb Code     0  libshutdown.o(.ARM.Collect$$libshutdown$$00000000)
    __rt_lib_shutdown_cpp_1                  0x080001ab   Thumb Code     0  libshutdown2.o(.ARM.Collect$$libshutdown$$00000002)
    __rt_lib_shutdown_fp_trap_1              0x080001ab   Thumb Code     0  libshutdown2.o(.ARM.Collect$$libshutdown$$00000007)
    __rt_lib_shutdown_heap_1                 0x080001ab   Thumb Code     0  libshutdown2.o(.ARM.Collect$$libshutdown$$0000000F)
    __rt_lib_shutdown_return                 0x080001ab   Thumb Code     0  libshutdown2.o(.ARM.Collect$$libshutdown$$00000010)
    __rt_lib_shutdown_signal_1               0x080001ab   Thumb Code     0  libshutdown2.o(.ARM.Collect$$libshutdown$$0000000A)
    __rt_lib_shutdown_stdio_1                0x080001ab   Thumb Code     0  libshutdown2.o(.ARM.Collect$$libshutdown$$00000004)
    __rt_lib_shutdown_user_alloc_1           0x080001ab   Thumb Code     0  libshutdown2.o(.ARM.Collect$$libshutdown$$0000000C)
    __rt_entry                               0x080001ad   Thumb Code     0  __rtentry.o(.ARM.Collect$$rtentry$$00000000)
    __rt_entry_presh_1                       0x080001ad   Thumb Code     0  __rtentry2.o(.ARM.Collect$$rtentry$$00000002)
    __rt_entry_sh                            0x080001ad   Thumb Code     0  __rtentry4.o(.ARM.Collect$$rtentry$$00000004)
    __rt_entry_li                            0x080001b3   Thumb Code     0  __rtentry2.o(.ARM.Collect$$rtentry$$0000000A)
    __rt_entry_postsh_1                      0x080001b3   Thumb Code     0  __rtentry2.o(.ARM.Collect$$rtentry$$00000009)
    __rt_entry_main                          0x080001b7   Thumb Code     0  __rtentry2.o(.ARM.Collect$$rtentry$$0000000D)
    __rt_entry_postli_1                      0x080001b7   Thumb Code     0  __rtentry2.o(.ARM.Collect$$rtentry$$0000000C)
    __rt_exit                                0x080001bf   Thumb Code     0  rtexit.o(.ARM.Collect$$rtexit$$00000000)
    __rt_exit_ls                             0x080001c1   Thumb Code     0  rtexit2.o(.ARM.Collect$$rtexit$$00000003)
    __rt_exit_prels_1                        0x080001c1   Thumb Code     0  rtexit2.o(.ARM.Collect$$rtexit$$00000002)
    __rt_exit_exit                           0x080001c5   Thumb Code     0  rtexit2.o(.ARM.Collect$$rtexit$$00000004)
    led1_task                                0x080001cd   Thumb Code    40  main.o(.text)
    led0_task                                0x080001f5   Thumb Code    60  main.o(.text)
    start_task                               0x08000231   Thumb Code   274  main.o(.text)
    main                                     0x08000343   Thumb Code   226  main.o(.text)
    NMI_Handler                              0x08000479   Thumb Code     2  stm32f10x_it.o(.text)
    HardFault_Handler                        0x0800047b   Thumb Code     4  stm32f10x_it.o(.text)
    MemManage_Handler                        0x0800047f   Thumb Code     4  stm32f10x_it.o(.text)
    BusFault_Handler                         0x08000483   Thumb Code     4  stm32f10x_it.o(.text)
    UsageFault_Handler                       0x08000487   Thumb Code     4  stm32f10x_it.o(.text)
    SVC_Handler                              0x0800048b   Thumb Code     2  stm32f10x_it.o(.text)
    DebugMon_Handler                         0x0800048d   Thumb Code     2  stm32f10x_it.o(.text)
    SystemInit                               0x0800056f   Thumb Code    78  system_stm32f10x.o(.text)
    SystemCoreClockUpdate                    0x080005bd   Thumb Code   142  system_stm32f10x.o(.text)
    LED_Init                                 0x08000671   Thumb Code    68  led.o(.text)
    delay_osschedlock                        0x080006bd   Thumb Code    10  delay.o(.text)
    delay_osschedunlock                      0x080006c7   Thumb Code    10  delay.o(.text)
    delay_ostimedly                          0x080006d1   Thumb Code    16  delay.o(.text)
    SysTick_Handler                          0x080006e1   Thumb Code    24  delay.o(.text)
    delay_init                               0x080006f9   Thumb Code    92  delay.o(.text)
    delay_us                                 0x08000755   Thumb Code    86  delay.o(.text)
    delay_ms                                 0x080007ab   Thumb Code    66  delay.o(.text)
    _sys_exit                                0x08000809   Thumb Code     6  usart.o(.text)
    fputc                                    0x0800080f   Thumb Code    24  usart.o(.text)
    uart_init                                0x08000827   Thumb Code   158  usart.o(.text)
    USART1_IRQHandler                        0x080008c5   Thumb Code   130  usart.o(.text)
    Reset_Handler                            0x08000959   Thumb Code     8  startup_stm32f10x_hd.o(.text)
    ADC1_2_IRQHandler                        0x08000973   Thumb Code     0  startup_stm32f10x_hd.o(.text)
    ADC3_IRQHandler                          0x08000973   Thumb Code     0  startup_stm32f10x_hd.o(.text)
    CAN1_RX1_IRQHandler                      0x08000973   Thumb Code     0  startup_stm32f10x_hd.o(.text)
    CAN1_SCE_IRQHandler                      0x08000973   Thumb Code     0  startup_stm32f10x_hd.o(.text)
    DMA1_Channel1_IRQHandler                 0x08000973   Thumb Code     0  startup_stm32f10x_hd.o(.text)
    DMA1_Channel2_IRQHandler                 0x08000973   Thumb Code     0  startup_stm32f10x_hd.o(.text)
    DMA1_Channel3_IRQHandler                 0x08000973   Thumb Code     0  startup_stm32f10x_hd.o(.text)
    DMA1_Channel4_IRQHandler                 0x08000973   Thumb Code     0  startup_stm32f10x_hd.o(.text)
    DMA1_Channel5_IRQHandler                 0x08000973   Thumb Code     0  startup_stm32f10x_hd.o(.text)
    DMA1_Channel6_IRQHandler                 0x08000973   Thumb Code     0  startup_stm32f10x_hd.o(.text)
    DMA1_Channel7_IRQHandler                 0x08000973   Thumb Code     0  startup_stm32f10x_hd.o(.text)
    DMA2_Channel1_IRQHandler                 0x08000973   Thumb Code     0  startup_stm32f10x_hd.o(.text)
    DMA2_Channel2_IRQHandler                 0x08000973   Thumb Code     0  startup_stm32f10x_hd.o(.text)
    DMA2_Channel3_IRQHandler                 0x08000973   Thumb Code     0  startup_stm32f10x_hd.o(.text)
    DMA2_Channel4_5_IRQHandler               0x08000973   Thumb Code     0  startup_stm32f10x_hd.o(.text)
    EXTI0_IRQHandler                         0x08000973   Thumb Code     0  startup_stm32f10x_hd.o(.text)
    EXTI15_10_IRQHandler                     0x08000973   Thumb Code     0  startup_stm32f10x_hd.o(.text)
    EXTI1_IRQHandler                         0x08000973   Thumb Code     0  startup_stm32f10x_hd.o(.text)
    EXTI2_IRQHandler                         0x08000973   Thumb Code     0  startup_stm32f10x_hd.o(.text)
    EXTI3_IRQHandler                         0x08000973   Thumb Code     0  startup_stm32f10x_hd.o(.text)
    EXTI4_IRQHandler                         0x08000973   Thumb Code     0  startup_stm32f10x_hd.o(.text)
    EXTI9_5_IRQHandler                       0x08000973   Thumb Code     0  startup_stm32f10x_hd.o(.text)
    FLASH_IRQHandler                         0x08000973   Thumb Code     0  startup_stm32f10x_hd.o(.text)
    FSMC_IRQHandler                          0x08000973   Thumb Code     0  startup_stm32f10x_hd.o(.text)
    I2C1_ER_IRQHandler                       0x08000973   Thumb Code     0  startup_stm32f10x_hd.o(.text)
    I2C1_EV_IRQHandler                       0x08000973   Thumb Code     0  startup_stm32f10x_hd.o(.text)
    I2C2_ER_IRQHandler                       0x08000973   Thumb Code     0  startup_stm32f10x_hd.o(.text)
    I2C2_EV_IRQHandler                       0x08000973   Thumb Code     0  startup_stm32f10x_hd.o(.text)
    PVD_IRQHandler                           0x08000973   Thumb Code     0  startup_stm32f10x_hd.o(.text)
    RCC_IRQHandler                           0x08000973   Thumb Code     0  startup_stm32f10x_hd.o(.text)
    RTCAlarm_IRQHandler                      0x08000973   Thumb Code     0  startup_stm32f10x_hd.o(.text)
    RTC_IRQHandler                           0x08000973   Thumb Code     0  startup_stm32f10x_hd.o(.text)
    SDIO_IRQHandler                          0x08000973   Thumb Code     0  startup_stm32f10x_hd.o(.text)
    SPI1_IRQHandler                          0x08000973   Thumb Code     0  startup_stm32f10x_hd.o(.text)
    SPI2_IRQHandler                          0x08000973   Thumb Code     0  startup_stm32f10x_hd.o(.text)
    SPI3_IRQHandler                          0x08000973   Thumb Code     0  startup_stm32f10x_hd.o(.text)
    TAMPER_IRQHandler                        0x08000973   Thumb Code     0  startup_stm32f10x_hd.o(.text)
    TIM1_BRK_IRQHandler                      0x08000973   Thumb Code     0  startup_stm32f10x_hd.o(.text)
    TIM1_CC_IRQHandler                       0x08000973   Thumb Code     0  startup_stm32f10x_hd.o(.text)
    TIM1_TRG_COM_IRQHandler                  0x08000973   Thumb Code     0  startup_stm32f10x_hd.o(.text)
    TIM1_UP_IRQHandler                       0x08000973   Thumb Code     0  startup_stm32f10x_hd.o(.text)
    TIM2_IRQHandler                          0x08000973   Thumb Code     0  startup_stm32f10x_hd.o(.text)
    TIM3_IRQHandler                          0x08000973   Thumb Code     0  startup_stm32f10x_hd.o(.text)
    TIM4_IRQHandler                          0x08000973   Thumb Code     0  startup_stm32f10x_hd.o(.text)
    TIM5_IRQHandler                          0x08000973   Thumb Code     0  startup_stm32f10x_hd.o(.text)
    TIM6_IRQHandler                          0x08000973   Thumb Code     0  startup_stm32f10x_hd.o(.text)
    TIM7_IRQHandler                          0x08000973   Thumb Code     0  startup_stm32f10x_hd.o(.text)
    TIM8_BRK_IRQHandler                      0x08000973   Thumb Code     0  startup_stm32f10x_hd.o(.text)
    TIM8_CC_IRQHandler                       0x08000973   Thumb Code     0  startup_stm32f10x_hd.o(.text)
    TIM8_TRG_COM_IRQHandler                  0x08000973   Thumb Code     0  startup_stm32f10x_hd.o(.text)
    TIM8_UP_IRQHandler                       0x08000973   Thumb Code     0  startup_stm32f10x_hd.o(.text)
    UART4_IRQHandler                         0x08000973   Thumb Code     0  startup_stm32f10x_hd.o(.text)
    UART5_IRQHandler                         0x08000973   Thumb Code     0  startup_stm32f10x_hd.o(.text)
    USART2_IRQHandler                        0x08000973   Thumb Code     0  startup_stm32f10x_hd.o(.text)
    USART3_IRQHandler                        0x08000973   Thumb Code     0  startup_stm32f10x_hd.o(.text)
    USBWakeUp_IRQHandler                     0x08000973   Thumb Code     0  startup_stm32f10x_hd.o(.text)
    USB_HP_CAN1_TX_IRQHandler                0x08000973   Thumb Code     0  startup_stm32f10x_hd.o(.text)
    USB_LP_CAN1_RX0_IRQHandler               0x08000973   Thumb Code     0  startup_stm32f10x_hd.o(.text)
    WWDG_IRQHandler                          0x08000973   Thumb Code     0  startup_stm32f10x_hd.o(.text)
    __user_initial_stackheap                 0x08000975   Thumb Code     0  startup_stm32f10x_hd.o(.text)
    NVIC_PriorityGroupConfig                 0x08000999   Thumb Code    10  misc.o(.text)
    NVIC_Init                                0x080009a3   Thumb Code   100  misc.o(.text)
    NVIC_SetVectorTable                      0x08000a07   Thumb Code    14  misc.o(.text)
    NVIC_SystemLPConfig                      0x08000a15   Thumb Code    34  misc.o(.text)
    SysTick_CLKSourceConfig                  0x08000a37   Thumb Code    40  misc.o(.text)
    GPIO_DeInit                              0x08000a75   Thumb Code   172  stm32f10x_gpio.o(.text)
    GPIO_AFIODeInit                          0x08000b21   Thumb Code    20  stm32f10x_gpio.o(.text)
    GPIO_Init                                0x08000b35   Thumb Code   278  stm32f10x_gpio.o(.text)
    GPIO_StructInit                          0x08000c4b   Thumb Code    16  stm32f10x_gpio.o(.text)
    GPIO_ReadInputDataBit                    0x08000c5b   Thumb Code    18  stm32f10x_gpio.o(.text)
    GPIO_ReadInputData                       0x08000c6d   Thumb Code     8  stm32f10x_gpio.o(.text)
    GPIO_ReadOutputDataBit                   0x08000c75   Thumb Code    18  stm32f10x_gpio.o(.text)
    GPIO_ReadOutputData                      0x08000c87   Thumb Code     8  stm32f10x_gpio.o(.text)
    GPIO_SetBits                             0x08000c8f   Thumb Code     4  stm32f10x_gpio.o(.text)
    GPIO_ResetBits                           0x08000c93   Thumb Code     4  stm32f10x_gpio.o(.text)
    GPIO_WriteBit                            0x08000c97   Thumb Code    10  stm32f10x_gpio.o(.text)
    GPIO_Write                               0x08000ca1   Thumb Code     4  stm32f10x_gpio.o(.text)
    GPIO_PinLockConfig                       0x08000ca5   Thumb Code    18  stm32f10x_gpio.o(.text)
    GPIO_EventOutputConfig                   0x08000cb7   Thumb Code    26  stm32f10x_gpio.o(.text)
    GPIO_EventOutputCmd                      0x08000cd1   Thumb Code     6  stm32f10x_gpio.o(.text)
    GPIO_PinRemapConfig                      0x08000cd7   Thumb Code   138  stm32f10x_gpio.o(.text)
    GPIO_EXTILineConfig                      0x08000d61   Thumb Code    66  stm32f10x_gpio.o(.text)
    GPIO_ETH_MediaInterfaceConfig            0x08000da3   Thumb Code     8  stm32f10x_gpio.o(.text)
    USART_DeInit                             0x08000dd1   Thumb Code   134  stm32f10x_usart.o(.text)
    USART_Init                               0x08000e57   Thumb Code   210  stm32f10x_usart.o(.text)
    USART_StructInit                         0x08000f29   Thumb Code    24  stm32f10x_usart.o(.text)
    USART_ClockInit                          0x08000f41   Thumb Code    34  stm32f10x_usart.o(.text)
    USART_ClockStructInit                    0x08000f63   Thumb Code    12  stm32f10x_usart.o(.text)
    USART_Cmd                                0x08000f6f   Thumb Code    24  stm32f10x_usart.o(.text)
    USART_ITConfig                           0x08000f87   Thumb Code    74  stm32f10x_usart.o(.text)
    USART_DMACmd                             0x08000fd1   Thumb Code    18  stm32f10x_usart.o(.text)
    USART_SetAddress                         0x08000fe3   Thumb Code    18  stm32f10x_usart.o(.text)
    USART_WakeUpConfig                       0x08000ff5   Thumb Code    18  stm32f10x_usart.o(.text)
    USART_ReceiverWakeUpCmd                  0x08001007   Thumb Code    24  stm32f10x_usart.o(.text)
    USART_LINBreakDetectLengthConfig         0x0800101f   Thumb Code    18  stm32f10x_usart.o(.text)
    USART_LINCmd                             0x08001031   Thumb Code    24  stm32f10x_usart.o(.text)
    USART_SendData                           0x08001049   Thumb Code     8  stm32f10x_usart.o(.text)
    USART_ReceiveData                        0x08001051   Thumb Code    10  stm32f10x_usart.o(.text)
    USART_SendBreak                          0x0800105b   Thumb Code    10  stm32f10x_usart.o(.text)
    USART_SetGuardTime                       0x08001065   Thumb Code    16  stm32f10x_usart.o(.text)
    USART_SetPrescaler                       0x08001075   Thumb Code    16  stm32f10x_usart.o(.text)
    USART_SmartCardCmd                       0x08001085   Thumb Code    24  stm32f10x_usart.o(.text)
    USART_SmartCardNACKCmd                   0x0800109d   Thumb Code    24  stm32f10x_usart.o(.text)
    USART_HalfDuplexCmd                      0x080010b5   Thumb Code    24  stm32f10x_usart.o(.text)
    USART_OverSampling8Cmd                   0x080010cd   Thumb Code    22  stm32f10x_usart.o(.text)
    USART_OneBitMethodCmd                    0x080010e3   Thumb Code    24  stm32f10x_usart.o(.text)
    USART_IrDAConfig                         0x080010fb   Thumb Code    18  stm32f10x_usart.o(.text)
    USART_IrDACmd                            0x0800110d   Thumb Code    24  stm32f10x_usart.o(.text)
    USART_GetFlagStatus                      0x08001125   Thumb Code    26  stm32f10x_usart.o(.text)
    USART_ClearFlag                          0x0800113f   Thumb Code    18  stm32f10x_usart.o(.text)
    USART_GetITStatus                        0x08001151   Thumb Code    84  stm32f10x_usart.o(.text)
    USART_ClearITPendingBit                  0x080011a5   Thumb Code    52  stm32f10x_usart.o(.text)
    RCC_DeInit                               0x080011d9   Thumb Code    64  stm32f10x_rcc.o(.text)
    RCC_HSEConfig                            0x08001219   Thumb Code    70  stm32f10x_rcc.o(.text)
    RCC_GetFlagStatus                        0x0800125f   Thumb Code    56  stm32f10x_rcc.o(.text)
    RCC_WaitForHSEStartUp                    0x08001297   Thumb Code    56  stm32f10x_rcc.o(.text)
    RCC_AdjustHSICalibrationValue            0x080012cf   Thumb Code    20  stm32f10x_rcc.o(.text)
    RCC_HSICmd                               0x080012e3   Thumb Code     6  stm32f10x_rcc.o(.text)
    RCC_PLLConfig                            0x080012e9   Thumb Code    24  stm32f10x_rcc.o(.text)
    RCC_PLLCmd                               0x08001301   Thumb Code     6  stm32f10x_rcc.o(.text)
    RCC_SYSCLKConfig                         0x08001307   Thumb Code    18  stm32f10x_rcc.o(.text)
    RCC_GetSYSCLKSource                      0x08001319   Thumb Code    10  stm32f10x_rcc.o(.text)
    RCC_HCLKConfig                           0x08001323   Thumb Code    18  stm32f10x_rcc.o(.text)
    RCC_PCLK1Config                          0x08001335   Thumb Code    18  stm32f10x_rcc.o(.text)
    RCC_PCLK2Config                          0x08001347   Thumb Code    20  stm32f10x_rcc.o(.text)
    RCC_ITConfig                             0x0800135b   Thumb Code    26  stm32f10x_rcc.o(.text)
    RCC_USBCLKConfig                         0x08001375   Thumb Code     8  stm32f10x_rcc.o(.text)
    RCC_ADCCLKConfig                         0x0800137d   Thumb Code    18  stm32f10x_rcc.o(.text)
    RCC_LSEConfig                            0x0800138f   Thumb Code    50  stm32f10x_rcc.o(.text)
    RCC_LSICmd                               0x080013c1   Thumb Code     6  stm32f10x_rcc.o(.text)
    RCC_RTCCLKConfig                         0x080013c7   Thumb Code    12  stm32f10x_rcc.o(.text)
    RCC_RTCCLKCmd                            0x080013d3   Thumb Code     8  stm32f10x_rcc.o(.text)
    RCC_GetClocksFreq                        0x080013db   Thumb Code   192  stm32f10x_rcc.o(.text)
    RCC_AHBPeriphClockCmd                    0x0800149b   Thumb Code    26  stm32f10x_rcc.o(.text)
    RCC_APB2PeriphClockCmd                   0x080014b5   Thumb Code    26  stm32f10x_rcc.o(.text)
    RCC_APB1PeriphClockCmd                   0x080014cf   Thumb Code    26  stm32f10x_rcc.o(.text)
    RCC_APB2PeriphResetCmd                   0x080014e9   Thumb Code    26  stm32f10x_rcc.o(.text)
    RCC_APB1PeriphResetCmd                   0x08001503   Thumb Code    26  stm32f10x_rcc.o(.text)
    RCC_BackupResetCmd                       0x0800151d   Thumb Code     8  stm32f10x_rcc.o(.text)
    RCC_ClockSecuritySystemCmd               0x08001525   Thumb Code     6  stm32f10x_rcc.o(.text)
    RCC_MCOConfig                            0x0800152b   Thumb Code     6  stm32f10x_rcc.o(.text)
    RCC_ClearFlag                            0x08001531   Thumb Code    14  stm32f10x_rcc.o(.text)
    RCC_GetITStatus                          0x0800153f   Thumb Code    20  stm32f10x_rcc.o(.text)
    RCC_ClearITPendingBit                    0x08001553   Thumb Code     6  stm32f10x_rcc.o(.text)
    BSP_CPU_ClkFreq                          0x0800157d   Thumb Code    16  bsp.o(.text)
    CPU_TS_TmrInit                           0x0800158d   Thumb Code    44  bsp.o(.text)
    CPU_TS_TmrRd                             0x080015b9   Thumb Code     6  bsp.o(.text)
    CPU_TS32_to_uSec                         0x080015bf   Thumb Code    54  bsp.o(.text)
    CPU_NameClr                              0x08001601   Thumb Code    42  cpu_core.o(.text)
    CPU_Init                                 0x08001641   Thumb Code    12  cpu_core.o(.text)
    CPU_SW_Exception                         0x0800164d   Thumb Code     4  cpu_core.o(.text)
    CPU_NameGet                              0x08001651   Thumb Code    70  cpu_core.o(.text)
    CPU_NameSet                              0x08001697   Thumb Code    96  cpu_core.o(.text)
    CPU_TS_Get32                             0x080016f7   Thumb Code    12  cpu_core.o(.text)
    CPU_TS_Update                            0x08001703   Thumb Code     2  cpu_core.o(.text)
    CPU_TS_TmrFreqGet                        0x08001705   Thumb Code    30  cpu_core.o(.text)
    CPU_TS_TmrFreqSet                        0x08001723   Thumb Code     6  cpu_core.o(.text)
    CPU_CntLeadZeros08                       0x08001729   Thumb Code    18  cpu_core.o(.text)
    CPU_CntLeadZeros16                       0x0800173b   Thumb Code    18  cpu_core.o(.text)
    CPU_CntLeadZeros32                       0x0800174d   Thumb Code    18  cpu_core.o(.text)
    CPU_CntLeadZeros64                       0x0800175f   Thumb Code   188  cpu_core.o(.text)
    CPU_CntTrailZeros08                      0x0800181b   Thumb Code    22  cpu_core.o(.text)
    CPU_CntTrailZeros16                      0x08001831   Thumb Code    22  cpu_core.o(.text)
    CPU_CntTrailZeros32                      0x08001847   Thumb Code    22  cpu_core.o(.text)
    CPU_CntTrailZeros64                      0x0800185d   Thumb Code    62  cpu_core.o(.text)
    CPU_IntDis                               0x080018a9   Thumb Code     0  cpu_a.o(.text)
    CPU_IntEn                                0x080018ad   Thumb Code     0  cpu_a.o(.text)
    CPU_SR_Save                              0x080018b1   Thumb Code     0  cpu_a.o(.text)
    CPU_SR_Restore                           0x080018b9   Thumb Code     0  cpu_a.o(.text)
    CPU_WaitForInt                           0x080018bf   Thumb Code     0  cpu_a.o(.text)
    CPU_WaitForExcept                        0x080018c3   Thumb Code     0  cpu_a.o(.text)
    CPU_CntLeadZeros                         0x080018c7   Thumb Code     0  cpu_a.o(.text)
    CPU_CntTrailZeros                        0x080018cd   Thumb Code     0  cpu_a.o(.text)
    CPU_RevBits                              0x080018d7   Thumb Code     0  cpu_a.o(.text)
    ASCII_IsAlpha                            0x080018dd   Thumb Code    48  lib_ascii.o(.text)
    ASCII_IsAlphaNum                         0x0800190d   Thumb Code    76  lib_ascii.o(.text)
    ASCII_IsLower                            0x08001959   Thumb Code    20  lib_ascii.o(.text)
    ASCII_IsUpper                            0x0800196d   Thumb Code    20  lib_ascii.o(.text)
    ASCII_IsDig                              0x08001981   Thumb Code    20  lib_ascii.o(.text)
    ASCII_IsDigOct                           0x08001995   Thumb Code    20  lib_ascii.o(.text)
    ASCII_IsDigHex                           0x080019a9   Thumb Code    36  lib_ascii.o(.text)
    ASCII_IsBlank                            0x080019cd   Thumb Code    20  lib_ascii.o(.text)
    ASCII_IsSpace                            0x080019e1   Thumb Code    36  lib_ascii.o(.text)
    ASCII_IsPrint                            0x08001a05   Thumb Code    20  lib_ascii.o(.text)
    ASCII_IsGraph                            0x08001a19   Thumb Code    20  lib_ascii.o(.text)
    ASCII_IsPunct                            0x08001a2d   Thumb Code   134  lib_ascii.o(.text)
    ASCII_IsCtrl                             0x08001ab3   Thumb Code    26  lib_ascii.o(.text)
    ASCII_ToLower                            0x08001acd   Thumb Code    32  lib_ascii.o(.text)
    ASCII_ToUpper                            0x08001aed   Thumb Code    32  lib_ascii.o(.text)
    ASCII_Cmp                                0x08001b0d   Thumb Code    38  lib_ascii.o(.text)
    Mem_Init                                 0x08001b35   Thumb Code    54  lib_mem.o(.text)
    Mem_Set                                  0x08001b6b   Thumb Code    84  lib_mem.o(.text)
    Mem_Clr                                  0x08001bbf   Thumb Code    18  lib_mem.o(.text)
    Mem_Move                                 0x08001bd1   Thumb Code   186  lib_mem.o(.text)
    Mem_Cmp                                  0x08001c8b   Thumb Code   192  lib_mem.o(.text)
    Mem_HeapAlloc                            0x08001dc3   Thumb Code   168  lib_mem.o(.text)
    Mem_SegGetSizeRem                        0x08001e6b   Thumb Code   108  lib_mem.o(.text)
    Mem_HeapGetSizeRem                       0x08001ed7   Thumb Code    22  lib_mem.o(.text)
    Mem_PoolClr                              0x08001eed   Thumb Code    80  lib_mem.o(.text)
    Mem_PoolCreate                           0x08001f3d   Thumb Code   838  lib_mem.o(.text)
    Mem_PoolBlkGetNbrAvail                   0x08002283   Thumb Code    52  lib_mem.o(.text)
    Mem_PoolBlkGet                           0x080022b7   Thumb Code   126  lib_mem.o(.text)
    Mem_PoolBlkGetUsedAtIx                   0x08002335   Thumb Code   140  lib_mem.o(.text)
    Mem_PoolBlkFree                          0x080023c1   Thumb Code   152  lib_mem.o(.text)
    Mem_PoolBlkIxGet                         0x08002459   Thumb Code   162  lib_mem.o(.text)
    Str_Len_N                                0x080024fd   Thumb Code    28  lib_str.o(.text)
    Str_Len                                  0x08002519   Thumb Code    20  lib_str.o(.text)
    Str_Copy_N                               0x0800252d   Thumb Code    70  lib_str.o(.text)
    Str_Copy                                 0x08002573   Thumb Code    24  lib_str.o(.text)
    Str_Cat_N                                0x0800258b   Thumb Code    90  lib_str.o(.text)
    Str_Cat                                  0x080025e5   Thumb Code    24  lib_str.o(.text)
    Str_Cmp_N                                0x080025fd   Thumb Code   156  lib_str.o(.text)
    Str_Cmp                                  0x08002699   Thumb Code    24  lib_str.o(.text)
    Str_CmpIgnoreCase_N                      0x080026b1   Thumb Code   264  lib_str.o(.text)
    Str_CmpIgnoreCase                        0x080027b9   Thumb Code    24  lib_str.o(.text)
    Str_Char_N                               0x080027d1   Thumb Code    74  lib_str.o(.text)
    Str_Char                                 0x0800281b   Thumb Code    24  lib_str.o(.text)
    Str_Char_Last_N                          0x08002833   Thumb Code    76  lib_str.o(.text)
    Str_Char_Last                            0x0800287f   Thumb Code    24  lib_str.o(.text)
    Str_Char_Replace_N                       0x08002897   Thumb Code    52  lib_str.o(.text)
    Str_Char_Replace                         0x080028cb   Thumb Code    28  lib_str.o(.text)
    Str_Str_N                                0x080028e7   Thumb Code   182  lib_str.o(.text)
    Str_Str                                  0x0800299d   Thumb Code    24  lib_str.o(.text)
    Str_FmtNbr_Int32U                        0x08002b91   Thumb Code    46  lib_str.o(.text)
    Str_FmtNbr_Int32S                        0x08002bbf   Thumb Code    62  lib_str.o(.text)
    Str_ParseNbr_Int32U                      0x08002dbb   Thumb Code    30  lib_str.o(.text)
    Str_ParseNbr_Int32S                      0x08002dd9   Thumb Code    74  lib_str.o(.text)
    Mem_Copy                                 0x08002e29   Thumb Code     0  lib_mem_a.o(.text)
    OSCfg_Init                               0x08003049   Thumb Code    86  os_cfg_app.o(.text)
    OS_IdleTask                              0x08003145   Thumb Code    60  os_core.o(.text)
    OS_IdleTaskInit                          0x08003181   Thumb Code    68  os_core.o(.text)
    OS_RdyListInit                           0x080031c5   Thumb Code    32  os_core.o(.text)
    OSInit                                   0x080031e5   Thumb Code   300  os_core.o(.text)
    OSIntEnter                               0x08003311   Thumb Code    34  os_core.o(.text)
    OSIntExit                                0x08003333   Thumb Code   192  os_core.o(.text)
    OSSched                                  0x080033f3   Thumb Code   134  os_core.o(.text)
    OS_SchedLockTimeMeasStart                0x08003479   Thumb Code    20  os_core.o(.text)
    OSSchedLock                              0x0800348d   Thumb Code   104  os_core.o(.text)
    OS_SchedLockTimeMeasStop                 0x080034f5   Thumb Code    44  os_core.o(.text)
    OSSchedUnlock                            0x08003521   Thumb Code   290  os_core.o(.text)
    OSSchedRoundRobinCfg                     0x08003643   Thumb Code    88  os_core.o(.text)
    OS_RdyListMoveHeadToTail                 0x0800369b   Thumb Code    68  os_core.o(.text)
    OSSchedRoundRobinYield                   0x080036df   Thumb Code   164  os_core.o(.text)
    OSStart                                  0x08003783   Thumb Code    78  os_core.o(.text)
    OSVersion                                0x080037d1   Thumb Code    12  os_core.o(.text)
    OS_PendDbgNameAdd                        0x080037dd   Thumb Code    66  os_core.o(.text)
    OS_PendListInsertPrio                    0x0800381f   Thumb Code   102  os_core.o(.text)
    OS_PendDataInit                          0x08003885   Thumb Code    38  os_core.o(.text)
    OS_RdyListRemove                         0x080038ab   Thumb Code    86  os_core.o(.text)
    OS_TaskBlock                             0x08003901   Thumb Code    56  os_core.o(.text)
    OS_Pend                                  0x08003939   Thumb Code    98  os_core.o(.text)
    OS_PendListRemove1                       0x0800399b   Thumb Code   134  os_core.o(.text)
    OS_PendListRemove                        0x08003a21   Thumb Code    48  os_core.o(.text)
    OS_PendAbort1                            0x08003a51   Thumb Code    36  os_core.o(.text)
    OS_RdyListInsertHead                     0x08003a75   Thumb Code    58  os_core.o(.text)
    OS_RdyListInsertTail                     0x08003aaf   Thumb Code    56  os_core.o(.text)
    OS_RdyListInsert                         0x08003ae7   Thumb Code    40  os_core.o(.text)
    OS_TaskRdy                               0x08003b0f   Thumb Code    28  os_core.o(.text)
    OS_PendAbort                             0x08003b2b   Thumb Code   166  os_core.o(.text)
    OS_PendDbgNameRemove                     0x08003bd1   Thumb Code    34  os_core.o(.text)
    OS_PendListChangePrio                    0x08003bf3   Thumb Code    70  os_core.o(.text)
    OS_PendListInit                          0x08003c39   Thumb Code    10  os_core.o(.text)
    OS_PendListInsertHead                    0x08003c43   Thumb Code    32  os_core.o(.text)
    OS_PendObjDel1                           0x08003c63   Thumb Code    36  os_core.o(.text)
    OS_PendObjDel                            0x08003c87   Thumb Code   162  os_core.o(.text)
    OS_Post1                                 0x08003d29   Thumb Code    42  os_core.o(.text)
    OS_Post                                  0x08003d53   Thumb Code   192  os_core.o(.text)
    OS_Sched0                                0x08003e13   Thumb Code   102  os_core.o(.text)
    OS_SchedRoundRobin                       0x08003e79   Thumb Code   190  os_core.o(.text)
    OS_Dbg_Init                              0x08003f49   Thumb Code   146  os_dbg.o(.text)
    OS_FlagDbgListAdd                        0x080040f9   Thumb Code    38  os_flag.o(.text)
    OSFlagCreate                             0x0800411f   Thumb Code   172  os_flag.o(.text)
    OS_FlagClr                               0x080041cb   Thumb Code    28  os_flag.o(.text)
    OS_FlagDbgListRemove                     0x080041e7   Thumb Code    44  os_flag.o(.text)
    OSFlagDel                                0x08004213   Thumb Code   594  os_flag.o(.text)
    OS_FlagBlock                             0x08004465   Thumb Code    58  os_flag.o(.text)
    OSFlagPend                               0x0800449f   Thumb Code  1488  os_flag.o(.text)
    OSFlagPendAbort                          0x08004a6f   Thumb Code   292  os_flag.o(.text)
    OSFlagPendGetFlagsRdy                    0x08004b93   Thumb Code    68  os_flag.o(.text)
    OS_FlagTaskRdy                           0x08004bd7   Thumb Code    86  os_flag.o(.text)
    OS_FlagPost                              0x08004c2d   Thumb Code   570  os_flag.o(.text)
    OSFlagPost                               0x08004e67   Thumb Code   146  os_flag.o(.text)
    OS_FlagInit                              0x08004ef9   Thumb Code    14  os_flag.o(.text)
    OS_IntQPost                              0x08004f21   Thumb Code   216  os_int.o(.text)
    OS_IntQRePost                            0x08004ff9   Thumb Code   360  os_int.o(.text)
    OS_IntQTask                              0x08005161   Thumb Code   162  os_int.o(.text)
    OS_IntQTaskInit                          0x08005203   Thumb Code   208  os_int.o(.text)
    OS_MemDbgListAdd                         0x08005365   Thumb Code    34  os_mem.o(.text)
    OSMemCreate                              0x08005387   Thumb Code   288  os_mem.o(.text)
    OSMemGet                                 0x080054a7   Thumb Code   100  os_mem.o(.text)
    OSMemPut                                 0x0800550b   Thumb Code   112  os_mem.o(.text)
    OS_MemInit                               0x0800557b   Thumb Code    14  os_mem.o(.text)
    OS_MsgPoolCreate                         0x0800559d   Thumb Code    54  os_msg.o(.text)
    OS_MsgPoolInit                           0x080055d3   Thumb Code    70  os_msg.o(.text)
    OS_MsgQFreeAll                           0x08005619   Thumb Code    62  os_msg.o(.text)
    OS_MsgQInit                              0x08005657   Thumb Code    14  os_msg.o(.text)
    OS_MsgQGet                               0x08005665   Thumb Code    98  os_msg.o(.text)
    OS_MsgQPut                               0x080056c7   Thumb Code   246  os_msg.o(.text)
    OS_MutexDbgListAdd                       0x080057c9   Thumb Code    38  os_mutex.o(.text)
    OSMutexCreate                            0x080057ef   Thumb Code   178  os_mutex.o(.text)
    OS_MutexClr                              0x080058a1   Thumb Code    38  os_mutex.o(.text)
    OS_MutexDbgListRemove                    0x080058c7   Thumb Code    44  os_mutex.o(.text)
    OSMutexDel                               0x080058f3   Thumb Code   842  os_mutex.o(.text)
    OSMutexPend                              0x08005c3d   Thumb Code   706  os_mutex.o(.text)
    OSMutexPendAbort                         0x08005eff   Thumb Code   314  os_mutex.o(.text)
    OSMutexPost                              0x08006039   Thumb Code   564  os_mutex.o(.text)
    OS_MutexInit                             0x0800626d   Thumb Code    14  os_mutex.o(.text)
    OS_PrioInit                              0x0800629d   Thumb Code    20  os_prio.o(.text)
    OS_PrioGetHighest                        0x080062b1   Thumb Code    36  os_prio.o(.text)
    OS_PrioInsert                            0x080062d5   Thumb Code    32  os_prio.o(.text)
    OS_PrioRemove                            0x080062f5   Thumb Code    32  os_prio.o(.text)
    OS_QDbgListAdd                           0x08006319   Thumb Code    38  os_q.o(.text)
    OSQCreate                                0x0800633f   Thumb Code   186  os_q.o(.text)
    OS_QClr                                  0x080063f9   Thumb Code    40  os_q.o(.text)
    OS_QDbgListRemove                        0x08006421   Thumb Code    44  os_q.o(.text)
    OSQDel                                   0x0800644d   Thumb Code   362  os_q.o(.text)
    OSQFlush                                 0x080065b7   Thumb Code   210  os_q.o(.text)
    OSQPend                                  0x08006689   Thumb Code   538  os_q.o(.text)
    OSQPendAbort                             0x080068a3   Thumb Code   292  os_q.o(.text)
    OS_QPost                                 0x080069c7   Thumb Code   324  os_q.o(.text)
    OSQPost                                  0x08006b0b   Thumb Code   198  os_q.o(.text)
    OS_QInit                                 0x08006bd1   Thumb Code    14  os_q.o(.text)
    OS_SemDbgListAdd                         0x08006bf1   Thumb Code    38  os_sem.o(.text)
    OSSemCreate                              0x08006c17   Thumb Code   172  os_sem.o(.text)
    OS_SemClr                                0x08006cc3   Thumb Code    28  os_sem.o(.text)
    OS_SemDbgListRemove                      0x08006cdf   Thumb Code    44  os_sem.o(.text)
    OSSemDel                                 0x08006d0b   Thumb Code   362  os_sem.o(.text)
    OSSemPend                                0x08006e75   Thumb Code   504  os_sem.o(.text)
    OSSemPendAbort                           0x0800706d   Thumb Code   292  os_sem.o(.text)
    OS_SemPost                               0x08007191   Thumb Code   350  os_sem.o(.text)
    OSSemPost                                0x080072ef   Thumb Code   144  os_sem.o(.text)
    OSSemSet                                 0x0800737f   Thumb Code   138  os_sem.o(.text)
    OS_SemInit                               0x08007409   Thumb Code    14  os_sem.o(.text)
    OSStatReset                              0x08007421   Thumb Code   270  os_stat.o(.text)
    OSStatTaskCPUUsageInit                   0x0800752f   Thumb Code   212  os_stat.o(.text)
    OS_StatTask                              0x08007603   Thumb Code   888  os_stat.o(.text)
    OS_StatTaskInit                          0x0800797b   Thumb Code   138  os_stat.o(.text)
    OSTaskChangePrio                         0x08007a59   Thumb Code   416  os_task.o(.text)
    OS_TaskDbgListAdd                        0x08007bf9   Thumb Code    42  os_task.o(.text)
    OS_TaskInitTCB                           0x08007c23   Thumb Code   186  os_task.o(.text)
    OSTaskCreate                             0x08007cdd   Thumb Code   616  os_task.o(.text)
    OS_TaskDbgListRemove                     0x08007f45   Thumb Code    64  os_task.o(.text)
    OSTaskDel                                0x08007f85   Thumb Code   424  os_task.o(.text)
    OSTaskQFlush                             0x0800812d   Thumb Code   214  os_task.o(.text)
    OSTaskQPend                              0x08008203   Thumb Code   554  os_task.o(.text)
    OSTaskQPendAbort                         0x0800842d   Thumb Code   242  os_task.o(.text)
    OS_TaskQPost                             0x0800851f   Thumb Code   526  os_task.o(.text)
    OSTaskQPost                              0x0800872d   Thumb Code   114  os_task.o(.text)
    OSTaskRegGet                             0x0800879f   Thumb Code    78  os_task.o(.text)
    OSTaskRegGetID                           0x080087ed   Thumb Code    84  os_task.o(.text)
    OSTaskRegSet                             0x08008841   Thumb Code    78  os_task.o(.text)
    OS_TaskResume                            0x0800888f   Thumb Code   314  os_task.o(.text)
    OSTaskResume                             0x080089c9   Thumb Code   112  os_task.o(.text)
    OSTaskSemPend                            0x08008a39   Thumb Code   550  os_task.o(.text)
    OSTaskSemPendAbort                       0x08008c5f   Thumb Code   270  os_task.o(.text)
    OS_TaskSemPost                           0x08008d6d   Thumb Code  1224  os_task.o(.text)
    OSTaskSemPost                            0x08009235   Thumb Code    98  os_task.o(.text)
    OSTaskSemSet                             0x08009297   Thumb Code    80  os_task.o(.text)
    OSTaskStkChk                             0x080092e7   Thumb Code   224  os_task.o(.text)
    OS_TaskSuspend                           0x080093c7   Thumb Code   328  os_task.o(.text)
    OSTaskSuspend                            0x0800950f   Thumb Code    78  os_task.o(.text)
    OSTaskTimeQuantaSet                      0x0800955d   Thumb Code    96  os_task.o(.text)
    OS_TaskInit                              0x080095bd   Thumb Code    18  os_task.o(.text)
    OS_TaskReturn                            0x080095cf   Thumb Code    20  os_task.o(.text)
    OS_TickListRemove                        0x0800960d   Thumb Code    56  os_tick.o(.text)
    OS_TickListUpdate                        0x08009645   Thumb Code   480  os_tick.o(.text)
    OS_TickTask                              0x08009825   Thumb Code    38  os_tick.o(.text)
    OS_TickListInit                          0x0800984b   Thumb Code    32  os_tick.o(.text)
    OS_TickTaskInit                          0x0800986b   Thumb Code   130  os_tick.o(.text)
    OS_TickListInsert                        0x080098ed   Thumb Code   502  os_tick.o(.text)
    OS_TickListResetPeak                     0x08009ae3   Thumb Code    28  os_tick.o(.text)
    OSTimeDly                                0x08009b09   Thumb Code   266  os_time.o(.text)
    OSTimeDlyHMSM                            0x08009c13   Thumb Code   480  os_time.o(.text)
    OSTimeDlyResume                          0x08009df3   Thumb Code   466  os_time.o(.text)
    OSTimeGet                                0x08009fc5   Thumb Code    46  os_time.o(.text)
    OSTimeSet                                0x08009ff3   Thumb Code    46  os_time.o(.text)
    OSTimeTick                               0x0800a021   Thumb Code    54  os_time.o(.text)
    OS_TmrDbgListAdd                         0x0800a06d   Thumb Code    34  os_tmr.o(.text)
    OSTmrCreate                              0x0800a08f   Thumb Code   248  os_tmr.o(.text)
    OS_TmrClr                                0x0800a187   Thumb Code    36  os_tmr.o(.text)
    OS_TmrUnlink                             0x0800a1ab   Thumb Code    72  os_tmr.o(.text)
    OS_TmrDbgListRemove                      0x0800a1f3   Thumb Code    44  os_tmr.o(.text)
    OSTmrDel                                 0x0800a21f   Thumb Code   176  os_tmr.o(.text)
    OSTmrRemainGet                           0x0800a2cf   Thumb Code   184  os_tmr.o(.text)
    OS_TmrLink                               0x0800a387   Thumb Code   196  os_tmr.o(.text)
    OSTmrStart                               0x0800a44b   Thumb Code   210  os_tmr.o(.text)
    OSTmrStateGet                            0x0800a51d   Thumb Code   134  os_tmr.o(.text)
    OSTmrStop                                0x0800a5a3   Thumb Code   232  os_tmr.o(.text)
    OS_TmrTask                               0x0800a68b   Thumb Code   176  os_tmr.o(.text)
    OS_TmrInit                               0x0800a73b   Thumb Code   208  os_tmr.o(.text)
    OS_TmrResetPeak                          0x0800a80b   Thumb Code    28  os_tmr.o(.text)
    OSIdleTaskHook                           0x0800a885   Thumb Code    16  os_cpu_c.o(.text)
    OSInitHook                               0x0800a895   Thumb Code    42  os_cpu_c.o(.text)
    OSStatTaskHook                           0x0800a8bf   Thumb Code    16  os_cpu_c.o(.text)
    OSTaskCreateHook                         0x0800a8cf   Thumb Code    20  os_cpu_c.o(.text)
    OSTaskDelHook                            0x0800a8e3   Thumb Code    20  os_cpu_c.o(.text)
    OSTaskReturnHook                         0x0800a8f7   Thumb Code    20  os_cpu_c.o(.text)
    OSTaskStkInit                            0x0800a90b   Thumb Code   188  os_cpu_c.o(.text)
    OSTaskSwHook                             0x0800a9c7   Thumb Code   120  os_cpu_c.o(.text)
    OSTimeTickHook                           0x0800aa3f   Thumb Code    16  os_cpu_c.o(.text)
    OS_CPU_SysTickHandler                    0x0800aa4f   Thumb Code    52  os_cpu_c.o(.text)
    OS_CPU_SysTickInit                       0x0800aa83   Thumb Code    44  os_cpu_c.o(.text)
    App_OS_TimeTickHook                      0x0800aaf1   Thumb Code     2  os_app_hooks.o(.text)
    App_OS_TaskSwHook                        0x0800aaf3   Thumb Code     2  os_app_hooks.o(.text)
    App_OS_StatTaskHook                      0x0800aaf5   Thumb Code     2  os_app_hooks.o(.text)
    App_OS_IdleTaskHook                      0x0800aaf7   Thumb Code    38  os_app_hooks.o(.text)
    App_OS_TaskReturnHook                    0x0800ab1d   Thumb Code     2  os_app_hooks.o(.text)
    App_OS_TaskDelHook                       0x0800ab1f   Thumb Code     2  os_app_hooks.o(.text)
    App_OS_TaskCreateHook                    0x0800ab21   Thumb Code     2  os_app_hooks.o(.text)
    App_OS_SetAllHooks                       0x0800ab23   Thumb Code    90  os_app_hooks.o(.text)
    App_OS_ClrAllHooks                       0x0800ab7d   Thumb Code    64  os_app_hooks.o(.text)
    App_OS_InitHook                          0x0800abbd   Thumb Code     2  os_app_hooks.o(.text)
    __use_no_semihosting                     0x0800abfd   Thumb Code     2  use_no_semi_2.o(.text)
    __aeabi_uldivmod                         0x0800abff   Thumb Code     0  lludivv7m.o(.text)
    _ll_udiv                                 0x0800abff   Thumb Code   238  lludivv7m.o(.text)
    __2printf                                0x0800aced   Thumb Code    20  noretval__2printf.o(.text)
    __use_two_region_memory                  0x0800ad05   Thumb Code     2  heapauxi.o(.text)
    __rt_heap_escrow$2region                 0x0800ad07   Thumb Code     2  heapauxi.o(.text)
    __rt_heap_expand$2region                 0x0800ad09   Thumb Code     2  heapauxi.o(.text)
    __I$use$semihosting                      0x0800ad0b   Thumb Code     0  use_no_semi.o(.text)
    __use_no_semihosting_swi                 0x0800ad0b   Thumb Code     2  use_no_semi.o(.text)
    _printf_char_file                        0x0800ad0d   Thumb Code    32  _printf_char_file.o(.text)
    _printf_char_common                      0x0800ad3b   Thumb Code    32  _printf_char_common.o(.text)
    ferror                                   0x0800ad61   Thumb Code     8  ferror.o(.text)
    __user_setup_stackheap                   0x0800ad69   Thumb Code    74  sys_stackheap_outer.o(.text)
    __printf                                 0x0800adb3   Thumb Code    40  __printf_nopercent.o(.text)
    exit                                     0x0800addb   Thumb Code    18  exit.o(.text)
    __user_libspace                          0x0800aded   Thumb Code     8  libspace.o(.text)
    __user_perproc_libspace                  0x0800aded   Thumb Code     0  libspace.o(.text)
    __user_perthread_libspace                0x0800aded   Thumb Code     0  libspace.o(.text)
    OSStartHighRdy                           0x0800adf5   Thumb Code     0  os_cpu_a.o(CODE)
    PendSV_Handler                           0x0800ae2b   Thumb Code     0  os_cpu_a.o(CODE)
    CPU_EndiannessTest                       0x0800af8c   Data           4  cpu_core.o(.constdata)
    OSCfg_IdleTaskStkBasePtr                 0x0800b024   Data           4  os_cfg_app.o(.constdata)
    OSCfg_IdleTaskStkLimit                   0x0800b028   Data           4  os_cfg_app.o(.constdata)
    OSCfg_IdleTaskStkSize                    0x0800b02c   Data           4  os_cfg_app.o(.constdata)
    OSCfg_IdleTaskStkSizeRAM                 0x0800b030   Data           4  os_cfg_app.o(.constdata)
    OSCfg_IntQBasePtr                        0x0800b034   Data           4  os_cfg_app.o(.constdata)
    OSCfg_IntQSize                           0x0800b038   Data           2  os_cfg_app.o(.constdata)
    OSCfg_IntQSizeRAM                        0x0800b03c   Data           4  os_cfg_app.o(.constdata)
    OSCfg_IntQTaskStkBasePtr                 0x0800b040   Data           4  os_cfg_app.o(.constdata)
    OSCfg_IntQTaskStkLimit                   0x0800b044   Data           4  os_cfg_app.o(.constdata)
    OSCfg_IntQTaskStkSize                    0x0800b048   Data           4  os_cfg_app.o(.constdata)
    OSCfg_IntQTaskStkSizeRAM                 0x0800b04c   Data           4  os_cfg_app.o(.constdata)
    OSCfg_ISRStkBasePtr                      0x0800b050   Data           4  os_cfg_app.o(.constdata)
    OSCfg_ISRStkSize                         0x0800b054   Data           4  os_cfg_app.o(.constdata)
    OSCfg_ISRStkSizeRAM                      0x0800b058   Data           4  os_cfg_app.o(.constdata)
    OSCfg_MsgPoolSize                        0x0800b05c   Data           2  os_cfg_app.o(.constdata)
    OSCfg_MsgPoolSizeRAM                     0x0800b060   Data           4  os_cfg_app.o(.constdata)
    OSCfg_MsgPoolBasePtr                     0x0800b064   Data           4  os_cfg_app.o(.constdata)
    OSCfg_StatTaskPrio                       0x0800b068   Data           1  os_cfg_app.o(.constdata)
    OSCfg_StatTaskRate_Hz                    0x0800b06c   Data           4  os_cfg_app.o(.constdata)
    OSCfg_StatTaskStkBasePtr                 0x0800b070   Data           4  os_cfg_app.o(.constdata)
    OSCfg_StatTaskStkLimit                   0x0800b074   Data           4  os_cfg_app.o(.constdata)
    OSCfg_StatTaskStkSize                    0x0800b078   Data           4  os_cfg_app.o(.constdata)
    OSCfg_StatTaskStkSizeRAM                 0x0800b07c   Data           4  os_cfg_app.o(.constdata)
    OSCfg_StkSizeMin                         0x0800b080   Data           4  os_cfg_app.o(.constdata)
    OSCfg_TickRate_Hz                        0x0800b084   Data           4  os_cfg_app.o(.constdata)
    OSCfg_TickTaskPrio                       0x0800b088   Data           1  os_cfg_app.o(.constdata)
    OSCfg_TickTaskStkBasePtr                 0x0800b08c   Data           4  os_cfg_app.o(.constdata)
    OSCfg_TickTaskStkLimit                   0x0800b090   Data           4  os_cfg_app.o(.constdata)
    OSCfg_TickTaskStkSize                    0x0800b094   Data           4  os_cfg_app.o(.constdata)
    OSCfg_TickTaskStkSizeRAM                 0x0800b098   Data           4  os_cfg_app.o(.constdata)
    OSCfg_TickWheelSize                      0x0800b09c   Data           2  os_cfg_app.o(.constdata)
    OSCfg_TickWheelSizeRAM                   0x0800b0a0   Data           4  os_cfg_app.o(.constdata)
    OSCfg_TmrTaskPrio                        0x0800b0a4   Data           1  os_cfg_app.o(.constdata)
    OSCfg_TmrTaskRate_Hz                     0x0800b0a8   Data           4  os_cfg_app.o(.constdata)
    OSCfg_TmrTaskStkBasePtr                  0x0800b0ac   Data           4  os_cfg_app.o(.constdata)
    OSCfg_TmrTaskStkLimit                    0x0800b0b0   Data           4  os_cfg_app.o(.constdata)
    OSCfg_TmrTaskStkSize                     0x0800b0b4   Data           4  os_cfg_app.o(.constdata)
    OSCfg_TmrTaskStkSizeRAM                  0x0800b0b8   Data           4  os_cfg_app.o(.constdata)
    OSCfg_TmrWheelSize                       0x0800b0bc   Data           2  os_cfg_app.o(.constdata)
    OSCfg_TmrWheelSizeRAM                    0x0800b0c0   Data           4  os_cfg_app.o(.constdata)
    OSCfg_DataSizeRAM                        0x0800b0c4   Data           4  os_cfg_app.o(.constdata)
    OSDbg_DbgEn                              0x0800b0c8   Data           2  os_dbg.o(.constdata)
    OSDbg_ArgChkEn                           0x0800b0ca   Data           1  os_dbg.o(.constdata)
    OSDbg_AppHooksEn                         0x0800b0cb   Data           1  os_dbg.o(.constdata)
    OSDbg_EndiannessTest                     0x0800b0cc   Data           4  os_dbg.o(.constdata)
    OSDbg_CalledFromISRChkEn                 0x0800b0d0   Data           1  os_dbg.o(.constdata)
    OSDbg_FlagEn                             0x0800b0d1   Data           1  os_dbg.o(.constdata)
    OSDbg_FlagGrp                            0x0800b0d4   Data          40  os_dbg.o(.constdata)
    OSDbg_FlagDelEn                          0x0800b0fc   Data           1  os_dbg.o(.constdata)
    OSDbg_FlagModeClrEn                      0x0800b0fd   Data           1  os_dbg.o(.constdata)
    OSDbg_FlagPendAbortEn                    0x0800b0fe   Data           1  os_dbg.o(.constdata)
    OSDbg_FlagGrpSize                        0x0800b100   Data           2  os_dbg.o(.constdata)
    OSDbg_FlagWidth                          0x0800b102   Data           2  os_dbg.o(.constdata)
    OSDbg_IntQ                               0x0800b104   Data           2  os_dbg.o(.constdata)
    OSDbg_ISRPostDeferredEn                  0x0800b106   Data           1  os_dbg.o(.constdata)
    OSDbg_Mem                                0x0800b108   Data          32  os_dbg.o(.constdata)
    OSDbg_MemEn                              0x0800b128   Data           1  os_dbg.o(.constdata)
    OSDbg_MemSize                            0x0800b12a   Data           2  os_dbg.o(.constdata)
    OSDbg_MsgEn                              0x0800b12c   Data           1  os_dbg.o(.constdata)
    OSDbg_MsgSize                            0x0800b12e   Data           2  os_dbg.o(.constdata)
    OSDbg_MsgPoolSize                        0x0800b130   Data           2  os_dbg.o(.constdata)
    OSDbg_MsgQSize                           0x0800b132   Data           2  os_dbg.o(.constdata)
    OSDbg_Mutex                              0x0800b134   Data          44  os_dbg.o(.constdata)
    OSDbg_MutexEn                            0x0800b160   Data           1  os_dbg.o(.constdata)
    OSDbg_MutexDelEn                         0x0800b161   Data           1  os_dbg.o(.constdata)
    OSDbg_MutexPendAbortEn                   0x0800b162   Data           1  os_dbg.o(.constdata)
    OSDbg_MutexSize                          0x0800b164   Data           2  os_dbg.o(.constdata)
    OSDbg_ObjTypeChkEn                       0x0800b166   Data           1  os_dbg.o(.constdata)
    OSDbg_PendMultiEn                        0x0800b167   Data           1  os_dbg.o(.constdata)
    OSDbg_PendDataSize                       0x0800b168   Data           2  os_dbg.o(.constdata)
    OSDbg_PendListSize                       0x0800b16a   Data           2  os_dbg.o(.constdata)
    OSDbg_PendObjSize                        0x0800b16c   Data           2  os_dbg.o(.constdata)
    OSDbg_PrioMax                            0x0800b16e   Data           2  os_dbg.o(.constdata)
    OSDbg_PrioTblSize                        0x0800b170   Data           2  os_dbg.o(.constdata)
    OSDbg_PtrSize                            0x0800b172   Data           2  os_dbg.o(.constdata)
    OSDbg_Q                                  0x0800b174   Data          48  os_dbg.o(.constdata)
    OSDbg_QEn                                0x0800b1a4   Data           1  os_dbg.o(.constdata)
    OSDbg_QDelEn                             0x0800b1a5   Data           1  os_dbg.o(.constdata)
    OSDbg_QFlushEn                           0x0800b1a6   Data           1  os_dbg.o(.constdata)
    OSDbg_QPendAbortEn                       0x0800b1a7   Data           1  os_dbg.o(.constdata)
    OSDbg_QSize                              0x0800b1a8   Data           2  os_dbg.o(.constdata)
    OSDbg_SchedRoundRobinEn                  0x0800b1aa   Data           1  os_dbg.o(.constdata)
    OSDbg_Sem                                0x0800b1ac   Data          40  os_dbg.o(.constdata)
    OSDbg_SemEn                              0x0800b1d4   Data           1  os_dbg.o(.constdata)
    OSDbg_SemDelEn                           0x0800b1d5   Data           1  os_dbg.o(.constdata)
    OSDbg_SemPendAbortEn                     0x0800b1d6   Data           1  os_dbg.o(.constdata)
    OSDbg_SemSetEn                           0x0800b1d7   Data           1  os_dbg.o(.constdata)
    OSDbg_SemSize                            0x0800b1d8   Data           2  os_dbg.o(.constdata)
    OSDbg_RdyList                            0x0800b1da   Data           2  os_dbg.o(.constdata)
    OSDbg_RdyListSize                        0x0800b1dc   Data           4  os_dbg.o(.constdata)
    OSDbg_StkWidth                           0x0800b1e0   Data           1  os_dbg.o(.constdata)
    OSDbg_StatTaskEn                         0x0800b1e1   Data           1  os_dbg.o(.constdata)
    OSDbg_StatTaskStkChkEn                   0x0800b1e2   Data           1  os_dbg.o(.constdata)
    OSDbg_TaskChangePrioEn                   0x0800b1e3   Data           1  os_dbg.o(.constdata)
    OSDbg_TaskDelEn                          0x0800b1e4   Data           1  os_dbg.o(.constdata)
    OSDbg_TaskQEn                            0x0800b1e5   Data           1  os_dbg.o(.constdata)
    OSDbg_TaskQPendAbortEn                   0x0800b1e6   Data           1  os_dbg.o(.constdata)
    OSDbg_TaskProfileEn                      0x0800b1e7   Data           1  os_dbg.o(.constdata)
    OSDbg_TaskRegTblSize                     0x0800b1e8   Data           2  os_dbg.o(.constdata)
    OSDbg_TaskSemPendAbortEn                 0x0800b1ea   Data           1  os_dbg.o(.constdata)
    OSDbg_TaskSuspendEn                      0x0800b1eb   Data           1  os_dbg.o(.constdata)
    OSDbg_TCBSize                            0x0800b1ec   Data           2  os_dbg.o(.constdata)
    OSDbg_TickSpokeSize                      0x0800b1ee   Data           2  os_dbg.o(.constdata)
    OSDbg_TimeDlyHMSMEn                      0x0800b1f0   Data           1  os_dbg.o(.constdata)
    OSDbg_TimeDlyResumeEn                    0x0800b1f1   Data           1  os_dbg.o(.constdata)
    OSDbg_TLS_TblSize                        0x0800b1f2   Data           2  os_dbg.o(.constdata)
    OSDbg_Tmr                                0x0800b1f4   Data          52  os_dbg.o(.constdata)
    OSDbg_TmrEn                              0x0800b228   Data           1  os_dbg.o(.constdata)
    OSDbg_TmrDelEn                           0x0800b229   Data           1  os_dbg.o(.constdata)
    OSDbg_TmrSize                            0x0800b22a   Data           2  os_dbg.o(.constdata)
    OSDbg_TmrSpokeSize                       0x0800b22c   Data           2  os_dbg.o(.constdata)
    OSDbg_VersionNbr                         0x0800b22e   Data           2  os_dbg.o(.constdata)
    OSDbg_DataSize                           0x0800b230   Data           4  os_dbg.o(.constdata)
    Region$$Table$$Base                      0x0800b234   Number         0  anon$$obj.o(Region$$Table)
    Region$$Table$$Limit                     0x0800b254   Number         0  anon$$obj.o(Region$$Table)
    SystemCoreClock                          0x20000000   Data           4  system_stm32f10x.o(.data)
    AHBPrescTable                            0x20000004   Data          16  system_stm32f10x.o(.data)
    __stdout                                 0x20000018   Data           4  usart.o(.data)
    USART_RX_STA                             0x2000001c   Data           2  usart.o(.data)
    CPU_TS_TmrFreq_Hz                        0x20000034   Data           4  cpu_core.o(.data)
    Mem_PoolTbl                              0x20000038   Data           4  lib_mem.o(.data)
    OSPrioTbl                                0x2000003c   Data           8  os_prio.o(.data)
    OS_AppTaskCreateHookPtr                  0x20000044   Data           4  os_var.o(.data)
    OS_AppTaskDelHookPtr                     0x20000048   Data           4  os_var.o(.data)
    OS_AppTaskReturnHookPtr                  0x2000004c   Data           4  os_var.o(.data)
    OS_AppIdleTaskHookPtr                    0x20000050   Data           4  os_var.o(.data)
    OS_AppStatTaskHookPtr                    0x20000054   Data           4  os_var.o(.data)
    OS_AppTaskSwHookPtr                      0x20000058   Data           4  os_var.o(.data)
    OS_AppTimeTickHookPtr                    0x2000005c   Data           4  os_var.o(.data)
    OSIdleTaskCtr                            0x20000060   Data           4  os_var.o(.data)
    OSIntNestingCtr                          0x20000064   Data           1  os_var.o(.data)
    OSRunning                                0x20000065   Data           1  os_var.o(.data)
    OSIntQInPtr                              0x20000068   Data           4  os_var.o(.data)
    OSIntQOutPtr                             0x2000006c   Data           4  os_var.o(.data)
    OSIntQNbrEntries                         0x20000070   Data           2  os_var.o(.data)
    OSIntQNbrEntriesMax                      0x20000072   Data           2  os_var.o(.data)
    OSIntQOvfCtr                             0x20000074   Data           2  os_var.o(.data)
    OSIntQTaskTimeMax                        0x20000078   Data           4  os_var.o(.data)
    OSFlagDbgListPtr                         0x2000007c   Data           4  os_var.o(.data)
    OSFlagQty                                0x20000080   Data           2  os_var.o(.data)
    OSMemDbgListPtr                          0x20000084   Data           4  os_var.o(.data)
    OSMemQty                                 0x20000088   Data           2  os_var.o(.data)
    OSMutexDbgListPtr                        0x2000008c   Data           4  os_var.o(.data)
    OSMutexQty                               0x20000090   Data           2  os_var.o(.data)
    OSPrioCur                                0x20000092   Data           1  os_var.o(.data)
    OSPrioHighRdy                            0x20000093   Data           1  os_var.o(.data)
    OSPrioSaved                              0x20000094   Data           1  os_var.o(.data)
    OSQDbgListPtr                            0x20000098   Data           4  os_var.o(.data)
    OSQQty                                   0x2000009c   Data           2  os_var.o(.data)
    OSSchedLockTimeBegin                     0x200000a0   Data           4  os_var.o(.data)
    OSSchedLockTimeMax                       0x200000a4   Data           4  os_var.o(.data)
    OSSchedLockTimeMaxCur                    0x200000a8   Data           4  os_var.o(.data)
    OSSchedLockNestingCtr                    0x200000ac   Data           1  os_var.o(.data)
    OSSchedRoundRobinDfltTimeQuanta          0x200000b0   Data           4  os_var.o(.data)
    OSSchedRoundRobinEn                      0x200000b4   Data           1  os_var.o(.data)
    OSSemDbgListPtr                          0x200000b8   Data           4  os_var.o(.data)
    OSSemQty                                 0x200000bc   Data           2  os_var.o(.data)
    OSStatResetFlag                          0x200000be   Data           1  os_var.o(.data)
    OSStatTaskCPUUsage                       0x200000c0   Data           2  os_var.o(.data)
    OSStatTaskCPUUsageMax                    0x200000c2   Data           2  os_var.o(.data)
    OSStatTaskCtr                            0x200000c4   Data           4  os_var.o(.data)
    OSStatTaskCtrMax                         0x200000c8   Data           4  os_var.o(.data)
    OSStatTaskCtrRun                         0x200000cc   Data           4  os_var.o(.data)
    OSStatTaskRdy                            0x200000d0   Data           1  os_var.o(.data)
    OSStatTaskTimeMax                        0x200000d4   Data           4  os_var.o(.data)
    OSTaskCtxSwCtr                           0x200000d8   Data           4  os_var.o(.data)
    OSTaskDbgListPtr                         0x200000dc   Data           4  os_var.o(.data)
    OSTaskQty                                0x200000e0   Data           2  os_var.o(.data)
    OSTaskRegNextAvailID                     0x200000e2   Data           1  os_var.o(.data)
    OSTickCtr                                0x200000e4   Data           4  os_var.o(.data)
    OSTickTaskTimeMax                        0x200000e8   Data           4  os_var.o(.data)
    OSTmrDbgListPtr                          0x200000ec   Data           4  os_var.o(.data)
    OSTmrQty                                 0x200000f0   Data           2  os_var.o(.data)
    OSTmrTaskTimeMax                         0x200000f4   Data           4  os_var.o(.data)
    OSTmrTickCtr                             0x200000f8   Data           4  os_var.o(.data)
    OSTmrUpdateCnt                           0x200000fc   Data           4  os_var.o(.data)
    OSTmrUpdateCtr                           0x20000100   Data           4  os_var.o(.data)
    OSTCBCurPtr                              0x20000104   Data           4  os_var.o(.data)
    OSTCBHighRdyPtr                          0x20000108   Data           4  os_var.o(.data)
    OS_CPU_ExceptStkBase                     0x2000010c   Data           4  os_cpu_c.o(.data)
    StartTaskTCB                             0x20000114   Data         196  main.o(.bss)
    START_TASK_STK                           0x200001d8   Data        2048  main.o(.bss)
    Led0TaskTCB                              0x200009d8   Data         196  main.o(.bss)
    LED0_TASK_STK                            0x20000a9c   Data         512  main.o(.bss)
    Led1TaskTCB                              0x20000c9c   Data         196  main.o(.bss)
    LED1_TASK_STK                            0x20000d60   Data         512  main.o(.bss)
    USART_RX_BUF                             0x20000f60   Data         200  usart.o(.bss)
    CPU_Name                                 0x20001028   Data          16  cpu_core.o(.bss)
    Mem_PoolHeap                             0x20001038   Data          72  lib_mem.o(.bss)
    Mem_Heap                                 0x20001080   Data        1024  lib_mem.o(.bss)
    OSCfg_IdleTaskStk                        0x20001480   Data         512  os_cfg_app.o(.bss)
    OSCfg_IntQ                               0x20001680   Data         320  os_cfg_app.o(.bss)
    OSCfg_IntQTaskStk                        0x200017c0   Data         512  os_cfg_app.o(.bss)
    OSCfg_ISRStk                             0x200019c0   Data         512  os_cfg_app.o(.bss)
    OSCfg_MsgPool                            0x20001bc0   Data        1600  os_cfg_app.o(.bss)
    OSCfg_StatTaskStk                        0x20002200   Data         512  os_cfg_app.o(.bss)
    OSCfg_TickTaskStk                        0x20002400   Data         512  os_cfg_app.o(.bss)
    OSCfg_TickWheel                          0x20002600   Data         136  os_cfg_app.o(.bss)
    OSCfg_TmrTaskStk                         0x20002688   Data         512  os_cfg_app.o(.bss)
    OSCfg_TmrWheel                           0x20002888   Data         136  os_cfg_app.o(.bss)
    OSIdleTaskTCB                            0x20002910   Data         196  os_var.o(.bss)
    OSIntQTaskTCB                            0x200029d4   Data         196  os_var.o(.bss)
    OSMsgPool                                0x20002a98   Data          12  os_var.o(.bss)
    OSRdyList                                0x20002aa4   Data         768  os_var.o(.bss)
    OSStatTaskTCB                            0x20002da4   Data         196  os_var.o(.bss)
    OSTickTaskTCB                            0x20002e68   Data         196  os_var.o(.bss)
    OSTmrTaskTCB                             0x20002f2c   Data         196  os_var.o(.bss)
    __libspace_start                         0x20002ff0   Data          96  libspace.o(.bss)
    __temporary_stack_top$libspace           0x20003050   Data           0  libspace.o(.bss)



==============================================================================

Memory Map of the image

  Image Entry point : 0x08000131

  Load Region LR_IROM1 (Base: 0x08000000, Size: 0x0000b368, Max: 0x00080000, ABSOLUTE)

    Execution Region ER_IROM1 (Exec base: 0x08000000, Load base: 0x08000000, Size: 0x0000b254, Max: 0x00080000, ABSOLUTE)

    Exec Addr    Load Addr    Size         Type   Attr      Idx    E Section Name        Object

    0x08000000   0x08000000   0x00000130   Data   RO          373    RESET               startup_stm32f10x_hd.o
    0x08000130   0x08000130   0x00000008   Code   RO          839  * !!!main             c_w.l(__main.o)
    0x08000138   0x08000138   0x00000034   Code   RO         1014    !!!scatter          c_w.l(__scatter.o)
    0x0800016c   0x0800016c   0x0000001a   Code   RO         1016    !!handler_copy      c_w.l(__scatter_copy.o)
    0x08000186   0x08000186   0x00000002   PAD
    0x08000188   0x08000188   0x0000001c   Code   RO         1018    !!handler_zi        c_w.l(__scatter_zi.o)
    0x080001a4   0x080001a4   0x00000002   Code   RO          888    .ARM.Collect$$libinit$$00000000  c_w.l(libinit.o)
    0x080001a6   0x080001a6   0x00000000   Code   RO          901    .ARM.Collect$$libinit$$00000002  c_w.l(libinit2.o)
    0x080001a6   0x080001a6   0x00000000   Code   RO          903    .ARM.Collect$$libinit$$00000004  c_w.l(libinit2.o)
    0x080001a6   0x080001a6   0x00000000   Code   RO          906    .ARM.Collect$$libinit$$0000000A  c_w.l(libinit2.o)
    0x080001a6   0x080001a6   0x00000000   Code   RO          908    .ARM.Collect$$libinit$$0000000C  c_w.l(libinit2.o)
    0x080001a6   0x080001a6   0x00000000   Code   RO          910    .ARM.Collect$$libinit$$0000000E  c_w.l(libinit2.o)
    0x080001a6   0x080001a6   0x00000000   Code   RO          913    .ARM.Collect$$libinit$$00000011  c_w.l(libinit2.o)
    0x080001a6   0x080001a6   0x00000000   Code   RO          915    .ARM.Collect$$libinit$$00000013  c_w.l(libinit2.o)
    0x080001a6   0x080001a6   0x00000000   Code   RO          917    .ARM.Collect$$libinit$$00000015  c_w.l(libinit2.o)
    0x080001a6   0x080001a6   0x00000000   Code   RO          919    .ARM.Collect$$libinit$$00000017  c_w.l(libinit2.o)
    0x080001a6   0x080001a6   0x00000000   Code   RO          921    .ARM.Collect$$libinit$$00000019  c_w.l(libinit2.o)
    0x080001a6   0x080001a6   0x00000000   Code   RO          923    .ARM.Collect$$libinit$$0000001B  c_w.l(libinit2.o)
    0x080001a6   0x080001a6   0x00000000   Code   RO          925    .ARM.Collect$$libinit$$0000001D  c_w.l(libinit2.o)
    0x080001a6   0x080001a6   0x00000000   Code   RO          927    .ARM.Collect$$libinit$$0000001F  c_w.l(libinit2.o)
    0x080001a6   0x080001a6   0x00000000   Code   RO          929    .ARM.Collect$$libinit$$00000021  c_w.l(libinit2.o)
    0x080001a6   0x080001a6   0x00000000   Code   RO          931    .ARM.Collect$$libinit$$00000023  c_w.l(libinit2.o)
    0x080001a6   0x080001a6   0x00000000   Code   RO          933    .ARM.Collect$$libinit$$00000025  c_w.l(libinit2.o)
    0x080001a6   0x080001a6   0x00000000   Code   RO          937    .ARM.Collect$$libinit$$0000002C  c_w.l(libinit2.o)
    0x080001a6   0x080001a6   0x00000000   Code   RO          939    .ARM.Collect$$libinit$$0000002E  c_w.l(libinit2.o)
    0x080001a6   0x080001a6   0x00000000   Code   RO          941    .ARM.Collect$$libinit$$00000030  c_w.l(libinit2.o)
    0x080001a6   0x080001a6   0x00000000   Code   RO          943    .ARM.Collect$$libinit$$00000032  c_w.l(libinit2.o)
    0x080001a6   0x080001a6   0x00000002   Code   RO          944    .ARM.Collect$$libinit$$00000033  c_w.l(libinit2.o)
    0x080001a8   0x080001a8   0x00000002   Code   RO          970    .ARM.Collect$$libshutdown$$00000000  c_w.l(libshutdown.o)
    0x080001aa   0x080001aa   0x00000000   Code   RO          997    .ARM.Collect$$libshutdown$$00000002  c_w.l(libshutdown2.o)
    0x080001aa   0x080001aa   0x00000000   Code   RO          999    .ARM.Collect$$libshutdown$$00000004  c_w.l(libshutdown2.o)
    0x080001aa   0x080001aa   0x00000000   Code   RO         1002    .ARM.Collect$$libshutdown$$00000007  c_w.l(libshutdown2.o)
    0x080001aa   0x080001aa   0x00000000   Code   RO         1005    .ARM.Collect$$libshutdown$$0000000A  c_w.l(libshutdown2.o)
    0x080001aa   0x080001aa   0x00000000   Code   RO         1007    .ARM.Collect$$libshutdown$$0000000C  c_w.l(libshutdown2.o)
    0x080001aa   0x080001aa   0x00000000   Code   RO         1010    .ARM.Collect$$libshutdown$$0000000F  c_w.l(libshutdown2.o)
    0x080001aa   0x080001aa   0x00000002   Code   RO         1011    .ARM.Collect$$libshutdown$$00000010  c_w.l(libshutdown2.o)
    0x080001ac   0x080001ac   0x00000000   Code   RO          843    .ARM.Collect$$rtentry$$00000000  c_w.l(__rtentry.o)
    0x080001ac   0x080001ac   0x00000000   Code   RO          851    .ARM.Collect$$rtentry$$00000002  c_w.l(__rtentry2.o)
    0x080001ac   0x080001ac   0x00000006   Code   RO          863    .ARM.Collect$$rtentry$$00000004  c_w.l(__rtentry4.o)
    0x080001b2   0x080001b2   0x00000000   Code   RO          853    .ARM.Collect$$rtentry$$00000009  c_w.l(__rtentry2.o)
    0x080001b2   0x080001b2   0x00000004   Code   RO          854    .ARM.Collect$$rtentry$$0000000A  c_w.l(__rtentry2.o)
    0x080001b6   0x080001b6   0x00000000   Code   RO          856    .ARM.Collect$$rtentry$$0000000C  c_w.l(__rtentry2.o)
    0x080001b6   0x080001b6   0x00000008   Code   RO          857    .ARM.Collect$$rtentry$$0000000D  c_w.l(__rtentry2.o)
    0x080001be   0x080001be   0x00000002   Code   RO          892    .ARM.Collect$$rtexit$$00000000  c_w.l(rtexit.o)
    0x080001c0   0x080001c0   0x00000000   Code   RO          946    .ARM.Collect$$rtexit$$00000002  c_w.l(rtexit2.o)
    0x080001c0   0x080001c0   0x00000004   Code   RO          947    .ARM.Collect$$rtexit$$00000003  c_w.l(rtexit2.o)
    0x080001c4   0x080001c4   0x00000006   Code   RO          948    .ARM.Collect$$rtexit$$00000004  c_w.l(rtexit2.o)
    0x080001ca   0x080001ca   0x00000002   PAD
    0x080001cc   0x080001cc   0x000002ac   Code   RO            1    .text               main.o
    0x08000478   0x08000478   0x00000016   Code   RO          147    .text               stm32f10x_it.o
    0x0800048e   0x0800048e   0x00000002   PAD
    0x08000490   0x08000490   0x000001e0   Code   RO          197    .text               system_stm32f10x.o
    0x08000670   0x08000670   0x0000004c   Code   RO          215    .text               led.o
    0x080006bc   0x080006bc   0x0000014c   Code   RO          250    .text               delay.o
    0x08000808   0x08000808   0x00000150   Code   RO          338    .text               usart.o
    0x08000958   0x08000958   0x00000040   Code   RO          374    .text               startup_stm32f10x_hd.o
    0x08000998   0x08000998   0x000000dc   Code   RO          378    .text               misc.o
    0x08000a74   0x08000a74   0x0000035c   Code   RO          390    .text               stm32f10x_gpio.o
    0x08000dd0   0x08000dd0   0x00000408   Code   RO          402    .text               stm32f10x_usart.o
    0x080011d8   0x080011d8   0x000003a4   Code   RO          414    .text               stm32f10x_rcc.o
    0x0800157c   0x0800157c   0x00000084   Code   RO          428    .text               bsp.o
    0x08001600   0x08001600   0x000002a8   Code   RO          443    .text               cpu_core.o
    0x080018a8   0x080018a8   0x00000034   Code   RO          481    .text               cpu_a.o
    0x080018dc   0x080018dc   0x00000256   Code   RO          484    .text               lib_ascii.o
    0x08001b32   0x08001b32   0x00000002   PAD
    0x08001b34   0x08001b34   0x000009c6   Code   RO          517    .text               lib_mem.o
    0x080024fa   0x080024fa   0x00000002   PAD
    0x080024fc   0x080024fc   0x0000092c   Code   RO          536    .text               lib_str.o
    0x08002e28   0x08002e28   0x00000220   Code   RO          553    .text               lib_mem_a.o
    0x08003048   0x08003048   0x000000fc   Code   RO          556    .text               os_cfg_app.o
    0x08003144   0x08003144   0x00000e04   Code   RO          579    .text               os_core.o
    0x08003f48   0x08003f48   0x000001b0   Code   RO          591    .text               os_dbg.o
    0x080040f8   0x080040f8   0x00000e28   Code   RO          606    .text               os_flag.o
    0x08004f20   0x08004f20   0x00000444   Code   RO          618    .text               os_int.o
    0x08005364   0x08005364   0x00000238   Code   RO          630    .text               os_mem.o
    0x0800559c   0x0800559c   0x0000022c   Code   RO          642    .text               os_msg.o
    0x080057c8   0x080057c8   0x00000ad4   Code   RO          654    .text               os_mutex.o
    0x0800629c   0x0800629c   0x0000007c   Code   RO          672    .text               os_prio.o
    0x08006318   0x08006318   0x000008d8   Code   RO          691    .text               os_q.o
    0x08006bf0   0x08006bf0   0x00000830   Code   RO          703    .text               os_sem.o
    0x08007420   0x08007420   0x00000638   Code   RO          715    .text               os_stat.o
    0x08007a58   0x08007a58   0x00001bb4   Code   RO          727    .text               os_task.o
    0x0800960c   0x0800960c   0x000004fc   Code   RO          739    .text               os_tick.o
    0x08009b08   0x08009b08   0x00000564   Code   RO          751    .text               os_time.o
    0x0800a06c   0x0800a06c   0x00000818   Code   RO          763    .text               os_tmr.o
    0x0800a884   0x0800a884   0x0000026c   Code   RO          792    .text               os_cpu_c.o
    0x0800aaf0   0x0800aaf0   0x0000010c   Code   RO          810    .text               os_app_hooks.o
    0x0800abfc   0x0800abfc   0x00000002   Code   RO          829    .text               c_w.l(use_no_semi_2.o)
    0x0800abfe   0x0800abfe   0x000000ee   Code   RO          831    .text               c_w.l(lludivv7m.o)
    0x0800acec   0x0800acec   0x00000018   Code   RO          835    .text               c_w.l(noretval__2printf.o)
    0x0800ad04   0x0800ad04   0x00000006   Code   RO          837    .text               c_w.l(heapauxi.o)
    0x0800ad0a   0x0800ad0a   0x00000002   Code   RO          841    .text               c_w.l(use_no_semi.o)
    0x0800ad0c   0x0800ad0c   0x00000024   Code   RO          848    .text               c_w.l(_printf_char_file.o)
    0x0800ad30   0x0800ad30   0x00000030   Code   RO          867    .text               c_w.l(_printf_char_common.o)
    0x0800ad60   0x0800ad60   0x00000008   Code   RO          869    .text               c_w.l(ferror.o)
    0x0800ad68   0x0800ad68   0x0000004a   Code   RO          873    .text               c_w.l(sys_stackheap_outer.o)
    0x0800adb2   0x0800adb2   0x00000028   Code   RO          875    .text               c_w.l(__printf_nopercent.o)
    0x0800adda   0x0800adda   0x00000012   Code   RO          877    .text               c_w.l(exit.o)
    0x0800adec   0x0800adec   0x00000008   Code   RO          889    .text               c_w.l(libspace.o)
    0x0800adf4   0x0800adf4   0x00000098   Code   RO          789    CODE                os_cpu_a.o
    0x0800ae8c   0x0800ae8c   0x00000104   Data   RO          445    .constdata          cpu_core.o
    0x0800af90   0x0800af90   0x00000094   Data   RO          537    .constdata          lib_str.o
    0x0800b024   0x0800b024   0x000000a4   Data   RO          558    .constdata          os_cfg_app.o
    0x0800b0c8   0x0800b0c8   0x0000016c   Data   RO          592    .constdata          os_dbg.o
    0x0800b234   0x0800b234   0x00000020   Data   RO         1012    Region$$Table       anon$$obj.o


    Execution Region RW_IRAM1 (Exec base: 0x20000000, Load base: 0x0800b254, Size: 0x00003a50, Max: 0x00010000, ABSOLUTE)

    Exec Addr    Load Addr    Size         Type   Attr      Idx    E Section Name        Object

    0x20000000   0x0800b254   0x00000014   Data   RW          198    .data               system_stm32f10x.o
    0x20000014   0x0800b268   0x00000004   Data   RW          251    .data               delay.o
    0x20000018   0x0800b26c   0x00000006   Data   RW          340    .data               usart.o
    0x2000001e   0x0800b272   0x00000014   Data   RW          415    .data               stm32f10x_rcc.o
    0x20000032   0x0800b286   0x00000002   PAD
    0x20000034   0x0800b288   0x00000004   Data   RW          446    .data               cpu_core.o
    0x20000038   0x0800b28c   0x00000004   Data   RW          519    .data               lib_mem.o
    0x2000003c   0x0800b290   0x00000008   Data   RW          673    .data               os_prio.o
    0x20000044   0x0800b298   0x000000c8   Data   RW          776    .data               os_var.o
    0x2000010c   0x0800b360   0x00000004   Data   RW          793    .data               os_cpu_c.o
    0x20000110   0x0800b364   0x00000004   Data   RW          811    .data               os_app_hooks.o
    0x20000114        -       0x00000e4c   Zero   RW            2    .bss                main.o
    0x20000f60        -       0x000000c8   Zero   RW          339    .bss                usart.o
    0x20001028        -       0x00000010   Zero   RW          444    .bss                cpu_core.o
    0x20001038        -       0x00000448   Zero   RW          518    .bss                lib_mem.o
    0x20001480        -       0x00001490   Zero   RW          557    .bss                os_cfg_app.o
    0x20002910        -       0x000006e0   Zero   RW          775    .bss                os_var.o
    0x20002ff0        -       0x00000060   Zero   RW          890    .bss                c_w.l(libspace.o)
    0x20003050        -       0x00000200   Zero   RW          372    HEAP                startup_stm32f10x_hd.o
    0x20003250        -       0x00000800   Zero   RW          371    STACK               startup_stm32f10x_hd.o


==============================================================================

Image component sizes


      Code (inc. data)   RO Data    RW Data    ZI Data      Debug   Object Name

       132         12          0          0          0       1203   bsp.o
        52          0          0          0          0        372   cpu_a.o
       680         14        260          4         16      14663   cpu_core.o
       332         28          0          4          0      41441   delay.o
        76          8          0          0          0     205435   led.o
       598          0          0          0          0       3936   lib_ascii.o
      2502         32          0          4       1096      22436   lib_mem.o
       544          0          0          0          0        520   lib_mem_a.o
      2348          6        148          0          0      13950   lib_str.o
       684         84          0          0       3660      35980   main.o
       220         22          0          0          0       1929   misc.o
       268         62          0          4          0       1829   os_app_hooks.o
       252        166        164          0       5264      21122   os_cfg_app.o
      3588        294          0          0          0      12565   os_core.o
       152         32          0          0          0        428   os_cpu_a.o
       620         66          0          4          0       4029   os_cpu_c.o
       432        286        364          0          0       4917   os_dbg.o
      3624        110          0          0          0       8147   os_flag.o
      1092        146          0          0          0       2452   os_int.o
       568         20          0          0          0       2876   os_mem.o
       556         12          0          0          0       2911   os_msg.o
      2772        114          0          0          0       5682   os_mutex.o
       124          4          0          8          0       1912   os_prio.o
      2264         76          0          0          0       6448   os_q.o
      2096         70          0          0          0       6468   os_sem.o
      1592        180          0          0          0       2929   os_stat.o
      7092        270          0          0          0      14294   os_task.o
      1276         90          0          0          0       3401   os_tick.o
      1380         46          0          0          0       3405   os_time.o
      2072        140          0          0          0       6594   os_tmr.o
         0          0          0        200       1760      19469   os_var.o
        64         26        304          0       2560        828   startup_stm32f10x_hd.o
       860         38          0          0          0       5869   stm32f10x_gpio.o
        22          0          0          0          0      24399   stm32f10x_it.o
       932         36          0         20          0       9108   stm32f10x_rcc.o
      1032         22          0          0          0       8588   stm32f10x_usart.o
         0          0          0          0          0         32   sys.o
       480         38          0         20          0       1895   system_stm32f10x.o
       336         18          0          6        200       3362   usart.o

    ----------------------------------------------------------------------
     43720       2568       1272        276      14556     527824   Object Totals
         0          0         32          0          0          0   (incl. Generated)
         6          0          0          2          0          0   (incl. Padding)

    ----------------------------------------------------------------------

      Code (inc. data)   RO Data    RW Data    ZI Data      Debug   Library Member Name

         8          0          0          0          0         68   __main.o
        40          0          0          0          0         84   __printf_nopercent.o
         0          0          0          0          0          0   __rtentry.o
        12          0          0          0          0          0   __rtentry2.o
         6          0          0          0          0          0   __rtentry4.o
        52          8          0          0          0          0   __scatter.o
        26          0          0          0          0          0   __scatter_copy.o
        28          0          0          0          0          0   __scatter_zi.o
        48          6          0          0          0         96   _printf_char_common.o
        36          4          0          0          0         80   _printf_char_file.o
        18          0          0          0          0         80   exit.o
         8          0          0          0          0         68   ferror.o
         6          0          0          0          0        152   heapauxi.o
         2          0          0          0          0          0   libinit.o
         2          0          0          0          0          0   libinit2.o
         2          0          0          0          0          0   libshutdown.o
         2          0          0          0          0          0   libshutdown2.o
         8          4          0          0         96         68   libspace.o
       238          0          0          0          0        100   lludivv7m.o
        24          4          0          0          0         84   noretval__2printf.o
         2          0          0          0          0          0   rtexit.o
        10          0          0          0          0          0   rtexit2.o
        74          0          0          0          0         80   sys_stackheap_outer.o
         2          0          0          0          0         68   use_no_semi.o
         2          0          0          0          0         68   use_no_semi_2.o

    ----------------------------------------------------------------------
       660         26          0          0         96       1096   Library Totals
         4          0          0          0          0          0   (incl. Padding)

    ----------------------------------------------------------------------

      Code (inc. data)   RO Data    RW Data    ZI Data      Debug   Library Name

       656         26          0          0         96       1096   c_w.l

    ----------------------------------------------------------------------
       660         26          0          0         96       1096   Library Totals

    ----------------------------------------------------------------------

==============================================================================


      Code (inc. data)   RO Data    RW Data    ZI Data      Debug   

     44380       2594       1272        276      14652     525172   Grand Totals
     44380       2594       1272        276      14652     525172   ELF Image Totals
     44380       2594       1272        276          0          0   ROM Totals

==============================================================================

    Total RO  Size (Code + RO Data)                45652 (  44.58kB)
    Total RW  Size (RW Data + ZI Data)             14928 (  14.58kB)
    Total ROM Size (Code + RO Data + RW Data)      45928 (  44.85kB)

==============================================================================

