:020000040800F2
:100000000804002045010008FD020008AD020008B8
:10001000F90200088D0100087D05000800000000BD
:10002000000000000000000000000000C9030008FC
:10003000910100080000000085030008DD040008AD
:10004000A90500085F0100085F0100085F010008C2
:100050005F0100085F0100085F0100085F01000800
:100060005F0100085F0100085F0100085F010008F0
:100070005F0100085F0100085F0100085F010008E0
:100080005F0100085F0100085F0100085F010008D0
:100090005F0100085F0100085F0100085F010008C0
:1000A0005F0100085F0100085F0100085F010008B0
:1000B0005F0100085F0100085F0100085F010008A0
:1000C0005F0100085F0100085F0100085F01000890
:1000D0005F0100085F0100085F0100085F01000880
:1000E0005F0100085F0100085F0100085F01000870
:1000F0005F0100085F0100085F0100085F01000860
:100100005F0100085F0100085F0100085F0100084F
:100110005F0100085F0100085F0100085F0100083F
:100120005F0100085F0100085F0100085F0100082F
:10013000DFF80CD000F018F800480047CD060008A2
:10014000080400200648804706480047FEE7FEE70F
:10015000FEE7FEE7FEE7FEE7FEE7FEE7FEE7FEE777
:100160001D05000831010008064C074D06E0E06857
:1001700040F0010394E8070098471034AC42F6D3EE
:10018000FFF7DAFF080700082807000800BFFEE7AE
:1001900070472DE9F041024600250026002000238B
:1001A0000024002791F803C00CF00F0591F803C05C
:1001B0000CF0100CBCF1000F03D091F802C04CEA17
:1001C000050591F800C0BCF1000F31D01468002083
:1001D0002BE04FF0010C0CFA00F3B1F800C00CEA70
:1001E00003069E4220D183004FF00F0C0CFA03F758
:1001F000BC4305FA03FC4CEA040491F803C0BCF1CB
:10020000280F06D14FF0010C0CFA00FCC2F814C004
:100210000AE091F803C0BCF1480F05D14FF0010C82
:100220000CFA00FCC2F810C0401C0828D1D314609E
:10023000B1F800C0BCF1FF0F34DD546800202EE09F
:1002400000F1080C4FF0010808FA0CF3B1F800C0F7
:100250000CEA03069E4221D183004FF00F0C0CFAEA
:1002600003F7BC4305FA03FC4CEA040491F803C00D
:10027000BCF1280F05D100F1080C08FA0CF8C2F8FF
:10028000148091F803C0BCF1480F07D100F1080CAD
:100290004FF0010808FA0CF8C2F81080401C08283A
:1002A000CED35460BDE8F0810161704700BFFEE726
:1002B00008B52020ADF8000010208DF803000320C1
:1002C0008DF802000121482000F06EF869460848C8
:1002D000FFF75FFF69460748FFF75BFF20210548EE
:1002E000FFF7E2FF20210248FFF7DEFF08BD000014
:1002F000000C01400018014000BFFEE770470000FD
:1003000070B5002100230F22C47804B3154C246873
:1003100004F4E064C4F5E064210AC1F10403CA40B6
:10032000447804FA03F184781440214309010E4C07
:100330000678A155047804F01F050124AC40057827
:100340006D11AD0005F1E025C5F8004109E0047824
:1003500004F01F050124AC40044D0678761145F8E1
:10036000264070BD0CED00E000E400E080E100E01C
:1003700002490143024A1160704700000000FA057B
:100380000CED00E07047000029B1064AD269024333
:10039000044BDA6104E0034AD2698243014BDA611B
:1003A000704700000010024029B1064A92690243DA
:1003B000044B9A6104E0034A92698243014B9A61BB
:1003C0007047000000100240704710B500F002F8BE
:1003D00010BD00000CB5002001900090334800686B
:1003E00040F480303149086000BF3048006800F4B4
:1003F000003000900198401C0190009818B90198B5
:10040000B0F5A06FF1D12948006800F4003010B1B8
:100410000120009001E0002000900098012843D1C5
:100420002348006840F01000214908600846006831
:1004300020F0030008600846006840F002000860F1
:100440001A484068194948600846406848600846AC
:10045000406840F4806048600846406820F47C10A2
:1004600048600846406840F4E81048600846006864
:1004700040F08070086000BF0C48006800F0007019
:100480000028F9D00948406820F003000749486077
:100490000846406840F00200486000BF03484068DA
:1004A00000F00C000828F9D10CBD0000001002403B
:1004B00000200240042808D14FF0E021096941F0F2
:1004C00004014FF0E022116107E04FF0E0210969DB
:1004D00021F004014FF0E0221161704770470000E5
:1004E00010B504466FF00400FFF7E4FFE11704EBDA
:1004F0005171C910074A11601046006800EB4001B5
:10050000C1EBC0104FF6FF7101EAC000024908803C
:1005100010BD0000000000200400002010B51348AA
:10052000006840F001001149086008464068104921
:1005300008400E494860084600680E4908400B49CB
:1005400008600846006820F480200860084640687B
:1005500020F4FE0048604FF41F008860FFF735FF6D
:100560004FF000600449086010BD00000010024018
:100570000000FFF8FFFFF6FE08ED00E000BFFEE719
:100580000020014908607047082C004040F08001BD
:10059000014A116070470000002C00400120014911
:1005A00008607047A480054210B57F2000F00EF867
:1005B000FFF7E6FF03480068C0430349C1F8940110
:1005C00010BD0000940123420000234200F07F018F
:1005D000014A116070470000002C00400021044ACD
:1005E000126822F4C0710143014A11607047000093
:1005F000042C004008B5002100910749096821F04A
:100600007F01009100F07F01009A11430091024A9E
:100610000099116008BD0000042C004008B50121BC
:10062000C802FFF7B1FE4FF4C070FFF7D7FF5F209D
:10063000FFF7E0FF00208DF8000001208DF8030097
:1006400003208DF801008DF802006846FFF758FE80
:100650007F20FFF79BFFFFF793FFFFF79FFF08BD8A
:1006600002E008C8121F08C1002AFAD1704770477B
:10067000002001E001C1121F002AFBD170470000D9
:100680000146114A12884A434FF0E0235A61002282
:100690009A611A46126942F001021A6100BF4FF0D6
:1006A000E022106900F001021AB100F48032002A41
:1006B000F5D04FF0E022126922F001024FF0E02362
:1006C0001A6100229A617047040000204FF4A06074
:1006D000FFF74EFEFFF7ECFD4820FFF701FF00207B
:1006E000084908604FF47A70FFF7CAFFFFF796FFDA
:1006F00006E00120034908604FF4FA70FFF7C0FFDD
:10070000F7E700009481214228070008000000203C
:1007100008000000600600083007000808000020FC
:100720000004000070060008000000000000000047
:0400000508000131BD
:00000001FF
