Component: ARM Compiler 5.06 update 6 (build 750) Tool: armlink [4d35ed]

==============================================================================

Section Cross References

    system.o(i.RCC_HSE_Config) refers to stm32f10x_rcc.o(i.RCC_DeInit) for RCC_DeInit
    system.o(i.RCC_HSE_Config) refers to stm32f10x_rcc.o(i.RCC_HSEConfig) for RCC_HSEConfig
    system.o(i.RCC_HSE_Config) refers to stm32f10x_rcc.o(i.RCC_WaitForHSEStartUp) for RCC_WaitForHSEStartUp
    system.o(i.RCC_HSE_Config) refers to stm32f10x_rcc.o(i.RCC_HCLKConfig) for RCC_HCLKConfig
    system.o(i.RCC_HSE_Config) refers to stm32f10x_rcc.o(i.RCC_PCLK1Config) for RCC_PCLK1Config
    system.o(i.RCC_HSE_Config) refers to stm32f10x_rcc.o(i.RCC_PCLK2Config) for RCC_PCLK2Config
    system.o(i.RCC_HSE_Config) refers to stm32f10x_rcc.o(i.RCC_PLLConfig) for RCC_PLLConfig
    system.o(i.RCC_HSE_Config) refers to stm32f10x_rcc.o(i.RCC_PLLCmd) for RCC_PLLCmd
    system.o(i.RCC_HSE_Config) refers to stm32f10x_rcc.o(i.RCC_GetFlagStatus) for RCC_GetFlagStatus
    system.o(i.RCC_HSE_Config) refers to stm32f10x_rcc.o(i.RCC_SYSCLKConfig) for RCC_SYSCLKConfig
    system.o(i.RCC_HSE_Config) refers to stm32f10x_rcc.o(i.RCC_GetSYSCLKSource) for RCC_GetSYSCLKSource
    system.o(i.SysTick_Init) refers to misc.o(i.SysTick_CLKSourceConfig) for SysTick_CLKSourceConfig
    system.o(i.SysTick_Init) refers to system.o(.data) for fac_us
    system.o(i.delay_ms) refers to system.o(.data) for fac_ms
    system.o(i.delay_us) refers to system.o(.data) for fac_us
    main.o(i.float_task) refers to faddsub_clz.o(x$fpl$fadd) for __aeabi_fadd
    main.o(i.float_task) refers to cpu_a.o(.text) for CPU_SR_Save
    main.o(i.float_task) refers to cpu_core.o(i.CPU_IntDisMeasStart) for CPU_IntDisMeasStart
==============================================================================

Removing Unused input sections from the image.

    Removing system.o(i.RCC_HSE_Config), (90 bytes).
    Removing system.o(i.delay_us), (76 bytes).
    Removing system_stm32f10x.o(i.SystemCoreClockUpdate), (164 bytes).
    Removing system_stm32f10x.o(.data), (20 bytes).
    Removing core_cm3.o(.emb_text), (32 bytes).
    Removing stm32f10x_gpio.o(i.GPIO_AFIODeInit), (20 bytes).
    Removing stm32f10x_gpio.o(i.GPIO_DeInit), (200 bytes).
    Removing stm32f10x_gpio.o(i.GPIO_ETH_MediaInterfaceConfig), (12 bytes).
    Removing stm32f10x_gpio.o(i.GPIO_EXTILineConfig), (64 bytes).
    Removing stm32f10x_gpio.o(i.GPIO_EventOutputCmd), (12 bytes).
    Removing stm32f10x_gpio.o(i.GPIO_EventOutputConfig), (32 bytes).
    Removing stm32f10x_gpio.o(i.GPIO_PinLockConfig), (18 bytes).
    Removing stm32f10x_gpio.o(i.GPIO_PinRemapConfig), (144 bytes).
    Removing stm32f10x_gpio.o(i.GPIO_ReadInputData), (8 bytes).
    Removing stm32f10x_gpio.o(i.GPIO_ReadInputDataBit), (18 bytes).
    Removing stm32f10x_gpio.o(i.GPIO_ReadOutputData), (8 bytes).
    Removing stm32f10x_gpio.o(i.GPIO_ReadOutputDataBit), (18 bytes).
    Removing stm32f10x_gpio.o(i.GPIO_ResetBits), (4 bytes).
==============================================================================

Image Symbol Table

    Local Symbols

    Symbol Name                              Value     Ov Type        Size  Object(Section)

    ../clib/angel/boardlib.s                 0x00000000   Number         0  boardshut.o ABSOLUTE
    ../clib/angel/boardlib.s                 0x00000000   Number         0  boardinit3.o ABSOLUTE
    ../clib/angel/boardlib.s                 0x00000000   Number         0  boardinit2.o ABSOLUTE
    ../clib/angel/boardlib.s                 0x00000000   Number         0  boardinit1.o ABSOLUTE
    ../clib/angel/handlers.s                 0x00000000   Number         0  __scatter_zi.o ABSOLUTE
    ../clib/angel/handlers.s                 0x00000000   Number         0  __scatter_copy.o ABSOLUTE
    ../clib/angel/kernel.s                   0x00000000   Number         0  rtexit2.o ABSOLUTE
    ../clib/angel/kernel.s                   0x00000000   Number         0  rtexit.o ABSOLUTE
    ../clib/angel/kernel.s                   0x00000000   Number         0  __rtentry.o ABSOLUTE
    ../clib/angel/kernel.s                   0x00000000   Number         0  __rtentry4.o ABSOLUTE
    ../clib/angel/kernel.s                   0x00000000   Number         0  __rtentry2.o ABSOLUTE
    ../clib/angel/rt.s                       0x00000000   Number         0  rt_div0.o ABSOLUTE
    ../clib/angel/rt.s                       0x00000000   Number         0  aeabi_ldiv0_sigfpe.o ABSOLUTE
    ../clib/angel/rt.s                       0x00000000   Number         0  aeabi_ldiv0.o ABSOLUTE
    ../clib/angel/rt.s                       0x00000000   Number         0  rt_raise.o ABSOLUTE
    ../clib/angel/scatter.s                  0x00000000   Number         0  __scatter.o ABSOLUTE
    ../clib/angel/startup.s                  0x00000000   Number         0  __main.o ABSOLUTE
    ../clib/angel/sys.s                      0x00000000   Number         0  indicate_semi.o ABSOLUTE
    ../clib/angel/sys.s                      0x00000000   Number         0  use_no_semi.o ABSOLUTE
    ../clib/angel/sys.s                      0x00000000   Number         0  libspace.o ABSOLUTE
    ../clib/angel/sys.s                      0x00000000   Number         0  sys_stackheap_outer.o ABSOLUTE
    ../clib/angel/sysapp.c                   0x00000000   Number         0  sys_wrch.o ABSOLUTE
    ../clib/angel/sysapp.c                   0x00000000   Number         0  sys_exit.o ABSOLUTE
    ../clib/angel/sysapp.c                   0x00000000   Number         0  sys_command.o ABSOLUTE
    ../clib/armsys.c                         0x00000000   Number         0  argv_veneer.o ABSOLUTE
    ../clib/armsys.c                         0x00000000   Number         0  argv_veneer.o ABSOLUTE
    ../clib/armsys.c                         0x00000000   Number         0  _get_argv_nomalloc.o ABSOLUTE
    ../clib/armsys.c                         0x00000000   Number         0  no_argv.o ABSOLUTE
    ../clib/heapalloc.c                      0x00000000   Number         0  hrguard.o ABSOLUTE
    ../clib/heapaux.c                        0x00000000   Number         0  heapauxi.o ABSOLUTE
    ../clib/libinit.s                        0x00000000   Number         0  libshutdown.o ABSOLUTE
    ../clib/libinit.s                        0x00000000   Number         0  libinit.o ABSOLUTE
    ../clib/libinit.s                        0x00000000   Number         0  libinit2.o ABSOLUTE
    ../clib/libinit.s                        0x00000000   Number         0  libshutdown2.o ABSOLUTE
    ../clib/longlong.s                       0x00000000   Number         0  lludivv7m.o ABSOLUTE
    ../clib/signal.c                         0x00000000   Number         0  defsig_general.o ABSOLUTE
    ../clib/signal.c                         0x00000000   Number         0  defsig_fpe_inner.o ABSOLUTE
    ../clib/signal.c                         0x00000000   Number         0  defsig_exit.o ABSOLUTE
    ../clib/signal.c                         0x00000000   Number         0  defsig_rtred_inner.o ABSOLUTE
    ../clib/signal.c                         0x00000000   Number         0  defsig_rtmem_inner.o ABSOLUTE
    ../clib/signal.c                         0x00000000   Number         0  __raise.o ABSOLUTE
    ../clib/signal.c                         0x00000000   Number         0  defsig_rtmem_outer.o ABSOLUTE
    ../clib/signal.c                         0x00000000   Number         0  defsig_rtmem_formal.o ABSOLUTE
    ../clib/signal.c                         0x00000000   Number         0  defsig_stak_inner.o ABSOLUTE
    ../clib/signal.c                         0x00000000   Number         0  defsig_fpe_outer.o ABSOLUTE
    ../clib/signal.c                         0x00000000   Number         0  defsig_pvfn_inner.o ABSOLUTE
    ../clib/signal.c                         0x00000000   Number         0  defsig_other.o ABSOLUTE
    ../clib/signal.c                         0x00000000   Number         0  defsig_segv_inner.o ABSOLUTE
    ../clib/signal.c                         0x00000000   Number         0  defsig_cppl_inner.o ABSOLUTE
    ../clib/signal.c                         0x00000000   Number         0  defsig_abrt_inner.o ABSOLUTE
    ../clib/signal.c                         0x00000000   Number         0  defsig_fpe_formal.o ABSOLUTE
    ../clib/signal.s                         0x00000000   Number         0  defsig.o ABSOLUTE
    ../clib/stdlib.c                         0x00000000   Number         0  exit.o ABSOLUTE
    ../fplib/faddsub.s                       0x00000000   Number         0  faddsub_clz.o ABSOLUTE
    ../fplib/fnaninf.s                       0x00000000   Number         0  fnaninf.o ABSOLUTE
    ../fplib/fpinit.s                        0x00000000   Number         0  fpinit.o ABSOLUTE
    ../fplib/fretinf.s                       0x00000000   Number         0  fretinf.o ABSOLUTE
    ../fplib/usenofp.s                       0x00000000   Number         0  usenofp.o ABSOLUTE
    App\led\led.c                            0x00000000   Number         0  led.o ABSOLUTE
    App\time\time.c                          0x00000000   Number         0  time.o ABSOLUTE
    Core\\core_cm3.c                         0x00000000   Number         0  core_cm3.o ABSOLUTE
    Core\core_cm3.c                          0x00000000   Number         0  core_cm3.o ABSOLUTE
    Core\startup_stm32f10x_hd.s              0x00000000   Number         0  startup_stm32f10x_hd.o ABSOLUTE
    FWlib\src\misc.c                         0x00000000   Number         0  misc.o ABSOLUTE
    FWlib\src\stm32f10x_exti.c               0x00000000   Number         0  stm32f10x_exti.o ABSOLUTE
    FWlib\src\stm32f10x_gpio.c               0x00000000   Number         0  stm32f10x_gpio.o ABSOLUTE
    FWlib\src\stm32f10x_rcc.c                0x00000000   Number         0  stm32f10x_rcc.o ABSOLUTE
    FWlib\src\stm32f10x_tim.c                0x00000000   Number         0  stm32f10x_tim.o ABSOLUTE
    Public\system.c                          0x00000000   Number         0  system.o ABSOLUTE
    UCOSIII\UCOS-BSP\bsp.c                   0x00000000   Number         0  bsp.o ABSOLUTE
    UCOSIII\UCOS-CONFIG\os_app_hooks.c       0x00000000   Number         0  os_app_hooks.o ABSOLUTE
    UCOSIII\uC-CPU\ARM-Cortex-M3\RealView\cpu_a.asm 0x00000000   Number         0  cpu_a.o ABSOLUTE
    UCOSIII\uC-CPU\ARM-Cortex-M3\RealView\cpu_c.c 0x00000000   Number         0  cpu_c.o ABSOLUTE
    UCOSIII\uC-CPU\cpu_core.c                0x00000000   Number         0  cpu_core.o ABSOLUTE
    UCOSIII\uC-LIB\Ports\ARM-Cortex-M3\RealView\lib_mem_a.asm 0x00000000   Number         0  lib_mem_a.o ABSOLUTE
    UCOSIII\uC-LIB\lib_ascii.c               0x00000000   Number         0  lib_ascii.o ABSOLUTE
    UCOSIII\uC-LIB\lib_math.c                0x00000000   Number         0  lib_math.o ABSOLUTE
    UCOSIII\uC-LIB\lib_mem.c                 0x00000000   Number         0  lib_mem.o ABSOLUTE
    UCOSIII\uC-LIB\lib_str.c                 0x00000000   Number         0  lib_str.o ABSOLUTE
    UCOSIII\uCOS-III\Ports\ARM-Cortex-M3\Generic\RealView\os_cpu_a.s 0x00000000   Number         0  os_cpu_a.o ABSOLUTE
    UCOSIII\uCOS-III\Ports\ARM-Cortex-M3\Generic\RealView\os_cpu_c.c 0x00000000   Number         0  os_cpu_c.o ABSOLUTE
    UCOSIII\uCOS-III\Source\os_cfg_app.c     0x00000000   Number         0  os_cfg_app.o ABSOLUTE
    UCOSIII\uCOS-III\Source\os_core.c        0x00000000   Number         0  os_core.o ABSOLUTE
    UCOSIII\uCOS-III\Source\os_dbg.c         0x00000000   Number         0  os_dbg.o ABSOLUTE
    UCOSIII\uCOS-III\Source\os_flag.c        0x00000000   Number         0  os_flag.o ABSOLUTE
    UCOSIII\uCOS-III\Source\os_int.c         0x00000000   Number         0  os_int.o ABSOLUTE
    UCOSIII\uCOS-III\Source\os_mem.c         0x00000000   Number         0  os_mem.o ABSOLUTE
    UCOSIII\uCOS-III\Source\os_msg.c         0x00000000   Number         0  os_msg.o ABSOLUTE
    UCOSIII\uCOS-III\Source\os_mutex.c       0x00000000   Number         0  os_mutex.o ABSOLUTE
    UCOSIII\uCOS-III\Source\os_pend_multi.c  0x00000000   Number         0  os_pend_multi.o ABSOLUTE
    UCOSIII\uCOS-III\Source\os_prio.c        0x00000000   Number         0  os_prio.o ABSOLUTE
    UCOSIII\uCOS-III\Source\os_q.c           0x00000000   Number         0  os_q.o ABSOLUTE
    UCOSIII\uCOS-III\Source\os_sem.c         0x00000000   Number         0  os_sem.o ABSOLUTE
    UCOSIII\uCOS-III\Source\os_stat.c        0x00000000   Number         0  os_stat.o ABSOLUTE
    UCOSIII\uCOS-III\Source\os_task.c        0x00000000   Number         0  os_task.o ABSOLUTE
    UCOSIII\uCOS-III\Source\os_tick.c        0x00000000   Number         0  os_tick.o ABSOLUTE
    UCOSIII\uCOS-III\Source\os_time.c        0x00000000   Number         0  os_time.o ABSOLUTE
    UCOSIII\uCOS-III\Source\os_tmr.c         0x00000000   Number         0  os_tmr.o ABSOLUTE
    UCOSIII\uCOS-III\Source\os_var.c         0x00000000   Number         0  os_var.o ABSOLUTE
    dc.s                                     0x00000000   Number         0  dc.o ABSOLUTE
    user\main.c                              0x00000000   Number         0  main.o ABSOLUTE
    user\stm32f10x_it.c                      0x00000000   Number         0  stm32f10x_it.o ABSOLUTE
    user\system_stm32f10x.c                  0x00000000   Number         0  system_stm32f10x.o ABSOLUTE
    RESET                                    0x08000000   Section      304  startup_stm32f10x_hd.o(RESET)
    !!!main                                  0x08000130   Section        8  __main.o(!!!main)
    !!!scatter                               0x08000138   Section       52  __scatter.o(!!!scatter)
    !!handler_copy                           0x0800016c   Section       26  __scatter_copy.o(!!handler_copy)
    !!handler_zi                             0x08000188   Section       28  __scatter_zi.o(!!handler_zi)
    .ARM.Collect$$libinit$$00000000          0x080001a4   Section        2  libinit.o(.ARM.Collect$$libinit$$00000000)
    .ARM.Collect$$libinit$$00000002          0x080001a6   Section        0  libinit2.o(.ARM.Collect$$libinit$$00000002)
    .ARM.Collect$$libinit$$00000004          0x080001a6   Section        0  libinit2.o(.ARM.Collect$$libinit$$00000004)
    .ARM.Collect$$libinit$$0000000A          0x080001a6   Section        0  libinit2.o(.ARM.Collect$$libinit$$0000000A)
    .ARM.Collect$$libinit$$0000000C          0x080001a6   Section        0  libinit2.o(.ARM.Collect$$libinit$$0000000C)
    .ARM.Collect$$libinit$$0000000E          0x080001a6   Section        0  libinit2.o(.ARM.Collect$$libinit$$0000000E)
    .ARM.Collect$$libinit$$00000011          0x080001a6   Section        0  libinit2.o(.ARM.Collect$$libinit$$00000011)
    .ARM.Collect$$libinit$$00000013          0x080001a6   Section        0  libinit2.o(.ARM.Collect$$libinit$$00000013)
    .ARM.Collect$$libinit$$00000015          0x080001a6   Section        0  libinit2.o(.ARM.Collect$$libinit$$00000015)
    .ARM.Collect$$libinit$$00000017          0x080001a6   Section        0  libinit2.o(.ARM.Collect$$libinit$$00000017)
    .ARM.Collect$$libinit$$00000019          0x080001a6   Section        0  libinit2.o(.ARM.Collect$$libinit$$00000019)
    .ARM.Collect$$libinit$$0000001B          0x080001a6   Section        0  libinit2.o(.ARM.Collect$$libinit$$0000001B)
    .ARM.Collect$$libinit$$0000001D          0x080001a6   Section        0  libinit2.o(.ARM.Collect$$libinit$$0000001D)
    .ARM.Collect$$libinit$$0000001F          0x080001a6   Section        0  libinit2.o(.ARM.Collect$$libinit$$0000001F)
    .ARM.Collect$$libinit$$00000021          0x080001a6   Section        0  libinit2.o(.ARM.Collect$$libinit$$00000021)
    .ARM.Collect$$libinit$$00000023          0x080001a6   Section        0  libinit2.o(.ARM.Collect$$libinit$$00000023)
    .ARM.Collect$$libinit$$00000025          0x080001a6   Section        0  libinit2.o(.ARM.Collect$$libinit$$00000025)
    .ARM.Collect$$libinit$$0000002C          0x080001a6   Section        0  libinit2.o(.ARM.Collect$$libinit$$0000002C)
    .ARM.Collect$$libinit$$0000002E          0x080001a6   Section        0  libinit2.o(.ARM.Collect$$libinit$$0000002E)
    .ARM.Collect$$libinit$$00000030          0x080001a6   Section        0  libinit2.o(.ARM.Collect$$libinit$$00000030)
    .ARM.Collect$$libinit$$00000032          0x080001a6   Section        0  libinit2.o(.ARM.Collect$$libinit$$00000032)
    .ARM.Collect$$libinit$$00000033          0x080001a6   Section        2  libinit2.o(.ARM.Collect$$libinit$$00000033)
    .ARM.Collect$$libshutdown$$00000000      0x080001a8   Section        2  libshutdown.o(.ARM.Collect$$libshutdown$$00000000)
    .ARM.Collect$$libshutdown$$00000002      0x080001aa   Section        0  libshutdown2.o(.ARM.Collect$$libshutdown$$00000002)
    .ARM.Collect$$libshutdown$$00000004      0x080001aa   Section        0  libshutdown2.o(.ARM.Collect$$libshutdown$$00000004)
    .ARM.Collect$$libshutdown$$00000007      0x080001aa   Section        0  libshutdown2.o(.ARM.Collect$$libshutdown$$00000007)
    .ARM.Collect$$libshutdown$$0000000A      0x080001aa   Section        0  libshutdown2.o(.ARM.Collect$$libshutdown$$0000000A)
    .ARM.Collect$$libshutdown$$0000000C      0x080001aa   Section        0  libshutdown2.o(.ARM.Collect$$libshutdown$$0000000C)
    .ARM.Collect$$libshutdown$$0000000F      0x080001aa   Section        0  libshutdown2.o(.ARM.Collect$$libshutdown$$0000000F)
    .ARM.Collect$$libshutdown$$00000010      0x080001aa   Section        2  libshutdown2.o(.ARM.Collect$$libshutdown$$00000010)
    .ARM.Collect$$rtentry$$00000000          0x080001ac   Section        0  __rtentry.o(.ARM.Collect$$rtentry$$00000000)
    .ARM.Collect$$rtentry$$00000002          0x080001ac   Section        0  __rtentry2.o(.ARM.Collect$$rtentry$$00000002)
    .ARM.Collect$$rtentry$$00000004          0x080001ac   Section        6  __rtentry4.o(.ARM.Collect$$rtentry$$00000004)
    .ARM.Collect$$rtentry$$00000009          0x080001b2   Section        0  __rtentry2.o(.ARM.Collect$$rtentry$$00000009)
    .ARM.Collect$$rtentry$$0000000A          0x080001b2   Section        4  __rtentry2.o(.ARM.Collect$$rtentry$$0000000A)
    .ARM.Collect$$rtentry$$0000000C          0x080001b6   Section        0  __rtentry2.o(.ARM.Collect$$rtentry$$0000000C)
    .ARM.Collect$$rtentry$$0000000D          0x080001b6   Section        8  __rtentry2.o(.ARM.Collect$$rtentry$$0000000D)
    .ARM.Collect$$rtexit$$00000000           0x080001be   Section        2  rtexit.o(.ARM.Collect$$rtexit$$00000000)
    .ARM.Collect$$rtexit$$00000002           0x080001c0   Section        0  rtexit2.o(.ARM.Collect$$rtexit$$00000002)
    .ARM.Collect$$rtexit$$00000003           0x080001c0   Section        4  rtexit2.o(.ARM.Collect$$rtexit$$00000003)
    .ARM.Collect$$rtexit$$00000004           0x080001c4   Section        6  rtexit2.o(.ARM.Collect$$rtexit$$00000004)
    .text                                    0x080001cc   Section       64  startup_stm32f10x_hd.o(.text)
    .text                                    0x0800020c   Section       52  cpu_a.o(.text)
    .text                                    0x08000240   Section        0  heapauxi.o(.text)
    .text                                    0x08000246   Section       74  sys_stackheap_outer.o(.text)
    .text                                    0x08000290   Section        0  exit.o(.text)
    .text                                    0x080002a4   Section        8  libspace.o(.text)
    .text                                    0x080002ac   Section        0  sys_exit.o(.text)
    .text                                    0x080002b8   Section        2  use_no_semi.o(.text)
    .text                                    0x080002ba   Section        0  indicate_semi.o(.text)
    CODE                                     0x080002bc   Section      152  os_cpu_a.o(CODE)
    i.BSP_CPU_ClkFreq                        0x08000354   Section        0  bsp.o(i.BSP_CPU_ClkFreq)
    i.BusFault_Handler                       0x08000364   Section        0  stm32f10x_it.o(i.BusFault_Handler)
    i.CPU_Init                               0x08000368   Section        0  cpu_core.o(i.CPU_Init)
    i.CPU_IntDisMeasInit                     0x08000378   Section        0  cpu_core.o(i.CPU_IntDisMeasInit)
    CPU_IntDisMeasInit                       0x08000379   Thumb Code   104  cpu_core.o(i.CPU_IntDisMeasInit)
    i.CPU_IntDisMeasMaxCalc                  0x080003fc   Section        0  cpu_core.o(i.CPU_IntDisMeasMaxCalc)
    CPU_IntDisMeasMaxCalc                    0x080003fd   Thumb Code    24  cpu_core.o(i.CPU_IntDisMeasMaxCalc)
    i.CPU_IntDisMeasMaxCurGet                0x08000418   Section        0  cpu_core.o(i.CPU_IntDisMeasMaxCurGet)
    i.CPU_IntDisMeasMaxCurReset              0x08000444   Section        0  cpu_core.o(i.CPU_IntDisMeasMaxCurReset)
    i.CPU_IntDisMeasMaxGet                   0x08000470   Section        0  cpu_core.o(i.CPU_IntDisMeasMaxGet)
    i.CPU_IntDisMeasStart                    0x0800049c   Section        0  cpu_core.o(i.CPU_IntDisMeasStart)
    i.CPU_IntDisMeasStop                     0x080004d0   Section        0  cpu_core.o(i.CPU_IntDisMeasStop)
    i.CPU_NameClr                            0x08000524   Section        0  cpu_core.o(i.CPU_NameClr)
    i.CPU_NameInit                           0x0800055c   Section        0  cpu_core.o(i.CPU_NameInit)
    CPU_NameInit                             0x0800055d   Thumb Code     8  cpu_core.o(i.CPU_NameInit)
    i.CPU_TS_Init                            0x08000564   Section        0  cpu_core.o(i.CPU_TS_Init)
    CPU_TS_Init                              0x08000565   Thumb Code    14  cpu_core.o(i.CPU_TS_Init)
    i.CPU_TS_TmrFreqSet                      0x08000578   Section        0  cpu_core.o(i.CPU_TS_TmrFreqSet)
    i.CPU_TS_TmrInit                         0x08000584   Section        0  bsp.o(i.CPU_TS_TmrInit)
    i.CPU_TS_TmrRd                           0x080005b8   Section        0  bsp.o(i.CPU_TS_TmrRd)
    i.DebugMon_Handler                       0x080005c4   Section        0  stm32f10x_it.o(i.DebugMon_Handler)
    i.GPIO_Init                              0x080005c6   Section        0  stm32f10x_gpio.o(i.GPIO_Init)
    i.GPIO_SetBits                           0x080006dc   Section        0  stm32f10x_gpio.o(i.GPIO_SetBits)
    i.HardFault_Handler                      0x080006e0   Section        0  stm32f10x_it.o(i.HardFault_Handler)
    i.LED_Init                               0x080006e4   Section        0  led.o(i.LED_Init)
    i.MemManage_Handler                      0x0800072c   Section        0  stm32f10x_it.o(i.MemManage_Handler)
    i.Mem_Clr                                0x08000730   Section        0  lib_mem.o(i.Mem_Clr)
    i.Mem_Set                                0x08000742   Section        0  lib_mem.o(i.Mem_Set)
    i.NMI_Handler                            0x080007a4   Section        0  stm32f10x_it.o(i.NMI_Handler)
    i.NVIC_PriorityGroupConfig               0x080007a8   Section        0  misc.o(i.NVIC_PriorityGroupConfig)
    i.OSCfg_Init                             0x080007bc   Section        0  os_cfg_app.o(i.OSCfg_Init)
    i.OSIdleTaskHook                         0x080007c0   Section        0  os_cpu_c.o(i.OSIdleTaskHook)
    i.OSInit                                 0x080007d4   Section        0  os_core.o(i.OSInit)
    i.OSInitHook                             0x08000960   Section        0  os_cpu_c.o(i.OSInitHook)
    i.OSSched                                0x08000998   Section        0  os_core.o(i.OSSched)
    i.OSSchedLock                            0x08000a40   Section        0  os_core.o(i.OSSchedLock)
    i.OSSchedRoundRobinCfg                   0x08000abc   Section        0  os_core.o(i.OSSchedRoundRobinCfg)
    i.OSSchedUnlock                          0x08000b28   Section        0  os_core.o(i.OSSchedUnlock)
    i.OSStart                                0x08000bc8   Section        0  os_core.o(i.OSStart)
    i.OSStatReset                            0x08000c30   Section        0  os_stat.o(i.OSStatReset)
    i.OSStatTaskCPUUsageInit                 0x08000d98   Section        0  os_stat.o(i.OSStatTaskCPUUsageInit)
    i.OSStatTaskHook                         0x08000e98   Section        0  os_cpu_c.o(i.OSStatTaskHook)
    i.OSTaskCreate                           0x08000eac   Section        0  os_task.o(i.OSTaskCreate)
    i.OSTaskCreateHook                       0x08001140   Section        0  os_cpu_c.o(i.OSTaskCreateHook)
    i.OSTaskDel                              0x08001158   Section        0  os_task.o(i.OSTaskDel)
    i.OSTaskDelHook                          0x08001360   Section        0  os_cpu_c.o(i.OSTaskDelHook)
    i.OSTaskResume                           0x08001378   Section        0  os_task.o(i.OSTaskResume)
    i.OSTaskReturnHook                       0x08001400   Section        0  os_cpu_c.o(i.OSTaskReturnHook)
    i.OSTaskSemPend                          0x08001418   Section        0  os_task.o(i.OSTaskSemPend)
    i.OSTaskStkChk                           0x08001668   Section        0  os_task.o(i.OSTaskStkChk)
    i.OSTaskStkInit                          0x0800174c   Section        0  os_cpu_c.o(i.OSTaskStkInit)
    i.OSTaskSuspend                          0x0800180c   Section        0  os_task.o(i.OSTaskSuspend)
    i.OSTaskSwHook                           0x0800186c   Section        0  os_cpu_c.o(i.OSTaskSwHook)
    i.OSTimeDly                              0x08001910   Section        0  os_time.o(i.OSTimeDly)
    i.OSTimeDlyHMSM                          0x08001a60   Section        0  os_time.o(i.OSTimeDlyHMSM)
    i.OS_Dbg_Init                            0x08001c8c   Section        0  os_dbg.o(i.OS_Dbg_Init)
    i.OS_FlagInit                            0x08001e40   Section        0  os_flag.o(i.OS_FlagInit)
    i.OS_FlagPost                            0x08001e58   Section        0  os_flag.o(i.OS_FlagPost)
    i.OS_FlagTaskRdy                         0x080020d4   Section        0  os_flag.o(i.OS_FlagTaskRdy)
    i.OS_IdleTask                            0x0800212c   Section        0  os_core.o(i.OS_IdleTask)
    i.OS_IdleTaskInit                        0x08002178   Section        0  os_core.o(i.OS_IdleTaskInit)
    i.OS_IntQPost                            0x080021e8   Section        0  os_int.o(i.OS_IntQPost)
    i.OS_IntQRePost                          0x080022ec   Section        0  os_int.o(i.OS_IntQRePost)
    i.OS_IntQTask                            0x08002490   Section        0  os_int.o(i.OS_IntQTask)
    i.OS_IntQTaskInit                        0x08002558   Section        0  os_int.o(i.OS_IntQTaskInit)
    i.OS_MemInit                             0x08002680   Section        0  os_mem.o(i.OS_MemInit)
    i.OS_MsgPoolInit                         0x08002698   Section        0  os_msg.o(i.OS_MsgPoolInit)
    i.OS_MsgQFreeAll                         0x08002714   Section        0  os_msg.o(i.OS_MsgQFreeAll)
    i.OS_MsgQInit                            0x08002758   Section        0  os_msg.o(i.OS_MsgQInit)
    i.OS_MsgQPut                             0x08002768   Section        0  os_msg.o(i.OS_MsgQPut)
    i.OS_MutexInit                           0x0800286c   Section        0  os_mutex.o(i.OS_MutexInit)
    i.OS_Pend                                0x08002884   Section        0  os_core.o(i.OS_Pend)
    i.OS_PendDataInit                        0x080028ec   Section        0  os_core.o(i.OS_PendDataInit)
    i.OS_PendDbgNameAdd                      0x08002914   Section        0  os_core.o(i.OS_PendDbgNameAdd)
    i.OS_PendDbgNameRemove                   0x08002970   Section        0  os_core.o(i.OS_PendDbgNameRemove)
    i.OS_PendListInsertPrio                  0x08002994   Section        0  os_core.o(i.OS_PendListInsertPrio)
    i.OS_PendListRemove                      0x080029fa   Section        0  os_core.o(i.OS_PendListRemove)
    i.OS_PendListRemove1                     0x08002a2a   Section        0  os_core.o(i.OS_PendListRemove1)
    i.OS_Post                                0x08002a6c   Section        0  os_core.o(i.OS_Post)
    i.OS_Post1                               0x08002b2c   Section        0  os_core.o(i.OS_Post1)
    i.OS_PrioGetHighest                      0x08002b58   Section        0  os_prio.o(i.OS_PrioGetHighest)
    i.OS_PrioInit                            0x08002b80   Section        0  os_prio.o(i.OS_PrioInit)
    i.OS_PrioInsert                          0x08002b98   Section        0  os_prio.o(i.OS_PrioInsert)
    i.OS_PrioRemove                          0x08002bbc   Section        0  os_prio.o(i.OS_PrioRemove)
    i.OS_QInit                               0x08002be0   Section        0  os_q.o(i.OS_QInit)
    i.OS_QPost                               0x08002bf8   Section        0  os_q.o(i.OS_QPost)
    i.OS_RdyListInit                         0x08002d80   Section        0  os_core.o(i.OS_RdyListInit)
    i.OS_RdyListInsert                       0x08002da4   Section        0  os_core.o(i.OS_RdyListInsert)
    i.OS_RdyListInsertHead                   0x08002dd0   Section        0  os_core.o(i.OS_RdyListInsertHead)
    i.OS_RdyListInsertTail                   0x08002e10   Section        0  os_core.o(i.OS_RdyListInsertTail)
    i.OS_RdyListMoveHeadToTail               0x08002e4c   Section        0  os_core.o(i.OS_RdyListMoveHeadToTail)
    i.OS_RdyListRemove                       0x08002e90   Section        0  os_core.o(i.OS_RdyListRemove)
    i.OS_Sched0                              0x08002eec   Section        0  os_core.o(i.OS_Sched0)
    i.OS_SchedLockTimeMeasStart              0x08002f48   Section        0  os_core.o(i.OS_SchedLockTimeMeasStart)
    i.OS_SchedLockTimeMeasStop               0x08002f64   Section        0  os_core.o(i.OS_SchedLockTimeMeasStop)
    i.OS_SchedRoundRobin                     0x08002fa0   Section        0  os_core.o(i.OS_SchedRoundRobin)
    i.OS_SemInit                             0x0800308c   Section        0  os_sem.o(i.OS_SemInit)
    i.OS_SemPost                             0x080030a4   Section        0  os_sem.o(i.OS_SemPost)
    i.OS_StatTask                            0x0800323c   Section        0  os_stat.o(i.OS_StatTask)
    i.OS_StatTaskInit                        0x080035f4   Section        0  os_stat.o(i.OS_StatTaskInit)
    i.OS_TaskBlock                           0x080036c0   Section        0  os_core.o(i.OS_TaskBlock)
    i.OS_TaskDbgListAdd                      0x080036f8   Section        0  os_task.o(i.OS_TaskDbgListAdd)
    i.OS_TaskDbgListRemove                   0x08003728   Section        0  os_task.o(i.OS_TaskDbgListRemove)
    i.OS_TaskInit                            0x0800376c   Section        0  os_task.o(i.OS_TaskInit)
    i.OS_TaskInitTCB                         0x0800378c   Section        0  os_task.o(i.OS_TaskInitTCB)
    i.OS_TaskQPost                           0x0800385c   Section        0  os_task.o(i.OS_TaskQPost)
    i.OS_TaskRdy                             0x08003ac8   Section        0  os_core.o(i.OS_TaskRdy)
    i.OS_TaskResume                          0x08003ae4   Section        0  os_task.o(i.OS_TaskResume)
    i.OS_TaskReturn                          0x08003c60   Section        0  os_task.o(i.OS_TaskReturn)
    i.OS_TaskSemPost                         0x08003c78   Section        0  os_task.o(i.OS_TaskSemPost)
    i.OS_TaskSuspend                         0x08004220   Section        0  os_task.o(i.OS_TaskSuspend)
    i.OS_TickListInit                        0x080043b0   Section        0  os_tick.o(i.OS_TickListInit)
    i.OS_TickListInsert                      0x080043d8   Section        0  os_tick.o(i.OS_TickListInsert)
    i.OS_TickListRemove                      0x08004594   Section        0  os_tick.o(i.OS_TickListRemove)
    i.OS_TickListResetPeak                   0x080045cc   Section        0  os_tick.o(i.OS_TickListResetPeak)
    i.OS_TickListUpdate                      0x080045f0   Section        0  os_tick.o(i.OS_TickListUpdate)
    i.OS_TickTask                            0x08004810   Section        0  os_tick.o(i.OS_TickTask)
    i.OS_TickTaskInit                        0x0800483c   Section        0  os_tick.o(i.OS_TickTaskInit)
    i.OS_TmrInit                             0x080048f4   Section        0  os_tmr.o(i.OS_TmrInit)
    i.OS_TmrLink                             0x08004a1c   Section        0  os_tmr.o(i.OS_TmrLink)
    i.OS_TmrResetPeak                        0x08004aec   Section        0  os_tmr.o(i.OS_TmrResetPeak)
    i.OS_TmrTask                             0x08004b10   Section        0  os_tmr.o(i.OS_TmrTask)
    i.OS_TmrUnlink                           0x08004bd0   Section        0  os_tmr.o(i.OS_TmrUnlink)
    i.RCC_APB2PeriphClockCmd                 0x08004c20   Section        0  stm32f10x_rcc.o(i.RCC_APB2PeriphClockCmd)
    i.RCC_GetClocksFreq                      0x08004c40   Section        0  stm32f10x_rcc.o(i.RCC_GetClocksFreq)
    i.SVC_Handler                            0x08004d14   Section        0  stm32f10x_it.o(i.SVC_Handler)
    i.SetSysClock                            0x08004d16   Section        0  system_stm32f10x.o(i.SetSysClock)
    SetSysClock                              0x08004d17   Thumb Code     8  system_stm32f10x.o(i.SetSysClock)
    i.SetSysClockTo72                        0x08004d20   Section        0  system_stm32f10x.o(i.SetSysClockTo72)
    SetSysClockTo72                          0x08004d21   Thumb Code   214  system_stm32f10x.o(i.SetSysClockTo72)
    i.SysTick_CLKSourceConfig                0x08004e00   Section        0  misc.o(i.SysTick_CLKSourceConfig)
    i.SysTick_Init                           0x08004e28   Section        0  system.o(i.SysTick_Init)
    i.SystemInit                             0x08004e64   Section        0  system_stm32f10x.o(i.SystemInit)
    i.TIM4_IRQHandler                        0x08004ec4   Section        0  time.o(i.TIM4_IRQHandler)
    i.TIM_ClearITPendingBit                  0x08004ef4   Section        0  stm32f10x_tim.o(i.TIM_ClearITPendingBit)
    i.TIM_GetITStatus                        0x08004efa   Section        0  stm32f10x_tim.o(i.TIM_GetITStatus)
    i.UsageFault_Handler                     0x08004f1c   Section        0  stm32f10x_it.o(i.UsageFault_Handler)
    i.delay_ms                               0x08004f20   Section        0  system.o(i.delay_ms)
    i.float_task                             0x08004f6c   Section        0  main.o(i.float_task)
    i.led0_task                              0x08005044   Section        0  main.o(i.led0_task)
    i.led1_task                              0x08005088   Section        0  main.o(i.led1_task)
    i.main                                   0x080050b8   Section        0  main.o(i.main)
    i.start_task                             0x080051dc   Section        0  main.o(i.start_task)
    x$fpl$fadd                               0x08005398   Section      196  faddsub_clz.o(x$fpl$fadd)
    _fadd1                                   0x080053a7   Thumb Code     0  faddsub_clz.o(x$fpl$fadd)
    x$fpl$fnaninf                            0x0800545c   Section      140  fnaninf.o(x$fpl$fnaninf)
    x$fpl$fretinf                            0x080054e8   Section       10  fretinf.o(x$fpl$fretinf)
    x$fpl$fsub                               0x080054f4   Section      234  faddsub_clz.o(x$fpl$fsub)
    _fsub1                                   0x08005503   Thumb Code     0  faddsub_clz.o(x$fpl$fsub)
    x$fpl$usenofp                            0x080055de   Section        0  usenofp.o(x$fpl$usenofp)
    .constdata                               0x080055e0   Section      164  os_cfg_app.o(.constdata)
    .constdata                               0x08005684   Section      364  os_dbg.o(.constdata)
    .data                                    0x20000000   Section        6  system.o(.data)
    fac_us                                   0x20000000   Data           4  system.o(.data)
    fac_ms                                   0x20000004   Data           2  system.o(.data)
    .data                                    0x20000008   Section        4  main.o(.data)
    float_num                                0x20000008   Data           4  main.o(.data)
    .data                                    0x2000000c   Section       20  stm32f10x_rcc.o(.data)
    APBAHBPrescTable                         0x2000000c   Data          16  stm32f10x_rcc.o(.data)
    ADCPrescTable                            0x2000001c   Data           4  stm32f10x_rcc.o(.data)
    .data                                    0x20000020   Section       28  cpu_core.o(.data)
    .data                                    0x2000003c   Section        4  os_prio.o(.data)
    .data                                    0x20000040   Section      208  os_var.o(.data)
    .data                                    0x20000110   Section        4  os_cpu_c.o(.data)
    .bss                                     0x20000118   Section     4384  main.o(.bss)
    .bss                                     0x20001238   Section       16  cpu_core.o(.bss)
    .bss                                     0x20001248   Section     5264  os_cfg_app.o(.bss)
    .bss                                     0x200026d8   Section     1396  os_var.o(.bss)
    .bss                                     0x20002c4c   Section       96  libspace.o(.bss)
    HEAP                                     0x20002cb0   Section      512  startup_stm32f10x_hd.o(HEAP)
    Heap_Mem                                 0x20002cb0   Data         512  startup_stm32f10x_hd.o(HEAP)
    STACK                                    0x20002eb0   Section     1024  startup_stm32f10x_hd.o(STACK)
    Stack_Mem                                0x20002eb0   Data        1024  startup_stm32f10x_hd.o(STACK)
    __initial_sp                             0x200032b0   Data           0  startup_stm32f10x_hd.o(STACK)

    Global Symbols

    Symbol Name                              Value     Ov Type        Size  Object(Section)

    BuildAttributes$$THM_ISAv4$P$D$K$B$S$PE$A:L22UL41UL21$X:L11$S22US41US21$IEEE1$IW$USESV6$~STKCKD$USESV7$~SHL$OSPACE$ROPI$EBA8$UX$STANDARDLIB$REQ8$PRES8$EABIv2 0x00000000   Number         0  anon$$obj.o ABSOLUTE
    __ARM_use_no_argv                        0x00000000   Number         0  main.o ABSOLUTE
    __ARM_exceptions_init                     - Undefined Weak Reference
    __alloca_initialize                       - Undefined Weak Reference
    __arm_preinit_                            - Undefined Weak Reference
    __cpp_initialize__aeabi_                  - Undefined Weak Reference
    __cxa_finalize                            - Undefined Weak Reference
    __rt_locale                               - Undefined Weak Reference
    __sigvec_lookup                           - Undefined Weak Reference
    _atexit_init                              - Undefined Weak Reference
    _call_atexit_fns                          - Undefined Weak Reference
    _clock_init                               - Undefined Weak Reference
    _fp_trap_init                             - Undefined Weak Reference
    _fp_trap_shutdown                         - Undefined Weak Reference
    _get_lc_collate                           - Undefined Weak Reference
    _get_lc_ctype                             - Undefined Weak Reference
    _get_lc_monetary                          - Undefined Weak Reference
    _get_lc_numeric                           - Undefined Weak Reference
    _get_lc_time                              - Undefined Weak Reference
    _getenv_init                              - Undefined Weak Reference
    _handle_redirection                       - Undefined Weak Reference
    _init_alloc                               - Undefined Weak Reference
    _init_user_alloc                          - Undefined Weak Reference
    _initio                                   - Undefined Weak Reference
    _rand_init                                - Undefined Weak Reference
    _signal_finish                            - Undefined Weak Reference
    _signal_init                              - Undefined Weak Reference
    _terminate_alloc                          - Undefined Weak Reference
    _terminate_user_alloc                     - Undefined Weak Reference
    _terminateio                              - Undefined Weak Reference
    __Vectors_Size                           0x00000130   Number         0  startup_stm32f10x_hd.o ABSOLUTE
    __Vectors                                0x08000000   Data           4  startup_stm32f10x_hd.o(RESET)
    __Vectors_End                            0x08000130   Data           0  startup_stm32f10x_hd.o(RESET)
    __main                                   0x08000131   Thumb Code     8  __main.o(!!!main)
    __scatterload                            0x08000139   Thumb Code     0  __scatter.o(!!!scatter)
    __scatterload_rt2                        0x08000139   Thumb Code    44  __scatter.o(!!!scatter)
    __scatterload_rt2_thumb_only             0x08000139   Thumb Code     0  __scatter.o(!!!scatter)
    __scatterload_null                       0x08000147   Thumb Code     0  __scatter.o(!!!scatter)
    __scatterload_copy                       0x0800016d   Thumb Code    26  __scatter_copy.o(!!handler_copy)
    __scatterload_zeroinit                   0x08000189   Thumb Code    28  __scatter_zi.o(!!handler_zi)
    __rt_lib_init                            0x080001a5   Thumb Code     0  libinit.o(.ARM.Collect$$libinit$$00000000)
    __rt_lib_init_alloca_1                   0x080001a7   Thumb Code     0  libinit2.o(.ARM.Collect$$libinit$$0000002E)
    __rt_lib_init_argv_1                     0x080001a7   Thumb Code     0  libinit2.o(.ARM.Collect$$libinit$$0000002C)
    __rt_lib_init_atexit_1                   0x080001a7   Thumb Code     0  libinit2.o(.ARM.Collect$$libinit$$0000001B)
    __rt_lib_init_clock_1                    0x080001a7   Thumb Code     0  libinit2.o(.ARM.Collect$$libinit$$00000021)
    __rt_lib_init_cpp_1                      0x080001a7   Thumb Code     0  libinit2.o(.ARM.Collect$$libinit$$00000032)
    __rt_lib_init_exceptions_1               0x080001a7   Thumb Code     0  libinit2.o(.ARM.Collect$$libinit$$00000030)
    __rt_lib_init_fp_1                       0x080001a7   Thumb Code     0  libinit2.o(.ARM.Collect$$libinit$$00000002)
    __rt_lib_init_fp_trap_1                  0x080001a7   Thumb Code     0  libinit2.o(.ARM.Collect$$libinit$$0000001F)
    __rt_lib_init_getenv_1                   0x080001a7   Thumb Code     0  libinit2.o(.ARM.Collect$$libinit$$00000023)
    __rt_lib_init_heap_1                     0x080001a7   Thumb Code     0  libinit2.o(.ARM.Collect$$libinit$$0000000A)
    __rt_lib_init_lc_collate_1               0x080001a7   Thumb Code     0  libinit2.o(.ARM.Collect$$libinit$$00000011)
    __rt_lib_init_lc_ctype_1                 0x080001a7   Thumb Code     0  libinit2.o(.ARM.Collect$$libinit$$00000013)
    __rt_lib_init_lc_monetary_1              0x080001a7   Thumb Code     0  libinit2.o(.ARM.Collect$$libinit$$00000015)
    __rt_lib_init_lc_numeric_1               0x080001a7   Thumb Code     0  libinit2.o(.ARM.Collect$$libinit$$00000017)
    __rt_lib_init_lc_time_1                  0x080001a7   Thumb Code     0  libinit2.o(.ARM.Collect$$libinit$$00000019)
    __rt_lib_init_preinit_1                  0x080001a7   Thumb Code     0  libinit2.o(.ARM.Collect$$libinit$$00000004)
    __rt_lib_init_rand_1                     0x080001a7   Thumb Code     0  libinit2.o(.ARM.Collect$$libinit$$0000000E)
    __rt_lib_init_return                     0x080001a7   Thumb Code     0  libinit2.o(.ARM.Collect$$libinit$$00000033)
    __rt_lib_init_signal_1                   0x080001a7   Thumb Code     0  libinit2.o(.ARM.Collect$$libinit$$0000001D)
    __rt_lib_init_stdio_1                    0x080001a7   Thumb Code     0  libinit2.o(.ARM.Collect$$libinit$$00000025)
    __rt_lib_init_user_alloc_1               0x080001a7   Thumb Code     0  libinit2.o(.ARM.Collect$$libinit$$0000000C)
    __rt_lib_shutdown                        0x080001a9   Thumb Code     0  libshutdown.o(.ARM.Collect$$libshutdown$$00000000)
    __rt_lib_shutdown_cpp_1                  0x080001ab   Thumb Code     0  libshutdown2.o(.ARM.Collect$$libshutdown$$00000002)
    __rt_lib_shutdown_fp_trap_1              0x080001ab   Thumb Code     0  libshutdown2.o(.ARM.Collect$$libshutdown$$00000007)
    __rt_lib_shutdown_heap_1                 0x080001ab   Thumb Code     0  libshutdown2.o(.ARM.Collect$$libshutdown$$0000000F)
    __rt_lib_shutdown_return                 0x080001ab   Thumb Code     0  libshutdown2.o(.ARM.Collect$$libshutdown$$00000010)
    __rt_lib_shutdown_signal_1               0x080001ab   Thumb Code     0  libshutdown2.o(.ARM.Collect$$libshutdown$$0000000A)
    __rt_lib_shutdown_stdio_1                0x080001ab   Thumb Code     0  libshutdown2.o(.ARM.Collect$$libshutdown$$00000004)
    __rt_lib_shutdown_user_alloc_1           0x080001ab   Thumb Code     0  libshutdown2.o(.ARM.Collect$$libshutdown$$0000000C)
    __rt_entry                               0x080001ad   Thumb Code     0  __rtentry.o(.ARM.Collect$$rtentry$$00000000)
    __rt_entry_presh_1                       0x080001ad   Thumb Code     0  __rtentry2.o(.ARM.Collect$$rtentry$$00000002)
    __rt_entry_sh                            0x080001ad   Thumb Code     0  __rtentry4.o(.ARM.Collect$$rtentry$$00000004)
    __rt_entry_li                            0x080001b3   Thumb Code     0  __rtentry2.o(.ARM.Collect$$rtentry$$0000000A)
    __rt_entry_postsh_1                      0x080001b3   Thumb Code     0  __rtentry2.o(.ARM.Collect$$rtentry$$00000009)
    __rt_entry_main                          0x080001b7   Thumb Code     0  __rtentry2.o(.ARM.Collect$$rtentry$$0000000D)
    __rt_entry_postli_1                      0x080001b7   Thumb Code     0  __rtentry2.o(.ARM.Collect$$rtentry$$0000000C)
    __rt_exit                                0x080001bf   Thumb Code     0  rtexit.o(.ARM.Collect$$rtexit$$00000000)
    __rt_exit_ls                             0x080001c1   Thumb Code     0  rtexit2.o(.ARM.Collect$$rtexit$$00000003)
    __rt_exit_prels_1                        0x080001c1   Thumb Code     0  rtexit2.o(.ARM.Collect$$rtexit$$00000002)
    __rt_exit_exit                           0x080001c5   Thumb Code     0  rtexit2.o(.ARM.Collect$$rtexit$$00000004)
    Reset_Handler                            0x080001cd   Thumb Code     8  startup_stm32f10x_hd.o(.text)
    SysTick_Handler                          0x080001e5   Thumb Code     2  startup_stm32f10x_hd.o(.text)
    ADC1_2_IRQHandler                        0x080001e7   Thumb Code     0  startup_stm32f10x_hd.o(.text)
    ADC3_IRQHandler                          0x080001e7   Thumb Code     0  startup_stm32f10x_hd.o(.text)
    CAN1_RX1_IRQHandler                      0x080001e7   Thumb Code     0  startup_stm32f10x_hd.o(.text)
    CAN1_SCE_IRQHandler                      0x080001e7   Thumb Code     0  startup_stm32f10x_hd.o(.text)
    DMA1_Channel1_IRQHandler                 0x080001e7   Thumb Code     0  startup_stm32f10x_hd.o(.text)
    DMA1_Channel2_IRQHandler                 0x080001e7   Thumb Code     0  startup_stm32f10x_hd.o(.text)
    DMA1_Channel3_IRQHandler                 0x080001e7   Thumb Code     0  startup_stm32f10x_hd.o(.text)
    DMA1_Channel4_IRQHandler                 0x080001e7   Thumb Code     0  startup_stm32f10x_hd.o(.text)
    DMA1_Channel5_IRQHandler                 0x080001e7   Thumb Code     0  startup_stm32f10x_hd.o(.text)
    DMA1_Channel6_IRQHandler                 0x080001e7   Thumb Code     0  startup_stm32f10x_hd.o(.text)
    DMA1_Channel7_IRQHandler                 0x080001e7   Thumb Code     0  startup_stm32f10x_hd.o(.text)
    DMA2_Channel1_IRQHandler                 0x080001e7   Thumb Code     0  startup_stm32f10x_hd.o(.text)
    DMA2_Channel2_IRQHandler                 0x080001e7   Thumb Code     0  startup_stm32f10x_hd.o(.text)
    DMA2_Channel3_IRQHandler                 0x080001e7   Thumb Code     0  startup_stm32f10x_hd.o(.text)
    DMA2_Channel4_5_IRQHandler               0x080001e7   Thumb Code     0  startup_stm32f10x_hd.o(.text)
    EXTI0_IRQHandler                         0x080001e7   Thumb Code     0  startup_stm32f10x_hd.o(.text)
    EXTI15_10_IRQHandler                     0x080001e7   Thumb Code     0  startup_stm32f10x_hd.o(.text)
    EXTI1_IRQHandler                         0x080001e7   Thumb Code     0  startup_stm32f10x_hd.o(.text)
    EXTI2_IRQHandler                         0x080001e7   Thumb Code     0  startup_stm32f10x_hd.o(.text)
    EXTI3_IRQHandler                         0x080001e7   Thumb Code     0  startup_stm32f10x_hd.o(.text)
    EXTI4_IRQHandler                         0x080001e7   Thumb Code     0  startup_stm32f10x_hd.o(.text)
    EXTI9_5_IRQHandler                       0x080001e7   Thumb Code     0  startup_stm32f10x_hd.o(.text)
    FLASH_IRQHandler                         0x080001e7   Thumb Code     0  startup_stm32f10x_hd.o(.text)
    FSMC_IRQHandler                          0x080001e7   Thumb Code     0  startup_stm32f10x_hd.o(.text)
    I2C1_ER_IRQHandler                       0x080001e7   Thumb Code     0  startup_stm32f10x_hd.o(.text)
    I2C1_EV_IRQHandler                       0x080001e7   Thumb Code     0  startup_stm32f10x_hd.o(.text)
    I2C2_ER_IRQHandler                       0x080001e7   Thumb Code     0  startup_stm32f10x_hd.o(.text)
    I2C2_EV_IRQHandler                       0x080001e7   Thumb Code     0  startup_stm32f10x_hd.o(.text)
    PVD_IRQHandler                           0x080001e7   Thumb Code     0  startup_stm32f10x_hd.o(.text)
    RCC_IRQHandler                           0x080001e7   Thumb Code     0  startup_stm32f10x_hd.o(.text)
    RTCAlarm_IRQHandler                      0x080001e7   Thumb Code     0  startup_stm32f10x_hd.o(.text)
    RTC_IRQHandler                           0x080001e7   Thumb Code     0  startup_stm32f10x_hd.o(.text)
    SDIO_IRQHandler                          0x080001e7   Thumb Code     0  startup_stm32f10x_hd.o(.text)
    SPI1_IRQHandler                          0x080001e7   Thumb Code     0  startup_stm32f10x_hd.o(.text)
    SPI2_IRQHandler                          0x080001e7   Thumb Code     0  startup_stm32f10x_hd.o(.text)
    SPI3_IRQHandler                          0x080001e7   Thumb Code     0  startup_stm32f10x_hd.o(.text)
    TAMPER_IRQHandler                        0x080001e7   Thumb Code     0  startup_stm32f10x_hd.o(.text)
    TIM1_BRK_IRQHandler                      0x080001e7   Thumb Code     0  startup_stm32f10x_hd.o(.text)
    TIM1_CC_IRQHandler                       0x080001e7   Thumb Code     0  startup_stm32f10x_hd.o(.text)
    TIM1_TRG_COM_IRQHandler                  0x080001e7   Thumb Code     0  startup_stm32f10x_hd.o(.text)
    TIM1_UP_IRQHandler                       0x080001e7   Thumb Code     0  startup_stm32f10x_hd.o(.text)
    TIM2_IRQHandler                          0x080001e7   Thumb Code     0  startup_stm32f10x_hd.o(.text)
    TIM3_IRQHandler                          0x080001e7   Thumb Code     0  startup_stm32f10x_hd.o(.text)
    TIM5_IRQHandler                          0x080001e7   Thumb Code     0  startup_stm32f10x_hd.o(.text)
    TIM6_IRQHandler                          0x080001e7   Thumb Code     0  startup_stm32f10x_hd.o(.text)
    TIM7_IRQHandler                          0x080001e7   Thumb Code     0  startup_stm32f10x_hd.o(.text)
    TIM8_BRK_IRQHandler                      0x080001e7   Thumb Code     0  startup_stm32f10x_hd.o(.text)
    TIM8_CC_IRQHandler                       0x080001e7   Thumb Code     0  startup_stm32f10x_hd.o(.text)
    TIM8_TRG_COM_IRQHandler                  0x080001e7   Thumb Code     0  startup_stm32f10x_hd.o(.text)
    TIM8_UP_IRQHandler                       0x080001e7   Thumb Code     0  startup_stm32f10x_hd.o(.text)
    UART4_IRQHandler                         0x080001e7   Thumb Code     0  startup_stm32f10x_hd.o(.text)
    UART5_IRQHandler                         0x080001e7   Thumb Code     0  startup_stm32f10x_hd.o(.text)
    USART1_IRQHandler                        0x080001e7   Thumb Code     0  startup_stm32f10x_hd.o(.text)
    USART2_IRQHandler                        0x080001e7   Thumb Code     0  startup_stm32f10x_hd.o(.text)
    USART3_IRQHandler                        0x080001e7   Thumb Code     0  startup_stm32f10x_hd.o(.text)
    USBWakeUp_IRQHandler                     0x080001e7   Thumb Code     0  startup_stm32f10x_hd.o(.text)
    USB_HP_CAN1_TX_IRQHandler                0x080001e7   Thumb Code     0  startup_stm32f10x_hd.o(.text)
    USB_LP_CAN1_RX0_IRQHandler               0x080001e7   Thumb Code     0  startup_stm32f10x_hd.o(.text)
    WWDG_IRQHandler                          0x080001e7   Thumb Code     0  startup_stm32f10x_hd.o(.text)
    __user_initial_stackheap                 0x080001e9   Thumb Code     0  startup_stm32f10x_hd.o(.text)
    CPU_IntDis                               0x0800020d   Thumb Code     0  cpu_a.o(.text)
    CPU_IntEn                                0x08000211   Thumb Code     0  cpu_a.o(.text)
    CPU_SR_Save                              0x08000215   Thumb Code     0  cpu_a.o(.text)
    CPU_SR_Restore                           0x0800021d   Thumb Code     0  cpu_a.o(.text)
    CPU_WaitForInt                           0x08000223   Thumb Code     0  cpu_a.o(.text)
    CPU_WaitForExcept                        0x08000227   Thumb Code     0  cpu_a.o(.text)
    CPU_CntLeadZeros                         0x0800022b   Thumb Code     0  cpu_a.o(.text)
    CPU_CntTrailZeros                        0x08000231   Thumb Code     0  cpu_a.o(.text)
    CPU_RevBits                              0x0800023b   Thumb Code     0  cpu_a.o(.text)
    __use_two_region_memory                  0x08000241   Thumb Code     2  heapauxi.o(.text)
    __rt_heap_escrow$2region                 0x08000243   Thumb Code     2  heapauxi.o(.text)
    __rt_heap_expand$2region                 0x08000245   Thumb Code     2  heapauxi.o(.text)
    __user_setup_stackheap                   0x08000247   Thumb Code    74  sys_stackheap_outer.o(.text)
    exit                                     0x08000291   Thumb Code    18  exit.o(.text)
    __user_libspace                          0x080002a5   Thumb Code     8  libspace.o(.text)
    __user_perproc_libspace                  0x080002a5   Thumb Code     0  libspace.o(.text)
    __user_perthread_libspace                0x080002a5   Thumb Code     0  libspace.o(.text)
    _sys_exit                                0x080002ad   Thumb Code     8  sys_exit.o(.text)
    __I$use$semihosting                      0x080002b9   Thumb Code     0  use_no_semi.o(.text)
    __use_no_semihosting_swi                 0x080002b9   Thumb Code     2  use_no_semi.o(.text)
    __semihosting_library_function           0x080002bb   Thumb Code     0  indicate_semi.o(.text)
    OSStartHighRdy                           0x080002bd   Thumb Code     0  os_cpu_a.o(CODE)
    PendSV_Handler                           0x080002f3   Thumb Code     0  os_cpu_a.o(CODE)
    BSP_CPU_ClkFreq                          0x08000355   Thumb Code    16  bsp.o(i.BSP_CPU_ClkFreq)
    BusFault_Handler                         0x08000365   Thumb Code     4  stm32f10x_it.o(i.BusFault_Handler)
    CPU_Init                                 0x08000369   Thumb Code    16  cpu_core.o(i.CPU_Init)
    CPU_IntDisMeasMaxCurGet                  0x08000419   Thumb Code    40  cpu_core.o(i.CPU_IntDisMeasMaxCurGet)
    CPU_IntDisMeasMaxCurReset                0x08000445   Thumb Code    40  cpu_core.o(i.CPU_IntDisMeasMaxCurReset)
    CPU_IntDisMeasMaxGet                     0x08000471   Thumb Code    40  cpu_core.o(i.CPU_IntDisMeasMaxGet)
    CPU_IntDisMeasStart                      0x0800049d   Thumb Code    38  cpu_core.o(i.CPU_IntDisMeasStart)
    CPU_IntDisMeasStop                       0x080004d1   Thumb Code    62  cpu_core.o(i.CPU_IntDisMeasStop)
    CPU_NameClr                              0x08000525   Thumb Code    50  cpu_core.o(i.CPU_NameClr)
    CPU_TS_TmrFreqSet                        0x08000579   Thumb Code     6  cpu_core.o(i.CPU_TS_TmrFreqSet)
    CPU_TS_TmrInit                           0x08000585   Thumb Code    44  bsp.o(i.CPU_TS_TmrInit)
    CPU_TS_TmrRd                             0x080005b9   Thumb Code     6  bsp.o(i.CPU_TS_TmrRd)
    DebugMon_Handler                         0x080005c5   Thumb Code     2  stm32f10x_it.o(i.DebugMon_Handler)
    GPIO_Init                                0x080005c7   Thumb Code   278  stm32f10x_gpio.o(i.GPIO_Init)
    GPIO_SetBits                             0x080006dd   Thumb Code     4  stm32f10x_gpio.o(i.GPIO_SetBits)
    HardFault_Handler                        0x080006e1   Thumb Code     4  stm32f10x_it.o(i.HardFault_Handler)
    LED_Init                                 0x080006e5   Thumb Code    62  led.o(i.LED_Init)
    MemManage_Handler                        0x0800072d   Thumb Code     4  stm32f10x_it.o(i.MemManage_Handler)
    Mem_Clr                                  0x08000731   Thumb Code    18  lib_mem.o(i.Mem_Clr)
    Mem_Set                                  0x08000743   Thumb Code    98  lib_mem.o(i.Mem_Set)
    NMI_Handler                              0x080007a5   Thumb Code     2  stm32f10x_it.o(i.NMI_Handler)
    NVIC_PriorityGroupConfig                 0x080007a9   Thumb Code    10  misc.o(i.NVIC_PriorityGroupConfig)
    OSCfg_Init                               0x080007bd   Thumb Code     2  os_cfg_app.o(i.OSCfg_Init)
    OSIdleTaskHook                           0x080007c1   Thumb Code    16  os_cpu_c.o(i.OSIdleTaskHook)
    OSInit                                   0x080007d5   Thumb Code   300  os_core.o(i.OSInit)
    OSInitHook                               0x08000961   Thumb Code    42  os_cpu_c.o(i.OSInitHook)
    OSSched                                  0x08000999   Thumb Code   134  os_core.o(i.OSSched)
    OSSchedLock                              0x08000a41   Thumb Code   112  os_core.o(i.OSSchedLock)
    OSSchedRoundRobinCfg                     0x08000abd   Thumb Code    96  os_core.o(i.OSSchedRoundRobinCfg)
    OSSchedUnlock                            0x08000b29   Thumb Code   148  os_core.o(i.OSSchedUnlock)
    OSStart                                  0x08000bc9   Thumb Code    78  os_core.o(i.OSStart)
    OSStatReset                              0x08000c31   Thumb Code   316  os_stat.o(i.OSStatReset)
    OSStatTaskCPUUsageInit                   0x08000d99   Thumb Code   228  os_stat.o(i.OSStatTaskCPUUsageInit)
    OSStatTaskHook                           0x08000e99   Thumb Code    16  os_cpu_c.o(i.OSStatTaskHook)
    OSTaskCreate                             0x08000ead   Thumb Code   624  os_task.o(i.OSTaskCreate)
    OSTaskCreateHook                         0x08001141   Thumb Code    20  os_cpu_c.o(i.OSTaskCreateHook)
    OSTaskDel                                0x08001159   Thumb Code   490  os_task.o(i.OSTaskDel)
    OSTaskDelHook                            0x08001361   Thumb Code    20  os_cpu_c.o(i.OSTaskDelHook)
    OSTaskResume                             0x08001379   Thumb Code   124  os_task.o(i.OSTaskResume)
    OSTaskReturnHook                         0x08001401   Thumb Code    20  os_cpu_c.o(i.OSTaskReturnHook)
    OSTaskSemPend                            0x08001419   Thumb Code   578  os_task.o(i.OSTaskSemPend)
    OSTaskStkChk                             0x08001669   Thumb Code   220  os_task.o(i.OSTaskStkChk)
    OSTaskStkInit                            0x0800174d   Thumb Code   188  os_cpu_c.o(i.OSTaskStkInit)
    OSTaskSuspend                            0x0800180d   Thumb Code    78  os_task.o(i.OSTaskSuspend)
    OSTaskSwHook                             0x0800186d   Thumb Code   146  os_cpu_c.o(i.OSTaskSwHook)
    OSTimeDly                                0x08001911   Thumb Code   322  os_time.o(i.OSTimeDly)
    OSTimeDlyHMSM                            0x08001a61   Thumb Code   538  os_time.o(i.OSTimeDlyHMSM)
    OS_Dbg_Init                              0x08001c8d   Thumb Code   150  os_dbg.o(i.OS_Dbg_Init)
    OS_FlagInit                              0x08001e41   Thumb Code    14  os_flag.o(i.OS_FlagInit)
    OS_FlagPost                              0x08001e59   Thumb Code   626  os_flag.o(i.OS_FlagPost)
    OS_FlagTaskRdy                           0x080020d5   Thumb Code    86  os_flag.o(i.OS_FlagTaskRdy)
    OS_IdleTask                              0x0800212d   Thumb Code    68  os_core.o(i.OS_IdleTask)
    OS_IdleTaskInit                          0x08002179   Thumb Code    66  os_core.o(i.OS_IdleTaskInit)
    OS_IntQPost                              0x080021e9   Thumb Code   224  os_int.o(i.OS_IntQPost)
    OS_IntQRePost                            0x080022ed   Thumb Code   360  os_int.o(i.OS_IntQRePost)
    OS_IntQTask                              0x08002491   Thumb Code   182  os_int.o(i.OS_IntQTask)
    OS_IntQTaskInit                          0x08002559   Thumb Code   206  os_int.o(i.OS_IntQTaskInit)
    OS_MemInit                               0x08002681   Thumb Code    14  os_mem.o(i.OS_MemInit)
    OS_MsgPoolInit                           0x08002699   Thumb Code   110  os_msg.o(i.OS_MsgPoolInit)
    OS_MsgQFreeAll                           0x08002715   Thumb Code    62  os_msg.o(i.OS_MsgQFreeAll)
    OS_MsgQInit                              0x08002759   Thumb Code    14  os_msg.o(i.OS_MsgQInit)
    OS_MsgQPut                               0x08002769   Thumb Code   254  os_msg.o(i.OS_MsgQPut)
    OS_MutexInit                             0x0800286d   Thumb Code    14  os_mutex.o(i.OS_MutexInit)
    OS_Pend                                  0x08002885   Thumb Code    98  os_core.o(i.OS_Pend)
    OS_PendDataInit                          0x080028ed   Thumb Code    38  os_core.o(i.OS_PendDataInit)
    OS_PendDbgNameAdd                        0x08002915   Thumb Code    66  os_core.o(i.OS_PendDbgNameAdd)
    OS_PendDbgNameRemove                     0x08002971   Thumb Code    30  os_core.o(i.OS_PendDbgNameRemove)
    OS_PendListInsertPrio                    0x08002995   Thumb Code   102  os_core.o(i.OS_PendListInsertPrio)
    OS_PendListRemove                        0x080029fb   Thumb Code    48  os_core.o(i.OS_PendListRemove)
    OS_PendListRemove1                       0x08002a2b   Thumb Code    66  os_core.o(i.OS_PendListRemove1)
    OS_Post                                  0x08002a6d   Thumb Code   192  os_core.o(i.OS_Post)
    OS_Post1                                 0x08002b2d   Thumb Code    42  os_core.o(i.OS_Post1)
    OS_PrioGetHighest                        0x08002b59   Thumb Code    36  os_prio.o(i.OS_PrioGetHighest)
    OS_PrioInit                              0x08002b81   Thumb Code    20  os_prio.o(i.OS_PrioInit)
    OS_PrioInsert                            0x08002b99   Thumb Code    32  os_prio.o(i.OS_PrioInsert)
    OS_PrioRemove                            0x08002bbd   Thumb Code    32  os_prio.o(i.OS_PrioRemove)
    OS_QInit                                 0x08002be1   Thumb Code    14  os_q.o(i.OS_QInit)
    OS_QPost                                 0x08002bf9   Thumb Code   382  os_q.o(i.OS_QPost)
    OS_RdyListInit                           0x08002d81   Thumb Code    32  os_core.o(i.OS_RdyListInit)
    OS_RdyListInsert                         0x08002da5   Thumb Code    40  os_core.o(i.OS_RdyListInsert)
    OS_RdyListInsertHead                     0x08002dd1   Thumb Code    58  os_core.o(i.OS_RdyListInsertHead)
    OS_RdyListInsertTail                     0x08002e11   Thumb Code    56  os_core.o(i.OS_RdyListInsertTail)
    OS_RdyListMoveHeadToTail                 0x08002e4d   Thumb Code    68  os_core.o(i.OS_RdyListMoveHeadToTail)
    OS_RdyListRemove                         0x08002e91   Thumb Code    86  os_core.o(i.OS_RdyListRemove)
    OS_Sched0                                0x08002eed   Thumb Code    72  os_core.o(i.OS_Sched0)
    OS_SchedLockTimeMeasStart                0x08002f49   Thumb Code    20  os_core.o(i.OS_SchedLockTimeMeasStart)
    OS_SchedLockTimeMeasStop                 0x08002f65   Thumb Code    44  os_core.o(i.OS_SchedLockTimeMeasStop)
    OS_SchedRoundRobin                       0x08002fa1   Thumb Code   218  os_core.o(i.OS_SchedRoundRobin)
    OS_SemInit                               0x0800308d   Thumb Code    14  os_sem.o(i.OS_SemInit)
    OS_SemPost                               0x080030a5   Thumb Code   404  os_sem.o(i.OS_SemPost)
    OS_StatTask                              0x0800323d   Thumb Code   878  os_stat.o(i.OS_StatTask)
    OS_StatTaskInit                          0x080035f5   Thumb Code   136  os_stat.o(i.OS_StatTaskInit)
    OS_TaskBlock                             0x080036c1   Thumb Code    56  os_core.o(i.OS_TaskBlock)
    OS_TaskDbgListAdd                        0x080036f9   Thumb Code    42  os_task.o(i.OS_TaskDbgListAdd)
    OS_TaskDbgListRemove                     0x08003729   Thumb Code    64  os_task.o(i.OS_TaskDbgListRemove)
    OS_TaskInit                              0x0800376d   Thumb Code    18  os_task.o(i.OS_TaskInit)
    OS_TaskInitTCB                           0x0800378d   Thumb Code   194  os_task.o(i.OS_TaskInitTCB)
    OS_TaskQPost                             0x0800385d   Thumb Code   606  os_task.o(i.OS_TaskQPost)
    OS_TaskRdy                               0x08003ac9   Thumb Code    28  os_core.o(i.OS_TaskRdy)
    OS_TaskResume                            0x08003ae5   Thumb Code   374  os_task.o(i.OS_TaskResume)
    OS_TaskReturn                            0x08003c61   Thumb Code    20  os_task.o(i.OS_TaskReturn)
    OS_TaskSemPost                           0x08003c79   Thumb Code  1438  os_task.o(i.OS_TaskSemPost)
    OS_TaskSuspend                           0x08004221   Thumb Code   392  os_task.o(i.OS_TaskSuspend)
    OS_TickListInit                          0x080043b1   Thumb Code    32  os_tick.o(i.OS_TickListInit)
    OS_TickListInsert                        0x080043d9   Thumb Code   430  os_tick.o(i.OS_TickListInsert)
    OS_TickListRemove                        0x08004595   Thumb Code    56  os_tick.o(i.OS_TickListRemove)
    OS_TickListResetPeak                     0x080045cd   Thumb Code    28  os_tick.o(i.OS_TickListResetPeak)
    OS_TickListUpdate                        0x080045f1   Thumb Code   520  os_tick.o(i.OS_TickListUpdate)
    OS_TickTask                              0x08004811   Thumb Code    38  os_tick.o(i.OS_TickTask)
    OS_TickTaskInit                          0x0800483d   Thumb Code   128  os_tick.o(i.OS_TickTaskInit)
    OS_TmrInit                               0x080048f5   Thumb Code   206  os_tmr.o(i.OS_TmrInit)
    OS_TmrLink                               0x08004a1d   Thumb Code   196  os_tmr.o(i.OS_TmrLink)
    OS_TmrResetPeak                          0x08004aed   Thumb Code    28  os_tmr.o(i.OS_TmrResetPeak)
    OS_TmrTask                               0x08004b11   Thumb Code   176  os_tmr.o(i.OS_TmrTask)
    OS_TmrUnlink                             0x08004bd1   Thumb Code    72  os_tmr.o(i.OS_TmrUnlink)
    RCC_APB2PeriphClockCmd                   0x08004c21   Thumb Code    26  stm32f10x_rcc.o(i.RCC_APB2PeriphClockCmd)
    RCC_GetClocksFreq                        0x08004c41   Thumb Code   192  stm32f10x_rcc.o(i.RCC_GetClocksFreq)
    SVC_Handler                              0x08004d15   Thumb Code     2  stm32f10x_it.o(i.SVC_Handler)
    SysTick_CLKSourceConfig                  0x08004e01   Thumb Code    40  misc.o(i.SysTick_CLKSourceConfig)
    SysTick_Init                             0x08004e29   Thumb Code    50  system.o(i.SysTick_Init)
    SystemInit                               0x08004e65   Thumb Code    78  system_stm32f10x.o(i.SystemInit)
    TIM4_IRQHandler                          0x08004ec5   Thumb Code    36  time.o(i.TIM4_IRQHandler)
    TIM_ClearITPendingBit                    0x08004ef5   Thumb Code     6  stm32f10x_tim.o(i.TIM_ClearITPendingBit)
    TIM_GetITStatus                          0x08004efb   Thumb Code    34  stm32f10x_tim.o(i.TIM_GetITStatus)
    UsageFault_Handler                       0x08004f1d   Thumb Code     4  stm32f10x_it.o(i.UsageFault_Handler)
    delay_ms                                 0x08004f21   Thumb Code    72  system.o(i.delay_ms)
    float_task                               0x08004f6d   Thumb Code   200  main.o(i.float_task)
    led0_task                                0x08005045   Thumb Code    60  main.o(i.led0_task)
    led1_task                                0x08005089   Thumb Code    40  main.o(i.led1_task)
    main                                     0x080050b9   Thumb Code   258  main.o(i.main)
    start_task                               0x080051dd   Thumb Code   356  main.o(i.start_task)
    __aeabi_fadd                             0x08005399   Thumb Code     0  faddsub_clz.o(x$fpl$fadd)
    _fadd                                    0x08005399   Thumb Code   196  faddsub_clz.o(x$fpl$fadd)
    __fpl_fnaninf                            0x0800545d   Thumb Code   140  fnaninf.o(x$fpl$fnaninf)
    __fpl_fretinf                            0x080054e9   Thumb Code    10  fretinf.o(x$fpl$fretinf)
    __aeabi_fsub                             0x080054f5   Thumb Code     0  faddsub_clz.o(x$fpl$fsub)
    _fsub                                    0x080054f5   Thumb Code   234  faddsub_clz.o(x$fpl$fsub)
    __I$use$fp                               0x080055de   Number         0  usenofp.o(x$fpl$usenofp)
    OSCfg_IdleTaskStkBasePtr                 0x080055e0   Data           4  os_cfg_app.o(.constdata)
    OSCfg_IdleTaskStkLimit                   0x080055e4   Data           4  os_cfg_app.o(.constdata)
    OSCfg_IdleTaskStkSize                    0x080055e8   Data           4  os_cfg_app.o(.constdata)
    OSCfg_IdleTaskStkSizeRAM                 0x080055ec   Data           4  os_cfg_app.o(.constdata)
    OSCfg_IntQBasePtr                        0x080055f0   Data           4  os_cfg_app.o(.constdata)
    OSCfg_IntQSize                           0x080055f4   Data           2  os_cfg_app.o(.constdata)
    OSCfg_IntQSizeRAM                        0x080055f8   Data           4  os_cfg_app.o(.constdata)
    OSCfg_IntQTaskStkBasePtr                 0x080055fc   Data           4  os_cfg_app.o(.constdata)
    OSCfg_IntQTaskStkLimit                   0x08005600   Data           4  os_cfg_app.o(.constdata)
    OSCfg_IntQTaskStkSize                    0x08005604   Data           4  os_cfg_app.o(.constdata)
    OSCfg_IntQTaskStkSizeRAM                 0x08005608   Data           4  os_cfg_app.o(.constdata)
    OSCfg_ISRStkBasePtr                      0x0800560c   Data           4  os_cfg_app.o(.constdata)
    OSCfg_ISRStkSize                         0x08005610   Data           4  os_cfg_app.o(.constdata)
    OSCfg_ISRStkSizeRAM                      0x08005614   Data           4  os_cfg_app.o(.constdata)
    OSCfg_MsgPoolSize                        0x08005618   Data           2  os_cfg_app.o(.constdata)
    OSCfg_MsgPoolSizeRAM                     0x0800561c   Data           4  os_cfg_app.o(.constdata)
    OSCfg_MsgPoolBasePtr                     0x08005620   Data           4  os_cfg_app.o(.constdata)
    OSCfg_StatTaskPrio                       0x08005624   Data           1  os_cfg_app.o(.constdata)
    OSCfg_StatTaskRate_Hz                    0x08005628   Data           4  os_cfg_app.o(.constdata)
    OSCfg_StatTaskStkBasePtr                 0x0800562c   Data           4  os_cfg_app.o(.constdata)
    OSCfg_StatTaskStkLimit                   0x08005630   Data           4  os_cfg_app.o(.constdata)
    OSCfg_StatTaskStkSize                    0x08005634   Data           4  os_cfg_app.o(.constdata)
    OSCfg_StatTaskStkSizeRAM                 0x08005638   Data           4  os_cfg_app.o(.constdata)
    OSCfg_StkSizeMin                         0x0800563c   Data           4  os_cfg_app.o(.constdata)
    OSCfg_TickRate_Hz                        0x08005640   Data           4  os_cfg_app.o(.constdata)
    OSCfg_TickTaskPrio                       0x08005644   Data           1  os_cfg_app.o(.constdata)
    OSCfg_TickTaskStkBasePtr                 0x08005648   Data           4  os_cfg_app.o(.constdata)
    OSCfg_TickTaskStkLimit                   0x0800564c   Data           4  os_cfg_app.o(.constdata)
    OSCfg_TickTaskStkSize                    0x08005650   Data           4  os_cfg_app.o(.constdata)
    OSCfg_TickTaskStkSizeRAM                 0x08005654   Data           4  os_cfg_app.o(.constdata)
    OSCfg_TickWheelSize                      0x08005658   Data           2  os_cfg_app.o(.constdata)
    OSCfg_TickWheelSizeRAM                   0x0800565c   Data           4  os_cfg_app.o(.constdata)
    OSCfg_TmrTaskPrio                        0x08005660   Data           1  os_cfg_app.o(.constdata)
    OSCfg_TmrTaskRate_Hz                     0x08005664   Data           4  os_cfg_app.o(.constdata)
    OSCfg_TmrTaskStkBasePtr                  0x08005668   Data           4  os_cfg_app.o(.constdata)
    OSCfg_TmrTaskStkLimit                    0x0800566c   Data           4  os_cfg_app.o(.constdata)
    OSCfg_TmrTaskStkSize                     0x08005670   Data           4  os_cfg_app.o(.constdata)
    OSCfg_TmrTaskStkSizeRAM                  0x08005674   Data           4  os_cfg_app.o(.constdata)
    OSCfg_TmrWheelSize                       0x08005678   Data           2  os_cfg_app.o(.constdata)
    OSCfg_TmrWheelSizeRAM                    0x0800567c   Data           4  os_cfg_app.o(.constdata)
    OSCfg_DataSizeRAM                        0x08005680   Data           4  os_cfg_app.o(.constdata)
    OSDbg_DbgEn                              0x08005684   Data           1  os_dbg.o(.constdata)
    OSDbg_ArgChkEn                           0x08005685   Data           1  os_dbg.o(.constdata)
    OSDbg_AppHooksEn                         0x08005686   Data           1  os_dbg.o(.constdata)
    OSDbg_EndiannessTest                     0x08005688   Data           4  os_dbg.o(.constdata)
    OSDbg_CalledFromISRChkEn                 0x0800568c   Data           1  os_dbg.o(.constdata)
    OSDbg_FlagEn                             0x0800568d   Data           1  os_dbg.o(.constdata)
    OSDbg_FlagGrp                            0x08005690   Data          40  os_dbg.o(.constdata)
    OSDbg_FlagDelEn                          0x080056b8   Data           1  os_dbg.o(.constdata)
    OSDbg_FlagModeClrEn                      0x080056b9   Data           1  os_dbg.o(.constdata)
    OSDbg_FlagPendAbortEn                    0x080056ba   Data           1  os_dbg.o(.constdata)
    OSDbg_FlagGrpSize                        0x080056bc   Data           2  os_dbg.o(.constdata)
    OSDbg_FlagWidth                          0x080056be   Data           2  os_dbg.o(.constdata)
    OSDbg_IntQ                               0x080056c0   Data           2  os_dbg.o(.constdata)
    OSDbg_ISRPostDeferredEn                  0x080056c2   Data           1  os_dbg.o(.constdata)
    OSDbg_Mem                                0x080056c4   Data          32  os_dbg.o(.constdata)
    OSDbg_MemEn                              0x080056e4   Data           1  os_dbg.o(.constdata)
    OSDbg_MemSize                            0x080056e6   Data           2  os_dbg.o(.constdata)
    OSDbg_MsgEn                              0x080056e8   Data           1  os_dbg.o(.constdata)
    OSDbg_MsgSize                            0x080056ea   Data           2  os_dbg.o(.constdata)
    OSDbg_MsgPoolSize                        0x080056ec   Data           2  os_dbg.o(.constdata)
    OSDbg_MsgQSize                           0x080056ee   Data           2  os_dbg.o(.constdata)
    OSDbg_Mutex                              0x080056f0   Data          44  os_dbg.o(.constdata)
    OSDbg_MutexEn                            0x0800571c   Data           1  os_dbg.o(.constdata)
    OSDbg_MutexDelEn                         0x0800571d   Data           1  os_dbg.o(.constdata)
    OSDbg_MutexPendAbortEn                   0x0800571e   Data           1  os_dbg.o(.constdata)
    OSDbg_MutexSize                          0x08005720   Data           2  os_dbg.o(.constdata)
    OSDbg_ObjTypeChkEn                       0x08005722   Data           1  os_dbg.o(.constdata)
    OSDbg_PendMultiEn                        0x08005723   Data           1  os_dbg.o(.constdata)
    OSDbg_PendDataSize                       0x08005724   Data           2  os_dbg.o(.constdata)
    OSDbg_PendListSize                       0x08005726   Data           2  os_dbg.o(.constdata)
    OSDbg_PendObjSize                        0x08005728   Data           2  os_dbg.o(.constdata)
    OSDbg_PrioMax                            0x0800572a   Data           2  os_dbg.o(.constdata)
    OSDbg_PrioTblSize                        0x0800572c   Data           2  os_dbg.o(.constdata)
    OSDbg_PtrSize                            0x0800572e   Data           2  os_dbg.o(.constdata)
    OSDbg_Q                                  0x08005730   Data          48  os_dbg.o(.constdata)
    OSDbg_QEn                                0x08005760   Data           1  os_dbg.o(.constdata)
    OSDbg_QDelEn                             0x08005761   Data           1  os_dbg.o(.constdata)
    OSDbg_QFlushEn                           0x08005762   Data           1  os_dbg.o(.constdata)
    OSDbg_QPendAbortEn                       0x08005763   Data           1  os_dbg.o(.constdata)
    OSDbg_QSize                              0x08005764   Data           2  os_dbg.o(.constdata)
    OSDbg_SchedRoundRobinEn                  0x08005766   Data           1  os_dbg.o(.constdata)
    OSDbg_Sem                                0x08005768   Data          40  os_dbg.o(.constdata)
    OSDbg_SemEn                              0x08005790   Data           1  os_dbg.o(.constdata)
    OSDbg_SemDelEn                           0x08005791   Data           1  os_dbg.o(.constdata)
    OSDbg_SemPendAbortEn                     0x08005792   Data           1  os_dbg.o(.constdata)
    OSDbg_SemSetEn                           0x08005793   Data           1  os_dbg.o(.constdata)
    OSDbg_SemSize                            0x08005794   Data           2  os_dbg.o(.constdata)
    OSDbg_RdyList                            0x08005796   Data           2  os_dbg.o(.constdata)
    OSDbg_RdyListSize                        0x08005798   Data           4  os_dbg.o(.constdata)
    OSDbg_StkWidth                           0x0800579c   Data           1  os_dbg.o(.constdata)
    OSDbg_StatTaskEn                         0x0800579d   Data           1  os_dbg.o(.constdata)
    OSDbg_StatTaskStkChkEn                   0x0800579e   Data           1  os_dbg.o(.constdata)
    OSDbg_TaskChangePrioEn                   0x0800579f   Data           1  os_dbg.o(.constdata)
    OSDbg_TaskDelEn                          0x080057a0   Data           1  os_dbg.o(.constdata)
    OSDbg_TaskQEn                            0x080057a1   Data           1  os_dbg.o(.constdata)
    OSDbg_TaskQPendAbortEn                   0x080057a2   Data           1  os_dbg.o(.constdata)
    OSDbg_TaskProfileEn                      0x080057a3   Data           1  os_dbg.o(.constdata)
    OSDbg_TaskRegTblSize                     0x080057a4   Data           2  os_dbg.o(.constdata)
    OSDbg_TaskSemPendAbortEn                 0x080057a6   Data           1  os_dbg.o(.constdata)
    OSDbg_TaskSuspendEn                      0x080057a7   Data           1  os_dbg.o(.constdata)
    OSDbg_TCBSize                            0x080057a8   Data           2  os_dbg.o(.constdata)
    OSDbg_TickSpokeSize                      0x080057aa   Data           2  os_dbg.o(.constdata)
    OSDbg_TimeDlyHMSMEn                      0x080057ac   Data           1  os_dbg.o(.constdata)
    OSDbg_TimeDlyResumeEn                    0x080057ad   Data           1  os_dbg.o(.constdata)
    OSDbg_TLS_TblSize                        0x080057ae   Data           2  os_dbg.o(.constdata)
    OSDbg_Tmr                                0x080057b0   Data          52  os_dbg.o(.constdata)
    OSDbg_TmrEn                              0x080057e4   Data           1  os_dbg.o(.constdata)
    OSDbg_TmrDelEn                           0x080057e5   Data           1  os_dbg.o(.constdata)
    OSDbg_TmrSize                            0x080057e6   Data           2  os_dbg.o(.constdata)
    OSDbg_TmrSpokeSize                       0x080057e8   Data           2  os_dbg.o(.constdata)
    OSDbg_VersionNbr                         0x080057ea   Data           2  os_dbg.o(.constdata)
    OSDbg_DataSize                           0x080057ec   Data           4  os_dbg.o(.constdata)
    Region$$Table$$Base                      0x080057f0   Number         0  anon$$obj.o(Region$$Table)
    Region$$Table$$Limit                     0x08005810   Number         0  anon$$obj.o(Region$$Table)
    CPU_TS_TmrFreq_Hz                        0x20000020   Data           4  cpu_core.o(.data)
    CPU_IntDisMeasCtr                        0x20000024   Data           2  cpu_core.o(.data)
    CPU_IntDisNestCtr                        0x20000026   Data           2  cpu_core.o(.data)
    CPU_IntDisMeasStart_cnts                 0x20000028   Data           4  cpu_core.o(.data)
    CPU_IntDisMeasStop_cnts                  0x2000002c   Data           4  cpu_core.o(.data)
    CPU_IntDisMeasOvrhd_cnts                 0x20000030   Data           4  cpu_core.o(.data)
    CPU_IntDisMeasMaxCur_cnts                0x20000034   Data           4  cpu_core.o(.data)
    CPU_IntDisMeasMax_cnts                   0x20000038   Data           4  cpu_core.o(.data)
    OSPrioTbl                                0x2000003c   Data           4  os_prio.o(.data)
    OS_AppTaskCreateHookPtr                  0x20000040   Data           4  os_var.o(.data)
    OS_AppTaskDelHookPtr                     0x20000044   Data           4  os_var.o(.data)
    OS_AppTaskReturnHookPtr                  0x20000048   Data           4  os_var.o(.data)
    OS_AppIdleTaskHookPtr                    0x2000004c   Data           4  os_var.o(.data)
    OS_AppStatTaskHookPtr                    0x20000050   Data           4  os_var.o(.data)
    OS_AppTaskSwHookPtr                      0x20000054   Data           4  os_var.o(.data)
    OS_AppTimeTickHookPtr                    0x20000058   Data           4  os_var.o(.data)
    OSIdleTaskCtr                            0x2000005c   Data           4  os_var.o(.data)
    OSIntNestingCtr                          0x20000060   Data           1  os_var.o(.data)
    OSIntDisTimeMax                          0x20000064   Data           4  os_var.o(.data)
    OSRunning                                0x20000068   Data           1  os_var.o(.data)
    OSIntQInPtr                              0x2000006c   Data           4  os_var.o(.data)
    OSIntQOutPtr                             0x20000070   Data           4  os_var.o(.data)
    OSIntQNbrEntries                         0x20000074   Data           2  os_var.o(.data)
    OSIntQNbrEntriesMax                      0x20000076   Data           2  os_var.o(.data)
    OSIntQOvfCtr                             0x20000078   Data           2  os_var.o(.data)
    OSIntQTaskTimeMax                        0x2000007c   Data           4  os_var.o(.data)
    OSFlagDbgListPtr                         0x20000080   Data           4  os_var.o(.data)
    OSFlagQty                                0x20000084   Data           2  os_var.o(.data)
    OSMemDbgListPtr                          0x20000088   Data           4  os_var.o(.data)
    OSMemQty                                 0x2000008c   Data           2  os_var.o(.data)
    OSMutexDbgListPtr                        0x20000090   Data           4  os_var.o(.data)
    OSMutexQty                               0x20000094   Data           2  os_var.o(.data)
    OSPrioCur                                0x20000096   Data           1  os_var.o(.data)
    OSPrioHighRdy                            0x20000097   Data           1  os_var.o(.data)
    OSPrioSaved                              0x20000098   Data           1  os_var.o(.data)
    OSQDbgListPtr                            0x2000009c   Data           4  os_var.o(.data)
    OSQQty                                   0x200000a0   Data           2  os_var.o(.data)
    OSSchedLockTimeBegin                     0x200000a4   Data           4  os_var.o(.data)
    OSSchedLockTimeMax                       0x200000a8   Data           4  os_var.o(.data)
    OSSchedLockTimeMaxCur                    0x200000ac   Data           4  os_var.o(.data)
    OSSchedLockNestingCtr                    0x200000b0   Data           1  os_var.o(.data)
    OSSchedRoundRobinDfltTimeQuanta          0x200000b4   Data           4  os_var.o(.data)
    OSSchedRoundRobinEn                      0x200000b8   Data           1  os_var.o(.data)
    OSSemDbgListPtr                          0x200000bc   Data           4  os_var.o(.data)
    OSSemQty                                 0x200000c0   Data           2  os_var.o(.data)
    OSStatResetFlag                          0x200000c2   Data           1  os_var.o(.data)
    OSStatTaskCPUUsage                       0x200000c4   Data           2  os_var.o(.data)
    OSStatTaskCPUUsageMax                    0x200000c6   Data           2  os_var.o(.data)
    OSStatTaskCtr                            0x200000c8   Data           4  os_var.o(.data)
    OSStatTaskCtrMax                         0x200000cc   Data           4  os_var.o(.data)
    OSStatTaskCtrRun                         0x200000d0   Data           4  os_var.o(.data)
    OSStatTaskRdy                            0x200000d4   Data           1  os_var.o(.data)
    OSStatTaskTimeMax                        0x200000d8   Data           4  os_var.o(.data)
    OSTaskCtxSwCtr                           0x200000dc   Data           4  os_var.o(.data)
    OSTaskDbgListPtr                         0x200000e0   Data           4  os_var.o(.data)
    OSTaskQty                                0x200000e4   Data           2  os_var.o(.data)
    OSTaskRegNextAvailID                     0x200000e6   Data           1  os_var.o(.data)
    OSTickCtr                                0x200000e8   Data           4  os_var.o(.data)
    OSTickTaskTimeMax                        0x200000ec   Data           4  os_var.o(.data)
    OSTmrDbgListPtr                          0x200000f0   Data           4  os_var.o(.data)
    OSTmrQty                                 0x200000f4   Data           2  os_var.o(.data)
    OSTmrTaskTimeMax                         0x200000f8   Data           4  os_var.o(.data)
    OSTmrTickCtr                             0x200000fc   Data           4  os_var.o(.data)
    OSTmrUpdateCnt                           0x20000100   Data           4  os_var.o(.data)
    OSTmrUpdateCtr                           0x20000104   Data           4  os_var.o(.data)
    OSTCBCurPtr                              0x20000108   Data           4  os_var.o(.data)
    OSTCBHighRdyPtr                          0x2000010c   Data           4  os_var.o(.data)
    OS_CPU_ExceptStkBase                     0x20000110   Data           4  os_cpu_c.o(.data)
    StartTaskTCB                             0x20000118   Data         200  main.o(.bss)
    START_TASK_STK                           0x200001e0   Data        2048  main.o(.bss)
    Led0TaskTCB                              0x200009e0   Data         200  main.o(.bss)
    LED0_TASK_STK                            0x20000aa8   Data         512  main.o(.bss)
    Led1TaskTCB                              0x20000ca8   Data         200  main.o(.bss)
    LED1_TASK_STK                            0x20000d70   Data         512  main.o(.bss)
    FloatTaskTCB                             0x20000f70   Data         200  main.o(.bss)
    FLOAT_TASK_STK                           0x20001038   Data         512  main.o(.bss)
    CPU_Name                                 0x20001238   Data          16  cpu_core.o(.bss)
    OSCfg_IdleTaskStk                        0x20001248   Data         512  os_cfg_app.o(.bss)
    OSCfg_IntQ                               0x20001448   Data         320  os_cfg_app.o(.bss)
    OSCfg_IntQTaskStk                        0x20001588   Data         512  os_cfg_app.o(.bss)
    OSCfg_ISRStk                             0x20001788   Data         512  os_cfg_app.o(.bss)
    OSCfg_MsgPool                            0x20001988   Data        1600  os_cfg_app.o(.bss)
    OSCfg_StatTaskStk                        0x20001fc8   Data         512  os_cfg_app.o(.bss)
    OSCfg_TickTaskStk                        0x200021c8   Data         512  os_cfg_app.o(.bss)
    OSCfg_TickWheel                          0x200023c8   Data         136  os_cfg_app.o(.bss)
    OSCfg_TmrTaskStk                         0x20002450   Data         512  os_cfg_app.o(.bss)
    OSCfg_TmrWheel                           0x20002650   Data         136  os_cfg_app.o(.bss)
    OSIdleTaskTCB                            0x200026d8   Data         200  os_var.o(.bss)
    OSIntQTaskTCB                            0x200027a0   Data         200  os_var.o(.bss)
    OSMsgPool                                0x20002868   Data          12  os_var.o(.bss)
    OSRdyList                                0x20002874   Data         384  os_var.o(.bss)
    OSStatTaskTCB                            0x200029f4   Data         200  os_var.o(.bss)
    OSTickTaskTCB                            0x20002abc   Data         200  os_var.o(.bss)
    OSTmrTaskTCB                             0x20002b84   Data         200  os_var.o(.bss)
    __libspace_start                         0x20002c4c   Data          96  libspace.o(.bss)
    __temporary_stack_top$libspace           0x20002cac   Data           0  libspace.o(.bss)



==============================================================================

Memory Map of the image

  Image Entry point : 0x08000131

  Load Region LR_IROM1 (Base: 0x08000000, Size: 0x00005924, Max: 0x00080000, ABSOLUTE)

    Execution Region ER_IROM1 (Exec base: 0x08000000, Load base: 0x08000000, Size: 0x00005810, Max: 0x00080000, ABSOLUTE)

    Exec Addr    Load Addr    Size         Type   Attr      Idx    E Section Name        Object

    0x08000000   0x08000000   0x00000130   Data   RO          304    RESET               startup_stm32f10x_hd.o
    0x08000130   0x08000130   0x00000008   Code   RO         3312  * !!!main             c_w.l(__main.o)
    0x08000138   0x08000138   0x00000034   Code   RO         3490    !!!scatter          c_w.l(__scatter.o)
    0x0800016c   0x0800016c   0x0000001a   Code   RO         3492    !!handler_copy      c_w.l(__scatter_copy.o)
    0x08000186   0x08000186   0x00000002   PAD
    0x08000188   0x08000188   0x0000001c   Code   RO         3494    !!handler_zi        c_w.l(__scatter_zi.o)
    0x080001a4   0x080001a4   0x00000002   Code   RO         3360    .ARM.Collect$$libinit$$00000000  c_w.l(libinit.o)
    0x080001a6   0x080001a6   0x00000000   Code   RO         3373    .ARM.Collect$$libinit$$00000002  c_w.l(libinit2.o)
    0x080001a6   0x080001a6   0x00000000   Code   RO         3375    .ARM.Collect$$libinit$$00000004  c_w.l(libinit2.o)
    0x080001a6   0x080001a6   0x00000000   Code   RO         3378    .ARM.Collect$$libinit$$0000000A  c_w.l(libinit2.o)
    0x080001a6   0x080001a6   0x00000000   Code   RO         3380    .ARM.Collect$$libinit$$0000000C  c_w.l(libinit2.o)
    0x080001a6   0x080001a6   0x00000000   Code   RO         3382    .ARM.Collect$$libinit$$0000000E  c_w.l(libinit2.o)
    0x080001a6   0x080001a6   0x00000000   Code   RO         3385    .ARM.Collect$$libinit$$00000011  c_w.l(libinit2.o)
    0x080001a6   0x080001a6   0x00000000   Code   RO         3387    .ARM.Collect$$libinit$$00000013  c_w.l(libinit2.o)
    0x080001a6   0x080001a6   0x00000000   Code   RO         3389    .ARM.Collect$$libinit$$00000015  c_w.l(libinit2.o)
    0x080001a6   0x080001a6   0x00000000   Code   RO         3391    .ARM.Collect$$libinit$$00000017  c_w.l(libinit2.o)
    0x080001a6   0x080001a6   0x00000000   Code   RO         3393    .ARM.Collect$$libinit$$00000019  c_w.l(libinit2.o)
    0x080001a6   0x080001a6   0x00000000   Code   RO         3395    .ARM.Collect$$libinit$$0000001B  c_w.l(libinit2.o)
    0x080001a6   0x080001a6   0x00000000   Code   RO         3397    .ARM.Collect$$libinit$$0000001D  c_w.l(libinit2.o)
    0x080001a6   0x080001a6   0x00000000   Code   RO         3399    .ARM.Collect$$libinit$$0000001F  c_w.l(libinit2.o)
    0x080001a6   0x080001a6   0x00000000   Code   RO         3401    .ARM.Collect$$libinit$$00000021  c_w.l(libinit2.o)
    0x080001a6   0x080001a6   0x00000000   Code   RO         3403    .ARM.Collect$$libinit$$00000023  c_w.l(libinit2.o)
    0x080001a6   0x080001a6   0x00000000   Code   RO         3405    .ARM.Collect$$libinit$$00000025  c_w.l(libinit2.o)
    0x080001a6   0x080001a6   0x00000000   Code   RO         3409    .ARM.Collect$$libinit$$0000002C  c_w.l(libinit2.o)
    0x080001a6   0x080001a6   0x00000000   Code   RO         3411    .ARM.Collect$$libinit$$0000002E  c_w.l(libinit2.o)
    0x080001a6   0x080001a6   0x00000000   Code   RO         3413    .ARM.Collect$$libinit$$00000030  c_w.l(libinit2.o)
    0x080001a6   0x080001a6   0x00000000   Code   RO         3415    .ARM.Collect$$libinit$$00000032  c_w.l(libinit2.o)
    0x080001a6   0x080001a6   0x00000002   Code   RO         3416    .ARM.Collect$$libinit$$00000033  c_w.l(libinit2.o)
    0x080001a8   0x080001a8   0x00000002   Code   RO         3447    .ARM.Collect$$libshutdown$$00000000  c_w.l(libshutdown.o)
    0x080001aa   0x080001aa   0x00000000   Code   RO         3473    .ARM.Collect$$libshutdown$$00000002  c_w.l(libshutdown2.o)
    0x080001aa   0x080001aa   0x00000000   Code   RO         3475    .ARM.Collect$$libshutdown$$00000004  c_w.l(libshutdown2.o)
    0x080001aa   0x080001aa   0x00000000   Code   RO         3478    .ARM.Collect$$libshutdown$$00000007  c_w.l(libshutdown2.o)
    0x080001aa   0x080001aa   0x00000000   Code   RO         3481    .ARM.Collect$$libshutdown$$0000000A  c_w.l(libshutdown2.o)
    0x080001aa   0x080001aa   0x00000000   Code   RO         3483    .ARM.Collect$$libshutdown$$0000000C  c_w.l(libshutdown2.o)
    0x080001aa   0x080001aa   0x00000000   Code   RO         3486    .ARM.Collect$$libshutdown$$0000000F  c_w.l(libshutdown2.o)
    0x080001aa   0x080001aa   0x00000002   Code   RO         3487    .ARM.Collect$$libshutdown$$00000010  c_w.l(libshutdown2.o)
    0x080001ac   0x080001ac   0x00000000   Code   RO         3320    .ARM.Collect$$rtentry$$00000000  c_w.l(__rtentry.o)
    0x080001ac   0x080001ac   0x00000000   Code   RO         3331    .ARM.Collect$$rtentry$$00000002  c_w.l(__rtentry2.o)
    0x080001ac   0x080001ac   0x00000006   Code   RO         3343    .ARM.Collect$$rtentry$$00000004  c_w.l(__rtentry4.o)
    0x080001b2   0x080001b2   0x00000000   Code   RO         3333    .ARM.Collect$$rtentry$$00000009  c_w.l(__rtentry2.o)
    0x080001b2   0x080001b2   0x00000004   Code   RO         3334    .ARM.Collect$$rtentry$$0000000A  c_w.l(__rtentry2.o)
    0x080001b6   0x080001b6   0x00000000   Code   RO         3336    .ARM.Collect$$rtentry$$0000000C  c_w.l(__rtentry2.o)
    0x080001b6   0x080001b6   0x00000008   Code   RO         3337    .ARM.Collect$$rtentry$$0000000D  c_w.l(__rtentry2.o)
    0x080001be   0x080001be   0x00000002   Code   RO         3364    .ARM.Collect$$rtexit$$00000000  c_w.l(rtexit.o)
    0x080001c0   0x080001c0   0x00000000   Code   RO         3420    .ARM.Collect$$rtexit$$00000002  c_w.l(rtexit2.o)
    0x080001c0   0x080001c0   0x00000004   Code   RO         3421    .ARM.Collect$$rtexit$$00000003  c_w.l(rtexit2.o)
    0x080001c4   0x080001c4   0x00000006   Code   RO         3422    .ARM.Collect$$rtexit$$00000004  c_w.l(rtexit2.o)
    0x080001ca   0x080001ca   0x00000002   PAD
    0x080001cc   0x080001cc   0x00000040   Code   RO          305    .text               startup_stm32f10x_hd.o
    0x0800020c   0x0800020c   0x00000034   Code   RO         1557    .text               cpu_a.o
    0x08000240   0x08000240   0x00000006   Code   RO         3310    .text               c_w.l(heapauxi.o)
    0x08000246   0x08000246   0x0000004a   Code   RO         3347    .text               c_w.l(sys_stackheap_outer.o)
    0x08000290   0x08000290   0x00000012   Code   RO         3349    .text               c_w.l(exit.o)
    0x080002a2   0x080002a2   0x00000002   PAD
    0x080002a4   0x080002a4   0x00000008   Code   RO         3361    .text               c_w.l(libspace.o)
    0x080002ac   0x080002ac   0x0000000c   Code   RO         3417    .text               c_w.l(sys_exit.o)
    0x080002b8   0x080002b8   0x00000002   Code   RO         3436    .text               c_w.l(use_no_semi.o)
    0x080002ba   0x080002ba   0x00000000   Code   RO         3438    .text               c_w.l(indicate_semi.o)
    0x080002ba   0x080002ba   0x00000002   PAD
    0x080002bc   0x080002bc   0x00000098   Code   RO         3156    CODE                os_cpu_a.o
    0x08000354   0x08000354   0x00000010   Code   RO         1352    i.BSP_CPU_ClkFreq   bsp.o
    0x08000364   0x08000364   0x00000004   Code   RO          309    i.BusFault_Handler  stm32f10x_it.o
    0x08000368   0x08000368   0x00000010   Code   RO         1393    i.CPU_Init          cpu_core.o
    0x08000378   0x08000378   0x00000084   Code   RO         1394    i.CPU_IntDisMeasInit  cpu_core.o
    0x080003fc   0x080003fc   0x0000001c   Code   RO         1395    i.CPU_IntDisMeasMaxCalc  cpu_core.o
    0x08000418   0x08000418   0x0000002c   Code   RO         1396    i.CPU_IntDisMeasMaxCurGet  cpu_core.o
    0x08000444   0x08000444   0x0000002c   Code   RO         1397    i.CPU_IntDisMeasMaxCurReset  cpu_core.o
    0x08000470   0x08000470   0x0000002c   Code   RO         1398    i.CPU_IntDisMeasMaxGet  cpu_core.o
    0x0800049c   0x0800049c   0x00000034   Code   RO         1399    i.CPU_IntDisMeasStart  cpu_core.o
    0x080004d0   0x080004d0   0x00000054   Code   RO         1400    i.CPU_IntDisMeasStop  cpu_core.o
    0x08000524   0x08000524   0x00000038   Code   RO         1401    i.CPU_NameClr       cpu_core.o
    0x0800055c   0x0800055c   0x00000008   Code   RO         1403    i.CPU_NameInit      cpu_core.o
    0x08000564   0x08000564   0x00000014   Code   RO         1407    i.CPU_TS_Init       cpu_core.o
    0x08000578   0x08000578   0x0000000c   Code   RO         1409    i.CPU_TS_TmrFreqSet  cpu_core.o
    0x08000584   0x08000584   0x00000034   Code   RO         1354    i.CPU_TS_TmrInit    bsp.o
    0x080005b8   0x080005b8   0x0000000c   Code   RO         1355    i.CPU_TS_TmrRd      bsp.o
    0x080005c4   0x080005c4   0x00000002   Code   RO          310    i.DebugMon_Handler  stm32f10x_it.o
    0x080005c6   0x080005c6   0x00000116   Code   RO          370    i.GPIO_Init         stm32f10x_gpio.o
    0x080006dc   0x080006dc   0x00000004   Code   RO          378    i.GPIO_SetBits      stm32f10x_gpio.o
    0x080006e0   0x080006e0   0x00000004   Code   RO          311    i.HardFault_Handler  stm32f10x_it.o
    0x080006e4   0x080006e4   0x00000048   Code   RO         1316    i.LED_Init          led.o
    0x0800072c   0x0800072c   0x00000004   Code   RO          312    i.MemManage_Handler  stm32f10x_it.o
    0x08000730   0x08000730   0x00000012   Code   RO         1749    i.Mem_Clr           lib_mem.o
    0x08000742   0x08000742   0x00000062   Code   RO         1766    i.Mem_Set           lib_mem.o
    0x080007a4   0x080007a4   0x00000002   Code   RO          313    i.NMI_Handler       stm32f10x_it.o
    0x080007a6   0x080007a6   0x00000002   PAD
    0x080007a8   0x080007a8   0x00000014   Code   RO          679    i.NVIC_PriorityGroupConfig  misc.o
    0x080007bc   0x080007bc   0x00000002   Code   RO         2023    i.OSCfg_Init        os_cfg_app.o
    0x080007be   0x080007be   0x00000002   PAD
    0x080007c0   0x080007c0   0x00000014   Code   RO         3159    i.OSIdleTaskHook    os_cpu_c.o
    0x080007d4   0x080007d4   0x0000018c   Code   RO         2046    i.OSInit            os_core.o
    0x08000960   0x08000960   0x00000038   Code   RO         3160    i.OSInitHook        os_cpu_c.o
    0x08000998   0x08000998   0x000000a8   Code   RO         2049    i.OSSched           os_core.o
    0x08000a40   0x08000a40   0x0000007c   Code   RO         2050    i.OSSchedLock       os_core.o
    0x08000abc   0x08000abc   0x0000006c   Code   RO         2051    i.OSSchedRoundRobinCfg  os_core.o
    0x08000b28   0x08000b28   0x000000a0   Code   RO         2053    i.OSSchedUnlock     os_core.o
    0x08000bc8   0x08000bc8   0x00000068   Code   RO         2054    i.OSStart           os_core.o
    0x08000c30   0x08000c30   0x00000168   Code   RO         2764    i.OSStatReset       os_stat.o
    0x08000d98   0x08000d98   0x00000100   Code   RO         2765    i.OSStatTaskCPUUsageInit  os_stat.o
    0x08000e98   0x08000e98   0x00000014   Code   RO         3161    i.OSStatTaskHook    os_cpu_c.o
    0x08000eac   0x08000eac   0x00000294   Code   RO         2795    i.OSTaskCreate      os_task.o
    0x08001140   0x08001140   0x00000018   Code   RO         3162    i.OSTaskCreateHook  os_cpu_c.o
    0x08001158   0x08001158   0x00000208   Code   RO         2796    i.OSTaskDel         os_task.o
    0x08001360   0x08001360   0x00000018   Code   RO         3163    i.OSTaskDelHook     os_cpu_c.o
    0x08001378   0x08001378   0x00000088   Code   RO         2804    i.OSTaskResume      os_task.o
    0x08001400   0x08001400   0x00000018   Code   RO         3164    i.OSTaskReturnHook  os_cpu_c.o
    0x08001418   0x08001418   0x00000250   Code   RO         2805    i.OSTaskSemPend     os_task.o
    0x08001668   0x08001668   0x000000e4   Code   RO         2809    i.OSTaskStkChk      os_task.o
    0x0800174c   0x0800174c   0x000000c0   Code   RO         3165    i.OSTaskStkInit     os_cpu_c.o
    0x0800180c   0x0800180c   0x00000060   Code   RO         2810    i.OSTaskSuspend     os_task.o
    0x0800186c   0x0800186c   0x000000a4   Code   RO         3166    i.OSTaskSwHook      os_cpu_c.o
    0x08001910   0x08001910   0x00000150   Code   RO         3010    i.OSTimeDly         os_time.o
    0x08001a60   0x08001a60   0x0000022c   Code   RO         3011    i.OSTimeDlyHMSM     os_time.o
    0x08001c8c   0x08001c8c   0x000001b4   Code   RO         2292    i.OS_Dbg_Init       os_dbg.o
    0x08001e40   0x08001e40   0x00000018   Code   RO         2317    i.OS_FlagInit       os_flag.o
    0x08001e58   0x08001e58   0x0000027c   Code   RO         2318    i.OS_FlagPost       os_flag.o
    0x080020d4   0x080020d4   0x00000056   Code   RO         2319    i.OS_FlagTaskRdy    os_flag.o
    0x0800212a   0x0800212a   0x00000002   PAD
    0x0800212c   0x0800212c   0x0000004c   Code   RO         2056    i.OS_IdleTask       os_core.o
    0x08002178   0x08002178   0x00000070   Code   RO         2057    i.OS_IdleTaskInit   os_core.o
    0x080021e8   0x080021e8   0x00000104   Code   RO         2391    i.OS_IntQPost       os_int.o
    0x080022ec   0x080022ec   0x000001a4   Code   RO         2392    i.OS_IntQRePost     os_int.o
    0x08002490   0x08002490   0x000000c8   Code   RO         2393    i.OS_IntQTask       os_int.o
    0x08002558   0x08002558   0x00000128   Code   RO         2394    i.OS_IntQTaskInit   os_int.o
    0x08002680   0x08002680   0x00000018   Code   RO         2425    i.OS_MemInit        os_mem.o
    0x08002698   0x08002698   0x0000007c   Code   RO         2457    i.OS_MsgPoolInit    os_msg.o
    0x08002714   0x08002714   0x00000044   Code   RO         2458    i.OS_MsgQFreeAll    os_msg.o
    0x08002758   0x08002758   0x0000000e   Code   RO         2460    i.OS_MsgQInit       os_msg.o
    0x08002766   0x08002766   0x00000002   PAD
    0x08002768   0x08002768   0x00000104   Code   RO         2461    i.OS_MsgQPut        os_msg.o
    0x0800286c   0x0800286c   0x00000018   Code   RO         2501    i.OS_MutexInit      os_mutex.o
    0x08002884   0x08002884   0x00000068   Code   RO         2058    i.OS_Pend           os_core.o
    0x080028ec   0x080028ec   0x00000026   Code   RO         2061    i.OS_PendDataInit   os_core.o
    0x08002912   0x08002912   0x00000002   PAD
    0x08002914   0x08002914   0x0000005c   Code   RO         2062    i.OS_PendDbgNameAdd  os_core.o
    0x08002970   0x08002970   0x00000024   Code   RO         2063    i.OS_PendDbgNameRemove  os_core.o
    0x08002994   0x08002994   0x00000066   Code   RO         2067    i.OS_PendListInsertPrio  os_core.o
    0x080029fa   0x080029fa   0x00000030   Code   RO         2068    i.OS_PendListRemove  os_core.o
    0x08002a2a   0x08002a2a   0x00000042   Code   RO         2069    i.OS_PendListRemove1  os_core.o
    0x08002a6c   0x08002a6c   0x000000c0   Code   RO         2072    i.OS_Post           os_core.o
    0x08002b2c   0x08002b2c   0x0000002a   Code   RO         2073    i.OS_Post1          os_core.o
    0x08002b56   0x08002b56   0x00000002   PAD
    0x08002b58   0x08002b58   0x00000028   Code   RO         2583    i.OS_PrioGetHighest  os_prio.o
    0x08002b80   0x08002b80   0x00000018   Code   RO         2584    i.OS_PrioInit       os_prio.o
    0x08002b98   0x08002b98   0x00000024   Code   RO         2585    i.OS_PrioInsert     os_prio.o
    0x08002bbc   0x08002bbc   0x00000024   Code   RO         2586    i.OS_PrioRemove     os_prio.o
    0x08002be0   0x08002be0   0x00000018   Code   RO         2629    i.OS_QInit          os_q.o
    0x08002bf8   0x08002bf8   0x00000188   Code   RO         2630    i.OS_QPost          os_q.o
    0x08002d80   0x08002d80   0x00000024   Code   RO         2074    i.OS_RdyListInit    os_core.o
    0x08002da4   0x08002da4   0x0000002c   Code   RO         2075    i.OS_RdyListInsert  os_core.o
    0x08002dd0   0x08002dd0   0x00000040   Code   RO         2076    i.OS_RdyListInsertHead  os_core.o
    0x08002e10   0x08002e10   0x0000003c   Code   RO         2077    i.OS_RdyListInsertTail  os_core.o
    0x08002e4c   0x08002e4c   0x00000044   Code   RO         2078    i.OS_RdyListMoveHeadToTail  os_core.o
    0x08002e90   0x08002e90   0x0000005c   Code   RO         2079    i.OS_RdyListRemove  os_core.o
    0x08002eec   0x08002eec   0x0000005c   Code   RO         2080    i.OS_Sched0         os_core.o
    0x08002f48   0x08002f48   0x0000001c   Code   RO         2081    i.OS_SchedLockTimeMeasStart  os_core.o
    0x08002f64   0x08002f64   0x0000003c   Code   RO         2082    i.OS_SchedLockTimeMeasStop  os_core.o
    0x08002fa0   0x08002fa0   0x000000ec   Code   RO         2083    i.OS_SchedRoundRobin  os_core.o
    0x0800308c   0x0800308c   0x00000018   Code   RO         2701    i.OS_SemInit        os_sem.o
    0x080030a4   0x080030a4   0x00000198   Code   RO         2702    i.OS_SemPost        os_sem.o
    0x0800323c   0x0800323c   0x000003b8   Code   RO         2766    i.OS_StatTask       os_stat.o
    0x080035f4   0x080035f4   0x000000cc   Code   RO         2767    i.OS_StatTaskInit   os_stat.o
    0x080036c0   0x080036c0   0x00000038   Code   RO         2084    i.OS_TaskBlock      os_core.o
    0x080036f8   0x080036f8   0x00000030   Code   RO         2812    i.OS_TaskDbgListAdd  os_task.o
    0x08003728   0x08003728   0x00000044   Code   RO         2813    i.OS_TaskDbgListRemove  os_task.o
    0x0800376c   0x0800376c   0x00000020   Code   RO         2814    i.OS_TaskInit       os_task.o
    0x0800378c   0x0800378c   0x000000d0   Code   RO         2815    i.OS_TaskInitTCB    os_task.o
    0x0800385c   0x0800385c   0x0000026c   Code   RO         2816    i.OS_TaskQPost      os_task.o
    0x08003ac8   0x08003ac8   0x0000001c   Code   RO         2085    i.OS_TaskRdy        os_core.o
    0x08003ae4   0x08003ae4   0x0000017c   Code   RO         2817    i.OS_TaskResume     os_task.o
    0x08003c60   0x08003c60   0x00000018   Code   RO         2818    i.OS_TaskReturn     os_task.o
    0x08003c78   0x08003c78   0x000005a8   Code   RO         2819    i.OS_TaskSemPost    os_task.o
    0x08004220   0x08004220   0x00000190   Code   RO         2820    i.OS_TaskSuspend    os_task.o
    0x080043b0   0x080043b0   0x00000028   Code   RO         2962    i.OS_TickListInit   os_tick.o
    0x080043d8   0x080043d8   0x000001bc   Code   RO         2963    i.OS_TickListInsert  os_tick.o
    0x08004594   0x08004594   0x00000038   Code   RO         2964    i.OS_TickListRemove  os_tick.o
    0x080045cc   0x080045cc   0x00000024   Code   RO         2965    i.OS_TickListResetPeak  os_tick.o
    0x080045f0   0x080045f0   0x00000220   Code   RO         2966    i.OS_TickListUpdate  os_tick.o
    0x08004810   0x08004810   0x0000002c   Code   RO         2967    i.OS_TickTask       os_tick.o
    0x0800483c   0x0800483c   0x000000b8   Code   RO         2968    i.OS_TickTaskInit   os_tick.o
    0x080048f4   0x080048f4   0x00000128   Code   RO         3061    i.OS_TmrInit        os_tmr.o
    0x08004a1c   0x08004a1c   0x000000d0   Code   RO         3062    i.OS_TmrLink        os_tmr.o
    0x08004aec   0x08004aec   0x00000024   Code   RO         3063    i.OS_TmrResetPeak   os_tmr.o
    0x08004b10   0x08004b10   0x000000c0   Code   RO         3064    i.OS_TmrTask        os_tmr.o
    0x08004bd0   0x08004bd0   0x00000050   Code   RO         3065    i.OS_TmrUnlink      os_tmr.o
    0x08004c20   0x08004c20   0x00000020   Code   RO          482    i.RCC_APB2PeriphClockCmd  stm32f10x_rcc.o
    0x08004c40   0x08004c40   0x000000d4   Code   RO          490    i.RCC_GetClocksFreq  stm32f10x_rcc.o
    0x08004d14   0x08004d14   0x00000002   Code   RO          314    i.SVC_Handler       stm32f10x_it.o
    0x08004d16   0x08004d16   0x00000008   Code   RO          235    i.SetSysClock       system_stm32f10x.o
    0x08004d1e   0x08004d1e   0x00000002   PAD
    0x08004d20   0x08004d20   0x000000e0   Code   RO          236    i.SetSysClockTo72   system_stm32f10x.o
    0x08004e00   0x08004e00   0x00000028   Code   RO          682    i.SysTick_CLKSourceConfig  misc.o
    0x08004e28   0x08004e28   0x0000003c   Code   RO            2    i.SysTick_Init      system.o
    0x08004e64   0x08004e64   0x00000060   Code   RO          238    i.SystemInit        system_stm32f10x.o
    0x08004ec4   0x08004ec4   0x00000030   Code   RO         1331    i.TIM4_IRQHandler   time.o
    0x08004ef4   0x08004ef4   0x00000006   Code   RO          779    i.TIM_ClearITPendingBit  stm32f10x_tim.o
    0x08004efa   0x08004efa   0x00000022   Code   RO          805    i.TIM_GetITStatus   stm32f10x_tim.o
    0x08004f1c   0x08004f1c   0x00000004   Code   RO          315    i.UsageFault_Handler  stm32f10x_it.o
    0x08004f20   0x08004f20   0x0000004c   Code   RO            3    i.delay_ms          system.o
    0x08004f6c   0x08004f6c   0x000000d8   Code   RO          124    i.float_task        main.o
    0x08005044   0x08005044   0x00000044   Code   RO          125    i.led0_task         main.o
    0x08005088   0x08005088   0x00000030   Code   RO          126    i.led1_task         main.o
    0x080050b8   0x080050b8   0x00000124   Code   RO          127    i.main              main.o
    0x080051dc   0x080051dc   0x000001bc   Code   RO          128    i.start_task        main.o
    0x08005398   0x08005398   0x000000c4   Code   RO         3314    x$fpl$fadd          fz_ws.l(faddsub_clz.o)
    0x0800545c   0x0800545c   0x0000008c   Code   RO         3325    x$fpl$fnaninf       fz_ws.l(fnaninf.o)
    0x080054e8   0x080054e8   0x0000000a   Code   RO         3327    x$fpl$fretinf       fz_ws.l(fretinf.o)
    0x080054f2   0x080054f2   0x00000002   PAD
    0x080054f4   0x080054f4   0x000000ea   Code   RO         3316    x$fpl$fsub          fz_ws.l(faddsub_clz.o)
    0x080055de   0x080055de   0x00000000   Code   RO         3329    x$fpl$usenofp       fz_ws.l(usenofp.o)
    0x080055de   0x080055de   0x00000002   PAD
    0x080055e0   0x080055e0   0x000000a4   Data   RO         2025    .constdata          os_cfg_app.o
    0x08005684   0x08005684   0x0000016c   Data   RO         2293    .constdata          os_dbg.o
    0x080057f0   0x080057f0   0x00000020   Data   RO         3488    Region$$Table       anon$$obj.o


    Execution Region RW_IRAM1 (Exec base: 0x20000000, Load base: 0x08005810, Size: 0x000032b0, Max: 0x00010000, ABSOLUTE)

    Exec Addr    Load Addr    Size         Type   Attr      Idx    E Section Name        Object

    0x20000000   0x08005810   0x00000006   Data   RW            5    .data               system.o
    0x20000006   0x08005816   0x00000002   PAD
    0x20000008   0x08005818   0x00000004   Data   RW          130    .data               main.o
    0x2000000c   0x0800581c   0x00000014   Data   RW          510    .data               stm32f10x_rcc.o
    0x20000020   0x08005830   0x0000001c   Data   RW         1413    .data               cpu_core.o
    0x2000003c   0x0800584c   0x00000004   Data   RW         2587    .data               os_prio.o
    0x20000040   0x08005850   0x000000d0   Data   RW         3143    .data               os_var.o
    0x20000110   0x08005920   0x00000004   Data   RW         3170    .data               os_cpu_c.o
    0x20000114   0x08005924   0x00000004   PAD
    0x20000118        -       0x00001120   Zero   RW          129    .bss                main.o
    0x20001238        -       0x00000010   Zero   RW         1411    .bss                cpu_core.o
    0x20001248        -       0x00001490   Zero   RW         2024    .bss                os_cfg_app.o
    0x200026d8        -       0x00000574   Zero   RW         3142    .bss                os_var.o
    0x20002c4c        -       0x00000060   Zero   RW         3362    .bss                c_w.l(libspace.o)
    0x20002cac   0x08005924   0x00000004   PAD
    0x20002cb0        -       0x00000200   Zero   RW          303    HEAP                startup_stm32f10x_hd.o
    0x20002eb0        -       0x00000400   Zero   RW          302    STACK               startup_stm32f10x_hd.o


==============================================================================

Image component sizes


      Code (inc. data)   RO Data    RW Data    ZI Data      Debug   Object Name

        80         14          0          0          0       1430   bsp.o
         0          0          0          0          0         32   core_cm3.o
        52          0          0          0          0        320   cpu_a.o
       540         98          0         28         16      16073   cpu_core.o
        72         10          0          0          0        455   led.o
       116          0          0          0          0       1956   lib_mem.o
      1068        154          0          4       4384      45066   main.o
        60         10          0          0          0        941   misc.o
         2          0        164          0       5264      20978   os_cfg_app.o
      2832        378          0          0          0      18711   os_core.o
       152         32          0          0          0        376   os_cpu_a.o
       524         56          0          4          0       6195   os_cpu_c.o
       436        286        364          0          0       4841   os_dbg.o
       746         28          0          0          0       3093   os_flag.o
      1176        204          0          0          0       3446   os_int.o
        24         10          0          0          0        921   os_mem.o
       466         26          0          0          0       3181   os_msg.o
        24         10          0          0          0        935   os_mutex.o
       136         16          0          4          0       2762   os_prio.o
       416         20          0          0          0       2230   os_q.o
       432         14          0          0          0       2258   os_sem.o
      1772        214          0          0          0       4015   os_stat.o
      5460        260          0          0          0      13440   os_task.o
      1348        124          0          0          0       5321   os_tick.o
       892         32          0          0          0       2592   os_time.o
       812        134          0          0          0       4060   os_tmr.o
         0          0          0        208       1396      19437   os_var.o
        64         26        304          0       1536        768   startup_stm32f10x_hd.o
       282          0          0          0          0       2471   stm32f10x_gpio.o
        22          0          0          0          0       2823   stm32f10x_it.o
       244         26          0         20          0       3809   stm32f10x_rcc.o
        40          0          0          0          0       1726   stm32f10x_tim.o
       136         14          0          6          0     246070   system.o
       328         28          0          0          0       1893   system_stm32f10x.o
        48         12          0          0          0        434   time.o

    ----------------------------------------------------------------------
     20816       2236        864        276      12600     445059   Object Totals
         0          0         32          0          0          0   (incl. Generated)
        14          0          0          2          4          0   (incl. Padding)

    ----------------------------------------------------------------------

      Code (inc. data)   RO Data    RW Data    ZI Data      Debug   Library Member Name

         8          0          0          0          0         68   __main.o
         0          0          0          0          0          0   __rtentry.o
        12          0          0          0          0          0   __rtentry2.o
         6          0          0          0          0          0   __rtentry4.o
        52          8          0          0          0          0   __scatter.o
        26          0          0          0          0          0   __scatter_copy.o
        28          0          0          0          0          0   __scatter_zi.o
        18          0          0          0          0         80   exit.o
         6          0          0          0          0        152   heapauxi.o
         0          0          0          0          0          0   indicate_semi.o
         2          0          0          0          0          0   libinit.o
         2          0          0          0          0          0   libinit2.o
         2          0          0          0          0          0   libshutdown.o
         2          0          0          0          0          0   libshutdown2.o
         8          4          0          0         96         68   libspace.o
         2          0          0          0          0          0   rtexit.o
        10          0          0          0          0          0   rtexit2.o
        12          4          0          0          0         68   sys_exit.o
        74          0          0          0          0         80   sys_stackheap_outer.o
         2          0          0          0          0         68   use_no_semi.o
       430          8          0          0          0        168   faddsub_clz.o
       140          4          0          0          0         84   fnaninf.o
        10          0          0          0          0         68   fretinf.o
         0          0          0          0          0          0   usenofp.o

    ----------------------------------------------------------------------
       864         28          0          0        100        904   Library Totals
        12          0          0          0          4          0   (incl. Padding)

    ----------------------------------------------------------------------

      Code (inc. data)   RO Data    RW Data    ZI Data      Debug   Library Name

       272         16          0          0         96        584   c_w.l
       580         12          0          0          0        320   fz_ws.l

    ----------------------------------------------------------------------
       864         28          0          0        100        904   Library Totals

    ----------------------------------------------------------------------

==============================================================================


      Code (inc. data)   RO Data    RW Data    ZI Data      Debug   

     21680       2264        864        276      12700     438679   Grand Totals
     21680       2264        864        276      12700     438679   ELF Image Totals
     21680       2264        864        276          0          0   ROM Totals

==============================================================================

    Total RO  Size (Code + RO Data)                22544 (  22.02kB)
    Total RW  Size (RW Data + ZI Data)             12976 (  12.67kB)
    Total ROM Size (Code + RO Data + RW Data)      22820 (  22.29kB)

==============================================================================

