:020000040800F2
:10000000903400209D19000851070008530700088C
:10001000570700085B0700085F07000800000000A2
:10002000000000000000000000000000630700085E
:10003000650700080000000033C500082517000808
:10004000B7190008B7190008B7190008B719000850
:10005000B7190008B7190008B7190008B719000840
:10006000B7190008B7190008B7190008B719000830
:10007000B7190008B7190008B7190008B719000820
:10008000B7190008B7190008B7190008B719000810
:10009000B7190008B7190008B7190008B719000800
:1000A000B7190008B7190008B7190008B7190008F0
:1000B000B7190008B7190008B7190008B7190008E0
:1000C000B7190008B7190008B7190008B7190008D0
:1000D000B719000809190008B7190008B71900086E
:1000E000B7190008B7190008B7190008B7190008B0
:1000F000B7190008B7190008B7190008B7190008A0
:10010000B7190008B7190008B7190008B71900088F
:10011000B7190008B7190008B7190008B71900087F
:10012000B7190008B7190008B7190008B71900086F
:1001300000F002F800F062F80AA090E8000C824497
:100140008344AAF10107DA4501D100F057F8AFF274
:10015000090EBAE80F0013F0010F18BFFB1A43F0A5
:1001600001031847E8E3000008E400000A444FF0E8
:10017000000C10F8013B13F0070408BF10F8014B06
:100180001D1108BF10F8015B641E05D010F8016B4B
:10019000641E01F8016BF9D113F0080F1EBF10F8AF
:1001A000014BAD1C0C1B09D16D1E58BF01F801CBD2
:1001B000FAD505E014F8016B01F8016B6D1EF9D555
:1001C0009142D6D37047000000230024002500266A
:1001D000103A28BF78C1FBD8520728BF30C148BFAA
:1001E0000B60704764290CF0638078290CF09C80C8
:1001F000002070471FB51FBD10B510BD0CF04CF9A5
:100200001146FFF7F7FF00F0CFF90CF06AF903B4DD
:10021000FFF7F2FF03BC01F019FB00000EB500254B
:10022000002600BF0020FE49088000BF00BF00BFBD
:1002300002F066FE064600BF00BFFA480078401C88
:10024000F849087000BF00BF304602F05DFE00BFF5
:1002500000BF00BF4FF49D73EA226E217D2000F0A5
:10026000C5FF8223EA2219467D2000F0CFFE1F2021
:10027000ED490880EDA010210B466E22CDE900105B
:100280006F217E2001F05FF900BF00BF00BF02F0C8
:1002900037FE064600BF00BFE2480078401EE14935
:1002A000087008460078A0B9E3480088002809DDF6
:1002B00000BF00BF304602F027FE00BF00BF05F0C0
:1002C000D0F80DE000BF00BF304602F01DFE00BFB9
:1002D00006E000BF00BF304602F016FE00BF00BFC0
:1002E00000BF33E0681CC5B2D4480068C043D4499D
:1002F000C1F89401002405E02146D2A00BF098FF3C
:10030000601CC4B2052CF7DB8020102103232A4691
:10031000CDE900106F21CE2001F0B6F80E2095FB3C
:10032000F0F100FB1150C0F10D00CB4931F8200075
:1003300087B240F23913E92283217E20009700F032
:10034000ECFD02AA0021C8200AF006FFCAE70EB59C
:100350000025002600BF0020B149088000BF00BF73
:1003600000BF02F0CDFD064600BF00BFAD480078DB
:10037000401CAC49087000BF00BF304602F0C4FD0D
:1003800000BF00BF00BF4FF49D7373226E21052094
:1003900000F02CFF822373221946052000F036FE60
:1003A0001F20A1490880ADA010210B466E22CDE987
:1003B00000106F21062001F0C6F800BF00BF00BF8B
:1003C00002F09EFD064600BF00BF96480078401E22
:1003D0009449087008460078A0B99748008800281A
:1003E00009DD00BF00BF304602F08EFD00BF00BF38
:1003F00005F037F80DE000BF00BF304602F084FD85
:1004000000BF06E000BF00BF304602F07DFD00BF28
:1004100000BF00BF3FE0681CC5B293480068C043FE
:100420009249C1F8940100240FE0214690A00BF0FE
:10043000FFFE0A2C02D102A804F079FCBDF80810D6
:1004400090A00BF0F5FE601CC4B2642CEDDB0E2016
:1004500095FBF0F100FB11507F4931F8200087B285
:1004600040F23913722283210620009700F055FDD7
:100470008020102103232A46CDE900106F21562049
:1004800001F002F802A800210B460122CDE900107C
:1004900008460AF0E6FEBEE730B58BB004460025FC
:1004A00000BF02F0F5FB0AA808F069FB0AAA0121C7
:1004B000084604F0EEFB00BF00BF00BF02F020FDC5
:1004C000054600BF00BF57480078401C55490870DA
:1004D00000BF00BF284602F017FD00BF00BF00BFED
:1004E0000AA803210022CDE90512CDE90710104624
:1004F00080210C22664BCDE90132CDE903100420A6
:100500000023AFF2B51263A10090654808F00EFF1A
:100510000AA8032100220123CDE90532CDE9071005
:10052000104680210C225F4BCDE90132CDE903104A
:1005300004200023AFF21B325BA100905D4808F05D
:10054000F5FE00BF00BF00BF02F0DAFC054600BFA9
:1005500000BF34480078401E3249087008460078D1
:10056000A0B935480088002809DD00BF00BF284633
:1005700002F0CAFC00BF00BF04F073FF0DE000BF33
:1005800000BF284602F0C0FC00BF06E000BF00BF6D
:10059000284602F0B9FC00BF00BF00BF0AA94648C8
:1005A00009F018F80BB030BD8AB0002401F0C6F88D
:1005B0004FF4A06001F012FA4FF4E13001F055F968
:1005C00000F0C2F900F022FB4FF478401449088093
:1005D00009A804F02FF900BF00BF00BF02F090FC93
:1005E000044600BF00BF0F480078401C0D4908704A
:1005F00000BF00BF204602F087FC00BF00BF00BF65
:1006000009A8032100220592CDE906210890104691
:1006100080210C22294BCDE90132CDE903104FE0B6
:100620004C000020F00000204E0000205461736B4D
:10063000322052756E3A0000B4000020940123422B
:1006400000002342C8CECEF132D5FDD4DAD4CBD0CF
:10065000D025640D0A000000000000205461736B77
:10066000312052756E3A000094812142008021426F
:10067000C8CECEF131D5FDD4DAD4CBD0D025640D9F
:100680000A000000B4EDCEF3B4FAC2EB256400001A
:10069000DC0400204C434431207461736B00000083
:1006A00018040020A00700204C43443220746173DA
:1006B0006B000000DC06002054010020180200201E
:1006C00003200023AFF22F221BA100901D4808F049
:1006D0002DFE00BF00BF00BF02F012FC044600BFA9
:1006E00000BF19480078401E174908700846007876
:1006F000A0B916480088002809DD00BF00BF2046C9
:1007000002F002FC00BF00BF04F0ABFE0DE000BF32
:1007100000BF204602F0F8FB00BF06E000BF00BFAC
:10072000204602F0F1FB00BF00BF00BF09A804F0A3
:1007300050FB00BFFEE700007374617274207461A7
:10074000736B000054010020F0000020B400002072
:10075000704700BFFEE700BFFEE700BFFEE700BF37
:10076000FEE77047704700000CB500200190009034
:100770006C48006840F480306A49086000BF6948EE
:10078000006800F4003000900198401C019000982F
:1007900018B90198B0F5A06FF1D16248006800F473
:1007A000003010B10120009001E00020009000987E
:1007B000012843D15C48006840F010005A490860A5
:1007C0000846006820F0030008600846006840F012
:1007D0000200086053484068524948600846406833
:1007E00048600846406840F48060486008464068B9
:1007F00020F47C1048600846406840F4E8104860E7
:100800000846006840F08070086000BF45480068F6
:1008100000F000700028F9D04248406820F0030042
:10082000404948600846406840F00200486000BF08
:100830003C48406800F00C000828F9D10CBD10B508
:10084000FFF792FF10BD10B53648006840F0010078
:1008500034490860084640683449084031494860D6
:1008600008460068324908402E490860084600687A
:1008700020F4802008600846406820F4FE004860AC
:100880004FF41F008860FFF7DAFF4FF0006029493E
:10089000086010BD10B5002100200022214B5B68CC
:1008A00003F00C0121B1042906D0082928D107E062
:1008B000214B224C236027E01F4B204C236023E078
:1008C000184B5B6803F47010164B5B6803F48032BE
:1008D000022303EB904022B9194B4343174C23608A
:1008E0000DE0104B5B6803F4003323B1144B43431A
:1008F000124C236003E0104B4343104C236003E091
:100900000D4B0E4C236000BF00BF064B5B68C3F36A
:1009100003130C4CE15C094B1B68CB40074C236074
:1009200010BD000000100240002002400000FFF84F
:10093000FFFFF6FE08ED00E000127A00380000200C
:1009400000093D003C00002008B50121482001F0CD
:10095000D3FD2020ADF8000010208DF80300032007
:100960008DF802006946094801F006F92021074880
:1009700001F0AFF92020ADF800006946044801F00D
:10098000FBF82021024801F0A4F908BD000C014049
:100990000018014008B50120ADF8000010208DF8C6
:1009A000030003208DF802006946FE4801F0E4F8D8
:1009B0004CF23370ADF8000018208DF803000320CE
:1009C0008DF802006946F84801F0D6F84FF68070BD
:1009D000ADF8000018208DF8030003208DF8020008
:1009E0006946F24801F0C8F841F20100ADF8000094
:1009F00018208DF8030003208DF802006946EC48AA
:100A000001F0BAF808BD00B59DB00121080201F05F
:100A100066FD01200790002008900F20099000201B
:100A20000A900B900C904FF080500D900020009099
:100A300001900320029000200390049005904FF055
:100A40008050069006200E9000200F9010901020ED
:100A500011900020129014901390159016904FF45E
:100A600080501790002018904FF48040199000207B
:100A70001A9007A81B90CDF870D00EA801F0ECFDDD
:100A80000121062001F050FFCA49CBA00BF0D0FB9A
:100A9000C849891CCBA00BF0CBFBC649CDA00BF0FD
:100AA000C7FB1DB000BDC34908807047C149891C00
:100AB0000880704700B503460A461846FFF7F3FF63
:100AC0001046FFF7F3FF00BD00F47F41B94A921CC6
:100AD0001180114608807047B648801C0088704716
:100AE00000B5024672B93620FFF7DDFF0820FFF798
:100AF000DDFF4FF4A070BB494880F0200880002043
:100B000088710DE03620FFF7CEFF6820FFF7CEFF9B
:100B1000F020B44948804FF4A0700880012088710B
:100B200000BD70B504460D462A20FFF7BCFF2646DF
:100B3000E11704EB1161C1F30F20FFF7B7FFE117D5
:100B400004EB11610912A4EB012188B2FFF7AEFF9B
:100B50001646D11702EB1161C1F30F20FFF7A6FF74
:100B60001646D11702EB11610912A2EB012188B2DE
:100B7000FFF79CFF2B20FFF796FF2E46E91705EBAA
:100B80001161C1F30F20FFF791FFE91705EB116128
:100B90000912A5EB012188B2FFF788FF1E46D9177D
:100BA00003EB1161C1F30F20FFF780FF1E46D91739
:100BB00003EB11610912A3EB012188B2FFF776FF65
:100BC0002C20FFF770FF70BD70B506468548408841
:100BD000401E83B283480088401E82B2002108462E
:100BE000FFF79FFF00240CE0002504E03046FFF7EC
:100BF0006BFF681C85B27B484088A842F6DC601C0D
:100C000084B278480088A042EEDC70BD10B50121A6
:100C1000080201F064FC01214FF4B47001F06CFC97
:100C2000FFF7B8FEFFF7EFFE322000F0E0FDD32023
:100C3000FFF739FF5F48801C00886A4988805D485B
:100C4000801C008888805B48801C0088888008465B
:100C500080884FF6FF7101EA0020624988800846CB
:100C600080885449891C098808435E498880084661
:100C700081885DA00BF0DCFACB20FFF714FF392050
:100C8000FFF714FF2C20FFF711FF0020FFF70EFFE6
:100C90003420FFF70BFF0220FFF708FFCF20FFF7FC
:100CA00002FF0020FFF702FFA220FFF7FFFEF02067
:100CB000FFF7FCFEE820FFF7F6FE8420FFF7F6FEC4
:100CC0001120FFF7F3FE7A20FFF7F0FEEA20FFF78E
:100CD000EAFE6620FFF7EAFE0020FFF7E7FEED20C0
:100CE000FFF7E1FE5520FFF7E1FE0120FFF7DEFEF2
:100CF0002320FFF7DBFE0120FFF7D8FEF720FFF7E8
:100D0000D2FE2020FFF7D2FEC020FFF7CCFE1C2031
:100D1000FFF7CCFEC120FFF7C6FE1320FFF7C6FE8B
:100D2000C520FFF7C0FE2320FFF7C0FE3F20FFF7DE
:100D3000BDFEC720FFF7B7FEA520FFF7B7FEB12025
:100D4000FFF7B1FE0020FFF7B1FE1720FFF7AEFE60
:100D50003A20FFF7A8FE5520FFF7A8FEB620FFF7C0
:100D6000A2FE0A20FFF7A2FEA220FFF79FFE272087
:100D7000FFF79CFE0020FFF799FE3620FFF793FE59
:100D80000820FFF793FEF220FFF78DFE0220FFF709
:100D90008DFE2620FFF787FE0120FFF787FEE0206B
:100DA0002AE00000000C014000140140001801403E
:100DB00000200140FE07006C434D44B5D8D6B7254E
:100DC000780D0A0044415441B5D8D6B725780D0AAC
:100DD00000000000CAD7B5D8D6B7B5D8D6B72578A1
:100DE0000D0A000050000020204C43442049443AA2
:100DF00025780D0A00000000FFF755FE0F20FFF7D1
:100E000055FE1420FFF752FE1320FFF74FFE0C2073
:100E1000FFF74CFE0E20FFF749FE0520FFF746FEC8
:100E20004520FFF743FE8520FFF740FE3620FFF701
:100E30003DFE0920FFF73AFE1420FFF737FE05209C
:100E4000FFF734FE0920FFF731FE0320FFF72EFEE7
:100E50000020FFF72BFEE120FFF725FE0020FFF723
:100E600025FE2420FFF722FE2620FFF71FFE032089
:100E7000FFF71CFE0F20FFF719FE0420FFF716FEF8
:100E80003F20FFF713FE1420FFF710FE5220FFF75C
:100E90000DFE0420FFF70AFE1020FFF707FE0E20CC
:100EA000FFF704FE3820FFF701FE3920FFF7FEFDB3
:100EB0000F20FFF7FBFD2A20FFF7F5FD0020FFF7CD
:100EC000F5FD0020FFF7F2FD0020FFF7EFFDEF201A
:100ED000FFF7ECFD2B20FFF7E6FD0020FFF7E6FD16
:100EE0000020FFF7E3FD0120FFF7E0FD3F20FFF7C3
:100EF000DDFD1120FFF7D7FD782000F078FC2920D8
:100F0000FFF7D1FD0020FFF7EBFD4FF6FF70FFF775
:100F10005BFE0120F849086010BD2DE9F04304464E
:100F20000D4616461F46DDF81C80B44201DCBD426A
:100F300001DDBDE8F0833B46324629462046FFF7F7
:100F4000F0FD301B401C84B2781B401C85B20BE0C6
:100F5000A94602E04046FFF7B7FDB9F10000A9F14C
:100F600001011FFA81F9F5D1201EA4F101018CB213
:100F7000EED100BFDDE730B504460D462B462246D4
:100F800029462046FFF7CDFDDC480088FFF79CFD91
:100F900030BD70B504460D4616462B4622462946FE
:100FA0002046FFF7BEFD3046FFF78EFD70BD2DE9F0
:100FB000F04104460D4600260027B046D048008880
:100FC000A04203DDCE484088A84202DC0020BDE8F4
:100FD000F0812B46224629462046FFF7A2FD2E200F
:100FE000FFF761FDFFF778FD0646FFF775FD064642
:100FF000FFF772FD0746FFF76FFD8046F012C00253
:10100000B91240EA411040EAE820E0E72DE9FF4F3D
:1010100084B081468A460020039002900698A0EB97
:1010200009050798A0EB0A06CDF80490CDF800A0BA
:10103000002D01DD012705E00DB9002702E04FF08A
:10104000FF376D42002E02DD4FF0010806E016B9B1
:101050004FF0000802E04FF0FF387642B54201DD64
:101060002C4600E034464FF0000B21E0009A91B28C
:10107000019A90B2FFF77FFF0398284403900298EB
:10108000304402900398A04205DD0398001B0390B2
:101090000198384401900298A04205DD0298001B97
:1010A00002900098404400900BF101001FFA80FB71
:1010B000601C8345DADD08B0BDE8F08F2DE9FF4FF5
:1010C00084B081468A460020029083460698A0EBB1
:1010D00009050798A0EB0A06CDF80490CDF800A00A
:1010E000002D01DD012705E00DB9002702E04FF0DA
:1010F000FF376D42002E02DD4FF0010806E016B901
:101100004FF0000802E04FF0FF387642B54201DDB3
:101110002C4600E03446002003901EE0009A91B275
:10112000019A90B2119AFFF734FF02982844029076
:10113000B3440298A04205DD0298001B029001987A
:1011400038440190A34504DDABEB040B0098404408
:1011500000900398401C80B20390611C0398884261
:10116000DCDD08B0BDE8F08FF0B504460D4617464B
:1011700005F1010C1FFA8CF304F1010C1FFA8CF23B
:10118000A5F1010C1FFA8CF1A4F1010C1FFA8CF0EF
:10119000FFF7C7FC002604E03846FFF795FC701CFB
:1011A000C6B2092EF8DB211D8AB2211F88B22B4658
:1011B0002946FFF7B6FC002604E03846FFF784FC1A
:1011C000701CC6B2092EF8DB281D83B2281F81B21D
:1011D00022462046FFF7A5FC002604E03846FFF72C
:1011E00073FC701CC6B2092EF8DBF0BDF0B50446E6
:1011F0000D4616461F462B46324629462046FFF727
:1012000005FF3B46224629462046FFF7FFFE3B46A8
:10121000324639462046FFF7F9FE3B46324629461C
:101220003046FFF7F3FEF0BD2DE9F04306460F46CA
:101230009046002445460320A0EB48093CE07A1B79
:1012400091B2321990B2FFF796FE3A1B91B2721921
:1012500090B2FFF790FE3A1991B2721990B2FFF76F
:101260008AFE7A1991B2321990B2FFF784FE7A1988
:1012700091B2321B90B2FFF77EFE3A1991B2721B07
:1012800090B2FFF778FE7A1B91B2321B90B2FFF753
:1012900072FE3A1B91B2721B90B2FFF76CFE641C97
:1012A000B9F1000F03DAA000801D814404E0601B47
:1012B00080000A3081446D1EAC42C0DDBDE8F08381
:1012C0002DE9F84F80460E4617461C46B346204689
:1012D000E31704EB5373DB1021464FEAE47C04EB85
:1012E0005C7C4FEAEC0CA4EBCC0CBCF1000F09D0F9
:1012F0004FF0010C08E00000808121424C000020EA
:10130000500000204FF0000C6344224604EBD27CD6
:101310004FEA6C0C03FB0CF3DBB20093A7F1200047
:10132000C7B2002556E00C2C07D107EB4700ED496A
:1013300001EB800010F8059013E0102C05D1EA486D
:1013400000EB071010F805900BE0182C07D107EB05
:10135000C700E64901EB800010F8059001E0BDE808
:10136000F88F4FF0000A2FE009F0800030B1E0481C
:10137000028831464046FFF70CFE07E00A9828B97C
:10138000DC48028831464046FFF703FE4FEA4960D9
:101390004FEA1069701C86B2D7484088B04200DC22
:1013A000DDE7A6EB0B00A0420AD15E4608F1010082
:1013B0001FFA80F8D0480088404500DCCFE706E0FF
:1013C0000AF1010000F0FF0ABAF1080FCCDB00BF00
:1013D000681CC5B200988542A5DB00BFBFE710B509
:1013E0000246012000E050430B1EA1F10104E1B2CE
:1013F000F9D110BD2DE9FF4F81B0074691461E4639
:101400000E9D4FF0000A002439E0301B401EC1B28F
:101410000A20FFF7E4FFB9FBF0F00A21B0FBF1F27C
:1014200001FB1208BAF1000F16D1701EA04213DDA5
:10143000B8F1000F0ED10020AB4605EBDB7149106F
:1014400001FB0471009088B22B4620220299FFF71D
:1014500037FF12E04FF0010A0020AB4605EBDB71CD
:10146000491001FB0471009088B208F13001CAB242
:101470002B460299FFF724FF00BF601CC4B2B442A0
:10148000C3DB05B0BDE8F08F2DE9FF4F82B0064603
:1014900092461F46DDE90F480020019000254DE0EF
:1014A000781B401EC1B20A20FFF799FFBAFBF0F08B
:1014B0000A21B0FBF1F201FB1209019850BB781E22
:1014C000A84227DDB9F1000F22D108F0800078B1E1
:1014D00008F00100A34604EBDB71491001FB056134
:1014E000009088B2234630220399FFF7E9FE0EE010
:1014F00008F00100A34604EBDB71491001FB056114
:10150000009088B2234620220399FFF7D9FE13E00A
:101510000120019008F00100A34604EBDB714910A3
:1015200001FB0561009088B209F13001CAB223467F
:101530000399FFF7C5FE00BF681CC5B2BD42AFDB13
:1015400006B0BDE8F08F2DE9F84704460D469046F9
:101550009946DDE9096704F0FF0A08EB04001FFA69
:1015600080F809EB05001FFA80F916E0444502DB1C
:101570005446A81985B24D4500DB14E000200090C8
:101580003A78334629462046FFF79AFE304606EB66
:10159000D07104EB61018CB27F1C38787E2802DCAC
:1015A00038782028E2DA00BFBDE8F8872DE9F84F47
:1015B00004460F461546A346009760E0002657E014
:1015C00006EB8600C0EB86104C4911F81000297814
:1015D00088424BD106EB8600C0EB8610474901EBF1
:1015E000400040786978884240D14FF000083AE0E6
:1015F00006EB8600C0EB8610404901EB4000801CE2
:1016000010F808A04FF0000926E00AF080008028BA
:1016100006D13748028839462046FFF7BAFC05E074
:101620003448028839462046FFF7B3FC4FF6FF7076
:1016300000EA4A0A601C84B2A4EB0B00202807D100
:101640005C46781C87B20098381A1D2800D1009F8C
:1016500009F1010000F0FF09B9F1080FD5DB08F12D
:10166000010000F0FF08B8F1740FC1DB701CC6B2B6
:10167000142EA5DBAD1C04F1200084B2A34628780B
:1016800000289BD1BDE8F88F2DE9F04F80468946B0
:1016900015461E46DDF824A000270024A34609EBCA
:1016A0000600401E83B208EB0500401E82B2494688
:1016B0004046FFF736FA05FB06F04FEA400B00BF45
:1016C000601C1AF800704FF6FF7000EA07271AF83E
:1016D000040007433846FFF7F7F9A41C5C45EFDB2D
:1016E000BDE8F08F94C5000808CA0008F8CF0008CC
:1016F0004C0000204E0000205000002054DD000867
:1017000008B5684603F0EAF908BD08B5684603F075
:101710002FFA08BD38B504466A460821204609F06C
:101720001BFD38BD10B542480078012805D103F0F3
:1017300017F909F09DFF03F024F910BD10B56FF003
:10174000040000F09AF93B4800683B49B0FBF1F017
:101750003A490870374800683749B0FBF1F4384817
:101760000068C910B1FBF0F04443354800684FF4FD
:101770007A71B1FBF0F0334908804FF0E020006946
:1017800040F002004FF0E021086108464461006922
:1017900040F00100086110BD2DE9F0470746002622
:1017A0004FF0E020D0F814902448007807FB00F8B0
:1017B00000BFFFF7A5FF4FF0E020856911E04FF073
:1017C000E0208469AC420CD0AC4202D2281B064413
:1017D00003E0A9EB0400284406442546464500D30F
:1017E00000E0ECE700BFFFF790FFBDE8F08770B5C1
:1017F00004460F480078A0B11348007888B9114812
:101800000088844206DB0F48008894FBF0F52846E8
:10181000FFF780FF0B48008894FBF0F100FB1140BC
:1018200084B24FF47A7104FB01F0FFF7B5FF70BD8D
:10183000A90000203800002000127A005800002083
:1018400074E300085A000020A8000020014600BFF1
:10185000704700BF4D4A128802F04002002AF9D0BA
:10186000C2B24A4B1B1D1A80704710B586B00446A1
:10187000012144F2040000F03FFE444800F0CAFA9F
:101880004FF40070ADF8140003208DF816001820F6
:101890008DF8170005A93E4800F06EF94FF48060FE
:1018A000ADF8140004208DF8170005A9384800F0A1
:1018B00063F925208DF8000003208DF801008DF8D4
:1018C000020001208DF80300684600F08CF80194B6
:1018D0000020ADF80800ADF80A00ADF80C00ADF836
:1018E00010000C20ADF80E0001A9284800F0D5FA30
:1018F000012240F22551254800F067FB01212348D1
:1019000000F057FB06B010BD10B503F029F840F207
:1019100025511E4800F03EFC10B31C4800F0BAFBF5
:10192000C4B21C48008800F40040C8B919480088B7
:1019300000F4804060B10A2C03D0002015490880D3
:1019400020E01448008840F400401249088019E063
:101950000D2C06D10F48008840F480400D490880C6
:1019600010E00C480088C0F30D000B490C540948E6
:101970000088401C0749088008460088C72801DD08
:101980000020088002F0FDFF10BD0000003801407B
:101990000008014060000020A0090020094880479D
:1019A00009480047FEE7FEE7FEE7FEE7FEE7FEE741
:1019B000FEE7FEE7FEE7FEE704480549054A064B59
:1019C000704700004708000831010008902A0020F5
:1019D00090340020902C0020902C002031490143AD
:1019E000314A1160704770B5002100230F22C4787E
:1019F00004B32D4C246804F4E064C4F5E064210AC7
:101A0000C1F10403CA40447804FA03F18478144015
:101A100021430901254C0678A155047804F01F05DF
:101A20000124AC4005786D11AD0005F1E025C5F845
:101A3000004109E0047804F01F050124AC401C4D6E
:101A40000678761145F8264070BD1A4A0A400243CE
:101A5000154B1B1F1A60704739B1134A121D1268CB
:101A60000243114B1B1D1A6006E00F4A121D12683B
:101A700082430D4B1B1D1A607047042808D14FF09C
:101A8000E021096941F004014FF0E022116107E013
:101A90004FF0E021096921F004014FF0E0221161CB
:101AA000704700000000FA050CED00E000E400E0E3
:101AB00080E100E080FFFF1F10B50446CC4884425F
:101AC00008D10121042000F031FD0021042000F0A4
:101AD0002DFD46E0C748844208D10121082000F0CE
:101AE00025FD0021082000F021FD3AE0C248844293
:101AF00008D10121102000F019FD0021102000F074
:101B000015FD2EE0BD48844208D10121202000F0BF
:101B10000DFD0021202000F009FD22E0B84884429C
:101B200008D10121402000F001FD0021402000F0FB
:101B3000FDFC16E0B348844208D10121802000F06A
:101B4000F5FC0021802000F0F1FC0AE0AE48844260
:101B500007D10121801500F0E9FC0021A01500F05B
:101B6000E5FC10BD10B50121084600F0DFFC0021A6
:101B7000012000F0DBFC10BD2DE9F04102460025FC
:101B80000026002000230024002791F803C00CF059
:101B90000F0591F803C00CF0100CBCF1000F03D03E
:101BA00091F802C04CEA050591F800C0BCF1000FA5
:101BB00031D0146800202BE04FF0010C0CFA00F338
:101BC000B1F800C00CEA03069E4220D183004FF01A
:101BD0000F0C0CFA03F7BC4305FA03FC4CEA0404AF
:101BE00091F803C0BCF1280F06D14FF0010C0CFA9C
:101BF00000FCC2F814C00AE091F803C0BCF1480F21
:101C000005D14FF0010C0CFA00FCC2F810C0401CCA
:101C10000828D1D31460B1F800C0BCF1FF0F34DD47
:101C2000546800202EE000F1080C4FF0010808FA7B
:101C30000CF3B1F800C00CEA03069E4221D18300E8
:101C40004FF00F0C0CFA03F7BC4305FA03FC4CEA07
:101C5000040491F803C0BCF1280F05D100F1080C71
:101C600008FA0CF8C2F8148091F803C0BCF1480FD0
:101C700007D100F1080C4FF0010808FA0CF8C2F87F
:101C80001080401C0828CED35460BDE8F0814FF688
:101C9000FF710180022181700421C17070470246EA
:101CA000002093680B400BB1012000E0002070473A
:101CB0000146886880B2704702460020D3680B4016
:101CC0000BB1012000E0002070470146C86880B2D7
:101CD000704701617047416170470AB1016100E0DE
:101CE00041617047C16070474FF480320A4382619E
:101CF0008161826182698269704702460020434B9C
:101D000018684FF68073184040EA021008433F4BB2
:101D1000186070473E49C8617047F0B50A46002315
:101D200000240021002500F00046B6F1004F02D14A
:101D3000364EF16901E0354E7168C0F3034583B258
:101D400000F44016B6F5401F08D121F070612F4E07
:101D5000766826F070662D4F7E6012E000F48016E3
:101D6000B6F5801F06D1032606FA05F4A14341F01B
:101D7000706106E0460D360103FA06F6B14341F004
:101D8000706122B1460D360103FA06F6314300F0C8
:101D90000046B6F1004F02D11C4EF16101E01B4E2E
:101DA0007160F0BD30B500228B071C0F0F2303FAC2
:101DB00004F2164B08338C1053F824309343134C21
:101DC00008348D1044F8253023468C1053F8243005
:101DD0008C07240F00FA04F423430C4C08348D10B4
:101DE00044F8253030BD0A49DC31086070470000F6
:101DF00000080140000C01400010014000140140A7
:101E000000180140001C014000200140000001407A
:101E10000000204210B50446FB48844209D101214C
:101E2000880300F083FB00214FF4804000F07EFB2C
:101E300032E0F648844209D10121480400F083FBD6
:101E400000214FF4003000F07EFB25E0F048844292
:101E500009D10121880400F076FB00214FF4802095
:101E600000F071FB18E0EB48844209D10121C8045D
:101E700000F069FB00214FF4002000F064FB0BE050
:101E8000E548844208D10121080500F05CFB0021EF
:101E90004FF4801000F057FB10BD2DE9F04786B0DD
:101EA00005460E460024A24600BFA1460027B08981
:101EB00000B100BF2F462C8A4CF6FF700440F0881A
:101EC00004432C82AC894EF6F3100440B08831896B
:101ED0000843718908430443AC81AC8A4FF6FF4044
:101EE0000440B0890443AC8201A800F098FAC648C7
:101EF000874202D1DDF810A001E0DDF80CA0A8892E
:101F000000F4004040B10AEBCA0000EB0A1031684F
:101F10004900B0FBF1F807E00AEBCA0000EB0A1039
:101F200031688900B0FBF1F86420B8FBF0F00401DF
:101F30002009642101FB1089A88900F4004040B108
:101F4000322000EBC900B0FBF1F000F007000443C1
:101F500008E0322000EB09106421B0FBF1F000F042
:101F60000F0004432C8106B0BDE8F0874FF41651F2
:101F7000016000218180C18001810C21418100210B
:101F80008181704710B502460020108A4FF2FF038E
:101F900018400B884C8823438C882343CC882343E8
:101FA0001843108210BD0021018041808180C180D2
:101FB000704721B1828942F40052828104E0828913
:101FC0004DF6FF731A4082817047F0B50346002436
:101FD00000260025002040F66A17B94200D100BF54
:101FE0001846C1F3421401F01F06012707FA06F54F
:101FF000012C01D10C3004E0022C01D1103000E0A2
:1020000014301AB107682F43076002E00768AF4336
:102010000760F0BD1AB1838A0B43838202E0838A92
:102020008B4383827047028A4FF6F0731A40028214
:10203000028A0A430282704782894FF2FF731A4074
:10204000828182890A438281704721B1828942F06C
:102050000202828104E082894FF6FD731A40828178
:102060007047028A4FF6DF731A400282028A0A43DF
:102070000282704721B1028A42F48042028204E067
:10208000028A4BF6FF731A4002827047C1F30802BE
:102090008280704701468888C0F3080070478189B4
:1020A00041F0010181817047028BD2B20283028B21
:1020B00042EA012202837047028B02F47F420283CC
:1020C000028B0A430283704721B1828A42F02002C8
:1020D000828204E0828A4FF6DF731A408282704760
:1020E00021B1828A42F01002828204E0828A4FF695
:1020F000EF731A408282704721B1828A42F008024F
:10210000828204E0828A4FF6F7731A408282704717
:1021100021B1828942F40042828103E08289C2F3C4
:102120000E028281704721B1828A42F4006282826B
:1021300004E0828A4FF2FF731A4082827047828ADB
:102140004FF6FB731A408282828A0A43828270476A
:1021500021B1828A42F00202828204E0828A4FF632
:10216000FD731A408282704702460020B1F5007F5D
:1021700000D100BF13880B400BB1012000E000200C
:10218000704701F40072B2F5007F00D100BFCA436E
:102190000280704770B5024600240023002500200D
:1021A00040F66A16B14200D100BFC1F3421501F0FA
:1021B0001F03012606FA03F3012D02D1968933404D
:1021C00006E0022D02D1168A334001E0968A3340A0
:1021D0000C12012606FA04F41688344013B10CB12F
:1021E000012000E0002070BD10B50022002340F661
:1021F0006A14A14200D100BF0A1201249440A3B284
:10220000DC43048010BD0000003801400044004061
:1022100000480040004C004000500040DF4800688B
:1022200040F00100DD49086008464068DC4908408C
:10223000DA49486008460068DA490840D74908602A
:102240000846006820F4802008600846406820F4B2
:10225000FE0048604FF41F0088607047CF4909684E
:1022600021F48031CD4A11601146096821F48021A2
:102270001160B0F5803F03D0B0F5802F0ED106E09D
:10228000C649096841F48031C44A116007E0C34976
:10229000096841F4A021C14A116000E000BF00BFFD
:1022A000704710B501460022002300204A11012A80
:1022B00002D1BA4C236806E0022A02D1B74C236A45
:1022C00001E0B64C636A01F01F02012494401C40F7
:1022D0000CB1012000E0002010BD38B500200090B6
:1022E0000024002500BF3120FFF7DBFF05460098E2
:1022F000401C00900098B0F5A06F01D0002DF2D0E6
:102300003120FFF7CEFF08B1012400E00024204671
:1023100038BD01460020A14A106820F0F80040EACC
:10232000C10010607047A049086070470246002055
:102330009A4B586820F47C1042EA01031843974BEB
:102340005860704798490866704701460020934AD4
:10235000506820F003000843506070478F48406881
:1023600000F00C007047014600208C4A506820F0B5
:10237000F00008435060704701460020874A5068CB
:1023800020F4E06008435060704701460020834A13
:10239000506820F4605040EAC1005060704729B195
:1023A0007E4A527A02437D4B5A7204E07B4A527A4B
:1023B00082437A4B5A7270477B49D8310860704724
:1023C00001460020754A506820F4404008435060A0
:1023D00070470021714A20321170704A82F8201033
:1023E000012802D004280AD104E001216B4A2032DE
:1023F000117005E00521694A2032117000E000BF2C
:1024000000BF70476949086070476449096A014321
:10241000624A11627047654944390860704730B5B7
:1024200000210022002400235C4D6D6805F00C01A2
:1024300021B1042905D0082923D105E05C4D0560B0
:1024400022E05B4D05601FE0544D6D6805F470128D
:10245000524D6D6805F48034022505EB92421CB99B
:10246000544D554305600BE04C4D6D6805F4003547
:102470001DB1504D5543056002E04D4D554305607B
:1024800002E04B4D056000BF00BF444D6D6805F094
:10249000F0010909484D6B5C0568DD4045603F4D22
:1024A0006D6805F4E061090A434D6B5C4568DD40E9
:1024B00085603A4D6D6805F46051C90A3E4D6B5C0C
:1024C0004568DD40C560354D6D6805F44041890BB8
:1024D0003A4D6B5CC568B5FBF3F5056130BD29B1BC
:1024E0002E4A526902432D4B5A6104E02B4A52692D
:1024F00082432A4B5A61704729B1284A92690243A4
:10250000264B9A6104E0254A92698243234B9A61E3
:10251000704729B1214AD2690243204BDA6104E0B5
:102520001E4AD26982431D4BDA61704729B11B4AAA
:10253000D2680243194BDA6004E0184AD268824339
:10254000164BDA60704729B1144A12690243134BE3
:102550001A6104E0114A12698243104B1A617047F4
:1025600012494039086070470F49C86470470B49E9
:10257000C87170470948406A40F080700749486256
:10258000704701460020054A92680A400AB10120BE
:1025900000E0002070470149887270470010024037
:1025A0000000FFF8FFFFF6FE0000424280044242B6
:1025B00000127A0000093D00620000207200002035
:1025C00030B943F2DB028100A1F1C0410A6005E0AD
:1025D00043F2D2028100A1F1C0410A606FF0704263
:1025E000411C8900A1F1C0410A608100A1F1C041F4
:1025F000C1F80421704710280AD118214FF0204259
:102600001166402151664FF0FC319166D16610E0B1
:102610001821F74A116040214FF02042C2F884107F
:102620004FF0FC31F24A083211604FF02042C2F8FC
:102630008C1070471820EE492031086000200906F0
:10264000C1F8A4004FF0FC30E94928310860091DA9
:102650000860091D08607047D0E901121143C26883
:102660001143026911434269114382691143C269EE
:102670001143026A1143426A1143826A1143C26ADA
:102680001143026B114302689200A2F1C042116033
:10269000816808290BD101688900A1F1C04109684E
:1026A00041F0400201688900A1F1C0410A60416B1C
:1026B0000968426B526841EA0211426B926841EA32
:1026C0000221426B928941EA0241426B128A41EA3D
:1026D0000251426B127D41EA0261426B92691143E1
:1026E0000268521C9200A2F1C0421160C16AB1F5A9
:1026F000804F1BD1816B0968826B526841EA0211DD
:10270000826B926841EA0221826B128A41EA02518D
:10271000826B127D41EA0261826B92691143026809
:102720009200A2F1C042C2F8041107E06FF07042BB
:1027300001688900A1F1C041C1F80421704730B59A
:10274000002100220023446844F0080485682C43DB
:10275000C5682C4305692C43456944EA45248569CD
:1027600044EA4531C4692468C5696D6844EA0524B2
:10277000C5692D8944EA0544C5692D7B44EA056293
:10278000046A2468056A6D6844EA0524056A2D898F
:1027900044EA0544056A2D7B44EA05630468102C6D
:1027A00005D14FF020442166A266E36608E0904C14
:1027B00021604FF02044C4F888208D4C0C342360F5
:1027C00030BD016841F01001426841EA422182684F
:1027D00041EA4231864A20321160C1680968C26804
:1027E000526841EA0221C268128941EA0241C26884
:1027F000127B41EA02617E4A283211600169096850
:102800000269526841EA02210269128941EA0241E1
:102810000269127B41EA0261754A2C3211604169FA
:1028200009684269526841EA02214269128941EA13
:1028300002414269127B41EA02614FF02042C2F834
:10284000B0107047002101600221416000218160C9
:10285000C160016141618161C16101624FF48051D8
:102860004162490081620021C16201630F21426B14
:102870001160426B5160FF21426B91600F21426BEE
:10288000D160426B1161426B51610021426B9161D9
:102890000F21826B1160826B5160FF21826B91600E
:1028A0000F21826BD160826B1161826B51610021BB
:1028B000826B91617047102101600021416081604D
:1028C000C160016141618161FC21C2691160C2691D
:1028D0005160C2699160C269D160026A1160026A86
:1028E0005160026A9160026AD16070470021016004
:1028F00041608160FC21C2681160C2685160C26899
:102900009160C268D1600269116002695160026918
:1029100091600269D1604269116042695160426907
:1029200091604269D160704751B18200A2F1C0420A
:10293000126842F001038200A2F1C042136009E074
:102940008200A2F1C04212682A4B1A408300A3F110
:10295000C0431A60704799B1102808D14FF0204247
:10296000126E42F004024FF020431A661DE0204A26
:10297000126842F004024FF02043C3F8802014E0B4
:10298000102809D14FF02042126E1A4BDB1E1A405C
:102990004FF020431A6608E0154A1268154BDB1EFB
:1029A0001A404FF02043C3F88020704748B11049C7
:1029B0002031096841F004014FF02042C2F8A01014
:1029C00009E00B49203109680A4AD21E11404FF034
:1029D0002042C2F8A0107047B9B110280CD14FF0B6
:1029E0002042126E42F040024FF020431A661FE070
:1029F000800000A0FEFF0F00724A126842F0400201
:102A00004FF02043C3F8802012E0102808D14FF087
:102A10002042126E6C4B1A404FF020431A6607E0BA
:102A2000684A1268684B1A404FF02043C3F8802070
:102A3000704701460020102903D14FF02042506F0B
:102A400002E0604A14321068704710B5F2B11028E5
:102A500007D14FF020435B6E0B434FF02044636679
:102A600032E0B0F5807F08D1564B1B1D1B680B432D
:102A70004FF02044C4F8843026E0524B24331B68C6
:102A80000B434FF02044C4F8A4301DE0102807D1B8
:102A90004FF020435B6E8B434FF02044636613E09E
:102AA000B0F5807F08D1474B1B1D1B688B434FF04F
:102AB0002044C4F8843007E0424B24331B688B4326
:102AC0004FF02044C4F8A43010BD10B502460020D9
:102AD0000023102A03D14FF02044636E09E0B2F5C1
:102AE000807F03D1374C241D236802E0354C243409
:102AF000236803EA01040CB1012000E0002010BDAE
:102B0000102807D14FF02042526E8A434FF02043E5
:102B10005A6613E0B0F5807F08D12A4A121D126868
:102B20008A434FF02043C3F8842007E0254A24322B
:102B300012688A434FF02043C3F8A420704770B551
:102B400002460020002300240025102A03D14FF064
:102B50002046736E09E0B2F5807F03D1194E361D11
:102B6000336802E0174E2436336803EA010403EAAF
:102B7000D10514B10DB1012000E0002070BD102876
:102B800008D14FF02042526E22EAD1024FF020438A
:102B90005A6615E0B0F5807F09D10A4A121D126805
:102BA00022EAD1024FF02043C3F8842008E0054A0E
:102BB0002432126822EAD1024FF02043C3F8A42045
:102BC00070470000800000A0BFFF0F0000B585B077
:102BD0006846FFF724FC019805B000BD10B5FFF76B
:102BE000F5FF04461748006840F0807015490860FA
:102BF0000020154948600846006840F00100086060
:102C0000204600F0B6F810BD0F49486870472DE91E
:102C1000F0478246FFF7DAFF4FF0000980460B4A83
:102C200000234046494609F08CFA064632460B46D8
:102C30005046002109F085FA04460D4620462946F3
:102C4000BDE8F087FCED00E0001000E040420F001E
:102C500010B5002400BF00BF00F052F9044600BFC9
:102C600000BF1021A14800F0D2FA00BF00BF2046EB
:102C700000F04AF900BF00BF10BD10B5FFF7E8FF34
:102C800010BD10B500209A490860FFF7A7FF10BDDE
:102C900010B5FFF7F6FFFFF7F0FF10BD00BFFEE72E
:102CA00070B505460C46002614B900BFFFF7F6FFC5
:102CB00015B90A20208070BD00BF00BF00F020F9C8
:102CC000064600BF00BF10228849284600F056FF84
:102CD00000BF00BF304600F017F900BF00BF002062
:102CE000208000BFE7E72DE9F04105460C460027AC
:102CF00014B900BFFFF7D2FF1DB90A202080BDE83C
:102D0000F0811021284600F021FF0646102E15D232
:102D100000BF00BF00F0F4F8074600BF00BF10225C
:102D20002946724800F02AFF00BF00BF384600F075
:102D3000EBF800BF00BF0020208002E04FF47A7063
:102D4000208000BFDBE710B5FFF75EFF044620469A
:102D500010BD704700B5014611B900BFFFF79EFFD7
:102D6000634A106808B1002201E04FF4FA620A8059
:102D700000BD5F490860704770B50546284600F001
:102D8000CAF80446183C204670BD70B50546284672
:102D900000F0C1F80446103C204670BD70B50546F1
:102DA000284600F0B8F8044600BF204670BD30B594
:102DB00002460B460024D2F1FF359C4126D24FF645
:102DC000FF74D2F1FF359C410FD26FF07F44D2F1F6
:102DD000FF359C4103D2190E464C605C44E0190C4F
:102DE000444C645C04F108003EE0FF24D2F1FF355E
:102DF0009C4105D2190A3F4C645C04F1100033E099
:102E000019463C4C645C04F118002DE04FF6FF7548
:102E10000024AD1A9C4115D26FF07F450024AD1AF5
:102E20009C4107D2140E44EA0321324C645C04F145
:102E3000200019E0140C44EA03412E4C645C04F1B8
:102E4000280011E00024D2F1FF059C4107D2140AAA
:102E500044EA0361274C645C04F1300004E011464D
:102E6000244C645C04F1380030BD70B504460CB9E4
:102E7000082070BD204600F051F805462846F8E7C6
:102E800070B504460CB9102070BD204600F046F81D
:102E900005462846F8E770B504460CB9202070BDF9
:102EA000204600F03BF805462846F8E72DE9F043B8
:102EB00004460D46002184EA01006940084302D11E
:102EC0004020BDE8F083E243E843521C40F100019A
:102ED00002EA040601EA050730463946FFF767FFB4
:102EE0008046C8F13F094846EBE70000680A002029
:102EF000780000207CE1000872B6704762B6704727
:102F0000EFF3108072B6704780F31088704730BFBF
:102F1000704720BF7047B0FA80F0704790FAA0F079
:102F2000B0FA80F0704790FAA0F07047014641294E
:102F300003DB5A2901DC012200E00022012A08D02B
:102F4000612903DB7A2901DC012200E00022012A49
:102F500001D1012200E000221046704701464129BC
:102F600003DB5A2901DC012200E00022012A08D0FB
:102F7000612903DB7A2901DC012200E00022012A19
:102F800001D1012200E00022012A08D0302903DB10
:102F9000392901DC012200E00022012A01D10122AD
:102FA00000E00022104670470146612903DB7A29C0
:102FB00001DC012200E00022104670470146412951
:102FC00003DB5A2901DC012200E000221046704791
:102FD0000146302903DB392901DC012200E000220F
:102FE000104670470146302903DB372901DC0122F6
:102FF00000E00022104670470146302901DB3929E4
:1030000007DD412901DB462903DD612903DB662950
:1030100001DC012200E00022104670470146202911
:1030200001D0092901D1012200E000221046704799
:103030000146202909D00D2907D00A2905D00C29DD
:1030400003D0092901D00B2901D1012200E000227F
:10305000104670470146202903DB7E2901DC01224E
:1030600000E00022104670470146212903DB7E293B
:1030700001DC012200E000221046704701462029B1
:1030800003DB7E2901DC012200E00022012A35D188
:10309000202909D00D2907D00A2905D00C2903D0F1
:1030A000092901D00B2901D1012200E000222ABB0D
:1030B000412903DB5A2901DC012200E00022012A18
:1030C00008D0612903DB7A2901DC012200E000221B
:1030D000012A01D1012200E00022012A08D0302972
:1030E00003DB392901DC012200E00022012A01D1A1
:1030F000012200E000220AB9012200E0002210466D
:10310000704701464AB2002A01DB1F2901DD7F29F1
:1031100001D1012200E000221046704701464129FA
:1031200003DB5A2901DC012200E00022012A02D13E
:1031300001F1200200E00A46D0B270470146612941
:1031400003DB7A2901DC012200E00022012A02D1FE
:10315000A1F1200200E00A46D0B27047F0B5044663
:103160000B462046FFF7EAFF05461846FFF7E6FF45
:103170000646B54201D1012000E00020074638464E
:10318000F0BD0000FC48FD4901600146416000219E
:103190008160C160016141618161C161016201635E
:1031A000C1624162F6498163C1634FF48061016489
:1031B00041640146F34A116070472DE9F04105462C
:1031C0000B4694460027002402E03F021F43641C84
:1031D000042CFAD3604605F00306294646B134466E
:1031E00003E001F8013B401E641C08B1042CF8D335
:1031F0000A4601E080C2001F0428FBD2114602E00B
:1032000001F8013B401E0028FAD1BDE8F08130B53D
:1032100005460C46224600212846FFF7CEFF30BD6A
:103220002DE9F04F85B007468846914646463D4613
:10323000AE4207D94A464146384601F01DF905B06D
:10324000BDE8F08F4C4607EB0900451E08EB09006E
:10325000461EA81B04900498042834D305F00300EC
:10326000029006F003010191DDE90110884201D1CD
:10327000012000E0002000900098012823D102984E
:10328000032810D0029840B2039008E016F8010914
:1032900005F80109641E0398401E40B2039014B162
:1032A00003980028F2DAA5F1030AA6F1030B04E063
:1032B0005BF804094AF80409241F042CF8D20AF127
:1032C00003050BF1030604E016F8010905F80109EE
:1032D000641E002CF8D100BFB1E72DE9F84F8046FD
:1032E0008946154615B90120BDE8F88FB8F1000FE1
:1032F00001D10020F8E7B9F1000F01D10020F3E778
:103300000124294608EB050209EB050302F0030C32
:1033100003F0030BDC4501D1012000E00020009008
:103320000098012829D1BCF1000F12D0E2460AE032
:10333000521E5B1E107893F800E0704500D0002408
:10334000491EAAF1010A012C03D111B1BAF1000FF3
:10335000EED1012C11D116461F4608E0361F3F1F43
:103360003068D7F800E0704500D00024091F012C18
:1033700001D10429F2D232463B4608E0521E5B1EC0
:10338000107893F800E0704500D00024491E012C0D
:1033900001D10029F2D12046A6E7F0B503460E463A
:1033A0001546D96BB1FBF5F005FB101CBCF1000F05
:1033B00002D0A5EB0C0200E000229419586CA04248
:1033C00001D20020F0BD0F191144DF63586C001BBF
:1033D00058640846F6E72DE9F04106460F46B6FB6D
:1033E000F3FC03FB1C6109B15C1A00E00024B2FB92
:1033F000F3FC03FB1C2109B15D1A00E0002502EB80
:103400000508A7F1010C08FB0C4C0CEB0200BDE811
:10341000F0812DE9FE4F8046894614461E46002065
:1034200000900CB901AC00BF00202060524F00BFDB
:1034300000BFFFF765FD009000BF00BFF86B029072
:10344000D7F844B04B46424601210298FFF7C3FF2C
:1034500005465D450FD900BF00BF0098FFF754FD3A
:1034600000BF00BFA5EB0B00206042F2E27030808D
:103470000020BDE8FE8F4A4641463846FFF78DFFE3
:103480008246BAF1000F0CD100BF00BF0098FFF7D1
:103490003BFD00BF00BF256042F2E270308000209B
:1034A000E7E700BF00BF0098FFF72EFD00BF00BF99
:1034B00042F2107030805046DBE72DE9FC5F074692
:1034C0000C4690460020009000BF00BFFFF718FD9B
:1034D000009000BF00BFD7F80490D9F8380008B1B9
:1034E000484600E024488246DAF84450DAF83CB016
:1034F00000BF00BF0098FFF707FD00BF00BF012C11
:103500000AD9BBFBF4F004FB10B60EB1A01B00E01F
:103510000020019001982D1A42F21070A8F80000C6
:103520002846BDE8FC9F70B504460D462A46214654
:103530001148FFF7C2FF0646304670BD18B942F287
:1035400011720A807047104A026000224260826055
:10355000C260026142618261C26102628262426350
:103560000263C26242628263C2630264426442F2E4
:1035700010720A8000BFE5E7780A002048454150F4
:10358000C00A00207C0000204E4F4E452DE9FF4F21
:1035900091B00446DDE9208900200090B8F1000FC9
:1035A00002D10DF1180800BF0020C8F800004946FC
:1035B0002046FFF7C3FFB9F8000042F210718842BD
:1035C00002D015B0BDE8F08FFE48006820B942F285
:1035D000E770A9F80000F4E7DFF8ECA300200590FD
:1035E00000BF00BFFFF78CFC009000BF00BF129827
:1035F00080BB5546AB462E46DAF83C000D900423BE
:103600001A4614990D98FFF7E6FE049004990D9858
:1036100008440C90DDE91E2314990C98FFF7DBFE9B
:103620000390DDE9030108440590DAF84470059839
:10363000B8427DD900BF00BF0098FFF765FC00BF0E
:1036400000BF0598C01BC8F8000042F2E270A9F85C
:103650000000B6E7FFE712980B90DDE9120108447D
:10366000401E0A900025AB46D64806683BE0B16B89
:103670001298814205D1316C1398814201D13546AF
:1036800033E0B06B0990316CB06B0844401E089079
:10369000DDE90901814200D227E009990B988842AF
:1036A00003D8DDE9091088420FD209990B988842A6
:1036B00003D308990A98884207D908990B98884239
:1036C0000FD808990A9888420BD300BF00BF009812
:1036D000FFF71AFC00BF00BF42F27F70A9F800009C
:1036E0006FE7B346F668002EC1D100BF45B9254645
:1036F0001298A0631298E063139820641398606492
:10370000DAF83C000D9004231A4614990D98FFF73F
:1037100062FE0490DAF844700498B84211D900BFF0
:1037200000BF0098FFF7F0FB00BF00BF049800E067
:1037300024E0C01BC8F8000042F2E270A9F80000C3
:103740003FE7E86B0C90DDE91E2314990C98FFF716
:1037500042FE03906F6C0398B8420FD900BF00BFC0
:103760000098FFF7D1FB00BF00BF0398C01BC8F84B
:10377000000042F2D870A9F8000022E714988000F7
:103780000290042250460299FFF707FE0F900F980F
:1037900030BBDAF8447000BF00BF0098FFF7B4FBFD
:1037A00000BF00BF129858B90598B84204D90598CF
:1037B000C01BC8F800000EE00598C8F800000AE039
:1037C0000298B84204D90298C01BC8F8000002E071
:1037D0000298C8F8000042F2E270A9F80000F0E692
:1037E0000020019034E02846DDE91E12FFF7D5FDE8
:1037F0000E900E9820BBE86B0C906F6C00BF00BF62
:103800000098FFF781FB00BF00BF01991498401A90
:103810000790DDE91E2307990C98FFF7DCFD059062
:103820000598B84204D90598C01BC8F8000002E00A
:103830000598C8F8000042F2D870A9F80000C0E668
:10384000019ADDE90E0141F822000198401C019027
:10385000149901988842C6D3A5420DD1C4F808B086
:10386000E660BBF1000F02D0CBF80C4001E05548F8
:1038700004605EB1B46009E0686910902561109839
:1038800060616C61109808B1109804614F48206025
:1038900065600C98A06103990C980844401EE06193
:1038A0000F9820620398A0621F9860631E9820639F
:1038B0001498E0621498606200BF00BF0098FFF7A0
:1038C00023FB00BF00BF42F21070A9F8000000BF48
:1038D00077E62DE9F04104460D46002700BF00BF02
:1038E000FFF70EFB074600BF00BF666A00BF00BFC0
:1038F0003846FFF709FB00BF00BF42F21070288076
:103900003046BDE8F0812DE9F04104468846154671
:10391000002700BF00BFFFF7F3FA074600BF00BF54
:10392000606A60B900BF00BF3846FFF7EDFA00BF1C
:1039300000BF42F2DE7028800020BDE8F081E16A1D
:10394000606A88420BD900BF00BF3846FFF7DCFA37
:1039500000BF00BF42F2957028800020EDE7606A4A
:10396000401E6062D4E9080150F8216000BF00BF2A
:103970003846FFF7C9FA00BF00BF42F21070288036
:103980003046DAE72DE9F04704460F4615464FF07A
:10399000000900BF00BFFFF7B3FA814600BF00BFB8
:1039A000E06AC01B461EE06AB04213D800BF00BFE9
:1039B0004846FFF7A9FA00BF00BF42F29570288081
:1039C000002005E07C000020780A0020504F4F4C7A
:1039D000BDE8F087606AB0420BD900BF00BF48461F
:1039E000FFF792FA00BF00BF42F2957028800020D6
:1039F000E7E7206A50F8268000BF00BF4846FFF77F
:103A000083FA00BF00BF42F2107028804046D8E71A
:103A10002DE9F04704460E4617464FF0000A00BF56
:103A200000BFFFF76DFA824600BF00BFE16A606A1F
:103A300088420BD300BF00BF5046FFF765FA00BFB6
:103A400000BF42F2DD703880BDE8F0874FF000081B
:103A5000656A08E0206A50F82590B14502D14FF020
:103A6000010803E06D1CE06AA842F3D800BFB8F17A
:103A7000010F06D1D4E9080150F82100216A41F86C
:103A80002500D4E9080140F82160606A401C6062AA
:103A900000BF00BF5046FFF737FA00BF00BF42F239
:103AA0001070388000BFCFE72DE9F84F04460F466D
:103AB0001646002000904FF0FF3B00BF00BFFFF70D
:103AC0001FFA009000BF00BFE16A606A88420CD311
:103AD00000BF00BF0098FFF717FA00BF00BF42F217
:103AE000DD7030805846BDE8F88F4FF00009656AF8
:103AF00008E0206A50F82580B84502D14FF001094E
:103B000003E06D1CE06AA842F3D800BFB9F1010FD1
:103B10000FD1E06A401EA0EB050A00BF00BF00986D
:103B2000FFF7F2F900BF00BF42F21070308050463C
:103B3000D9E700BF00BF0098FFF7E6F900BF00BF5C
:103B400042F2887030805846CDE7000010B502463A
:103B50000B461146002001E0491C401C19B10C78AD
:103B60000CB19842F8D310BD30B504464FF0FF3188
:103B70002046FFF7EBFF0546284630BD70B50446EA
:103B80000D4616460CB9002070BD0DB90020FBE7AC
:103B900021462A46002304E010780870491C521C74
:103BA0005B1C21B11AB1107808B1B342F4D301B152
:103BB0000AB90020E8E7B34201D20020087020468D
:103BC000E2E770B504460D464FF0FF322946204625
:103BD000FFF7D4FF0646304670BD70B503460C466D
:103BE00015460BB9002070BD0CB90020FBE70DB9DC
:103BF0001846F8E7194600E0491C11B1087800287A
:103C0000FAD109B90020EEE72246002604E0107838
:103C10000870491C521C761C21B11AB1107808B1E9
:103C2000AE42F4D301B10AB90020DCE700200870ED
:103C30001846D8E770B504460D464FF0FF322946C6
:103C40002046FFF7CAFF0646304670BD2DE9F04317
:103C500005460B469446BCF1000F02D10020BDE89A
:103C6000F08335B90BB90020F9E7187842421046C5
:103C7000F5E713B92A781046F1E729461C460F46A6
:103C800026467F1C761C4FF0000805E0491C641C8A
:103C90007F1C761C08F10108087894F800904845CC
:103CA00005D1087818B117B10EB1E045EED3E04563
:103CB00001D10020D3E7087894F80090484505D05A
:103CC000087894F80090A0EB09020BE0087808B996
:103CD000002207E02FB90EB9002203E030784242FB
:103CE00000E03A781046BAE770B504460D464FF04A
:103CF000FF3229462046FFF7A9FF0646304670BD31
:103D00002DE9F74F82B080460E46049818B900207E
:103D100005B0BDE8F08FB8F1000F09D10EB9002051
:103D2000F6E73078FFF7FAF907467C422046EFE7DE
:103D30003EB998F80000FFF7F1F905462C462046F9
:103D4000E6E7C146B246C846C3465646CDF804A08B
:103D5000D8460BF1010B019E701C0190C84699F8E2
:103D60000000FFF7DBF9054656469AF80000FFF71A
:103D7000D5F907460020009015E009F101090AF184
:103D8000010A0BF1010B0198401C01900098401CA6
:103D9000009099F80000FFF7C1F905469AF8000075
:103DA000FFF7BCF90746BD420BD199F8000040B1BE
:103DB000BBF1000F05D0019818B104990098884212
:103DC000DBD304990098884201D10020A0E7BD42CE
:103DD00001D0EC1B16E00DB9002413E0BBF1000F7D
:103DE0000AD1019808B900240CE001990878FFF77E
:103DF00095F907467C4205E09BF80000FFF78EF935
:103E000005462C46204683E770B504460D464FF024
:103E1000FF3229462046FFF773FF0646304670BD45
:103E200030B504460B4615460CB9002030BD0BB921
:103E30000020FBE72146002201E0491C521C31B161
:103E4000087820B10878A84201D09A42F5D309B980
:103E50000020EBE79A4201D30020E7E70878A84268
:103E600001D00020E2E70846E0E770B505460C46C1
:103E700022464FF0FF312846FFF7D2FF0646304674
:103E800070BD2DE9F04305460E46174615B90020D2
:103E9000BDE8F0830EB90020FAE72C46A6F101092F
:103EA00049462046FFF752FE804644440CB90020A4
:103EB000EEE700E0641EAC4202D02078B842F9D1AF
:103EC0002078B84201D00020E2E72046E0E770B554
:103ED00005460C4622464FF0FF312846FFF7D1FF3A
:103EE0000646304670BD70B504460D4616460CB900
:103EF000002070BD0BB90020FBE721461A4605E003
:103F00000878A84200D10E70491C521E19B10878D9
:103F100008B1002AF4D12046EBE7F0B504460D467F
:103F200016464FF0FF33324629462046FFF7DBFFA7
:103F300007463846F0BD2DE9FF4F06460F461546A9
:103F40001EB9002004B0BDE8F08F0FB90020F9E7DA
:103F50000DB90020F6E7681C00B101E04FF0FF301A
:103F6000039029463046FFF7F1FD80463846039915
:103F7000FFF7ECFD04460CB93046E3E7444501D9B0
:103F80000020DFE706EB080BBBF1000F01D100209A
:103F9000D8E707EB040BBBF1000F01D10020D1E7FC
:103FA000A8EB040002904FF000090020019000BF30
:103FB00006EB09000090224639460098FFF746FEBE
:103FC0008246BAF1000F01D1012000E000200190EB
:103FD00009F10109019810B902988145E8D9BAF1AF
:103FE000000F01D00020ADE70098ABE770B50446A4
:103FF0000D464FF0FF3229462046FFF79CFF06464C
:10400000304670BD2DE9FF4F8DB00F4615461A9E04
:104010001D9818B9002011B0BDE8F08F0020039062
:104020000490012F01DA01200390022D01D3242DE9
:1040300001D90120039096B33046FFF70BF80290A8
:104040000298012802D00120039028E0302E26D0CB
:10405000A6F13000C0B207901B98012804D0A6F149
:104060004100C0B2069003E0A6F16100C0B2069024
:104070000A2D02D80798A84209DB0A2D09D907980A
:104080000A2804D3A5F10A000699884201D9012023
:1040900000E0002005900598012800D103901D9CA8
:1040A0000398002846D1DDF834A0DDF834A0CDF81F
:1040B00030A001200B9007E00B98401CC0B20B9081
:1040C0000C98B0FBF5F00C900C98A842F4D2109824
:1040D000012800D100E0002009900B9909980844BC
:1040E000B84225DC002001900B98B84201DA0B9809
:1040F00000E038460A903EB1B8460A98391A099845
:10410000081AC0B2089006E0DDE90910084400F082
:10411000FF08002008900898002806DD302E01D105
:10412000012000E00020049004E00020049001E061
:1041300001200390039800B1B84644441C9808B18C
:1041400000202070641E4FF0000941E00398A8BBD6
:10415000BAF1000F02D1B9F1000F1CD1BAFBF5F092
:1041600005FB10A000F0FF0BBBF10A0F04D20BF10E
:10417000300004F801090BE01B98012804D00BF172
:10418000370004F8010903E00BF1570004F80109B6
:10419000BAFBF5FA1AE01098012810D1049808B972
:1041A000019828B1049850B1A8F10100484506D102
:1041B0002D2004F801090120019007E003E02EB151
:1041C00004F8016902E03F2004F8010909F101093E
:1041D000C145BBD3039808B100201CE71D981AE71E
:1041E0002DE9FF5F05460E4617461C46DDE90F9A8E
:1041F000DDF8388000233A46314628468DE810071E
:10420000FFF700FF8346584604B0BDE8F09F2DE954
:10421000FF4F85B0044689461F46DDE913AB002CED
:1042200002DA6542012601E025460026129833464F
:10423000CDE902ABCDE9007049462846079AFFF761
:10424000E1FE8046404609B0BDE8F08F2DE9FF4F02
:104250008BB0064689461546B9F1000F02D10DF123
:10426000240900BFC9F80060189810B907A8189071
:1042700000BF0021189801701EB900200FB0BDE8E2
:10428000F08F012D01D0242D01D90020F6E734460E
:104290002078FEF7CDFE039004E0641C2078FEF742
:1042A000C7FE039003980128F7D020782B2802D06E
:1042B0002D280BD103E0641C4FF0000B09E00E9891
:1042C000012800D1641C4FF0010B02E04FF0000BFD
:1042D00000BF00BF0A9425B1082D1CD0102D36D187
:1042E0001EE02078302814D1641C2078582802D091
:1042F00078280BD100BF102567783846FEF77CFE82
:104300008246BAF1010F00D1641C01E0082500BF0C
:1043100000E00A251CE02078302800D1641C17E05A
:104320002078302812D1641C2078582802D07828B0
:104330000AD100BF67783846FEF75EFE8246BAF1C2
:10434000010F00D1641C00E000BF00BF00E000BF0F
:1043500000BF4FF0000800200290019040E0277855
:104360003846FEF7FBFD05900598012836D1384602
:10437000FEF72EFE06900698012804D1A7F1300022
:10438000C0B208900FE03846FEF70EFE0490049885
:10439000012804D1A7F15700C0B2089003E0A7F1AB
:1043A0003700C0B208900898A84214DA029880B981
:1043B000304850F82500404509D308FB05F8089817
:1043C00080440898804504D20120029001E0012039
:1043D0000290641C04E00120019001E001200190A2
:1043E00001980028BBD00298012801D14FF0FF3876
:1043F0000A98844202D0C9F8004001E0C9F8006080
:10440000189880F800B0404638E7F8B504460D46E5
:104410001646002003463246294600902046FFF704
:1044200015FF07463846F8BD2DE9FC4105460E4606
:10443000174601A801233A46314600902846FFF767
:1044400005FF04469DF8040040B9B4F1004F02D3C3
:104450006FF0004000E02046804607E0B4F1004FD6
:1044600002D34FF0004000E0604280464046BDE885
:10447000FC81000080E20008002800D1704700297C
:1044800000D17047002A00D170472DE9F81F00F0D5
:10449000030301F00304A34211D1C3F1040303F0A9
:1044A0000303012B1DD3012A00D2F2E011F8014BC6
:1044B00000F8014BA3F10103A2F10102F1E700F0C2
:1044C000010301F00104A34200D094E0012B44D386
:1044D00011F8014B00F8014BA3F10103A2F1010215
:1044E000F4E7B2F5B47F26D3B1E8F81FA0E8F81FCF
:1044F000B1E8F81FA0E8F81FB1E8F81FA0E8F81F1E
:10450000B1E8F81FA0E8F81FB1E8F81FA0E8F81F0D
:10451000B1E8F81FA0E8F81FB1E8F81FA0E8F81FFD
:10452000B1E8F81FA0E8F81FB1E8F81FA0E8F81FED
:10453000A2F5B472D5E7282A06D3B1E8F81FA0E89F
:10454000F81FA2F12802F6E7042A06D351F8043B2B
:1045500040F8043BA2F10402F6E7202A42D331F8E6
:10456000023B20F8023B31F8023B20F8023B31F8D5
:10457000023B20F8023B31F8023B20F8023B31F8C5
:10458000023B20F8023B31F8023B20F8023B31F8B5
:10459000023B20F8023B31F8023B20F8023B31F8A5
:1045A000023B20F8023B31F8023B20F8023B31F895
:1045B000023B20F8023B31F8023B20F8023B31F885
:1045C000023B20F8023B31F8023B20F8023B31F875
:1045D000023B20F8023B31F8023B20F8023BA2F1FB
:1045E0002002BAE7022A06D331F8023B20F8023B48
:1045F000A2F10202F6E7102A42D311F8013B00F8BB
:10460000013B11F8013B00F8013B11F8013B00F8B8
:10461000013B11F8013B00F8013B11F8013B00F8A8
:10462000013B11F8013B00F8013B11F8013B00F898
:10463000013B11F8013B00F8013B11F8013B00F888
:10464000013B11F8013B00F8013B11F8013B00F878
:10465000013B11F8013B00F8013B11F8013B00F868
:10466000013B11F8013B00F8013B11F8013B00F858
:10467000013B11F8013B00F8013BA2F11002BAE73F
:10468000012A06D311F8013B00F8013BA2F1010217
:10469000F6E7BDE8F81F7047154816481648174852
:1046A000174818481848194819481A481A481B4802
:1046B0001B481C481C481D481D481E481E481F48D2
:1046C0001F482048204821482148224822482348A2
:1046D0002348244824482548254826482648274872
:1046E0002748284828482948294800BF7047000023
:1046F000B4E3000814E3000818E300081CE3000812
:1047000020E3000824E3000828E300082CE3000865
:1047100030E3000834E3000838E300083CE3000815
:1047200040E3000844E3000848E300084CE30008C5
:1047300050E3000854E3000858E300085CE3000875
:1047400060E3000864E3000868E300086CE3000825
:1047500070E3000874E3000878E300087CE30008D5
:1047600080E3000884E3000888E300088CE3000885
:1047700090E3000894E3000898E300089CE3000835
:10478000A0E30008A4E30008A8E30008ACE30008E5
:10479000B0E30008002400BF19E000BF00BFFEF72F
:1047A000AFFB044600BF00BFF7480068401CF64955
:1047B0000860F6480068401CF449086000BF00BF6C
:1047C0002046FEF7A1FB00BF00BF07F083FBE4E734
:1047D00010B58AB004460020EB4908600B20002188
:1047E0000591CDE9070406910846E9490968E94AB7
:1047F0001268E94B1B68CDE90132CDE903103F2077
:104800000023AFF26F02E5A10090E94804F08EFDAD
:104810000AB010BD00210AE001EB4102E54B03EBB9
:10482000820000220281026042604A1CD1B240290B
:10483000F2D3704770B5044607F054FB0020DE4900
:104840000870DE490870DE490870DE490860DE49FC
:104850000860DE490870DE490870DE490870DE49EC
:104860000860DE490860DE490860DE490870DE48FD
:1048700000680A21B0FBF1F0DC490860DC48006800
:1048800058B1DC48056845B1D948066803E0761E92
:10489000002028602D1D002EF9D10020D649086087
:1048A000D6490860D6490860D6490860D6490860EC
:1048B000D6490860D6490860D649087003F016F852
:1048C000FFF7A8FF204601F03FFE208800B170BD31
:1048D000204602F07AF9208800B1F8E7204602F07D
:1048E000A0F9208800B1F2E7204602F0E7FF208817
:1048F00000B1ECE7204603F093FC208800B1E6E726
:10490000204604F0A9F8208800B1E0E7204606F030
:104910007DF9208800B1DAE7204601F09AFF20886F
:1049200000B1D4E72046FFF753FF208800B1CEE75F
:10493000204606F0C2FA208800B1C8E7204604F0FD
:1049400044FB208800B1C2E7204607F01EFA208809
:1049500000B1BCE700F020FEFFF79EFE00BFB6E707
:1049600096480078012800D0704793480078FA28CC
:1049700000DBF9E790480078401C8F49087000BFC1
:10498000F2E710B500248D480078012800D010BD52
:1049900000BFFEF7B5FA044600BF8748007828B983
:1049A00000BF2046FEF7B0FA00BFF0E7824800786B
:1049B000401E8149087008460078002805DD00BFC8
:1049C0002046FEF7A1FA00BFE1E77D480078002805
:1049D00005DD00BF2046FEF797FA00BFD7E702F0DB
:1049E0008FFF7B4908700846007800EB4000714952
:1049F00051F8200074490860084600687149096848
:104A0000884205D100BF2046FEF77EFA00BFBEE710
:104A10006D480068D0F89000401C6B490968C1F8E7
:104A200090007D480068401C7B4908604FF0805032
:104A30007A49086000BF2046FEF766FA00BF00BF53
:104A4000A5E710B500245C480078002800DD10BD03
:104A50005B480078002800DDF9E700BFFEF750FA58
:104A6000044600BF02F04CFF594908700846007820
:104A700000EB40004F4951F82000534908600846B8
:104A8000006850490968884205D100BF2046FEF7FA
:104A90003BFA00BFDBE74C480068D0F89000401CB0
:104AA00049490968C1F890005B480068401C5A49B0
:104AB00008604FF080505949086000BF2046FEF75B
:104AC00023FA00BF00BFC2E710B53D4800780128B7
:104AD00003D1FEF799F84049086010BD70B504464F
:104AE000002535480078002803DD46F66250208016
:104AF00070BD32480078012803D045F689602080D7
:104B0000F6E72F480078FA2803DB45F209202080D9
:104B1000EEE700BF00BFFEF7F3F9054600BF00BF98
:104B200027480078401C26490870FFF7CDFF00BFDA
:104B300000BF2846FEF7E8F900BF00BF0020208034
:104B400000BFD5E710B51E48007880B9FEF75CF8C5
:104B500021490968441A21480068A04201D21F482F
:104B600004601F480068A04201D21D48046010BDC7
:104B700070B50446002510480078002850DD46F640
:104B80006550208070BD0000A400002008010020B6
:104B90001CE3000818E3000814E3000875432F4FD6
:104BA000532D4949492049646C65205461736B0059
:104BB00050230020E4240020A8000020A9000020A9
:104BC000F0000020480100204C010020D600002009
:104BD000D7000020D8000020E4000020E8000020DA
:104BE000EC000020F800002074E30008F40000202E
:104BF00044E3000840E30008880000208C00002007
:104C00009000002094000020980000209C000020CC
:104C1000A0000020260100201C01002004ED00E07F
:104C2000F9480078012803D045F68960208070BDDE
:104C3000F648007818B946F664502080F7E700BFC0
:104C400000BFFEF75DF9054600BF00BFEF480078E2
:104C5000401EEE4908700846007800280ADD00BFB3
:104C600000BF2846FEF750F900BF00BF46F663506C
:104C70002080DCE7FFF766FF00BF00BF2846FEF795
:104C800043F900BF00BFFFF7DCFE0020208000BF1B
:104C9000CDE72DE9F04105460C461646002700BF3A
:104CA00000BFFEF72DF9074600BF00BF012D03D05E
:104CB0000020D749087002E00120D549087014B1DE
:104CC000D448046006E0D44800680A21B0FBF1F043
:104CD000D049086000BF00BF3846FEF715F900BF95
:104CE00000BF00203080BDE8F08110B501460C897E
:104CF00024B1012C03D0022C0CD101E000BF14E040
:104D000008684A6802610024C4601461D0600A60C7
:104D100048600AE008684A68C36800241C61C460EF
:104D20000261D0600B60486000BF00BF10BD2DE97C
:104D3000F04104460027B9480078002804DD48F215
:104D4000D1402080BDE8F081B0480078002803DD24
:104D500046F663502080F5E7AD480078012803D07F
:104D600046F67B102080EDE700BF00BFFEF7C8F8D5
:104D7000074600BF00BFAA48007800EB4000A949E1
:104D800001EB8006308902280ADA00BF00BF3846EE
:104D9000FEF7BAF800BF00BF46F67A102080D1E7D0
:104DA0003046FFF7A2FF3568686D18B9994800686A
:104DB000A86501E0686DA86500BF00BF3846FEF732
:104DC000A3F800BF00BFFFF73CFE0020208000BF1B
:104DD000B8E710B504468C480078E8B902F090FDB9
:104DE00091490870084600788D4908708E4800780F
:104DF00000EB40008B4951F820008C4908600846C0
:104E000000688B49086001207F49087007F076FB35
:104E100043F69920208002E045F68A60208010BD8C
:104E200001460020088047F25C60704730B548B109
:104E30004568C1F8C05000F10804226893681D6AF3
:104E4000C56113E091F83450022D02D0072D08D12E
:104E500003E078A5C1F8C05007E078A5C1F8C050BC
:104E600003E079A5C1F8C05000BF00BF30BDF0B568
:104E70008E6896F8375007893FB9012707810027C8
:104E80004F600F600160416023E007897F1C07814C
:104E9000026806E0946894F83770AF4200DD02E0E3
:104EA0005268002AF6D100BF32B900274F6043682C
:104EB0000B60596041600CE017682FB91160002742
:104EC0000F604A60016004E013680B604A6059603B
:104ED0001160F0BD10B5C287016300230AE0002411
:104EE0004C600C600C614C610C83CC61886020319B
:104EF0005C1CA3B29342F2DB10BD2DE9F0410546E4
:104F000095F8370000EB4000464901EB80042F691B
:104F1000EE6887B946B9002020812060606095F86E
:104F2000370002F00FFD0EE02089401E2081002096
:104F30003061266007E02089401E2081FE600EB9A6
:104F4000676000E0376100202861E860BDE8F0811B
:104F500038B504460D4685B16B46022229462046E7
:104F600005F0ECFFBDF8000018B9032084F8360006
:104F700006E0022084F8360002E0022084F83600C1
:104F80002046FFF7BAFF38BD2DE9F04105460C4633
:104F900016461F462648006880F8346000202449E1
:104FA000096881F83500394621480068FFF7D0FFCD
:104FB0006CB104F10808EC60012229461C48006825
:104FC000FFF788FF29464046FFF751FF06E0002023
:104FD00017490968C88716490968086314480168B1
:104FE0002046FFF723FFBDE8F08110B50489012CAE
:104FF00003D100240460446033E00C6834BB4A6889
:105000000024146002602CE0A9000020F0000020C1
:10501000F8000020F400002074E30008A80000203D
:10502000D6000020E4240020D70000204C010020FE
:10503000480100205461736B205100005461736B70
:105040002053656D00000000200000004C6824B96A
:105050000B6800245C60436003E00B684A685A6098
:1050600013600489641E048100244C600C6010BD30
:105070002DE9F0410446256BE68F0AE0D5F80C8057
:1050800008F1080729463846FFF7AFFF2035701EA4
:1050900086B2002EF2DC0020E0872063BDE8F081BC
:1050A00030B50346086BCC8F08E0C5689D4202D13D
:1050B0000361C26104E02030651EACB2002CF4DC58
:1050C00000BF30BD10B590F8373003EB4303F74C09
:1050D00004EB83010B893BB901230B810023C360DF
:1050E00003610860486009E00B895B1C0B810B6859
:1050F000C360002303610A681061086010BD10B529
:1051000090F8373003EB4303E84C04EB83010B8941
:105110003BB901230B810023C36003610860486031
:1051200008E00B895B1C0B810023C3604A680261A5
:10513000D060486010BD10B5044694F8370002F006
:10514000F1FB94F83700DA490978884203D1204608
:10515000FFF7D5FF02E02046FFF7B4FF10BD10B502
:105160000446204605F07AFD94F8360000F004006D
:1051700010B92046FFF7DFFF10BD70B505460C469D
:10518000164694F83600082847D2DFE800F00405F8
:1051900008090607272800BF00BF00BF3EE000BF88
:1051A00094F83400032804D1324621462846FFF7FC
:1051B00077FF0020E065A4F86000266415B1204662
:1051C000FFF756FF2046FFF7CAFF00203434A070D7
:1051D00001206070002004F834091FE000BF94F83B
:1051E0003400032804D1324621462846FFF758FFF1
:1051F0000020E065A4F86000266415B12046FFF7A2
:1052000037FF204605F02AFD04203434A070012029
:105210006070002004F8340900E000BF00BF70BDDA
:1052200030B5AFF2DC15C1F8C05000F108042268B7
:105230001AB193681D6AC56102E0AFF2F415C56149
:1052400030BD2DE9F04304460F4684F83770256BD6
:10525000B4F83E8013E0D5F80C9009F108063089C7
:10526000012807D929463046FFF7BFFE29463046B8
:10527000FFF7FDFD2035A8F101001FFA80F8B8F115
:10528000000FE8D1BDE8F083002101604160018199
:10529000704703895B1C038103684B6000230B602C
:1052A000026802B1116001600389012B00D14160E5
:1052B000704730B50346086BCC8F08E0C5689D4247
:1052C00002D10361C26104E02030651EACB2002C43
:1052D000F4DC00BF30BD70B506460C46154694F8A8
:1052E0003600082845D2DFE800F004050809060763
:1052F000262700BF00BF00BF3CE000BF94F8340089
:10530000032804D12A4621463046FFF7D2FF002069
:10531000E065A4F8600025642046FFF7A9FE20465A
:10532000FFF71DFF00203434A070022060700020C1
:1053300004F834091EE000BF94F83400032804D1B7
:105340002A4621463046FFF7B4FF0020E065A4F866
:1053500060002564204605F081FC2046FFF788FEAA
:1053600004203434A07002206070002004F8340956
:1053700000E000BF00BF70BDF0B50446059E086B9D
:10538000CD8F0AE0C768A74204D10461426103835C
:10539000C66104E020306F1EBDB2002DF2DC00BFFC
:1053A000F0BD2DE9F84306460C4617469846089D81
:1053B00094F83600082850D2DFE800F00405080908
:1053C00006072B2C00BF00BF00BF47E000BF94F8CA
:1053D0003400032807D143463A462146304600951B
:1053E000FFF7CAFF03E0E765A4F86080256436B1E3
:1053F0002046FFF73DFE21463046FFF711FF2046CD
:10540000FFF7ADFE00203434A070607004F834095A
:1054100024E000BF94F83400032807D143463A46FD
:10542000214630460095FFF7A7FF03E0E765A4F8A3
:1054300060802564204605F011FC36B12046FFF758
:1054400017FE21463046FFF7EBFE04203434A070EF
:105450000020607004F8340900E000BF00BFBDE820
:10546000F88310B5002400BFFDF74AFD044600BFD5
:10547000002010490870104810490860084600686C
:10548000D0F89000401C0968C1F890000C480068F2
:10549000401C0B4908604FF080500A49086000BF6B
:1054A0002046FDF731FD00BF10BD0000E4240020C0
:1054B000D6000020D7000020142400204C0100203A
:1054C0001C01002004ED00E070B5054600262E48C2
:1054D0000078012800D070BD00BF00BFFDF710FDAF
:1054E000064600BF00BF2C683CB900BF00BF304675
:1054F000FDF70AFD00BF00BFEDE72448844207D155
:1055000000BF00BF3046FDF7FFFC00BF00BFE2E771
:10551000A06D10B1A06D401EA065A06D38B100BF98
:1055200000BF3046FDF7F0FC00BF00BFD3E728897D
:10553000022807DA00BF00BF3046FDF7E5FC00BFD8
:1055400000BFC8E712480078002807DD00BF00BF91
:105550003046FDF7D9FC00BF00BFBCE72846FFF787
:10556000C4FB2C68606D18B90A480068A06501E0AA
:10557000606DA06500BF00BF3046FDF7C5FC00BFF1
:1055800000BF00BFA7E70000F80000205023002064
:10559000F0000020F4000020244825482548264833
:1055A00026482748274828482848294829482A487B
:1055B0002A482B482B482C482C482D482D482E484B
:1055C0002E482F482F48304830483148314832481B
:1055D00032483348334834483448354835483648EB
:1055E00036483748374838483848394839483A48BB
:1055F0003A483B483B483C483C483D483D483E488B
:105600003E483F483F48404840484148414842485A
:10561000424843484348444844484548454846482A
:1056200046484748474800BF70470000B8E30008B5
:1056300020E50008BAE30008BBE30008BCE300086B
:10564000C0E30008C4E30008C1E30008ECE300087D
:10565000EDE30008EEE30008F0E30008F2E30008E1
:10566000F4E30008F6E30008F8E3000818E4000893
:105670001AE400081CE400081EE4000820E4000806
:1056800022E4000824E4000850E4000851E4000883
:1056900052E4000854E4000856E4000857E4000807
:1056A00058E400085AE400085CE400085EE40008DE
:1056B00060E4000862E4000864E4000894E4000880
:1056C00095E4000896E4000897E4000898E40008D0
:1056D0009AE400089CE40008C4E40008C5E400085B
:1056E000C6E40008C7E40008C8E40008CAE40008EB
:1056F000CCE40008D0E40008D1E40008D2E40008BB
:10570000D3E40008D4E40008D5E40008D6E4000897
:10571000D7E40008D8E40008DAE40008DBE4000875
:10572000DCE40008DEE40008E0E40008E1E400084E
:10573000E4E4000818E5000819E500081AE5000887
:105740001CE500081EE50008F7A1C16100214161C8
:10575000F649096811B90021816105E0F34909683A
:105760008161F24909684861F049086070472DE994
:10577000F04104460E4617461D464FF00008EC481F
:105780000078002804DD42F6E1602880BDE8F08161
:105790001CB945F6C3502880F8E700BF00BF00BF22
:1057A000FDF7AEFB804600BF00BFE2480078401C1A
:1057B000E049087000BF00BF4046FDF7A5FB00BFF1
:1057C00000BF00BFDC482060666027620020606286
:1057D00004F10800FFF758FD2046FFF7B5FFD74852
:1057E0000088401CD549088000BF00BF00BFFDF7FE
:1057F00087FB804600BF00BFCE480078401ECD49E1
:10580000087000BF00BF4046FDF77EFB00BF00BF31
:1058100000BF0020288000BFB8E770B50446C84824
:105820002060C8A060600020206204F108052846BE
:10583000FFF72AFD70BD426981693AB9BB4B196017
:1058400009B100234B610023836109E019B90023EA
:105850009361436104E091614A6100238361436184
:1058600070472DE9FC5F05468846144600200090ED
:10587000AF480078002805DD43F2C92020800020D1
:10588000BDE8FC9F25B945F6C35020800020F7E70E
:10589000B8F1000F03D0B8F1010F02D100E000BF52
:1058A00004E045F6256020800020E9E700BFA2491A
:1058B0002868884204D045F6C45020800020DFE7E5
:1058C00000BF00BF00BFFDF71BFB009000BF00BF83
:1058D00098480078401C9749087000BF00BF0098A6
:1058E000FDF712FB00BF00BF00BF05F10809B9F8C2
:1058F00008603746B8F1000F03D0B8F1010F6ED140
:105900006EE07FBB2846FFF796FF8C480088401E5C
:105910008A4908802846FFF780FF00BF00BF00BF0C
:10592000FDF7EEFA009000BF00BF82480078401EED
:105930008049087008460078A8B984480088002883
:1059400009DD00BF00BF0098FDF7DEFA00BF00BF11
:10595000FFF787FD0EE000BF00BF0098FDF7D4FA07
:1059600000BF07E00AE000BF00BF0098FDF7CCFAD7
:1059700000BF00BF00BF002020802FE000BF00BF9D
:1059800000BFFDF7BDFA009000BF00BF6948007876
:10599000401E6849087008460078A0B96B48008826
:1059A000002809DD00BF00BF0098FDF7ADFA00BF79
:1059B00000BFFFF756FD0DE000BF00BF0098FDF7E8
:1059C000A3FA00BF06E000BF00BF0098FDF79CFAF5
:1059D00000BF00BF00BF47F25F10208067E035E0E6
:1059E000FDF712F901900AE0D9F800A0DAF808B042
:1059F00059462846019AFFF76EFC701E86B2002EAB
:105A0000F2D12846FFF717FF4C480088401E4B494B
:105A100008802846FFF701FF00BF00BF00BFFDF769
:105A20006FFA009000BF00BF42480078401E414915
:105A3000087000BF00BF0098FDF766FA00BF00BF06
:105A400000BFFEF7FEFF0020208030E000BF00BF57
:105A500000BFFDF755FA009000BF00BF3548007841
:105A6000401E3449087008460078A0B937480088BD
:105A7000002809DD00BF00BF0098FDF745FA00BF10
:105A800000BFFFF7EEFC0DE000BF00BF0098FDF780
:105A90003BFA00BF06E000BF00BF0098FDF734FAF4
:105AA00000BF00BF00BF45F62560208000BF00BFDB
:105AB0003846E5E62DE9F04106460F4614461D46F8
:105AC000DDF8188022480068C0F88040204800684F
:105AD000A0F8885000201E490968C1F88400434698
:105AE000012239463046FFF74FFABDE8F0812DE933
:105AF000F04F8BB00446884693469946DDE914750D
:105B0000002001900A480078002806DD46F2AE1019
:105B1000288000200BB0BDE8F08FDCB945F6C350FB
:105B200028800020F6E7000020000000C0000020D0
:105B3000A8000020F0000020464C4147C40000208F
:105B40004E4F4E453F464C4147000000B4000020F8
:105B50004801002048F20101A9EB0100894536D037
:105B60001ADC40F20111A9EB010089452BD00CDCB5
:105B7000B9F1010F23D0B9F1020F21D0B9F1040F0F
:105B80001FD0B9F1080F2AD11CE001281CD003282E
:105B90001BD0072823D119E0B0F5807F1BD006DC8D
:105BA000012815D0032814D0072818D112E0A0F23C
:105BB000011088B1022810D0062810D10EE000BFD5
:105BC00000BF00BF00BF00BF00BF00BF00BF00BFDD
:105BD00000BF00BF00BF00BF00BF00BF04E045F62C
:105BE00025602880002095E700BFF9492068884299
:105BF00004D045F6C450288000208BE709F480705B
:105C000010B14FF0010A01E04FF0000A0FB100207F
:105C1000386009F00F000A9000BF00BFFDF770F96F
:105C2000019000BF00BF0A9801286ED002286DD0F5
:105C3000042802D008286AD16AE0206A00EA08062F
:105C4000464517D1BAF1010F02D1206AB043206254
:105C5000E0480068C0F884600FB1606A386000BF37
:105C600000BF0198FDF750F900BF00BF0020288059
:105C700030464FE709F4004058B100BF00BF01981B
:105C8000FDF742F900BF00BF46F2B01028800020A7
:105C900040E7D148007800280BDD00BF00BF019825
:105CA000FDF732F900BF00BF46F6635028800020A0
:105CB00030E700BFC8480078401CC749087000BFE3
:105CC00000BF0198FDF720F900BF00BF00BF4B46A1
:105CD0004246214602A8CDF800B0FFF7EBFE00BF18
:105CE00000BF00BFFDF70CF9019000BF00BFBA482C
:105CF0000078401EB849087000BF00BF0198FDF74A
:105D000003F900BF00BF00BF44E168E0CFE035E128
:105D1000206A00EA0806BEB1BAF1010F02D1206A7A
:105D2000B0432062AB480068C0F884600FB1606A7D
:105D3000386000BF00BF0198FDF7E6F800BF00BF64
:105D4000002028803046E5E609F4004058B100BF45
:105D500000BF0198FDF7D8F800BF00BF46F2B010B1
:105D600028800020D6E69C48007800280BDD00BF84
:105D700000BF0198FDF7C8F800BF00BF46F66350AA
:105D800028800020C6E600BF93480078401C924956
:105D9000087000BF00BF0198FDF7B6F800BF00BF54
:105DA00000BF4B464246214602A8CDF800B0FFF79F
:105DB00081FE00BF00BF00BFFDF7A2F8019000BF49
:105DC00000BF85480078401E8349087000BF00BFAF
:105DD0000198FDF799F800BF00BF00BFDAE0206A24
:105DE00028EA0006464517D1BAF1010F02D1206A10
:105DF0003043206277480068C0F884600FB1606A61
:105E0000386000BF00BF0198FDF77EF800BF00BFFB
:105E10000020288030467DE609F4004058B100BFDC
:105E200000BF0198FDF770F800BF00BF46F2B01048
:105E3000288000206EE66848007800280BDD00BF4F
:105E400000BF0198FDF760F800BF00BF46F6635041
:105E5000288000205EE600BF5F480078401C5E4955
:105E6000087000BF00BF0198FDF74EF800BF00BFEB
:105E700000BF4B464246214602A8CDF800B0FFF7CE
:105E800019FE00BF00BF00BFFDF73AF8019000BF48
:105E900000BF51480078401E4F49087000BF00BF46
:105EA0000198FDF731F800BF00BF00BF72E0206A23
:105EB00028EA0006BEB1BAF1010F02D1206A3043D0
:105EC000206244480068C0F884600FB1606A38609E
:105ED00000BF00BF0198FDF717F800BF00BF00200A
:105EE0002880304616E609F4004058B100BF00BFD4
:105EF0000198FDF709F800BF00BF46F2B0102880F6
:105F0000002007E63448007800280BDD00BF00BF02
:105F10000198FCF7F9FF00BF00BF46F663502880E8
:105F20000020F7E500BF2C480078401C2A49087083
:105F300000BF00BF0198FCF7E7FF00BF00BF00BF34
:105F40004B464246214602A8CDF800B0FFF7B2FD0D
:105F500000BF00BF00BFFCF7D3FF019000BF00BF30
:105F60001D480078401E1C49087000BF00BF019802
:105F7000FCF7CAFF00BF00BF00BF0BE000BF00BFBF
:105F80000198FCF7C1FF00BF00BF45F625602880DF
:105F90000020BFE500BFFEF754FD00BF00BFFCF7C7
:105FA000AFFF019000BF00BF0A48006890F83500BD
:105FB00030B1012812D0022830D003283FD11EE092
:105FC0001FB104480068006C38600020288042E05F
:105FD000464C414748010020F00000201FB1FC481A
:105FE0000068006C386000BF00BF0198FCF78CFFB0
:105FF00000BF00BF46F2A910288000208AE50FB13B
:106000000020386000BF00BF0198FCF77DFF00BF93
:1060100000BF47F2D920288000207BE51FB1EC4863
:106020000068006C386000BF00BF0198FCF76CFF8F
:1060300000BF00BF45F6C250288000206AE500BFBF
:1060400000BF0198FCF760FF00BF00BF46F62E605E
:10605000288000205EE500BFDD480068D0F884603D
:10606000BAF1010F20D10A9801280BD002280AD0DA
:10607000042802D008280AD100E000BF206AB043FB
:10608000206210E000BF206A304320620BE000BFB6
:1060900000BF0198FCF738FF00BF00BF45F6256040
:1060A0002880002036E500BF00BF00BF0198FCF744
:1060B0002BFF00BF00BF0020288030462AE52DE9D5
:1060C000F05F05460E4614464FF0000AC1480078BE
:1060D000002805DD46F2AA1020800020BDE8F09FD0
:1060E00025B945F6C35020800020F7E74EB1B6F53C
:1060F000807F07D0B6F5004F05D0B6F5014F04D12B
:1061000002E000BF00BF00BF04E045F6256020802C
:106110000020E3E700BFB0492868884204D045F674
:10612000C45020800020D9E700BF00BFFCF7E8FE84
:10613000824600BF00BF05F10807388958B900BF83
:1061400000BF5046FCF7E0FE00BF00BF46F2AB10B8
:1061500020800020C2E700BFA0480078401C9F4973
:10616000087000BF00BF5046FCF7CEFE00BF00BF66
:1061700000BF4FF00008FCF747FD83460FE038688A
:10618000D0F808905A4649462846FEF7F6FF08F12F
:1061900001001FFA80F8B6F5807F00D002E0388950
:1061A0000028ECDC00BF00BF00BF00BFFCF7A8FE6A
:1061B000824600BF00BF89480078401E87490870AA
:1061C00000BF00BF5046FCF79FFE00BF00BF00BFEE
:1061D00006F4004008B9FEF734FC00202080404659
:1061E0007CE770B5044600267A480078002804DD74
:1061F00046F2AE102080002070BD00BF00BFFCF74B
:106200007FFE064600BF00BF71480068D0F884508A
:1062100000BF00BF3046FCF777FE00BF00BF002084
:1062200020802846E8E770B504460E46154634340B
:106230002665002060702070E560A078343C082856
:1062400016D2DFE800F0040508090706101100BFA8
:1062500000BF00BF0DE000BF2046FEF780FF00201A
:1062600084F8360005E000BF042084F8360000E022
:1062700000BF00BF2046FEF7FBFE70BD2DE9F04FCA
:1062800085B00446894692469B46DDF8388000205A
:10629000009000BF00BFFCF733FE009000BF00BFBE
:1062A000BAF1000F0AD0BAF1010F0DD0BAF5004FC4
:1062B00005D06FF40040504460B906E000BF206A8A
:1062C00040EA0900206214E000BF206A20EA0900C9
:1062D00020620EE000BF00BF0098FCF715FE00BF73
:1062E00000BF45F62560A8F80000002005B0BDE815
:1062F000F08F00BFC4F824B004F1080001900198A9
:10630000008958B900BF00BF0098FCF7FDFD00BF31
:1063100000BF0020A8F80000206AE7E700BF2F4870
:106320000078401C2D49087000BF00BF0098FCF7A2
:10633000EBFD00BF00BF00BF01980768BD6888E0A3
:106340007868029095F8880000F00F000390039899
:10635000012821D002282ED0042802D008283FD1BD
:106360000EE0206AD5F8801000EA0106D5F880001A
:10637000B04204D15A4631462846FFF754FF62E046
:10638000206AD5F8801000EA010626B15A46314647
:106390002846FFF748FF56E0D5F88000216A20EA3A
:1063A0000106D5F88000B04204D15A46314628464D
:1063B000FFF739FF47E0D5F88000216A20EA01069F
:1063C00026B15A4631462846FFF72DFF3BE0000034
:1063D00048010020A8000020464C4147F000002062
:1063E00000BF00BF00BFFCF78BFD009000BF00BFE7
:1063F00059480078401E5849087008460078A0B9EE
:1064000056480088002809DD00BF00BF0098FCF74F
:106410007BFD00BF00BFFFF724F80DE000BF00BF09
:106420000098FCF771FD00BF06E000BF00BF0098B8
:10643000FCF76AFD00BF00BF00BF43F6FF20A8F8CD
:106440000000002052E700BF029F0FB1BD6800E0CE
:106450000025002D7FF474AF00BF00BF00BFFCF724
:106460004FFD009000BF00BF3B480078401E3A49F6
:10647000087000BF00BF0098FCF746FD00BF00BFDA
:1064800000BF0AF4004008B9FEF7DBFA00BF00BF06
:10649000FCF736FD009000BF00BF206A049000BFEB
:1064A00000BF0098FCF730FD00BF00BF0020A8F837
:1064B000000004981AE72DE9FF470546884617466D
:1064C0001C4635B945F6C3502080002004B0BDE815
:1064D000F0874FB1012F08D0B7F5004F06D06FF409
:1064E0000040384420B902E000BF00BF00BF04E014
:1064F00045F6256020800020E8E700BF184928689D
:10650000884204D045F6C45020800020DEE7FCF726
:106510007BFB06461348007800280BDD00231A4653
:1065200029460F48CDE90087CDE9026400F020F844
:106530000020CBE733463A46414628460094FFF711
:106540009DFE81464846C1E70021074A1160074A7F
:106550001180018070470000F0000020B40000208E
:10656000464C4147A8000020C0000020C400002085
:106570002DE9F84F04460D4616461F46DDE90BABE4
:10658000DDF82890DDF834800020009000BF00BFC7
:10659000FCF7B6FC009000BF00BFE2480088E2496B
:1065A000098888423EDADF480088401CDD490880BF
:1065B000DE4800880988884203DADA480088DB4927
:1065C0000880DB4800680460D94800688560D848C6
:1065D0000068C660D64800680782D5480068C0F8E1
:1065E0001490D3480068A0F818A0D1480068C0F8FB
:1065F0001CB0CF4800684068CD4908600120CD49F3
:106600000881CD4808604860002001F08BF9CB4834
:10661000007818B1C9480078C94908700020A8F866
:10662000000008E0C7480088401CC649088044F2C2
:106630005360A8F8000000BF00BF0098FCF764FC9E
:1066400000BF00BFBDE8F88F3EB5BF4800680068D6
:10665000BE4A811A904279D00FDCBD490844002817
:106660003ED0BC490844A8B1BB490844002860D0CA
:10667000BA49084400286AD13FE0B94808440028D4
:1066800050D0B8490844002862D0B74908440028CF
:10669000F1D110E002A8AC4D00902D68EB69AA4D35
:1066A0002D682A8BA84D2D686969A74D2D68A868AB
:1066B000FFF7E4FD7AE002A9A3480068C069A24D93
:1066C000CDE900012D682B8B9F4D2D682A8A9E4DA8
:1066D0002D68E9689C4D2D68A86801F09CFC65E078
:1066E000994B1B68DA69984B1B68198B964B1B6892
:1066F000986802AB02F074F858E002A9924800686A
:10670000C069914DCDE900012D682B8B8E4D2D6810
:106710002A8A8D4D2D68E9688B4D2D68A86803F095
:1067200026FA43E088490968886802A903F0D7FB84
:106730003CE0854B1B68DA69834B1B68198B824BE5
:106740001B68986802AB03F039FE2FE007E02CE0ED
:106750007D490968886802A904F05DF926E0784956
:10676000097801EB4101734A02EB8100FEF7ACFEB0
:106770007548006802AB0021C2697C4803F01EFE28
:106780007B480068401E7A4908600846006858B98E
:10679000784800680860FCF737FA044602AB2246E6
:1067A0000021754803F00AFE00E000BF00BF3EBDB7
:1067B000002700BF4CE0002648E000BF00BFFCF708
:1067C0009FFB074600BF00BF5648008888B90020DD
:1067D000584908810860486001F0B4F800BF00BF64
:1067E0003846FCF791FB00BF00BFFEF72AF90126EF
:1067F0002CE000BF00BF3846FCF786FB00BF00BF9F
:10680000FCF702FA0546FFF71FFFFCF7FDF9441BF2
:106810005A480068A04201D25848046000BF00BF37
:10682000FCF76EFB074600BF00BF474800684068A2
:10683000454908603B480088401E3A49088000BF2F
:1068400000BF3846FCF760FB00BF00BF002EB4D08D
:10685000B1E7F0B589B0054600203A4908804848BC
:10686000006820B944F25260288009B0F0BD2E487B
:106870000088022803DA44F254602880F5E70020FB
:106880003E4908603E4804682646203600270CE052
:106890003C4820600020A060E0602082606120838E
:1068A000666020342036781C87B21F4800888742F3
:1068B000EEDB203C3248066866601D4806602248D0
:1068C0000660002017490880184908802E48006893
:1068D00018B944F255602880C7E72C4800682C4955
:1068E0000968884203D244F256602880BDE703203D
:1068F00000210591CDE90705069124480068254A45
:106900001268214B1B68CDE90301CDE901320091EA
:106910000B46AFF2631220A1074802F007FD00BF4B
:10692000A3E70000B400002028E30008B600002020
:10693000AC000020E424002014240020D600002015
:10694000D8000020B8000020B00000205449434B7C
:10695000ADBAB2BE0DF90BFAF2F8F7FF0006F6FF7A
:1069600000F7FDF700FFEFFF03FE0FFEA828002051
:1069700044010020400100206C290020BC000020C0
:1069800024E300084E4F4E4530E3000838E300088A
:1069900070E3000834E3000875432F4F532D494935
:1069A0004920495352205175657565205461736BB8
:1069B00000000000002181618749096811B90021A8
:1069C000C16105E084490968C1618349096888613A
:1069D0008149086070472DE9FF4F83B00446154692
:1069E0001F46DDE91096002000907C4800780028C2
:1069F00005DD45F2B960308007B0BDE8F08F1DB904
:106A000045F2BB603080F7E7022F03DA45F2BC6045
:106A10003080F1E7B9F1040F03D245F2C160308054
:106A2000EAE74FF0030ABAF1000F0DD005EA0A00B9
:106A300018B145F2BB603080DEE709EA0A0018B100
:106A400045F2C1603080D7E7AB46A846781E80B2D9
:106A500001900020029007E0C844CBF80080C346B4
:106A60000298401C80B20290DDE901108842F3DBFD
:106A70000020CBF8000000BF00BF00BFFCF740FAC9
:106A8000009000BF00BF56480078401C5449087071
:106A900000BF00BF0098FCF737FA00BF00BF00BF7F
:106AA000504820600498A0606560E560A782678216
:106AB000A4F810902046FFF77DFF4B480088401C4B
:106AC0004949088000BF00BF00BFFCF719FA0090D9
:106AD00000BF00BF42480078401E4149087000BF17
:106AE00000BF0098FCF710FA00BF00BF00BF0020F5
:106AF000308000BF80E72DE9F04104460D460027B5
:106B00002CB945F2BF6028800020BDE8F08100BFAD
:106B100000BFFCF7F5F9074600BF00BFA08A58B9CF
:106B200000BF00BF3846FCF7EFF900BF00BF45F2D9
:106B3000C26028800020E8E7E6683068E060A08A4C
:106B4000401EA08200BF00BF3846FCF7DDF900BF41
:106B500000BF002028803046D7E72DE9F0410446E9
:106B60000E461546002724B945F2BF602880BDE8CF
:106B7000F0811EB945F2BE602880F8E700BF00BF73
:106B8000FCF7BEF9074600BF00BFA08A618A8842B1
:106B90000ADB00BF00BF3846FCF7B6F900BF00BFF4
:106BA00045F2BA602880E2E7E0683060E660A08ADB
:106BB000401CA08200BF00BF3846FCF7A5F900BF0B
:106BC00000BF0020288000BFD1E70021024A1160E9
:106BD000054A118001807047C8000020A8000020ED
:106BE000F00000204D454D20CC00002070B502463D
:106BF0000B461046114610315E1EB5B2002408E067
:106C00000160002646600681C66010301031661CA7
:106C1000B4B2AC42F4DB0026066046600681C66072
:106C200070BD10B504467948006818B945F21E7069
:106C3000208010BD7648008818B945F21D7020806C
:106C4000F7E77348018871480068FFF7CFFF6F4886
:106C50000068704908606E48008888800020C880FD
:106C60000881208000BFE4E710B5014648894B89C0
:106C7000002B17DD0A68674B1B681360654C4B6877
:106C800023602346DB884C891B1B624CE380234630
:106C90009B884C8923445F4CA38000234B818B81CC
:106CA0000B604B6010BD0181002242818281026035
:106CB00042607047F0B504460D46608940B9002037
:106CC000288002B1106046F2925018800020F0BD7A
:106CD00061684E68088928800AB1C8681060086831
:106CE0006060606818B900202060608102E06089FF
:106CF000401E6081474800680860464801608088FF
:106D0000401C444FB8803846C088401EF8800020A0
:106D100018803046DBE72DE9F0410D46DDE90674C9
:106D2000B0F80AC0B0F80880C44505DB46F2935CB1
:106D3000A4F800C0BDE8F081DFF8D8C0BCF804C0FA
:106D4000BCF1000F04D145F21D7CA4F800C0F1E7AE
:106D5000DFF8C0C0DCF80010DFF8B880D1F800C060
:106D6000C8F800C0C446BCF804C0ACF1010CA8F8D7
:106D700004C0C446BCF806C00CF1010CA8F806C05B
:106D8000C446BCF808C0B8F80680C44507DADFF886
:106D900084C0BCF806C0DFF87C80A8F808C0B0F852
:106DA0000AC0BCF1000F06D1016041604FF0010C38
:106DB000A0F80AC017E003F0100CBCF1000F07D1D7
:106DC000066831604FF0000CC1F800C0016004E0BB
:106DD000D0F804C0C1F800C04160B0F80AC00CF19E
:106DE000010CA0F80AC0B0F80CC0B0F80A80C44585
:106DF00003DAB0F80AC0A0F80CC04D600A81CF6079
:106E00004FF0000CA4F800C000BF93E754E3000863
:106E10004CE30008D8240020F8A1C16100214161A1
:106E2000F749096811B90021816105E0F449096851
:106E30008161F34909684861F149086070472DE9AB
:106E4000F04104460E4615460027EE48007800281B
:106E500004DD42F6E1602880BDE8F0811CB945F60A
:106E6000C3502880F8E700BF00BF00BFFCF748F818
:106E7000074600BF00BFE4480078401CE2490870A4
:106E800000BF00BF3846FCF73FF800BF00BF00BF9F
:106E9000DE48206066600020206284F82500A06241
:106EA000402084F8240004F10800FEF7EDF92046A4
:106EB000FFF7B2FFD6480088401CD549088000BFC4
:106EC00000BF00BFFCF71CF8074600BF00BFCE485C
:106ED0000078401ECC49087000BF00BF3846FCF760
:106EE00013F800BF00BF00BF0020288000BFB3E739
:106EF00010B50446C7482060C7A06060002020622B
:106F000084F82500A062402084F8240004F10800E1
:106F1000FEF7BAF910BD426981693AB9B84B1960F8
:106F200009B100234B610023836109E019B90023F3
:106F30009361436104E091614A610023836143618D
:106F400070472DE9FE4F0546894614460020009003
:106F5000AC480078002805DD43F2C92020800020DD
:106F6000BDE8FE8F25B945F6C35020800020F7E725
:106F7000B9F1000F03D0B9F1010F02D100E000BF59
:106F800004E045F6256020800020E9E700BF9F4926
:106F90002868884204D045F6C45020800020DFE7EE
:106FA00000BF00BF00BFFBF7ABFF009000BF00BFFA
:106FB00095480078401C9449087000BF00BF0098B5
:106FC000FBF7A2FF00BF00BF00BF05F1080ABAF837
:106FD0000870B846B9F1000F03D0B9F1010F6FD1B5
:106FE0006FE0B8F1000F3AD12846FFF794FF8848C8
:106FF0000088401E864908802846FFF779FF00BFB9
:1070000000BF00BFFBF77CFF009000BF00BF7E48C1
:107010000078401E7C49087008460078A0B9804876
:107020000088002809DD00BF00BF0098FBF76CFF57
:1070300000BF00BFFEF715FA0DE000BF00BF0098CB
:10704000FBF762FF00BF06E000BF00BF0098FBF740
:107050005BFF00BF00BF00BF002020802FE000BF0B
:1070600000BF00BFFBF74CFF009000BF00BF6648A9
:107070000078401E6449087008460078A0B9684846
:107080000088002809DD00BF00BF0098FBF73CFF27
:1070900000BF00BFFEF7E5F90DE000BF00BF00989C
:1070A000FBF732FF00BF06E000BF00BF0098FBF710
:1070B0002BFF00BF00BF00BF47F25F102080E2E05F
:1070C000B0E02E6A002E61D096F8370095F82410B3
:1070D00088425BD096F83600082824D2DFE800F01A
:1070E00004131A1B14151C1D3046FDF706FF95F8F6
:1070F000240086F8370096F8370000F013FC30467D
:10710000FDF7FDFF41E000BF00BF95F8240086F8C1
:1071100037003AE000BF00BF00BF95F824103046AA
:10712000FEF78FF831E000BF00BF00BFFBF7E8FEBD
:10713000009000BF00BF34480078401E32490870FC
:1071400008460078A0B936480088002809DD00BF4D
:1071500000BF0098FBF7D8FE00BF00BFFEF781F923
:107160000DE000BF00BF0098FBF7CEFE00BF06E0B9
:1071700000BF00BF0098FBF7C7FE00BF00BF00BF05
:1071800046F62D6020800020EAE600BFFBF73CFDBC
:1071900001900BE0DAF800B0DBF808000290284616
:1071A000DDE90121FEF797F8781E87B2002FF1D1B3
:1071B0002846FFF7B0FE16480088401E1449088094
:1071C0002846FFF795FE00BF00BF00BFFBF798FE03
:1071D000009000BF00BF0C480078401E0A490870AC
:1071E00000BF00BF0098FBF78FFE00BF00BF00BFCD
:1071F000FDF727FC0020208045E000002000000073
:10720000D0000020A8000020F00000204D55545868
:10721000D40000204E4F4E453F4D55544558000078
:10722000B400002000BF00BF00BFFBF769FE009064
:1072300000BF00BFFE480078401EFD4908700846A8
:107240000078A0B9FB480088002809DD00BF00BF16
:107250000098FBF759FE00BF00BFFEF702F90DE0F2
:1072600000BF00BF0098FBF74FFE00BF06E000BF65
:1072700000BF0098FBF748FE00BF00BF00BF45F607
:107280002560208000BF00BF404669E62DE9F04739
:1072900088B00546894690461C46109E4FF0000A6D
:1072A000E5480078002805DD46F2AE10308008B0D1
:1072B000BDE8F0871DB945F6C3503080F7E7B8F157
:1072C000000F03D0B8F5004F02D100E000BF03E08B
:1072D00045F625603080EAE700BFD8492868884233
:1072E00003D045F6C4503080E1E70CB100202060A7
:1072F00000BF00BFFBF704FE824600BF00BF95F849
:107300002500C0B9CE4800682862CD48006890F8D2
:10731000370085F82400012085F825000CB1A86A03
:10732000206000BF00BF5046FBF7EEFD00BF00BF6E
:1073300000203080BBE7C249286A0968884212D120
:1073400095F82500401C85F825000CB1A86A20603E
:1073500000BF00BF5046FBF7D7FD00BF00BF45F29E
:1073600082703080A3E708F4004050B100BF00BF36
:107370005046FBF7C9FD00BF00BF46F2B010308099
:1073800095E7AB48007800280ADD00BF00BF5046F3
:10739000FBF7BAFD00BF00BF46F66350308086E7BA
:1073A00000BFA3480078401CA149087000BF00BF7F
:1073B0005046FBF7A9FD00BF00BF00BF2F6A97F83A
:1073C00037009F49096891F83710884260DD97F8C7
:1073D000360008282AD2DFE800F004151E1F171611
:1073E00020213846FDF789FD9548006890F8370060
:1073F00087F8370097F8370000F094FA3846FDF721
:1074000061FE44E000BF00BF8D48006890F837007F
:1074100087F837003BE000BF00BF00BF8848006826
:1074200090F837103846FDF70CFF30E000BF00BF82
:1074300000BFFBF765FD824600BF00BF7C480078B7
:10744000401E7B49087008460078A0B9794800883A
:10745000002809DD00BF00BF5046FBF755FD00BF07
:1074600000BFFDF7FEFF0DE000BF00BF5046FBF779
:107470004BFD00BF06E000BF00BF5046FBF744FDD8
:1074800000BF00BF00BF46F62D6030800FE700BF91
:107490004B46042229466846FDF776FD00BF00BF33
:1074A00000BFFBF72DFD824600BF00BF604800789B
:1074B000401E5F49087000BF00BF5046FBF724FD27
:1074C00000BF00BF00BFFDF7BCFA00BF00BFFBF765
:1074D00017FD824600BF00BF5948006890F835008C
:1074E00030B101280CD002281AD0032821D110E095
:1074F0001CB153480068006C2060002030801CE004
:107500001CB14F480068006C206046F2A910308022
:1075100013E00CB10020206047F2D92030800CE04D
:107520001CB147480068006C206045F6C2503080AE
:1075300003E046F62E60308000BF00BF00BF00BFF2
:107540005046FBF7E1FC00BF00BF00BFAFE62DE9EE
:10755000F05F05460E4614464FF0000A36480078A4
:10756000002805DD46F2AA1020800020BDE8F09F2B
:1075700025B945F6C35020800020F7E74EB1B6F597
:10758000807F07D0B6F5004F05D0B6F5014F04D186
:1075900002E000BF00BF00BF04E045F62560208088
:1075A0000020E3E700BF25492868884204D045F65B
:1075B000C45020800020D9E700BF00BFFBF7A0FC2B
:1075C000824600BF00BF05F10807388958B900BFDF
:1075D00000BF5046FBF798FC00BF00BF46F2AB105F
:1075E00020800020C2E700BF11480078401C1049ED
:1075F000087000BF00BF5046FBF786FC00BF00BF0D
:1076000000BF4FF00008FBF7FFFA83461AE0386826
:10761000D0F808905A4649462846FDF7AEFD08F1D5
:1076200001001FFA80F8B6F5807F0BD00DE0000056
:10763000F0000020B4000020A80000204D55545850
:107640004801002038890028E1DC00BF00BF00BFEE
:1076500000BFFBF755FC824600BF00BF9B48007887
:10766000401E9A49087000BF00BF5046FBF74CFC13
:1076700000BF00BF00BF06F4004008B9FDF7E1F904
:1076800000202080404671E72DE9F84F04468846E7
:1076900015464FF0000A8E480078002804DD46F2B7
:1076A0000E202880BDE8F88F1CB945F6C35028800D
:1076B000F8E7B8F1000F03D0B8F5004F02D100E0B1
:1076C00000BF03E045F625602880EBE700BF814955
:1076D0002068884203D045F6C4502880E2E700BF06
:1076E00000BFFBF70DFC824600BF00BF7A49206A4D
:1076F000096888420AD000BF00BF5046FBF704FC6F
:1077000000BF00BF45F281702880CBE700BF6F4803
:107710000078401C6D49087000BF00BF5046FBF761
:10772000F3FB00BF00BF00BFFBF76EFA0746A7627E
:1077300094F82500401E84F8250094F825000028C0
:1077400030DD00BF00BF00BFFBF7DAFB824600BFA1
:1077500000BF5E480078401E5C490870084600780B
:10776000A0B95E480088002809DD00BF00BF504670
:10777000FBF7CAFB00BF00BFFDF773FE0DE000BFC3
:1077800000BF5046FBF7C0FB00BF06E000BF00BFD4
:107790005046FBF7B9FB00BF00BF00BF45F2837046
:1077A00028807FE704F10809B9F8080098BB002099
:1077B000206284F8250000BF00BF00BFFBF7A0FBDC
:1077C000824600BF00BF41480078401E3F49087014
:1077D00008460078A0B941480088002809DD00BFAC
:1077E00000BF5046FBF790FB00BF00BFFDF739FE1E
:1077F0000DE000BF00BF5046FBF786FB00BF06E070
:1078000000BF00BF5046FBF77FFB00BF00BF00BFBB
:107810000020288046E7FFE72F48006890F83700EF
:1078200094F82410884219D02B480068FDF765FBB6
:1078300094F824002849096881F837002649096826
:1078400091F8370000F06EF823480068FDF757FC08
:107850002148006890F8370021490870D9F80000E5
:107860008668266296F8370084F82400012084F8A0
:10787000250000231A46314620460097FDF791FD6A
:1078800000BF00BF00BFFBF73BFB824600BF00BF4D
:107890000E480078401E0D49087000BF00BF5046DA
:1078A000FBF732FB00BF00BF00BF08F4004008B97F
:1078B000FDF7C7F80020288000BFF3E60021094A41
:1078C0001160094A1180018070470000F00000201B
:1078D000A80000204D55545848010020B400002055
:1078E000D6000020D0000020D4000020002004E0BA
:1078F00000211C4A42F82010401C0228F8D370478F
:1079000070B50025174C03E005F12000C5B2241D19
:1079100020680028F8D02068FBF7FDFA2844C5B29B
:10792000284670BD30B5420900F01F030121C3F1A4
:107930001F04A1400B4C54F822400C43094D45F85C
:10794000224030BD30B5420900F01F030121C3F1D0
:107950001F04A140034C54F822408C43014D45F8CC
:10796000224030BD80000020F8A1C16100214161AA
:10797000F749096811B90021816105E0F4490968F6
:107980008161F34909684861F149086070472DE950
:10799000F04104460F4616461D464FF00008ED48DC
:1079A0000078002804DD42F6E1602880BDE8F0811F
:1079B0001CB945F6C3502880F8E71EB946F294502A
:1079C0002880F3E700BF00BF00BFFBF799FA8046AD
:1079D00000BF00BFE0480078401CDF49087000BFCE
:1079E00000BF4046FBF790FA00BF00BF00BFDB4876
:1079F00020606760314604F12000FFF754F904F17C
:107A00000800FDF741FC2046FFF7AEFFD448008890
:107A1000401CD349088000BF00BF00BFFBF770FACD
:107A2000804600BF00BFCC480078401ECA4908709D
:107A300000BF00BF4046FBF767FA00BF00BF00BFB2
:107A40000020288000BFB1E710B5044604F12000F3
:107A5000FFF70AF9C3482060C3A06060002104F169
:107A60002000FFF720F904F10800FDF70DFC10BD20
:107A7000426981693AB9B64B196009B100234B617B
:107A80000023836109E019B900239361436104E095
:107A900091614A6100238361436170472DE9FC5F76
:107AA00005468846144600200090AA480078002821
:107AB00005DD43F2C92020800020BDE8FC9F25B9E8
:107AC00045F6C35020800020F7E7B8F1000F03D03F
:107AD000B8F1010F02D100E000BF04E045F62560D7
:107AE00020800020E9E700BF9C492868884204D034
:107AF00045F6C45020800020DFE700BF00BFFBF741
:107B0000FFF9009000BF00BF05F10809B9F808604F
:107B10003746B8F1000F03D0B8F1010F65D120E06E
:107B2000A7B92846FFF7A4FF8D480088401E8C495E
:107B300008802846FFF788FF00BF00BF0098FBF7CA
:107B4000E3F900BF00BF0020208009E000BF00BFB4
:107B50000098FBF7D9F900BF00BF47F25F10208003
:107B60004EE000BF7C480078401C7B49087000BF95
:107B700000BF0098FBF7C8F900BF00BF00BFFBF7CC
:107B800043F801900AE0D9F800A0DAF808B05946A5
:107B90002846019AFDF79FFB701E86B2002EF2D197
:107BA0002846FFF765FF6E480088401E6C49088034
:107BB0002846FFF749FF00BF00BF00BFFBF7A0F951
:107BC000009000BF00BF64480078401E6249087002
:107BD00000BF00BF0098FBF797F900BF00BF00BFD0
:107BE000FCF72FFF002020800AE000BF00BF0098B4
:107BF000FBF78AF900BF00BF45F62560208000BF73
:107C000000BF384659E72DE9F04105460C460026ED
:107C100050480078002805DD4FF46C50208000208B
:107C2000BDE8F08125B945F6C35020800020F7E774
:107C30004A492868884204D045F6C4502080002074
:107C4000EEE700BF00BF00BFFBF75AF9064600BFD2
:107C500000BF41480078401C3F49087000BF00BF8A
:107C60003046FBF751F900BF00BF00BF05F120000F
:107C7000FEF7FAFF074600BF00BF00BFFBF740F961
:107C8000064600BF00BF34480078401E32490870E5
:107C900008460078A0B935480088002809DD00BFF3
:107CA00000BF3046FBF730F900BF00BFFDF7D9FB3E
:107CB0000DE000BF00BF3046FBF726F900BF06E02D
:107CC00000BF00BF3046FBF71FF900BF00BF00BF79
:107CD000002020803846A3E72DE9F04F89B0074601
:107CE000894690461E46DDE912544FF0000B1948B4
:107CF0000078002806DD46F2AE102080002009B092
:107D0000BDE8F08F27B945F6C35020800020F6E784
:107D100026B946F2D52020800020F0E7B8F1000F08
:107D200003D0B8F5004F02D100E000BF04E045F6F3
:107D3000256020800020E2E700BF084938688842BB
:107D400016D045F6C45020800020D8E7200000005F
:107D5000DC000020A8000020F0000020515545550F
:107D6000E00000204E4F4E453F510000B40000207F
:107D70000DB10020286000BF00BFFBF7C1F88346AB
:107D800000BF00BF23462A46314607F12000FEF718
:107D900091FF8246208840B900BF00BF5846FBF7DC
:107DA000B3F800BF00BF5046A9E708F4004058B13F
:107DB00000BF00BF5846FBF7A7F800BF00BF46F260
:107DC000B010208000209AE7F748007800280BDDEB
:107DD00000BF00BF5846FBF797F800BF00BF46F64C
:107DE0006350208000208AE700BFEF480078401CE5
:107DF000ED49087000BF00BF5846FBF785F800BF8B
:107E000000BF00BF4B460522394601A8FDF7BCF86C
:107E100000BF00BF00BFFBF773F8834600BF00BF81
:107E2000E1480078401EE049087000BF00BF584696
:107E3000FBF76AF800BF00BF00BFFCF702FE00BFFF
:107E400000BFFBF75DF8834600BF00BFD74800685E
:107E500090F8350030B1012815D002282AD0032827
:107E600035D11DE0D1480068D0F85CA0CF4800684B
:107E7000B0F8600030801DB1CC480068006C28600C
:107E8000002020802BE04FF0000A002030801DB140
:107E9000C6480068006C286046F2A91020801EE0E9
:107EA0004FF0000A0020308005B1286047F2D92049
:107EB000208014E04FF0000A002030801DB1BB4844
:107EC0000068006C286045F6C250208007E04FF043
:107ED000000A0020308046F62E60208000BF00BFE0
:107EE00000BF00BF5846FBF70FF800BF00BF504669
:107EF00005E72DE9F05F05460E4614464FF0000AEF
:107F0000AB480078002805DD46F2AA10208000204A
:107F1000BDE8F09F25B945F6C35020800020F7E763
:107F20004EB1B6F5807F07D0B6F5004F05D0B6F557
:107F3000014F04D102E000BF00BF00BF04E045F6DE
:107F4000256020800020E3E700BF9A492868884226
:107F500004D045F6C45020800020D9E700BF00BF00
:107F6000FAF7CEFF824600BF00BF05F10807388947
:107F700058B900BF00BF5046FAF7C6FF00BF00BFA8
:107F800046F2AB1020800020C2E700BF8648007890
:107F9000401C8549087000BF00BF5046FAF7B4FF87
:107FA00000BF00BF00BF4FF00008FAF72DFE834668
:107FB0000FE03868D0F808905A4649462846FDF741
:107FC000DCF808F101001FFA80F8B6F5807F00D0D8
:107FD00002E038890028ECDC00BF00BF00BF00BF12
:107FE000FAF78EFF824600BF00BF6F480078401E40
:107FF0006D49087000BF00BF5046FAF785FF00BF0B
:1080000000BF00BF06F4004008B9FCF71AFD0020CD
:10801000208040467CE72DE9F04F85B007468A4630
:1080200093461C460020029000BF00BF00BFFAF735
:1080300067FF029000BF00BF5B480078401C5A49B0
:10804000087000BF00BF0298FAF75EFF00BF00BFD4
:1080500000BF07F108063089002842D104F0100063
:1080600010B94FF0000801E04FF01008DDE90E01F3
:1080700043465A46CDE90001514607F12000FEF77C
:108080004AFE00BF00BF00BFFAF73AFF029000BFF0
:1080900000BF45480078401E4349087008460078F4
:1080A000A0B945480088002809DD00BF00BF02983C
:1080B000FAF72AFF00BF00BFFDF7D3F90DE000BFBC
:1080C00000BF0298FAF720FF00BF06E000BF00BF24
:1080D0000298FAF719FF00BF00BF00BF05B0BDE866
:1080E000F08F04F4007008B1358900E00125D6F85E
:1080F000009011E0D9F808000390D9F8040004902A
:108100000E985B465246009038460399FDF749F9B0
:10811000DDF81090681E85B2002DEBD100BF00BFC6
:1081200000BFFAF7EDFE029000BF00BF1E480078C6
:10813000401E1D49087000BF00BF0298FAF7E4FE18
:1081400000BF00BF00BF04F4004008B9FCF779FC91
:1081500000210F98018000BFC0E72DE9FF470546C9
:10816000884691461F460C9C25B945F6C350208091
:10817000BDE8FF87B7F5004F24D009DCF7B1102F19
:108180001DD0B7F5007F1BD0B7F5047F1ED118E0D6
:10819000A7F500401038B0B1B0F5F87F14D0B0F5B5
:1081A000007F13D111E00000F00000204801002002
:1081B000A800002051554555B400002000BF00BF65
:1081C00000BF00BF00BF00BF00BF03E045F6256051
:1081D0002080CDE700BF16492868884203D045F6C5
:1081E000C4502080C4E7FAF70FFD06461148007816
:1081F00000280BDD00204B4642462946CDE901769A
:10820000039400900A48FEF7B3F9B1E73B464A46AB
:1082100041462846CDE90064FFF7FDFE00BFA7E711
:108220000021054A1160054A118001807047000055
:1082300051554555A8000020DC000020E00000203A
:10824000F8A1C16100214161F749096811B9002114
:10825000816105E0F44909688161F3490968486171
:10826000F149086070472DE9F04104460E46174673
:108270001D464FF00008ED480078002804DD42F666
:10828000E1602880BDE8F0811CB945F6C350288024
:10829000F8E700BF00BF00BFFAF732FE804600BF1C
:1082A00000BFE3480078401CE149087000BF00BFF0
:1082B0004046FAF729FE00BF00BF00BFDD4820603E
:1082C000276200206062666004F10800FCF7DCFFB2
:1082D0002046FFF7B5FFD8480088401CD6490880E3
:1082E00000BF00BF00BFFAF70BFE804600BF00BF13
:1082F000CF480078401ECE49087000BF00BF4046FE
:10830000FAF702FE00BF00BF00BF0020288000BFB8
:10831000B8E710B50446C9482060002020626062BA
:10832000C7A0606004F10800FCF7AEFF10BD426911
:1083300081693AB9BC4B196009B100234B61002334
:10834000836109E019B900239361436104E09161FD
:108350004A6100238361436170472DE9FC5F054654
:108360008846144600200090B0480078002805DDBB
:1083700043F2C92020800020BDE8FC9F25B945F6C6
:10838000C35020800020F7E7B8F1000F03D0B8F108
:10839000010F02D100E000BF04E045F62560208017
:1083A0000020E9E700BFA3492868884204D045F6C9
:1083B000C45020800020DFE700BF00BFFAF7A0FD17
:1083C000009000BF00BF05F10809B9F80860374602
:1083D000B8F1000F03D0B8F1010F65D120E0A7B9C3
:1083E0002846FFF7A4FF94480088401E9249088061
:1083F0002846FFF78EFF00BF00BF0098FAF784FD04
:1084000000BF00BF0020208009E000BF00BF00982F
:10841000FAF77AFD00BF00BF47F25F1020804EE000
:1084200000BF83480078401C8149087000BF00BF2E
:108430000098FAF769FD00BF00BF00BFFAF7E4FB40
:1084400001900AE0D9F800A0DAF808B059462846A9
:10845000019AFCF740FF701E86B2002EF2D128462A
:10846000FFF765FF74480088401E7349088028465E
:10847000FFF74FFF00BF00BF00BFFAF741FD0090BC
:1084800000BF00BF6A480078401E6949087000BFFD
:1084900000BF0098FAF738FD00BF00BF00BFFCF72F
:1084A000D0FA002020800AE000BF00BF0098FAF751
:1084B0002BFD00BF00BF45F62560208000BF00BF38
:1084C000384659E72DE9F04788B006468946904678
:1084D0001C46109D4FF0000A54480078002806DD25
:1084E00046F2AE102880002008B0BDE8F08726B91B
:1084F00045F6C35028800020F6E7B8F1000F03D0FE
:10850000B8F5004F02D100E000BF04E045F6256059
:1085100028800020E8E700BF46493068884204D040
:1085200045F6C45028800020DEE70CB10020206012
:1085300000BF00BFFAF7E4FC824600BF00BF306A0C
:1085400088B1306A401E30620CB1706A2060376AB0
:1085500000BF00BF5046FAF7D7FC00BF00BF0020A5
:1085600028803846C0E708F4004060B1376A00BF91
:1085700000BF5046FAF7C8FC00BF00BF46F2B0107B
:1085800028803846B0E72A48007800280BDD00BF75
:1085900000BF5046FAF7B8FC00BF00BF46F6635074
:1085A00028800020A0E700BF21480078401C204917
:1085B000087000BF00BF5046FAF7A6FC00BF00BF1E
:1085C00000BF4B46062231466846FCF7DDFC00BF83
:1085D00000BF00BFFAF794FC824600BF00BF1448FA
:1085E0000078401E1249087000BF00BF5046FAF7DD
:1085F0008BFC00BF00BF00BFFCF723FA00BF00BF29
:10860000FAF77EFC824600BF00BF0F48006890F872
:108610003500D8B1012821D002282FD0032836D127
:1086200025E0000020000000FC000020A800002041
:10863000F000002053454D41000100204E4F4E45B3
:108640003F53454D00000000480100201CB1F84890
:108650000068006C20600020288024E01CB1F448F1
:108660000068006C206046F2A91028801BE00CB165
:108670000020206047F2D920288014E01CB1EC488B
:108680000068006C206045F6C25028800BE046F67A
:108690002E60288000BF00BF5046FAF735FC00BFAF
:1086A00000BF002020E700BF376A00BF00BF504670
:1086B000FAF72AFC00BF00BF384615E72DE9F05F46
:1086C00005460E4614464FF0000ADA4800780028A6
:1086D00005DD46F2AA1020800020BDE8F09F25B9F4
:1086E00045F6C35020800020F7E74EB1B6F5807FF5
:1086F00007D0B6F5004F05D0B6F5014F04D102E022
:1087000000BF00BF00BF04E045F6256020800020C8
:10871000E3E700BFC8492868884204D045F6C45042
:1087200020800020D9E700BF00BFFAF7E9FB8246AE
:1087300000BF00BF05F10807388958B900BF00BF66
:108740005046FAF7E1FB00BF00BF46F2AB102080B5
:108750000020C2E700BFB9480078401CB749087044
:1087600000BF00BF5046FAF7CFFB00BF00BF00BFFD
:108770004FF00008FAF748FA83460FE03868D0F85F
:1087800008905A4649462846FCF7F7FC08F10100D4
:108790001FFA80F8B6F5807F00D002E03889002803
:1087A000ECDC00BF00BF00BF00BFFAF7A9FB8246A8
:1087B00000BF00BFA1480078401EA049087000BF5C
:1087C00000BF5046FAF7A0FB00BF00BF00BF06F491
:1087D000004008B9FCF735F90020208040467CE7CE
:1087E0002DE9FF5F0446884691461D460020019012
:1087F00000BF00BFFAF784FB019000BF00BF04F187
:108800000807388900284FD10420012804D0022805
:1088100014D0042834D123E0206AFF280DD100BFF2
:1088200000BF0198FAF770FB00BF00BF46F6C550C5
:108830002880002004B0BDE8F09F22E04FF6FF71D1
:10884000206A88420BD100BF00BF0198FAF75CFB99
:1088500000BF00BF46F6C55028800020EAE710E0C0
:10886000206A401C58B900BF00BF0198FAF74CFBC2
:1088700000BF00BF46F6C55028800020DAE700E0C0
:1088800000BF00BF206A401C2062D4F820A0C4F8BA
:10889000249000BF00BF0198FAF736FB00BF00BF6D
:1088A000002028805046C5E700BF64480078401C7F
:1088B0006249087000BF00BF0198FAF725FB00BFAE
:1088C00000BF00BF08F4007008B13E8900E0012637
:1088D000D7F800B011E0DBF808000290DBF80400E4
:1088E000039000231A46CDF8009020460299FCF729
:1088F00058FDDDF80CB0701E86B2002EEBD1D4F816
:1089000020A000BF00BF00BFFAF7FAFA019000BF35
:1089100000BF4A480078401E4849087000BF00BFA9
:108920000198FAF7F1FA00BF00BF00BF08F4004059
:1089300008B9FCF786F80020288050467AE72DE930
:10894000FF4105460F46144635B945F6C350208011
:10895000002004B0BDE8F0814FB1B7F5007F07D02B
:10896000B7F5004F05D0B7F5024F04D102E000BFC4
:1089700000BF00BF04E045F6256020800020E8E746
:1089800000BF2D492868884204D045F6C450208095
:108990000020DEE7FAF738F9064626480078002876
:1089A0000CDD0020034602462946CDE901760394FA
:1089B00000902148FDF7DCFD0020CAE7234632463F
:1089C00039462846FFF70CFF80464046C1E72DE9AF
:1089D000F04104460E4615464FF000081548007851
:1089E000002804DD46F6C6502880BDE8F0811CB999
:1089F00045F6C3502880F8E70F492068884203D025
:108A000045F6C4502880F0E70020288000BF00BF52
:108A1000FAF776FA804600BF00BF206A08B12662E6
:108A200011E004F10807388950B926620BE0000014
:108A300048010020A800002053454D41F0000020CF
:108A400047F25F10288000BF00BF4046FAF75CFA8B
:108A500000BF00BF00BFC8E70021034A1160034AFE
:108A60001180018070470000FC0000200001002000
:108A70002DE9F04107464FF0000800BF00BFFAF7AC
:108A80003FFA804600BF00BF0020F8490860F8495F
:108A90000880F8490880F8490860F8490860F849F2
:108AA0000860F8490860F849088100BF00BF4046E7
:108AB000FAF72AFA00BF00BF00BF00BFFAF720FA9A
:108AC000804600BF00BFF148046800BF00BF4046B9
:108AD000FAF71AFA00BF00BF21E000BF00BFFAF7A3
:108AE0000FFA804600BF00BF00207834E0632060AA
:108AF0002063A061A082E0826062A062FAF784F83D
:108B00002062783C04F164060020B081D4F8BC40B7
:108B100000BF00BF4046FAF7F7F900BF00BF002CC6
:108B2000DBD100BF00BFFAF7EBF9804600BF00BF02
:108B3000D748056800BF00BF4046FAF7E5F900BF17
:108B400000BF12E000BF00BFFAF7DAF9804600BFAD
:108B500000BF05F120060020B081AD6900BF00BF55
:108B60004046FAF7D1F900BF00BF002DEAD102F06C
:108B7000E0FA03F072F900203880BDE8F081F8B522
:108B8000044600266946C34801F0E9FFBDF800002D
:108B900018B1BDF800002080F8BD6A46002102200F
:108BA00002F0DAFABDF8000018B1BDF8000020802C
:108BB000F2E700BF00BFFAF7A3F9064600BF00BF07
:108BC0000020B549086000BF00BF3046FAF79CF9A5
:108BD00000BF00BF0025B1480068B149096888425C
:108BE00005D9AE480068AE490968B0FBF1F525B972
:108BF000AA4800680A21B0FBF1F56A460021284620
:108C000002F0AAFA6946A34801F006FABDF800008E
:108C100018B1BDF800002080BEE700BF00BFFAF722
:108C20006FF9064600BF00BF0020934908609A48CC
:108C300000689C49086001209B49087000BF00BF84
:108C40003046FAF761F900BF00BF0020208000BF66
:108C5000A2E786B00020009000BF06E090490968B6
:108C6000480001AA002102F077FA8F480078012815
:108C7000F4D101A8FFF7FCFE002788480068884966
:108C80000968884205D98548006885490968B0FBAC
:108C9000F1F727B9814800680A21B0FBF1F793E1A9
:108CA000F9F7B2FF804600BF00BFFAF729F900903C
:108CB00000BF00BF784800687C4908600020764902
:108CC000086000BF00BF0098FAF71EF900BF00BFA0
:108CD0007448006875490968884248D97148006835
:108CE0007349884205D242F210700390012002902D
:108CF00023E06C4800686F49884205D24FF47A70CF
:108D000003900A20029018E0664800686A49884289
:108D100003D26420039002900FE062480068674924
:108D2000884205D20A2003904FF47A70029004E042
:108D30000120039042F2107002905A480168029894
:108D4000B1FBF0FA5949039809684843B0FBFAF0BF
:108D500042F21071081A5A4908804648008809886A
:108D6000884208DA564800884249088003E042F207
:108D700010705349088003F0CAF8002500BF00BFF7
:108D8000FAF7BEF8009000BF00BF4048046800BF7B
:108D900000BF0098FAF7B8F800BF00BF5AE000BF64
:108DA00000BF00BFFAF7ACF8009000BF00BF454815
:108DB0000078401C4349087000BF00BF0098FAF7D4
:108DC000A3F800BF00BF00BF54F89C0F60600020F4
:108DD00044F89C0900BF00BF00BFFAF791F800906B
:108DE00000BF00BF37480078401E3649087008466B
:108DF0000078A0B934480088002809DD00BF00BF12
:108E00000098FAF781F800BF00BFFCF72AFB0DE0DD
:108E100000BF00BF0098FAF777F800BF06E000BF78
:108E200000BF0098FAF770F800BF00BF00BFD4F889
:108E3000A000054400BF00BFFAF762F8009000BF31
:108E400000BFD4F8BC4000BF00BF0098FAF75CF840
:108E500000BF00BF002CA2D1C5B31548854236D251
:108E600042F2107005904FF0010B4CE0BC00002066
:108E7000B600002006010020180100202C0100206F
:108E800038010020E8000020D82400202001002024
:108E9000DC0000206C2900200801002074E3000899
:108EA0005CE300080C0100201401002010010020E8
:108EB000801A060000093D00005A62020084D7179C
:108EC00004010020F0000020B40000201FE06148F1
:108ED000854205D24FF47A7005904FF00A0B12E0EC
:108EE0005D48854203D26420059083460BE05B48D1
:108EF000854204D20A2005904FF47A7B03E00120DA
:108F0000059042F2107BB5FBFBF0049003E00020DB
:108F100005900120049000BF00BFF9F7F1FF009019
:108F200000BF00BF4E48046800BF00BF0098F9F7BB
:108F3000EBFF00BF00BF2BE0D4F8A0000599484329
:108F40000499B0FBF1F086B242F21070864200D96B
:108F50000646A4F88C60B4F88E00B04201DAA4F89A
:108F60008E6001AB04F1AC02111D204601F0E3FC60
:108F700000BF00BFF9F7C4FF009000BF00BFD4F8E6
:108F8000BC4000BF00BF0098F9F7BEFF00BF00BFA4
:108F9000002CD1D133480078012805D10020314977
:108FA000087001A8FFF764FDF9F72EFEA0EB080991
:108FB0002D480068484502D22B48C0F8009001AA0D
:108FC0000021384602F0C8F86AE610B58AB00446B7
:108FD000002026490860264908602649086026497D
:108FE0000870204908702548006820B946F62B60B3
:108FF00020800AB010BD22480068224909688842D2
:1090000003D246F62C602080F3E71F4800783F2803
:1090100003D346F62A602080EBE703200021059168
:10902000CDE907040691084615490968174A1268F0
:10903000124B1B68CDE90132CDE9031012480078CC
:109040000023AFF2F13212A10090164800F06EF941
:1090500000BFCEE700093D00005A62020084D71726
:10906000200100200201002018010020080100203A
:10907000100100200C0100201401002060E3000812
:1090800068E3000870E3000858E3000864E30008A0
:1090900075432F4F532D494949205374617420540F
:1090A00061736B00E42700202DE9F04104460D4672
:1090B00016464FF00008FE480078002804DD47F20D
:1090C00049103080BDE8F0811DB946F27320308030
:1090D000F8E73F2D03D346F273203080F2E78CB9D6
:1090E00000BF00BFF9F70CFF804600BF00BFF1488A
:1090F000046800BF00BF4046F9F706FF00BF00BF8D
:10910000012700E0002700BF00BF00BFF9F7F8FE0D
:10911000804600BF00BFE8480078401CE649087060
:1091200000BF00BF4046F9F7EFFE00BF00BF00BF21
:1091300094F8360008283AD2DFE800F004171C1D26
:1091400018191E1F2046FBF7D8FE84F8375094F8F4
:109150003700FEF7E7FB012F03D12046FBF7B2FFF4
:1091600002E02046FBF7CBFF52E000BF00BF84F8CF
:1091700037504DE000BF00BF00BF94F8340008280E
:1091800012D2DFE800F01106040A090B0C0500BF3B
:1091900000BF84F8375008E000BF00BF00BF294679
:1091A0002046FCF74EF800E000BF00BF30E000BFF3
:1091B00000BF00BFF9F7A4FE804600BF00BFBE4855
:1091C0000078401EBC49087008460078A0B9BB482A
:1091D0000088002809DD00BF00BF4046F9F794FE73
:1091E00000BF00BFFCF73DF90DE000BF00BF4046E7
:1091F000F9F78AFE00BF06E000BF00BF4046F9F75E
:1092000083FE00BF00BF00BF46F62D60308059E7E7
:1092100000BF00BF00BF00BFF9F772FE804600BF6D
:1092200000BFA5480078401EA349087000BF00BFDA
:109230004046F9F769FE00BF00BF00BFFBF701FC25
:109240000020308000BF3DE70021C0F8B8109C49E5
:10925000096819B90021C0F8BC1007E098490968ED
:10926000C0F8BC1096490968C1F8B8009449086074
:10927000704770B5044600202060A0606060E06028
:1092800020616061A061E0618EA0206200206062C8
:10929000A062E0622064E065A4F86000002104F1AF
:1092A0006400FDF700FD002044F8740F6060E0608A
:1092B000A0822061743C002506E0002104F17C00BE
:1092C00040F82510681CC5B2002DF6D000203434BB
:1092D000206120676067606084F85600E067A067DF
:1092E00020814FF0004060610020A061E0612062B9
:1092F0006062A4F85800A4F85A00E0652066F9F707
:1093000083FC064666660020A066C4F880002070D4
:109310006070A0704020E0700020C4F88400C4F8A1
:1093200088006AA0C4F88C00343C70BD2DE9FF4F62
:1093300087B004469046DDE91BA5DDE91496179F2A
:10934000002003905A480078002805DD47F24A10B3
:1093500028800BB0BDE8F08F1CB947F2AD10288013
:10936000F7E7B8F1000F03D147F24F102880F0E77C
:109370001EB946F62F602880EBE755480068874203
:1093800003D246F630602880E3E71698B84203D34C
:1093900046F631602880DCE7B9F1400F03D346F28E
:1093A00073202880D5E7B9F1000F06D149488442DF
:1093B00003D046F273202880CBE7B9F13F0F06D1E6
:1093C0004548844203D046F273202880C1E72046F6
:1093D000FFF74FFF002028800AF0010090B10AF04B
:1093E000020078B105960020069008E0002105985B
:1093F00001600598001D05900698401C069006988F
:10940000B842F3D3169806EB80000490CDE9007AB9
:1094100032464046049B0A9902F09FFD0590C4F82D
:1094200028800A98E0620898206284F837900598AE
:1094300020600498A06019986065199818B92748A9
:109440000068A06501E01998A0651A9860606662DE
:10945000A763A4F83CA04FF0000B08E0002104F142
:109460007C0040F82B100BF1010000F0FF0BBBF16A
:10947000000FF3D004F164001899FDF714FC2046A6
:1094800002F04DFD00BF00BF00BFF9F739FD0390AA
:1094900000BF00BF08480078401C0749087000BFA3
:1094A00000BF0398F9F730FD00BF00BF00BF17E011
:1094B000A800002048010020F0000020B400002097
:1094C000200100203F5461736B0000002000000069
:1094D00070E300081424002050230020F400002032
:1094E00094F83700FEF71EFA2046FBF708FE2046E8
:1094F000FFF7AAFEFE480088401CFD490880FD4891
:10950000007801282DD000BF00BF00BFF9F7F8FC9C
:10951000039000BF00BFF8480078401EF64908706D
:1095200008460078A0B9F5480088002809DD00BF8A
:1095300000BF0398F9F7E8FC00BF00BFFBF791FFFD
:109540000DE000BF00BF0398F9F7DEFC00BF06E0A6
:1095500000BF00BF0398F9F7D7FC00BF00BF00BFF2
:10956000F7E600BF00BF00BFF9F7CAFC039000BFD9
:1095700000BFE1480078401EDF49087000BF00BF0F
:109580000398F9F7C1FC00BF00BF00BFFBF759FA11
:1095900000BFDEE6D0F8B820D0F8BC104AB9D84BEE
:1095A000196011B10023C1F8B8300023C0F8BC30F5
:1095B0000FE029B90023C2F8BC30C0F8B83008E089
:1095C000C2F8BC10C1F8B8200023C0F8BC30C0F805
:1095D000B830704770B504460D460026C94800787B
:1095E000002803DD47F24E10288070BDC648844233
:1095F00003D147F24C102880F7E7C448844203D1D6
:1096000047F24D102880F0E77CB900BF00BFF9F7A2
:1096100077FC064600BF00BFBD48046800BF00BF1E
:109620003046F9F771FC00BF00BF00BF00BF00BFAC
:10963000F9F766FC064600BF00BFAF480078401C43
:10964000AD49087000BF00BF3046F9F75DFC00BFB0
:1096500000BF00BF94F8360008282DD2DFE800F0E4
:1096600004090E10080A0F112046FBF746FC54E0CF
:1096700053E000BF204601F0F1FA4EE000BF00BF0A
:1096800000BF204601F0EAFA94F83400082810D20E
:10969000DFE800F004070508090A0B0600BF00BF59
:1096A00008E000BF00BF00BF00BF2046FBF7E0FCA2
:1096B00000E000BF00BF30E000BF00BF00BFF9F70F
:1096C0001FFC064600BF00BF8B480078401E8A4939
:1096D000087008460078A0B988480088002809DD8D
:1096E00000BF00BF3046F9F70FFC00BF00BFFBF71B
:1096F000B8FE0DE000BF00BF3046F9F705FC00BF23
:1097000006E000BF00BF3046F9F7FEFB00BF00BF18
:1097100000BF46F62D60288067E700BF04F16400B3
:10972000FDF7A2FA204602F004FC2046FFF732FFC4
:109730006F480088401E6E4908802046FFF799FD5B
:10974000FF2084F8360000BF00BF00BFF9F7D8FB48
:10975000064600BF00BF68480078401E6649087092
:1097600000BF00BF3046F9F7CFFB00BF00BF00BF0E
:1097700000202880FBF765F900BF36E72DE9F041AE
:1097800004460D4600265F480078002805DD4FF4AA
:109790006C5028800020BDE8F0817CB900BF00BF7C
:1097A000F9F7AEFB064600BF00BF5948046800BF8A
:1097B00000BF3046F9F7A8FB00BF00BF00BF00BFE5
:1097C00000BFF9F79DFB064600BF00BF4A4800787E
:1097D000401C4949087000BF00BF3046F9F794FBB0
:1097E00000BF00BF00BF04F16400FDF73DFA07466B
:1097F00000BF00BF00BFF9F783FB064600BF00BFF4
:109800003D480078401E3C49087008460078A0B9E1
:109810003A480088002809DD00BF00BF3046F9F74C
:1098200073FB00BF00BFFBF71CFE0DE000BF00BFD5
:109830003046F9F769FB00BF06E000BF00BF3046C5
:10984000F9F762FB00BF00BF00BF00202880384648
:10985000A1E72DE9F05F80460F4616461C460A9D9B
:109860004FF0000B27480078002805DD46F2AE10C7
:1098700028800020BDE8F09F26B946F2D520288038
:109880000020F7E71FB1B7F5004F02D100E000BF9D
:1098900004E045F6256028800020EBE700BF0CB10E
:1098A0000020206000BF00BFF9F72AFB834600BFFD
:1098B00000BF1748006800F164092B462246314674
:1098C0004846FDF7F7F98246288888BB3CB3F9F78C
:1098D0009BF92168401A0E49096848670C480068DE
:1098E000806F0B490968496F884218D2084811E017
:1098F00024010020A9000020F0000020B400002076
:1099000020010020A8000020502300201424002063
:10991000480100200068406FF5490968886700BF6A
:1099200000BF5846F9F7F0FA00BF00BF5046A1E764
:10993000FFE707F4004058B146F2B010288000BF9E
:1099400000BF5846F9F7E0FA00BF00BF002091E7DA
:10995000E848007800280BDD00BF00BF5846F9F743
:10996000D3FA00BF00BF46F663502880002081E78D
:1099700000BFE0480078401CDE49087000BF00BF0F
:109980005846F9F7C1FA00BF00BF00BF43460222A4
:1099900000210846FBF7F8FA00BF00BF00BFF9F747
:1099A000AFFA834600BF00BFD2480078401ED149BD
:1099B000087000BF00BF5846F9F7A6FA00BF00BF05
:1099C00000BFFBF73EF800BF00BFF9F799FA8346E6
:1099D00000BF00BFC648006890F8350020B10128DC
:1099E0002AD0032832D132E0C1480068D0F85CA008
:1099F000BF480068B0F860003080D4B1BC4800684F
:109A0000006C2060F9F700F9B9490968096C401A3F
:109A1000B74909684867B6480068806FB449096863
:109A2000496F884205D2B2480068406FB049096862
:109A300088670020288017E04FF0000A002030805F
:109A400004B1206046F2A91028800DE000BF4FF05D
:109A5000000A002030801CB1A5480068006C20601E
:109A600047F2D920288000BF00BF00BF00BF584682
:109A7000F9F74AFA00BF00BF5046FBE62DE9F04176
:109A800005460E46144600279B480078002805DD51
:109A900046F2AA1020800020BDE8F0811EB1B6F584
:109AA000004F02D100E000BF04E045F625602080B1
:109AB0000020F1E700BF00BF00BFF9F721FA074619
:109AC00000BF00BF1DB18A48006885420BD100BFAE
:109AD00000BF3846F9F718FA00BF00BF46F2AC10D5
:109AE00020800020D8E795F8340002280BD000BF72
:109AF00000BF3846F9F708FA00BF00BF46F2AB10C6
:109B000020800020C8E700BF7A480078401C7949CF
:109B1000087000BF00BF3846F9F7F6F900BF00BF74
:109B200000BFF9F771F88046424629460020FBF74E
:109B300024FB00BF00BF00BFF9F7E2F9074600BFF2
:109B400000BF6C480078401E6A49087000BF00BF23
:109B50003846F9F7D9F900BF00BF00BF06F400404E
:109B600008B9FAF76EFF00202080012094E72DE964
:109B7000FC4704460F4690469946DDE90A654FF0DA
:109B8000000A00BF00BF00BFF9F7BAF9824600BF64
:109B900000BF58480078401C5649087000BF00BFFD
:109BA0005046F9F7B1F900BF00BF00BF0CB95048EB
:109BB00004680020288094F8360008287ED2DFE868
:109BC00000F004053E3F0607404100BF00BF00BF54
:109BD0004B464246394604F16400CDE90065FDF785
:109BE0009AF800BF00BF00BFF9F78AF9824600BFAC
:109BF00000BF40480078401E3E4908700846007883
:109C0000A0B93E480088002809DD00BF00BF5046CB
:109C1000F9F77AF900BF00BFFBF723FC0DE000BFA6
:109C200000BF5046F9F770F900BF06E000BF00BF63
:109C30005046F9F769F900BF00BF00BF9BE000BFC5
:109C400000BF00BF94F83400022821D143463A46B1
:109C5000214600200096FBF7A4FB00BF00BF00BF19
:109C6000F9F74EF9824600BF00BF22480078401E37
:109C70002049087000BF00BF5046F9F745F900BF02
:109C800000BF00BF09F40040D0BBFAF7DAFE40E0A5
:109C90004B464246394604F16400CDE90065FDF7C4
:109CA0003AF800BF00BF00BFF9F72AF9824600BFAB
:109CB00000BF10480078401E0E4900E02AE00870FE
:109CC00008460078E8B90D480088002809DD00BF83
:109CD00000BF5046F9F718F900BF00BFFBF7C1FB02
:109CE00016E000BF00BF5046F9F70EF900BF0FE0C5
:109CF00048010020F0000020A8000020B40000204F
:109D000007E000BF00BF5046F9F7FEF800BF00BFF4
:109D100000BF30E000BF00BF00BFF9F7F1F8824696
:109D200000BF00BFFE480078401EFD49087008468D
:109D30000078A0B9FB480088002809DD00BF00BFFB
:109D40005046F9F7E1F800BF00BFFBF78AFB0DE0D2
:109D500000BF00BF5046F9F7D7F800BF06E000BFCC
:109D600000BF5046F9F7D0F800BF00BF00BF46F66D
:109D70002D60288000BF00BFBDE8FC872DE9FF47AC
:109D80000746884691461D460C9E4DB1102D08D0C1
:109D9000B5F5004F06D0A5F50040103820B902E017
:109DA00000BF00BF00BF04E045F625603080BDE87D
:109DB000FF8700BFF8F728FF0446DB48007800283B
:109DC0000BDD00204B4642463946CDE90246CDE93F
:109DD0000005D648FCF7CCFBE9E72B464A4641464E
:109DE0003846CDE90046FFF7C2FE00BFDFE72DE9A8
:109DF000F04104460D4616464FF000082DB146F6D8
:109E0000791030800020BDE8F08100BF00BFF9F775
:109E100077F8804600BF00BF0CB9C548046804F15C
:109E20007C0050F8257000BF00BF4046F9F76CF881
:109E300000BF00BF002030803846E4E770B504461C
:109E4000002600BF00BFF9F75BF8064600BF00BF61
:109E5000B848007858B145F6DA10208000BF00BF3E
:109E60003046F9F751F800BF00BF012070BDB1487E
:109E700005780078401CAF49087000BF00BF30462D
:109E8000F9F742F800BF00BF002020802846EDE728
:109E90002DE9F04104460D4617461E464FF00008D6
:109EA00025B146F679103080BDE8F08100BF00BFD3
:109EB000F9F726F8804600BF00BF0CB99C4804683B
:109EC00004F17C0040F8257000BF00BF4046F9F760
:109ED0001BF800BF00BF0020308000BFE4E770B572
:109EE00004460D46002600BF00BFF9F709F80646F4
:109EF00000BF00BF0020288094F8360008287BD2DD
:109F0000DFE800F0040506071243556700BF00BFF5
:109F100000BF00BF00BF3046F8F7F6FF00BF00BF2C
:109F200047F25310288072E000BF7D480078401C43
:109F30007B49087000BF00BF3046F8F7E5FF00BF5F
:109F400000BF00BF14F88A0F401E207014F88A0961
:109F500028B9002084F836002046FBF700F900BF3E
:109F600000BF00BFF8F7CCFF064600BF00BF6C483B
:109F70000078401E6A49087000BF00BF3046F8F7FD
:109F8000C3FF00BF00BF00BF41E014F88A0F401EAE
:109F9000207014F88A0910B9012084F8360000BF37
:109FA00000BF3046F8F7B0FF00BF00BF2FE014F845
:109FB0008A0F401E207014F88A0910B9022084F814
:109FC000360000BF00BF3046F8F79EFF00BF00BF5D
:109FD0001DE014F88A0F401E207014F88A0910B989
:109FE000032084F8360000BF00BF3046F8F78CFF2E
:109FF00000BF00BF0BE0FFE700BF00BF3046F8F72F
:10A0000083FF00BF00BF46F62D60288070BD00BFF3
:10A01000FAF717FD00BFF9E77FB504460D460026A5
:10A0200000BF00BFF8F76CFF064600BF00BF1CB1C1
:10A030003F48006884420AD100BF00BF3046F8F7AD
:10A0400063FF00BF00BF47F2571028807FBD00BFED
:10A0500000BF3046F8F758FF00BF00BF3248007815
:10A0600000280BDD002000900190034602462146A7
:10A07000CDE902053048FCF77BFAE7E729462046A0
:10A08000FFF72DFF00BFE1E72DE9F04780460E46C0
:10A0900014461D464FF0000923480078002805DDCE
:10A0A00046F2AE1028800020BDE8F0871EB1B6F55C
:10A0B000004F02D100E000BF04E045F62560288093
:10A0C0000020F1E700BF0CB10020206000BF00BFFE
:10A0D000F8F716FF814600BF00BF15480068406CC6
:10A0E00060B313480068406C401E11490968486419
:10A0F0000F480068476C1CB10D480068006C206078
:10A10000F8F782FD0A490968096C401A084909688C
:10A11000C1F8A40006480068D0F8A80004490EE081
:10A12000F0000020B4000020A8000020544D534748
:10A1300048010020260100205452455317E00968C9
:10A14000D1F8A410884207D2FE480068D0F8A400D5
:10A15000FC490968C1F8A80000BF00BF4846F8F7ED
:10A16000D3FE00BF00BF0020288038469CE706F4DD
:10A17000004058B100BF00BF4846F8F7C5FE00BF19
:10A1800000BF46F2B010288000208DE7EE4800782E
:10A1900000280BDD00BF00BF4846F8F7B5FE00BF42
:10A1A00000BF46F66350288000207DE700BFE648E8
:10A1B0000078401CE449087000BF00BF4846F8F72B
:10A1C000A3FE00BF00BF00BF434607220021084690
:10A1D000FAF7DAFE00BF00BF00BFF8F791FE814634
:10A1E00000BF00BFD8480078401ED749087000BFA4
:10A1F00000BF4846F8F788FE00BF00BF00BFFAF76F
:10A2000020FC00BF00BFF8F77BFE814600BF00BF07
:10A21000CC48006890F8350020B1012826D00328EA
:10A2200034D12CE0FCB1C7480068006C2060F8F71E
:10A23000EBFCC4490968096C401AC2490968C1F8B5
:10A24000A400C0480068D0F8A800BE490968D1F849
:10A25000A410884207D2BB480068D0F8A400B949CE
:10A260000968C1F8A8000020288013E01CB1B54897
:10A270000068006C206046F2A91028800AE00CB14A
:10A280000020206047F2D920288003E046F62E60A7
:10A29000288000BF00BFAB480068476C00BF00BF0C
:10A2A0004846F8F731FE00BF00BF3846FCE62DE90E
:10A2B000F04105460E4614460027A44800780028C1
:10A2C00005DD46F2AA1020800020BDE8F0811EB115
:10A2D000B6F5004F02D100E000BF04E045F625606E
:10A2E00020800020F1E700BF00BF00BFF8F708FEA4
:10A2F000074600BF00BF1DB19248006885420BD1E0
:10A3000000BF00BF3846F8F7FFFD00BF00BF46F2B0
:10A31000AC1020800020D8E795F8340007280BD037
:10A3200000BF00BF3846F8F7EFFD00BF00BF46F2A0
:10A33000AB1020800020C8E700BF00BF3846F8F708
:10A34000E3FD00BF00BF00BF00BF00BFF8F7D8FDAE
:10A35000074600BF00BF7C480078401C7A4908705F
:10A3600000BF00BF3846F8F7CFFD00BF00BF00BFF9
:10A37000F8F74AFC8046424629460020FAF7FDFEDF
:10A3800000BF00BF00BFF8F7BBFD074600BF00BF1E
:10A390006D480078401E6C49087000BF00BF384609
:10A3A000F8F7B2FD00BF00BF00BF06F4004008B9D7
:10A3B000FAF747FB00202080012086E72DE9F843CB
:10A3C0000446884617461D464FF0000900BF00BFEF
:10A3D00000BFF8F795FD814600BF00BF5A480078DE
:10A3E000401C5949087000BF00BF4846F8F78CFD73
:10A3F00000BF00BF00BF0CB95248046827640020AA
:10A40000288094F83600082871D2DFE800F00405AF
:10A41000F8F90607FAFB00BF00BF00BF04200128BF
:10A4200004D0022839D004286FD170E0606CFF2876
:10A4300032D100BF00BF00BFF8F762FD814600BF08
:10A4400000BF41480078401E3F4908700846007828
:10A45000A0B93F480088002809DD00BF00BF48467A
:10A46000F8F752FD00BF00BFFAF7FBFF0DE000BF99
:10A4700000BF4846F8F748FD00BF06E000BF00BF38
:10A480004846F8F741FD00BF00BF00BF46F6C55083
:10A4900028800020BDE8F8837AE04FF6FF71606CF9
:10A4A000884233D100BF00BF00BFF8F729FD8146C5
:10A4B00000BF00BF24480078401E234908700846AA
:10A4C0000078A8B922480088002809DD00BF00BF35
:10A4D0004846F8F719FD00BF00BFFAF7C2FF0EE0CB
:10A4E00000BF00BF4846F8F70FFD00BF07E094E14A
:10A4F00000BF00BF4846F8F707FD00BF00BF00BF20
:10A5000046F6C55028800020C4E740E040E0606C7B
:10A51000401CD0BB00BF00BF00BFF8F7F1FC814674
:10A5200000BF00BF08480078401E07490870084671
:10A530000078E8B906480088002812DD00BF00BF97
:10A54000484607E048010020F0000020A800002055
:10A55000B4000020F8F7D8FC00BF00BFFAF781FF75
:10A560000DE000BF00BF4846F8F7CEFC00BF06E094
:10A5700000BF00BF4846F8F7C7FC00BF00BF00BFE0
:10A5800046F6C5502880002084E7FFE700E000BFC2
:10A5900000BF606C401C6064666C00BF00BF00BF01
:10A5A000F8F7AEFC814600BF00BFFD480078401EB2
:10A5B000FB49087008460078A0B9FA4800880028CE
:10A5C00009DD00BF00BF4846F8F79EFC00BF00BF92
:10A5D000FAF747FF0DE000BF00BF4846F8F794FCCC
:10A5E00000BF06E000BF00BF4846F8F78DFC00BF83
:10A5F00000BF00BF43E105E003E001E0FFE700BF6B
:10A6000000BF00BF94F83400072823D100231A4666
:10A61000214618460097FAF7C4FE666C00BF00BFDB
:10A6200000BFF8F76DFC814600BF00BFDC48007832
:10A63000401EDB49087000BF00BF4846F8F764FCC5
:10A6400000BF00BF00BF08F40040002801D1FAF7A6
:10A65000F8F9E1E00420012804D0022838D00428C9
:10A660007ED16DE0606CFF2831D100BF00BF00BF1C
:10A67000F8F746FC814600BF00BFC9480078401E7D
:10A68000C749087008460078A0B9C6480088002865
:10A6900009DD00BF00BF4846F8F736FC00BF00BF29
:10A6A000FAF7DFFE0DE000BF00BF4846F8F72CFCCC
:10A6B00000BF06E000BF00BF4846F8F725FC00BF1A
:10A6C00000BF00BF46F6C55028800020E2E671E0DA
:10A6D0004FF6FF71606C884231D100BF00BF00BFF0
:10A6E000F8F70EFC814600BF00BFAD480078401E61
:10A6F000AB49087008460078A0B9AA48008800282D
:10A7000009DD00BF00BF4846F8F7FEFB00BF00BFF1
:10A71000FAF7A7FE0DE000BF00BF4846F8F7F4FBCC
:10A7200000BF06E000BF00BF4846F8F7EDFB00BFE2
:10A7300000BF00BF46F6C55028800020AAE639E0D9
:10A74000606C401C98BB00BF00BF00BFF8F7D8FB8F
:10A75000814600BF00BF92480078401E904900E04B
:10A7600027E0087008460078A0B98E4800880028C5
:10A7700009DD00BF00BF4846F8F7C6FB00BF00BFB9
:10A78000FAF76FFE0DE000BF00BF4846F8F7BCFBCC
:10A7900000BF06E000BF00BF4846F8F7B5FB00BFAA
:10A7A00000BF00BF46F6C5502880002072E6FFE7D4
:10A7B00000E000BF00BF606C401C6064666C00BFBE
:10A7C00000BF00BFF8F79CFB814600BF00BF744884
:10A7D0000078401E7249087008460078A0B9714898
:10A7E0000088002809DD00BF00BF4846F8F78CFB51
:10A7F00000BF00BFFAF735FE0DE000BF00BF4846BE
:10A80000F8F782FB00BF06E000BF00BF4846F8F73C
:10A810007BFB00BF00BF00BF31E000BF00BF00BF37
:10A82000F8F76EFB814600BF00BF5D480078401E10
:10A830005B49087008460078A0B95A48008800288B
:10A8400009DD00BF00BF4846F8F75EFB00BF00BF50
:10A85000FAF707FE0DE000BF00BF4846F8F754FBCB
:10A8600000BF06E000BF00BF4846F8F74DFB00BF41
:10A8700000BF00BF46F62D602880002600BF00BF45
:10A88000304607E62DE9FF4106460F4614461FB144
:10A89000B7F5004F02D100E000BF06E045F62560A5
:10A8A0002080002004B0BDE8F08100BFF8F7ACF9CB
:10A8B00005463D48007800280CDD00200090034646
:10A8C00002463146CDE9025401903848FBF750FE6C
:10A8D0000020E7E723462A4639463046FFF76EFD5B
:10A8E00080464046DEE72DE9F04104460F46154616
:10A8F0004FF000082C480078002805DD46F6C650C9
:10A9000028800020BDE8F08100BF00BFF8F7F8FA0A
:10A91000804600BF00BF0CB925480468666C6764B8
:10A9200000BF00BF4046F8F7EFFA00BF00BF0020AD
:10A9300028803046E6E72DE9F04705460E461746E3
:10A940001C464FF0000A18480078002804DD47F242
:10A9500059102080BDE8F0871EB946F2D52020802E
:10A96000F8E71FB946F2D5202080F3E700BF00BF0B
:10A97000F8F7C6FA824600BF00BF0DB90C4805685B
:10A980002868B8B900BF00BF5046F8F7BDFA00BF4D
:10A9900000BF00203060386047F252102080D9E7B5
:10A9A000F0000020B4000020A800002054534947C4
:10A9B0004801002095F83C0000F0010068B900BF94
:10A9C00000BF5046F8F7A0FA00BF00BF002030607B
:10A9D000386047F254102080BCE700BF00BF5046EB
:10A9E000F8F792FA00BF00BF4FF00008D5F82490A6
:10A9F00003E009F1040908F10108D9F80000002872
:10AA0000F7D0C6F80080A86BA0EB080038600020E3
:10AA1000208000BF9EE770B504460D46002600BFAB
:10AA200000BFF8F76DFA064600BF00BF0CB98148B9
:10AA300004688048006884420ED17F48007800286E
:10AA40000ADD00BF00BF3046F8F75EFA00BF00BF66
:10AA500046F66350288070BD0020288094F83600A8
:10AA600008286CD2DFE800F004313F4D5B5C5D5E8E
:10AA700000BF71480078401C6F49087000BF00BFDC
:10AA80003046F8F741FA00BF00BF00BF042084F849
:10AA90003600012084F88A002046FAF72EFA00BF1B
:10AAA00000BF00BFF8F72CFA064600BF00BF62489F
:10AAB0000078401E6049087000BF00BF3046F8F7BC
:10AAC00023FA00BF00BF00BF44E0052084F8360031
:10AAD000012084F88A0000BF00BF3046F8F714FA5E
:10AAE00000BF00BF36E0062084F83600012084F85D
:10AAF0008A0000BF00BF3046F8F706FA00BF00BF6B
:10AB000028E0072084F83600012084F88A0000BF7E
:10AB100000BF3046F8F7F8F900BF00BF1AE000BFE9
:10AB200000BF00BF94F88A00401C84F88A0000BF70
:10AB300000BF3046F8F7E8F900BF00BF0AE000BFE9
:10AB400000BF3046F8F7E0F900BF00BF46F62D60C1
:10AB5000288080E700BFF9F774FF00BF7BE77FB56F
:10AB600005460C463548854203D147F25B102080EC
:10AB70007FBD3348854203D147F25C102080F7E760
:10AB80003048007800280BDD00200090019003463B
:10AB900002462946CDE902042B48FBF7E9FCE7E72A
:10ABA00021462846FFF737FF00BFE1E72DE9F041D6
:10ABB00004460D461646002722480078002804DD8A
:10ABC00046F6C6503080BDE8F08100BF00BFF8F700
:10ABD00097F9074600BF00BF0CB9164804681DB9B5
:10ABE0001A480068606500E06565D4E9150188428F
:10ABF00001D9606DA06500BF00BF3846F8F784F941
:10AC000000BF00BF0020308000BFDCE70021104AF9
:10AC10001160104A1180104A11600180704708B518
:10AC20000448006801F08FF969460020FEF7D2FC65
:10AC300008BD000048010020F00000205023002043
:10AC400014240020A800002054535553F400002081
:10AC500020010020240100201C01002010B5C26941
:10AC6000BAB1002404651468844205D141691160B9
:10AC700039B100248C6104E0816943694B6103B1FF
:10AC80009961002444618461C461C4649488641E31
:10AC9000948010BD2DE9F05F4FF0000B00BF00BFA6
:10ACA00000BFF8F72DF9834600BF00BFF7480078D2
:10ACB000401CF649087000BF00BF5846F8F724F959
:10ACC00000BF00BF00BFF7F79FFF0546F0480068D0
:10ACD000401CEF49086008460068EE490988B0FB4F
:10ACE000F1F201FB12001FFA80FAEB4800EBCA08F0
:10ACF000D8F80040002782E0002C7FD0D4F81490D0
:10AD000094F83600082875D2DFE800F00408051B27
:10AD1000063D075000BF00BF00BF6CE0DC49E06C9F
:10AD20000968401A2065DA49E06C0968884206D152
:10AD3000002084F836002046FAF711FA00E00127D7
:10AD400059E0D349E06C0968401A2065D049E06CAD
:10AD50000968884215D10020E065A4F86000F7F783
:10AD600053FF20642046FAF783F92046FAF7F7F9F3
:10AD700000203434A07003206070002004F83409EF
:10AD800000E0012737E0C249E06C0968401A2065FD
:10AD9000BF49E06C0968884206D1042084F8360077
:10ADA0002046FFF75BFF00E0012724E0B849E06C94
:10ADB0000968401A2065B649E06C0968884217D1D5
:10ADC0000020E065A4F86000F7F71EFF206420462D
:10ADD000FAF74EF92046FFF741FF04203434A07003
:10ADE00003206070002004F8340902E006E001E06E
:10ADF000012700E000BF00BF4C4600E00127002F04
:10AE00003FF47AAFF7F700FF461BA4480068B04252
:10AE100001D2A248066000BF00BF00BFF8F770F87B
:10AE2000834600BF00BF99480078401E97490870CC
:10AE300008460078A0B99A480088002809DD00BFBC
:10AE400000BF5846F8F760F800BF00BFFAF709FBEB
:10AE50000DE000BF00BF5846F8F756F800BF06E007
:10AE600000BF00BF5846F8F74FF800BF00BF00BF53
:10AE7000BDE8F09F1CB500BF0EE001AB6A460021A3
:10AE80000846FFF701F9BDF8040028B985480078A5
:10AE9000012801D1FFF7FEFEEFE7002108E07E4A1E
:10AEA00002EBC100002202608280C2804A1C91B283
:10AEB000784A12889142F2DB704710B58AB0044696
:10AEC00000207349086075490860FFF7E6FF76487F
:10AED000006820B947F2122020800AB010BD7348E4
:10AEE000006873490968884203D247F21320208022
:10AEF000F3E7704800783F2803D347F21120208001
:10AF0000EBE70B20002105910A46CDE907040691E5
:10AF10006648006868490968634B1B68CDE90131E0
:10AF2000CDE90302634800780023AFF2B70263A1C2
:10AF300000906748FEF7FAF900BFCEE72DE9F04F21
:10AF40000C4616461D46042E1ED1DFF84491D9F852
:10AF50000090A4EB0909A9F1010313F5803F0DD975
:10AF60004FF00009C0F84C90C0F85090C0F81C9009
:10AF700047F27E29A5F80090BDE8F08FC46403F184
:10AF80000109C0F850903FE084B3082E25D1D0F8D5
:10AF9000489009EB0407DFF8F890D9F80090A7EB88
:10AFA0000909A9F10103A34201D2C76406E0DFF851
:10AFB000E090D9F80090A144C0F84C90DFF8D0A000
:10AFC000D0F84C90DAF800A0A9EB0A09C0F850902C
:10AFD000D0F84C90C0F8489016E0DFF8B490D9F85B
:10AFE0000090A144C0F84C9004650DE0FFE74FF0DD
:10AFF0000009C0F84C90C0F85090C0F81C9047F27F
:10B000007E29A5F80090B7E7DFF888A0BAF800A07D
:10B01000D0F84C90B9FBFAFB0AFB1B991FFA89F890
:10B02000DFF8749009EBC802B2F80490B9F1000F90
:10B030000BD14FF00009C0F81490C0F818901060C0
:10B040004FF00109A2F8049062E0116858E0DFF8BF
:10B0500040A0D1F84C90DAF800A0A9EB0A09C1F899
:10B060005090D0F85090D1F850A0D14532D9D1F8B5
:10B070001490B9F1000F01D0496941E04FF0000987
:10B08000C0F8149081614861002139E0F00000208F
:10B09000280100208CE30008402000202C01002023
:10B0A000B4000020A90000207CE3000884E300082D
:10B0B00070E3000878E3000880E3000875432F4F31
:10B0C000532D494949205469636B205461736B00C7
:10B0D000A8280020D1F81890B9F1000F07D14FF03F
:10B0E0000009C0F8189041618861106007E0D1F84C
:10B0F00018C0C0F818C04161CCF814008861002164
:10B100000029A4D1B2F8049009F10109A2F8049031
:10B11000B2F80690B2F804A0D14503DAB2F8049070
:10B12000A2F80690C2614FF00009A5F8009000BF98
:10B1300022E7002006E0064A02EBC0010022CA8096
:10B14000421C90B2034A12889042F4DB7047000020
:10B15000402000208CE300082DE9F04105460E4612
:10B1600014460027F7480078002804DD47F27520D0
:10B170002080BDE8F081F4480078002803DD46F621
:10B1800063502080F5E736B1022E05D0042E0AD098
:10B19000082E09D101E000BF00BF1DB947F27E2093
:10B1A0002080E6E704E003E045F625602080E0E744
:10B1B00000BF00BF00BF00BFF7F7A2FE074600BFF9
:10B1C00000BFE1480078401CDF49087000BF00BFA5
:10B1D0003846F7F799FE00BF00BF00BF0120DB49EA
:10B1E000096881F83600234632462946D748006868
:10B1F000FFF7A4FE2088A8B100BF00BF00BFF7F78B
:10B200007FFE074600BF00BFCF480078401ECE49F2
:10B21000087000BF00BF3846F7F776FE00BF00BFDA
:10B2200000BFA6E7C9480068F9F767FE00BF00BF86
:10B2300000BFF7F765FE074600BF00BFC2480078B1
:10B24000401EC149087000BF00BF3846F7F75CFEDA
:10B2500000BF00BF00BFF9F7F4FB0020208000BF53
:10B2600087E72DE9FF5F05460E4617469846DDE95C
:10B270000EA400200090B3480078002804DD47F2B7
:10B2800075202080BDE8FF9FAF480078002803DDCF
:10B2900046F663502080F5E70AF00E0BBBF1000F75
:10B2A00009D0BBF1020F07D0BBF1040F10D0BBF1E6
:10B2B000080F0ED101E000BF00BFB8F1000F06D1AA
:10B2C0002FB926B91DB947F27E202080DAE704E0C5
:10B2D00003E045F625602080D4E700BF2AF01E0079
:10B2E00008B1012000E0002003900398012803D159
:10B2F00045F625602080C5E7CAF300100290029849
:10B30000C0B9B8F57A7F03D347F27B202080B9E734
:10B310003B2F03DD47F27A202080B3E73B2E03DD8D
:10B3200047F279202080ADE7632D12DD47F27820C7
:10B330002080A7E742F20F70864203DD47F27920B2
:10B3400020809FE7B5F57A7F03DB47F278202080E5
:10B3500098E77F48D0F800904FF4FA70B0FBF9F00E
:10B36000404400FB09F04FF47A71B0FBF1F14FF467
:10B3700061606843C6EB061200EB8200384400FBB4
:10B38000091001900198002856D000BF00BF00BFEF
:10B39000F7F7B6FD009000BF00BF6B480078401C77
:10B3A0006949087000BF00BF0098F7F7ADFD00BF06
:10B3B00000BF00BF01206549096881F836002346B7
:10B3C0005A46624801990068FFF7B8FD2088A8B185
:10B3D00000BF00BF00BFF7F793FD009000BF00BFA4
:10B3E00059480078401E5849087000BF00BF0098B7
:10B3F000F7F78AFD00BF00BF00BF43E7534800686E
:10B40000F9F77BFD00BF00BF00BFF7F779FD0090A3
:10B4100000BF00BF4C480078401E4B49087000BF79
:10B4200000BF0098F7F770FD00BF00BF00BFF9F73D
:10B4300008FB0020208002E047F27E20208000BF31
:10B4400020E770B505460C4600263E4800780028E7
:10B4500003DD47F27620208070BD1DB947F2511000
:10B460002080F9E700BF00BFF7F74AFD064600BF9E
:10B4700000BF3648006885420AD147F2511020804B
:10B4800000BF00BF3046F7F73FFD00BF00BFE3E756
:10B4900095F8360008287DD2DFE800F0040F3E4919
:10B4A0005C6796A100BF00BF3046F7F72DFD00BFD7
:10B4B00000BF47F251102080A7E000BF224800786B
:10B4C000401C2149087000BF00BF3046F7F71CFD43
:10B4D00000BF00BF00BF002085F836002846FFF7F8
:10B4E000BDFB2846F9F727FE00BF00BF00BFF7F7F6
:10B4F00007FD064600BF00BF13480078401E1249F2
:10B50000087000BF00BF3046F7F7FEFC00BF00BF69
:10B5100000BF0020208078E000BF00BF3046F7F772
:10B52000F3FC00BF00BF47F2511020806DE000BF68
:10B5300000BF3046F7F7E8FC00BF00BF47F25110EC
:10B54000208062E0A8000020F000002048010020D8
:10B5500074E3000800BF00BF3046F7F7D5FC00BF1A
:10B5600000BF47F2511020804FE000BF4E480078E6
:10B57000401C4D49087000BF00BF3046F7F7C4FCBF
:10B5800000BF00BF00BF042085F836002846FFF743
:10B5900065FB00E02EE000BF00BF00BFF7F7B0FC86
:10B5A000064600BF00BF40480078401E3E49087074
:10B5B00000BF00BF3046F7F7A7FC00BF00BF00BFC9
:10B5C00047F25A10208020E000BF00BF3046F7F756
:10B5D0009BFC00BF00BF47F25110208015E000BF68
:10B5E00000BF3046F7F790FC00BF00BF47F2511094
:10B5F00020800AE000BF00BF3046F7F785FC00BF9F
:10B6000000BF46F62D60208000BF00BFF9F719FA91
:10B6100000BF21E770B50446002600BF00BFF7F762
:10B620006FFC064600BF00BF2048056800BF00BF92
:10B630003046F7F769FC00BF00BF00202080284695
:10B6400070BD70B504460D46002600BF00BFF7F779
:10B6500057FC064600BF00BF1448046000BF00BF8F
:10B660003046F7F751FC00BF00BF0020288070BDB6
:10B6700010B586B000F00BFDF7F7C6FA044605A832
:10B6800000210091CDE9011403900948007800EBF6
:10B690004000084A02EB800100231A460648FAF7E8
:10B6A00067FF06B010BD0000F00000202801002058
:10B6B000D6000020E42400205449434B0021C162FD
:10B6C000FC49096811B90021016305E0F9490968DD
:10B6D0000163F8490968C862F649086070472DE9B6
:10B6E000F84F0446884616461F46DDE90BABDDF8E9
:10B6F00028900D9D00200090EF480078002804DD80
:10B7000047F243302880BDE8F88F1CB945F6C35096
:10B710002880F8E7B9F1010F08D0B9F1020F0BD179
:10B720001FB947F240302880EDE709E01EB947F223
:10B730003F302880E7E703E045F625602880E2E710
:10B7400000BF00BF00BF00BFF7F7DAFB009000BFEB
:10B7500000BFDA480078401CD849087000BF00BF1D
:10B760000098F7F7D1FB00BF00BF00BF012084F8AD
:10B770002A00D3482060C4F8048026620020A0611B
:10B78000E0616762A4F82890C4F808A0C4F80CB07F
:10B79000206160612046FFF791FFCA480088401C85
:10B7A000C849088000BF00BF00BFF7F7A9FB0090A1
:10B7B00000BF00BFC1480078401EC049087000BFEC
:10B7C00000BF0098F7F7A0FB00BF00BF00BF00203C
:10B7D000288000BF97E7002180F82A10BA4901604D
:10B7E000BAA14160002101628161C16141620185AC
:10B7F0008160C160016141617047F0B5B54E368826
:10B800008569B5FBF6F706FB1755ACB2B24D05EBF3
:10B81000C4021568854205D10169116039B100255E
:10B820004D6104E0416903690B6103B15961012570
:10B8300080F82A5000250561456195886D1E958028
:10B84000F0BDC26A016B3AB99A4B196009B1002385
:10B85000CB620023036309E019B900231363C362B9
:10B8600004E01163CA6200230363C362704738B502
:10B8700005460C4690480078002804DD47F2433026
:10B880002080002038BD25B947F2423020800020BA
:10B89000F8E78B492868884204D045F6C4502080D8
:10B8A0000020EFE76846F9F719F92846FFF7C9FFC6
:10B8B00084480088401E8349088095F82A00F0B12A
:10B8C000012811D0022802D0032820D10DE02846FB
:10B8D000FFF793FF2846FFF77EFF6846F9F748F920
:10B8E000002020800120CDE700BF2846FFF773FF2E
:10B8F0006846F9F73DF9002020800120C2E768463C
:10B90000F9F736F947F23D3020800020BAE7684663
:10B91000F9F72EF947F2413020800020B2E7F8B560
:10B9200004460D4664480078002804DD47F24330A1
:10B9300028800020F8BD24B947F24230288000203A
:10B94000F8E75F492068884204D045F6C450288053
:10B950000020EFE76846F9F7C1F894F82A0050B3E1
:10B96000012810D0022802D003282CD11DE05B4909
:10B97000A0690968461AE6616846F9F7F9F80020F7
:10B9800028803046D6E7208D022805D1206A08B9E4
:10B99000666A02E0266A00E0266AE6616846F9F710
:10B9A000E7F8002028803046C4E76846F9F7E0F859
:10B9B00000202880BEE76846F9F7DAF847F23D3004
:10B9C00028800020B6E76846F9F7D2F847F2413000
:10B9D00028800020AEE7F0B50C46022680F82A60E9
:10B9E000012C05D13D4F466A3F683E4486610CE01C
:10B9F000066A2EB9394F466A3F683E44866104E0C4
:10BA0000364F066A3F683E448661324F3F888669FA
:10BA1000B6FBF7FC07FB1C66B5B22F4E06EBC50262
:10BA2000166836B9002606614661106001269680C8
:10BA30002CE02A4F86693F68F61BC661116820E03A
:10BA4000264F8E693F68F61BCE61C669CF69BE423C
:10BA500009D90E690EB1096913E00026066141613A
:10BA6000086100210DE04E692EB900264661016192
:10BA70004861106004E04B694361016118614861ED
:10BA800000210029DCD19688761C9680D68897887C
:10BA9000BE4201DA9688D680F0BD38B505460C4620
:10BAA0000548007800281BDD47F243302080002045
:10BAB00038BD000030010020A8000020F000002068
:10BAC000544D5220340100204E4F4E453F544D52AC
:10BAD00000000000ACE30008C82200203C01002068
:10BAE00025B947F242302080002038BDE24928685D
:10BAF000884204D045F6C45020800020F5E768460F
:10BB0000F8F7ECFF95F82A0000B3012812D00228BC
:10BB100002D0032822D10EE02846FFF76EFE002156
:10BB20002846FFF758FF6846F9F722F800202080E2
:10BB30000120DAE700BF00212846FFF74CFF6846E6
:10BB4000F9F716F8002020800120CEE76846F9F7C3
:10BB50000FF847F23D3020800020C6E76846F9F72D
:10BB600007F847F2413020800020BEE72DE9F04180
:10BB700005460C460027C1480078002805DD47F23D
:10BB8000433020800020BDE8F08125B947F24230E3
:10BB900020800020F7E7B8492868884204D045F69D
:10BBA000C45020800020EEE700BF00BFF7F7A8F9DF
:10BBB000074600BF00BF95F82A6036B1012E05D0B8
:10BBC000022E05D0032E06D101E000BF00BF00BF4A
:10BBD0000020208003E047F24130208000BF00BFFA
:10BBE00000BF00BF3846F7F78FF900BF00BF3046EF
:10BBF000C9E72DE9F84305460F4690461C469F4885
:10BC00000078002805DD47F2433020800020BDE8A1
:10BC1000F88325B947F2423020800020F7E79649A3
:10BC20002868884204D045F6C45020800020EEE702
:10BC30006846F8F753FF95F82A0000283DD0012800
:10BC400033D0022802D003283FD12DE02846FFF749
:10BC5000D4FD00202080C7B1032F02D0042F15D1BE
:10BC600009E0AE681EB12846E968B04702E047F235
:10BC70004430208012E0AE681EB141462846B047ED
:10BC800002E047F24430208008E007E06846F8F719
:10BC90006FFF45F6256020800020B8E700BF6846AA
:10BCA000F8F766FF0120B2E700BF6846F8F760FFCB
:10BCB00047F2493020800120A9E76846F8F758FF8D
:10BCC00047F23D3020800020A1E76846F8F750FF9A
:10BCD00047F241302080002099E71CB500BF53E0B7
:10BCE00001AB6A4600210846FEF7CEF901A8F8F735
:10BCF000F5FEF6F789FF064661480068401C60497A
:10BD00000860084600685F490988B0FBF1F201FB52
:10BD100012001FFA80FA5C4800EBCA08D8F800400D
:10BD20004FF0000B21E0F4B1D4F810905449A06911
:10BD30000968884214D12046FFF75FFD208D022854
:10BD400004D101212046FFF746FE02E0032084F8DB
:10BD50002A00A56815B12046E168A8474C4604E0D2
:10BD60004FF0010B01E04FF0010BBBF1000FDAD0F7
:10BD7000F6F74AFF871B01A8F8F7FAFE4348006868
:10BD8000B84201D241480760AAE770B58AB00446BC
:10BD900000203F4908603F48006840B13E480068C5
:10BDA0003C490968B0FBF1F03C49086006E03A48BC
:10BDB00000680A21B0FBF1F0384908603748006894
:10BDC0003749086000202E49086030490860002586
:10BDD00008E02D4800EBC5060020B080F080306000
:10BDE000681C85B2274800888542F2DB2D48006830
:10BDF00020B947F2473020800AB070BD2A48006859
:10BE00002A490968884203D247F248302080F3E784
:10BE1000274800783F2803D347F246302080EBE7DD
:10BE20000B2000210591CDE90704069108461E4923
:10BE30000968204A12681B4B1B68CDE90132CDE925
:10BE400003101B4800780023AFF271121AA1009072
:10BE50001F48FDF76BFA00BFCEE7002006E00A4A54
:10BE600002EBC0010022CA80421C90B2054A12882F
:10BE70009042F4DB70470000544D5220A80000208F
:10BE80003C010020ACE30008C8220020380100205B
:10BE90003001002098E3000874E30008400100200E
:10BEA000440100209CE30008A4E3000870E30008BC
:10BEB00094E30008A0E3000875432F4F532D494930
:10BEC000492054696D6572205461736B0000000055
:10BED0006C29002010B58A48006810B188480068B5
:10BEE000804710BD874A1168002002E0002204C18B
:10BEF000401C854A12689042F8D3824A1268824BED
:10BF00001B6802EB8302121F804B1A60704710B54A
:10BF10007F48006810B17E480068804710BD10B5AA
:10BF200004467C48006818B120467A490968884769
:10BF300010BD10B504467848006818B1204676490F
:10BF40000968884710BD10B504467448006818B1E8
:10BF5000204672490968884710BDF0B50446DDE9FE
:10BF6000055602EB85004FF0807C071F3846C7F866
:10BF700000C0071F38463C60DFF8A4C1071F3846E1
:10BF8000C7F800C04FF0123C071F3846C7F800C082
:10BF90004FF0033C071F3846C7F800C04FF0023C83
:10BFA000071F3846C7F800C0071F38463B60071F09
:10BFB000384639604FF0113C071F3846C7F800C0BB
:10BFC0004FF0103C071F3846C7F800C04FF0093C3F
:10BFD000071F3846C7F800C04FF0083C071F384617
:10BFE000C7F800C04FF0073C071F3846C7F800C02D
:10BFF0004FF0063C071F3846C7F800C04FF0053C1D
:10C00000071F3846C7F800C04FF0043C071F3846EA
:10C01000C7F800C0F0BD10B54248006810B14148F3
:10C0200000688047F6F7F0FD04463F4800683F4946
:10C030000968884215D03C480068D0F89800201A5A
:10C0400039490968C1F8940037480068D0F89C0065
:10C0500035490968D1F89410084433490968C1F892
:10C060009C0032480068C0F898402F480068D0F81B
:10C07000B4002F490968884205D22D4800682A4932
:10C080000968C1F8B40000202949086010BD10B546
:10C090002848006810B127480068804710BD10B5D7
:10C0A000002400BF00BFF6F72BFF044600BF00BF0F
:10C0B00021480078401C2049087000BF00BF20467E
:10C0C000F6F722FF00BF00BFFFF7D2FAF8F759FCDE
:10C0D00010BD01464A1E4FF0E0235A61174A10680E
:10C0E00020F07F4000BF10601A46126942F005023E
:10C0F0001A611A46126942F002021A617047000082
:10C100009400002040E3000844E3000850010020B0
:10C1100098000020880000208C0000209000002063
:10C120001FAC00089C000020480100204C010020AA
:10C13000EC000020A0000020A800002020ED00E07E
:10C14000704753EA020C00F069802DE9F04B4FF084
:10C150000006002B1FBFB3FA83F503FA05F424FA97
:10C1600005F65E4012BF1643B2FA82F502FA05F4F4
:10C17000C5F120051EBF22FA05FC44EA0C04203557
:10C1800056EA044C4FEA144418BF641C4FF00008F0
:10C190004FF00009904271EB030C39D3002919BF0D
:10C1A000B1FA81F701FA07F6B0FA80F700FA07F65C
:10C1B000C7F120071EBF20FA07FC46EA0C0620370D
:10C1C000B6FBF4FCA7EB0507103F07F01F0BCBF104
:10C1D00020060CFA0BFB2CFA06F644BFB3460026E9
:10C1E000202FA4BF5E464FF0000B5BEA060C08BF91
:10C1F0004FF0010B19EB0B09ABFB027C48EB060877
:10C20000C01B06FB02CC0BFB03CC71EB0C01C1E79E
:10C210000B46024641464846BDE8F08B13B54FF049
:10C2200000004FF00001AFF30080BDE81C407047F4
:10C230000FB4044910B503AA029800F0FFF810BC2F
:10C240005DF814FB5C0000202DE9F0410E46044629
:10C25000002020622046E168884730B3252805D0B9
:10C26000D4E901219047206A401CF2E7E1682046AA
:10C2700000278847050018D0A5F14100192802D8E9
:10C2800020354FF400673246294620462760F3F7F1
:10C29000A9FF40B1012804D0F61D26F00706083694
:10C2A000D8E7361DD6E72846DAE7206ABDE8F081F0
:10C2B0002DE9F0410646002410687529314616A57F
:10C2C00010D0AFF30080002802DA404213A507E047
:10C2D00031688A0701D512A502E0490704D511A5E6
:10C2E000012401E0AFF3008000210A2206F12407B7
:10C2F00009E0B0FBF2FCB0FBF2F302FB1C003030B3
:10C3000078541846491C0028F3D123462A46304663
:10C31000BDE8F04100F038B8000000002D0000003A
:10C320002B0000002000000070B504460D46214699
:10C330001068AFF300802188090502D50F4A7A44BE
:10C3400002E00E4A7A440E32002104F1240305E093
:10C3500000F00F060009965D5E54491C0028F7D1D5
:10C3600020780023000704D5702D02D009B10223E4
:10C3700011322046BDE8704000F006B8E22100000E
:10C3800070477047704770472DE9F0470D46994652
:10C390009246044600F124080168880604D5E06945
:10C3A00021F01001216000E00120A84201DD471BBF
:10C3B00000E00027A1697A1902EB0900081AA061C0
:10C3C0002078C00602D42046AFF30080002608E0A3
:10C3D000D4E901211AF806009047206A401C761C17
:10C3E00020624E45F4DB2078C0060AD52046AFF324
:10C3F000008006E0D4E9012130209047206A401CEB
:10C400002062381EA7F10107F4DC07E0D4E901211E
:10C4100018F805009047206A401C2062281EA5F1EC
:10C420000105F3DC2046AFF300802078000602D53A
:10C430000220BDE8F0870120FBE70000074B70B544
:10C440000D467B4400F011F80446284600F020F821
:10C4500010B14FF0FF3070BD204670BD0D54FFFF8E
:10C4600001694A1C02610878704700B58FB0CDE9B8
:10C4700001310021059105497944CDE903101146A8
:10C480006846FFF7E1FE0FB000BD0000E5FFFFFFCB
:10C49000007B00F080007047754600F02BF8AE4638
:10C4A00005006946534620F00700854618B020B5C0
:10C4B000F5F782FABDE820404FF000064FF0000784
:10C4C0004FF000084FF0000B21F00701AC46ACE83C
:10C4D000C009ACE8C009ACE8C009ACE8C0098D46A9
:10C4E000704710B50446AFF300802046BDE8104009
:10C4F000F3F78DBE00487047302A00201D484FF6E4
:10C50000FF710170002080F309881B48016881F3E6
:10C5100008881A484FF08051016062B6FEE717485C
:10C520004FF080510160704714484FF08051016016
:10C53000704772B6EFF3098028B1203880E8F00F19
:10C540000F490968086000B50E4880475DF804EBA4
:10C550000D480E490A78027009480D490A680260C0
:10C56000106890E8F00F203080F309884EF0040E38
:10C5700062B6704722ED00E05001002004ED00E0BB
:10C580004801002017C00008D6000020D700002076
:10C590004C0100200000000000000000000000002E
:10C5A000000000003F4000000000000000003000DC
:10C5B000400030004000000009000BC03D000BC0EF
:10C5C0003D00090018C024407FE022403180000077
:10C5D000180024C01B000D803240018003801C40E5
:10C5E00027401C8007400040100060000000000051
:10C5F000000000000000000000001F8020404020DC
:10C600000000402020401F800000000009000600BC
:10C610001F80060009000000040004003F800400A1
:10C620000400000000100060000000000000000096
:10C6300004000400040004000400000000000040A6
:10C640000000000000000000002001C006003800CB
:10C65000400000001F802040204020401F8000003C
:10C66000000010403FC000400000000018C0214002
:10C6700022402440184000001080204024402440E4
:10C680001B80000002000D0011003FC001400000AF
:10C690003C80244024402440238000001F8024400C
:10C6A00024403440038000003000200027C03800C0
:10C6B000200000001B802440244024401B800000F8
:10C6C0001C0022C0224022401F8000000000000009
:10C6D00008400000000000000000000004600000AE
:10C6E00000000000000004000A001100208040400B
:10C6F000090009000900090009000000000040408D
:10C70000208011000A0004001800200023402400AB
:10C71000180000001F802040274029401F400000D3
:10C72000004007C039000F0001C0004020403FC05A
:10C73000244024401B8000001F80204020402040D7
:10C740003080000020403FC0204020401F8000007B
:10C7500020403FC024402E4030C0000020403FC059
:10C7600024402E00300000000F00108020402240A6
:10C770003380020020403FC0040004003FC020403E
:10C78000204020403FC0204020400000006020208A
:10C7900020203FC02000200020403FC024400B004C
:10C7A00030C0204020403FC020400040004000C03A
:10C7B0003FC03C0003C03C003FC0000020403FC0E1
:10C7C0000C4023003FC020001F802040204020401C
:10C7D0001F80000020403FC02440240018000000BB
:10C7E0001F802140214020E01FA0000020403FC0CA
:10C7F0002440260019C0004018C024402440224094
:10C8000031800000300020403FC020403000000058
:10C8100020003F80004000403F80200020003E007C
:10C8200001C0070038002000380007C03C0007C0E6
:10C8300038000000204039C0060039C02040000008
:10C840002000384007C0384020000000304021C0A0
:10C850002640384020C00000000000007FE040205B
:10C8600040200000000070000C0003800040000029
:10C870000000402040207FE0000000000000200079
:10C880004000200000000000001000100010001008
:10C890000010001000000000400000000000000038
:10C8A000000002800540054003C0004020003FC05A
:10C8B0000440044003800000000003800440044062
:10C8C0000640000000000380044024403FC00040B8
:10C8D00000000380054005400340000000000440C4
:10C8E0001FC0244024402000000002E005500550F5
:10C8F0000650042020403FC00440040003C0004014
:10C900000000044027C0004000000000001000109C
:10C91000041027E00000000020403FC00140070055
:10C9200004C00440204020403FC0004000400000C0
:10C9300007C0040007C0040003C00000044007C093
:10C940000440040003C00040000003800440044091
:10C9500003800000041007F004500440038000002E
:10C96000000003800440045007F00010044007C09A
:10C97000024004000400000000000640054005409D
:10C9800004C00000000004001F80044000400000BC
:10C99000040007800040044007C000400400070076
:10C9A00004C0018006000400060001C0070001C0A9
:10C9B00006000000044006C0010006C0044000005C
:10C9C0000410071004E00180060004000000044089
:10C9D00005C00640044000000000000004007BE0A9
:10C9E00040200000000000000000FFF000000000F8
:10C9F000000040207BE004000000000040008000B8
:10CA00004000200020004000000000000000000066
:10CA100000000000000000000000000000001FCC2B
:10CA2000000C000000000000000008003000600062
:10CA30000800300060000000022003FC1E200220DD
:10CA400003FC1E200220000000000E1811043FFF0E
:10CA500010840C78000000000F0010840F3800C014
:10CA6000077818840078000000780F8410C411241F
:10CA70000E9800E4008400080800680070000000C0
:10CA8000000000000000000000000000000007E0BF
:10CA9000181820044002000000004002200418186A
:10CAA00007E00000000000000240024001800FF09B
:10CAB00001800240024000000080008000800FF8EA
:10CAC00000800080008000000001000D000E0000CA
:10CAD00000000000000000000000008000800080D6
:10CAE00000800080008000800000000C000C00002E
:10CAF00000000000000000000000000600180060B8
:10CB00000180060018002000000007F0080810044B
:10CB10001004080807F000000000080408041FFCC7
:10CB2000000400040000000000000E0C101410248B
:10CB3000104411840E0C000000000C1810041104A5
:10CB4000110412880C700000000000E0032004248F
:10CB500008241FFC0024000000001F98108411040A
:10CB60001104108810700000000007F008881104FC
:10CB7000110418880070000000001C00100010FC58
:10CB800013001C001000000000000E381144108437
:10CB9000108411440E38000000000700088C104477
:10CBA0001044088807F00000000000000000030C9B
:10CBB000030C00000000000000000000000101065E
:10CBC0000000000000000000000000800140022082
:10CBD0000410080810040000022002200220022095
:10CBE00002200220022000000000100408080410A7
:10CBF000022001400080000000000E001200100C16
:10CC0000106C10800F00000003E00C1813E41424D3
:10CC100017C4082807D000000004003C03C41C40CF
:10CC2000074000E4001C000410041FFC1104110460
:10CC300011040E880070000003E00C1810041004AA
:10CC4000100410081C10000010041FFC1004100435
:10CC50001004080807F0000010041FFC1104110460
:10CC600017C410040818000010041FFC1104110060
:10CC700017C010000800000003E00C181004100496
:10CC800010441C780040000010041FFC1084008039
:10CC9000008010841FFC10040000100410041FFC0E
:10CCA0001004100400000000000300011001100136
:10CCB0001FFE10001000000010041FFC1104038070
:10CCC0001464181C1004000010041FFC100400045D
:10CCD00000040004000C000010041FFC1F0000FCF6
:10CCE0001F001FFC1004000010041FFC0C040300B4
:10CCF00000E010181FFC100007F0080810041004D2
:10CD00001004080807F0000010041FFC10841080B5
:10CD1000108010800F00000007F008181024102465
:10CD2000101C080A07F2000010041FFC1104110077
:10CD300011C011300E0C000400000E1C11041084F0
:10CD4000108410441C3800001800100010041FFC50
:10CD5000100410001800000010001FF81004000458
:10CD6000000410041FF8100010001E0011E0001C49
:10CD7000007013801C0010001FC0103C00E01F005A
:10CD800000E0103C1FC000001004180C163401C055
:10CD900001C01634180C100410001C00130400FC11
:10CDA00013041C00100000000804101C1064108400
:10CDB00013041C04101800000000000000007FFE97
:10CDC0004002400240020000000030000C000380DE
:10CDD0000060001C0003000000004002400240020E
:10CDE0007FFE000000000000000000002000400066
:10CDF000400040002000000000010001000100018F
:10CE0000000100010001000100004000400020007E
:10CE10000000000000000000000000980124014410
:10CE20000144014400FC000410001FFC00880104C0
:10CE300001040088007000000000007000880104F8
:10CE40000104010400880000000000700088010453
:10CE5000010411081FFC0004000000F80144014413
:10CE60000144014400C800000000010401040FFC5B
:10CE70001104110411001800000000D60129012935
:10CE8000012901C90106000010041FFC00840100F3
:10CE90000100010400FC000400000104190419FC55
:10CEA0000004000400000000000000030001010174
:10CEB000190119FE0000000010041FFC00240040AE
:10CEC00001B4010C010400000000100410041FFC58
:10CED0000004000400000000010401FC0104010042
:10CEE00001FC0104010000FC010401FC00840100BC
:10CEF0000100010400FC0004000000F8010401042A
:10CF00000104010400F80000010101FF0085010493
:10CF10000104008800700000000000700088010417
:10CF20000104010501FF00010104010401FC00846A
:10CF30000104010001800000000000CC0124012454
:10CF4000012401240198000000000100010007F8FD
:10CF50000104010400000000010001F800040004C5
:10CF60000004010801FC0004010001800170000CB4
:10CF7000001001600180010001F0010C003001C0CF
:10CF80000030010C01F0010000000104018C00746C
:10CF90000170018C01040000010101810171000E8A
:10CFA000001801600180010000000184010C0134BF
:10CFB00001440184010C000000000000000000009A
:10CFC00001003EFC400240020000000000000000A2
:10CFD000FFFF0000000000000000400240023EFC95
:10CFE00001000000000000000000600080008000E0
:10CFF0004000400020002000000000000000000071
:10D000000000000000000000000000000000000020
:10D010000000000000000000000000000000000010
:10D0200000000000000000000000000F80380FFE2C
:10D03000380F8038000000000000000000000000F1
:10D040000000000000000100000600000C00003895
:10D0500000003100000600000C0000380000300025
:10D06000000000000000000061800067F807F98000
:10D070000061800061800061800061800067F807C6
:10D08000F98000618000000000000000000001C085
:10D09000E003E0F00630080418081FFFFE040E0845
:10D0A0000787F00381E000000000000001F00006A7
:10D0B0000C00040408060C7001F9C0000E00003BCF
:10D0C000E000EC18070808040C180003E00000005A
:10D0D0000001E00007F003F818041C080417080713
:10D0E000E1D003C0E00023B0003C080020080000AD
:10D0F00010000000000000010000310000320000BC
:10D100001C00000000000000000000000000000003
:10D11000000000000000000000000000000000000F
:10D1200000000000000000007F0001FFC00780F049
:10D130000C00181000042000020000000000002075
:10D1400000021000040C00180780F001FFC0007FEF
:10D1500000000000000000000000000000000000CF
:10D16000000000004200006600006600003C000075
:10D17000180003FFC0001800003C000066000066B5
:10D180000000420000000000080000080000080045
:10D1900000080000080001FFC000080000080000AF
:10D1A0000800000800000800000000000001000066
:10D1B0003100003200001C000000000000000000F0
:10D1C000000000000000000000000000000000005F
:10D1D000080000080000080000080000080000081F
:10D1E000000008000008000008000008000000001F
:10D1F0000000000000000000380000380000380087
:10D20000000000000000000000000000000000001E
:10D210000000000000000000000600001C0000707C
:10D22000000180000E0000380000C0000700001C54
:10D230000000300000000000000000007F8001FFBF
:10D24000E0038070060018040008040008060018B7
:10D2500003807001FFE0007F8000000000000000FC
:10D26000000001000801000801000803FFF807FFA3
:10D27000F80000080000080000080000000000009E
:10D2800000000001C03802C05804009804011804CE
:10D290000218040418061C1803F81801E0F800002E
:10D2A0000000000000000001C0E003C0F00400081E
:10D2B00004080804080806180803F41801E7F00039
:10D2C00001E0000000000000000000000300000D6D
:10D2D0000000110000610000810803010807FFF849
:10D2E0000FFFF80001080001080000000000000026
:10D2F00000E007FCD0060808061008061008061013
:10D3000008061838060FF00607C0000000000000ED
:10D31000000000003F8001FFE00384300208180491
:10D320001008041008041008071810030FF0000775
:10D33000C000000000000000000003C00007000063
:10D340000600000600F80607F806180006E00007C9
:10D35000000006000000000000000001E1E003F70B
:10D36000F0063410041808041808040C08040C080B
:10D3700006161803F3F001C1E000000000000000F1
:10D38000F80003FC30030638040208040208040213
:10D39000080404100308F001FFC0007F0000000033
:10D3A000000000000000000000000000000000007D
:10D3B0007038007038007038000000000000000075
:10D3C000000000000000000000000000000000005D
:10D3D00000000000301A00301C00000000000000B7
:10D3E0000000000000000000000000000000000835
:10D3F0000000140000220000410000808001004075
:10D4000002002004001008000800000000000000D6
:10D410002100002100002100002100002100002146
:10D420000000210000210000210000210000000078
:10D4300000000000000008000804001002002001A5
:10D44000004000808000410000220000140000081D
:10D450000000000000000003C00004C00004000041
:10D46000080038080F380808380810000C3000078A
:10D47000E00003C000000000000000003F8000FF4B
:10D48000E0038070020F1006708804C088048308CF
:10D49000047F8802C09003012000FE4000000800C5
:10D4A00000180001F8003E0801C20007020007E270
:10D4B0000000FE00001FC80001F80000380000084E
:10D4C00004000807FFF807FFF80408080408080428
:10D4D000080804080806180803F41801E7F000011A
:10D4E000E0000000000000003F8001FFE0038070CA
:10D4F00002001804000804000804000804001006D4
:10D5000000200780C000000004000807FFF807FFA4
:10D51000F8040008040008040008040018020010C1
:10D5200003807001FFE0007F800000000400080716
:10D53000FFF807FFF80408080408080408080408AE
:10D5400008043E08040008060018010060000000FE
:10D5500004000807FFF807FFF8040808040800049F
:10D560000800040800043E000600000600000180D8
:10D5700000000000000000003F8001FFE003807019
:10D580000600180400080402080402080203F00759
:10D5900083F000020000020004000807FFF807FF04
:10D5A000F80408080008000008000008000008004F
:10D5B00004080807FFF807FFF8040008000000004F
:10D5C000000004000804000804000807FFF807FF33
:10D5D000F80400080400080400080000000000002F
:10D5E0000000000000060000070000010400010424
:10D5F000000104000307FFFE07FFFC040000040015
:10D600000004000004000807FFF807FFF8040C08F6
:10D61000001800003E0004C7800503C80600F80497
:10D62000003804001800000804000807FFF807FF8E
:10D63000F8040008000008000008000008000008C6
:10D640000000080000180000600000000400080747
:10D65000FFF807800807FC00007FC00003F8000700
:10D66000C000780007800807FFF807FFF8040008EB
:10D6700004000807FFF807000803C00000E00000EE
:10D680003800001E000007000001C00400F007FF82
:10D69000F8040000000000007F8001FFE0038070BC
:10D6A00006001804000804000806001803003001F2
:10D6B000FFE0007F8000000004000807FFF807FF7C
:10D6C000F804040804040004040004040004040032
:10D6D000060C0003F80001F000000000000000004C
:10D6E0007F8001FFE003807006008804008804004A
:10D6F000C806003C03003E01FFE6007F84000000F6
:10D7000004000807FFF807FFF804080804080004ED
:10D710000C00040F00040BC00610F003F03801E009
:10D720000800000800000001E0F803F030063010A7
:10D73000041808041808040C08040C08020618024F
:10D7400007F00781E00000000180000600000400EF
:10D750000004000004000807FFF807FFF8040008B1
:10D76000040000040000060000018000040000071F
:10D77000FFE007FFF00400180000080000080000A8
:10D780000800000800000804001007FFE004000083
:10D7900004000006000007E00007FE00041FE00090
:10D7A00001F80000380001E0043E0007C000060058
:10D7B0000004000004000007E00007FFC0041FF899
:10D7C0000007C007F80007FF80043FF80007C00407
:10D7D000F800070000040000000000040008060034
:10D7E0001807C07805F1C8003E00001F800463E8F8
:10D7F0000780F80600180400080000000400000676
:10D80000000007800007E008047C08001FF80007FC
:10D81000F800180804E008070000060000040000F3
:10D820000000000100080600380400F80403E804C2
:10D830000F08047C0805F00807C00807001804005A
:10D840006000000000000000000000000000000078
:10D850000000003FFFFE2000022000022000022006
:10D86000000220000200000000000000000008008C
:10D870000007000000C0000038000006000001C0E2
:10D8800000003000000E0000010000000000000059
:10D8900000002000022000022000022000022000E0
:10D8A000023FFFFE0000000000000000000000003A
:10D8B0000000000000000000000800001000003020
:10D8C00000002000003000001000000800000000F0
:10D8D0000000000000000100000100000100000144
:10D8E0000000010000010000010000010000010033
:10D8F0000001000001000001000000000000000025
:10D9000000200000200000100000100000000000B7
:10D910000000000000000000000000000000000007
:10D9200000F00019F8001B18002208002608002447
:10D9300008002410003FF8001FF80000080000183D
:10D9400000000004000007FFF80FFFF000181800A7
:10D950001008002008002008003018001FF0000FF9
:10D96000C00000000000000007C0001FF0001830D9
:10D97000002008002008002008003C08001C1000BF
:10D9800000600000000000000000000007C0001F51
:10D99000F0003818002008002008002008041010AB
:10D9A00007FFF80FFFF0000010000000000000006B
:10D9B00000000007C0001FF00012300022180022F3
:10D9C00008002208003208001E10000E200000008F
:10D9D00000000000200000200800200801FFF803DC
:10D9E000FFF8062008042008042008072000030090
:10D9F0000000000000000000000E000E6E001FF38B
:10DA00000031B10020B10020B1003191001F13009E
:10DA10002E1E00200E00300000000004000807FF4A
:10DA2000F80FFFF800100800200000200000200878
:10DA3000003FF8001FF80000080000000000000090
:10DA40000000002008002008002008063FF8063FDC
:10DA5000F8000008000008000008000000000000B6
:10DA6000000000000000000003000003002001008F
:10DA70002001002003063FFE063FFC0000000000DE
:10DA80000000000000000004000807FFF80FFFF886
:10DA9000000188000300002FC00038F80020380083
:10DAA0002008000008000000000000000000040042
:10DAB0000804000804000807FFF80FFFF80000083A
:10DAC000000008000008000000000000002008001E
:10DAD0003FF8003FF8001008002000003FF8003F2A
:10DAE000F8001008002000003FF8003FF800000890
:10DAF000000000002008003FF8003FF80010080078
:10DB00001000002000002008003FF8001FF800006F
:10DB1000080000000000000007C0000FF0001830EF
:10DB200000300800200800200800300800183000ED
:10DB30000FF00007C0000000000000002001003FBF
:10DB4000FF003FFF001011002009002008002008FE
:10DB5000003038001FF0000FC0000000000000007F
:10DB600007C0001FF000381800200800200800201F
:10DB700009001011001FFF003FFF0000010000001E
:10DB8000002008002008002008003FF8003FF800AF
:10DB900008080010080020080020000030000030B5
:10DBA00000000000000000000000000C78001E18BB
:10DBB0000033080023080021080021880021980074
:10DBC00030F000386000000000000000200000205D
:10DBD0000000200000FFF003FFF8002008002008EC
:10DBE00000200800003000000000000000000000DD
:10DBF0002000003FF0007FF800001800000800003F
:10DC000008002010003FF8007FF000001000000026
:10DC1000000000002000003000003C00003F8000B9
:10DC200023F0000078000070002380003C000030EA
:10DC300000002000002000003C00003FE00023F82E
:10DC40000000E0002700003E00003FE00021F80057
:10DC500001E0003E0000200000000000200800203D
:10DC600008003838003E680027800003C8002CF800
:10DC700000383800201800200800000000000000D4
:10DC80002000003003003C01003F830023EC000033
:10DC900070002380003C00002000002000000000F5
:10DCA0000000000000000038080020380020F800C4
:10DCB00023E8002F88003E080038080020180000E4
:10DCC00070000000000000000000000000000000E4
:10DCD0000000000008000014001FF7FC30000620C0
:10DCE0000002000000000000000000000000000032
:10DCF00000000000000000000000FFFFFF00000027
:10DD00000000000000000000000000000000000013
:10DD100000002000023000061FF7FC00140000087D
:10DD200000000000000000000000000000000000F3
:10DD300000000018000060000040000040000020CB
:10DD400000001000000800000400000400000C00A7
:10DD500000100000C6D50000000000E03800007888
:10DD60003C00003C7800003C70C0001CE1E01FFF5C
:10DD7000FFF0001CE3000E1CE7C0079CE78003DCFB
:10DD8000EF0003DCEE0001DCFC60009CF9F07FFF9B
:10DD9000FFF80000000001C00E0001FFFF0001C0FD
:10DDA0000E0001C00E0001C00E0001FFFE0001C008
:10DDB0000E0001C00E0001C00E0001FFFE0001C0F8
:10DDC0000E0001C00E0000000000D6D000000000D0
:10DDD00000070000000780000007000000070000A7
:10DDE00000070000000701801FFFFFE01FFFFFE0AA
:10DDF0001E0701C01E0701C01E0701C01E0701C08B
:10DE00001E0701C01E0701C01FFFFFC01FFFFFC08C
:10DE10001E0701C01C07018000070000000700006A
:10DE200000070000000700000007000000070000D6
:10DE300000070000000700000007000000000000CD
:10DE4000BFC60000000000000780003C07C001FCC6
:10DE500007803FE0078039C1C78001C0E78001C06B
:10DE6000F78001C0778001DE77807FFE078001C0E8
:10DE7000078003C3C78003E1E78003F8F78007FC4E
:10DE8000E7F00FDE67F80FDC07F81FC0FF801DDF2B
:10DE9000E78039CC078071C0078061C0078001C06E
:10DEA000078001C0078001E0078001E0078001C012
:10DEB000070000000000BCBC000000000380300030
:10DEC00003C03C0003C03C0003C0380003C038005E
:10DED00003C0386003F838F07FFFFFF003C038005C
:10DEE00003C0380003C0380003DC39C003FFFFE083
:10DEF00007E383C03FC183C07FC1C3803BC1C780EC
:10DF000003C0EF0003C0EF0003C07E0003C07C002D
:10DF100003C07C0003C0FE003BC3EF803F8787F84F
:10DF20000FBF03F8077800E000000000C4EA00001B
:10DF3000000000C0000001F0000001E0000003C08C
:10DF400000C003C001E007FFFFF00703C0000E039D
:10DF5000C0001E03C0003C03C3007303C78063FFFF
:10DF6000FFC00383C0000383C0000383C00003839A
:10DF7000C0000383C0600383C0F07FFFFFF800038D
:10DF8000C0000003C0000003C0000003C000000385
:10DF9000C0000003C0000003C0000003C000000078
:10DFA0000000D4C2000000000000000000E00700F4
:10DFB00000FFFF8000F0078000F0070000F007007E
:10DFC00000F0070000F0070000FFFF0000FFFF0067
:10DFD00000F0070000F0070000F0070000F0070065
:10DFE00000E0070000FFFF0000E0070000E007007E
:10DFF00000E0070001E0070001C0070001C00700C2
:10E00000038007000780F7000F007F001E001F003D
:10E0100038001C0000000000C8D50000000000000F
:10E0200000000300030003FFFF8003FFFF80038065
:10E0300007000380070003800700038007000380B8
:10E04000070003800700038007000380070003FF29
:10E05000FF000380070003800700038007000380A0
:10E060000700038007000380070003800700038088
:10E0700007000380070003FFFF0003800700038001
:10E080000700038007000300000000000000D0C765
:10E0900000000000000000000380070003FFFF8075
:10E0A00003800700038007000380070003FFFF00D1
:10E0B000038007000380070003FFFF0003FFFF004A
:10E0C000038707000387C00003C7810003C783805D
:10E0D00007FFFFC0070780000F0780001E078600AC
:10E0E0001C078F003BFFFF80700780000007800047
:10E0F000000780E0000781F07FFFFFF800000000CC
:10E1000000000000C6DA0000000006000000079EC4
:10E110000000079E7FF0079E7FF0079FF8F03FFF0B
:10E12000F8F01F9E78F0079E78F0079E78F007FEC3
:10E130007FF0079E78F0079E78F0079E70F007FE4C
:10E1400070F0079E70F0079E7FF0079FFFF03FFF83
:10E15000F0F0119070F003DCF0F003DEE0F0078FD8
:10E16000E0F00F0FE0F00E07C0F01C038FF0380F47
:10E1700003E0201C01C000000000000008070606A4
:10E18000050505050404040404040404030303034F
:10E190000303030303030303030303030202020253
:10E1A000020202020202020202020202020202024F
:10E1B0000202020202020202020202020101010143
:10E1C000010101010101010101010101010101013F
:10E1D000010101010101010101010101010101012F
:10E1E000010101010101010101010101010101011F
:10E1F0000101010101010101010101010000000013
:10E20000000000000000000000000000000000000E
:10E2100000000000000000000000000000000000FE
:10E2200000000000000000000000000000000000EE
:10E2300000000000000000000000000000000000DE
:10E2400000000000000000000000000000000000CE
:10E2500000000000000000000000000000000000BE
:10E2600000000000000000000000000000000000AE
:10E27000000000000000000000000000785634128A
:10E28000FFFFFFFFFFFFFFFFFFFFFF7F55555555C6
:10E29000FFFFFF3F33333333AAAAAA2A244992242B
:10E2A000FFFFFF1F1CC7711C9999991974D145175D
:10E2B00055555515133BB1139224491211111111E3
:10E2C000FFFFFF0F0F0F0F0F8EE3380E5E43790D28
:10E2D000CCCCCC0C0CC3300CBAE8A20B2C64210BB8
:10E2E000AAAAAA0AA3703D0A899DD8095E427B09A1
:10E2F00049922409B0DCD308888888088410420831
:10E30000FFFFFF077CF0C107878787070775500766
:10E31000C7711C07C00E00200C0000008000000028
:10E3200000020000C01000200A00000040010000B0
:10E33000001200200C00000080000000000200001D
:10E3400000140020800000000002000064000000B3
:10E3500040060000001600203E0000000A000000F9
:10E36000401C00200C0000008000000000020000A3
:10E3700040000000C800000001000000401E002016
:10E380000C000000800000000002000011000000EE
:10E39000880000000200000064000000C820002087
:10E3A0000C000000800000000002000011000000CE
:10E3B000880000009014000001000101785634121A
:10E3C000010100000000000000000000000000004B
:10E3D000000000000000000000000000000000003D
:10E3E000000000000000000000000000010101002A
:10E3F00028000400200001000000000000000000D0
:10E40000000000000000000000000000000000000C
:10E4100000000000000000000100200001001000CA
:10E420000C001000000000000000000000000000D0
:10E4300000000000000000000000000000000000DC
:10E4400000000000000000000000000000000000CC
:10E45000010101002C00010020000C002000400000
:10E4600008000400000000000000000000000000A0
:10E47000000000000000000000000000000000009C
:10E48000000000000000000000000000000000008C
:10E490000000000001010101300001000000000047
:10E4A000000000000000000000000000000000006C
:10E4B000000000000000000000000000000000005C
:10E4C000000000000101010128000C000003000011
:10E4D000040101010101010101000101C400080062
:10E4E000010100000000000000000000000000002A
:10E4F000000000000000000000000000000000001C
:10E50000000000000000000000000000000000000B
:10E5100000000000000000000101340008005C76EB
:10E5200096070000303132333435363738394142BE
:10E530004344454640305800303132333435363765
:10E540003839616263646566403078006CE50008C4
:10E5500000000020540100006C010008ACE5000838
:10E56000540100203C330000C801000863FFFF2A6B
:10E570001F0422F81AE01033FF07190C3910190C88
:10E580004BFF7F182340BC2307FC33308484A24A0E
:10E5900004180901020304060708092A594E01104C
:0CE5A0002922692605DE0204060800009E
:0400000508000131BD
:00000001FF
