:020000040800F2
:10000000285B00207502000837080008E107000897
:10001000350800083D070008150D00080000000025
:10002000000000000000000000000000DD010008EA
:100030003F07000800000000210200081D0A000818
:100040008F0200088F0200088F0200088F0200084C
:100050008F0200088F0200088F0200088F0200083C
:100060008F0200088F0200088F0200088F0200082C
:100070008F0200088F0200088F0200088F0200081C
:100080008F0200088F0200088F0200088F0200080C
:100090008F0200088F0200088F0200088F020008FC
:1000A0008F0200088F0200088F0200088F020008EC
:1000B0008F0200088F020008810A00088F020008E2
:1000C0008F0200088F0200088F0200088F020008CC
:1000D0008F020008790B00088F0200088F020008C9
:1000E0008F0200088F0200088F0200088F020008AC
:1000F0008F0200088F0200088F0200088F0200089C
:100100008F0200088F020008C10A00088F02000851
:100110008F0200088F0200088F0200088F0200087B
:100120008F0200088F0200088F0200088F0200086B
:1001300000F002F800F042F80AA090E8000C8244B7
:100140008344AAF10107DA4501D100F037F8AFF294
:10015000090EBAE80F0013F0010F18BFFB1A43F0A5
:10016000010318473029000050290000103A24BF2D
:1001700078C878C1FAD8520724BF30C830C144BF0C
:1001800004680C607047000000230024002500264E
:10019000103A28BF78C1FBD8520728BF30C148BFEA
:1001A0000B607047642900F0F180732900F0FE8134
:1001B000002070471FB51FBD10B510BD00F08BFAB1
:1001C0001146FFF7F7FF00F0D7FD00F0A9FA03B4DE
:1001D000FFF7F2FF03BC00F09EFD0000224B196800
:1001E0000868B0E8F00F80F30988BFF36F8F4FF015
:1001F000000080F311884EF00D0E704700000000E3
:1002000006480068006880F3088862B661B6BFF3EC
:100210004F8FBFF36F8F00DF00BF00BF08ED00E01E
:10022000EFF30980BFF36F8F0F4B1A6820E9F00FCF
:10023000106008B54FF0500080F31188BFF34F8F66
:10024000BFF36F8F01F044FE4FF0000080F3118880
:10025000BDE8084019680868B0E8F00F80F3098825
:10026000BFF36F8F704700BF40000020EFF30580A1
:10027000704700000948804709480047FEE7FEE74D
:10028000FEE7FEE7FEE7FEE7FEE7FEE7FEE7FEE746
:1002900004480549054A064B70470000310A00082A
:1002A0003101000828550020285B00202857002035
:1002B00028570020704700000FB4044910B503AA66
:1002C000029800F077F910BC5DF814FB24000020C0
:1002D0002DE9F0410E460446002020622046E168E8
:1002E000884730B3252805D0D4E901219047206AFA
:1002F000401CF2E7E168204600278847050018D037
:10030000A5F14100192802D820354FF40067324684
:10031000294620462760FFF745FF40B1012804D059
:10032000F61D26F007060836D8E7361DD6E728461C
:10033000DAE7206ABDE8F08170B50C460546012A6F
:1003400005D02878800600D5EA69002302E0012361
:1003500005E05B1C934202D2E05C0028F9D1A86959
:10036000E618C01AA861286A184428622846AFF324
:10037000008004E0D5E9012114F8010B9047B44254
:10038000F8D32846AFF3008070BD00002DE9F0419E
:100390000646002410687529314616A510D0AFF323
:1003A0000080002802DA404213A507E031688A077E
:1003B00001D512A502E0490704D511A5012401E0E9
:1003C000AFF3008000210A2206F1240709E0B0FB08
:1003D000F2FCB0FBF2F302FB1C00303078541846FC
:1003E000491C0028F3D123462A463046BDE8F04197
:1003F00000F059B8000000002D0000002B000000A4
:1004000020000000032A40F2308010F0030C00F0BE
:10041000158011F8013BBCF1020F624498BF11F83E
:1004200001CB00F8013B38BF11F8013BA2F10402F7
:1004300098BF00F801CB38BF00F8013B11F003036F
:1004400000F0CA80083AC0F0088051F8043B083A2E
:1004500051F804CBA0E80810F5E7121D5CBF51F875
:10046000043B40F8043BAFF30080D20724BF11F8EF
:10047000013B11F801CB48BF11F8012B24BF00F854
:10048000013B00F801CB48BF00F8012B704702F098
:10049000FF0343EA032242EA024200F0D1B8704768
:1004A0007047704770472DE9F0470D4699469246D0
:1004B000044600F124080168880604D5E06921F0AB
:1004C0001001216000E00120A84201DD471B00E08F
:1004D0000027A1697A1902EB0900081AA0612078A7
:1004E000C00602D42046AFF30080002608E0D4E91D
:1004F00001211AF806009047206A401C761C2062F1
:100500004E45F4DB2078C0060AD52046AFF30080C4
:1005100006E0D4E9012130209047206A401C206287
:10052000381EA7F10107F4DC07E0D4E9012118F82F
:1005300005009047206A401C2062281EA5F1010595
:10054000F3DC2046AFF300802078000602D50220BD
:10055000BDE8F0870120FBE701694A1C02610878C9
:10056000704700B58FB0CDE90131002105910549F3
:100570007944CDE9031011466846FFF7A9FE0FB094
:1005800000BD0000E5FFFFFF10B5436913B1AFF3F5
:10059000008001E0FFF7D0FE012010BD127800F1CD
:1005A00024010A7000224A700122EDE711684FF021
:1005B000FF32E9E7074B70B50D467B44FFF7D1FFEB
:1005C0000446284600F05CF810B14FF0FF3070BDD3
:1005D000204670BDA307000010B5203AC0F00B8084
:1005E000B1E81850203AA0E81850B1E81850A0E837
:1005F0001850BFF4F5AF5FEA027C24BFB1E8185091
:10060000A0E8185044BF18C918C0BDE810405FEA00
:10061000827C24BF51F8043B40F8043B08BF70477C
:10062000D20728BF31F8023B48BF11F8012B28BF81
:1006300020F8023B48BF00F8012B70474FF0000242
:100640000429C0F0128010F0030C00F01F80CCF1E0
:10065000040CBCF1020F18BF00F8012BA8BF20F852
:10066000022BA1EB0C0100F011B85FEAC17C24BFA2
:1006700000F8012B00F8012B48BF00F8012B704750
:10068000007B00F0800070474FF0000200B5134679
:1006900094469646203922BFA0E80C50A0E80C50A2
:1006A000B1F12001BFF4F7AF090728BFA0E80C5053
:1006B00048BF0CC05DF804EB890028BF40F8042B4C
:1006C00008BF704748BF20F8022B11F0804F18BFB9
:1006D00000F8012B7047754600F02CF8AE46050077
:1006E0006946534620F00700854618B020B5FFF74D
:1006F000CFFDBDE820404FF000064FF000074FF05F
:1007000000084FF0000B21F00701AC46ACE8C0092F
:10071000ACE8C009ACE8C009ACE8C0098D46704738
:1007200010B50446AFF300802046BDE81040FFF747
:100730004EBD000000487047C8540020FEE77047D7
:10074000F0B5CC78002204F00F03E40601D58C78D4
:1007500023430C784FF00F0C14F0FF0F4FF0010EF5
:100760001BD005680E880EFA02F42640A64210D16E
:1007700096000CFA06F725EA070703FA06F5CE7885
:100780003D43282E02D0482E02D002E0446100E012
:100790000461521C082AE5D305600A88FF2A1CD987
:1007A0004468002202F108060EFA06F50E882E4073
:1007B000AE420ED196000CFA06F7BC4303FA06F7D8
:1007C000CE783C43282E00D14561CE78482E00D10A
:1007D0000561521C082AE5D34460F0BD01617047F1
:1007E000FEE7000038B50121482000F061F8202420
:1007F000ADF8004010208DF8030003200B4D8DF85C
:10080000020069462846FFF79BFF20212846FFF794
:10081000E5FFADF80040064C69462046FFF790FF23
:1008200020212046FFF7DAFF38BD0000000C014010
:1008300000180140FEE7704730B50F23C2780178F9
:100840000125F2B1144A126801F1E02102F4E062DC
:10085000C2F5E062120AC2F10404D3404278A24019
:1008600084781C401443220181F80024007800F0B1
:100870001F018D404009800000F1E020C0F80051C8
:1008800030BD01F01F0085404809800000F1E020E4
:10089000C0F8805130BD00000CED00E00249084373
:1008A00002490860704700000000FA050CED00E006
:1008B000044A0029916901D0014300E0814391611C
:1008C000704700000010024030B5204A5168204BAC
:1008D00011F00C0103D0042901D0082901D00360D4
:1008E00012E05168536801F470114FF0020413F4E0
:1008F000803F04EB914102D053689B0301D5154B17
:1009000000E0134B5943016051680F2303EA1111B2
:10091000114B5C5C0168E14041605468072505EAC1
:1009200014241C5D21FA04F48460546805EAD4247C
:100930001B5DD940C1605268032303EA9232064B23
:100940001B1F9A5CB1FBF2F1016130BD0010024047
:1009500000127A0000093D002D0000200CB5002295
:10096000264800920192016841F4803101604FF401
:10097000A063016801F4003101910099491C0091C4
:10098000019911B900999942F3D10168890333D5CE
:10099000012101911A490A6842F010020A600A68AE
:1009A00022F003020A600A6842F002020A6041680B
:1009B000416041684160416841F480614160416843
:1009C00021F47C114160416841F4E8114160016803
:1009D00041F08071016001688901FCD5416821F016
:1009E00003014160416841F0020141604168C1F387
:1009F00081010229FAD10CBD01920CBD0010024008
:100A0000002002404FF0E0210428086903D020F0C4
:100A100004000861704740F00400FAE710B501F0E7
:100A2000DDFD012803D0BDE8104001F0CBBA10BDB8
:100A30000F4810B5016841F00101016041680D4A9D
:100A40001140416001680C4A11400160016821F4C5
:100A500080210160416821F4FE0141604FF41F01D3
:100A60008160FFF77BFF05494FF00060086010BD13
:100A7000001002400000FFF8FFFFF6FE08ED00E066
:100A800010B5084C0121204600F045F8012802D19C
:100A900005A0FFF711FC2046BDE81040012100F041
:100AA00037B800000008004054494D342052554EDC
:100AB0004E494E472E2E2E2E2E2E2E2E0D0A000083
:100AC00010B50C4C0121204600F025F801280AD170
:100AD000094805210078B0FBF1F201FB120010B9C2
:100AE00006A0FFF7E9FB2046BDE81040012100F019
:100AF0000FB80000000C004028000020D6DCC6DA49
:100B0000B6A8CAB1C6F7B9D8B1D50D0A0000000021
:100B1000C9430182704702460020138A92890B4222
:100B200002EA010202D0002A00D001207047000032
:100B300000240B4D03264FF4FA77641CE4B2B4FB97
:100B4000F6F006FB104010B906A0FFF7B5FBD5F88C
:100B50009401C043C5F89401384601F007F8ECE76A
:100B600000802142BFAAC6F4D6D8B8B4B6A8CAB18C
:100B7000C6F70D0A0000000070B5154C40F2255173
:100B8000204600F035F800280ED0204600F0BEF8D0
:100B9000104AC1B21088030406D444044FF0000385
:100BA00006D50A2901D0138070BD40F400400DE045
:100BB0000D2909D0C0F30D04074D401C80B2295502
:100BC0001080C728EFD870BD40F48040108070BD01
:100BD0000038014020000020B40000200029818955
:100BE00002D041F4005101E021F4005181817047AD
:100BF00070B501F01F0501260024C1F3421306FA67
:100C000005F2012B0FD0022B0FD0838A4FEA11215E
:100C10000088134206FA01F600EA060001D000B18E
:100C20000124204670BD8389F0E7038AEEE710B502
:100C3000C1F3421301F01F040121A140012B07D091
:100C4000022B07D01430002A026805D00A4304E0C2
:100C50000C30F8E71030F6E78A43026010BD000060
:100C600030B50446008A85B00D464CF6FF71084049
:100C7000E98801432182A0894EF6F3110840A98832
:100C80002A8911436A8902431143A181A08A4FF640
:100C9000FF410840A9890143A1826846FFF714FE7D
:100CA0001948844201D1039800E00298A1890904FF
:100CB00000EBC00101EB0010296801D5490000E0FC
:100CC0008900B0FBF1F06422B0FBF2F109010B09DD
:100CD0006FF018056B4300EB8300A3891D044FF0F0
:100CE000320306D503EBC000B0FBF2F000F00700C2
:100CF00005E003EB0010B0FBF2F000F00F0008433A
:100D0000208105B030BD0000003801408088C0F36C
:100D100008007047FEE7704710B50420FFF772FE29
:100D20000C480D490D4A0068B0FBF1F3B0FBF1F13E
:100D30004FF47A7041431370012050804FF0E0204F
:100D4000026942F0020202614161016941F0010160
:100D5000016110BD0800002040420F001C0000206F
:100D600004490A885206FCD5024AC1B2121D1180FC
:100D700070470000003801401CB54FF44070FFF789
:100D80008DFDFFF7C9FF4FF4165000F015FDFFF77A
:100D900029FD07490120CDE900010023802205A19A
:100DA000074801F0EFFB01F041F800201CBD0000F6
:100DB0000000002073746172745F7461736B0000D3
:100DC000791700082DE9F041184E0F460446F568E2
:100DD0003068001D00F040FD38B9306890F82C10E4
:100DE00001208840316981433161601C07D137B1EE
:100DF0003168BDE8F0410E48091D00F065BD30685E
:100E00002C44AC424460316805D2B06BBDE8F0417F
:100E1000091D00F041BD706B091D00F03DFDB06A79
:100E2000844200D2B462BDE8F0810000400000209E
:100E30008C0400202DE9F041054600F051FD2D4EB7
:100E4000B068401CB06030682B4F10B1706930B38F
:100E50002BE03560B068012827D1002404EB840022
:100E600007EB800000F00AFD641C202CF6D3234819
:100E700000F004FD2148143000F000FD1F48283028
:100E800000F0FCFC1D483C3000F0F8FC1B485030E2
:100E900000F0F4FC194870631430B06305E030686A
:100EA000E96AC06A884200D83560706A0121401C36
:100EB00070626864E86A326981401143316100EB15
:100EC000800007EB8000291D00F0FEFC00F044FDCF
:100ED000706900280CD03068E96AC06A884207D27D
:100EE00007494FF080500860BFF34F8FBFF36F8FFB
:100EF000BDE8F08140000020BC0100203C0400203F
:100F000004ED00E010B500F0EBFC0E4C2068A0B939
:100F10000D4800F0B3FC0C48143000F0AFFC0A4858
:100F2000E0601430206100221021052001F060F8FB
:100F3000206010B105A100F0E5FDBDE8104000F013
:100F40000BBD00007C000020A0040020546D7251F5
:100F50000000000070B5124E124D1CE000F0B0FF12
:100F6000306820B1002401F067FCA4B901E001243D
:100F7000F9E700F0B5FCF068C468201D00F06CFCD7
:100F8000A868401EA8606868401E686000F0E4FC25
:100F9000204600F052F868680028DFD170BD0000DC
:100FA000780400204000002030B4026C0B46002A78
:100FB0000BD0C1681144C1604468A14201D30168EB
:100FC000C16030BC1846FFF71DBA30BC70472DE930
:100FD000F041856B174604460026026C82B1C7B10A
:100FE000E068FFF70FFAE168206C091AE1602268F7
:100FF000914202D26168081AE060022F16D017E011
:101000002068A8B9606801F071FB064600206060A6
:101010000EE0A068FFF7F6F9216CA0680844A06014
:101020006168884204D32068A06001E005B16D1EAC
:101030006D1CA5633046BDE8F08110B50446006B19
:1010400000F0BCFC2046BDE8104000F0B7BC00003A
:1010500010484FF4A041420706D0C01D0D4920F0B2
:101060000700411AC1F5A0410B4A00230144C2E91F
:1010700000030839103A21F0070111604B600B6042
:101080000B1AC0E9001393604FF000405360D0602A
:1010900070470000C8040020A0000020074E4FF059
:1010A0008054074DFFF756FF30680128FAD92C60AD
:1010B000BFF34F8FBFF36F8FF4E70000BC01002038
:1010C00004ED00E02DE9F047DDE909840E461746FE
:1010D000824691009946089DA522206BFFF7D7F91B
:1010E0006FF00301206B01EB8701084420F0070734
:1010F000780705D040F22B3219A11EA0FFF7DCF8CB
:1011000000202218315C82F83410315C11B1401C8F
:101110001028F6D3002684F84360202D00D31F2525
:10112000E562C4E91356201D00F0B3FB04F118007A
:1011300000F0AFFB2461C5F120006462A061666528
:1011400084F858604A465146384600F003FB206058
:10115000B8F1000F01D0C8F80040BDE8F0870000EA
:101160002E2E5C4672656552544F535C7461736BEE
:10117000732E63004572726F723A25732C25640DCD
:101180000A00000030B5114900E011460A688242A9
:10119000FBD34B685C18844203D140681844486014
:1011A000084643681C18944209D1084C103C246836
:1011B000A24209D052681A4442600A68126802606A
:1011C000814200D0086030BD0460F9E7A000002033
:1011D00070B5002441600B4D0061914206D8D11AD0
:1011E0008269914206D2011D286907E09A4203D222
:1011F000994201D3012403E0011DE86800F04CFB93
:10120000204670BD7C00002010B5044600F068FB4D
:10121000A06B20B1002400F09FFB204610BD0124EC
:10122000F9E700002DE9F34100980F460026846C91
:101230002CB940F6CE1216A11AA0FFF73DF8A06B0C
:10124000E16B884205D340F6CF1211A115A0FFF73C
:1012500033F8A06BE16B88420CD294F945503A46C2
:1012600069462046FFF7B3FE0646681C05D06D1C94
:1012700084F845503046BDE8FC81606A0028F9D00A
:1012800004F1240001F08CFA0028F3D00126F1E7E4
:101290002E2E5C4672656552544F535C71756575B0
:1012A000652E63004572726F723A25732C25640DAA
:1012B0000A000000F8B5054614480E46C068C0682C
:1012C000C468201D00F0C8FAE069012817D1A069A0
:1012D0002B46411932462046FFF77AFF78B10020AD
:1012E0000346014600902A46204601F08BFB30B9A8
:1012F00007494FF4027201F11800FEF7DDFF616A41
:1013000001B02046BDE8F040084700007C00002006
:101310006829000870B586B02F4E53E00198002868
:1013200006DADDE90301029A90470198002849DBBB
:10133000039C606910B1201D00F08EFA05A800F032
:10134000A7F8054601980A283CD2DFE800F0050519
:10135000053B273805053B270298A1690346014450
:101360002A462046FFF734FF00282BD0616A20462A
:101370008847E069012825D1002000900298A169E2
:10138000002342181946204601F03CFBD0B940F238
:10139000213212A117A0FEF78FFF13E00298A0617F
:1013A00028B94FF44E720DA112A0FEF785FFA06977
:1013B0002B4641191A462046FFF70AFF02E0204655
:1013C00000F0FCFA00231A4601A9306800F04CFE38
:1013D0000028A3D106B070BD7C0000202E2E5C46F4
:1013E00072656552544F535C74696D6572732E63F8
:1013F000000000004572726F723A25732C25640D4F
:101400000A000000F8B50D46064600F059FD684692
:1014100000F03EF80446009810B101F00DFAF8BD56
:101420001148ADB101690968D9B10025311B2A46BF
:10143000006800F079FB01F0FFF90028EFD10B49BB
:101440004FF080500860BFF34F8FBFF36F8FF8BD30
:10145000A642EBD801F0F0F921463046FFF72AFF0B
:10146000F8BD0125E2E700007C00002004ED00E06B
:101470000648416B096829B1416BC968C968496868
:10148000816270474FF0FF31FAE700004000002012
:1014900070B5054601F0B0F8064E0446B0688442C7
:1014A00003D200F009F8012000E000202860204667
:1014B000B46070BD7C000020F8B5184E26E0C0680E
:1014C000C4680568201D00F0C7F9616A2046884796
:1014D000E06901281AD1A0692844A84206D92461EC
:1014E0006060211DF06800F0D7F90FE0002003468E
:1014F000014600902A46204601F084FA30B9084996
:1015000040F2923201F11800FEF7D6FEF068016851
:101510000029D4D13169C6E90310F8BD7C00002050
:101520006829000808484068401C04D0F42207A13C
:1015300011A0FEF7C1FE502080F31188BFF34F8F3A
:10154000BFF36F8FFEE70000A80000202E2E5C4640
:1015500072656552544F535C706F727461626C6552
:101560005C525644535C41524D5F434D335C706F47
:1015700072742E63000000004572726F723A257318
:101580002C25640D0A000000084CE068016839B1A0
:10159000002139B10020FFF735FFFFF7BBFEF4E76C
:1015A0000121F6E7C0680068F5E700007C00002034
:1015B0002DE9F041044600F093F994F9455004F107
:1015C000240610E0A06C20B100212046FFF72AFE7F
:1015D00004E0606A48B1304601F0E2F808B100F07A
:1015E00061FB6D1E6DB2002DECDC4FF0FF3684F810
:1015F000456000F0B1F900F073F994F9445004F13A
:10160000100709E0206948B1384601F0C9F808B16F
:1016100000F048FB6D1E6DB2002DF3DC84F84460D1
:10162000BDE8F04100F098B92DE9F04105460026EB
:1016300000F046FC324F386808B9FFF709FDF8683A
:1016400005424FD1002D4DD0083568070BD005F06D
:101650000700C0F108000544680704D0BF2229A193
:1016600032A0FEF729FE002D3CD07868854239D89B
:10167000234910310846046801E0214604466068A9
:10168000A84202D220680028F7D13868B8468442C0
:1016900028D00E682068086060680836401B102853
:1016A0000ED96719780704D0EC2216A11FA0FEF707
:1016B00003FE6068401B786038466560FFF762FD96
:1016C0006168D8F804004246401AC8F80400D8F807
:1016D0000830984200D29060D8F80C0001430020F6
:1016E000C4E9000101F0A8F8700705D04FF4967224
:1016F00004A10EA0FEF7E0FD3046BDE8F081000039
:10170000900000202E2E5C4672656552544F535C4B
:10171000706F727461626C655C4D656D4D616E6772
:101720005C686561705F342E630000004572726F03
:10173000723A25732C25640D0A00000004490868DC
:1017400018B10868026D521C0265086870470000F5
:101750004000002010B5031F4FF080741C601B1F59
:1017600021F001011960191F024B0B601439403838
:101770000A6010BD251500081CB500F0B1F8094934
:101780000220CDE900010023322207A1094800F020
:10179000F9FE0448001F006800F01EFABDE81C4076
:1017A00000F0DAB80400002054696D65735F74615D
:1017B000736B0000310B000870B5054686B001213F
:1017C00044F20400FFF774F84FF40070ADF8100015
:1017D00003248DF8124018201D4E8DF8130004A923
:1017E0003046FEF7ADFF3015ADF8100004208DF83F
:1017F000130004A93046FEF7A3FF25208DF814003E
:101800008DF815408DF8164001208DF8170005A8B9
:10181000FFF712F80020ADF80400ADF80600ADF8AF
:101820000800ADF80C000C200A4CADF80A00009539
:1018300069462046FFF714FA012240F2255120465E
:10184000FFF7F5F901212046FFF7C8F906B070BD92
:101850000008014000380140D0E9013201699A6076
:10186000D0E901235A604A68824201D182684A6005
:10187000002202610868401E0860704700F10801FC
:101880004FF0FF32C0E90112C16001610021016027
:10189000704700210161704730B50C68621C02D0AE
:1018A00000F1080202E0026904E01A4653681D686C
:1018B000A542FAD953684B6099608A60516008610B
:1018C0000168491C016030BD42684A6093688B60C2
:1018D00093685960916008610168491C0160704714
:1018E000502080F31188BFF34F8FBFF36F8F0949EA
:1018F0004868401C486001280AD10748006810F079
:10190000FF0F05D04FF4BD7204A10FA0FEF7D4BCA9
:1019100070470000A800002004ED00E02E2E5C4679
:1019200072656552544F535C706F727461626C657E
:101930005C525644535C41524D5F434D335C706F73
:1019400072742E63000000004572726F723A257344
:101950002C25640D0A00000010B5084C606828B9F9
:1019600040F2811206A111A0FEF7A6FC6068401E9D
:10197000606001D180F3118810BD0000A800002034
:101980002E2E5C4672656552544F535C706F7274B4
:1019900061626C655C525644535C41524D5F434DED
:1019A000335C706F72742E63000000004572726FBA
:1019B000723A25732C25640D0A00000070B50028CA
:1019C0002AD0164DA0F108046068E968084205D1E4
:1019D0004FF4A07212A11CA0FEF76EFC206828B183
:1019E00040F241120EA118A0FEF766FC6068E9689B
:1019F000084211D02268002A0ED18843606000F0AE
:101A00005FFA60686968084468602046FFF7BAFBBF
:101A1000BDE8704000F010BF70BD000090000020D5
:101A20002E2E5C4672656552544F535C706F727413
:101A300061626C655C4D656D4D616E675C6865618A
:101A4000705F342E630000004572726F723A257326
:101A50002C25640D0A00000006484FF47A710068D6
:101A6000B0FBF1F14FF0E020491E41610721016117
:101A7000704700000800002010B5FEF7F7FB104C7F
:101A800010280CD300F1E02090F8F0032178884270
:101A900005D24FF42A720BA115A0FEF70DFC1848D1
:101AA0000068A16800F4E060884207D9BDE81040F2
:101AB0004FF42E7203A10EA0FEF7FEBB10BD000076
:101AC000A80000202E2E5C4672656552544F535C70
:101AD000706F727461626C655C525644535C415223
:101AE0004D5F434D335C706F72742E6300000000D5
:101AF0004572726F723A25732C25640D0A0000003E
:101B00000CED00E010B5074B002253F832401CB139
:101B1000521C082AF9D310BD43F8321003EBC2015E
:101B2000486010BD7C01002070B515460E46044685
:101B3000FFF7D6FE94F944100020491C01D184F827
:101B4000440094F94510491C01D184F84500FFF781
:101B500003FFA06B28B92A46314604F1240000F0A7
:101B6000D1F82046BDE87040FFF722BD10B5040053
:101B700012D00E49096B29B140F2CF420CA111A03D
:101B8000FEF79AFB00F09CF900212046FFF71AF9B6
:101B900000F052FE002807D10E494FF08050086037
:101BA000BFF34F8FBFF36F8F10BD000040000020C8
:101BB0002E2E5C4672656552544F535C7461736B94
:101BC000732E63004572726F723A25732C25640D73
:101BD0000A00000004ED00E070B50446FFF780FE47
:101BE000234D04B92C68201DFFF736FE58B9E06A72
:101BF000204A00EB800152F8211021B901218140D7
:101C0000286988432861A06A18B104F11800FFF719
:101C100023FE686A401C68622868844207D1211D3F
:101C20001548FFF751FE6868401C686007E0A86827
:101C3000401EA8602046FFF700FAFFF719FCFFF7E7
:101C40008BFE6869002812D0286884420FD1286B67
:101C500028B140F2654209A10DA0FEF72DFB104905
:101C60004FF080500860BFF34F8FBFF36F8F70BD90
:101C700040000020BC010020780400202E2E5C468D
:101C800072656552544F535C7461736B732E6300BD
:101C90004572726F723A25732C25640D0A0000009C
:101CA00004ED00E001490120C861704740000020B8
:101CB00070B50D46040005D140F6063207A10CA010
:101CC000FEF7FAFA0E48016820461831FFF7E4FDE6
:101CD0002846BDE870400121FFF774B82E2E5C46FF
:101CE00072656552544F535C7461736B732E63005D
:101CF0004572726F723A25732C25640D0A0000003C
:101D00004000002070B514460E46050005D140F68F
:101D1000313209A10DA0FEF7CFFA1048016828461C
:101D20001831FFF7D1FD0CB14FF0FF362146304698
:101D3000BDE87040FFF746B82E2E5C4672656552CE
:101D4000544F535C7461736B732E63004572726FF2
:101D5000723A25732C25640D0A0000004000002013
:101D600070B5040039D01D4DE06A2968C96A8842FF
:101D700033D2A069002804DB2868C06AC0F12000C3
:101D8000A061E06A164E00EB8000616906EB8000FE
:101D900081421FD1201DFFF75FFD012150B9E06A8C
:101DA00000EB800256F8222022B92A6901FA00F0DD
:101DB00082432A612868C06AE0622A69814011432F
:101DC000296100EB800006EB8000211DBDE870401A
:101DD000FFF77ABD2868C06AE06270BD400000204D
:101DE000BC01002010B5040005D140F6C13205A1A8
:101DF00009A0FEF761FA0C48016A2160C0686060C2
:101E000010BD00002E2E5C4672656552544F535C27
:101E10007461736B732E63004572726F723A25732F
:101E20002C25640D0A000000400000201CB5174856
:101E30000024CDE900402346822215A1164800F077
:101E4000A1FB012803D100F0A3FD01280AD0401C0A
:101E50001BD102B040F28472BDE810400FA114A063
:101E6000FEF72ABA502080F31188BFF34F8FBFF3DB
:101E70006F8F06484FF0FF312C388162012141619C
:101E8000C460BDE81C4000F061B81CBD6C000020BF
:101E900049444C45000000009D1000082E2E5C4671
:101EA00072656552544F535C7461736B732E63009B
:101EB0004572726F723A25732C25640D0A0000007A
:101EC0000248016B491C016370470000400000207C
:101ED00070B5134D286B10B10120E86170BD002072
:101EE000E86128690F4EB0FA80F0C0F11F0000EBE6
:101EF000800456F8240028B940F6F6220AA10FA063
:101F0000FEF7DAF906EB840000F10802416849683F
:101F10004160914201D149684160C868286070BD44
:101F200040000020BC0100202E2E5C4672656552E8
:101F3000544F535C7461736B732E63004572726F00
:101F4000723A25732C25640D0A0000001CB51A494D
:101F500008780190FF20087008788DF800009DF83F
:101F60000000164A00F0500010700720906007E053
:101F70009068401E90609DF8000040008DF80000C1
:101F80009DF800000006F3D4107A000200F4E0602F
:101F90009060019808700A48016841F4700101607E
:101FA000016841F070410160FFF756FD002050606C
:101FB000FEF726F900201CBD00E400E0A800002088
:101FC00020ED00E010B5502080F31188BFF34F8F53
:101FD000BFF36F8F00F016FB18B104494FF080502B
:101FE0000860002080F3118810BD000004ED00E0BF
:101FF0002DE9F04117460E46050005D14FF4C47295
:1020000010A115A0FEF758F9BEB105FB06F054303B
:10201000FFF70AFB04000ED004F154007EB12060EB
:10202000C4E90F562046012100F0E0F884F8507012
:1020300000212046A164BDE8F0810020E7E724608C
:10204000EEE700002E2E5C4672656552544F535CDD
:1020500071756575652E63004572726F723A2573EE
:102060002C25640D0A0000002DE9FF4F83B09B462C
:102070008A4604004FF0000605D140F2DC4251A12F
:1020800055A0FEF719F9BAF1000F07D1206C28B15D
:1020900040F2DD424BA150A0FEF70EF900F09EFA8F
:1020A00038B9059828B14FF49C6246A14AA0FEF7C2
:1020B00003F94FF000094FF08057DFF82C81FFF74C
:1020C0000FFCA56B45B351462046E668FEF76CFF52
:1020D000BBF1000F13D0E660606A50B104F1240038
:1020E00000F05EFB28B1C8F80070BFF34F8FBFF35C
:1020F0006F8FFFF731FC012007B0BDE8F08F6D1E38
:10210000A563206810B9FFF719FB606020690028FB
:10211000EFD004F11000E3E7059808B11EB106E026
:10212000FFF71AFC27E06846FFF75CFE0126FFF781
:1021300013FCFFF7C5FEFFF7D3FB94F94400401CE6
:1021400001D184F8449094F94500401C01D184F8F1
:102150004590FFF701FC05A9684600F0CFF900287B
:1021600020460AD0FFF724FA00F066FB2046FFF76E
:102170004BF80028A3D00020BEE7FFF745F8D8B100
:10218000206830B9FFF7ACFB6068FFF7E9FDFFF7A7
:10219000E3FB04F124000599FFF78AFD2046FFF7D1
:1021A00007FA00F049FB002889D1C8F80070BFF396
:1021B0004F8FBFF36F8F82E72046FFF7F9F900F0EA
:1021C0003BFB7CE72E2E5C4672656552544F535C98
:1021D00071756575652E63004572726F723A25736D
:1021E0002C25640D0A00000004ED00E070B50D46DA
:1021F000040005D140F21B121CA121A0FEF75CF8DF
:10220000FFF76EFBD4E90F20216802FB001161602B
:102210000021A1632168A1600A46D4E90F01401E94
:1022200000FB0121E16021464FF0FF3001F8440F2F
:10223000487004F110004DB1FFF720FB04F12400B9
:10224000FFF71CFBFFF788FB012070BD2169002907
:10225000F8D000F0A5FA0028F4D00D494FF08050D6
:102260000860BFF34F8FBFF36F8FEBE72E2E5C46F6
:1022700072656552544F535C71756575652E6300C8
:102280004572726F723A25732C25640D0A000000A6
:1022900004ED00E02DE9FF4F83B099468B46040022
:1022A0004FF0000605D140F2D92252A156A0FEF708
:1022B00003F8BBF1000F07D1206C28B140F2DA22FD
:1022C0004CA151A0FDF7F8FFB9F1020F08D1E06B66
:1022D000012805D040F2DB2246A14BA0FDF7ECFF20
:1022E00000F07CF938B9059828B140F2DE2241A10E
:1022F00045A0FDF7E1FF4FF0000A4FF08057DFF8EF
:102300001881FFF7EDFAA06BE16B884206D3B9F1B3
:10231000020F03D0059800B316B325E04A4659468C
:102320002046FEF754FEA16C21B149462046FEF737
:1023300079FF05E0616A19B104F1240000F030FA78
:1023400028B1C8F80070BFF34F8FBFF36F8FFFF74E
:1023500003FB012007B0BDE8F08FFFF7FDFA21E095
:102360006846FFF73FFD0126FFF7F6FAFFF7A8FDE5
:10237000FFF7B6FA94F94400401C01D184F844A058
:1023800094F94500401C01D184F845A0FFF7E4FA18
:1023900005A9684600F0B2F830B12046FFF708F909
:1023A00000F04AFA0020D5E7FFF79AFAA06BE16B3C
:1023B000884201D1012500E00025FFF7CDFA95B153
:1023C00004F110000599FFF773FC2046FFF7F0F8C1
:1023D00000F032FA002894D1C8F80070BFF34F8F94
:1023E000BFF36F8F8DE72046FFF7E2F800F024FA85
:1023F00087E700002E2E5C4672656552544F535C91
:1024000071756575652E63004572726F723A25733A
:102410002C25640D0A00000004ED00E02DE9F047D2
:10242000984615468946040005D140F29F322AA1FC
:102430002EA0FDF741FFB9F1000F07D1206C28B1A4
:102440004FF4687224A129A0FDF736FFB8F1020FFE
:1024500008D1E06B012805D040F2A1321EA123A0D3
:10246000FDF72AFFFFF708FB5020EFF3118780F3F9
:102470001188BFF34F8FBFF36F8FA06BE16B884262
:1024800007D3B8F1020F04D0002087F31188BDE80C
:10249000F08794F94560424649462046FEF797FD8D
:1024A000701C04D0761C84F845600120EDE7A06C18
:1024B000012620B141462046FEF7B4FE06E0606AE0
:1024C0000028F2D004F1240000F06AF90028ECD0D2
:1024D000002DEAD02E60E8E72E2E5C46726565522C
:1024E000544F535C71756575652E63004572726F4C
:1024F000723A25732C25640D0A00000070B50D4654
:10250000040005D140F6CB3214A119A0FDF7D4FE8A
:102510002DB940F6CC3211A115A0FDF7CDFEFFF785
:10252000DFF9174AD06829684B1C0FD02368126A5C
:10253000934202D0626882420AD96268801A884255
:1025400006D2081A28602046FFF74CFC002400E061
:102550000124FFF701FA204670BD00002E2E5C46D4
:1025600072656552544F535C7461736B732E6300D4
:102570004572726F723A25732C25640D0A000000B3
:10258000400000202DE9FF5F8346DDE90E87994674
:1025900016468A469000FFF747F805001AD05C20DF
:1025A000FFF742F8040012D025630021CDE9024173
:1025B000CDE900874B46324651465846FEF782FD2C
:1025C0002046FEF737FC012004B0BDE8F09F284606
:1025D000FFF7F4F94FF0FF30F6E7000005484169D6
:1025E00019B1006B18B1002070470120704702201C
:1025F00070470000400000200148C068704700009C
:10260000400000202DE9F0412D4F0026386B40B1ED
:10261000B869401CB861F86900B101263046BDE8D0
:10262000F081FD686D1CFD6011D1786B006828B1E8
:1026300040F6D91223A128A0FDF73EFE786BB96BB6
:102640007963B863386A401C3862FEF711FFB86AD4
:10265000DFF89480854209D3786B006880B1786B8D
:10266000C068C468606885420DD2B8623868C06AC4
:1026700000EB800158F821000128CCD90126CAE7D7
:102680004FF0FF30F1E7201DFFF7E6F8A06A18B120
:1026900004F11800FFF7E0F8E06A01213A6981408F
:1026A0001143396100EB800108EB8100211DFFF728
:1026B0000BF9E06A3968C96A8842CDD30126CBE7B5
:1026C000400000202E2E5C4672656552544F535CCC
:1026D0007461736B732E63004572726F723A257367
:1026E0002C25640D0A000000BC01002070B5040018
:1026F0004FF000063CD01F4D2868844205D040F6BC
:10270000C7621DA121A0FDF7D7FD206D28B940F6B5
:10271000C96219A11DA0FDF7CFFD206D401E2065E7
:10272000E26CE16A914223D010BB201DFFF794F8C0
:102730001A49012250B9E06A00EB800351F82330B6
:1027400023B92B6902FA00F083432B61E06CE0624D
:10275000C0F12000A061E06A2B6982401A432A611F
:1027600000EB800001EB8000211DFFF7ADF8012692
:10277000304670BD400000202E2E5C4672656552CA
:10278000544F535C7461736B732E63004572726FA8
:10279000723A25732C25640D0A000000BC0100204C
:1027A0002DE9F041C068C4682CB940F6613216A129
:1027B0001AA0FDF781FD04F118000746FFF74CF859
:1027C0001A4D286B012660B139461948FFF77CF88D
:1027D000E06A2968C96A884213D90120EE61BDE820
:1027E000F081201DFFF738F8E06A2A6906FA00F147
:1027F000114329610F4900EB800001EB8000211D8E
:10280000E4E70020EBE700002E2E5C46726565527F
:10281000544F535C7461736B732E63004572726F17
:10282000723A25732C25640D0A0000004000002038
:1028300064040020BC0100202DE9F0472B4D00244A
:102840002746286B28B94FF4FD6229A12DA0FDF77A
:1028500033FDFFF745F8286B401E2863286BE8BB63
:10286000A8682C490126C8B3A1F52A798846D8F86A
:102870000010E9B1D8F80C00C46804F11800FEF7A4
:10288000EBFF201DFEF7E8FFE06A2A6906FA00F177
:102890001143296100EB800109EB8100211DFFF745
:1028A00013F8E06A2968C96A8842E0D3EE61DEE77E
:1028B0000CB1FEF7DDFDAC693CB1FFF7A3FE00B142
:1028C000EE61641EF9D10020A861E86930B11249B7
:1028D000012738070860BFF34F8F00E001E0BFF326
:1028E0006F8FFFF739F83846BDE8F08740000020C9
:1028F0002E2E5C4672656552544F535C7461736B47
:10290000732E63004572726F723A25732C25640D25
:102910000A0000006404002004ED00E02DE9F04707
:102920000746994616460D462C20DDF820A0FEF7F6
:102930007BFE040014D0B8464F46D1462DB94FF463
:10294000C67209A10EA0FDF7B7FCFEF7DBFA04F191
:102950001801C4F8008081E8E002201DFEF799FF0D
:102960002046BDE8F08700002E2E5C467265655259
:10297000544F535C74696D6572732E6300000000E0
:102980004572726F723A25732C25640D0A0000009F
:102990001CB50024FEF7B6FA0C48006868B10B4974
:1029A0001F20091DCDE9000100234FF4827208A108
:1029B0000948FFF7E7FD040005D140F2331207A1F3
:1029C0000CA0FDF779FC20461CBD00007C00002017
:1029D000546D722053766300891500082E2E5C46D4
:1029E00072656552544F535C74696D6572732E63E2
:1029F000000000004572726F723A25732C25640D39
:102A00000A0000002DE9FF47DDF830A09946904606
:102A10000D4606004FF0000705D14FF4D37212A106
:102A200017A0FDF749FC1A4C206880B1CDE9005889
:102A30000296062D11DAFFF7D1FD02284FF00003B0
:102A400009D0002269462068FFF724FC074604B03D
:102A50003846BDE8F0875246F4E700234A46694607
:102A6000FFF7DCFCF2E700002E2E5C467265655233
:102A7000544F535C74696D6572732E6300000000DF
:102A80004572726F723A25732C25640D0A0000009E
:102A90007C000020B42A000800000020B4000000E0
:102AA0006C010008682B0008B4000020745A000074
:102AB00088010008000000000000000000A24A0495
:102AC00000000000000000000102030406070809DE
:102AD00000000000000000000000000000020406EA
:102AE00008000000000102030401020304060708B5
:102AF00009000000000000000000000000000000CD
:102B000000000000000000000000000000000000C5
:102B100000000000000000000000000000000000B5
:102B200000000000000000000000000000000000A5
:102B30000000000000000000000000000000000095
:102B40000000000000000000000000000000000085
:102B50000000000000000000000000000000000075
:082B6000AAAAAAAA00000000C5
:040000050800027578
:00000001FF
