:020000040800F2
:10000000280400204501000849040008AD0200084A
:10001000450400088D010008870900080000000061
:10002000000000000000000000000000C9050008FA
:100030009101000800000000D1040008DD0600085E
:100040005F0100085F0100085F0100085F01000810
:100050005F0100085F0100085F0100085F01000800
:100060005F0100085F0100085F0100085F010008F0
:100070005F0100085F0100085F0100085F010008E0
:100080005F0100085F0100085F0100085F010008D0
:100090005F0100085F0100085F0100085F010008C0
:1000A0005F0100085F0100085F0100085F010008B0
:1000B0005F0100085F0100085F0100085F010008A0
:1000C0005F0100085F0100085F0100085F01000890
:1000D0005F0100087D0700085F0100085F0100085C
:1000E0005F0100085F0100085F0100085F01000870
:1000F0005F0100085F0100085F0100085F01000860
:100100005F0100085F0100085F0100085F0100084F
:100110005F0100085F0100085F0100085F0100083F
:100120005F0100085F0100085F0100085F0100082F
:10013000DFF80CD000F018F800480047050B000865
:10014000280400200648804706480047FEE7FEE7EF
:10015000FEE7FEE7FEE7FEE7FEE7FEE7FEE7FEE777
:100160001D07000831010008064C074D06E0E06855
:1001700040F0010394E8070098471034AC42F6D3EE
:10018000FFF7DAFF8C0B0008AC0B000800BFFEE79E
:1001900070472DE9F041024600250026002000238B
:1001A0000024002791F803C00CF00F0591F803C05C
:1001B0000CF0100CBCF1000F03D091F802C04CEA17
:1001C000050591F800C0BCF1000F31D01468002083
:1001D0002BE04FF0010C0CFA00F3B1F800C00CEA70
:1001E00003069E4220D183004FF00F0C0CFA03F758
:1001F000BC4305FA03FC4CEA040491F803C0BCF1CB
:10020000280F06D14FF0010C0CFA00FCC2F814C004
:100210000AE091F803C0BCF1480F05D14FF0010C82
:100220000CFA00FCC2F810C0401C0828D1D314609E
:10023000B1F800C0BCF1FF0F34DD546800202EE09F
:1002400000F1080C4FF0010808FA0CF3B1F800C0F7
:100250000CEA03069E4221D183004FF00F0C0CFAEA
:1002600003F7BC4305FA03FC4CEA040491F803C00D
:10027000BCF1280F05D100F1080C08FA0CF8C2F8FF
:10028000148091F803C0BCF1480F07D100F1080CAD
:100290004FF0010808FA0CF8C2F81080401C08283A
:1002A000CED35460BDE8F0810161704700BFFEE726
:1002B0004CF6CC4001490860704700000030004017
:1002C0004AF6AA200149086070470000003000404B
:1002D00001494860704700000030004001498860D3
:1002E000704700000030004001490860704700007E
:1002F0000030004070B505460C4645F25550FFF7FA
:10030000F3FF2846FFF7E4FF2046FFF7E7FFFFF77C
:10031000D7FFFFF7CDFF70BD10B504462248007827
:10032000012827D12148006801280AD02048006808
:1003300038B11F48001F006818B11D480838006810
:10034000C0B90A2000F0A6FB002017490870174822
:100350000068012800D110BD1548001F006808B9C9
:100360000220F8E712480838006808B90320F2E7CD
:100370000420F0E70D48006878B90D4800680128AE
:100380000BD10B48001F0068012806D10848083827
:100390000068012801D104490870012C02D1012014
:1003A000014908700020D6E7140000200001214216
:1003B0001001234208B50121442000F08BF82820C9
:1003C0008DF803000120ADF8000003208DF8020035
:1003D00069460848FFF7DDFE48208DF803001C2021
:1003E000ADF8000003208DF8020069460248FFF7CF
:1003F000D0FE08BD000801400018014008B52020CB
:10040000ADF8000010208DF8030003208DF80200E5
:100410000121482000F05EF869460848FFF7B9FE60
:1004200069460748FFF7B5FE20210548FFF73CFF66
:1004300020210248FFF738FF08BD0000000C0140F2
:100440000018014000BFFEE77047000070B50021B2
:1004500000230F22C47804B3154C246804F4E0642C
:10046000C4F5E064210AC1F10403CA40447804FAE7
:1004700003F184781440214309010E4C0678A155FC
:10048000047804F01F050124AC4005786D11AD001F
:1004900005F1E025C5F8004109E0047804F01F05E6
:1004A0000124AC40044D0678761145F8264070BD15
:1004B0000CED00E000E400E080E100E002490143CF
:1004C000024A1160704700000000FA050CED00E0E0
:1004D0007047000029B1064A92690243044B9A61B1
:1004E00004E0034A92698243014B9A61704700001D
:1004F0000010024030B500210022002400232D4DC1
:100500006D6805F00C0121B1042905D0082923D11B
:1005100005E0294D056022E0274D05601FE0254DCF
:100520006D6805F47012234D6D6805F48034022562
:1005300005EB92421CB9214D554305600BE01D4D62
:100540006D6805F400351DB11C4D5543056002E092
:10055000194D5543056002E0174D056000BF00BF0F
:10056000144D6D6805F0F0010909154D6B5C0568C7
:10057000DD4045600F4D6D6805F4E061090A104DDE
:100580006B5C4568DD4085600A4D6D6805F460511F
:10059000C90A0B4D6B5C4568DD40C560054D6D6853
:1005A00005F44041890B074D6B5CC568B5FBF3F55D
:1005B000056130BD0010024000127A0000093D00C4
:1005C0000000002010000020704710B500F002F875
:1005D00010BD00000CB50020019000903348006869
:1005E00040F480303149086000BF3048006800F4B2
:1005F000003000900198401C0190009818B90198B3
:10060000B0F5A06FF1D12948006800F4003010B1B6
:100610000120009001E0002000900098012843D1C3
:100620002348006840F0100021490860084600682F
:1006300020F0030008600846006840F002000860EF
:100640001A484068194948600846406848600846AA
:10065000406840F4806048600846406820F47C10A0
:1006600048600846406840F4E81048600846006862
:1006700040F08070086000BF0C48006800F0007017
:100680000028F9D00948406820F003000749486075
:100690000846406840F00200486000BF03484068D8
:1006A00000F00C000828F9D10CBD00000010024039
:1006B00000200240042808D14FF0E021096941F0F0
:1006C00004014FF0E022116107E04FF0E0210969D9
:1006D00021F004014FF0E0221161704770470000E3
:1006E00010B504466FF00400FFF7E4FFE11704EBD8
:1006F0005171C910074A11601046006800EB4001B3
:10070000C1EBC0104FF6FF7101EAC000024908803A
:1007100010BD0000180000201C00002010B5134878
:10072000006840F00100114908600846406810491F
:1007300008400E494860084600680E4908400B49C9
:1007400008600846006820F4802008600846406879
:1007500020F4FE0048604FF41F008860FFF735FF6B
:100760004FF000600449086010BD00000010024016
:100770000000FFF8FFFFF6FE08ED00E010B540F2C4
:1007800025510C4800F03AF8012812D1094800F030
:10079000F1F8C4B22146074800F0F1F800BF40214B
:1007A000044800F01EF80128F9D14021014800F06A
:1007B00003F810BD0038014001F40072B2F5007F6B
:1007C00000D100BFCA430280704721B1828942F440
:1007D0000052828104E082894DF6FF731A408281C3
:1007E000704702460020B1F5007F00D100BF13889A
:1007F0000B400BB1012000E00020704770B50246AD
:10080000002400230025002040F66A16B14200D1E2
:1008100000BFC1F3421501F01F03012606FA03F3DE
:10082000012D02D19689334006E0022D02D1168AAD
:10083000334001E0968A33400C12012606FA04F494
:100840001688344013B10CB1012000E0002070BDC7
:10085000F0B50346002400260025002040F66A1764
:10086000B94200D100BF1846C1F3421401F01F067F
:10087000012707FA06F5012C01D10C3004E0022C07
:1008800001D1103000E014301AB107682F4307601F
:1008900002E00768AF430760F0BD00002DE9F047B4
:1008A00086B005460E460024A24600BFA14600279A
:1008B000B08900B100BF2F462C8A4CF6FF7004406F
:1008C000F08804432C82AC894EF6F3100440B088C3
:1008D00031890843718908430443AC81AC8A4FF6DF
:1008E000FF400440B0890443AC8201A8FFF702FE38
:1008F0001F48874202D1DDF810A001E0DDF80CA00E
:10090000A88900F4004040B10AEBCA0000EB0A10CD
:1009100031684900B0FBF1F807E00AEBCA0000EBD0
:100920000A1031688900B0FBF1F86420B8FBF0F0E0
:1009300004012009642101FB1089A88900F400400A
:1009400040B1322000EBC900B0FBF1F000F007002D
:10095000044308E0322000EB09106421B0FBF1F001
:1009600000F00F0004432C8106B0BDE8F0870000C2
:100970000038014001468888C0F308007047C1F381
:1009800008028280704700BFFEE7000010B586B005
:10099000044601218803FFF79DFD01210420FFF794
:1009A00099FD4FF40070ADF8140003208DF8160087
:1009B00018208DF8170005A92048FFF7EAFB4FF42F
:1009C0008060ADF8140003208DF8160004208DF827
:1009D000170005A91948FFF7DCFB01940020ADF8CA
:1009E00010000C20ADF80E000020ADF80C00ADF8A2
:1009F0000A00ADF8080001A91148FFF74FFF2520B4
:100A00008DF8000001208DF8030003208DF801000F
:100A10008DF802006846FFF719FD01210848FFF72D
:100A2000D4FE40210648FFF7C7FE012240F22551BF
:100A30000348FFF70DFF06B010BD0000000801409D
:100A400000380140014A024900F013B8E10A0008E9
:100A50002000002002E008C8121F08C1002AFAD1B5
:100A600070477047002001E001C1121F002AFBD12E
:100A700070472DE9F04116460F460446002503E075
:100A80003946B047641C6D1C20780028F8D12846F0
:100A9000BDE8F0810146114A12884A434FF0E02335
:100AA0005A6100229A611A46126942F001021A61E3
:100AB00000BF4FF0E022106900F001021AB100F40B
:100AC0008032002AF5D04FF0E022126922F00102B4
:100AD0004FF0E0231A6100229A6170471C00002049
:100AE00070B504460D46E1B20548FFF748FF00BF68
:100AF00080210348FFF775FE0028F9D0204670BD1D
:100B0000003801404FF4A060FFF7D8FCFFF776FCF7
:100B10004820FFF7E5FD4FF41650FFF737FF4FF47D
:100B200048710420FFF7E6FBFFF744FC0FA0FFF736
:100B300089FF01201049086016E00020FFF7ECFB58
:100B4000032807D1FFF7BCFB00200B4908600BA06E
:100B5000FFF778FF0B480068C0430B49C1F89401C8
:100B60004FF4FA70FFF796FFE7E70000CFB5CDB37B
:100B7000D6D8C6F40D0A000094012342CEB9B9B705
:100B80000D0A00009481214200802142AC0B000834
:100B90000000002024000000540A0008D00B0008C8
:100BA0002400002004040000640A00080000000083
:100BB00001020304010203040607080902040608EF
:100BC0000100000000000000000000000000000024
:0400000508000131BD
:00000001FF
