:020000040800F2
:1000000060060020B1010008DD0300088B03000832
:10001000D90300086B020008510700080000000027
:1000200000000000000000000000000001060008C1
:100030006F02000800000000DF030008ED06000862
:10004000CB010008CB010008CB010008CB01000860
:10005000CB010008CB010008CB010008CB01000850
:10006000CB010008CB010008CB010008CB01000840
:10007000CB010008CB010008CB010008CB01000830
:10008000CB010008CB010008CB010008CB01000820
:10009000CB010008CB010008CB010008CB01000810
:1000A000CB010008CB010008CB010008CB01000800
:1000B000CB010008CB010008CB010008CB010008F0
:1000C000CB010008CB010008CB010008CB010008E0
:1000D000CB010008CB010008CB010008CB010008D0
:1000E000CB010008CB010008CB010008CB010008C0
:1000F000CB010008CB010008CB010008CB010008B0
:10010000CB010008CB010008CB010008CB0100089F
:10011000CB010008CB010008CB010008CB0100088F
:10012000CB010008CB010008CB010008CB0100087F
:1001300000F002F800F02CF80AA090E8000C8244CD
:100140008344AAF10107DA4501D100F021F8AFF2AA
:10015000090EBAE80F0013F0010F18BFFB1A43F0A5
:100160000103184748060000580600000023002439
:1001700000250026103A28BF78C1FBD8520728BFB7
:1001800030C148BF0B6070471FB51FBD10B510BD13
:1001900000F031F81146FFF7F7FF00F0E1FA00F048
:1001A0004FF803B4FFF7F2FF03BC00F057F800006C
:1001B0000948804709480047FEE7FEE7FEE7FEE7FB
:1001C000FEE7FEE7FEE7FEE7FEE7FEE70448054937
:1001D000054A064B70470000F1060008310100088F
:1001E0006000002060060020600200206002002005
:1001F000704770477047754600F02CF8AE46050012
:100200006946534620F00700854618B020B5FFF731
:10021000DDFFBDE820404FF000064FF000074FF033
:1002200000084FF0000B21F00701AC46ACE8C00914
:10023000ACE8C009ACE8C009ACE8C0098D4670471D
:1002400010B50446AFF300802046BDE81040FFF72C
:10025000A8BF000000487047000000200149182096
:10026000ABBEFEE726000200704700BFFEE7704706
:100270002DE9F0410246002500260020002300243D
:10028000002791F803C00CF00F0591F803C00CF0A3
:10029000100CBCF1000F03D091F802C04CEA050528
:1002A00091F800C0BCF1000F31D0146800202BE0A1
:1002B0004FF0010C0CFA00F3B1F800C00CEA030691
:1002C0009E4220D183004FF00F0C0CFA03F7BC4381
:1002D00005FA03FC4CEA040491F803C0BCF1280FB2
:1002E00006D14FF0010C0CFA00FCC2F814C00AE071
:1002F00091F803C0BCF1480F05D14FF0010C0CFA86
:1003000000FCC2F810C0401C0828D1D31460B1F81A
:1003100000C0BCF1FF0F34DD546800202EE000F176
:10032000080C4FF0010808FA0CF3B1F800C00CEA11
:1003300003069E4221D183004FF00F0C0CFA03F705
:10034000BC4305FA03FC4CEA040491F803C0BCF179
:10035000280F05D100F1080C08FA0CF8C2F8148037
:1003600091F803C0BCF1480F07D100F1080C4FF021
:10037000010808FA0CF8C2F81080401C0828CED3F7
:100380005460BDE8F0810161704700BFFEE70000E6
:1003900008B52020ADF8000010208DF803000320E0
:1003A0008DF802000121482000F01AF8694608483B
:1003B000FFF75EFF69460748FFF75AFF202105480F
:1003C000FFF7E1FF20210248FFF7DDFF08BD000035
:1003D000000C01400018014000BFFEE77047704765
:1003E00029B1064A92690243044B9A6104E0034A28
:1003F00092698243014B9A617047000000100240ED
:100400000F48006840F001000D4908600846406848
:100410000C4908400A494860084600680A490840F3
:10042000074908600846006820F4802008600846F4
:10043000406820F4FE0048604FF41F008860704759
:10044000001002400000FFF8FFFFF6FE10B5014665
:100450000022002300204A11012A02D1094C2368FE
:1004600006E0022A02D1074C236A01E0054C636AC8
:1004700001F01F02012494401C400CB1012000E057
:10048000002010BD001002400248406800F00C003F
:10049000704700000010024001460020034A5068E7
:1004A00020F0F00008435060704700000010024048
:1004B0001149096821F480310F4A11601146096819
:1004C00021F480211160B0F5803F03D0B0F5802F7A
:1004D0000ED106E00849096841F48031064A1160EE
:1004E00007E00549096841F4A021034A116000E0D2
:1004F00000BF00BF704700000010024070B5044606
:100500000D46FFF77DFF4FF48030FFF7D1FF00F07D
:100510005BF801281ED10020FFF7BEFF4FF480607A
:1005200000F01AF8002000F023F82946204600F0D9
:1005300031F8012000F028F800BF3920FFF786FFCE
:100540000028FAD0022000F033F800BFFFF79CFF2C
:100550000828FBD170BD000001460020034A506806
:1005600020F4E06008435060704700000010024033
:1005700001460020034A506820F4605040EAC10060
:100580005060704700100240014908667047000043
:100590000000424202460020044B586820F47C10C0
:1005A00042EA01031843014B5860704700100240B3
:1005B00001460020034A506820F0030008435060C1
:1005C000704700000010024038B500200090002461
:1005D000002500BF3120FFF739FF05460098401C79
:1005E00000900098B0F5A06F01D0002DF2D031201E
:1005F000FFF72CFF08B1012400E00024204638BD9D
:10060000704710B500F002F810BD00000CB50020D6
:10061000019000903348006840F480303149086010
:1006200000BF3048006800F4003000900198401C82
:100630000190009818B90198B0F5A06FF1D1294840
:10064000006800F4003010B10120009001E00020AB
:1006500000900098012843D12348006840F0100022
:10066000214908600846006820F003000860084639
:10067000006840F0020008601A4840681949486064
:100680000846406848600846406840F4806048601A
:100690000846406820F47C1048600846406840F4F2
:1006A000E81048600846006840F08070086000BFAD
:1006B0000C48006800F000700028F9D00948406834
:1006C00020F00300074948600846406840F00200F7
:1006D000486000BF0348406800F00C000828F9D1CA
:1006E0000CBD0000001002400020024070470000D6
:1006F00010B51348006840F0010011490860084631
:100700004068104908400E494860084600680E4994
:1007100008400B4908600846006820F48020086003
:100720000846406820F4FE0048604FF41F008860CF
:10073000FFF767FF4FF000600449086010BD00003C
:10074000001002400000FFF8FFFFF6FE08ED00E099
:1007500000BFFEE700BF011EA0F10100FBD1704702
:100760004FF4E0114FF48030FFF7C8FEFFF710FEA2
:1007700012E00A480068C0430949C1F894010948D9
:10078000FFF7E8FF0848D0F89401C0430649C1F8D4
:1007900094010448FFF7DEFFEBE70000948121425B
:1007A00000802142C027090000002342BC07000846
:0C07B00000000020600600006C01000842
:0400000508000131BD
:00000001FF
