:020000040800F2
:1000000020040020450100087D0C00082D0C00088C
:10001000790C0008BD090008DF110008000000008D
:10002000000000000000000000000000210E000899
:10003000BD0A000800000000F10C0008350F0008A0
:100040005F0100085F0100085F0100085F01000810
:100050005F0100085F0100085F0100085F01000800
:100060005F0100085F0100085F0100085F010008F0
:100070005F0100085F0100085F0100085F010008E0
:100080005F0100085F0100085F0100085F010008D0
:100090005F0100085F0100085F0100085F010008C0
:1000A0005F0100085F0100085F0100085F010008B0
:1000B0005F0100085F0100085F0100085F010008A0
:1000C0005F0100085F0100085F0100085F01000890
:1000D0005F010008D50F00085F0100085F010008FC
:1000E0005F0100085F0100085F0100085F01000870
:1000F0005F0100085F0100085F0100085F01000860
:100100005F0100085F0100085F0100085F0100084F
:100110005F0100085F0100085F0100085F0100083F
:100120005F0100085F0100085F0100085F0100082F
:10013000DFF80CD000F01EFB00480047011C00084F
:10014000200400200648804706480047FEE7FEE7F7
:10015000FEE7FEE7FEE7FEE7FEE7FEE7FEE7FEE777
:10016000750F0008310100082DE9FE4F804681EA35
:100170000300C00F0C46009021F0004123F0004521
:10018000B8EB0200A94105D24046214690461C46E4
:100190000B46024623F00040104347D0270DC7F31B
:1001A0000A00C3F30A510290401A019040286BDA0A
:1001B000C3F3130040F4801B0098924620B1002343
:1001C000D2EB030A63EB0B0B01985946C0F14002D6
:1001D000504600F0D9F906460D4650465946019A58
:1001E00000F0F1F910EB08006141002487EA115298
:1001F00084EAE7731A4340D0009A62B3019A012A55
:100200004FEA075215DC001B61EB02014FF0004280
:1002100002EA0752CDE90042001C41F58011324646
:100220002B4600F028FA03B0BDE8F08F4046214687
:10023000F9E7001B61EB0201001C41F58013001877
:100240005B412018A2F5001747EB030140EAD57087
:10025000B6196D4111E06D084FEA360645EAC075E2
:100260004FEA0752001B61EB0201001C41F58011AF
:1002700049084FEA30000019514132462B4603B07D
:10028000BDE8F04F00F0E8B90098012240000023DB
:10029000D0EB020263EBE073009821464FEAE07472
:1002A000B8EB000061EB0401E9E783F000435BE792
:1002B00081F0004158E72DE9FE4F81EA030404F084
:1002C000004421F0004100944FF0000B23F0004364
:1002D00050EA01045ED052EA03045BD0C3F30A542F
:1002E000C1F30A552C44A4F2F3340194A0FB025448
:1002F000C1F3130141F48011C3F3130343F48013DA
:1003000001FB024400FB034E840A970A44EA81542D
:1003100047EA8357A4FB076802958D0A05FB07850A
:100320004FEA932C04FB0C542705029D4FEA065814
:1003300047EA1637B5EB08056EEB070C870E920EF1
:1003400047EA811742EA8312A7FB0201B6EB0B01D1
:1003500064EB00042B0D43EA0C335E1844EB1C5095
:10036000DA465146E7FB0201C5F313044FEA0B33AB
:1003700043EA14534FEA0432019C43EA0603A4F112
:100380000C040294009CCDE900B400F074F903B0B1
:10039000BDE8F08F00200146F9E72DE9F04D81EA34
:1003A000030404F0004B21F0004514464FF0000A0E
:1003B00023F0004150EA050220D054EA01021DD08A
:1003C000C5F30A570246C5F31303C1F31300C1F383
:1003D0000A5640F4801543F48013A7EB0608101B5F
:1003E000D64608F2FD3873EB050002D308F1010888
:1003F00001E092185B41B8F1000F03DA00200146DA
:10040000BDE8F08D00204FF48011064684460EE0D2
:10041000171B73EB050705D3121B63EB050306439C
:100420004CEA010C49084FEA300092185B4150EA4F
:100430000107EDD152EA030012D082EA040083EAF8
:100440000501084305D0101BAB4106D20122002351
:1004500006E000224FF0004302E06FF0010253106B
:100460001AEB06004CEB085110EB0A0041EB0B01B4
:10047000BDE8F04D00F0F0B896230022114600F0E0
:10048000BDB80EB540F2334102910021CDE9001113
:100490000A460B4600F0EFF803B000BD00F0004242
:1004A00030F000400AD0C10D01F56071C0F31600B4
:1004B00042EA0151C208400711437047002001463B
:1004C000704701F0004330B421F0004150EA0102CE
:1004D00006D00A0DA2F56072C1F31301002A02DCF6
:1004E00030BC00207047440F44EAC104C100E0184A
:1004F00030BC00EBC25000F078B830B50B46014676
:1005000000202022012409E021FA02F59D4205D3B2
:1005100003FA02F5491B04FA02F52844151EA2F15C
:100520000102F1DC30BD2DE9F05F05460020924666
:100530009B4688460646814640241BE028464146A5
:100540004746224600F02FF853465A46C01A9141BA
:1005500010D311461846224600F016F82D1A67EB04
:1005600001084F4622460120002100F00DF817EB4C
:1005700000094E41201EA4F10104DFDC484631464B
:100580002A464346BDE8F09F202A04DB203A00FAC1
:1005900002F1002070479140C2F1200320FA03F3DA
:1005A000194390407047202A04DB203A21FA02F0D8
:1005B0000021704721FA02F3D040C2F1200291409D
:1005C000084319467047202A06DBCB17203A41FA28
:1005D00002F043EAE07306E041FA02F3D040C2F1D0
:1005E000200291400843194670470029A8BF704770
:1005F000401C490008BF20F00100704710B4B0FA59
:1006000080FC00FA0CF050EA010404BF10BC7047F3
:1006100049B1CCF1200421FA04F411FA0CF118BF0D
:10062000012121430843A3EB0C01CB1D4FEA0061DC
:100630004FEA102042BF002010BC704700EBC350AF
:1006400010440029A4BF10BC7047401C490008BFDB
:1006500020F0010010BC704710B5141E73F10004A7
:1006600008DA401C41F1000192185B411A4301D1A4
:1006700020F0010010BD2DE9F04D92469B4611B1CE
:10068000B1FA81F202E0B0FA80F220329046FFF730
:100690007BFF04460F4640EA0A0041EA0B0153463D
:1006A0005A46084313D0114653EA010019D0C8F145
:1006B00040025046FFF777FF05460E465046594622
:1006C0004246FFF761FF084305D0012004E02046C1
:1006D0003946BDE8F08D0020054346EAE0762C431C
:1006E00037430A986305E40AA0EB08000022FD0ADC
:1006F00044EA47540A3002D500200146E9E70105E3
:1007000010196941DDE9084500196941BDE8F04D5E
:10071000A2E7C1F30A52C1F3130140F2FF3341F4DF
:1007200080119A4202DA00200146704740F23343BA
:100730009A42A2F2334202DC5242FFF734BFFFF783
:1007400023BF000030B5041E71F1000404DB4FF03C
:100750000044404264EB0101141E73F1000405DB08
:100760001C464FF00043524263EB0403994208BF1A
:10077000904230BD064C074D06E0E06840F00103B2
:1007800094E8070098471034AC42F6D3FFF7D4FC46
:10079000381D0008581D000821B1826842F001028E
:1007A000826003E0826822F00102826070470146A5
:1007B00000208A6802F004020AB1012000E0002053
:1007C00070470146C86C80B270470246002013682B
:1007D0000B400BB1012000E00020704701460020D3
:1007E0008A6802F008020AB1012000E00020704788
:1007F00030B502460020002350680F4C20400D7990
:100800000C6844EA05242043506090680B4C20405B
:10081000D1E902542C434D7944EA450420439060C9
:10082000D06A20F470000C7C641EE4B2234340EADA
:100830000350D06230BD0000FFFEF0FFFDF7F1FF76
:10084000F0B504460D4600200021092D11DDE068B9
:10085000A5F10A0606EB4607072606FA07F18843C4
:10086000A5F10A0606EB460603FA06F10843E06026
:100870000CE0206905EB4507072606FA07F18843D7
:1008800005EB450603FA06F108432061072A0FDA53
:10089000606B561E06EB86071F2606FA07F1884393
:1008A000561E06EB860605FA06F10843606322E051
:1008B0000D2A0FDA206BD61F06EB86071F2606FAD5
:1008C00007F18843D61F06EB860605FA06F10843B2
:1008D000206310E0E06AA2F10D0606EB86071F26F2
:1008E00006FA07F18843A2F10D0606EB860605FA23
:1008F00006F10843E062F0BD816841F008018160C3
:10090000704721B1826842F4A002826003E08268ED
:1009100022F4A00282607047816841F00401816086
:100920007047000000B587B001214FF4017000F05E
:10093000FDF90220ADF8180000208DF81B000320FF
:100940008DF81A0006A91B4800F0B9F800208DF8B0
:10095000090004904FF460200390002001900120D2
:100960008DF8140000208DF8080001A91248FFF747
:100970003FFF4FF4004000F0BDF901210E48FFF7A2
:100980000BFF0D48FFF7B8FF00BF0B48FFF726FF2E
:100990000028FAD10848FFF7BFFF00BF0648FFF75D
:1009A00006FF0028FAD101210348FFF7AAFF07B08C
:1009B00000BD0000000801400024014000BFFEE728
:1009C00000B585B00121042000F0B0F901214807ED
:1009D00000F09CF91020ADF8100003208DF81200F3
:1009E00000208DF8130004A90B4800F068F80020DF
:1009F000029002200390002000900190694600F0D0
:100A000033F80021084600F049F80121002000F0E9
:100A100005F805B000BD00000008014039B1084AE2
:100A20001268012383401A43054B1A6006E0044A0A
:100A30001268012383409A43014B1A6070470000FB
:100A40000074004008B50146002000900548009061
:100A50002C2000EB9100009A104400900098006850
:100A600080B208BD0074004030B5002200230A4C5B
:100A7000226840F6FE748440A243D1E900452C432D
:100A80008D682C43CD6844EA050303FA00F4224341
:100A9000014C226030BD00000074004008B5002207
:100AA0000092054A009200F10802009B1A4400924D
:100AB000009A116008BD00000074004070472DE9E5
:100AC000F0410246002500260020002300240027D4
:100AD00091F803C00CF00F0591F803C00CF0100C56
:100AE000BCF1000F03D091F802C04CEA050591F863
:100AF00000C0BCF1000F31D0146800202BE04FF093
:100B0000010C0CFA00F3B1F800C00CEA03069E4297
:100B100020D183004FF00F0C0CFA03F7BC4305FA09
:100B200003FC4CEA040491F803C0BCF1280F06D181
:100B30004FF0010C0CFA00FCC2F814C00AE091F866
:100B400003C0BCF1480F05D14FF0010C0CFA00FCBA
:100B5000C2F810C0401C0828D1D31460B1F800C0FE
:100B6000BCF1FF0F34DD546800202EE000F1080CCA
:100B70004FF0010808FA0CF3B1F800C00CEA0306C4
:100B80009E4221D183004FF00F0C0CFA03F7BC43B7
:100B900005FA03FC4CEA040491F803C0BCF1280FE9
:100BA00005D100F1080C08FA0CF8C2F8148091F88D
:100BB00003C0BCF1480F07D100F1080C4FF0010849
:100BC00008FA0CF8C2F81080401C0828CED35460F4
:100BD000BDE8F081016170472DE9F04105460C4602
:100BE000002600270723012229460F48FFF728FE89
:100BF00013E001210C48FFF784FE00BF02210A48E0
:100C0000FFF7E3FD0028F9D00748FFF7DAFD0644B7
:100C1000052000F0BDFF781CC7B2A742E9DBB6FB98
:100C2000F4F080B2BDE8F0810024014000BFFEE78F
:100C300008B52020ADF8000010208DF80300032037
:100C40008DF802000121482000F070F8694608483C
:100C5000FFF735FF69460748FFF731FF20210548B8
:100C6000FFF7B8FF20210248FFF7B4FF08BD0000DE
:100C7000000C01400018014000BFFEE77047000073
:100C800070B5002100230F22C47804B3154C2468EA
:100C900004F4E064C4F5E064210AC1F10403CA402D
:100CA000447804FA03F184781440214309010E4C7E
:100CB0000678A155047804F01F050124AC4005789E
:100CC0006D11AD0005F1E025C5F8004109E004789B
:100CD00004F01F050124AC40044D0678761145F858
:100CE000264070BD0CED00E000E400E080E100E093
:100CF0007047000001460020034A506820F440403D
:100D000008435060704700000010024029B1064AB5
:100D1000D2690243044BDA6104E0034AD269824398
:100D2000014BDA61704700000010024029B1064A09
:100D300092690243044B9A6104E0034A9269824338
:100D4000014B9A61704700000010024030B500214D
:100D50000022002400232D4D6D6805F00C0121B107
:100D6000042905D0082923D105E0294D056022E09A
:100D7000274D05601FE0254D6D6805F47012234D69
:100D80006D6805F48034022505EB92421CB9214DB3
:100D9000554305600BE01D4D6D6805F400351DB130
:100DA0001C4D5543056002E0194D5543056002E0B6
:100DB000174D056000BF00BF144D6D6805F0F001D0
:100DC0000909154D6B5C0568DD4045600F4D6D6888
:100DD00005F4E061090A104D6B5C4568DD408560F3
:100DE0000A4D6D6805F46051C90A0B4D6B5C45688E
:100DF000DD40C560054D6D6805F44041890B074D28
:100E00006B5CC568B5FBF3F5056130BD00100240B1
:100E100000127A0000093D000000002010000020B0
:100E2000704710B500F002F810BD00000CB50020AE
:100E3000019000903348006840F4803031490860E8
:100E400000BF3048006800F4003000900198401C5A
:100E50000190009818B90198B0F5A06FF1D1294818
:100E6000006800F4003010B10120009001E0002083
:100E700000900098012843D12348006840F01000FA
:100E8000214908600846006820F003000860084611
:100E9000006840F0020008601A484068194948603C
:100EA0000846406848600846406840F480604860F2
:100EB0000846406820F47C1048600846406840F4CA
:100EC000E81048600846006840F08070086000BF85
:100ED0000C48006800F000700028F9D0094840680C
:100EE00020F00300074948600846406840F00200CF
:100EF000486000BF0348406800F00C000828F9D1A2
:100F00000CBD00000010024000200240042808D15F
:100F10004FF0E021096941F004014FF0E022116136
:100F200007E04FF0E021096921F004014FF0E022D1
:100F3000116170477047000010B504466FF004005F
:100F4000FFF7E4FFE11704EB5171C910074A116084
:100F50001046006800EB4001C1EBC0104FF6FF7176
:100F600001EAC0000249088010BD00001400002002
:100F70001800002010B51348006840F00100114926
:100F8000086008464068104908400E494860084615
:100F900000680E4908400B4908600846006820F4C4
:100FA000802008600846406820F4FE0048604FF446
:100FB0001F008860FFF735FF4FF0006004490860AC
:100FC00010BD0000001002400000FFF8FFFFF6FE19
:100FD00008ED00E010B540F225510C4800F03AF859
:100FE000012812D1094800F0F1F8C4B2214607489F
:100FF00000F0F1F800BF4021044800F01EF801287D
:10100000F9D14021014800F003F810BD003801403B
:1010100001F40072B2F5007F00D100BFCA43028024
:10102000704721B1828942F40052828104E08289B2
:101030004DF6FF731A408281704702460020B1F5D9
:10104000007F00D100BF13880B400BB1012000E0EE
:101050000020704770B502460024002300250020C0
:1010600040F66A16B14200D100BFC1F3421501F04B
:101070001F03012606FA03F3012D02D1968933409E
:1010800006E0022D02D1168A334001E0968A3340F1
:101090000C12012606FA04F41688344013B10CB180
:1010A000012000E0002070BDF0B5034600240026BA
:1010B0000025002040F66A17B94200D100BF18464B
:1010C000C1F3421401F01F06012707FA06F5012CAF
:1010D00001D10C3004E0022C01D1103000E01430BA
:1010E0001AB107682F43076002E00768AF43076043
:1010F000F0BD00002DE9F04786B005460E460024FD
:10110000A24600BFA1460027B08900B100BF2F460C
:101110002C8A4CF6FF700440F08804432C82AC8982
:101120004EF6F3100440B0883189084371890843B2
:101130000443AC81AC8A4FF6FF400440B0890443BD
:10114000AC8201A8FFF702FE1F48874202D1DDF8FA
:1011500010A001E0DDF80CA0A88900F4004040B127
:101160000AEBCA0000EB0A1031684900B0FBF1F845
:1011700007E00AEBCA0000EB0A1031688900B0FBF7
:10118000F1F86420B8FBF0F004012009642101FBB0
:101190001089A88900F4004040B1322000EBC9005A
:1011A000B0FBF1F000F00700044308E0322000EB50
:1011B00009106421B0FBF1F000F00F0004432C8112
:1011C00006B0BDE8F087000000380140014688887D
:1011D000C0F308007047C1F308028280704700BF67
:1011E000FEE7000010B586B0044601218803FFF732
:1011F0009DFD01210420FFF799FD4FF40070ADF82B
:10120000140003208DF8160018208DF8170005A98A
:101210002048FFF754FC4FF48060ADF81400032021
:101220008DF8160004208DF8170005A91948FFF75E
:1012300046FC01940020ADF810000C20ADF80E0023
:101240000020ADF80C00ADF80A00ADF8080001A9C7
:101250001148FFF74FFF25208DF8000001208DF881
:10126000030003208DF801008DF802006846FFF7A7
:1012700007FD01210848FFF7D4FE40210648FFF78B
:10128000C7FE012240F225510348FFF70DFF06B0CB
:1012900010BD000000080140003801400FB4054BAC
:1012A00010B503A9044A029800F0DAF810BC5DF802
:1012B00014FB0000DD1B00081C00002002E008C831
:1012C000121F08C1002AFAD170477047002001E0C0
:1012D00001C1121F002AFBD1704700002DE9FF5FFA
:1012E00082B00021DDE90430020DDDF840B0034397
:1012F00018D044F61050A2F2FF3242431514119850
:1013000001281FD0A5EB0B00401C5FEA000A4FF03C
:1013100000064E4FDFF83891B046504615D5CAF159
:10132000000413E0119801244AA3012801D16FEAB7
:101330000B010298119AC0E90031C0E9024206B0DF
:10134000BDE8F09FCBF10000DFE704460021404AF2
:10135000491842EB0450CDE9001012E0E00707D035
:1013600032463B4640464946FEF7A5FF8046894641
:1013700032463B4610461946FEF79DFF06460F468D
:101380006410002CEAD1DDE90401DDE90023BAF1A3
:10139000000F06DAFEF78FFF42464B46FEF78BFF43
:1013A00005E0FEF7FAFF42464B46FEF7F6FF04461D
:1013B0000E460022284BFFF7C5F903D84FF0FF3047
:1013C000014607E00022254B20463146FEF7CCFEC1
:1013D000FFF79FF9102409E0002C0ADB0A22002302
:1013E000FFF7A1F8039B30321A55641E50EA010240
:1013F000F2D1641C039AC4F111031444119A012A16
:1014000003D0012208430DD10AE0084304D0002094
:101410004FF0110B119072E7A3EB0B056D1E0DE061
:101420005B4504DD4FF0000205F1010504E003DA3D
:101430004FF00002A5F10105002AECD002981199A5
:10144000C0E90231C0E9004579E70000000014401E
:101450000000F03F300000000000F0430000E03FDB
:101460002DE9FF4F95B09B468946064600250FE2C1
:10147000252877D100242746F84A0121059400E069
:10148000044316F8013F203B01FA03F01042F7D164
:1014900030782A2811D06FF02F033078A0F1300275
:1014A000092A16D8059A44F0020402EB820203EBE3
:1014B00042021044761C0590EFE759F8042B059280
:1014C000002A03DA504244F40054059044F0020428
:1014D000761C30782E2816D116F8010F44F004043B
:1014E0002A280DD06FF02F023078A0F13003092B9D
:1014F00009D807EB870302EB4303C718761CF3E711
:1015000059F8047B761C30786C280FD006DC4C2808
:1015100017D068280DD06A2814D104E0742810D0A0
:101520007A280FD10DE044F400140AE044F480144A
:1015300001E044F440147278824202D104F5801430
:10154000761C761C307866280BD013DC582877D0B0
:1015500009DC002875D04528F6D04628F4D0472865
:101560001AD19DE118E0632835D0642879D0652828
:1015700012D195E1702873D008DC6728F1D0692872
:101580006FD06E280DD06F2806D1B5E073282CD00F
:10159000752875D0782874D05A46179990476D1CD5
:1015A00075E1C4F30250022809D003280DD0D9F800
:1015B000001004280DD00D6009F1040967E1D9F885
:1015C0000010EA17C1E90052F6E7D9F800100D80C3
:1015D000F2E70D70F0E719F8041B8DF800100020F9
:1015E0008DF80100EA46012003E059F804AB4FF002
:1015F000FF3061074FF0000102D40DE008F1010156
:101600008846B9420FDA8045F8DB1AF8081000293D
:10161000F4D108E008F1010188468142FADB1AF8AA
:1016200008100029F6D105985B46A0EB0807214673
:101630003846179A00F094FA284400EB080507E0B2
:101640004DE029E10DE01AF8010B5A461799904731
:10165000B8F10108F7D25B4621463846179A13E1E4
:1016600042E00A220092C4F302524FF0000A022A1A
:1016700008D059F804CB032A4FEAEC710AD00DE0E8
:1016800029E02AE009F1070121F00702F2E802C18E
:10169000914609E00FFA8CFC4FEAEC71042A03D161
:1016A0004FFA8CFC4FEAEC71002907DA0A46002158
:1016B000DCF1000C61EB02012D2202E0220504D5D1
:1016C0002B228DF80420012203E0E20701D0202222
:1016D000F7E7904659E00A2102E010220DE01021C0
:1016E0004FF0000A00910BE010224FF0000A44F086
:1016F00004040827009203E008224FF0000A009239
:10170000C4F30252022A05D059F804CB0021032A5F
:1017100008D009E009F1070121F00702F2E802C14F
:10172000914605E01FFA8CFC042A01D10CF0FF0C55
:101730004FF00008220728D5702806D0009B83F0C0
:10174000100353EA0A0305D00EE040228DF804206E
:10175000012208E05CEA010206D030228DF8042064
:101760008DF8050002229046009B83F0080353EA9F
:101770000A030AD15CEA010201D1620705D53022D1
:101780008DF804204FF001087F1E582804D034A0A3
:1017900003900EA802900DE036A0F9E7534660468C
:1017A000009AFEF7C0FE84460398825C0298401EB1
:1017B000029002705CEA0100F0D1029806A9081AB2
:1017C00000F1200A600702D524F4803400E00127EC
:1017D000574502DDA7EB0A0000E0002000EB0A01FC
:1017E000009005984144401A0590E00306D45B46FA
:1017F0002146179A059800F0B3F90544002706E042
:1018000001A85A46C05D179990476D1C7F1C47453B
:10181000F6DBE0030CD55B462146179A059800F0ED
:101820009FF9054404E030205A46179990476D1CF3
:101830000099481E00900029F5DC08E00298029902
:101840005A460078491C0291179990476D1CBAF1CD
:101850000001AAF1010AF1DC65E10000092801009C
:101860003031323334353637383961626364656616
:1018700000000000303132333435363738394142D8
:10188000434445460000000000F058F90544761C2A
:10189000307800287FF4ECAD19B02846BDE8F08F11
:1018A000620700D4062709F1070222F0070CFCE8C2
:1018B0000223E14603F000485FEA080C02D00FF271
:1018C000702C0DE05FEA045C02D50FF2682C07E093
:1018D0005FEAC47C02D00FF2602C01E0AFF2700C22
:1018E0004FF0FF3823F00043CDF850C065280CD0EE
:1018F00006DC452809D046281DD047283DD13DE0CB
:10190000662818D067287ED138E00021112F01DB2E
:10191000112000E0781CCDE9000106A90EA8FFF710
:10192000DDFCDDE90F010E9A03910021009207F121
:10193000010A04914DE04FF000400097CDE90110FD
:1019400006A90EA8FFF7CAFCDDE90F0203920E9B61
:1019500011990022DDF80CA00093049211B9791CB2
:1019600000EB010AB7EB0A0004D4C0F1FF3007F125
:10197000010A0490AAEB0700019044E0012F00DA6D
:1019800001270021112F01DD112000E03846CDE9AB
:10199000000106A90EA8FFF7A1FCDDE90F010E9AD0
:1019A0000391002104910092BA4621070CD40399B7
:1019B000514500DA8A46BAF1010F05DD009AAAF115
:1019C0000101515C302908D0B84202DA10F1040F4D
:1019D00006DA0121CDE9011015E0AAF10101E9E7DC
:1019E000002805DC049901440491AAEB000102E0FF
:1019F000411C514500DD8A460499401A401C019063
:101A00004FF000400290200704D40198504501DBBC
:101A1000CDF8048000208DF84F0002980DF14F079B
:101A2000B0F1004F25D02B200E9002984FF0020805
:101A300000280CDA404202902D200E9007E00A2187
:101A40000298FEF75AFD3031029007F8011DB8F1F7
:101A50000001A8F10108F2DC02980028EFD1791EFC
:101A60000E980870307800F0200040F0450007F82C
:101A7000020D12A8C01B00F107081498007800B1ED
:101A8000012000EB0A01019801EBE0710598414447
:101A9000401A401E0590E00306D45B462146179A83
:101AA000059800F05DF805441498007818B15A467E
:101AB000179990476D1CE00324D55B462146179A81
:101AC000059800F04DF805441CE00498002807DB59
:101AD000DDE90301884203DD0098405C179901E0CD
:101AE000179930205A469047049805F10105401C8B
:101AF00004900198401E019004D12E205A46179957
:101B000090476D1CBAF10001AAF1010ADDDC05E085
:101B100017F8010B5A46179990476D1CB8F1000150
:101B2000A8F10108F4DC5B462146179A0598ABE65C
:101B30002D0000002B000000200000002DE9F041E6
:101B4000044600251E461746880404D405E039469D
:101B50002020B0476D1C641EF9D52846BDE8F081F1
:101B60002DE9F041044600251E469046C80301D5E4
:101B7000302700E02027880404D505E04146384698
:101B8000B0476D1C641EF9D52846BDE8F081000001
:101B90000146114A12884A434FF0E0235A6100225D
:101BA0009A611A46126942F001021A6100BF4FF0B1
:101BB000E022106900F001021AB100F48032002A1C
:101BC000F5D04FF0E022126922F001024FF0E0233D
:101BD0001A6100229A6170471800002070B504460F
:101BE0000D46E1B20548FFF7F6FA00BF8021034831
:101BF000FFF723FA0028F9D0204670BD00380140D5
:101C000008B50024A146A246A346FFF711F84FF4F9
:101C10001650FFF7E7FA4820FFF78EF9FEF7D0FEDF
:101C2000FEF780FE32A0FFF739FB60E0601CC4B213
:101C3000142094FBF0F100FB114038B92F480068E4
:101C400008B9012000E000202C490860642094FBC2
:101C5000F0F100FB1140002846D109F1C8001FFA3D
:101C600080F940F6FE70814501DD4FF000094946DC
:101C70000020FEF713FF00240020FEF7E3FE82465B
:101C80005046FEF7F9FB0090FEF708FC07464FF0C0
:101C900066321B4BFEF70FFB0546FEF712FC834630
:101CA0005846FEF7FBFB05462A460B4615A0FFF7F4
:101CB000F5FA0A210120FEF78FFF82465046FEF713
:101CC000E0FB07464FF066320D4BFEF7F4FA05468F
:101CD000FEF7F7FB83465846FEF7E0FB05462A462B
:101CE0000B460FA0FFF7DAFA0A20FFF751FF9DE736
:101CF000CFB5CDB3C6F4B6AF000000009481214249
:101D000066664A3FCAE4B3F6444143B5E7D1B9D663
:101D1000B5CEAAA3BA252E3266560D0A00000000E1
:101D2000CAE4C8EBB5E7D1B9D6B5CEAAA3BA252E79
:101D30003266560D0A000000581D00080000002001
:101D400020000000BC120008781D000820000020C0
:101D500000040000CC12000800000000010203048F
:101D60000102030406070809020406080000000037
:081D700000000000000000006B
:0400000508000131BD
:00000001FF
