:020000040800F2
:10000000B0320020CD010008A5070008E106000875
:100010002D070008650300081D4F000800000000C0
:10002000000000000000000000000000154D000866
:10003000C505000800000000F3020008E501000803
:10004000E7010008E7010008E7010008E7010008F0
:10005000E7010008E7010008E7010008E7010008E0
:10006000E7010008E7010008E7010008E7010008D0
:10007000E7010008E7010008E7010008E7010008C0
:10008000E7010008E7010008E7010008E7010008B0
:10009000E7010008E7010008E7010008E7010008A0
:1000A000E7010008E7010008E7010008E701000890
:1000B000E7010008E7010008C54E0008E701000855
:1000C000E7010008E7010008E7010008E701000870
:1000D000E7010008E7010008E7010008E701000860
:1000E000E7010008E7010008E7010008E701000850
:1000F000E7010008E7010008E7010008E701000840
:10010000E7010008E7010008E7010008E70100082F
:10011000E7010008E7010008E7010008E70100081F
:10012000E7010008E7010008E7010008E70100080F
:1001300000F002F800F03AF80AA090E8000C8244BF
:100140008344AAF10107DA4501D100F02FF8AFF29C
:10015000090EBAE80F0013F0010F18BFFB1A43F0A5
:10016000010318478C560000AC560000103A24BF1B
:1001700078C878C1FAD8520724BF30C830C144BF0C
:1001800004680C607047000000230024002500264E
:10019000103A28BF78C1FBD8520728BF30C148BFEA
:1001A0000B6070471FB51FBD10B510BD00F04BF8B8
:1001B0001146FFF7F7FF04F07FFF00F069F803B482
:1001C000FFF7F2FF03BC00F071F800000948804718
:1001D00009480047FEE7FEE7FEE7FEE7FEE7FEE729
:1001E000FEE7FEE7FEE7FEE704480549054A064B41
:1001F00070470000654E000831010008B02C002057
:10020000B0320020B02E0020B02E002072B6704711
:1002100062B67047EFF3108072B6704780F31088B3
:10022000704730BF704720BF7047B0FA80F070470A
:1002300090FAA0F0B0FA80F0704790FAA0F0704702
:10024000704770477047754600F02CF8AE460500C1
:100250006946534620F00700854618B020B5FFF7E1
:10026000C3FFBDE820404FF000064FF000074FF0FD
:1002700000084FF0000B21F00701AC46ACE8C009C4
:10028000ACE8C009ACE8C009ACE8C0098D467047CD
:1002900010B50446AFF300802046BDE81040FFF7DC
:1002A0008EBF0000004870474C2C002001491820E8
:1002B000ABBEFEE726000200704700001D484FF667
:1002C000FF710170002080F309881B48016881F3E9
:1002D00008881A484FF08051016062B6FEE717485F
:1002E0004FF080510160704714484FF08051016019
:1002F000704772B6EFF3098028B1203880E8F00F1C
:100300000F490968086000B50E4880475DF804EBA6
:100310000D480E490A78027009480D490A680260C2
:10032000106890E8F00F203080F309884EF0040E3A
:1003300062B6704722ED00E01001002004ED00E0FD
:10034000080100206D18000896000020970000208A
:100350000C01002000B585B0684604F071FC0198DE
:1003600005B000BD00BFFEE710B500F0FBF800F0DF
:1003700003F800F0F3F810BD70B50026002018490E
:100380000880184908801849086018490860184909
:1003900008601849086018490860002400BFFFF78A
:1003A00039FF064600BF00250BE000201049086019
:1003B00000F074F800F08CF80D4800680444681CE4
:1003C00085B2002DF1D00C48046000200849086077
:1003D0000849086000BF3046FFF720FF00BF70BD2E
:1003E0002400002026000020280000202C000020EF
:1003F000340000203800002030000020014608466C
:10040000044A1268904203D9024A1268801A00E036
:10041000002070473000002070B5002500BFFFF7B6
:10042000F9FE054600BF0648046800BF2846FFF7EE
:10043000F5FE00BF2046FFF7E1FF0646304670BDDF
:100440003400002070B50025FFF7E6FF044600BF2A
:10045000FFF7E0FE054600BF00200449086000BF2A
:100460002846FFF7DBFE00BF204670BD34000020A9
:1004700070B5002500BFFFF7CDFE054600BF06485A
:10048000046800BF2846FFF7C9FE00BF2046FFF7FB
:10049000B5FF0646304670BD3800002010B509484B
:1004A0000088401C074908800748008818B900F0F8
:1004B00083F80649086004480088401C0249088007
:1004C00010BD00002400002026000020280000208D
:1004D00010B50F480088401E0D4908800846008866
:1004E000A0B900F069F80B490860084600680A499D
:1004F0000968441A09480068A04201D2074804600C
:1005000007480068A04201D20548046010BD000001
:10051000260000202C0000202800002034000020AD
:100520003800002010B5002400BF00BFFFF772FEA6
:10053000044600BFFFF7B2FF00BF1021064800F0DD
:10054000F7F800BFFFF7C4FF00BF2046FFF766FEC5
:1005500000BF00BF10BD00003812002010B5FFF72B
:10056000E1FF10BD10B500200249086000F00AF854
:1005700010BD000020000020014908607047000005
:100580002000002010B5FFF7E5FE0446084800688B
:1005900040F080700649086000200649486008461F
:1005A000006840F0010008602046FFF7E5FF10BD3D
:1005B000FCED00E0001000E00149486870470000D1
:1005C000001000E070472DE9F041024600250026AA
:1005D000002000230024002791F803C00CF00F0531
:1005E00091F803C00CF0100CBCF1000F03D091F88F
:1005F00002C04CEA050591F800C0BCF1000F31D0F3
:10060000146800202BE04FF0010C0CFA00F3B1F855
:1006100000C00CEA03069E4220D183004FF00F0C6D
:100620000CFA03F7BC4305FA03FC4CEA040491F806
:1006300003C0BCF1280F06D14FF0010C0CFA00FCEE
:10064000C2F814C00AE091F803C0BCF1480F05D10C
:100650004FF0010C0CFA00FCC2F810C0401C082836
:10066000D1D31460B1F800C0BCF1FF0F34DD546881
:1006700000202EE000F1080C4FF0010808FA0CF3FE
:10068000B1F800C00CEA03069E4221D183004FF06E
:100690000F0C0CFA03F7BC4305FA03FC4CEA040404
:1006A00091F803C0BCF1280F05D100F1080C08FA3D
:1006B0000CF8C2F8148091F803C0BCF1480F07D1C0
:1006C00000F1080C4FF0010808FA0CF8C2F810808D
:1006D000401C0828CED35460BDE8F081016170470A
:1006E00000BFFEE708B52020ADF8000010208DF80F
:1006F000030003208DF802000121482004F090FA45
:1007000069460848FFF75FFF69460748FFF75BFF48
:1007100020210548FFF7E2FF20210248FFF7DEFF16
:1007200008BD0000000C01400018014000BFFEE7BA
:1007300030B505460C4622460021284600F001F857
:1007400030BD2DE9F04103460C4617460FB9BDE810
:10075000F08103B9FBE70025002202E02D022543CA
:10076000521C042AFAD3384603F0030C1946BCF194
:10077000000F08D0624603E001F8014B401E521CF6
:1007800008B1042AF8D30E4601E020C6001F042851
:10079000FBD2314602E001F8014B401E0028FAD19D
:1007A00000BFD4E77047000002490143024A1160CC
:1007B000704700000000FA050CED00E070470000F3
:1007C00010B50348006810B101480068804710BDAB
:1007D0004C00002070B5044600F0C2F800204849E3
:1007E00008704849087048490870484908604849F5
:1007F00008604849087048490870484908704849E5
:1008000008604849086048490860484908704848F5
:1008100000680A21B0FBF1F04649086046480068CC
:1008200058B14648056845B14348066803E0761E5E
:10083000002028602D1D002EF9D1002040490860BD
:1008400040490860404908604049086040490860E4
:1008500040490860404908604049087002F090F93A
:1008600002F08EFA204601F0EBFA208800B170BD4C
:10087000204601F005FF208800B1F8E7204601F08E
:100880000BFF208800B1F2E7204601F0EFFF20883F
:1008900000B1ECE7204602F0A3F9208800B1E6E7BA
:1008A000204602F0F3FB208800B1E0E7204602F08A
:1008B0005DFF208800B1DAE7204601F04DFE208878
:1008C00000B1D4E7204601F057FC208800B1CEE704
:1008D000204603F0B3FF208800B1C8E7204602F0AD
:1008E00089FE208800B1C2E7204604F003F8208882
:1008F00000B1BCE701F0CAF9FFF760FF00BFB6E73F
:100900006000002068000020B000002008010020E6
:100910000C01002096000020970000209800002085
:10092000A4000020A8000020AC000020B800002097
:1009300040560008B4000020105600080C5600086D
:100940004000002044000020480000204C0000200F
:10095000500000205400002058000020E600002035
:100960000A4A1168002002E0002204C1401C084A23
:1009700012689042F8D3054A1268054B1B6802EBD7
:100980008302121F034B1A60704700000C560008C8
:10099000105600081001002010B5002420480078EF
:1009A000002800DD10BD1F480078002800DDF9E7B1
:1009B00000BFFFF72FFC044600BF02F0CDF81A4934
:1009C00008700846007800EB4000184951F82000F4
:1009D000174908600846006816490968884205D129
:1009E00000BF2046FFF71AFC00BFDBE71048006895
:1009F000D0F89000401C0E490968C1F890000E48DC
:100A00000068401C0C4908604FF080500B4908609A
:100A100000BF2046FFF702FC00BF00BFC2E7000096
:100A200060000020B0000020970000207428002003
:100A30000C01002008010020DC00002004ED00E093
:100A400070B5044600251A480078002803DD46F6F4
:100A50006250208070BD17480078012803D045F609
:100A600089602080F6E714480078FA2803DB45F215
:100A700009202080EEE700BF00BFFFF7CBFB054653
:100A800000BFFFF70BFD00BF0B480078401C0A4970
:100A9000087002F059FA00BFFFF71AFD00BF2846A0
:100AA000FFF7BCFB00BF00BF0020208000BFD1E7E4
:100AB0006000002068000020B00000202DE9F04117
:100AC00005460C461646002700BF00BFFFF7A2FBF5
:100AD000074600BFFFF7E2FC00BF012D03D0002056
:100AE0000E49087002E001200C49087014B10C484E
:100AF000046006E00B4800680A21B0FBF1F00849E9
:100B0000086000BFFFF7E4FC00BF3846FFF786FB34
:100B100000BF00BF00203080BDE8F081B800002099
:100B2000B40000204056000870B504460025234854
:100B30000078002803DD46F66550208070BD20480F
:100B40000078012803D045F689602080F6E71D482B
:100B5000007818B946F664502080EFE700BF00BF68
:100B6000FFF758FB054600BFFFF798FC00BF15488C
:100B70000078401E134908700846007800280CDDF4
:100B800000BFFFF7A5FC00BF2846FFF747FB00BFEB
:100B900000BF46F663502080D0E702F0E3F900BFC3
:100BA000FFF796FC00BF2846FFF738FB00BF00BFE9
:100BB000FFF7F2FE0020208000BFBFE760000020AA
:100BC00068000020B000002010B5044612480078EC
:100BD000E8B901F0C1FF11490870084600781049D2
:100BE00008700E48007800EB40000E4951F82000D4
:100BF0000D490860084600680C4908600120064954
:100C00000870FFF75BFB43F69920208002E045F671
:100C10008A60208010BD000068000020970000203E
:100C200096000020742800200C01002008010020FC
:100C30002DE9F04107464FF0000800BF00BFFFF765
:100C4000E9FA804600BFFFF729FC00BF00204749B2
:100C50000860474908804749088047490860474974
:100C600008604749086047490860474908604749A4
:100C7000088100BFFFF72CFC00BF4046FFF7CEFA0B
:100C800000BF00BF00BF00BFFFF7C4FA804600BF2F
:100C9000FFF704FC00BF3E48046800BFFFF718FCE4
:100CA00000BF4046FFF7BAFA00BF00BF26E000BF12
:100CB00000BFFFF7AFFA804600BFFFF7EFFB00BFB2
:100CC00000207834E063206420602063A061A0826B
:100CD000E0826062A062FFF76FFC2062783C04F162
:100CE00064060020B081D4F8C04000BFFFF7F0FBDD
:100CF00000BF4046FFF792FA00BF00BF002CD6D1DC
:100D000000BF00BFFFF786FA804600BFFFF7C6FBB3
:100D100000BF2048056800BFFFF7DAFB00BF404670
:100D2000FFF77CFA00BF00BF16E000BF00BFFFF76F
:100D300071FA804600BFFFF7B1FB00BF05F1200646
:100D40000020B081AD6900BFFFF7C2FB00BF404685
:100D5000FFF764FA00BF00BF002DE6D103F036FCB8
:100D600003F0C4FE00203880BDE8F0817C00002044
:100D700076000020C6000020D8000020EC000020F3
:100D8000F800002064000020A8000020682800204F
:100D9000E00000209C000020F8B5044600266946CB
:100DA000364800F033FDBDF8000018B1BDF8000072
:100DB0002080F8BD6A460021022000F0A9FDBDF8A0
:100DC000000018B1BDF800002080F2E700BF00BFAE
:100DD000FFF720FA064600BFFFF760FB00BF0020C8
:100DE0002749086000BFFFF773FB00BF3046FFF7DD
:100DF00015FA00BF00BF0025224800682249096893
:100E0000884205D91F4800681F490968B0FBF1F501
:100E100025B91C4800680A21B0FBF1F56A4600219B
:100E2000284600F075FD6946144800F0A5FABDF8A3
:100E3000000018B1BDF800002080BAE700BF00BF75
:100E4000FFF7E8F9064600BFFFF728FB00BF0020C8
:100E50000E4908600A4800680D49086001200D49E4
:100E6000087000BFFFF734FB00BF3046FFF7D6F92C
:100E700000BF00BF0020208000BF9AE7842B002025
:100E8000C80000204056000828560008D80000205E
:100E9000CC000020D400002010B50348006810B139
:100EA00001480068804710BD500000202DE9FF4F29
:100EB00087B004469046DDE91BA5DDE91496179F2F
:100EC0000020039095480078002805DD47F24A107D
:100ED00028800BB0BDE8F08F1CB947F2AD10288018
:100EE000F7E7B8F1000F03D147F24F102880F0E781
:100EF0001EB946F62F602880EBE7894800688742D4
:100F000003D246F630602880E3E71698B84203D350
:100F100046F631602880DCE7B9F1200F03D346F2B2
:100F200073202880D5E7B9F1000F06D17D488442AF
:100F300003D046F273202880CBE7B9F11F0F06D10A
:100F40007948844203D046F273202880C1E72046C6
:100F500002F01CFC002028800AF0010090B10AF089
:100F6000020078B105960020069008E0002105985F
:100F700001600598001D05900698401C0690069893
:100F8000B842F3D3169806EB80000490CDE9007ABE
:100F900032464046049B0A9900F0D8FB0590C4F8FD
:100FA00028800A98E0620898206284F837900598B3
:100FB00020600498A06019986065199818B95B487A
:100FC0000068A06501E01998A0651A9860606662E3
:100FD000A763A4F83CA04FF0000B08E0002104F147
:100FE0007C0040F82B100BF1010000F0FF0BBBF16F
:100FF000000FF3D004F16400189901F0ADFB204616
:1010000000F09EF800BF00BF00BFFFF703F9039098
:1010100000BFFFF743FA00BF45480078401C444931
:10102000087008460078012801D101F08DFF00BF4B
:10103000FFF74EFA00BF0398FFF7F0F800BF00BFBC
:1010400000BF94F8370001F0A7FD204601F0E0FE54
:10105000204602F051FB37480088401C3549088083
:1010600035480078012837D000BF00BF00BFFFF728
:10107000D1F8039000BFFFF711FA00BF2C480078A9
:10108000401E2B49087008460078D0B901F06AFF6D
:101090002A48008800280BDD00BFFFF719FA00BFBF
:1010A0000398FFF7BBF800BF00BF01F01FFF11E07E
:1010B00000BFFFF70DFA00BF0398FFF7AFF800BFBE
:1010C00008E000BFFFF704FA00BF0398FFF7A6F897
:1010D00000BF00BF00BFFCE600BF00BF00BFFFF7BE
:1010E00099F8039000BFFFF7D9F900BF10480078C6
:1010F000401E0F4908700846007808B901F032FF19
:1011000000BFFFF7E5F900BF0398FFF787F800BFBE
:1011100000BF00BFFFF740FC00BFDAE66000002020
:101120003C560008A0270020D8260020B40000204C
:10113000B0000020E40000206800002074000020BF
:1011400010B504460348006818B1204601490968F3
:10115000884710BD4000002070B504460D460026AB
:1011600078480078002803DD47F24E10288070BDD3
:101170007548844203D147F24C102880F7E7734842
:10118000844203D147F24D102880F0E79CB900BF9C
:1011900000BFFFF73FF8064600BFFFF77FF900BF2B
:1011A0006B48046800BFFFF793F900BF3046FFF7B4
:1011B00035F800BF00BF00BF00BF00BFFFF72AF82F
:1011C000064600BFFFF76AF900BF62480078401C7E
:1011D0006049087008460078012801D101F0B4FE8A
:1011E00000BFFFF775F900BF3046FFF717F800BFE3
:1011F00000BF00BF94F8360008282DD2DFE800F0C9
:1012000004090E10080A0F11204601F041FE5EE0AD
:101210005DE000BF204603F0BDF958E000BF00BF0D
:1012200000BF204603F0B6F994F83400082810D225
:10123000DFE800F004070508090A0B0600BF00BF3D
:1012400008E000BF00BF00BF00BF204601F0D5FB93
:1012500000E000BF00BF3AE000BF00BF00BFFEF7E4
:10126000D9FF064600BFFFF719F900BF39480078DB
:10127000401E3849087008460078D0B901F072FE67
:101280003548008800280BDD00BFFFF721F900BFBB
:101290003046FEF7C3FF00BF00BF01F027FE11E09C
:1012A00000BFFFF715F900BF3046FEF7B7FF00BFDC
:1012B00008E000BFFFF70CF900BF3046FEF7AEFFB5
:1012C00000BF00BF00BF46F62D6028804FE700BF7B
:1012D00004F1640001F01EFA204600F041F82046B7
:1012E00002F022FA1D480088401E1C490880204652
:1012F00002F04CFAFF2084F8360000BF00BF00BFA8
:10130000FEF788FF064600BFFFF7C8F800BF114888
:101310000078401E0F4908700846007808B901F0AF
:1013200021FE00BFFFF7D4F800BF3046FEF776FF7E
:1013300000BF00BF00BF00202880FFF72DFB00BFCB
:1013400015E7000060000020D8260020A02700201C
:1013500008010020B000002074000020E4000020FC
:1013600010B504460348006818B1204601490968D1
:10137000884710BD440000207FB504460D46002676
:1013800000BF00BFFEF746FF064600BFFFF786F826
:1013900000BF1CB11748006884420CD100BFFFF7A2
:1013A00097F800BF3046FEF739FF00BF00BF47F295
:1013B000571028807FBD00BFFFF78AF800BF304676
:1013C000FEF72CFF00BF00BF0B48007800280BDDA4
:1013D000002000900190034602462146CDE9020517
:1013E000064800F001FFE5E72946204602F07AFBB7
:1013F00000BFDFE708010020600000205452455381
:1014000010B504460348006818B120460149096830
:10141000884710BD480000202DE9F04780460E4661
:1014200014461D464FF000098C480078002805DD61
:1014300046F2AE1028800020BDE8F0871EB1B6F558
:10144000004F02D100E000BF04E045F6256028808F
:101450000020F1E700BF0CB10020206000BF00BFFA
:10146000FEF7D8FE814600BFFFF718F800BF7C48A2
:101470000068406CB8B37A480068406C401E7849F8
:101480000968486476480068476C1CB17448006875
:10149000006C2060FFF790F871490968096C401AE8
:1014A0006F490968C1F8A4006D480068D0F8A80029
:1014B0006B490968D1F8A410884207D268480068CF
:1014C000D0F8A40066490968C1F8A80000BFFEF77B
:1014D000FFFF00BF4846FEF7A1FE00BF00BF00208F
:1014E00028803846A8E7FFE706F4004068B100BF4F
:1014F000FEF7EEFF00BF4846FEF790FE00BF00BFBC
:1015000046F2B0102880002096E756480078002860
:101510000DDD00BFFEF7DCFF00BF4846FEF77EFE94
:1015200000BF00BF46F663502880002084E700BF5C
:101530004C480078401C4B49087008460078012848
:1015400001D101F001FD00BFFEF7C2FF00BF484618
:10155000FEF764FE00BF00BF00BF43460722002124
:10156000084601F08FF900BF00BF00BFFEF752FE32
:10157000814600BFFEF792FF00BF3A480078401E48
:10158000384908700846007808B901F0EBFC00BF44
:10159000FEF79EFF00BF4846FEF740FE00BF00BFBB
:1015A00000BFFFF7F9F900BF00BFFEF733FE814629
:1015B00000BFFEF773FF00BF2948006890F83500B0
:1015C00020B1012826D0032834D12CE0FCB12448D6
:1015D0000068006C2060FEF7EFFF21490968096C84
:1015E000401A1F490968C1F8A4001D480068D0F8D6
:1015F000A8001B490968D1F8A410884207D21848EE
:101600000068D0F8A40016490968C1F8A8000020B5
:10161000288013E01CB112480068006C206046F27C
:10162000A91028800AE00CB10020206047F2D920E0
:10163000288003E046F62E60288000BF00BF0848DF
:101640000068476C00BFFEF743FF00BF4846FEF747
:10165000E5FD00BF00BF3846EEE600006000002058
:1016600008010020B00000202DE9F04705460E4695
:1016700017461C464FF0000A32480078002804DD67
:1016800047F259102080BDE8F0871EB946F2D520F8
:101690002080F8E71FB946F2D5202080F3E700BF8D
:1016A00000BFFEF7B7FD824600BFFEF7F7FE00BFA2
:1016B0000DB925480568286878B900BFFEF708FF0E
:1016C00000BF5046FEF7AAFD00BF00BF00203060FB
:1016D000386047F252102080D5E795F83C0000F0C2
:1016E000010078B900BFFEF7F3FE00BF5046FEF7D9
:1016F00095FD00BF00BF00203060386047F25410F5
:101700002080C0E700BFFEF7E3FE00BF5046FEF7B3
:1017100085FD00BF00BF4FF00008D5F8249003E01E
:1017200009F1040908F10108D9F800000028F7D0F0
:10173000C6F80080A86BA0EB08003860002020806D
:1017400000BFA0E76000002008010020F0B50446BB
:10175000DDE9055602EB85004FF0807C071F384617
:10176000C7F800C0071F38463C60DFF89CC0071F61
:101770003846C7F800C04FF0123C071F3846C7F87C
:1017800000C04FF0033C071F3846C7F800C04FF0B9
:10179000023C071F3846C7F800C0071F38463B60A9
:1017A000071F384639604FF0113C071F3846C7F80D
:1017B00000C04FF0103C071F3846C7F800C04FF07C
:1017C000093C071F3846C7F800C04FF0083C071F08
:1017D0003846C7F800C04FF0073C071F3846C7F827
:1017E00000C04FF0063C071F3846C7F800C04FF056
:1017F000053C071F3846C7F800C04FF0043C071FE0
:101800003846C7F800C0F0BD613C00087FB505460A
:101810000C461248854203D147F25B1020807FBD01
:101820000F48854203D147F25C102080F7E70D484E
:10183000007800280BDD002000900190034602464E
:101840002946CDE90204084800F0CEFCE7E721462E
:10185000284602F0E5FC00BFE1E70000D8260020A2
:10186000A0270020600000205453555370B5244831
:10187000006810B1224800688047FEF79DFE0446CC
:101880002048006820490968884215D01D48006832
:10189000D0F89800201A1B490968C1F8940019482B
:1018A0000068D0F89C0017490968D1F894100844E2
:1018B00014490968C1F89C0013480068C0F89840B2
:1018C000FEF7C0FD05460F480068D0F8B400A842F6
:1018D00003D20C480068C0F8B4500A480068D0F839
:1018E000B8000A490968884205D2084800680549D5
:1018F0000968C1F8B80000200449086070BD000004
:1019000054000020080100200C010020AC00002041
:101910002DE9F04105460E46144600274D48007853
:10192000002804DD47F275202080BDE8F0814A4898
:101930000078002803DD46F663502080F5E736B1D5
:10194000022E05D0042E0AD0082E09D101E000BFD6
:1019500000BF1DB947F27E202080E6E704E003E0E7
:1019600045F625602080E0E700BF00BF00BF00BF54
:10197000FEF750FC074600BFFEF790FD00BF36485B
:101980000078401C3449087008460078012801D1CD
:1019900001F0DAFA00BFFEF79BFD00BF3846FEF704
:1019A0003DFC00BF00BF00BF01202C49096881F841
:1019B00036002346324629462848006802F00CFDCE
:1019C0002088F0B100BF00BF00BFFEF723FC074630
:1019D00000BFFEF763FD00BF1F480078401E1E4990
:1019E00008700846007808B901F0BCFA00BFFEF79D
:1019F0006FFD00BF3846FEF711FC00BF00BF00BFFF
:101A000093E71648006801F043FA00BF00BF00BF2B
:101A1000FEF700FC074600BFFEF740FD00BF0E4882
:101A20000078401E0C4908700846007808B901F09B
:101A300099FA00BFFEF74CFD00BF3846FEF7EEFBFB
:101A400000BF00BF00BFFEF7A7FF0020208000BF3F
:101A50006BE7000060000020B000002008010020BB
:101A60002DE9FF5F05460E4617469846DDE90EA4B0
:101A70000020009081480078002804DD47F275209E
:101A80002080BDE8FF9F7E480078002803DD46F6F1
:101A900063502080F5E70AF00E0BBBF1000F09D070
:101AA000BBF1020F07D0BBF1040F10D0BBF1080F40
:101AB0000ED101E000BF00BFB8F1000F06D12FB971
:101AC00026B91DB947F27E202080DAE704E003E062
:101AD00045F625602080D4E700BF2AF01E0008B13B
:101AE000012000E0002003900398012803D145F66F
:101AF00025602080C5E7CAF3001002900298C0B9A3
:101B0000B8F57A7F03D347F27B202080B9E73B2FDB
:101B100003DD47F27A202080B3E73B2E03DD47F256
:101B200079202080ADE7632D12DD47F278202080F8
:101B3000A7E742F20F70864203DD47F2792020804A
:101B40009FE7B5F57A7F03DB47F27820208098E79E
:101B50004C48D0F800904FF4FA70B0FBF9F04044D4
:101B600000FB09F04FF47A71B0FBF1F14FF46160C2
:101B70006843C6EB061200EB8200384400FB0910F4
:101B800001900198002873D000BF00BF00BFFEF78E
:101B900041FB009000BFFEF781FC00BF3848007891
:101BA000401C3749087008460078012801D101F02F
:101BB000CBF900BFFEF78CFC00BF0098FEF72EFBB0
:101BC00000BF00BF00BF01202F49096881F836001F
:101BD00023465A462C480199006802F0FDFB2088F4
:101BE000F0B100BF00BF00BFFEF714FB009000BFC4
:101BF000FEF754FC00BF22480078401E20490870C0
:101C00000846007808B901F0ADF900BFFEF760FCA6
:101C100000BF0098FEF702FB00BF00BF00BF30E727
:101C20001948006801F034F900BF00BF00BFFEF79B
:101C3000F1FA009000BFFEF731FC00BF10480078B9
:101C4000401E0F4908700846007808B901F08AF96B
:101C500000BFFEF73DFC00BF0098FEF7DFFA00BFB3
:101C600000BF00BFFEF798FE0020208003E0FFE7E2
:101C700047F27E20208000BF03E7000060000020C4
:101C8000B00000204056000808010020254A2649DF
:101C9000264A274A2749284A2848294A294A2A4AB7
:101CA0002A4A2B482B482C482C4A2D482D4A2E488E
:101CB0002E4A2F482F4830483048314A314A324A5C
:101CC0003248334A334A3448344835483548364830
:101CD00036483748374A384A384A394A39483A48FC
:101CE0003A483B4A3B4A3C4A3C483D483D483E49CD
:101CF0003E483F4A3F4A404A404A414A414A424A96
:101D00004248434A434A44484448454A454A46486B
:101D1000464A474A47484848484800BF00BF00BFB6
:101D20007047000084560008EC57000885560008EC
:101D300086560008885600088C5600089056000801
:101D40008D560008B8560008B9560008BA56000863
:101D5000BC560008BE560008C0560008C25600080F
:101D6000C4560008E4560008E6560008E856000885
:101D7000EA560008EC560008EE560008F056000837
:101D80001C5700081D5700081E5700082057000860
:101D90002257000823570008245700082657000838
:101DA000285700082A5700082C5700082E5700080B
:101DB0003057000860570008615700086257000854
:101DC0006357000864570008665700086857000802
:101DD0009057000891570008925700089357000841
:101DE0009457000896570008985700089C57000819
:101DF0009D5700089E5700089F570008A0570008ED
:101E0000A1570008A2570008A3570008A4570008CC
:101E1000A6570008A7570008A8570008AA570008A7
:101E2000AC570008AD570008B0570008E457000849
:101E3000E5570008E6570008E8570008EA57000889
:101E40000021034A1160034A11800180704700009D
:101E500080000020840000202DE9F04F85B004466A
:101E6000894692469B46DDF838800020009000BFEE
:101E700000BFFEF7CFF9009000BFFEF70FFB00BFD9
:101E8000BAF1000F0AD0BAF1010F0DD0BAF5004F28
:101E900005D06FF40040504460B906E000BF206AEE
:101EA00040EA0900206216E000BF206A20EA09002B
:101EB000206210E000BFFEF70BFB00BF0098FEF7AA
:101EC000ADF900BF00BF45F62560A8F8000000206E
:101ED00005B0BDE8F08F00BFC4F824B004F10800DD
:101EE00001900198008968B900BFFEF7F1FA00BFC0
:101EF0000098FEF793F900BF00BF0020A8F800008B
:101F0000206AE5E700BF71480078401C6F490870FF
:101F100008460078012801D101F016F800BFFEF74D
:101F2000D7FA00BF0098FEF779F900BF00BF00BFE5
:101F300001980768BD6889E07868029095F8880084
:101F400000F00F0003900398012821D002282ED022
:101F5000042802D0082836D10EE0206AD5F8801077
:101F600000EA0106D5F88000B04204D15A46314655
:101F7000284600F0AFF863E0206AD5F8801000EA48
:101F8000010626B15A463146284600F0A3F857E02C
:101F9000D5F88000216A20EA0106D5F88000B04219
:101FA00004D15A463146284600F094F848E0D5F866
:101FB0008000216A20EA010626B15A4631462846A9
:101FC00000F088F83CE000BF00BF00BFFEF722F938
:101FD000009000BFFEF762FA00BF3C480078401E48
:101FE0003A49087008460078D0B900F0BBFF38487D
:101FF000008800280BDD00BFFEF76AFA00BF0098DA
:10200000FEF70CF900BF00BF00F070FF11E000BF49
:10201000FEF75EFA00BF0098FEF700F900BF08E087
:1020200000BFFEF755FA00BF0098FEF7F7F800BFB3
:1020300000BF00BF43F6FF20A8F80000002047E7DC
:1020400000BF029F0FB1BD6800E00025002D7FF4A6
:1020500073AF00BF00BF00BFFEF7DCF8009000BF09
:10206000FEF71CFA00BF19480078401E1749087097
:102070000846007808B900F075FF00BFFEF728FA9F
:1020800000BF0098FEF7CAF800BF00BF00BF0AF407
:10209000004008B9FEF780FC00BF00BFFEF7BAF8A9
:1020A000009000BFFEF7FAF900BF206A049000BF5D
:1020B000FEF70EFA00BF0098FEF7B0F800BF00BFB1
:1020C0000020A8F80000049802E70000B0000020FB
:1020D0007400002070B504460E461546343426655B
:1020E000002060702070E560A078343C082816D28B
:1020F000DFE800F0040508090706101100BF00BF63
:1021000000BF0DE000BF204601F0DEFC002084F897
:10211000360005E000BF042084F8360000E000BF70
:1021200000BF204600F069FC70BD0000002400BF25
:102130001DE000BF00BFFEF76DF8044600BFFEF7CC
:10214000ADF900BF0A480068401C09490860094809
:102150000068401C0749086000BFFEF7B9F900BFDE
:102160002046FEF75BF800BF00BFFEF729FBE0E763
:102170005C000020C800002010B58AB00446002092
:102180000E4908600B2000210591CDE90704069156
:1021900008460B4909680B4A12680B4B1B68CDE9CE
:1021A0000132CDE903101F200023084A08A1009046
:1021B0000C48FEF77BFE0AB010BD00005C0000205A
:1021C000E8550008E4550008E05500082D210008F6
:1021D00075432F4F532D4949492049646C6520545C
:1021E00061736B00D82600202DE9F84F04460D4698
:1021F00016461F46DDE90BABDDF82890DDF834808C
:102200000020009000BF00BFFEF704F8009000BF60
:10221000FEF744F900BF2C4800882C490988884201
:102220003EDA29480088401C274908802848008851
:102230000988884203DA244800882549088025480F
:102240000068046023480068856022480068C66012
:102250002048006807821F480068C0F814901D4895
:102260000068A0F818A01B480068C0F81CB0194806
:10227000006840681749086001201749088117481D
:1022800008604860002000F087FC1548007818B10D
:1022900013480078134908700020A8F8000008E0EF
:1022A00011480088401C1049088044F25360A8F887
:1022B000000000BFFEF70CF900BF0098FDF7AEFF6D
:1022C00000BF00BFBDE8F88F74000020F45500087F
:1022D000760000206C00002074280020A027002039
:1022E0009600002098000020780000203EB5594854
:1022F00000680068584A811A904279D00FDC57492B
:10230000084400283ED056490844A8B1554908441D
:10231000002860D05449084400286AD13FE053485F
:102320000844002850D052490844002862D051493E
:1023300008440028F1D110E002A8464D00902D6815
:10234000EB69444D2D682A8B424D2D686969414DDA
:102350002D68A868FFF780FD7AE002A93D48006873
:10236000C0693C4DCDE900012D682B8B394D2D689E
:102370002A8A384D2D68E968364D2D68A86800F026
:102380003BFC65E0334B1B68DA69324B1B68198BE9
:10239000304B1B68986802AB00F084FE58E002A93D
:1023A0002C480068C0692B4DCDE900012D682B8BAE
:1023B000284D2D682A8A274D2D68E968254D2D68FE
:1023C000A86801F04BFA43E022490968886802A92D
:1023D00001F088FB3CE01F4B1B68DA691D4B1B6852
:1023E000198B1C4B1B68986802AB01F045FC2FE071
:1023F00007E02CE017490968886802A901F010FF7E
:1024000026E01D49097801EB41011C4A02EB8100DD
:1024100000F0C6FD0F48006802AB0021C2691848F1
:1024200001F02AFC17480068401E1649086008465B
:10243000006858B9144800680860FEF7BDF8044603
:1024400002AB22460021114801F016FC00E000BF5B
:1024500000BF3EBD700000205449434BADBAB2BE30
:102460000DF90BFAF2F8F7FF0006F6FF00F7FDF79B
:1024700000FFEFFF03FE0FFE9800002074280020ED
:10248000BC2A00200401002000010020842B002031
:10249000002700BF56E0002652E000BF00BFFDF756
:1024A000B9FE074600BFFDF7F9FF00BF26480088C8
:1024B00098B90020254908810860486000F07EFB3B
:1024C00000BFFEF705F800BF3846FDF7A7FE00BFC6
:1024D00000BFFEF761FA012632E000BFFDF7F8FF0A
:1024E00000BF3846FDF79AFE00BF00BFFEF764F854
:1024F0000546FFF7FBFEFEF75FF8441B1448006833
:10250000A04201D21248046000BF00BFFDF782FE66
:10251000074600BFFDF7C2FF00BF0E4800684068D5
:102520000C49086008480088401E0749088000BF21
:10253000FDF7CEFF00BF3846FDF770FE00BF00BFBD
:10254000002EAAD0A7E70000740000207428002005
:102550007C00002070000020F0B589B00546002006
:10256000314908803148006820B944F2526028801F
:1025700009B0F0BD2E480088022803DA44F2546006
:102580002880F5E700202B49086028480468264683
:10259000203600270CE0284820600020A060E06082
:1025A000208260612083666020342036781C87B2E8
:1025B0001F4800888742EEDB203C1C4806686660A6
:1025C0001E4806601E48066000201E4908801E49FD
:1025D00008801E48006818B944F255602880C7E793
:1025E0001B4800681B490968884203D244F25660C0
:1025F0002880BDE7032000210591CDE9070506915C
:1026000013480068144A1268104B1B68CDE9030197
:10261000CDE9013200910B46104A11A11748FEF78F
:1026200045FC00BFA4E7000078000020F05500083A
:10263000F45500087C0000204E4F4E456C000020F1
:10264000700000207400002076000020FC55000877
:10265000045600083C560008005600089124000863
:1026600075432F4F532D49494920495352205175E5
:10267000657565205461736B00000000A027002081
:102680000021034A1160034A118001807047000055
:10269000880000208C00002070B501461A4D2D687E
:1026A0001DB945F21E750D8070BD184D2D881DB9E0
:1026B00045F21D750D80F7E7134D28682A68103222
:1026C000124D2D886D1EACB2002308E0026000257B
:1026D00045600581C560103010325D1CABB2A3426D
:1026E000F4DB0025056045600581C560064D2D6859
:1026F000074E3560054D2D88B5800025F580358164
:102700000D8000BFD0E700002056000818560008D2
:102710006828002010B5014648894B89002B17DD39
:102720000A680C4B1B6813600A4C4B6823602346F5
:10273000DB884C891B1B074CE38023469B884C8914
:102740002344044CA38000234B818B810B604B609E
:1027500010BD000068280020018100224281828192
:1027600002604260704700002DE9F0410D46DDE94E
:102770000674B0F80AC0B0F80880C44505DB46F21C
:10278000935CA4F800C0BDE8F081DFF8DCC0BCF8C1
:1027900004C0BCF1000F04D145F21D7CA4F800C0B8
:1027A000F1E7DFF8C4C0DCF80010DFF8BC80D1F836
:1027B00000C0C8F800C0C446BCF804C0ACF1010CAD
:1027C000A8F804C0C446BCF806C00CF1010CA8F877
:1027D00006C0C446BCF808C0B8F80680C44507DA8D
:1027E000DFF884C0BCF806C0DFF87C80A8F808C019
:1027F000B0F80AC0BCF1000F0AD1016041604FF08F
:10280000010CA0F80AC04FF0000CC1F800C017E09E
:1028100003F0100CBCF1000F07D1066831600160B5
:102820004FF0000CC1F800C004E0D0F804C0C1F8BB
:1028300000C04160B0F80AC00CF1010CA0F80AC059
:10284000B0F80CC0B0F80A80C44503DAB0F80AC08A
:10285000A0F80CC04D600A81CF604FF0000CA4F8C6
:1028600000C000BF8FE70000682800200021034A55
:102870001160034A11800180704700009000002021
:10288000940000202DE9F04105460C4616461F46EF
:102890001548006880F8346000201349096881F801
:1028A000350039461048006800F00AFF6CB104F1A9
:1028B0000808EC60012229460B48006800F016F871
:1028C0002946404600F066F806E0002006490968FF
:1028D000C88705490968086303480168204600F075
:1028E00019F8BDE8F08100000801002010B5C2878A
:1028F000016300230AE000244C600C600C614C6111
:102900000C83CC61886020315C1CA3B29342F2DB63
:1029100010BD000030B548B14568C1F8C45000F1A1
:102920000804226893681D6AC56113E091F8345069
:10293000022D02D0072D08D103E007A5C1F8C4502D
:1029400007E007A5C1F8C45003E008A5C1F8C450CA
:1029500000BF00BF30BD00005461736B2051000008
:102960005461736B2053656D00000000200000006F
:1029700030B507A5C1F8C45000F1080422681AB1A7
:1029800093681D6AC56101E001A5C56130BD000005
:1029900020000000F0B58E6896F8375007893FB9DF
:1029A0000127078100274F600F600160416023E02D
:1029B00007897F1C0781026806E0946894F83770E5
:1029C000AF4200DD02E05268002AF6D100BF32B902
:1029D00000274F6043680B60596041600CE0176846
:1029E0002FB9116000270F604A60016004E013688E
:1029F0000B604A6059601160F0BD2DE9F04104465A
:102A0000256BE68F0AE0D5F80C8008F10807294607
:102A1000384600F00AF82035701E86B2002EF2DC2F
:102A20000020E0872063BDE8F08110B50489012C07
:102A300003D100240460446011E00C6824B94A68A2
:102A40000024146002600AE04C6824B90B6800247A
:102A50005C60436003E00B684A685A601360048955
:102A6000641E048100244C600C6010BD2DE9F84305
:102A700006460C4617469846089D94F836000828E6
:102A800050D2DFE800F00405080906072B2C00BF30
:102A900000BF00BF47E000BF94F83400032807D10F
:102AA00043463A4621463046009500F03FF803E0A1
:102AB000E765A4F86080256436B12046FFF79DFFE6
:102AC00021463046FFF754FF204600F0FDFF00206E
:102AD0003434A070607004F8340924E000BF94F826
:102AE0003400032807D143463A4621463046009534
:102AF00000F01CF803E0E765A4F860802564204638
:102B000001F048FD36B12046FFF777FF21463046F9
:102B1000FFF72EFF04203434A0700020607004F80A
:102B2000340900E000BF00BFBDE8F883F0B50446FB
:102B3000059E086BCD8F0AE0C768A74204D10461E7
:102B400042610383C66104E020306F1EBDB2002DD8
:102B5000F2DC00BFF0BD000070B50025074C03E0BB
:102B600005F12000C5B2241D20680028F8D0206897
:102B7000FDF75BFB2844C5B2284670BD3C00002031
:102B8000002004E00021034A42F82010401C0028E5
:102B9000F8D070473C00002030B5420900F01F0318
:102BA0000121C3F11F04A140034C54F822400C43FF
:102BB000014D45F8224030BD3C00002030B54209AF
:102BC00000F01F030121C3F11F04A140034C54F87E
:102BD00022408C43014D45F8224030BD3C0000208E
:102BE0000021034A1160034A1180018070470000F0
:102BF0009C000020A00000202DE9F04F85B0074682
:102C00008A4693461C460020029000BF00BF00BFCA
:102C1000FDF700FB029000BFFDF740FC00BF5648E7
:102C20000078401C5449087008460078012801D1FA
:102C300000F08AF900BFFDF74BFC00BF0298FDF7DA
:102C4000EDFA00BF00BF00BF07F108063089002879
:102C50004CD104F0100010B94FF0000801E04FF023
:102C60001008DDE90E0143465A46CDE90001514600
:102C700007F12000FFF778FD00BF00BF00BFFDF7A0
:102C8000C9FA029000BFFDF709FC00BF3A4800787E
:102C9000401E3949087008460078D0B900F062F942
:102CA0003648008800280BDD00BFFDF711FC00BF8F
:102CB0000298FDF7B3FA00BF00BF00F017F911E06A
:102CC00000BFFDF705FC00BF0298FDF7A7FA00BFA3
:102CD00008E000BFFDF7FCFB00BF0298FDF79EFA7D
:102CE00000BF00BF00BF05B0BDE8F08F04F4007066
:102CF00008B1358900E00125D6F8009011E0D9F837
:102D000008000390D9F8040004900E985B465246E0
:102D1000009038460399FFF7A9FEDDF81090681E71
:102D200085B2002DEBD100BF00BF00BFFDF772FAE6
:102D3000029000BFFDF7B2FB00BF0F480078401EB5
:102D40000D4908700846007808B900F00BF900BF7B
:102D5000FDF7BEFB00BF0298FDF760FA00BF00BFA1
:102D600000BF04F4004008B9FDF716FE00210F98DB
:102D7000018000BFB7E70000B00000207400002011
:102D800000210AE001EB4102054B03EB8200002227
:102D90000281026042604A1CD1B22029F2D37047FE
:102DA0007428002010B5044694F83700FFF7F4FEAD
:102DB00094F8370005490978884203D1204600F08D
:102DC00027F802E0204600F003F810BD960000202E
:102DD00010B590F8373003EB43030C4C04EB830140
:102DE0000B893BB901230B810023C3600361086099
:102DF000486009E00B895B1C0B810B68C3600023F2
:102E000003610A681061086010BD0000742800208A
:102E100010B590F8373003EB43030B4C04EB830100
:102E20000B893BB901230B810023C3600361086058
:102E3000486008E00B895B1C0B810023C3604A6873
:102E40000261D060486010BD7428002010B50146B2
:102E50000C8924B1012C03D0022C0CD101E000BF5D
:102E600014E008684A6802610024C4601461D060FC
:102E70000A6048600AE008684A68C36800241C6168
:102E8000C4600261D0600B60486000BF00BF10BD2D
:102E90002DE9F041054695F8370000EB4000124956
:102EA00001EB80042F69EE6887B946B900202081C4
:102EB0002060606095F83700FFF780FE0EE0208903
:102EC000401E208100203061266007E02089401EDE
:102ED0002081FE600EB9676000E037610020286144
:102EE000E860BDE8F08100007428002010B50024DF
:102EF00000BFFDF78FF9044600BF00200D490870A0
:102F00000D480E49086008460068D0F89000401C43
:102F10000968C1F890000A480068401C0849086028
:102F20004FF080500749086000BF2046FDF776F952
:102F300000BF10BD97000020A02700200C0100203A
:102F4000DC00002004ED00E010B504480078012802
:102F500003D1FDF731FB0249086010BDB00000202D
:102F6000A400002010B50A48007880B9FDF724FBC2
:102F700008490968441A08480068A04201D2064876
:102F8000046006480068A04201D20448046010BDF5
:102F9000B0000020A4000020A8000020AC00002009
:102FA00070B50546002635480078012800D070BD70
:102FB00000BF00BFFDF72EF9064600BFFDF76EFA11
:102FC00000BF2C684CB900BFFDF782FA00BF304645
:102FD000FDF724F900BF00BFE9E72948844209D181
:102FE00000BFFDF775FA00BF3046FDF717F900BFC7
:102FF00000BFDCE7A06D10B1A06D401EA065A06D04
:1030000048B100BFFDF764FA00BF3046FDF706F98E
:1030100000BF00BFCBE72889022809DA00BFFDF70F
:1030200057FA00BF3046FDF7F9F800BF00BFBEE712
:1030300014480078002809DD00BFFDF749FA00BFF9
:103040003046FDF7EBF800BF00BFB0E72846FFF7BA
:10305000FDFE2C68606D18B90B480068A06501E0A2
:10306000606DA06500BFFDF733FA00BF3046FDF785
:10307000D5F800BF00BF00BF99E70000B8000020EE
:10308000D8260020B0000020B40000200021034A10
:103090001160034A1180018070470000BC000020CD
:1030A000C00000202DE9FF5F0446884691461D467A
:1030B0000020019000BF00BFFDF7ACF8019000BFF9
:1030C000FDF7ECF900BF04F108073889002857D153
:1030D0000420012804D0022816D004283AD127E081
:1030E000206AFF280FD100BFFDF7F2F900BF019859
:1030F000FDF794F800BF00BF46F6C55028800020B9
:1031000004B0BDE8F09F26E04FF6FF71206A8842C8
:103110000DD100BFFDF7DCF900BF0198FDF77EF887
:1031200000BF00BF46F6C55028800020E8E712E047
:10313000206A401C68B900BFFDF7CAF900BF0198BA
:10314000FDF76CF800BF00BF46F6C5502880002090
:10315000D6E700E000BF00BF206A401C2062D4F820
:1031600020A0C4F8249000BFFDF7B2F900BF019879
:10317000FDF754F800BF00BF002028805046BFE78D
:1031800000BF2D480078401C2B4908700846007885
:10319000012801D1FFF7D8FE00BFFDF799F900BF64
:1031A0000198FDF73BF800BF00BF00BF08F40070B6
:1031B00008B13E8900E00126D7F800B011E0DBF845
:1031C00008000290DBF80400039000231A46CDF8B3
:1031D000009020460299FFF749FCDDF80CB0701E04
:1031E00086B2002EEBD1D4F820A000BF00BF00BFF4
:1031F000FDF710F8019000BFFDF750F900BF0E4831
:103200000078401E0C4908700846007808B9FFF79E
:10321000A9FE00BFFDF75CF900BF0198FCF7FEFFB7
:1032200000BF00BF00BF08F4004008B9FDF7B4FBC1
:1032300000202880504663E7B000002086B00020C0
:10324000009000BF06E0D9490968480001AA0021A2
:10325000FEF75EFBD64800780128F4D101A8FDF7FF
:10326000E7FC0027D3480068D0490968884205D99F
:10327000D0480068CD490968B0FBF1F727B9CD48BF
:1032800000680A21B0FBF1F78EE1FDF795F982465F
:10329000FDF7EEF8C849086000BF00BFFCF7BAFFB1
:1032A000009000BFFDF7FAF800BFC4480068C449A9
:1032B00008600020C149086000BFFDF709F900BFA0
:1032C0000098FCF7ABFF00BF00BFBE480068BC49D8
:1032D0000968884248D9BB480068BB49884205D282
:1032E00042F2107003900120029023E0B54800687C
:1032F000B649884205D24FF47A7003900A200290B2
:1033000018E0B0480068B249884203D264200390B4
:1033100002900FE0AB480068AE49884205D20A200F
:1033200003904FF47A70029004E00120039042F27F
:1033300010700290A34801680298B1FBF0F9A0490F
:10334000039809684843B0FBF9F042F21071081A7B
:10335000A1490880A14800880988884208DA9E4867
:1033600000889E49088003E042F210709A49088064
:10337000FDF792FD002500BF00BFFCF74BFF00905A
:1033800000BFFDF78BF800BF9548046800BFFDF74C
:103390009FF800BF0098FCF741FF00BF00BF72E03C
:1033A00000BF00BF00BFFCF735FF009000BFFDF776
:1033B00075F800BF8B480078401C8A4908700846A1
:1033C0000078012801D1FFF7BFFD00BFFDF780F8AD
:1033D00000BF0098FCF722FF00BF00BF00BF54F8F9
:1033E0009C0F6060002044F89C0900BF00BF00BF34
:1033F000FCF710FF009000BFFDF750F800BF7948C0
:103400000078401E7749087008460078D0B9FFF769
:10341000A9FD7548008800280BDD00BFFDF758F8AE
:1034200000BF0098FCF7FAFE00BF00BFFFF75EFD8B
:1034300011E000BFFDF74CF800BF0098FCF7EEFE6E
:1034400000BF08E000BFFDF743F800BF0098FCF79D
:10345000E5FE00BF00BF00BFD4F8A000054400BFD8
:1034600000BFFCF7D7FE009000BFFDF717F800BFC4
:10347000D4F8C04000BFFDF72BF800BF0098FCF760
:10348000CDFE00BF00BF002C8AD145B34E48854217
:1034900005D242F2107005904FF0010B1BE04B4833
:1034A000854205D24FF47A7005904FF00A0B12E076
:1034B0004748854203D26420059083460BE0454887
:1034C000854204D20A2005904FF47A7B03E0012064
:1034D000059042F2107BB5FBFBF0049003E0002066
:1034E00005900120049000BF00BFFCF793FE009000
:1034F00000BFFCF7D3FF00BF3948046800BFFCF7EA
:10350000E7FF00BF0098FCF789FE00BF00BF2FE077
:10351000D4F8A000059948430499B0FBF1F086B2B5
:1035200042F21070864200D90646A4F88C60B4F8C6
:103530008E00B04201DAA4F88E6001AB04F1AC0257
:10354000111D2046FEF790F800BF00BFFCF762FE99
:10355000009000BFFCF7A2FF00BFD4F8C04000BF3E
:10356000FCF7B6FF00BF0098FCF758FE00BF00BF95
:10357000002CCDD11D480078012805D100201B4921
:10358000087001A8FDF754FBFDF716F8A0EB0A0838
:1035900017480068404502D21548C0F8008001AACB
:1035A00000213846FEF7B4F96FE6000028560008FF
:1035B000D40000204056000864000020C80000200D
:1035C000D0000020CC000020801A060000093D0039
:1035D000005A62020084D717C4000020C6000020F1
:1035E000E0000020B000002074000020C200002095
:1035F000D800002010B58AB0044600201F4908609A
:103600001F4908601F4908601F4908701F4908705A
:103610001F48006820B946F62B6020800AB010BD14
:103620001C4800681C490968884203D246F62C6091
:103630002080F3E7194800781F2803D346F62A6054
:103640002080EBE7032000210591CDE907040691D6
:10365000084610490968124A12680D4B1B68CDE9EB
:103660000132CDE903100D48007800230D4A0EA168
:1036700000901248FDF71AFC00BFCFE7C8000020F9
:10368000D0000020CC000020D4000020C200002088
:103690002C560008345600083C56000824560008F2
:1036A000305600083D32000875432F4F532D4949CD
:1036B000492053746174205461736B00F429002015
:1036C00038B504460D4685B16B4602222946204690
:1036D00000F082FEBDF8000018B9032084F836001F
:1036E00006E0022084F8360002E0022084F836006A
:1036F0002046FFF7CDFB38BD0021C0F8BC100949BA
:10370000096819B90021C0F8C01007E00549096827
:10371000C0F8C01003490968C1F8BC00014908603D
:1037200070470000E0000020D0F8BC20D0F8C010A6
:103730004AB90D4B196011B10023C1F8BC30002308
:10374000C0F8C0300FE029B90023C2F8C030C0F87B
:10375000BC3008E0C2F8C010C1F8BC200023C0F89B
:10376000C030C0F8BC307047E00000200021044A9F
:103770001160044A1180044A116001807047000002
:10378000E0000020E4000020DC00002070B50446CA
:1037900000202060A0606060E06020616061A06146
:1037A000E0612BA0206200206062A062E0622063E2
:1037B000E0872064E065A4F86000002104F1640063
:1037C000FEF7CAFF002044F8740F6060E060A0823A
:1037D0002061743C002506E0002104F17C0040F8E3
:1037E0002510681CC5B2002DF6D0002034342061AD
:1037F00020676067606084F85600E067A0672081FA
:103800004FF0004060610020A061E06120626062D2
:10381000A4F85800A4F85A00E0652066FCF7CCFE36
:10382000064666660020A066C4F88000C4F88400DE
:1038300020706070A0702020E0700020C4F8880024
:10384000C4F88C0004A0C4F89000343C70BD0000A3
:103850003F5461736B000000200000002DE9FC471D
:1038600004460F4690469946DDE90A654FF0000A86
:1038700000BF00BF00BFFCF7CDFC824600BFFCF7D5
:103880000DFE00BF8D480078401C8C49087008462A
:103890000078012801D1FFF757FB00BFFCF718FEA5
:1038A00000BF5046FCF7BAFC00BF00BF00BF0CB918
:1038B000834804680020288094F8360008287CD2C9
:1038C000DFE800F00405484906074A4B00BF00BF87
:1038D00000BF4B464246394604F16400CDE900651D
:1038E000FEF742FF00BF00BF00BFFCF793FC82461B
:1038F00000BFFCF7D3FD00BF70480078401E6F4941
:10390000087008460078D0B9FFF72CFB6D48008896
:1039100000280BDD00BFFCF7DBFD00BF5046FCF7C5
:103920007DFC00BF00BFFFF7E1FA11E000BFFCF72C
:10393000CFFD00BF5046FCF771FC00BF08E000BFA0
:10394000FCF7C6FD00BF5046FCF768FC00BF00BF97
:1039500000BFAFE000BF00BF00BF94F834000228F2
:103960002CD143463A46214600200096FFF77EF8C8
:1039700000BF00BF00BFFCF74DFC824600BFFCF754
:103980008DFD00BF4D480078401E4C490870084628
:10399000007808B9FFF7E6FA00BFFCF799FD00BF11
:1039A0005046FCF73BFC00BF00BF00BF09F40040DD
:1039B000002843D1FCF7F0FF40E040E04B46424690
:1039C000394604F16400CDE90065FEF7CDFE00BF85
:1039D00000BF00BFFCF71EFC824600BFFCF75EFD87
:1039E00000BF36480078401E344908700846007809
:1039F000D0B9FFF7B7FA3348008800280BDD00BFC5
:103A0000FCF766FD00BF5046FCF708FC00BF00BF96
:103A1000FFF76CFA11E000BFFCF75AFD00BF5046FB
:103A2000FCF7FCFB00BF08E000BFFCF751FD00BF46
:103A30005046FCF7F3FB00BF00BF00BF3AE000BFF9
:103A400000BF00BFFCF7E6FB824600BFFCF726FD87
:103A500000BF1A480078401E1849087008460078D0
:103A6000D0B9FFF77FFA1748008800280BDD00BFA8
:103A7000FCF72EFD00BF5046FCF7D0FB00BF00BF97
:103A8000FFF734FA11E000BFFCF722FD00BF5046FB
:103A9000FCF7C4FB00BF08E000BFFCF719FD00BF46
:103AA0005046FCF7BBFB00BF00BF00BF46F62D60D1
:103AB000288000BF00BFBDE8FC870000B0000020E8
:103AC000080100207400002010B50446204600F0D4
:103AD00061FD94F8360000F0040010B92046FFF7AD
:103AE00061F910BD70B504460D46002600BF00BF49
:103AF000FCF790FB064600BFFCF7D0FC00BF00209F
:103B0000288094F8360008287ED2DFE800F004050B
:103B1000060714566A8000BF00BF00BF00BFFCF755
:103B2000D7FC00BF3046FCF779FB00BF00BF47F26F
:103B3000531028808CE000BF48480078401C47495B
:103B4000087008460078012801D1FFF7FDF900BF91
:103B5000FCF7BEFC00BF3046FCF760FB00BF00BFB7
:103B600000BF14F88A0F401E207014F88A0928B983
:103B7000002084F836002046FFF7A6FF00BF00BFF4
:103B800000BFFCF747FB064600BFFCF787FC00BF01
:103B900032480078401E314908700846007808B95C
:103BA000FFF7E0F900BFFCF793FC00BF3046FCF7DD
:103BB00035FB00BF00BF00BF4AE014F88A0F401E6B
:103BC000207014F88A0910B9012084F8360000BF6B
:103BD000FCF77EFC00BF3046FCF720FB00BF00BFB7
:103BE00036E014F88A0F401E207014F88A0910B9C4
:103BF000022084F8360000BFFCF76AFC00BF3046A4
:103C0000FCF70CFB00BF00E015E000BF20E014F85B
:103C10008A0F401E207014F88A0910B9032084F816
:103C2000360000BFFCF754FC00BF3046FCF7F6FA44
:103C300000BF00BF0CE000BFFCF74AFC00BF3046ED
:103C4000FCF7ECFA00BF00BF46F62D60288070BD7F
:103C500000BFFCF7A1FE00BFF9E70000B0000020A4
:103C600008B504480068FDF7CBFB69460020FDF766
:103C700073FA08BD080100202DE9F8430446884680
:103C800017461D464FF0000900BF00BF00BFFCF7FC
:103C9000C1FA814600BFFCF701FC00BFFB48007879
:103CA000401CFA49087008460078012801D1FFF746
:103CB0004BF900BFFCF70CFC00BF4846FCF7AEFA1E
:103CC00000BF00BF00BF0CB9F148046827640020A2
:103CD000288094F8360008287AD2DFE800F004053E
:103CE000FEFD0607FCFB00BF00BF00BF042001284B
:103CF00004D0022843D004286BD184E0606CFF28F4
:103D00003CD100BF00BF00BFFCF784FA814600BF72
:103D1000FCF7C4FB00BFDD480078401EDB4908709B
:103D200008460078D0B9FFF71DF9DA480088002866
:103D30000BDD00BFFCF7CCFB00BF4846FCF76EFA7A
:103D400000BF00BFFFF7D2F811E000BFFCF7C0FBD7
:103D500000BF4846FCF762FA00BF08E000BFFCF76E
:103D6000B7FB00BF4846FCF759FA00BF00BF00BFD1
:103D700046F6C55028800020BDE8F88385E04FF660
:103D8000FF71606C88423DD100BF00BF00BFFCF7EF
:103D900041FA814600BFFCF781FB00BFBB480078B9
:103DA000401EBA49087008460078E0B9FFF7DAF813
:103DB000B848008800280DDD00BFFCF789FB00BF74
:103DC0004846FCF72BFA00BF00BFFFF78FF813E05F
:103DD000E2E159E000BFFCF77BFB00BF4846FCF77F
:103DE0001DFA00BF08E000BFFCF772FB00BF4846A9
:103DF000FCF714FA00BF00BF00BF46F6C55028808C
:103E00000020B9E741E0606C401CD8BB00BF00BF98
:103E100000BFFCF7FFF9814600BFFCF73FFB00BF86
:103E20009A480078401E9949087008460078D0B931
:103E3000FFF798F89748008800280BDD00BFFCF7D3
:103E400047FB00BF4846FCF7E9F900BF00BFFFF79A
:103E50004DF811E000BFFCF73BFB00BF4846FCF704
:103E6000DDF900BF08E000BFFCF732FB00BF4846A9
:103E7000FCF7D4F900BF00BF00BF46F6C55028804C
:103E8000002079E7FFE700E000BF00BF606C401C46
:103E90006064666C00BF00BF00BFFCF7BBF98146E1
:103EA00000BFFCF7FBFA00BF78480078401E774956
:103EB000087008460078F8B9FFF754F8754800888C
:103EC000002810DD00BFFCF703FB00BF4846FCF7ED
:103ED000A5F903E01EE01CE01AE018E000BF00BFF7
:103EE000FFF704F811E000BFFCF7F2FA00BF484604
:103EF000FCF794F900BF08E000BFFCF7E9FA00BF47
:103F00004846FCF78BF900BF00BF00BF80E100BF4F
:103F100000BF00BF94F8340007282CD100231A46B4
:103F2000214618460097FEF7A1FD666C00BF00BF52
:103F300000BFFCF76FF9814600BFFCF7AFFA00BF86
:103F400052480078401E514908700846007808B968
:103F5000FFF708F800BFFCF7BBFA00BF4846FCF7C4
:103F60005DF900BF00BF00BF08F40040002801D188
:103F7000FCF712FD0FE10420012804D0022842D0F2
:103F8000042872D189E0606CFF283BD100BF00BFDC
:103F900000BFFCF73FF9814600BFFCF77FFA00BF86
:103FA0003A480078401E3949087008460078D0B970
:103FB000FEF7D8FF3748008800280BDD00BFFCF76C
:103FC00087FA00BF4846FCF729F900BF00BFFEF79B
:103FD0008DFF11E000BFFCF77BFA00BF4846FCF7FD
:103FE0001DF900BF08E000BFFCF772FA00BF4846A9
:103FF000FCF714F900BF00BF00BF46F6C55028808B
:104000000020B9E68BE04FF6FF71606C884243D127
:1040100000BF00BF00BFFCF7FDF8814600BFFCF702
:104020003DFA00BF19480078401E1849087008463C
:104030000078D8B9FEF796FF1648008800280BDDF7
:1040400000BFFCF745FA00BF4846FCF7E7F800BFA1
:1040500000BFFEF74BFF12E000BFFCF739FA00BFCC
:104060004846FCF7DBF800BF09E057E000BFFCF76B
:104070002FFA00BF4846FCF7D1F800BF00BF00BFD1
:1040800046F6C5502880002076E60000B0000020EB
:10409000080100207400002041E0606C401CD8BB87
:1040A00000BF00BF00BFFCF7B5F8814600BFFCF7BA
:1040B000F5F900BF58480078401E57490870084677
:1040C0000078D0B9FEF74EFF5448008800280BDD79
:1040D00000BFFCF7FDF900BF4846FCF79FF800BFA2
:1040E00000BFFEF703FF11E000BFFCF7F1F900BFCE
:1040F0004846FCF793F800BF08E000BFFCF7E8F97A
:1041000000BF4846FCF78AF800BF00BF00BF46F674
:10411000C550288000202FE6FFE700E000BF00BF69
:10412000606C401C6064666C00BF00BF00BFFCF7A1
:1041300071F8814600BFFCF7B1F900BF364800783E
:10414000401E3549087008460078D0B9FEF70AFFCE
:104150003248008800280BDD00BFFCF7B9F900BF2A
:104160004846FCF75BF800BF00BFFEF7BFFE11E05A
:1041700000BFFCF7ADF900BF4846FCF74FF800BFA1
:1041800008E000BFFCF7A4F900BF4846FCF746F87A
:1041900000BF00BF00BF3BE000BF00BF00BFFCF797
:1041A00039F8814600BFFCF779F900BF1A4800785A
:1041B000401E1949087008460078D0B9FEF7D2FEB3
:1041C0001648008800280BDD00BFFCF781F900BF0E
:1041D0004846FCF723F800BF00BFFEF787FE11E05A
:1041E00000BFFCF775F900BF4846FCF717F800BFA1
:1041F00008E000BFFCF76CF900BF4846FCF70EF87A
:1042000000BF00BF00BF46F62D602880002600BF1B
:1042100000BF3046B0E50000B00000207400002070
:1042200070B504460D46002600BF00BFFBF7F2FF45
:10423000064600BFFCF732F900BF0CB95A480468C3
:1042400059480068844210D15848007800280CDD95
:1042500000BFFCF73DF900BF3046FBF7DFFF00BFB2
:1042600000BF46F66350288070BD0020288094F877
:104270003600082873D2DFE800F0044252627374FB
:10428000757600BF49480078401C484908700846C8
:104290000078012801D1FEF757FE00BFFCF718F99E
:1042A00000BF3046FBF7BAFF00BF00BF00BF0420CD
:1042B00084F83600012084F88A002046FEF7E8FDE5
:1042C00000BF00BF00BFFBF7A5FF064600BFFCF71D
:1042D000E5F800BF35480078401E344908700846AC
:1042E000007808B9FEF73EFE00BFFCF7F1F800BF0A
:1042F0003046FBF793FF00BF00BF00BF4FE0052033
:1043000084F83600012084F88A0000BFFCF7E0F84A
:1043100000BF3046FBF782FF00BF00BF3FE0062032
:1043200084F83600012084F88A0000BFFCF7D0F83A
:1043300000BF3046FBF772FF00BF00BF2FE0072031
:1043400084F83600012084F88A0000BFFCF7C0F82A
:1043500000BF3046FBF762FF00BF00BF1FE011E067
:1043600000BF00BF00BF94F88A00401C84F88A0098
:1043700000BFFCF7ADF800BF3046FBF74FFF00BFB2
:1043800000BF0CE000BFFCF7A3F800BF3046FBF70E
:1043900045FF00BF00BF46F62D60288064E700BFE0
:1043A000FCF7FAFA00BF5FE708010020B000002028
:1043B000002108E0064A02EBC10000220260828070
:1043C000C2804A1C91B2034A12889142F2DB7047C4
:1043D000C8230020585600082DE9F04F0C46164619
:1043E0001D46042E1ED1DFF8A091D9F80090A4EB51
:1043F0000909A9F1010313F5803F0DD94FF0000918
:10440000C0F84C90C0F85090C0F81C9047F27E293C
:10441000A5F80090BDE8F08FC46403F10109C0F86D
:1044200050903FE084B3082E25D1D0F8489009EB96
:104430000407DFF85491D9F80090A7EB0909A9F116
:104440000103A34201D2C76406E0DFF83C91D9F82A
:104450000090A144C0F84C90DFF82CA1D0F84C900B
:10446000DAF800A0A9EB0A09C0F85090D0F84C90F7
:10447000C0F8489016E0DFF81091D9F80090A144F8
:10448000C0F84C9004650DE0FFE74FF00009C0F85C
:104490004C90C0F85090C0F81C9047F27E29A5F8C7
:1044A0000090B7E7DFF8E4A0BAF800A0D0F84C908D
:1044B000B9FBFAFB0AFB1B991FFA89F8DFF8D090C9
:1044C00009EBC802B2F80490B9F1000F0BD14FF01C
:1044D0000009C0F81490C0F8189010604FF001095E
:1044E000A2F804903EE0116834E0DFF89CA0D1F817
:1044F0004C90DAF800A0A9EB0A09C1F85090D0F866
:104500005090D1F850A0D1450ED9D1F81490B9F1FE
:10451000000F01D049691DE04FF00009C0F8149068
:1045200081614861002115E0D1F81890B9F1000FC0
:1045300007D14FF00009C0F8189041618861106000
:1045400007E0D1F818C0C0F818C04161CCF81400D9
:10455000886100210029C8D1B2F8049009F101094D
:10456000A2F80490B2F80690B2F804A0D14503DA9C
:10457000B2F80490A2F80690C2614FF00009A5F8C5
:10458000009000BF46E70000E800002058560008F1
:10459000C823002010B5C269BAB1002404651468AC
:1045A000844205D14169116039B100248C6104E075
:1045B000816943694B6103B199610024446184615D
:1045C000C461C4649488641E948010BD002006E019
:1045D000054A02EBC0010022CA80421C90B2034A85
:1045E00012889042F4DB7047C82300205856000818
:1045F0002DE9F05F4FF0000B00BF00BF00BFFBF7DD
:1046000009FE834600BFFBF749FF00BF7A480078E8
:10461000401C7949087008460078012801D1FEF74E
:1046200093FC00BFFBF754FF00BF5846FBF7F6FDB5
:1046300000BF00BF00BFFBF7BFFF05466F48006823
:10464000401C6E490860084600686D490988B0FB47
:10465000F1F201FB12001FFA80FA6A4800EBCA0867
:10466000D8F80040002782E0002C7FD0D4F81490C6
:1046700094F83600082875D2DFE800F00408051B1E
:10468000063D075000BF00BF00BF6CE05B49E06C17
:104690000968401A20655949E06C0968884206D1CA
:1046A000002084F836002046FFF70EFA00E00127CC
:1046B00059E05249E06C0968401A20654F49E06CA6
:1046C0000968884215D10020E065A4F86000FBF776
:1046D00073FF20642046FEF790F92046FFF7F4F9B7
:1046E00000203434A07003206070002004F83409E6
:1046F00000E0012737E04149E06C0968401A206575
:104700003E49E06C0968884206D1042084F83600EE
:104710002046FFF73FFF00E0012724E03749E06C27
:104720000968401A20653549E06C0968884217D14C
:104730000020E065A4F86000FBF73EFF20642046FF
:10474000FEF75BF92046FFF725FF04203434A07004
:1047500003206070002004F8340902E006E001E064
:10476000012700E000BF00BF4C4600E00127002FFA
:104770003FF47AAFFBF720FF461B23480068B042A6
:1047800001D22148066000BF00BF00BFFBF742FD19
:10479000834600BFFBF782FE00BF17480078401E2B
:1047A0001549087008460078D0B9FEF7DBFB1748BA
:1047B000008800280BDD00BFFBF78AFE00BF5846CB
:1047C000FBF72CFD00BF00BFFEF790FB11E000BF20
:1047D000FBF77EFE00BF5846FBF720FD00BF08E058
:1047E00000BFFBF775FE00BF5846FBF717FD00BF83
:1047F00000BF00BFBDE8F09FB0000020E80000202F
:1048000058560008C8230020EC0000207400002047
:104810001CB500BF0EE001AB6A4600210846FCF75C
:10482000FBFDBDF8040028B903480078012801D138
:10483000FFF7DEFEEFE700006800002010B58AB049
:10484000044600201D4908601D490860FFF7B0FDBF
:104850001C48006820B947F2122020800AB010BD21
:104860001948006819490968884203D247F21320A1
:104870002080F3E7164800781F2803D347F2112061
:104880002080EBE70B20002105910A46CDE90704C3
:1048900006910D4800680F4909680A4B1B68CDE96D
:1048A0000131CDE903020A48007800230A4A0BA12E
:1048B00000900F48FCF7FAFA00BFCFE7E8000020AD
:1048C000EC00002048560008505600083C560008EE
:1048D000445600084C5600081148000875432F4FF5
:1048E000532D494949205469636B205461736B000F
:1048F000BC2A002070B58AB0044600203149086007
:104900003148006840B1314800682F490968B0FB60
:10491000F1F02F49086006E02C4800680A21B0FB3E
:10492000F1F02B4908602A4800682A4908600020F5
:104930002949086029490860002508E0284800EB5B
:10494000C5060020B080F0803060681C85B2254824
:1049500000888542F2DB2448006820B947F24730DE
:1049600020800AB070BD214800682149096888424A
:1049700003D247F248302080F3E71E4800781F2812
:1049800003D347F246302080EBE70B20002105914E
:10499000CDE907040691084614490968164A1268C9
:1049A000114B1B68CDE90132CDE9031011480078A5
:1049B0000023124A12A100901748FCF777FA00BFB3
:1049C000CFE70000F00000206456000840560008C1
:1049D0000001002004010020FC000020F80000205D
:1049E00050260020785600086856000870560008C7
:1049F0003C560008605600086C560008114B000831
:104A000075432F4F532D4949492054696D657220D4
:104A10005461736B00000000842B0020F0B50C463D
:104A2000022680F82A60012C05D12D4F466A3F6886
:104A30003E4486610CE0066A2EB9294F466A3F68FB
:104A40003E44866104E0264F066A3F683E44866124
:104A5000244F3F888669B6FBF7FC07FB1C66B5B29E
:104A6000214E06EBC502166836B90026066146617E
:104A70001060012696802CE0194F86693F68F61B6E
:104A8000C661116820E0164F8E693F68F61BCE6143
:104A9000C669CF69BE4209D90E690EB1096913E032
:104AA000002606614161086100210DE04E692EB9C2
:104AB0000026466101614861106004E04B69436172
:104AC00001611861486100210029DCD19688761CBB
:104AD0009680D6889788BE4201DA9688D680F0BD47
:104AE000FC0000207856000850260020002006E038
:104AF000054A02EBC0010022CA80421C90B2034A60
:104B000012889042F4DB7047502600207856000847
:104B10001CB500BF53E001AB6A4600210846FCF714
:104B20007BFC01A8FBF78CFFFBF746FD06462448FB
:104B30000068401C2249086008460068214909882D
:104B4000B0FBF1F201FB12001FFA80FA1E4800EBE5
:104B5000CA08D8F800404FF0000B21E0F4B1D4F8B7
:104B600010901749A0690968884214D1204600F0C6
:104B70002FF8208D022804D101212046FFF74EFF97
:104B800002E0032084F82A00A56815B12046E168F8
:104B9000A8474C4604E04FF0010B01E04FF0010B39
:104BA000BBF1000FDAD0FBF707FD871B01A8FBF76D
:104BB000BBFF06480068B84201D204480760AAE774
:104BC000FC0000207856000850260020F800002045
:104BD000F0B5114E36888569B5FBF6F706FB17551B
:104BE000ACB20E4D05EBC4021568854205D10169D2
:104BF000116039B100254D6104E0416903690B6121
:104C000003B15961012580F82A50002505614561ED
:104C100095886D1E9580F0BD7856000850260020BE
:104C200029B1064A92690243044B9A6104E0034A9F
:104C300092698243014B9A61704700000010024064
:104C400030B500210022002400232D4D6D6805F0B1
:104C50000C0121B1042905D0082923D105E0294DF3
:104C6000056022E0274D05601FE0254D6D6805F4C5
:104C70007012234D6D6805F48034022505EB9242D5
:104C80001CB9214D554305600BE01D4D6D6805F4C1
:104C900000351DB11C4D5543056002E0194D5543CB
:104CA000056002E0174D056000BF00BF144D6D6840
:104CB00005F0F0010909154D6B5C0568DD404560A4
:104CC0000F4D6D6805F4E061090A104D6B5C456895
:104CD000DD4085600A4D6D6805F46051C90A0B4DD1
:104CE0006B5C4568DD40C560054D6D6805F440416D
:104CF000890B074D6B5CC568B5FBF3F5056130BDED
:104D00000010024000127A0000093D000C00002053
:104D10001C000020704710B500F002F810BD000024
:104D20000CB50020019000903348006840F48030BA
:104D30003149086000BF3048006800F4003000903E
:104D40000198401C0190009818B90198B0F5A06F27
:104D5000F1D12948006800F4003010B10120009022
:104D600001E0002000900098012843D1234800680A
:104D700040F01000214908600846006820F0030058
:104D800008600846006840F0020008601A48406861
:104D9000194948600846406848600846406840F441
:104DA000806048600846406820F47C1048600846EF
:104DB000406840F4E81048600846006840F08070A1
:104DC000086000BF0C48006800F000700028F9D0AF
:104DD0000948406820F003000749486008464068D9
:104DE00040F00200486000BF0348406800F00C003B
:104DF0000828F9D10CBD000000100240002002403C
:104E0000042808D14FF0E021096941F004014FF076
:104E1000E022116107E04FF0E021096921F004016F
:104E20004FF0E0221161704710B504466FF00400A6
:104E3000FFF7E6FFE11704EB5171C910074A116053
:104E40001046006800EB4001C1EBC0104FF6FF7147
:104E500001EAC0000249088010BD000000000020E7
:104E60000400002010B51348006840F0010011490B
:104E7000086008464068104908400E4948600846E6
:104E800000680E4908400B4908600846006820F495
:104E9000802008600846406820F4FE0048604FF417
:104EA0001F008860FFF737FF4FF00060044908607B
:104EB00010BD0000001002400000FFF8FFFFF6FEEA
:104EC00008ED00E010B50121074800F016F80128B0
:104ED00005D106480068C0430549C1F89401012185
:104EE000014800F007F810BD00080040940123427B
:104EF00000002342CA430282704730B502460020B8
:104F000000230024158A05EA0103958905EA0104B6
:104F100013B10CB1012000E0002030BD00BFFEE75E
:104F20000146114A12884A434FF0E0235A61002299
:104F30009A611A46126942F001021A6100BF4FF0ED
:104F4000E022106900F001021AB100F48032002A58
:104F5000F5D04FF0E022126922F001024FF0E02379
:104F60001A6100229A61704704000020002460E06A
:104F700030493148006800F00FFA2F49086000BF3F
:104F800000BF00BFFBF746F9044600BFFBF786FAF7
:104F900000BF2A480078401C28490870084600785D
:104FA000012801D1FDF7D0FF00BFFBF791FA00BF48
:104FB0002046FBF733F900BF00BF00BF00BF00BFB2
:104FC00000BFFBF727F9044600BFFBF767FA00BFF5
:104FD0001A480078401E1949087008460078D0B970
:104FE000FDF7C0FF1648008800280BDD00BFFBF767
:104FF0006FFA00BF2046FBF711F900BF00BFFDF7B5
:1050000075FF11E000BFFBF763FA00BF2046FBF716
:1050100005F900BF08E000BFFBF75AFA00BF2046C1
:10502000FBF7FCF800BF00BF00BF4FF4FA70FFF7BA
:1050300077FF9DE70AD7233C08000020B00000203E
:10504000740000200EB500BF19E000200C49086074
:1050500002A80021C8230A46CDE900100846FCF743
:10506000FFFC01200749C1F8940102A800214FF478
:10507000FA730A46CDE900100846FCF7F1FCE4E7B4
:1050800094812142008021420EB500BF0FE0084804
:105090000068C0430749C1F8940102A800214FF4F9
:1050A000FA730A46CDE900100846FCF7D9FCEEE792
:1050B00094012342000023428AB000244820FFF7D5
:1050C000B3FE4FF4A060FBF76FFBFBF70BFB09A8E7
:1050D000FBF780FB00BF00BF00BFFBF79BF8044657
:1050E00000BFFBF7DBF900BF34480078401C3349B0
:1050F000087008460078012801D1FDF725FF00BFA0
:10510000FBF7E6F900BF2046FBF788F800BF00BFB9
:1051100000BF09A8032100220592CDE906210890CD
:1051200010464FF400713322254BCDE90132CDE911
:10513000031003200023234A23A100902548FBF7F6
:10514000B5FE00BF00BF00BFFBF764F8044600BF18
:10515000FBF7A4F900BF19480078401E17490870F2
:1051600008460078D0B9FDF7FDFE1B4800880028EE
:105170000BDD00BFFBF7ACF900BF2046FBF74EF894
:1051800000BF00BFFDF7B2FE11E000BFFBF7A0F9C2
:1051900000BF2046FBF742F800BF08E000BFFBF766
:1051A00097F900BF2046FBF739F800BF00BF00BFEA
:1051B00009A8FBF709FD00BFFEE70000B0000020D2
:1051C000E0010020DD510008737461727420746185
:1051D000736B0000180100207400002030B58BB004
:1051E0000446002500BFFBF7BFF80AA8FBF7D4FD73
:1051F000FBF728F90AAA01210846FBF75FFC00BF6C
:1052000000BF00BFFBF706F8054600BFFBF746F9F5
:1052100000BF4B480078401C494908700846007898
:10522000012801D1FDF790FE00BFFBF751F900BF47
:105230002846FAF7F3FF00BF00BF00BF0AA803210A
:1052400000220592CDE906210890104680210C220B
:105250003C4BCDE90132CDE90310042000233A4A4A
:105260003AA100903C48FBF721FE0AA80321002246
:105270000592CDE906210890104680210C22374B7B
:10528000CDE90132CDE9031005200023344A35A1D0
:1052900000903748FBF70AFE0AA803210022059276
:1052A000CDE906210890104680210C22314BCDE932
:1052B0000132CDE90310062000232F4A2FA10090D0
:1052C0003248FBF7F3FD0AA93148FEF7A9FF00BFFA
:1052D00000BF00BFFAF79EFF054600BFFBF7DEF8F0
:1052E00000BF17480078401E15490870084600782E
:1052F000D0B9FDF737FE2748008800280BDD00BF36
:10530000FBF7E6F800BF2846FAF788FF00BF00BFAA
:10531000FDF7ECFD11E000BFFBF7DAF800BF28460F
:10532000FAF77CFF00BF08E000BFFBF7D1F800BF31
:105330002846FAF773FF00BF00BF00BF0BB030BDB7
:10534000B0000020A80A0020455000086C656430B9
:10535000207461736B000000E0090020700D0020D4
:10536000895000086C656431207461736B00000023
:10537000A80C0020381000206D4F0008666C6F618B
:10538000742074657374207461736B00700F002057
:10539000180100207400002090EA010F48BF81F03E
:1053A000004100F1AE80421A3CBF801A89184FEAD2
:1053B000D0524FF07F4C1CEA410FA2EBD15318BFE3
:1053C0009CEA026F00F03B804FF0004C4CEA00205A
:1053D0004CEA012121FA03FC10EB0C0C1ED202F165
:1053E000FF325FEA1C2040EBC25038BF70471CF010
:1053F0007F0F4FEA400C18BFBCF17F4F38BF70479A
:10540000C3F12003994008BF20F00100BCF17F4F99
:1054100038BF7047A0F1C04000F066B84FEA3C00CA
:10542000000A40EBC25028BF1CF0FF0F4FEA400CAF
:10543000E6D018BFBCF17F4F38BF7047EAE79CEA5F
:10544000026F05D010EA5C0F08BF00F00040704703
:1054500010B500F003F800BF64FBBE3E0EF1020E73
:105460002EF0030E5EF8044B244204D44FEA4102AE
:10547000B2F17F4F11D84FEA4003B3F17F4F0CD800
:105480000ED14FEAD07CB2F17F4F0CEB4C0C0CF1FB
:10549000020C08BF4CEBD17C04E04FF0080C01E09B
:1054A0004FEAD17C0CEB4C0324FA03F404F007041C
:1054B000B4F1040C06D20EEB840CBDE810404CF0A5
:1054C000010C6047DFE80CF0070802024FF00040D3
:1054D000A0F5800010BD0846420018BFD2F18072CE
:1054E00088BF00F0004010BDFF2141EAD050C00548
:1054F0007047000090EA010F48BF81F000413FF57E
:1055000052AF421A04D882F00042A0EB02001144CC
:105510004FEAD0524FF07F4C1CEA410FA2EBD1531F
:1055200018BF9CEA026F4AD04FF0004C4CEA0020B2
:105530004CEA012121FA03FCB0EB0C0C0FD412F061
:10554000FE0F36D05FEA4C001DD5001240EBC25072
:1055500038BF70471CF03F0F18BF70470BE0A2F137
:1055600001025FEA1C2040EBC25038BF70471CF0BC
:105570007F0F18BF7047C3F12003994014BF401E2E
:1055800020F00100704780084FEA122308BF7047DF
:10559000B0FA80FCA2EB0C02CCF1280C60FA0CF003
:1055A00093EA122F04BF00EBC25070474FEAC3705A
:1055B0007047130A5FEADC1008BF7047F6E79CEA01
:1055C000026F04D010EA5C0F08BF0020704710B5CE
:1055D000FFF744FF40DFF63E81F0004070470000D7
:1055E000481200200C0000008000000000020000B3
:1055F000481400200A000000400100008815002027
:105600000C0000008000000000020000881700204D
:10561000800000000002000064000000400600005E
:10562000881900201E0000000A000000C81F00208A
:105630000C0000008000000000020000400000009C
:10564000C800000001000000C82100200C0000007C
:10565000800000000002000011000000880000002F
:105660000200000064000000502400200C00000034
:10567000800000000002000011000000880000000F
:10568000901400000101010078563412010100005D
:10569000000000000000000000000000000000000A
:1056A00000000000000000000000000000000000FA
:1056B00000000000000000000101010028000400BB
:1056C00020000100000000000000000000000000B9
:1056D00000000000000000000000000000000000CA
:1056E0000000000001002000010010000C0010006C
:1056F00000000000000000000000000000000000AA
:105700000000000000000000000000000000000099
:105710000000000000000000000000000101010086
:105720002C00010120000C002000200004000400D7
:105730000000000000000000000000000000000069
:105740000000000000000000000000000000000059
:105750000000000000000000000000000000000049
:105760000101010130000100000000000000000004
:105770000000000000000000000000000000000029
:105780000000000000000000000000000000000019
:105790000101010128000C00800100000401010149
:1057A0000101010101000101C80008000101000020
:1057B00000000000000000000000000000000000E9
:1057C00000000000000000000000000000000000D9
:1057D00000000000000000000000000000000000C9
:1057E000000000000101340008005D762A06000078
:1057F0001058000800000020140100006C0100088F
:1058000024590008140100209C3100008801000880
:1058100000000000000000000AD7233C0000000048
:105820000102030401020304060708090204060832
:105830000000000000000000000000000000000068
:105840000000000000000000000000000000000058
:105850000000000000000000000000000000000048
:105860000000000000000000000000000000000038
:105870000000000000000000000000000000000028
:105880000000000000000000000000000000000018
:105890000000000000000000000000000000000008
:1058A00000000000000000000000000000000000F8
:1058B00000000000000000000000000000000000E8
:1058C00000000000000000000000000000000000D8
:1058D00000000000000000000000000000000000C8
:1058E00000000000000000000000000000000000B8
:1058F00000000000000000000000000000000000A8
:105900000000000000000000000000000000000097
:105910000000000000000000000000000000000087
:045920000000000083
:0400000508000131BD
:00000001FF
