:020000040800F2
:10000000280400204501000829030008D90200083F
:1000100025030008B9010008630E00080000000075
:10002000000000000000000000000000C9040008FB
:10003000BD01000800000000B1030008DD05000854
:100040005F0100085F0100085F0100085F01000810
:100050005F0100085F0100085F0100085F01000800
:100060005F0100085F0100085F0100085F010008F0
:100070005F0100085F0100085F0100085F010008E0
:100080005F0100085F0100085F0100085F010008D0
:100090005F0100085F0100085F0100085F010008C0
:1000A0005F0100085F0100085F0100085F010008B0
:1000B0005F0100085F0100085F0100085F010008A0
:1000C0005F0100085F0100085F0100085F01000890
:1000D0005F010008590C00085F0100085F0100087B
:1000E0005F0100085F0100085F0100085F01000870
:1000F0005F0100085F0100085F0100085F01000860
:100100005F0100085F010008710900085F01000835
:100110005F0100085F0100085F0100085F0100083F
:100120005F0100085F0100085F0100085F0100082F
:10013000DFF80CD000F02EF8004800472511000829
:10014000280400200648804706480047FEE7FEE7EF
:10015000FEE7FEE7FEE7FEE7FEE7FEE7FEE7FEE777
:100160001D0600083101000830B50B46014600208D
:100170002022012409E021FA02F59D4205D303FA69
:1001800002F5491B04FA02F52844151EA2F10102EA
:10019000F1DC30BD064C074D06E0E06840F001039D
:1001A00094E8070098471034AC42F6D3FFF7C4FF39
:1001B000D8110008F811000800BFFEE770472DE9CC
:1001C000F0410246002500260020002300240027DD
:1001D00091F803C00CF00F0591F803C00CF0100C5F
:1001E000BCF1000F03D091F802C04CEA050591F86C
:1001F00000C0BCF1000F31D0146800202BE04FF09C
:10020000010C0CFA00F3B1F800C00CEA03069E42A0
:1002100020D183004FF00F0C0CFA03F7BC4305FA12
:1002200003FC4CEA040491F803C0BCF1280F06D18A
:100230004FF0010C0CFA00FCC2F814C00AE091F86F
:1002400003C0BCF1480F05D14FF0010C0CFA00FCC3
:10025000C2F810C0401C0828D1D31460B1F800C007
:10026000BCF1FF0F34DD546800202EE000F1080CD3
:100270004FF0010808FA0CF3B1F800C00CEA0306CD
:100280009E4221D183004FF00F0C0CFA03F7BC43C0
:1002900005FA03FC4CEA040491F803C0BCF1280FF2
:1002A00005D100F1080C08FA0CF8C2F8148091F896
:1002B00003C0BCF1480F07D100F1080C4FF0010852
:1002C00008FA0CF8C2F81080401C0828CED35460FD
:1002D000BDE8F0810161704700BFFEE708B520204E
:1002E000ADF8000010208DF8030003208DF8020007
:1002F0000121482000F06EF869460848FFF75FFFCB
:1003000069460748FFF75BFF20210548FFF7E2FF3A
:1003100020210248FFF7DEFF08BD0000000C01406D
:100320000018014000BFFEE77047000070B50021D3
:1003300000230F22C47804B3154C246804F4E0644D
:10034000C4F5E064210AC1F10403CA40447804FA08
:1003500003F184781440214309010E4C0678A1551D
:10036000047804F01F050124AC4005786D11AD0040
:1003700005F1E025C5F8004109E0047804F01F0507
:100380000124AC40044D0678761145F8264070BD36
:100390000CED00E000E400E080E100E002490143F0
:1003A000024A1160704700000000FA050CED00E001
:1003B0007047000029B1064AD2690243044BDA6152
:1003C00004E0034AD2698243014BDA6170470000BE
:1003D0000010024029B1064A92690243044B9A6117
:1003E00004E0034A92698243014B9A61704700001E
:1003F0000010024030B500210022002400232D4DC2
:100400006D6805F00C0121B1042905D0082923D11C
:1004100005E0294D056022E0274D05601FE0254DD0
:100420006D6805F47012234D6D6805F48034022563
:1004300005EB92421CB9214D554305600BE01D4D63
:100440006D6805F400351DB11C4D5543056002E093
:10045000194D5543056002E0174D056000BF00BF10
:10046000144D6D6805F0F0010909154D6B5C0568C8
:10047000DD4045600F4D6D6805F4E061090A104DDF
:100480006B5C4568DD4085600A4D6D6805F4605120
:10049000C90A0B4D6B5C4568DD40C560054D6D6854
:1004A00005F44041890B074D6B5CC568B5FBF3F55E
:1004B000056130BD0010024000127A0000093D00C5
:1004C0000000002010000020704710B500F002F876
:1004D00010BD00000CB5002001900090334800686A
:1004E00040F480303149086000BF3048006800F4B3
:1004F000003000900198401C0190009818B90198B4
:10050000B0F5A06FF1D12948006800F4003010B1B7
:100510000120009001E0002000900098012843D1C4
:100520002348006840F01000214908600846006830
:1005300020F0030008600846006840F002000860F0
:100540001A484068194948600846406848600846AB
:10055000406840F4806048600846406820F47C10A1
:1005600048600846406840F4E81048600846006863
:1005700040F08070086000BF0C48006800F0007018
:100580000028F9D00948406820F003000749486076
:100590000846406840F00200486000BF03484068D9
:1005A00000F00C000828F9D10CBD0000001002403A
:1005B00000200240042808D14FF0E021096941F0F1
:1005C00004014FF0E022116107E04FF0E0210969DA
:1005D00021F004014FF0E0221161704770470000E4
:1005E00010B504466FF00400FFF7E4FFE11704EBD9
:1005F0005171C910074A11601046006800EB4001B4
:10060000C1EBC0104FF6FF7101EAC000024908803B
:1006100010BD0000180000201C00002010B5134879
:10062000006840F001001149086008464068104920
:1006300008400E494860084600680E4908400B49CA
:1006400008600846006820F480200860084640687A
:1006500020F4FE0048604FF41F008860FFF735FF6C
:100660004FF000600449086010BD00000010024017
:100670000000FFF8FFFFF6FE08ED00E0F0B50C46C5
:10068000154600220021068C4FF6FE773E40068478
:10069000028B018C4FF60C7632407E1C06EA031664
:1006A0002E433243104EB0420ED0104EB0420BD00B
:1006B000B0F1804F08D00E4EB04205D00D4EB04282
:1006C00002D00D4EB04206D14FF6FD76314044F0D7
:1006D0000106314305E04FF6F576314044F001065E
:1006E000314302830184F0BD002C014000340140FD
:1006F0000004004000080040000C0040F0B50C462B
:100700001546002200210026078C4FF6EF7C07EAF1
:100710000C070784028B018C4FF6FF7707EA04165B
:1007200040F6FF473A404FF6FF7707EA03373A4370
:100730004FF6FF7707EA05273A43114FB8420ED02C
:10074000104FB8420BD0B0F1804F08D00E4FB842D6
:1007500005D00E4FB84202D00D4FB84206D14FF629
:10076000DF77394046F01007394305E04FF65F77F1
:10077000394044F01007394302830184F0BD000082
:10078000002C0140003401400004004000080040FB
:10079000000C0040F0B50C46154600220021002652
:1007A000078C4FF6FF6C07EA0C070784828B018CDD
:1007B0004FF6FF7707EA04264FF60C773A404FF6DC
:1007C000FF7707EA03172F433A43114FB8420ED081
:1007D000104FB8420BD0B0F1804F08D00E4FB84246
:1007E00005D00E4FB84202D00D4FB84206D14FF699
:1007F000FF57394046F48077394305E04FF2FF5701
:10080000394044F48077394382830184F0BD00008D
:10081000002C01400034014000040040000800406A
:10082000000C0040F0B50C461546002200210026C1
:10083000078C4EF6FF7C07EA0C070784828B018C3D
:100840004FF6FF7707EA043640F6FF473A404FF687
:10085000FF7707EA05273A434FF6FF7707EA0337A2
:100860003A43114FB8420ED0104FB8420BD0B0F1FE
:10087000804F08D00E4FB84205D00E4FB84202D07C
:100880000D4FB84206D14DF6FF77394046F48057F8
:10089000394305E047F6FF57394044F48057394360
:1008A00082830184F0BD0000002C0140003401402F
:1008B0000004004000080040000C004030B589B042
:1008C00004460D4601210820FFF774FD0121042094
:1008D000FFF780FD28208DF807000120ADF8040007
:1008E00003208DF8060001A91F48FFF768FC0020CF
:1008F000ADF81E00ADF81A00ADF81C40681E80B2BD
:10090000ADF8180006A9194800F054F90020ADF818
:100910000C00ADF81400ADF80E00ADF81200012087
:10092000ADF8100003A9114800F0AEF803210F48FC
:1009300000F086F8012203210C4800F0FBF8322079
:100940008DF8080001208DF80B0002208DF80900B9
:1009500001208DF80A0002A8FFF7E8FC01210348F6
:1009600000F071F809B030BD00080140000C0040F3
:1009700010B53048007800F08000002854D10121E3
:100980002D4800F06FF8D0B12A48007800F0400000
:10099000A8B12848007800F03F003F280AD1254838
:1009A000007840F08000234908704FF6FF7023491B
:1009B000088004E01F480078401C1E49087002218E
:1009C0001D4800F04FF878B31A48007800F0400056
:1009D00078B11848007840F0800016490870164831
:1009E00000F03DF8154908800021134800F0ABF8ED
:1009F0001AE000200F490870104908800D4800785F
:100A000040F040000B49087000210B4800F01BF833
:100A10000021094800F0A0F80221074800F093F8EF
:100A20000121054800F00FF80321034800F008F801
:100A300010BD000014000020000C00401600002033
:100A4000CA430282704721B1028842F0010202804B
:100A500004E002884FF6FE731A4002807047014698
:100A6000888E704730B50246002000230024158A86
:100A700005EA0103958905EA010413B10CB10120CF
:100A800000E0002030BD000070B505460C4624484B
:100A900085420ED0234885420BD0B5F1804F08D057
:100AA0002148854205D02148854202D02048854210
:100AB00000D100E000BF208850B92389A288618856
:100AC0002846FFF7DBFDE188284600F047F825E0DF
:100AD000208804280AD12389A28861882846FFF744
:100AE0000DFEE188284600F042F817E0208808282B
:100AF0000AD12389A28861882846FFF74BFEE18846
:100B0000284600F041F809E02389A2886188284638
:100B1000FFF788FEE188284600F03FF870BD00002E
:100B2000002C014000340140000400400008004057
:100B3000000C00401AB183890B43838102E0838952
:100B40008B43838170470A460021018C4FF6FD7369
:100B5000194011430184704781847047028B4FF61E
:100B6000F3731A400283028B0A4302837047028B9D
:100B70004FF2FF331A400283028B4FF6FF7303EAF2
:100B800001231A4302837047828B4FF6F3731A4096
:100B90008283828B0A4382837047828B4FF2FF33BA
:100BA0001A408283828B4FF6FF7303EA01231A43B4
:100BB00082837047002202881D4B98420ED01D4B45
:100BC00098420BD0B0F1804F08D01B4B984205D013
:100BD0001A4B984202D01A4B984204D14FF68F73A9
:100BE0001A404B881A43174B984207D0164B98422D
:100BF00004D04FF6FF431A40CB881A4302808B88FB
:100C000083850B8803850A4B98420BD0094B984289
:100C100008D00E4B984205D00D4B984202D00D4B98
:100C2000984201D10B7A038601238382704700002A
:100C3000002C014000340140000400400008004046
:100C4000000C004000100040001400400040014033
:100C5000004401400048014010B540F225510C48C5
:100C600000F03AF8012812D1094800F0F1F8C4B2B6
:100C70002146074800F0F1F800BF4021044800F089
:100C80001EF80128F9D14021014800F003F810BDF9
:100C90000038014001F40072B2F5007F00D100BFBE
:100CA000CA430280704721B1828942F40052828196
:100CB00004E082894DF6FF731A4082817047024634
:100CC0000020B1F5007F00D100BF13880B400BB1AD
:100CD000012000E00020704770B502460024002388
:100CE0000025002040F66A16B14200D100BFC1F3D2
:100CF000421501F01F03012606FA03F3012D02D16C
:100D00009689334006E0022D02D1168A334001E075
:100D1000968A33400C12012606FA04F416883440F1
:100D200013B10CB1012000E0002070BDF0B5034606
:100D3000002400260025002040F66A17B94200D1A1
:100D400000BF1846C1F3421401F01F06012707FA3D
:100D500006F5012C01D10C3004E0022C01D1103039
:100D600000E014301AB107682F43076002E00768FB
:100D7000AF430760F0BD00002DE9F04786B005469F
:100D80000E460024A24600BFA1460027B08900B14C
:100D900000BF2F462C8A4CF6FF700440F0880443B5
:100DA0002C82AC894EF6F3100440B0883189084398
:100DB000718908430443AC81AC8A4FF6FF4004407C
:100DC000B0890443AC8201A8FFF714FB1F48874297
:100DD00002D1DDF810A001E0DDF80CA0A88900F434
:100DE000004040B10AEBCA0000EB0A10316849002C
:100DF000B0FBF1F807E00AEBCA0000EB0A1031681B
:100E00008900B0FBF1F86420B8FBF0F00401200980
:100E1000642101FB1089A88900F4004040B1322010
:100E200000EBC900B0FBF1F000F00700044308E05C
:100E3000322000EB09106421B0FBF1F000F00F004C
:100E400004432C8106B0BDE8F08700000038014063
:100E500001468888C0F308007047C1F30802828009
:100E6000704700BFFEE7000010B586B004460121C0
:100E70008803FFF7AFFA01210420FFF7ABFA4FF424
:100E80000070ADF8140003208DF8160018208DF8BE
:100E9000170005A92048FFF792F94FF48060ADF8DC
:100EA000140003208DF8160004208DF8170005A902
:100EB0001948FFF784F901940020ADF810000C20C8
:100EC000ADF80E000020ADF80C00ADF80A00ADF84A
:100ED000080001A91148FFF74FFF25208DF80000F9
:100EE00001208DF8030003208DF801008DF8020029
:100EF0006846FFF71BFA01210848FFF7D4FE40219E
:100F00000648FFF7C7FE012240F225510348FFF7CC
:100F10000DFF06B010BD0000000801400038014080
:100F20000FB4054B10B503A9044A029800F018F855
:100F300010BC5DF814FB0000011100082000002027
:100F400002E008C8121F08C1002AFAD17047704792
:100F5000002001E001C1121F002AFBD170470000F0
:100F60002DE9FF4F89B09B460446002506E0252861
:100F70000BD05A460B999047641C6D1C20780028B2
:100F8000F5D10DB02846BDE8F08F0027B846012204
:100F9000474900E0074314F8013F203B02FA03F001
:100FA0000842F7D120782E2819D114F8010F47F004
:100FB00004072A280ED06FF02F022078A0F130010C
:100FC00009290CD808EB880102EB410100EB01086C
:100FD000641CF2E70A98641C50F8048B0A9020788D
:100FE0000028CED0642808D0692806D075281ED0E5
:100FF0005A460B9990476D1C58E00A994FF00A0920
:1010000001C90A91002802DA40422D2102E0390587
:1010100004D52B218DF82010012103E0F90704D01D
:101020002021F7E78A4608AE0DE00021FAE70A9989
:101030004FF00A0901C90A91F7E74946FFF794F80A
:10104000303106F8011D0028F7D1ADEB060000F1A4
:101050002009780701D44FF00108C84502DDA8EB4C
:10106000090000E000208046002706E008A85A4654
:10107000C05D0B9990476D1C7F1C5745F6DB04E063
:1010800030205A460B9990476D1CB8F10001A8F129
:101090000108F5DC05E016F8010B5A460B9990475C
:1010A0006D1CB9F10001A9F10109F4DC641C65E7CC
:1010B000092801000146114A12884A434FF0E023F3
:1010C0005A6100229A611A46126942F001021A61BD
:1010D00000BF4FF0E022106900F001021AB100F4E5
:1010E0008032002AF5D04FF0E022126922F001028E
:1010F0004FF0E0231A6100229A6170471C00002023
:1011000070B504460D46E1B20548FFF7A6FE00BFE4
:1011100080210348FFF7D3FD0028F9D0204670BD99
:1011200000380140002500244FF4A060FFF736F995
:10113000FFF7D4F84FF41650FFF796FE4820FFF75C
:101140004FFA48214FF6FF70FFF7B8FB16A0FFF7E4
:10115000E7FE27E01748007800F0800078B11548D6
:10116000007800F03F04C4EB0444134800880444B2
:10117000214612A0FFF7D4FE00200E490870681C1B
:10118000C5B2142095FBF0F100FB115038B911489D
:10119000006808B9012000E000200E4908600A201C
:1011A000FFF788FFD6E70000CFB5CDB3C6F4B6AFE2
:1011B000000000001400002016000020B8DFB5E792
:1011C000C6BDB3D6D0F8CAB1BCE4A3BA25642075B5
:1011D000730D0A0094012342F8110008000000205A
:1011E00024000000400F00081C120008240000200A
:1011F00004040000500F0008000000000102030476
:1012000001020304060708090204060800000000A2
:0C121000000000000000000000000000D2
:0400000508000131BD
:00000001FF
